{
	"contracts/ifelse.sol": {
		"ifelse": {
			"abi": [
				{
					"inputs": [],
					"name": "CuttOfAge",
					"outputs": [
						{
							"internalType": "uint256",
							"name": "",
							"type": "uint256"
						}
					],
					"stateMutability": "view",
					"type": "function"
				},
				{
					"inputs": [],
					"name": "adultFees",
					"outputs": [
						{
							"internalType": "uint256",
							"name": "",
							"type": "uint256"
						}
					],
					"stateMutability": "view",
					"type": "function"
				},
				{
					"inputs": [],
					"name": "childFees",
					"outputs": [
						{
							"internalType": "uint256",
							"name": "",
							"type": "uint256"
						}
					],
					"stateMutability": "view",
					"type": "function"
				},
				{
					"inputs": [
						{
							"internalType": "uint256",
							"name": "age",
							"type": "uint256"
						},
						{
							"internalType": "bool",
							"name": "isGirl",
							"type": "bool"
						}
					],
					"name": "fee",
					"outputs": [
						{
							"internalType": "uint256",
							"name": "",
							"type": "uint256"
						},
						{
							"internalType": "string",
							"name": "gift",
							"type": "string"
						}
					],
					"stateMutability": "pure",
					"type": "function"
				},
				{
					"inputs": [
						{
							"internalType": "uint256",
							"name": "age",
							"type": "uint256"
						},
						{
							"internalType": "bool",
							"name": "isGirl",
							"type": "bool"
						}
					],
					"name": "fee3",
					"outputs": [
						{
							"internalType": "uint256",
							"name": "",
							"type": "uint256"
						},
						{
							"internalType": "string",
							"name": "gift",
							"type": "string"
						}
					],
					"stateMutability": "pure",
					"type": "function"
				}
			],
			"devdoc": {
				"kind": "dev",
				"methods": {},
				"version": 1
			},
			"evm": {
				"assembly": "    /* \"contracts/ifelse.sol\":59:819  contract ifelse{... */\n  mstore(0x40, 0x80)\n  callvalue\n  dup1\n  iszero\n  tag_1\n  jumpi\n  0x00\n  dup1\n  revert\ntag_1:\n  pop\n  dataSize(sub_0)\n  dup1\n  dataOffset(sub_0)\n  0x00\n  codecopy\n  0x00\n  return\nstop\n\nsub_0: assembly {\n        /* \"contracts/ifelse.sol\":59:819  contract ifelse{... */\n      mstore(0x40, 0x80)\n      callvalue\n      dup1\n      iszero\n      tag_1\n      jumpi\n      0x00\n      dup1\n      revert\n    tag_1:\n      pop\n      jumpi(tag_2, lt(calldatasize, 0x04))\n      shr(0xe0, calldataload(0x00))\n      dup1\n      0x226c7e2d\n      eq\n      tag_3\n      jumpi\n      dup1\n      0x33211911\n      eq\n      tag_4\n      jumpi\n      dup1\n      0x979ffeb8\n      eq\n      tag_5\n      jumpi\n      dup1\n      0xbe02e8ae\n      eq\n      tag_6\n      jumpi\n      dup1\n      0xbfd38ca5\n      eq\n      tag_7\n      jumpi\n    tag_2:\n      0x00\n      dup1\n      revert\n        /* \"contracts/ifelse.sol\":206:596  function fee(uint age,bool isGirl) public pure returns(uint,string memory gift){... */\n    tag_3:\n      tag_8\n      0x04\n      dup1\n      calldatasize\n      sub\n      dup2\n      add\n      swap1\n      tag_9\n      swap2\n      swap1\n      tag_10\n      jump\t// in\n    tag_9:\n      tag_11\n      jump\t// in\n    tag_8:\n      mload(0x40)\n      tag_12\n      swap3\n      swap2\n      swap1\n      tag_13\n      jump\t// in\n    tag_12:\n      mload(0x40)\n      dup1\n      swap2\n      sub\n      swap1\n      return\n        /* \"contracts/ifelse.sol\":123:157  uint public constant childFees = 0 */\n    tag_4:\n      tag_14\n      tag_15\n      jump\t// in\n    tag_14:\n      mload(0x40)\n      tag_16\n      swap2\n      swap1\n      tag_17\n      jump\t// in\n    tag_16:\n      mload(0x40)\n      dup1\n      swap2\n      sub\n      swap1\n      return\n        /* \"contracts/ifelse.sol\":164:199  uint public constant CuttOfAge = 10 */\n    tag_5:\n      tag_18\n      tag_19\n      jump\t// in\n    tag_18:\n      mload(0x40)\n      tag_20\n      swap2\n      swap1\n      tag_17\n      jump\t// in\n    tag_20:\n      mload(0x40)\n      dup1\n      swap2\n      sub\n      swap1\n      return\n        /* \"contracts/ifelse.sol\":81:116  uint public constant adultFees = 20 */\n    tag_6:\n      tag_21\n      tag_22\n      jump\t// in\n    tag_21:\n      mload(0x40)\n      tag_23\n      swap2\n      swap1\n      tag_17\n      jump\t// in\n    tag_23:\n      mload(0x40)\n      dup1\n      swap2\n      sub\n      swap1\n      return\n        /* \"contracts/ifelse.sol\":604:810  function fee3(uint age,bool isGirl) public pure returns(uint,string memory gift)  {... */\n    tag_7:\n      tag_24\n      0x04\n      dup1\n      calldatasize\n      sub\n      dup2\n      add\n      swap1\n      tag_25\n      swap2\n      swap1\n      tag_10\n      jump\t// in\n    tag_25:\n      tag_26\n      jump\t// in\n    tag_24:\n      mload(0x40)\n      tag_27\n      swap3\n      swap2\n      swap1\n      tag_13\n      jump\t// in\n    tag_27:\n      mload(0x40)\n      dup1\n      swap2\n      sub\n      swap1\n      return\n        /* \"contracts/ifelse.sol\":206:596  function fee(uint age,bool isGirl) public pure returns(uint,string memory gift){... */\n    tag_11:\n        /* \"contracts/ifelse.sol\":261:265  uint */\n      0x00\n        /* \"contracts/ifelse.sol\":266:284  string memory gift */\n      0x60\n        /* \"contracts/ifelse.sol\":197:199  10 */\n      0x0a\n        /* \"contracts/ifelse.sol\":299:302  age */\n      dup5\n        /* \"contracts/ifelse.sol\":299:314  age < CuttOfAge */\n      lt\n        /* \"contracts/ifelse.sol\":296:580  if(age < CuttOfAge){... */\n      iszero\n      tag_29\n      jumpi\n        /* \"contracts/ifelse.sol\":333:339  isGirl */\n      dup3\n        /* \"contracts/ifelse.sol\":330:462  if(isGirl){... */\n      iszero\n      tag_30\n      jumpi\n        /* \"contracts/ifelse.sol\":359:379  gift = \"Barbie Girl\" */\n      mload(0x40)\n      dup1\n      0x40\n      add\n      0x40\n      mstore\n      dup1\n      0x0b\n      dup2\n      mstore\n      0x20\n      add\n      0x426172626965204769726c000000000000000000000000000000000000000000\n      dup2\n      mstore\n      pop\n      swap1\n      pop\n        /* \"contracts/ifelse.sol\":330:462  if(isGirl){... */\n      jump(tag_31)\n    tag_30:\n        /* \"contracts/ifelse.sol\":433:446  gift = \"ball\" */\n      mload(0x40)\n      dup1\n      0x40\n      add\n      0x40\n      mstore\n      dup1\n      0x04\n      dup2\n      mstore\n      0x20\n      add\n      0x62616c6c00000000000000000000000000000000000000000000000000000000\n      dup2\n      mstore\n      pop\n      swap1\n      pop\n        /* \"contracts/ifelse.sol\":330:462  if(isGirl){... */\n    tag_31:\n        /* \"contracts/ifelse.sol\":156:157  0 */\n      0x00\n        /* \"contracts/ifelse.sol\":476:498  return(childFees,gift) */\n      swap2\n      pop\n      jump(tag_28)\n        /* \"contracts/ifelse.sol\":296:580  if(age < CuttOfAge){... */\n    tag_29:\n        /* \"contracts/ifelse.sol\":114:116  20 */\n      0x14\n        /* \"contracts/ifelse.sol\":538:563  return (adultFees , gift) */\n      swap2\n      pop\n        /* \"contracts/ifelse.sol\":206:596  function fee(uint age,bool isGirl) public pure returns(uint,string memory gift){... */\n    tag_28:\n      swap3\n      pop\n      swap3\n      swap1\n      pop\n      jump\t// out\n        /* \"contracts/ifelse.sol\":123:157  uint public constant childFees = 0 */\n    tag_15:\n        /* \"contracts/ifelse.sol\":156:157  0 */\n      0x00\n        /* \"contracts/ifelse.sol\":123:157  uint public constant childFees = 0 */\n      dup2\n      jump\t// out\n        /* \"contracts/ifelse.sol\":164:199  uint public constant CuttOfAge = 10 */\n    tag_19:\n        /* \"contracts/ifelse.sol\":197:199  10 */\n      0x0a\n        /* \"contracts/ifelse.sol\":164:199  uint public constant CuttOfAge = 10 */\n      dup2\n      jump\t// out\n        /* \"contracts/ifelse.sol\":81:116  uint public constant adultFees = 20 */\n    tag_22:\n        /* \"contracts/ifelse.sol\":114:116  20 */\n      0x14\n        /* \"contracts/ifelse.sol\":81:116  uint public constant adultFees = 20 */\n      dup2\n      jump\t// out\n        /* \"contracts/ifelse.sol\":604:810  function fee3(uint age,bool isGirl) public pure returns(uint,string memory gift)  {... */\n    tag_26:\n        /* \"contracts/ifelse.sol\":660:664  uint */\n      0x00\n        /* \"contracts/ifelse.sol\":665:683  string memory gift */\n      0x60\n        /* \"contracts/ifelse.sol\":197:199  10 */\n      0x0a\n        /* \"contracts/ifelse.sol\":709:712  age */\n      dup5\n        /* \"contracts/ifelse.sol\":709:724  age < CuttOfAge */\n      lt\n        /* \"contracts/ifelse.sol\":708:799  (age < CuttOfAge) ? (childFees,(isGirl)?  \"Barbie girl\" : \"ball\") : (adultFees , \"no gift\") */\n      tag_34\n      jumpi\n        /* \"contracts/ifelse.sol\":114:116  20 */\n      0x14\n        /* \"contracts/ifelse.sol\":708:799  (age < CuttOfAge) ? (childFees,(isGirl)?  \"Barbie girl\" : \"ball\") : (adultFees , \"no gift\") */\n      mload(0x40)\n      dup1\n      0x40\n      add\n      0x40\n      mstore\n      dup1\n      0x07\n      dup2\n      mstore\n      0x20\n      add\n      0x6e6f206769667400000000000000000000000000000000000000000000000000\n      dup2\n      mstore\n      pop\n      jump(tag_35)\n    tag_34:\n        /* \"contracts/ifelse.sol\":156:157  0 */\n      0x00\n        /* \"contracts/ifelse.sol\":740:746  isGirl */\n      dup4\n        /* \"contracts/ifelse.sol\":739:772  (isGirl)?  \"Barbie girl\" : \"ball\" */\n      tag_36\n      jumpi\n      mload(0x40)\n      dup1\n      0x40\n      add\n      0x40\n      mstore\n      dup1\n      0x04\n      dup2\n      mstore\n      0x20\n      add\n      0x62616c6c00000000000000000000000000000000000000000000000000000000\n      dup2\n      mstore\n      pop\n      jump(tag_37)\n    tag_36:\n      mload(0x40)\n      dup1\n      0x40\n      add\n      0x40\n      mstore\n      dup1\n      0x0b\n      dup2\n      mstore\n      0x20\n      add\n      0x426172626965206769726c000000000000000000000000000000000000000000\n      dup2\n      mstore\n      pop\n    tag_37:\n        /* \"contracts/ifelse.sol\":708:799  (age < CuttOfAge) ? (childFees,(isGirl)?  \"Barbie girl\" : \"ball\") : (adultFees , \"no gift\") */\n    tag_35:\n        /* \"contracts/ifelse.sol\":701:799  return (age < CuttOfAge) ? (childFees,(isGirl)?  \"Barbie girl\" : \"ball\") : (adultFees , \"no gift\") */\n      swap2\n      pop\n      swap2\n      pop\n        /* \"contracts/ifelse.sol\":604:810  function fee3(uint age,bool isGirl) public pure returns(uint,string memory gift)  {... */\n      swap3\n      pop\n      swap3\n      swap1\n      pop\n      jump\t// out\n        /* \"#utility.yul\":88:205   */\n    tag_39:\n        /* \"#utility.yul\":197:198   */\n      0x00\n        /* \"#utility.yul\":194:195   */\n      dup1\n        /* \"#utility.yul\":187:199   */\n      revert\n        /* \"#utility.yul\":334:411   */\n    tag_41:\n        /* \"#utility.yul\":371:378   */\n      0x00\n        /* \"#utility.yul\":400:405   */\n      dup2\n        /* \"#utility.yul\":389:405   */\n      swap1\n      pop\n        /* \"#utility.yul\":334:411   */\n      swap2\n      swap1\n      pop\n      jump\t// out\n        /* \"#utility.yul\":417:539   */\n    tag_42:\n        /* \"#utility.yul\":490:514   */\n      tag_59\n        /* \"#utility.yul\":508:513   */\n      dup2\n        /* \"#utility.yul\":490:514   */\n      tag_41\n      jump\t// in\n    tag_59:\n        /* \"#utility.yul\":483:488   */\n      dup2\n        /* \"#utility.yul\":480:515   */\n      eq\n        /* \"#utility.yul\":470:533   */\n      tag_60\n      jumpi\n        /* \"#utility.yul\":529:530   */\n      0x00\n        /* \"#utility.yul\":526:527   */\n      dup1\n        /* \"#utility.yul\":519:531   */\n      revert\n        /* \"#utility.yul\":470:533   */\n    tag_60:\n        /* \"#utility.yul\":417:539   */\n      pop\n      jump\t// out\n        /* \"#utility.yul\":545:684   */\n    tag_43:\n        /* \"#utility.yul\":591:596   */\n      0x00\n        /* \"#utility.yul\":629:635   */\n      dup2\n        /* \"#utility.yul\":616:636   */\n      calldataload\n        /* \"#utility.yul\":607:636   */\n      swap1\n      pop\n        /* \"#utility.yul\":645:678   */\n      tag_62\n        /* \"#utility.yul\":672:677   */\n      dup2\n        /* \"#utility.yul\":645:678   */\n      tag_42\n      jump\t// in\n    tag_62:\n        /* \"#utility.yul\":545:684   */\n      swap3\n      swap2\n      pop\n      pop\n      jump\t// out\n        /* \"#utility.yul\":690:780   */\n    tag_44:\n        /* \"#utility.yul\":724:731   */\n      0x00\n        /* \"#utility.yul\":767:772   */\n      dup2\n        /* \"#utility.yul\":760:773   */\n      iszero\n        /* \"#utility.yul\":753:774   */\n      iszero\n        /* \"#utility.yul\":742:774   */\n      swap1\n      pop\n        /* \"#utility.yul\":690:780   */\n      swap2\n      swap1\n      pop\n      jump\t// out\n        /* \"#utility.yul\":786:902   */\n    tag_45:\n        /* \"#utility.yul\":856:877   */\n      tag_65\n        /* \"#utility.yul\":871:876   */\n      dup2\n        /* \"#utility.yul\":856:877   */\n      tag_44\n      jump\t// in\n    tag_65:\n        /* \"#utility.yul\":849:854   */\n      dup2\n        /* \"#utility.yul\":846:878   */\n      eq\n        /* \"#utility.yul\":836:896   */\n      tag_66\n      jumpi\n        /* \"#utility.yul\":892:893   */\n      0x00\n        /* \"#utility.yul\":889:890   */\n      dup1\n        /* \"#utility.yul\":882:894   */\n      revert\n        /* \"#utility.yul\":836:896   */\n    tag_66:\n        /* \"#utility.yul\":786:902   */\n      pop\n      jump\t// out\n        /* \"#utility.yul\":908:1041   */\n    tag_46:\n        /* \"#utility.yul\":951:956   */\n      0x00\n        /* \"#utility.yul\":989:995   */\n      dup2\n        /* \"#utility.yul\":976:996   */\n      calldataload\n        /* \"#utility.yul\":967:996   */\n      swap1\n      pop\n        /* \"#utility.yul\":1005:1035   */\n      tag_68\n        /* \"#utility.yul\":1029:1034   */\n      dup2\n        /* \"#utility.yul\":1005:1035   */\n      tag_45\n      jump\t// in\n    tag_68:\n        /* \"#utility.yul\":908:1041   */\n      swap3\n      swap2\n      pop\n      pop\n      jump\t// out\n        /* \"#utility.yul\":1047:1515   */\n    tag_10:\n        /* \"#utility.yul\":1112:1118   */\n      0x00\n        /* \"#utility.yul\":1120:1126   */\n      dup1\n        /* \"#utility.yul\":1169:1171   */\n      0x40\n        /* \"#utility.yul\":1157:1166   */\n      dup4\n        /* \"#utility.yul\":1148:1155   */\n      dup6\n        /* \"#utility.yul\":1144:1167   */\n      sub\n        /* \"#utility.yul\":1140:1172   */\n      slt\n        /* \"#utility.yul\":1137:1256   */\n      iszero\n      tag_70\n      jumpi\n        /* \"#utility.yul\":1175:1254   */\n      tag_71\n      tag_39\n      jump\t// in\n    tag_71:\n        /* \"#utility.yul\":1137:1256   */\n    tag_70:\n        /* \"#utility.yul\":1295:1296   */\n      0x00\n        /* \"#utility.yul\":1320:1373   */\n      tag_72\n        /* \"#utility.yul\":1365:1372   */\n      dup6\n        /* \"#utility.yul\":1356:1362   */\n      dup3\n        /* \"#utility.yul\":1345:1354   */\n      dup7\n        /* \"#utility.yul\":1341:1363   */\n      add\n        /* \"#utility.yul\":1320:1373   */\n      tag_43\n      jump\t// in\n    tag_72:\n        /* \"#utility.yul\":1310:1373   */\n      swap3\n      pop\n        /* \"#utility.yul\":1266:1383   */\n      pop\n        /* \"#utility.yul\":1422:1424   */\n      0x20\n        /* \"#utility.yul\":1448:1498   */\n      tag_73\n        /* \"#utility.yul\":1490:1497   */\n      dup6\n        /* \"#utility.yul\":1481:1487   */\n      dup3\n        /* \"#utility.yul\":1470:1479   */\n      dup7\n        /* \"#utility.yul\":1466:1488   */\n      add\n        /* \"#utility.yul\":1448:1498   */\n      tag_46\n      jump\t// in\n    tag_73:\n        /* \"#utility.yul\":1438:1498   */\n      swap2\n      pop\n        /* \"#utility.yul\":1393:1508   */\n      pop\n        /* \"#utility.yul\":1047:1515   */\n      swap3\n      pop\n      swap3\n      swap1\n      pop\n      jump\t// out\n        /* \"#utility.yul\":1521:1639   */\n    tag_47:\n        /* \"#utility.yul\":1608:1632   */\n      tag_75\n        /* \"#utility.yul\":1626:1631   */\n      dup2\n        /* \"#utility.yul\":1608:1632   */\n      tag_41\n      jump\t// in\n    tag_75:\n        /* \"#utility.yul\":1603:1606   */\n      dup3\n        /* \"#utility.yul\":1596:1633   */\n      mstore\n        /* \"#utility.yul\":1521:1639   */\n      pop\n      pop\n      jump\t// out\n        /* \"#utility.yul\":1645:1744   */\n    tag_48:\n        /* \"#utility.yul\":1697:1703   */\n      0x00\n        /* \"#utility.yul\":1731:1736   */\n      dup2\n        /* \"#utility.yul\":1725:1737   */\n      mload\n        /* \"#utility.yul\":1715:1737   */\n      swap1\n      pop\n        /* \"#utility.yul\":1645:1744   */\n      swap2\n      swap1\n      pop\n      jump\t// out\n        /* \"#utility.yul\":1750:1919   */\n    tag_49:\n        /* \"#utility.yul\":1834:1845   */\n      0x00\n        /* \"#utility.yul\":1868:1874   */\n      dup3\n        /* \"#utility.yul\":1863:1866   */\n      dup3\n        /* \"#utility.yul\":1856:1875   */\n      mstore\n        /* \"#utility.yul\":1908:1912   */\n      0x20\n        /* \"#utility.yul\":1903:1906   */\n      dup3\n        /* \"#utility.yul\":1899:1913   */\n      add\n        /* \"#utility.yul\":1884:1913   */\n      swap1\n      pop\n        /* \"#utility.yul\":1750:1919   */\n      swap3\n      swap2\n      pop\n      pop\n      jump\t// out\n        /* \"#utility.yul\":1925:2171   */\n    tag_50:\n        /* \"#utility.yul\":2006:2007   */\n      0x00\n        /* \"#utility.yul\":2016:2129   */\n    tag_79:\n        /* \"#utility.yul\":2030:2036   */\n      dup4\n        /* \"#utility.yul\":2027:2028   */\n      dup2\n        /* \"#utility.yul\":2024:2037   */\n      lt\n        /* \"#utility.yul\":2016:2129   */\n      iszero\n      tag_81\n      jumpi\n        /* \"#utility.yul\":2115:2116   */\n      dup1\n        /* \"#utility.yul\":2110:2113   */\n      dup3\n        /* \"#utility.yul\":2106:2117   */\n      add\n        /* \"#utility.yul\":2100:2118   */\n      mload\n        /* \"#utility.yul\":2096:2097   */\n      dup2\n        /* \"#utility.yul\":2091:2094   */\n      dup5\n        /* \"#utility.yul\":2087:2098   */\n      add\n        /* \"#utility.yul\":2080:2119   */\n      mstore\n        /* \"#utility.yul\":2052:2054   */\n      0x20\n        /* \"#utility.yul\":2049:2050   */\n      dup2\n        /* \"#utility.yul\":2045:2055   */\n      add\n        /* \"#utility.yul\":2040:2055   */\n      swap1\n      pop\n        /* \"#utility.yul\":2016:2129   */\n      jump(tag_79)\n    tag_81:\n        /* \"#utility.yul\":2163:2164   */\n      0x00\n        /* \"#utility.yul\":2154:2160   */\n      dup5\n        /* \"#utility.yul\":2149:2152   */\n      dup5\n        /* \"#utility.yul\":2145:2161   */\n      add\n        /* \"#utility.yul\":2138:2165   */\n      mstore\n        /* \"#utility.yul\":1987:2171   */\n      pop\n        /* \"#utility.yul\":1925:2171   */\n      pop\n      pop\n      pop\n      jump\t// out\n        /* \"#utility.yul\":2177:2279   */\n    tag_51:\n        /* \"#utility.yul\":2218:2224   */\n      0x00\n        /* \"#utility.yul\":2269:2271   */\n      0x1f\n        /* \"#utility.yul\":2265:2272   */\n      not\n        /* \"#utility.yul\":2260:2262   */\n      0x1f\n        /* \"#utility.yul\":2253:2258   */\n      dup4\n        /* \"#utility.yul\":2249:2263   */\n      add\n        /* \"#utility.yul\":2245:2273   */\n      and\n        /* \"#utility.yul\":2235:2273   */\n      swap1\n      pop\n        /* \"#utility.yul\":2177:2279   */\n      swap2\n      swap1\n      pop\n      jump\t// out\n        /* \"#utility.yul\":2285:2662   */\n    tag_52:\n        /* \"#utility.yul\":2373:2376   */\n      0x00\n        /* \"#utility.yul\":2401:2440   */\n      tag_84\n        /* \"#utility.yul\":2434:2439   */\n      dup3\n        /* \"#utility.yul\":2401:2440   */\n      tag_48\n      jump\t// in\n    tag_84:\n        /* \"#utility.yul\":2456:2527   */\n      tag_85\n        /* \"#utility.yul\":2520:2526   */\n      dup2\n        /* \"#utility.yul\":2515:2518   */\n      dup6\n        /* \"#utility.yul\":2456:2527   */\n      tag_49\n      jump\t// in\n    tag_85:\n        /* \"#utility.yul\":2449:2527   */\n      swap4\n      pop\n        /* \"#utility.yul\":2536:2601   */\n      tag_86\n        /* \"#utility.yul\":2594:2600   */\n      dup2\n        /* \"#utility.yul\":2589:2592   */\n      dup6\n        /* \"#utility.yul\":2582:2586   */\n      0x20\n        /* \"#utility.yul\":2575:2580   */\n      dup7\n        /* \"#utility.yul\":2571:2587   */\n      add\n        /* \"#utility.yul\":2536:2601   */\n      tag_50\n      jump\t// in\n    tag_86:\n        /* \"#utility.yul\":2626:2655   */\n      tag_87\n        /* \"#utility.yul\":2648:2654   */\n      dup2\n        /* \"#utility.yul\":2626:2655   */\n      tag_51\n      jump\t// in\n    tag_87:\n        /* \"#utility.yul\":2621:2624   */\n      dup5\n        /* \"#utility.yul\":2617:2656   */\n      add\n        /* \"#utility.yul\":2610:2656   */\n      swap2\n      pop\n        /* \"#utility.yul\":2377:2662   */\n      pop\n        /* \"#utility.yul\":2285:2662   */\n      swap3\n      swap2\n      pop\n      pop\n      jump\t// out\n        /* \"#utility.yul\":2668:3091   */\n    tag_13:\n        /* \"#utility.yul\":2809:2813   */\n      0x00\n        /* \"#utility.yul\":2847:2849   */\n      0x40\n        /* \"#utility.yul\":2836:2845   */\n      dup3\n        /* \"#utility.yul\":2832:2850   */\n      add\n        /* \"#utility.yul\":2824:2850   */\n      swap1\n      pop\n        /* \"#utility.yul\":2860:2931   */\n      tag_89\n        /* \"#utility.yul\":2928:2929   */\n      0x00\n        /* \"#utility.yul\":2917:2926   */\n      dup4\n        /* \"#utility.yul\":2913:2930   */\n      add\n        /* \"#utility.yul\":2904:2910   */\n      dup6\n        /* \"#utility.yul\":2860:2931   */\n      tag_47\n      jump\t// in\n    tag_89:\n        /* \"#utility.yul\":2978:2987   */\n      dup2\n        /* \"#utility.yul\":2972:2976   */\n      dup2\n        /* \"#utility.yul\":2968:2988   */\n      sub\n        /* \"#utility.yul\":2963:2965   */\n      0x20\n        /* \"#utility.yul\":2952:2961   */\n      dup4\n        /* \"#utility.yul\":2948:2966   */\n      add\n        /* \"#utility.yul\":2941:2989   */\n      mstore\n        /* \"#utility.yul\":3006:3084   */\n      tag_90\n        /* \"#utility.yul\":3079:3083   */\n      dup2\n        /* \"#utility.yul\":3070:3076   */\n      dup5\n        /* \"#utility.yul\":3006:3084   */\n      tag_52\n      jump\t// in\n    tag_90:\n        /* \"#utility.yul\":2998:3084   */\n      swap1\n      pop\n        /* \"#utility.yul\":2668:3091   */\n      swap4\n      swap3\n      pop\n      pop\n      pop\n      jump\t// out\n        /* \"#utility.yul\":3097:3319   */\n    tag_17:\n        /* \"#utility.yul\":3190:3194   */\n      0x00\n        /* \"#utility.yul\":3228:3230   */\n      0x20\n        /* \"#utility.yul\":3217:3226   */\n      dup3\n        /* \"#utility.yul\":3213:3231   */\n      add\n        /* \"#utility.yul\":3205:3231   */\n      swap1\n      pop\n        /* \"#utility.yul\":3241:3312   */\n      tag_92\n        /* \"#utility.yul\":3309:3310   */\n      0x00\n        /* \"#utility.yul\":3298:3307   */\n      dup4\n        /* \"#utility.yul\":3294:3311   */\n      add\n        /* \"#utility.yul\":3285:3291   */\n      dup5\n        /* \"#utility.yul\":3241:3312   */\n      tag_47\n      jump\t// in\n    tag_92:\n        /* \"#utility.yul\":3097:3319   */\n      swap3\n      swap2\n      pop\n      pop\n      jump\t// out\n\n    auxdata: 0xa26469706673582212204629abedcf7eec3a90aab8eb1fd9c66b7728186976ce4768904dfdab3ffa393764736f6c63430008120033\n}\n",
				"bytecode": {
					"linkReferences": {},
					"object": "608060405234801561001057600080fd5b50610466806100206000396000f3fe608060405234801561001057600080fd5b50600436106100575760003560e01c8063226c7e2d1461005c578063332119111461008d578063979ffeb8146100ab578063be02e8ae146100c9578063bfd38ca5146100e7575b600080fd5b61007660048036038101906100719190610306565b610118565b6040516100849291906103e5565b60405180910390f35b6100956101b6565b6040516100a29190610415565b60405180910390f35b6100b36101bb565b6040516100c09190610415565b60405180910390f35b6100d16101c0565b6040516100de9190610415565b60405180910390f35b61010160048036038101906100fc9190610306565b6101c5565b60405161010f9291906103e5565b60405180910390f35b60006060600a8410156101aa578215610168576040518060400160405280600b81526020017f426172626965204769726c00000000000000000000000000000000000000000081525090506101a1565b6040518060400160405280600481526020017f62616c6c0000000000000000000000000000000000000000000000000000000081525090505b600091506101af565b601491505b9250929050565b600081565b600a81565b601481565b60006060600a841061020e5760146040518060400160405280600781526020017f6e6f206769667400000000000000000000000000000000000000000000000000815250610288565b600083610250576040518060400160405280600481526020017f62616c6c00000000000000000000000000000000000000000000000000000000815250610287565b6040518060400160405280600b81526020017f426172626965206769726c0000000000000000000000000000000000000000008152505b5b915091509250929050565b600080fd5b6000819050919050565b6102ab81610298565b81146102b657600080fd5b50565b6000813590506102c8816102a2565b92915050565b60008115159050919050565b6102e3816102ce565b81146102ee57600080fd5b50565b600081359050610300816102da565b92915050565b6000806040838503121561031d5761031c610293565b5b600061032b858286016102b9565b925050602061033c858286016102f1565b9150509250929050565b61034f81610298565b82525050565b600081519050919050565b600082825260208201905092915050565b60005b8381101561038f578082015181840152602081019050610374565b60008484015250505050565b6000601f19601f8301169050919050565b60006103b782610355565b6103c18185610360565b93506103d1818560208601610371565b6103da8161039b565b840191505092915050565b60006040820190506103fa6000830185610346565b818103602083015261040c81846103ac565b90509392505050565b600060208201905061042a6000830184610346565b9291505056fea26469706673582212204629abedcf7eec3a90aab8eb1fd9c66b7728186976ce4768904dfdab3ffa393764736f6c63430008120033",
					"opcodes": "PUSH1 0x80 PUSH1 0x40 MSTORE CALLVALUE DUP1 ISZERO PUSH2 0x10 JUMPI PUSH1 0x0 DUP1 REVERT JUMPDEST POP PUSH2 0x466 DUP1 PUSH2 0x20 PUSH1 0x0 CODECOPY PUSH1 0x0 RETURN INVALID PUSH1 0x80 PUSH1 0x40 MSTORE CALLVALUE DUP1 ISZERO PUSH2 0x10 JUMPI PUSH1 0x0 DUP1 REVERT JUMPDEST POP PUSH1 0x4 CALLDATASIZE LT PUSH2 0x57 JUMPI PUSH1 0x0 CALLDATALOAD PUSH1 0xE0 SHR DUP1 PUSH4 0x226C7E2D EQ PUSH2 0x5C JUMPI DUP1 PUSH4 0x33211911 EQ PUSH2 0x8D JUMPI DUP1 PUSH4 0x979FFEB8 EQ PUSH2 0xAB JUMPI DUP1 PUSH4 0xBE02E8AE EQ PUSH2 0xC9 JUMPI DUP1 PUSH4 0xBFD38CA5 EQ PUSH2 0xE7 JUMPI JUMPDEST PUSH1 0x0 DUP1 REVERT JUMPDEST PUSH2 0x76 PUSH1 0x4 DUP1 CALLDATASIZE SUB DUP2 ADD SWAP1 PUSH2 0x71 SWAP2 SWAP1 PUSH2 0x306 JUMP JUMPDEST PUSH2 0x118 JUMP JUMPDEST PUSH1 0x40 MLOAD PUSH2 0x84 SWAP3 SWAP2 SWAP1 PUSH2 0x3E5 JUMP JUMPDEST PUSH1 0x40 MLOAD DUP1 SWAP2 SUB SWAP1 RETURN JUMPDEST PUSH2 0x95 PUSH2 0x1B6 JUMP JUMPDEST PUSH1 0x40 MLOAD PUSH2 0xA2 SWAP2 SWAP1 PUSH2 0x415 JUMP JUMPDEST PUSH1 0x40 MLOAD DUP1 SWAP2 SUB SWAP1 RETURN JUMPDEST PUSH2 0xB3 PUSH2 0x1BB JUMP JUMPDEST PUSH1 0x40 MLOAD PUSH2 0xC0 SWAP2 SWAP1 PUSH2 0x415 JUMP JUMPDEST PUSH1 0x40 MLOAD DUP1 SWAP2 SUB SWAP1 RETURN JUMPDEST PUSH2 0xD1 PUSH2 0x1C0 JUMP JUMPDEST PUSH1 0x40 MLOAD PUSH2 0xDE SWAP2 SWAP1 PUSH2 0x415 JUMP JUMPDEST PUSH1 0x40 MLOAD DUP1 SWAP2 SUB SWAP1 RETURN JUMPDEST PUSH2 0x101 PUSH1 0x4 DUP1 CALLDATASIZE SUB DUP2 ADD SWAP1 PUSH2 0xFC SWAP2 SWAP1 PUSH2 0x306 JUMP JUMPDEST PUSH2 0x1C5 JUMP JUMPDEST PUSH1 0x40 MLOAD PUSH2 0x10F SWAP3 SWAP2 SWAP1 PUSH2 0x3E5 JUMP JUMPDEST PUSH1 0x40 MLOAD DUP1 SWAP2 SUB SWAP1 RETURN JUMPDEST PUSH1 0x0 PUSH1 0x60 PUSH1 0xA DUP5 LT ISZERO PUSH2 0x1AA JUMPI DUP3 ISZERO PUSH2 0x168 JUMPI PUSH1 0x40 MLOAD DUP1 PUSH1 0x40 ADD PUSH1 0x40 MSTORE DUP1 PUSH1 0xB DUP2 MSTORE PUSH1 0x20 ADD PUSH32 0x426172626965204769726C000000000000000000000000000000000000000000 DUP2 MSTORE POP SWAP1 POP PUSH2 0x1A1 JUMP JUMPDEST PUSH1 0x40 MLOAD DUP1 PUSH1 0x40 ADD PUSH1 0x40 MSTORE DUP1 PUSH1 0x4 DUP2 MSTORE PUSH1 0x20 ADD PUSH32 0x62616C6C00000000000000000000000000000000000000000000000000000000 DUP2 MSTORE POP SWAP1 POP JUMPDEST PUSH1 0x0 SWAP2 POP PUSH2 0x1AF JUMP JUMPDEST PUSH1 0x14 SWAP2 POP JUMPDEST SWAP3 POP SWAP3 SWAP1 POP JUMP JUMPDEST PUSH1 0x0 DUP2 JUMP JUMPDEST PUSH1 0xA DUP2 JUMP JUMPDEST PUSH1 0x14 DUP2 JUMP JUMPDEST PUSH1 0x0 PUSH1 0x60 PUSH1 0xA DUP5 LT PUSH2 0x20E JUMPI PUSH1 0x14 PUSH1 0x40 MLOAD DUP1 PUSH1 0x40 ADD PUSH1 0x40 MSTORE DUP1 PUSH1 0x7 DUP2 MSTORE PUSH1 0x20 ADD PUSH32 0x6E6F206769667400000000000000000000000000000000000000000000000000 DUP2 MSTORE POP PUSH2 0x288 JUMP JUMPDEST PUSH1 0x0 DUP4 PUSH2 0x250 JUMPI PUSH1 0x40 MLOAD DUP1 PUSH1 0x40 ADD PUSH1 0x40 MSTORE DUP1 PUSH1 0x4 DUP2 MSTORE PUSH1 0x20 ADD PUSH32 0x62616C6C00000000000000000000000000000000000000000000000000000000 DUP2 MSTORE POP PUSH2 0x287 JUMP JUMPDEST PUSH1 0x40 MLOAD DUP1 PUSH1 0x40 ADD PUSH1 0x40 MSTORE DUP1 PUSH1 0xB DUP2 MSTORE PUSH1 0x20 ADD PUSH32 0x426172626965206769726C000000000000000000000000000000000000000000 DUP2 MSTORE POP JUMPDEST JUMPDEST SWAP2 POP SWAP2 POP SWAP3 POP SWAP3 SWAP1 POP JUMP JUMPDEST PUSH1 0x0 DUP1 REVERT JUMPDEST PUSH1 0x0 DUP2 SWAP1 POP SWAP2 SWAP1 POP JUMP JUMPDEST PUSH2 0x2AB DUP2 PUSH2 0x298 JUMP JUMPDEST DUP2 EQ PUSH2 0x2B6 JUMPI PUSH1 0x0 DUP1 REVERT JUMPDEST POP JUMP JUMPDEST PUSH1 0x0 DUP2 CALLDATALOAD SWAP1 POP PUSH2 0x2C8 DUP2 PUSH2 0x2A2 JUMP JUMPDEST SWAP3 SWAP2 POP POP JUMP JUMPDEST PUSH1 0x0 DUP2 ISZERO ISZERO SWAP1 POP SWAP2 SWAP1 POP JUMP JUMPDEST PUSH2 0x2E3 DUP2 PUSH2 0x2CE JUMP JUMPDEST DUP2 EQ PUSH2 0x2EE JUMPI PUSH1 0x0 DUP1 REVERT JUMPDEST POP JUMP JUMPDEST PUSH1 0x0 DUP2 CALLDATALOAD SWAP1 POP PUSH2 0x300 DUP2 PUSH2 0x2DA JUMP JUMPDEST SWAP3 SWAP2 POP POP JUMP JUMPDEST PUSH1 0x0 DUP1 PUSH1 0x40 DUP4 DUP6 SUB SLT ISZERO PUSH2 0x31D JUMPI PUSH2 0x31C PUSH2 0x293 JUMP JUMPDEST JUMPDEST PUSH1 0x0 PUSH2 0x32B DUP6 DUP3 DUP7 ADD PUSH2 0x2B9 JUMP JUMPDEST SWAP3 POP POP PUSH1 0x20 PUSH2 0x33C DUP6 DUP3 DUP7 ADD PUSH2 0x2F1 JUMP JUMPDEST SWAP2 POP POP SWAP3 POP SWAP3 SWAP1 POP JUMP JUMPDEST PUSH2 0x34F DUP2 PUSH2 0x298 JUMP JUMPDEST DUP3 MSTORE POP POP JUMP JUMPDEST PUSH1 0x0 DUP2 MLOAD SWAP1 POP SWAP2 SWAP1 POP JUMP JUMPDEST PUSH1 0x0 DUP3 DUP3 MSTORE PUSH1 0x20 DUP3 ADD SWAP1 POP SWAP3 SWAP2 POP POP JUMP JUMPDEST PUSH1 0x0 JUMPDEST DUP4 DUP2 LT ISZERO PUSH2 0x38F JUMPI DUP1 DUP3 ADD MLOAD DUP2 DUP5 ADD MSTORE PUSH1 0x20 DUP2 ADD SWAP1 POP PUSH2 0x374 JUMP JUMPDEST PUSH1 0x0 DUP5 DUP5 ADD MSTORE POP POP POP POP JUMP JUMPDEST PUSH1 0x0 PUSH1 0x1F NOT PUSH1 0x1F DUP4 ADD AND SWAP1 POP SWAP2 SWAP1 POP JUMP JUMPDEST PUSH1 0x0 PUSH2 0x3B7 DUP3 PUSH2 0x355 JUMP JUMPDEST PUSH2 0x3C1 DUP2 DUP6 PUSH2 0x360 JUMP JUMPDEST SWAP4 POP PUSH2 0x3D1 DUP2 DUP6 PUSH1 0x20 DUP7 ADD PUSH2 0x371 JUMP JUMPDEST PUSH2 0x3DA DUP2 PUSH2 0x39B JUMP JUMPDEST DUP5 ADD SWAP2 POP POP SWAP3 SWAP2 POP POP JUMP JUMPDEST PUSH1 0x0 PUSH1 0x40 DUP3 ADD SWAP1 POP PUSH2 0x3FA PUSH1 0x0 DUP4 ADD DUP6 PUSH2 0x346 JUMP JUMPDEST DUP2 DUP2 SUB PUSH1 0x20 DUP4 ADD MSTORE PUSH2 0x40C DUP2 DUP5 PUSH2 0x3AC JUMP JUMPDEST SWAP1 POP SWAP4 SWAP3 POP POP POP JUMP JUMPDEST PUSH1 0x0 PUSH1 0x20 DUP3 ADD SWAP1 POP PUSH2 0x42A PUSH1 0x0 DUP4 ADD DUP5 PUSH2 0x346 JUMP JUMPDEST SWAP3 SWAP2 POP POP JUMP INVALID LOG2 PUSH5 0x6970667358 0x22 SLT KECCAK256 CHAINID 0x29 0xAB 0xED 0xCF PUSH31 0xEC3A90AAB8EB1FD9C66B7728186976CE4768904DFDAB3FFA393764736F6C63 NUMBER STOP ADDMOD SLT STOP CALLER "
				},
				"gasEstimates": {
					"creation": {
						"codeDepositCost": "225200",
						"executionCost": "269",
						"totalCost": "225469"
					},
					"external": {
						"CuttOfAge()": "351",
						"adultFees()": "373",
						"childFees()": "329",
						"fee(uint256,bool)": "infinite",
						"fee3(uint256,bool)": "infinite"
					}
				},
				"methodIdentifiers": {
					"CuttOfAge()": "979ffeb8",
					"adultFees()": "be02e8ae",
					"childFees()": "33211911",
					"fee(uint256,bool)": "226c7e2d",
					"fee3(uint256,bool)": "bfd38ca5"
				}
			},
			"storageLayout": {
				"storage": [],
				"types": null
			},
			"userdoc": {
				"kind": "user",
				"methods": {},
				"version": 1
			}
		}
	}
}