{
	"contracts/4thaug.sol": {
		"MerkleTree": {
			"abi": [
				{
					"inputs": [],
					"name": "RootItem",
					"outputs": [
						{
							"internalType": "uint256",
							"name": "",
							"type": "uint256"
						}
					],
					"stateMutability": "view",
					"type": "function"
				},
				{
					"inputs": [
						{
							"internalType": "uint256",
							"name": "",
							"type": "uint256"
						}
					],
					"name": "arr",
					"outputs": [
						{
							"internalType": "uint256",
							"name": "",
							"type": "uint256"
						}
					],
					"stateMutability": "view",
					"type": "function"
				},
				{
					"inputs": [
						{
							"internalType": "uint256",
							"name": "",
							"type": "uint256"
						}
					],
					"name": "arr1",
					"outputs": [
						{
							"internalType": "uint256",
							"name": "",
							"type": "uint256"
						}
					],
					"stateMutability": "view",
					"type": "function"
				},
				{
					"inputs": [],
					"name": "calculateSum",
					"outputs": [],
					"stateMutability": "nonpayable",
					"type": "function"
				},
				{
					"inputs": [],
					"name": "copyItem",
					"outputs": [],
					"stateMutability": "nonpayable",
					"type": "function"
				},
				{
					"inputs": [],
					"name": "returnArr",
					"outputs": [
						{
							"internalType": "uint256[]",
							"name": "",
							"type": "uint256[]"
						}
					],
					"stateMutability": "view",
					"type": "function"
				}
			],
			"devdoc": {
				"kind": "dev",
				"methods": {},
				"version": 1
			},
			"evm": {
				"assembly": "    /* \"contracts/4thaug.sol\":3400:4178  contract MerkleTree {... */\n  mstore(0x40, 0x80)\n    /* \"contracts/4thaug.sol\":3427:3460  uint[4] public arr = [1, 3, 4, 2] */\n  mload(0x40)\n  dup1\n  0x80\n  add\n  0x40\n  mstore\n  dup1\n    /* \"contracts/4thaug.sol\":3449:3450  1 */\n  0x01\n    /* \"contracts/4thaug.sol\":3427:3460  uint[4] public arr = [1, 3, 4, 2] */\n  0xff\n  and\n  dup2\n  mstore\n  0x20\n  add\n    /* \"contracts/4thaug.sol\":3452:3453  3 */\n  0x03\n    /* \"contracts/4thaug.sol\":3427:3460  uint[4] public arr = [1, 3, 4, 2] */\n  0xff\n  and\n  dup2\n  mstore\n  0x20\n  add\n    /* \"contracts/4thaug.sol\":3455:3456  4 */\n  0x04\n    /* \"contracts/4thaug.sol\":3427:3460  uint[4] public arr = [1, 3, 4, 2] */\n  0xff\n  and\n  dup2\n  mstore\n  0x20\n  add\n    /* \"contracts/4thaug.sol\":3458:3459  2 */\n  0x02\n    /* \"contracts/4thaug.sol\":3427:3460  uint[4] public arr = [1, 3, 4, 2] */\n  0xff\n  and\n  dup2\n  mstore\n  pop\n  0x00\n  swap1\n  0x04\n  tag_1\n  swap3\n  swap2\n  swap1\n  tag_2\n  jump\t// in\ntag_1:\n  pop\n    /* \"contracts/4thaug.sol\":3400:4178  contract MerkleTree {... */\n  callvalue\n  dup1\n  iszero\n  tag_3\n  jumpi\n  0x00\n  dup1\n  revert\ntag_3:\n  pop\n  jump(tag_4)\ntag_2:\n  dup3\n  0x04\n  dup2\n  add\n  swap3\n  dup3\n  iszero\n  tag_5\n  jumpi\n  swap2\n  0x20\n  mul\n  dup3\n  add\ntag_6:\n  dup3\n  dup2\n  gt\n  iszero\n  tag_7\n  jumpi\n  dup3\n  mload\n  dup3\n  swap1\n  0xff\n  and\n  swap1\n  sstore\n  swap2\n  0x20\n  add\n  swap2\n  swap1\n  0x01\n  add\n  swap1\n  jump(tag_6)\ntag_7:\ntag_5:\n  pop\n  swap1\n  pop\n  tag_8\n  swap2\n  swap1\n  tag_9\n  jump\t// in\ntag_8:\n  pop\n  swap1\n  jump\t// out\ntag_9:\ntag_10:\n  dup1\n  dup3\n  gt\n  iszero\n  tag_11\n  jumpi\n  0x00\n  dup2\n  0x00\n  swap1\n  sstore\n  pop\n  0x01\n  add\n  jump(tag_10)\ntag_11:\n  pop\n  swap1\n  jump\t// out\ntag_4:\n  dataSize(sub_0)\n  dup1\n  dataOffset(sub_0)\n  0x00\n  codecopy\n  0x00\n  return\nstop\n\nsub_0: assembly {\n        /* \"contracts/4thaug.sol\":3400:4178  contract MerkleTree {... */\n      mstore(0x40, 0x80)\n      callvalue\n      dup1\n      iszero\n      tag_1\n      jumpi\n      0x00\n      dup1\n      revert\n    tag_1:\n      pop\n      jumpi(tag_2, lt(calldatasize, 0x04))\n      shr(0xe0, calldataload(0x00))\n      dup1\n      0x4cad55b4\n      eq\n      tag_3\n      jumpi\n      dup1\n      0x6987b1fb\n      eq\n      tag_4\n      jumpi\n      dup1\n      0x71e5ee5f\n      eq\n      tag_5\n      jumpi\n      dup1\n      0x88046c6a\n      eq\n      tag_6\n      jumpi\n      dup1\n      0x98ecfaed\n      eq\n      tag_7\n      jumpi\n      dup1\n      0x9dc0b491\n      eq\n      tag_8\n      jumpi\n    tag_2:\n      0x00\n      dup1\n      revert\n        /* \"contracts/4thaug.sol\":4012:4095  function RootItem()public view returns (uint) {... */\n    tag_3:\n      tag_9\n      tag_10\n      jump\t// in\n    tag_9:\n      mload(0x40)\n      tag_11\n      swap2\n      swap1\n      tag_12\n      jump\t// in\n    tag_11:\n      mload(0x40)\n      dup1\n      swap2\n      sub\n      swap1\n      return\n        /* \"contracts/4thaug.sol\":3470:3488  uint[] public arr1 */\n    tag_4:\n      tag_13\n      0x04\n      dup1\n      calldatasize\n      sub\n      dup2\n      add\n      swap1\n      tag_14\n      swap2\n      swap1\n      tag_15\n      jump\t// in\n    tag_14:\n      tag_16\n      jump\t// in\n    tag_13:\n      mload(0x40)\n      tag_17\n      swap2\n      swap1\n      tag_12\n      jump\t// in\n    tag_17:\n      mload(0x40)\n      dup1\n      swap2\n      sub\n      swap1\n      return\n        /* \"contracts/4thaug.sol\":3427:3460  uint[4] public arr = [1, 3, 4, 2] */\n    tag_5:\n      tag_18\n      0x04\n      dup1\n      calldatasize\n      sub\n      dup2\n      add\n      swap1\n      tag_19\n      swap2\n      swap1\n      tag_15\n      jump\t// in\n    tag_19:\n      tag_20\n      jump\t// in\n    tag_18:\n      mload(0x40)\n      tag_21\n      swap2\n      swap1\n      tag_12\n      jump\t// in\n    tag_21:\n      mload(0x40)\n      dup1\n      swap2\n      sub\n      swap1\n      return\n        /* \"contracts/4thaug.sol\":4097:4175  function returnArr()public view returns (uint[] memory) {... */\n    tag_6:\n      tag_22\n      tag_23\n      jump\t// in\n    tag_22:\n      mload(0x40)\n      tag_24\n      swap2\n      swap1\n      tag_25\n      jump\t// in\n    tag_24:\n      mload(0x40)\n      dup1\n      swap2\n      sub\n      swap1\n      return\n        /* \"contracts/4thaug.sol\":3499:3558  function copyItem() public {   ... */\n    tag_7:\n      tag_26\n      tag_27\n      jump\t// in\n    tag_26:\n      stop\n        /* \"contracts/4thaug.sol\":3562:4008  function calculateSum() public {... */\n    tag_8:\n      tag_28\n      tag_29\n      jump\t// in\n    tag_28:\n      stop\n        /* \"contracts/4thaug.sol\":4012:4095  function RootItem()public view returns (uint) {... */\n    tag_10:\n        /* \"contracts/4thaug.sol\":4052:4056  uint */\n      0x00\n        /* \"contracts/4thaug.sol\":4072:4076  arr1 */\n      0x04\n        /* \"contracts/4thaug.sol\":4089:4090  1 */\n      0x01\n        /* \"contracts/4thaug.sol\":4077:4081  arr1 */\n      0x04\n        /* \"contracts/4thaug.sol\":4077:4088  arr1.length */\n      dup1\n      sload\n      swap1\n      pop\n        /* \"contracts/4thaug.sol\":4077:4090  arr1.length-1 */\n      tag_31\n      swap2\n      swap1\n      tag_32\n      jump\t// in\n    tag_31:\n        /* \"contracts/4thaug.sol\":4072:4091  arr1[arr1.length-1] */\n      dup2\n      sload\n      dup2\n      lt\n      tag_33\n      jumpi\n      tag_34\n      tag_35\n      jump\t// in\n    tag_34:\n    tag_33:\n      swap1\n      0x00\n      mstore\n      keccak256(0x00, 0x20)\n      add\n      sload\n        /* \"contracts/4thaug.sol\":4065:4091  return arr1[arr1.length-1] */\n      swap1\n      pop\n        /* \"contracts/4thaug.sol\":4012:4095  function RootItem()public view returns (uint) {... */\n      swap1\n      jump\t// out\n        /* \"contracts/4thaug.sol\":3470:3488  uint[] public arr1 */\n    tag_16:\n      0x04\n      dup2\n      dup2\n      sload\n      dup2\n      lt\n      tag_37\n      jumpi\n      0x00\n      dup1\n      revert\n    tag_37:\n      swap1\n      0x00\n      mstore\n      keccak256(0x00, 0x20)\n      add\n      0x00\n      swap2\n      pop\n      swap1\n      pop\n      sload\n      dup2\n      jump\t// out\n        /* \"contracts/4thaug.sol\":3427:3460  uint[4] public arr = [1, 3, 4, 2] */\n    tag_20:\n      0x00\n      dup2\n      0x04\n      dup2\n      lt\n      tag_39\n      jumpi\n      0x00\n      dup1\n      revert\n    tag_39:\n      add\n      0x00\n      swap2\n      pop\n      swap1\n      pop\n      sload\n      dup2\n      jump\t// out\n        /* \"contracts/4thaug.sol\":4097:4175  function returnArr()public view returns (uint[] memory) {... */\n    tag_23:\n        /* \"contracts/4thaug.sol\":4138:4151  uint[] memory */\n      0x60\n        /* \"contracts/4thaug.sol\":4167:4171  arr1 */\n      0x04\n        /* \"contracts/4thaug.sol\":4160:4171  return arr1 */\n      dup1\n      sload\n      dup1\n      0x20\n      mul\n      0x20\n      add\n      mload(0x40)\n      swap1\n      dup2\n      add\n      0x40\n      mstore\n      dup1\n      swap3\n      swap2\n      swap1\n      dup2\n      dup2\n      mstore\n      0x20\n      add\n      dup3\n      dup1\n      sload\n      dup1\n      iszero\n      tag_42\n      jumpi\n      0x20\n      mul\n      dup3\n      add\n      swap2\n      swap1\n      0x00\n      mstore\n      keccak256(0x00, 0x20)\n      swap1\n    tag_43:\n      dup2\n      sload\n      dup2\n      mstore\n      0x20\n      add\n      swap1\n      0x01\n      add\n      swap1\n      dup1\n      dup4\n      gt\n      tag_43\n      jumpi\n    tag_42:\n      pop\n      pop\n      pop\n      pop\n      pop\n      swap1\n      pop\n        /* \"contracts/4thaug.sol\":4097:4175  function returnArr()public view returns (uint[] memory) {... */\n      swap1\n      jump\t// out\n        /* \"contracts/4thaug.sol\":3499:3558  function copyItem() public {   ... */\n    tag_27:\n        /* \"contracts/4thaug.sol\":3547:3550  arr */\n      0x00\n        /* \"contracts/4thaug.sol\":3540:3544  arr1 */\n      0x04\n        /* \"contracts/4thaug.sol\":3540:3550  arr1 = arr */\n      swap1\n      0x04\n      tag_45\n      swap3\n      swap2\n      swap1\n      tag_46\n      jump\t// in\n    tag_45:\n      pop\n        /* \"contracts/4thaug.sol\":3499:3558  function copyItem() public {   ... */\n      jump\t// out\n        /* \"contracts/4thaug.sol\":3562:4008  function calculateSum() public {... */\n    tag_29:\n        /* \"contracts/4thaug.sol\":3600:3610  copyItem() */\n      tag_48\n        /* \"contracts/4thaug.sol\":3600:3608  copyItem */\n      tag_27\n        /* \"contracts/4thaug.sol\":3600:3610  copyItem() */\n      jump\t// in\n    tag_48:\n        /* \"contracts/4thaug.sol\":3617:3627  uint count */\n      0x00\n        /* \"contracts/4thaug.sol\":3630:3640  arr.length */\n      0x04\n        /* \"contracts/4thaug.sol\":3617:3640  uint count = arr.length */\n      swap1\n      pop\n        /* \"contracts/4thaug.sol\":3647:4005  while (count > 0) {... */\n    tag_49:\n        /* \"contracts/4thaug.sol\":3662:3663  0 */\n      0x00\n        /* \"contracts/4thaug.sol\":3654:3659  count */\n      dup2\n        /* \"contracts/4thaug.sol\":3654:3663  count > 0 */\n      gt\n        /* \"contracts/4thaug.sol\":3647:4005  while (count > 0) {... */\n      iszero\n      tag_50\n      jumpi\n        /* \"contracts/4thaug.sol\":3681:3687  uint i */\n      0x00\n        /* \"contracts/4thaug.sol\":3690:3691  1 */\n      0x01\n        /* \"contracts/4thaug.sol\":3681:3691  uint i = 1 */\n      swap1\n      pop\n        /* \"contracts/4thaug.sol\":3676:3977  for (uint i = 1; i < count; i += 2) {... */\n    tag_51:\n        /* \"contracts/4thaug.sol\":3697:3702  count */\n      dup2\n        /* \"contracts/4thaug.sol\":3693:3694  i */\n      dup2\n        /* \"contracts/4thaug.sol\":3693:3702  i < count */\n      lt\n        /* \"contracts/4thaug.sol\":3676:3977  for (uint i = 1; i < count; i += 2) {... */\n      iszero\n      tag_52\n      jumpi\n        /* \"contracts/4thaug.sol\":3737:3738  2 */\n      0x02\n        /* \"contracts/4thaug.sol\":3730:3735  count */\n      dup3\n        /* \"contracts/4thaug.sol\":3730:3738  count==2 */\n      sub\n        /* \"contracts/4thaug.sol\":3727:3966  if(count==2){... */\n      tag_54\n      jumpi\n        /* \"contracts/4thaug.sol\":3754:3764  uint total */\n      0x00\n        /* \"contracts/4thaug.sol\":3788:3792  arr1 */\n      0x04\n        /* \"contracts/4thaug.sol\":3805:3806  2 */\n      0x02\n        /* \"contracts/4thaug.sol\":3793:3797  arr1 */\n      0x04\n        /* \"contracts/4thaug.sol\":3793:3804  arr1.length */\n      dup1\n      sload\n      swap1\n      pop\n        /* \"contracts/4thaug.sol\":3793:3806  arr1.length-2 */\n      tag_55\n      swap2\n      swap1\n      tag_32\n      jump\t// in\n    tag_55:\n        /* \"contracts/4thaug.sol\":3788:3807  arr1[arr1.length-2] */\n      dup2\n      sload\n      dup2\n      lt\n      tag_56\n      jumpi\n      tag_57\n      tag_35\n      jump\t// in\n    tag_57:\n    tag_56:\n      swap1\n      0x00\n      mstore\n      keccak256(0x00, 0x20)\n      add\n      sload\n        /* \"contracts/4thaug.sol\":3767:3771  arr1 */\n      0x04\n        /* \"contracts/4thaug.sol\":3784:3785  1 */\n      0x01\n        /* \"contracts/4thaug.sol\":3772:3776  arr1 */\n      0x04\n        /* \"contracts/4thaug.sol\":3772:3783  arr1.length */\n      dup1\n      sload\n      swap1\n      pop\n        /* \"contracts/4thaug.sol\":3772:3785  arr1.length-1 */\n      tag_59\n      swap2\n      swap1\n      tag_32\n      jump\t// in\n    tag_59:\n        /* \"contracts/4thaug.sol\":3767:3786  arr1[arr1.length-1] */\n      dup2\n      sload\n      dup2\n      lt\n      tag_60\n      jumpi\n      tag_61\n      tag_35\n      jump\t// in\n    tag_61:\n    tag_60:\n      swap1\n      0x00\n      mstore\n      keccak256(0x00, 0x20)\n      add\n      sload\n        /* \"contracts/4thaug.sol\":3767:3807  arr1[arr1.length-1] +arr1[arr1.length-2] */\n      tag_63\n      swap2\n      swap1\n      tag_64\n      jump\t// in\n    tag_63:\n        /* \"contracts/4thaug.sol\":3754:3807  uint total = arr1[arr1.length-1] +arr1[arr1.length-2] */\n      swap1\n      pop\n        /* \"contracts/4thaug.sol\":3822:3826  arr1 */\n      0x04\n        /* \"contracts/4thaug.sol\":3832:3837  total */\n      dup2\n        /* \"contracts/4thaug.sol\":3822:3838  arr1.push(total) */\n      swap1\n      dup1\n      0x01\n      dup2\n      sload\n      add\n      dup1\n      dup3\n      sstore\n      dup1\n      swap2\n      pop\n      pop\n      0x01\n      swap1\n      sub\n      swap1\n      0x00\n      mstore\n      keccak256(0x00, 0x20)\n      add\n      0x00\n      swap1\n      swap2\n      swap1\n      swap2\n      swap1\n      swap2\n      pop\n      sstore\n        /* \"contracts/4thaug.sol\":3739:3854  {... */\n      pop\n        /* \"contracts/4thaug.sol\":3727:3966  if(count==2){... */\n      jump(tag_66)\n    tag_54:\n        /* \"contracts/4thaug.sol\":3887:3897  uint total */\n      0x00\n        /* \"contracts/4thaug.sol\":3913:3916  arr */\n      dup1\n        /* \"contracts/4thaug.sol\":3917:3918  i */\n      dup3\n        /* \"contracts/4thaug.sol\":3913:3919  arr[i] */\n      0x04\n      dup2\n      lt\n      tag_67\n      jumpi\n      tag_68\n      tag_35\n      jump\t// in\n    tag_68:\n    tag_67:\n      add\n      sload\n        /* \"contracts/4thaug.sol\":3900:3903  arr */\n      0x00\n        /* \"contracts/4thaug.sol\":3908:3909  1 */\n      0x01\n        /* \"contracts/4thaug.sol\":3904:3905  i */\n      dup5\n        /* \"contracts/4thaug.sol\":3904:3909  i - 1 */\n      tag_70\n      swap2\n      swap1\n      tag_32\n      jump\t// in\n    tag_70:\n        /* \"contracts/4thaug.sol\":3900:3910  arr[i - 1] */\n      0x04\n      dup2\n      lt\n      tag_71\n      jumpi\n      tag_72\n      tag_35\n      jump\t// in\n    tag_72:\n    tag_71:\n      add\n      sload\n        /* \"contracts/4thaug.sol\":3900:3919  arr[i - 1] + arr[i] */\n      tag_74\n      swap2\n      swap1\n      tag_64\n      jump\t// in\n    tag_74:\n        /* \"contracts/4thaug.sol\":3887:3919  uint total = arr[i - 1] + arr[i] */\n      swap1\n      pop\n        /* \"contracts/4thaug.sol\":3934:3938  arr1 */\n      0x04\n        /* \"contracts/4thaug.sol\":3944:3949  total */\n      dup2\n        /* \"contracts/4thaug.sol\":3934:3950  arr1.push(total) */\n      swap1\n      dup1\n      0x01\n      dup2\n      sload\n      add\n      dup1\n      dup3\n      sstore\n      dup1\n      swap2\n      pop\n      pop\n      0x01\n      swap1\n      sub\n      swap1\n      0x00\n      mstore\n      keccak256(0x00, 0x20)\n      add\n      0x00\n      swap1\n      swap2\n      swap1\n      swap2\n      swap1\n      swap2\n      pop\n      sstore\n        /* \"contracts/4thaug.sol\":3872:3966  {... */\n      pop\n        /* \"contracts/4thaug.sol\":3727:3966  if(count==2){... */\n    tag_66:\n        /* \"contracts/4thaug.sol\":3709:3710  2 */\n      0x02\n        /* \"contracts/4thaug.sol\":3704:3710  i += 2 */\n      dup2\n      tag_76\n      swap2\n      swap1\n      tag_64\n      jump\t// in\n    tag_76:\n      swap1\n      pop\n        /* \"contracts/4thaug.sol\":3676:3977  for (uint i = 1; i < count; i += 2) {... */\n      jump(tag_51)\n    tag_52:\n      pop\n        /* \"contracts/4thaug.sol\":3996:3997  2 */\n      0x02\n        /* \"contracts/4thaug.sol\":3987:3997  count /= 2 */\n      dup2\n      tag_77\n      swap2\n      swap1\n      tag_78\n      jump\t// in\n    tag_77:\n      swap1\n      pop\n        /* \"contracts/4thaug.sol\":3647:4005  while (count > 0) {... */\n      jump(tag_49)\n    tag_50:\n        /* \"contracts/4thaug.sol\":3593:4008  {... */\n      pop\n        /* \"contracts/4thaug.sol\":3562:4008  function calculateSum() public {... */\n      jump\t// out\n    tag_46:\n      dup3\n      dup1\n      sload\n      dup3\n      dup3\n      sstore\n      swap1\n      0x00\n      mstore\n      keccak256(0x00, 0x20)\n      swap1\n      dup2\n      add\n      swap3\n      dup3\n      iszero\n      tag_79\n      jumpi\n      swap2\n      dup3\n      add\n    tag_80:\n      dup3\n      dup2\n      gt\n      iszero\n      tag_81\n      jumpi\n      dup3\n      sload\n      dup3\n      sstore\n      swap2\n      0x01\n      add\n      swap2\n      swap1\n      0x01\n      add\n      swap1\n      jump(tag_80)\n    tag_81:\n    tag_79:\n      pop\n      swap1\n      pop\n      tag_82\n      swap2\n      swap1\n      tag_83\n      jump\t// in\n    tag_82:\n      pop\n      swap1\n      jump\t// out\n    tag_83:\n    tag_84:\n      dup1\n      dup3\n      gt\n      iszero\n      tag_85\n      jumpi\n      0x00\n      dup2\n      0x00\n      swap1\n      sstore\n      pop\n      0x01\n      add\n      jump(tag_84)\n    tag_85:\n      pop\n      swap1\n      jump\t// out\n        /* \"#utility.yul\":7:84   */\n    tag_86:\n        /* \"#utility.yul\":44:51   */\n      0x00\n        /* \"#utility.yul\":73:78   */\n      dup2\n        /* \"#utility.yul\":62:78   */\n      swap1\n      pop\n        /* \"#utility.yul\":7:84   */\n      swap2\n      swap1\n      pop\n      jump\t// out\n        /* \"#utility.yul\":90:208   */\n    tag_87:\n        /* \"#utility.yul\":177:201   */\n      tag_105\n        /* \"#utility.yul\":195:200   */\n      dup2\n        /* \"#utility.yul\":177:201   */\n      tag_86\n      jump\t// in\n    tag_105:\n        /* \"#utility.yul\":172:175   */\n      dup3\n        /* \"#utility.yul\":165:202   */\n      mstore\n        /* \"#utility.yul\":90:208   */\n      pop\n      pop\n      jump\t// out\n        /* \"#utility.yul\":214:436   */\n    tag_12:\n        /* \"#utility.yul\":307:311   */\n      0x00\n        /* \"#utility.yul\":345:347   */\n      0x20\n        /* \"#utility.yul\":334:343   */\n      dup3\n        /* \"#utility.yul\":330:348   */\n      add\n        /* \"#utility.yul\":322:348   */\n      swap1\n      pop\n        /* \"#utility.yul\":358:429   */\n      tag_107\n        /* \"#utility.yul\":426:427   */\n      0x00\n        /* \"#utility.yul\":415:424   */\n      dup4\n        /* \"#utility.yul\":411:428   */\n      add\n        /* \"#utility.yul\":402:408   */\n      dup5\n        /* \"#utility.yul\":358:429   */\n      tag_87\n      jump\t// in\n    tag_107:\n        /* \"#utility.yul\":214:436   */\n      swap3\n      swap2\n      pop\n      pop\n      jump\t// out\n        /* \"#utility.yul\":523:640   */\n    tag_89:\n        /* \"#utility.yul\":632:633   */\n      0x00\n        /* \"#utility.yul\":629:630   */\n      dup1\n        /* \"#utility.yul\":622:634   */\n      revert\n        /* \"#utility.yul\":769:891   */\n    tag_91:\n        /* \"#utility.yul\":842:866   */\n      tag_112\n        /* \"#utility.yul\":860:865   */\n      dup2\n        /* \"#utility.yul\":842:866   */\n      tag_86\n      jump\t// in\n    tag_112:\n        /* \"#utility.yul\":835:840   */\n      dup2\n        /* \"#utility.yul\":832:867   */\n      eq\n        /* \"#utility.yul\":822:885   */\n      tag_113\n      jumpi\n        /* \"#utility.yul\":881:882   */\n      0x00\n        /* \"#utility.yul\":878:879   */\n      dup1\n        /* \"#utility.yul\":871:883   */\n      revert\n        /* \"#utility.yul\":822:885   */\n    tag_113:\n        /* \"#utility.yul\":769:891   */\n      pop\n      jump\t// out\n        /* \"#utility.yul\":897:1036   */\n    tag_92:\n        /* \"#utility.yul\":943:948   */\n      0x00\n        /* \"#utility.yul\":981:987   */\n      dup2\n        /* \"#utility.yul\":968:988   */\n      calldataload\n        /* \"#utility.yul\":959:988   */\n      swap1\n      pop\n        /* \"#utility.yul\":997:1030   */\n      tag_115\n        /* \"#utility.yul\":1024:1029   */\n      dup2\n        /* \"#utility.yul\":997:1030   */\n      tag_91\n      jump\t// in\n    tag_115:\n        /* \"#utility.yul\":897:1036   */\n      swap3\n      swap2\n      pop\n      pop\n      jump\t// out\n        /* \"#utility.yul\":1042:1371   */\n    tag_15:\n        /* \"#utility.yul\":1101:1107   */\n      0x00\n        /* \"#utility.yul\":1150:1152   */\n      0x20\n        /* \"#utility.yul\":1138:1147   */\n      dup3\n        /* \"#utility.yul\":1129:1136   */\n      dup5\n        /* \"#utility.yul\":1125:1148   */\n      sub\n        /* \"#utility.yul\":1121:1153   */\n      slt\n        /* \"#utility.yul\":1118:1237   */\n      iszero\n      tag_117\n      jumpi\n        /* \"#utility.yul\":1156:1235   */\n      tag_118\n      tag_89\n      jump\t// in\n    tag_118:\n        /* \"#utility.yul\":1118:1237   */\n    tag_117:\n        /* \"#utility.yul\":1276:1277   */\n      0x00\n        /* \"#utility.yul\":1301:1354   */\n      tag_119\n        /* \"#utility.yul\":1346:1353   */\n      dup5\n        /* \"#utility.yul\":1337:1343   */\n      dup3\n        /* \"#utility.yul\":1326:1335   */\n      dup6\n        /* \"#utility.yul\":1322:1344   */\n      add\n        /* \"#utility.yul\":1301:1354   */\n      tag_92\n      jump\t// in\n    tag_119:\n        /* \"#utility.yul\":1291:1354   */\n      swap2\n      pop\n        /* \"#utility.yul\":1247:1364   */\n      pop\n        /* \"#utility.yul\":1042:1371   */\n      swap3\n      swap2\n      pop\n      pop\n      jump\t// out\n        /* \"#utility.yul\":1377:1491   */\n    tag_93:\n        /* \"#utility.yul\":1444:1450   */\n      0x00\n        /* \"#utility.yul\":1478:1483   */\n      dup2\n        /* \"#utility.yul\":1472:1484   */\n      mload\n        /* \"#utility.yul\":1462:1484   */\n      swap1\n      pop\n        /* \"#utility.yul\":1377:1491   */\n      swap2\n      swap1\n      pop\n      jump\t// out\n        /* \"#utility.yul\":1497:1681   */\n    tag_94:\n        /* \"#utility.yul\":1596:1607   */\n      0x00\n        /* \"#utility.yul\":1630:1636   */\n      dup3\n        /* \"#utility.yul\":1625:1628   */\n      dup3\n        /* \"#utility.yul\":1618:1637   */\n      mstore\n        /* \"#utility.yul\":1670:1674   */\n      0x20\n        /* \"#utility.yul\":1665:1668   */\n      dup3\n        /* \"#utility.yul\":1661:1675   */\n      add\n        /* \"#utility.yul\":1646:1675   */\n      swap1\n      pop\n        /* \"#utility.yul\":1497:1681   */\n      swap3\n      swap2\n      pop\n      pop\n      jump\t// out\n        /* \"#utility.yul\":1687:1819   */\n    tag_95:\n        /* \"#utility.yul\":1754:1758   */\n      0x00\n        /* \"#utility.yul\":1777:1780   */\n      dup2\n        /* \"#utility.yul\":1769:1780   */\n      swap1\n      pop\n        /* \"#utility.yul\":1807:1811   */\n      0x20\n        /* \"#utility.yul\":1802:1805   */\n      dup3\n        /* \"#utility.yul\":1798:1812   */\n      add\n        /* \"#utility.yul\":1790:1812   */\n      swap1\n      pop\n        /* \"#utility.yul\":1687:1819   */\n      swap2\n      swap1\n      pop\n      jump\t// out\n        /* \"#utility.yul\":1825:1933   */\n    tag_96:\n        /* \"#utility.yul\":1902:1926   */\n      tag_124\n        /* \"#utility.yul\":1920:1925   */\n      dup2\n        /* \"#utility.yul\":1902:1926   */\n      tag_86\n      jump\t// in\n    tag_124:\n        /* \"#utility.yul\":1897:1900   */\n      dup3\n        /* \"#utility.yul\":1890:1927   */\n      mstore\n        /* \"#utility.yul\":1825:1933   */\n      pop\n      pop\n      jump\t// out\n        /* \"#utility.yul\":1939:2118   */\n    tag_97:\n        /* \"#utility.yul\":2008:2018   */\n      0x00\n        /* \"#utility.yul\":2029:2075   */\n      tag_126\n        /* \"#utility.yul\":2071:2074   */\n      dup4\n        /* \"#utility.yul\":2063:2069   */\n      dup4\n        /* \"#utility.yul\":2029:2075   */\n      tag_96\n      jump\t// in\n    tag_126:\n        /* \"#utility.yul\":2107:2111   */\n      0x20\n        /* \"#utility.yul\":2102:2105   */\n      dup4\n        /* \"#utility.yul\":2098:2112   */\n      add\n        /* \"#utility.yul\":2084:2112   */\n      swap1\n      pop\n        /* \"#utility.yul\":1939:2118   */\n      swap3\n      swap2\n      pop\n      pop\n      jump\t// out\n        /* \"#utility.yul\":2124:2237   */\n    tag_98:\n        /* \"#utility.yul\":2194:2198   */\n      0x00\n        /* \"#utility.yul\":2226:2230   */\n      0x20\n        /* \"#utility.yul\":2221:2224   */\n      dup3\n        /* \"#utility.yul\":2217:2231   */\n      add\n        /* \"#utility.yul\":2209:2231   */\n      swap1\n      pop\n        /* \"#utility.yul\":2124:2237   */\n      swap2\n      swap1\n      pop\n      jump\t// out\n        /* \"#utility.yul\":2273:3005   */\n    tag_99:\n        /* \"#utility.yul\":2392:2395   */\n      0x00\n        /* \"#utility.yul\":2421:2475   */\n      tag_129\n        /* \"#utility.yul\":2469:2474   */\n      dup3\n        /* \"#utility.yul\":2421:2475   */\n      tag_93\n      jump\t// in\n    tag_129:\n        /* \"#utility.yul\":2491:2577   */\n      tag_130\n        /* \"#utility.yul\":2570:2576   */\n      dup2\n        /* \"#utility.yul\":2565:2568   */\n      dup6\n        /* \"#utility.yul\":2491:2577   */\n      tag_94\n      jump\t// in\n    tag_130:\n        /* \"#utility.yul\":2484:2577   */\n      swap4\n      pop\n        /* \"#utility.yul\":2601:2657   */\n      tag_131\n        /* \"#utility.yul\":2651:2656   */\n      dup4\n        /* \"#utility.yul\":2601:2657   */\n      tag_95\n      jump\t// in\n    tag_131:\n        /* \"#utility.yul\":2680:2687   */\n      dup1\n        /* \"#utility.yul\":2711:2712   */\n      0x00\n        /* \"#utility.yul\":2696:2980   */\n    tag_132:\n        /* \"#utility.yul\":2721:2727   */\n      dup4\n        /* \"#utility.yul\":2718:2719   */\n      dup2\n        /* \"#utility.yul\":2715:2728   */\n      lt\n        /* \"#utility.yul\":2696:2980   */\n      iszero\n      tag_134\n      jumpi\n        /* \"#utility.yul\":2797:2803   */\n      dup2\n        /* \"#utility.yul\":2791:2804   */\n      mload\n        /* \"#utility.yul\":2824:2887   */\n      tag_135\n        /* \"#utility.yul\":2883:2886   */\n      dup9\n        /* \"#utility.yul\":2868:2881   */\n      dup3\n        /* \"#utility.yul\":2824:2887   */\n      tag_97\n      jump\t// in\n    tag_135:\n        /* \"#utility.yul\":2817:2887   */\n      swap8\n      pop\n        /* \"#utility.yul\":2910:2970   */\n      tag_136\n        /* \"#utility.yul\":2963:2969   */\n      dup4\n        /* \"#utility.yul\":2910:2970   */\n      tag_98\n      jump\t// in\n    tag_136:\n        /* \"#utility.yul\":2900:2970   */\n      swap3\n      pop\n        /* \"#utility.yul\":2756:2980   */\n      pop\n        /* \"#utility.yul\":2743:2744   */\n      0x01\n        /* \"#utility.yul\":2740:2741   */\n      dup2\n        /* \"#utility.yul\":2736:2745   */\n      add\n        /* \"#utility.yul\":2731:2745   */\n      swap1\n      pop\n        /* \"#utility.yul\":2696:2980   */\n      jump(tag_132)\n    tag_134:\n        /* \"#utility.yul\":2700:2714   */\n      pop\n        /* \"#utility.yul\":2996:2999   */\n      dup6\n        /* \"#utility.yul\":2989:2999   */\n      swap4\n      pop\n        /* \"#utility.yul\":2397:3005   */\n      pop\n      pop\n      pop\n        /* \"#utility.yul\":2273:3005   */\n      swap3\n      swap2\n      pop\n      pop\n      jump\t// out\n        /* \"#utility.yul\":3011:3384   */\n    tag_25:\n        /* \"#utility.yul\":3154:3158   */\n      0x00\n        /* \"#utility.yul\":3192:3194   */\n      0x20\n        /* \"#utility.yul\":3181:3190   */\n      dup3\n        /* \"#utility.yul\":3177:3195   */\n      add\n        /* \"#utility.yul\":3169:3195   */\n      swap1\n      pop\n        /* \"#utility.yul\":3241:3250   */\n      dup2\n        /* \"#utility.yul\":3235:3239   */\n      dup2\n        /* \"#utility.yul\":3231:3251   */\n      sub\n        /* \"#utility.yul\":3227:3228   */\n      0x00\n        /* \"#utility.yul\":3216:3225   */\n      dup4\n        /* \"#utility.yul\":3212:3229   */\n      add\n        /* \"#utility.yul\":3205:3252   */\n      mstore\n        /* \"#utility.yul\":3269:3377   */\n      tag_138\n        /* \"#utility.yul\":3372:3376   */\n      dup2\n        /* \"#utility.yul\":3363:3369   */\n      dup5\n        /* \"#utility.yul\":3269:3377   */\n      tag_99\n      jump\t// in\n    tag_138:\n        /* \"#utility.yul\":3261:3377   */\n      swap1\n      pop\n        /* \"#utility.yul\":3011:3384   */\n      swap3\n      swap2\n      pop\n      pop\n      jump\t// out\n        /* \"#utility.yul\":3390:3570   */\n    tag_100:\n        /* \"#utility.yul\":3438:3515   */\n      0x4e487b7100000000000000000000000000000000000000000000000000000000\n        /* \"#utility.yul\":3435:3436   */\n      0x00\n        /* \"#utility.yul\":3428:3516   */\n      mstore\n        /* \"#utility.yul\":3535:3539   */\n      0x11\n        /* \"#utility.yul\":3532:3533   */\n      0x04\n        /* \"#utility.yul\":3525:3540   */\n      mstore\n        /* \"#utility.yul\":3559:3563   */\n      0x24\n        /* \"#utility.yul\":3556:3557   */\n      0x00\n        /* \"#utility.yul\":3549:3564   */\n      revert\n        /* \"#utility.yul\":3576:3770   */\n    tag_32:\n        /* \"#utility.yul\":3616:3620   */\n      0x00\n        /* \"#utility.yul\":3636:3656   */\n      tag_141\n        /* \"#utility.yul\":3654:3655   */\n      dup3\n        /* \"#utility.yul\":3636:3656   */\n      tag_86\n      jump\t// in\n    tag_141:\n        /* \"#utility.yul\":3631:3656   */\n      swap2\n      pop\n        /* \"#utility.yul\":3670:3690   */\n      tag_142\n        /* \"#utility.yul\":3688:3689   */\n      dup4\n        /* \"#utility.yul\":3670:3690   */\n      tag_86\n      jump\t// in\n    tag_142:\n        /* \"#utility.yul\":3665:3690   */\n      swap3\n      pop\n        /* \"#utility.yul\":3714:3715   */\n      dup3\n        /* \"#utility.yul\":3711:3712   */\n      dup3\n        /* \"#utility.yul\":3707:3716   */\n      sub\n        /* \"#utility.yul\":3699:3716   */\n      swap1\n      pop\n        /* \"#utility.yul\":3738:3739   */\n      dup2\n        /* \"#utility.yul\":3732:3736   */\n      dup2\n        /* \"#utility.yul\":3729:3740   */\n      gt\n        /* \"#utility.yul\":3726:3763   */\n      iszero\n      tag_143\n      jumpi\n        /* \"#utility.yul\":3743:3761   */\n      tag_144\n      tag_100\n      jump\t// in\n    tag_144:\n        /* \"#utility.yul\":3726:3763   */\n    tag_143:\n        /* \"#utility.yul\":3576:3770   */\n      swap3\n      swap2\n      pop\n      pop\n      jump\t// out\n        /* \"#utility.yul\":3776:3956   */\n    tag_35:\n        /* \"#utility.yul\":3824:3901   */\n      0x4e487b7100000000000000000000000000000000000000000000000000000000\n        /* \"#utility.yul\":3821:3822   */\n      0x00\n        /* \"#utility.yul\":3814:3902   */\n      mstore\n        /* \"#utility.yul\":3921:3925   */\n      0x32\n        /* \"#utility.yul\":3918:3919   */\n      0x04\n        /* \"#utility.yul\":3911:3926   */\n      mstore\n        /* \"#utility.yul\":3945:3949   */\n      0x24\n        /* \"#utility.yul\":3942:3943   */\n      0x00\n        /* \"#utility.yul\":3935:3950   */\n      revert\n        /* \"#utility.yul\":3962:4153   */\n    tag_64:\n        /* \"#utility.yul\":4002:4005   */\n      0x00\n        /* \"#utility.yul\":4021:4041   */\n      tag_147\n        /* \"#utility.yul\":4039:4040   */\n      dup3\n        /* \"#utility.yul\":4021:4041   */\n      tag_86\n      jump\t// in\n    tag_147:\n        /* \"#utility.yul\":4016:4041   */\n      swap2\n      pop\n        /* \"#utility.yul\":4055:4075   */\n      tag_148\n        /* \"#utility.yul\":4073:4074   */\n      dup4\n        /* \"#utility.yul\":4055:4075   */\n      tag_86\n      jump\t// in\n    tag_148:\n        /* \"#utility.yul\":4050:4075   */\n      swap3\n      pop\n        /* \"#utility.yul\":4098:4099   */\n      dup3\n        /* \"#utility.yul\":4095:4096   */\n      dup3\n        /* \"#utility.yul\":4091:4100   */\n      add\n        /* \"#utility.yul\":4084:4100   */\n      swap1\n      pop\n        /* \"#utility.yul\":4119:4122   */\n      dup1\n        /* \"#utility.yul\":4116:4117   */\n      dup3\n        /* \"#utility.yul\":4113:4123   */\n      gt\n        /* \"#utility.yul\":4110:4146   */\n      iszero\n      tag_149\n      jumpi\n        /* \"#utility.yul\":4126:4144   */\n      tag_150\n      tag_100\n      jump\t// in\n    tag_150:\n        /* \"#utility.yul\":4110:4146   */\n    tag_149:\n        /* \"#utility.yul\":3962:4153   */\n      swap3\n      swap2\n      pop\n      pop\n      jump\t// out\n        /* \"#utility.yul\":4159:4339   */\n    tag_101:\n        /* \"#utility.yul\":4207:4284   */\n      0x4e487b7100000000000000000000000000000000000000000000000000000000\n        /* \"#utility.yul\":4204:4205   */\n      0x00\n        /* \"#utility.yul\":4197:4285   */\n      mstore\n        /* \"#utility.yul\":4304:4308   */\n      0x12\n        /* \"#utility.yul\":4301:4302   */\n      0x04\n        /* \"#utility.yul\":4294:4309   */\n      mstore\n        /* \"#utility.yul\":4328:4332   */\n      0x24\n        /* \"#utility.yul\":4325:4326   */\n      0x00\n        /* \"#utility.yul\":4318:4333   */\n      revert\n        /* \"#utility.yul\":4345:4530   */\n    tag_78:\n        /* \"#utility.yul\":4385:4386   */\n      0x00\n        /* \"#utility.yul\":4402:4422   */\n      tag_153\n        /* \"#utility.yul\":4420:4421   */\n      dup3\n        /* \"#utility.yul\":4402:4422   */\n      tag_86\n      jump\t// in\n    tag_153:\n        /* \"#utility.yul\":4397:4422   */\n      swap2\n      pop\n        /* \"#utility.yul\":4436:4456   */\n      tag_154\n        /* \"#utility.yul\":4454:4455   */\n      dup4\n        /* \"#utility.yul\":4436:4456   */\n      tag_86\n      jump\t// in\n    tag_154:\n        /* \"#utility.yul\":4431:4456   */\n      swap3\n      pop\n        /* \"#utility.yul\":4475:4476   */\n      dup3\n        /* \"#utility.yul\":4465:4500   */\n      tag_155\n      jumpi\n        /* \"#utility.yul\":4480:4498   */\n      tag_156\n      tag_101\n      jump\t// in\n    tag_156:\n        /* \"#utility.yul\":4465:4500   */\n    tag_155:\n        /* \"#utility.yul\":4522:4523   */\n      dup3\n        /* \"#utility.yul\":4519:4520   */\n      dup3\n        /* \"#utility.yul\":4515:4524   */\n      div\n        /* \"#utility.yul\":4510:4524   */\n      swap1\n      pop\n        /* \"#utility.yul\":4345:4530   */\n      swap3\n      swap2\n      pop\n      pop\n      jump\t// out\n\n    auxdata: 0xa264697066735822122011e4d86a0523e51800e2b91a9470853e8ab9b5ef58ddbee65772f249a6de6b4264736f6c63430008150033\n}\n",
				"bytecode": {
					"linkReferences": {},
					"object": "60806040526040518060800160405280600160ff168152602001600360ff168152602001600460ff168152602001600260ff168152505f906004610044929190610056565b50348015610050575f80fd5b506100b6565b826004810192821561008a579160200282015b82811115610089578251829060ff16905591602001919060010190610069565b5b509050610097919061009b565b5090565b5b808211156100b2575f815f90555060010161009c565b5090565b610659806100c35f395ff3fe608060405234801561000f575f80fd5b5060043610610060575f3560e01c80634cad55b4146100645780636987b1fb1461008257806371e5ee5f146100b257806388046c6a146100e257806398ecfaed146101005780639dc0b4911461010a575b5f80fd5b61006c610114565b60405161007991906103bd565b60405180910390f35b61009c60048036038101906100979190610404565b610148565b6040516100a991906103bd565b60405180910390f35b6100cc60048036038101906100c79190610404565b610168565b6040516100d991906103bd565b60405180910390f35b6100ea610180565b6040516100f791906104e6565b60405180910390f35b6101086101d6565b005b6101126101ea565b005b5f600460016004805490506101299190610533565b8154811061013a57610139610566565b5b905f5260205f200154905090565b60048181548110610157575f80fd5b905f5260205f20015f915090505481565b5f8160048110610176575f80fd5b015f915090505481565b606060048054806020026020016040519081016040528092919081815260200182805480156101cc57602002820191905f5260205f20905b8154815260200190600101908083116101b8575b5050505050905090565b5f60049060046101e7929190610342565b50565b6101f26101d6565b5f600490505b5f81111561033f575f600190505b8181101561032a57600282036102ab575f6004600260048054905061022b9190610533565b8154811061023c5761023b610566565b5b905f5260205f200154600460016004805490506102599190610533565b8154811061026a57610269610566565b5b905f5260205f20015461027d9190610593565b9050600481908060018154018082558091505060019003905f5260205f20015f909190919091505550610316565b5f8082600481106102bf576102be610566565b5b01545f6001846102cf9190610533565b600481106102e0576102df610566565b5b01546102ec9190610593565b9050600481908060018154018082558091505060019003905f5260205f20015f9091909190915055505b6002816103239190610593565b9050610206565b5060028161033891906105f3565b90506101f8565b50565b828054828255905f5260205f20908101928215610379579182015b8281111561037857825482559160010191906001019061035d565b5b509050610386919061038a565b5090565b5b808211156103a1575f815f90555060010161038b565b5090565b5f819050919050565b6103b7816103a5565b82525050565b5f6020820190506103d05f8301846103ae565b92915050565b5f80fd5b6103e3816103a5565b81146103ed575f80fd5b50565b5f813590506103fe816103da565b92915050565b5f60208284031215610419576104186103d6565b5b5f610426848285016103f0565b91505092915050565b5f81519050919050565b5f82825260208201905092915050565b5f819050602082019050919050565b610461816103a5565b82525050565b5f6104728383610458565b60208301905092915050565b5f602082019050919050565b5f6104948261042f565b61049e8185610439565b93506104a983610449565b805f5b838110156104d95781516104c08882610467565b97506104cb8361047e565b9250506001810190506104ac565b5085935050505092915050565b5f6020820190508181035f8301526104fe818461048a565b905092915050565b7f4e487b71000000000000000000000000000000000000000000000000000000005f52601160045260245ffd5b5f61053d826103a5565b9150610548836103a5565b92508282039050818111156105605761055f610506565b5b92915050565b7f4e487b71000000000000000000000000000000000000000000000000000000005f52603260045260245ffd5b5f61059d826103a5565b91506105a8836103a5565b92508282019050808211156105c0576105bf610506565b5b92915050565b7f4e487b71000000000000000000000000000000000000000000000000000000005f52601260045260245ffd5b5f6105fd826103a5565b9150610608836103a5565b925082610618576106176105c6565b5b82820490509291505056fea264697066735822122011e4d86a0523e51800e2b91a9470853e8ab9b5ef58ddbee65772f249a6de6b4264736f6c63430008150033",
					"opcodes": "PUSH1 0x80 PUSH1 0x40 MSTORE PUSH1 0x40 MLOAD DUP1 PUSH1 0x80 ADD PUSH1 0x40 MSTORE DUP1 PUSH1 0x1 PUSH1 0xFF AND DUP2 MSTORE PUSH1 0x20 ADD PUSH1 0x3 PUSH1 0xFF AND DUP2 MSTORE PUSH1 0x20 ADD PUSH1 0x4 PUSH1 0xFF AND DUP2 MSTORE PUSH1 0x20 ADD PUSH1 0x2 PUSH1 0xFF AND DUP2 MSTORE POP PUSH0 SWAP1 PUSH1 0x4 PUSH2 0x44 SWAP3 SWAP2 SWAP1 PUSH2 0x56 JUMP JUMPDEST POP CALLVALUE DUP1 ISZERO PUSH2 0x50 JUMPI PUSH0 DUP1 REVERT JUMPDEST POP PUSH2 0xB6 JUMP JUMPDEST DUP3 PUSH1 0x4 DUP2 ADD SWAP3 DUP3 ISZERO PUSH2 0x8A JUMPI SWAP2 PUSH1 0x20 MUL DUP3 ADD JUMPDEST DUP3 DUP2 GT ISZERO PUSH2 0x89 JUMPI DUP3 MLOAD DUP3 SWAP1 PUSH1 0xFF AND SWAP1 SSTORE SWAP2 PUSH1 0x20 ADD SWAP2 SWAP1 PUSH1 0x1 ADD SWAP1 PUSH2 0x69 JUMP JUMPDEST JUMPDEST POP SWAP1 POP PUSH2 0x97 SWAP2 SWAP1 PUSH2 0x9B JUMP JUMPDEST POP SWAP1 JUMP JUMPDEST JUMPDEST DUP1 DUP3 GT ISZERO PUSH2 0xB2 JUMPI PUSH0 DUP2 PUSH0 SWAP1 SSTORE POP PUSH1 0x1 ADD PUSH2 0x9C JUMP JUMPDEST POP SWAP1 JUMP JUMPDEST PUSH2 0x659 DUP1 PUSH2 0xC3 PUSH0 CODECOPY PUSH0 RETURN INVALID PUSH1 0x80 PUSH1 0x40 MSTORE CALLVALUE DUP1 ISZERO PUSH2 0xF JUMPI PUSH0 DUP1 REVERT JUMPDEST POP PUSH1 0x4 CALLDATASIZE LT PUSH2 0x60 JUMPI PUSH0 CALLDATALOAD PUSH1 0xE0 SHR DUP1 PUSH4 0x4CAD55B4 EQ PUSH2 0x64 JUMPI DUP1 PUSH4 0x6987B1FB EQ PUSH2 0x82 JUMPI DUP1 PUSH4 0x71E5EE5F EQ PUSH2 0xB2 JUMPI DUP1 PUSH4 0x88046C6A EQ PUSH2 0xE2 JUMPI DUP1 PUSH4 0x98ECFAED EQ PUSH2 0x100 JUMPI DUP1 PUSH4 0x9DC0B491 EQ PUSH2 0x10A JUMPI JUMPDEST PUSH0 DUP1 REVERT JUMPDEST PUSH2 0x6C PUSH2 0x114 JUMP JUMPDEST PUSH1 0x40 MLOAD PUSH2 0x79 SWAP2 SWAP1 PUSH2 0x3BD JUMP JUMPDEST PUSH1 0x40 MLOAD DUP1 SWAP2 SUB SWAP1 RETURN JUMPDEST PUSH2 0x9C PUSH1 0x4 DUP1 CALLDATASIZE SUB DUP2 ADD SWAP1 PUSH2 0x97 SWAP2 SWAP1 PUSH2 0x404 JUMP JUMPDEST PUSH2 0x148 JUMP JUMPDEST PUSH1 0x40 MLOAD PUSH2 0xA9 SWAP2 SWAP1 PUSH2 0x3BD JUMP JUMPDEST PUSH1 0x40 MLOAD DUP1 SWAP2 SUB SWAP1 RETURN JUMPDEST PUSH2 0xCC PUSH1 0x4 DUP1 CALLDATASIZE SUB DUP2 ADD SWAP1 PUSH2 0xC7 SWAP2 SWAP1 PUSH2 0x404 JUMP JUMPDEST PUSH2 0x168 JUMP JUMPDEST PUSH1 0x40 MLOAD PUSH2 0xD9 SWAP2 SWAP1 PUSH2 0x3BD JUMP JUMPDEST PUSH1 0x40 MLOAD DUP1 SWAP2 SUB SWAP1 RETURN JUMPDEST PUSH2 0xEA PUSH2 0x180 JUMP JUMPDEST PUSH1 0x40 MLOAD PUSH2 0xF7 SWAP2 SWAP1 PUSH2 0x4E6 JUMP JUMPDEST PUSH1 0x40 MLOAD DUP1 SWAP2 SUB SWAP1 RETURN JUMPDEST PUSH2 0x108 PUSH2 0x1D6 JUMP JUMPDEST STOP JUMPDEST PUSH2 0x112 PUSH2 0x1EA JUMP JUMPDEST STOP JUMPDEST PUSH0 PUSH1 0x4 PUSH1 0x1 PUSH1 0x4 DUP1 SLOAD SWAP1 POP PUSH2 0x129 SWAP2 SWAP1 PUSH2 0x533 JUMP JUMPDEST DUP2 SLOAD DUP2 LT PUSH2 0x13A JUMPI PUSH2 0x139 PUSH2 0x566 JUMP JUMPDEST JUMPDEST SWAP1 PUSH0 MSTORE PUSH1 0x20 PUSH0 KECCAK256 ADD SLOAD SWAP1 POP SWAP1 JUMP JUMPDEST PUSH1 0x4 DUP2 DUP2 SLOAD DUP2 LT PUSH2 0x157 JUMPI PUSH0 DUP1 REVERT JUMPDEST SWAP1 PUSH0 MSTORE PUSH1 0x20 PUSH0 KECCAK256 ADD PUSH0 SWAP2 POP SWAP1 POP SLOAD DUP2 JUMP JUMPDEST PUSH0 DUP2 PUSH1 0x4 DUP2 LT PUSH2 0x176 JUMPI PUSH0 DUP1 REVERT JUMPDEST ADD PUSH0 SWAP2 POP SWAP1 POP SLOAD DUP2 JUMP JUMPDEST PUSH1 0x60 PUSH1 0x4 DUP1 SLOAD DUP1 PUSH1 0x20 MUL PUSH1 0x20 ADD PUSH1 0x40 MLOAD SWAP1 DUP2 ADD PUSH1 0x40 MSTORE DUP1 SWAP3 SWAP2 SWAP1 DUP2 DUP2 MSTORE PUSH1 0x20 ADD DUP3 DUP1 SLOAD DUP1 ISZERO PUSH2 0x1CC JUMPI PUSH1 0x20 MUL DUP3 ADD SWAP2 SWAP1 PUSH0 MSTORE PUSH1 0x20 PUSH0 KECCAK256 SWAP1 JUMPDEST DUP2 SLOAD DUP2 MSTORE PUSH1 0x20 ADD SWAP1 PUSH1 0x1 ADD SWAP1 DUP1 DUP4 GT PUSH2 0x1B8 JUMPI JUMPDEST POP POP POP POP POP SWAP1 POP SWAP1 JUMP JUMPDEST PUSH0 PUSH1 0x4 SWAP1 PUSH1 0x4 PUSH2 0x1E7 SWAP3 SWAP2 SWAP1 PUSH2 0x342 JUMP JUMPDEST POP JUMP JUMPDEST PUSH2 0x1F2 PUSH2 0x1D6 JUMP JUMPDEST PUSH0 PUSH1 0x4 SWAP1 POP JUMPDEST PUSH0 DUP2 GT ISZERO PUSH2 0x33F JUMPI PUSH0 PUSH1 0x1 SWAP1 POP JUMPDEST DUP2 DUP2 LT ISZERO PUSH2 0x32A JUMPI PUSH1 0x2 DUP3 SUB PUSH2 0x2AB JUMPI PUSH0 PUSH1 0x4 PUSH1 0x2 PUSH1 0x4 DUP1 SLOAD SWAP1 POP PUSH2 0x22B SWAP2 SWAP1 PUSH2 0x533 JUMP JUMPDEST DUP2 SLOAD DUP2 LT PUSH2 0x23C JUMPI PUSH2 0x23B PUSH2 0x566 JUMP JUMPDEST JUMPDEST SWAP1 PUSH0 MSTORE PUSH1 0x20 PUSH0 KECCAK256 ADD SLOAD PUSH1 0x4 PUSH1 0x1 PUSH1 0x4 DUP1 SLOAD SWAP1 POP PUSH2 0x259 SWAP2 SWAP1 PUSH2 0x533 JUMP JUMPDEST DUP2 SLOAD DUP2 LT PUSH2 0x26A JUMPI PUSH2 0x269 PUSH2 0x566 JUMP JUMPDEST JUMPDEST SWAP1 PUSH0 MSTORE PUSH1 0x20 PUSH0 KECCAK256 ADD SLOAD PUSH2 0x27D SWAP2 SWAP1 PUSH2 0x593 JUMP JUMPDEST SWAP1 POP PUSH1 0x4 DUP2 SWAP1 DUP1 PUSH1 0x1 DUP2 SLOAD ADD DUP1 DUP3 SSTORE DUP1 SWAP2 POP POP PUSH1 0x1 SWAP1 SUB SWAP1 PUSH0 MSTORE PUSH1 0x20 PUSH0 KECCAK256 ADD PUSH0 SWAP1 SWAP2 SWAP1 SWAP2 SWAP1 SWAP2 POP SSTORE POP PUSH2 0x316 JUMP JUMPDEST PUSH0 DUP1 DUP3 PUSH1 0x4 DUP2 LT PUSH2 0x2BF JUMPI PUSH2 0x2BE PUSH2 0x566 JUMP JUMPDEST JUMPDEST ADD SLOAD PUSH0 PUSH1 0x1 DUP5 PUSH2 0x2CF SWAP2 SWAP1 PUSH2 0x533 JUMP JUMPDEST PUSH1 0x4 DUP2 LT PUSH2 0x2E0 JUMPI PUSH2 0x2DF PUSH2 0x566 JUMP JUMPDEST JUMPDEST ADD SLOAD PUSH2 0x2EC SWAP2 SWAP1 PUSH2 0x593 JUMP JUMPDEST SWAP1 POP PUSH1 0x4 DUP2 SWAP1 DUP1 PUSH1 0x1 DUP2 SLOAD ADD DUP1 DUP3 SSTORE DUP1 SWAP2 POP POP PUSH1 0x1 SWAP1 SUB SWAP1 PUSH0 MSTORE PUSH1 0x20 PUSH0 KECCAK256 ADD PUSH0 SWAP1 SWAP2 SWAP1 SWAP2 SWAP1 SWAP2 POP SSTORE POP JUMPDEST PUSH1 0x2 DUP2 PUSH2 0x323 SWAP2 SWAP1 PUSH2 0x593 JUMP JUMPDEST SWAP1 POP PUSH2 0x206 JUMP JUMPDEST POP PUSH1 0x2 DUP2 PUSH2 0x338 SWAP2 SWAP1 PUSH2 0x5F3 JUMP JUMPDEST SWAP1 POP PUSH2 0x1F8 JUMP JUMPDEST POP JUMP JUMPDEST DUP3 DUP1 SLOAD DUP3 DUP3 SSTORE SWAP1 PUSH0 MSTORE PUSH1 0x20 PUSH0 KECCAK256 SWAP1 DUP2 ADD SWAP3 DUP3 ISZERO PUSH2 0x379 JUMPI SWAP2 DUP3 ADD JUMPDEST DUP3 DUP2 GT ISZERO PUSH2 0x378 JUMPI DUP3 SLOAD DUP3 SSTORE SWAP2 PUSH1 0x1 ADD SWAP2 SWAP1 PUSH1 0x1 ADD SWAP1 PUSH2 0x35D JUMP JUMPDEST JUMPDEST POP SWAP1 POP PUSH2 0x386 SWAP2 SWAP1 PUSH2 0x38A JUMP JUMPDEST POP SWAP1 JUMP JUMPDEST JUMPDEST DUP1 DUP3 GT ISZERO PUSH2 0x3A1 JUMPI PUSH0 DUP2 PUSH0 SWAP1 SSTORE POP PUSH1 0x1 ADD PUSH2 0x38B JUMP JUMPDEST POP SWAP1 JUMP JUMPDEST PUSH0 DUP2 SWAP1 POP SWAP2 SWAP1 POP JUMP JUMPDEST PUSH2 0x3B7 DUP2 PUSH2 0x3A5 JUMP JUMPDEST DUP3 MSTORE POP POP JUMP JUMPDEST PUSH0 PUSH1 0x20 DUP3 ADD SWAP1 POP PUSH2 0x3D0 PUSH0 DUP4 ADD DUP5 PUSH2 0x3AE JUMP JUMPDEST SWAP3 SWAP2 POP POP JUMP JUMPDEST PUSH0 DUP1 REVERT JUMPDEST PUSH2 0x3E3 DUP2 PUSH2 0x3A5 JUMP JUMPDEST DUP2 EQ PUSH2 0x3ED JUMPI PUSH0 DUP1 REVERT JUMPDEST POP JUMP JUMPDEST PUSH0 DUP2 CALLDATALOAD SWAP1 POP PUSH2 0x3FE DUP2 PUSH2 0x3DA JUMP JUMPDEST SWAP3 SWAP2 POP POP JUMP JUMPDEST PUSH0 PUSH1 0x20 DUP3 DUP5 SUB SLT ISZERO PUSH2 0x419 JUMPI PUSH2 0x418 PUSH2 0x3D6 JUMP JUMPDEST JUMPDEST PUSH0 PUSH2 0x426 DUP5 DUP3 DUP6 ADD PUSH2 0x3F0 JUMP JUMPDEST SWAP2 POP POP SWAP3 SWAP2 POP POP JUMP JUMPDEST PUSH0 DUP2 MLOAD SWAP1 POP SWAP2 SWAP1 POP JUMP JUMPDEST PUSH0 DUP3 DUP3 MSTORE PUSH1 0x20 DUP3 ADD SWAP1 POP SWAP3 SWAP2 POP POP JUMP JUMPDEST PUSH0 DUP2 SWAP1 POP PUSH1 0x20 DUP3 ADD SWAP1 POP SWAP2 SWAP1 POP JUMP JUMPDEST PUSH2 0x461 DUP2 PUSH2 0x3A5 JUMP JUMPDEST DUP3 MSTORE POP POP JUMP JUMPDEST PUSH0 PUSH2 0x472 DUP4 DUP4 PUSH2 0x458 JUMP JUMPDEST PUSH1 0x20 DUP4 ADD SWAP1 POP SWAP3 SWAP2 POP POP JUMP JUMPDEST PUSH0 PUSH1 0x20 DUP3 ADD SWAP1 POP SWAP2 SWAP1 POP JUMP JUMPDEST PUSH0 PUSH2 0x494 DUP3 PUSH2 0x42F JUMP JUMPDEST PUSH2 0x49E DUP2 DUP6 PUSH2 0x439 JUMP JUMPDEST SWAP4 POP PUSH2 0x4A9 DUP4 PUSH2 0x449 JUMP JUMPDEST DUP1 PUSH0 JUMPDEST DUP4 DUP2 LT ISZERO PUSH2 0x4D9 JUMPI DUP2 MLOAD PUSH2 0x4C0 DUP9 DUP3 PUSH2 0x467 JUMP JUMPDEST SWAP8 POP PUSH2 0x4CB DUP4 PUSH2 0x47E JUMP JUMPDEST SWAP3 POP POP PUSH1 0x1 DUP2 ADD SWAP1 POP PUSH2 0x4AC JUMP JUMPDEST POP DUP6 SWAP4 POP POP POP POP SWAP3 SWAP2 POP POP JUMP JUMPDEST PUSH0 PUSH1 0x20 DUP3 ADD SWAP1 POP DUP2 DUP2 SUB PUSH0 DUP4 ADD MSTORE PUSH2 0x4FE DUP2 DUP5 PUSH2 0x48A JUMP JUMPDEST SWAP1 POP SWAP3 SWAP2 POP POP JUMP JUMPDEST PUSH32 0x4E487B7100000000000000000000000000000000000000000000000000000000 PUSH0 MSTORE PUSH1 0x11 PUSH1 0x4 MSTORE PUSH1 0x24 PUSH0 REVERT JUMPDEST PUSH0 PUSH2 0x53D DUP3 PUSH2 0x3A5 JUMP JUMPDEST SWAP2 POP PUSH2 0x548 DUP4 PUSH2 0x3A5 JUMP JUMPDEST SWAP3 POP DUP3 DUP3 SUB SWAP1 POP DUP2 DUP2 GT ISZERO PUSH2 0x560 JUMPI PUSH2 0x55F PUSH2 0x506 JUMP JUMPDEST JUMPDEST SWAP3 SWAP2 POP POP JUMP JUMPDEST PUSH32 0x4E487B7100000000000000000000000000000000000000000000000000000000 PUSH0 MSTORE PUSH1 0x32 PUSH1 0x4 MSTORE PUSH1 0x24 PUSH0 REVERT JUMPDEST PUSH0 PUSH2 0x59D DUP3 PUSH2 0x3A5 JUMP JUMPDEST SWAP2 POP PUSH2 0x5A8 DUP4 PUSH2 0x3A5 JUMP JUMPDEST SWAP3 POP DUP3 DUP3 ADD SWAP1 POP DUP1 DUP3 GT ISZERO PUSH2 0x5C0 JUMPI PUSH2 0x5BF PUSH2 0x506 JUMP JUMPDEST JUMPDEST SWAP3 SWAP2 POP POP JUMP JUMPDEST PUSH32 0x4E487B7100000000000000000000000000000000000000000000000000000000 PUSH0 MSTORE PUSH1 0x12 PUSH1 0x4 MSTORE PUSH1 0x24 PUSH0 REVERT JUMPDEST PUSH0 PUSH2 0x5FD DUP3 PUSH2 0x3A5 JUMP JUMPDEST SWAP2 POP PUSH2 0x608 DUP4 PUSH2 0x3A5 JUMP JUMPDEST SWAP3 POP DUP3 PUSH2 0x618 JUMPI PUSH2 0x617 PUSH2 0x5C6 JUMP JUMPDEST JUMPDEST DUP3 DUP3 DIV SWAP1 POP SWAP3 SWAP2 POP POP JUMP INVALID LOG2 PUSH5 0x6970667358 0x22 SLT KECCAK256 GT 0xE4 0xD8 PUSH11 0x523E51800E2B91A947085 RETURNDATACOPY DUP11 0xB9 0xB5 0xEF PC 0xDD 0xBE 0xE6 JUMPI PUSH19 0xF249A6DE6B4264736F6C634300081500330000 "
				},
				"gasEstimates": {
					"creation": {
						"codeDepositCost": "325000",
						"executionCost": "infinite",
						"totalCost": "infinite"
					},
					"external": {
						"RootItem()": "infinite",
						"arr(uint256)": "infinite",
						"arr1(uint256)": "infinite",
						"calculateSum()": "infinite",
						"copyItem()": "infinite",
						"returnArr()": "infinite"
					}
				},
				"methodIdentifiers": {
					"RootItem()": "4cad55b4",
					"arr(uint256)": "71e5ee5f",
					"arr1(uint256)": "6987b1fb",
					"calculateSum()": "9dc0b491",
					"copyItem()": "98ecfaed",
					"returnArr()": "88046c6a"
				}
			},
			"storageLayout": {
				"storage": [
					{
						"astId": 10,
						"contract": "contracts/4thaug.sol:MerkleTree",
						"label": "arr",
						"offset": 0,
						"slot": "0",
						"type": "t_array(t_uint256)4_storage"
					},
					{
						"astId": 13,
						"contract": "contracts/4thaug.sol:MerkleTree",
						"label": "arr1",
						"offset": 0,
						"slot": "4",
						"type": "t_array(t_uint256)dyn_storage"
					}
				],
				"types": {
					"t_array(t_uint256)4_storage": {
						"base": "t_uint256",
						"encoding": "inplace",
						"label": "uint256[4]",
						"numberOfBytes": "128"
					},
					"t_array(t_uint256)dyn_storage": {
						"base": "t_uint256",
						"encoding": "dynamic_array",
						"label": "uint256[]",
						"numberOfBytes": "32"
					},
					"t_uint256": {
						"encoding": "inplace",
						"label": "uint256",
						"numberOfBytes": "32"
					}
				}
			},
			"userdoc": {
				"kind": "user",
				"methods": {},
				"version": 1
			}
		}
	}
}