{
	"contracts/10-07-2023.sol": {
		"minmax": {
			"abi": [
				{
					"inputs": [],
					"name": "int128max",
					"outputs": [
						{
							"internalType": "int128",
							"name": "",
							"type": "int128"
						}
					],
					"stateMutability": "view",
					"type": "function"
				},
				{
					"inputs": [],
					"name": "int128min",
					"outputs": [
						{
							"internalType": "int128",
							"name": "",
							"type": "int128"
						}
					],
					"stateMutability": "view",
					"type": "function"
				},
				{
					"inputs": [],
					"name": "int16max",
					"outputs": [
						{
							"internalType": "int16",
							"name": "",
							"type": "int16"
						}
					],
					"stateMutability": "view",
					"type": "function"
				},
				{
					"inputs": [],
					"name": "int16min",
					"outputs": [
						{
							"internalType": "int16",
							"name": "",
							"type": "int16"
						}
					],
					"stateMutability": "view",
					"type": "function"
				},
				{
					"inputs": [],
					"name": "int256max",
					"outputs": [
						{
							"internalType": "int256",
							"name": "",
							"type": "int256"
						}
					],
					"stateMutability": "view",
					"type": "function"
				},
				{
					"inputs": [],
					"name": "int256min",
					"outputs": [
						{
							"internalType": "int256",
							"name": "",
							"type": "int256"
						}
					],
					"stateMutability": "view",
					"type": "function"
				},
				{
					"inputs": [],
					"name": "int32max",
					"outputs": [
						{
							"internalType": "int32",
							"name": "",
							"type": "int32"
						}
					],
					"stateMutability": "view",
					"type": "function"
				},
				{
					"inputs": [],
					"name": "int32min",
					"outputs": [
						{
							"internalType": "int32",
							"name": "",
							"type": "int32"
						}
					],
					"stateMutability": "view",
					"type": "function"
				},
				{
					"inputs": [],
					"name": "int64max",
					"outputs": [
						{
							"internalType": "int64",
							"name": "",
							"type": "int64"
						}
					],
					"stateMutability": "view",
					"type": "function"
				},
				{
					"inputs": [],
					"name": "int64min",
					"outputs": [
						{
							"internalType": "int64",
							"name": "",
							"type": "int64"
						}
					],
					"stateMutability": "view",
					"type": "function"
				},
				{
					"inputs": [],
					"name": "int8max",
					"outputs": [
						{
							"internalType": "int8",
							"name": "",
							"type": "int8"
						}
					],
					"stateMutability": "view",
					"type": "function"
				},
				{
					"inputs": [],
					"name": "int8min",
					"outputs": [
						{
							"internalType": "int8",
							"name": "",
							"type": "int8"
						}
					],
					"stateMutability": "view",
					"type": "function"
				},
				{
					"inputs": [],
					"name": "uint128max",
					"outputs": [
						{
							"internalType": "uint128",
							"name": "",
							"type": "uint128"
						}
					],
					"stateMutability": "view",
					"type": "function"
				},
				{
					"inputs": [],
					"name": "uint128min",
					"outputs": [
						{
							"internalType": "uint128",
							"name": "",
							"type": "uint128"
						}
					],
					"stateMutability": "view",
					"type": "function"
				},
				{
					"inputs": [],
					"name": "uint16max",
					"outputs": [
						{
							"internalType": "uint16",
							"name": "",
							"type": "uint16"
						}
					],
					"stateMutability": "view",
					"type": "function"
				},
				{
					"inputs": [],
					"name": "uint16min",
					"outputs": [
						{
							"internalType": "uint16",
							"name": "",
							"type": "uint16"
						}
					],
					"stateMutability": "view",
					"type": "function"
				},
				{
					"inputs": [],
					"name": "uint256max",
					"outputs": [
						{
							"internalType": "uint256",
							"name": "",
							"type": "uint256"
						}
					],
					"stateMutability": "view",
					"type": "function"
				},
				{
					"inputs": [],
					"name": "uint256min",
					"outputs": [
						{
							"internalType": "uint256",
							"name": "",
							"type": "uint256"
						}
					],
					"stateMutability": "view",
					"type": "function"
				},
				{
					"inputs": [],
					"name": "uint32max",
					"outputs": [
						{
							"internalType": "uint32",
							"name": "",
							"type": "uint32"
						}
					],
					"stateMutability": "view",
					"type": "function"
				},
				{
					"inputs": [],
					"name": "uint32min",
					"outputs": [
						{
							"internalType": "uint32",
							"name": "",
							"type": "uint32"
						}
					],
					"stateMutability": "view",
					"type": "function"
				},
				{
					"inputs": [],
					"name": "uint64max",
					"outputs": [
						{
							"internalType": "uint64",
							"name": "",
							"type": "uint64"
						}
					],
					"stateMutability": "view",
					"type": "function"
				},
				{
					"inputs": [],
					"name": "uint64min",
					"outputs": [
						{
							"internalType": "uint64",
							"name": "",
							"type": "uint64"
						}
					],
					"stateMutability": "view",
					"type": "function"
				},
				{
					"inputs": [],
					"name": "uint8max",
					"outputs": [
						{
							"internalType": "uint8",
							"name": "",
							"type": "uint8"
						}
					],
					"stateMutability": "view",
					"type": "function"
				},
				{
					"inputs": [],
					"name": "uint8min",
					"outputs": [
						{
							"internalType": "uint8",
							"name": "",
							"type": "uint8"
						}
					],
					"stateMutability": "view",
					"type": "function"
				}
			],
			"devdoc": {
				"kind": "dev",
				"methods": {},
				"version": 1
			},
			"evm": {
				"assembly": "    /* \"contracts/10-07-2023.sol\":479:1671  contract minmax{... */\n  mstore(0x40, 0x80)\n    /* \"contracts/10-07-2023.sol\":523:537  type(int8).max */\n  0x7f\n    /* \"contracts/10-07-2023.sol\":501:537  int8 public int8max = type(int8).max */\n  0x00\n  dup1\n  0x0100\n  exp\n  dup2\n  sload\n  dup2\n  0xff\n  mul\n  not\n  and\n  swap1\n  dup4\n  0x00\n  signextend\n  0xff\n  and\n  mul\n  or\n  swap1\n  sstore\n  pop\n    /* \"contracts/10-07-2023.sol\":566:580  type(int8).min */\n  0xffffffffffffffffffffffffffffffffffffffffffffffffffffffffffffff80\n    /* \"contracts/10-07-2023.sol\":544:580  int8 public int8min = type(int8).min */\n  0x00\n  exp(0x0100, 0x01)\n  dup2\n  sload\n  dup2\n  0xff\n  mul\n  not\n  and\n  swap1\n  dup4\n  0x00\n  signextend\n  0xff\n  and\n  mul\n  or\n  swap1\n  sstore\n  pop\n    /* \"contracts/10-07-2023.sol\":613:628  type(int16).max */\n  0x7fff\n    /* \"contracts/10-07-2023.sol\":589:628  int16 public int16max = type(int16).max */\n  0x00\n  exp(0x0100, 0x02)\n  dup2\n  sload\n  dup2\n  0xffff\n  mul\n  not\n  and\n  swap1\n  dup4\n  0x01\n  signextend\n  0xffff\n  and\n  mul\n  or\n  swap1\n  sstore\n  pop\n    /* \"contracts/10-07-2023.sol\":658:673  type(int16).min */\n  0xffffffffffffffffffffffffffffffffffffffffffffffffffffffffffff8000\n    /* \"contracts/10-07-2023.sol\":635:673  int16 public int16min= type(int16).min */\n  0x00\n  exp(0x0100, 0x04)\n  dup2\n  sload\n  dup2\n  0xffff\n  mul\n  not\n  and\n  swap1\n  dup4\n  0x01\n  signextend\n  0xffff\n  and\n  mul\n  or\n  swap1\n  sstore\n  pop\n    /* \"contracts/10-07-2023.sol\":706:721  type(int32).max */\n  0x7fffffff\n    /* \"contracts/10-07-2023.sol\":682:721  int32 public int32max = type(int32).max */\n  0x00\n  exp(0x0100, 0x06)\n  dup2\n  sload\n  dup2\n  0xffffffff\n  mul\n  not\n  and\n  swap1\n  dup4\n  0x03\n  signextend\n  0xffffffff\n  and\n  mul\n  or\n  swap1\n  sstore\n  pop\n    /* \"contracts/10-07-2023.sol\":752:767  type(int32).min */\n  0xffffffffffffffffffffffffffffffffffffffffffffffffffffffff80000000\n    /* \"contracts/10-07-2023.sol\":728:767  int32 public int32min = type(int32).min */\n  0x00\n  exp(0x0100, 0x0a)\n  dup2\n  sload\n  dup2\n  0xffffffff\n  mul\n  not\n  and\n  swap1\n  dup4\n  0x03\n  signextend\n  0xffffffff\n  and\n  mul\n  or\n  swap1\n  sstore\n  pop\n    /* \"contracts/10-07-2023.sol\":800:815  type(int64).max */\n  0x7fffffffffffffff\n    /* \"contracts/10-07-2023.sol\":776:815  int64 public int64max = type(int64).max */\n  0x00\n  exp(0x0100, 0x0e)\n  dup2\n  sload\n  dup2\n  0xffffffffffffffff\n  mul\n  not\n  and\n  swap1\n  dup4\n  0x07\n  signextend\n  0xffffffffffffffff\n  and\n  mul\n  or\n  swap1\n  sstore\n  pop\n    /* \"contracts/10-07-2023.sol\":846:861  type(int64).min */\n  0xffffffffffffffffffffffffffffffffffffffffffffffff8000000000000000\n    /* \"contracts/10-07-2023.sol\":822:861  int64 public int64min = type(int64).min */\n  0x00\n  exp(0x0100, 0x16)\n  dup2\n  sload\n  dup2\n  0xffffffffffffffff\n  mul\n  not\n  and\n  swap1\n  dup4\n  0x07\n  signextend\n  0xffffffffffffffff\n  and\n  mul\n  or\n  swap1\n  sstore\n  pop\n    /* \"contracts/10-07-2023.sol\":896:912  type(int128).max */\n  0x7fffffffffffffffffffffffffffffff\n    /* \"contracts/10-07-2023.sol\":870:912  int128 public int128max = type(int128).max */\n  0x01\n  exp(0x0100, 0x00)\n  dup2\n  sload\n  dup2\n  0xffffffffffffffffffffffffffffffff\n  mul\n  not\n  and\n  swap1\n  dup4\n  0x0f\n  signextend\n  0xffffffffffffffffffffffffffffffff\n  and\n  mul\n  or\n  swap1\n  sstore\n  pop\n    /* \"contracts/10-07-2023.sol\":945:961  type(int128).min */\n  0xffffffffffffffffffffffffffffffff80000000000000000000000000000000\n    /* \"contracts/10-07-2023.sol\":919:961  int128 public int128min = type(int128).min */\n  0x01\n  exp(0x0100, 0x10)\n  dup2\n  sload\n  dup2\n  0xffffffffffffffffffffffffffffffff\n  mul\n  not\n  and\n  swap1\n  dup4\n  0x0f\n  signextend\n  0xffffffffffffffffffffffffffffffff\n  and\n  mul\n  or\n  swap1\n  sstore\n  pop\n    /* \"contracts/10-07-2023.sol\":996:1012  type(int256).max */\n  0x7fffffffffffffffffffffffffffffffffffffffffffffffffffffffffffffff\n    /* \"contracts/10-07-2023.sol\":970:1012  int256 public int256max = type(int256).max */\n  0x02\n  sstore\n    /* \"contracts/10-07-2023.sol\":1045:1061  type(int256).min */\n  0x8000000000000000000000000000000000000000000000000000000000000000\n    /* \"contracts/10-07-2023.sol\":1019:1061  int256 public int256min = type(int256).min */\n  0x03\n  sstore\n    /* \"contracts/10-07-2023.sol\":1094:1109  type(uint8).max */\n  0xff\n    /* \"contracts/10-07-2023.sol\":1070:1109  uint8 public uint8max = type(uint8).max */\n  0x04\n  exp(0x0100, 0x00)\n  dup2\n  sload\n  dup2\n  0xff\n  mul\n  not\n  and\n  swap1\n  dup4\n  0xff\n  and\n  mul\n  or\n  swap1\n  sstore\n  pop\n    /* \"contracts/10-07-2023.sol\":1140:1155  type(uint8).min */\n  0x00\n    /* \"contracts/10-07-2023.sol\":1116:1155  uint8 public uint8min = type(uint8).min */\n  0x04\n  exp(0x0100, 0x01)\n  dup2\n  sload\n  dup2\n  0xff\n  mul\n  not\n  and\n  swap1\n  dup4\n  0xff\n  and\n  mul\n  or\n  swap1\n  sstore\n  pop\n    /* \"contracts/10-07-2023.sol\":1190:1206  type(uint16).max */\n  0xffff\n    /* \"contracts/10-07-2023.sol\":1164:1206  uint16 public uint16max = type(uint16).max */\n  0x04\n  exp(0x0100, 0x02)\n  dup2\n  sload\n  dup2\n  0xffff\n  mul\n  not\n  and\n  swap1\n  dup4\n  0xffff\n  and\n  mul\n  or\n  swap1\n  sstore\n  pop\n    /* \"contracts/10-07-2023.sol\":1239:1255  type(uint16).min */\n  0x00\n    /* \"contracts/10-07-2023.sol\":1213:1255  uint16 public uint16min = type(uint16).min */\n  0x04\n  dup1\n  0x0100\n  exp\n  dup2\n  sload\n  dup2\n  0xffff\n  mul\n  not\n  and\n  swap1\n  dup4\n  0xffff\n  and\n  mul\n  or\n  swap1\n  sstore\n  pop\n    /* \"contracts/10-07-2023.sol\":1290:1306  type(uint32).max */\n  0xffffffff\n    /* \"contracts/10-07-2023.sol\":1264:1306  uint32 public uint32max = type(uint32).max */\n  0x04\n  exp(0x0100, 0x06)\n  dup2\n  sload\n  dup2\n  0xffffffff\n  mul\n  not\n  and\n  swap1\n  dup4\n  0xffffffff\n  and\n  mul\n  or\n  swap1\n  sstore\n  pop\n    /* \"contracts/10-07-2023.sol\":1339:1355  type(uint32).min */\n  0x00\n    /* \"contracts/10-07-2023.sol\":1313:1355  uint32 public uint32min = type(uint32).min */\n  0x04\n  exp(0x0100, 0x0a)\n  dup2\n  sload\n  dup2\n  0xffffffff\n  mul\n  not\n  and\n  swap1\n  dup4\n  0xffffffff\n  and\n  mul\n  or\n  swap1\n  sstore\n  pop\n    /* \"contracts/10-07-2023.sol\":1390:1406  type(uint64).max */\n  0xffffffffffffffff\n    /* \"contracts/10-07-2023.sol\":1364:1406  uint64 public uint64max = type(uint64).max */\n  0x04\n  exp(0x0100, 0x0e)\n  dup2\n  sload\n  dup2\n  0xffffffffffffffff\n  mul\n  not\n  and\n  swap1\n  dup4\n  0xffffffffffffffff\n  and\n  mul\n  or\n  swap1\n  sstore\n  pop\n    /* \"contracts/10-07-2023.sol\":1439:1455  type(uint64).min */\n  0x00\n    /* \"contracts/10-07-2023.sol\":1413:1455  uint64 public uint64min = type(uint64).min */\n  0x04\n  exp(0x0100, 0x16)\n  dup2\n  sload\n  dup2\n  0xffffffffffffffff\n  mul\n  not\n  and\n  swap1\n  dup4\n  0xffffffffffffffff\n  and\n  mul\n  or\n  swap1\n  sstore\n  pop\n    /* \"contracts/10-07-2023.sol\":1492:1509  type(uint128).max */\n  0xffffffffffffffffffffffffffffffff\n    /* \"contracts/10-07-2023.sol\":1464:1509  uint128 public uint128max = type(uint128).max */\n  0x05\n  exp(0x0100, 0x00)\n  dup2\n  sload\n  dup2\n  0xffffffffffffffffffffffffffffffff\n  mul\n  not\n  and\n  swap1\n  dup4\n  0xffffffffffffffffffffffffffffffff\n  and\n  mul\n  or\n  swap1\n  sstore\n  pop\n    /* \"contracts/10-07-2023.sol\":1544:1561  type(uint128).min */\n  0x00\n    /* \"contracts/10-07-2023.sol\":1516:1561  uint128 public uint128min = type(uint128).min */\n  0x05\n  exp(0x0100, 0x10)\n  dup2\n  sload\n  dup2\n  0xffffffffffffffffffffffffffffffff\n  mul\n  not\n  and\n  swap1\n  dup4\n  0xffffffffffffffffffffffffffffffff\n  and\n  mul\n  or\n  swap1\n  sstore\n  pop\n    /* \"contracts/10-07-2023.sol\":1598:1615  type(uint256).max */\n  0xffffffffffffffffffffffffffffffffffffffffffffffffffffffffffffffff\n    /* \"contracts/10-07-2023.sol\":1570:1615  uint256 public uint256max = type(uint256).max */\n  0x06\n  sstore\n    /* \"contracts/10-07-2023.sol\":1650:1667  type(uint256).min */\n  0x00\n    /* \"contracts/10-07-2023.sol\":1622:1667  uint256 public uint256min = type(uint256).min */\n  0x07\n  sstore\n    /* \"contracts/10-07-2023.sol\":479:1671  contract minmax{... */\n  callvalue\n  dup1\n  iszero\n  tag_1\n  jumpi\n  0x00\n  dup1\n  revert\ntag_1:\n  pop\n  dataSize(sub_0)\n  dup1\n  dataOffset(sub_0)\n  0x00\n  codecopy\n  0x00\n  return\nstop\n\nsub_0: assembly {\n        /* \"contracts/10-07-2023.sol\":479:1671  contract minmax{... */\n      mstore(0x40, 0x80)\n      callvalue\n      dup1\n      iszero\n      tag_1\n      jumpi\n      0x00\n      dup1\n      revert\n    tag_1:\n      pop\n      jumpi(tag_2, lt(calldatasize, 0x04))\n      shr(0xe0, calldataload(0x00))\n      dup1\n      0x8b89fe12\n      gt\n      tag_27\n      jumpi\n      dup1\n      0xb9375a7e\n      gt\n      tag_28\n      jumpi\n      dup1\n      0xb9375a7e\n      eq\n      tag_21\n      jumpi\n      dup1\n      0xe1e8f196\n      eq\n      tag_22\n      jumpi\n      dup1\n      0xe82bb7fe\n      eq\n      tag_23\n      jumpi\n      dup1\n      0xeb8db1f0\n      eq\n      tag_24\n      jumpi\n      dup1\n      0xee5eb961\n      eq\n      tag_25\n      jumpi\n      dup1\n      0xf9ae49bc\n      eq\n      tag_26\n      jumpi\n      jump(tag_2)\n    tag_28:\n      dup1\n      0x8b89fe12\n      eq\n      tag_15\n      jumpi\n      dup1\n      0x8ce273c7\n      eq\n      tag_16\n      jumpi\n      dup1\n      0x8f3d752e\n      eq\n      tag_17\n      jumpi\n      dup1\n      0x93677762\n      eq\n      tag_18\n      jumpi\n      dup1\n      0xb1641122\n      eq\n      tag_19\n      jumpi\n      dup1\n      0xb3ed0749\n      eq\n      tag_20\n      jumpi\n      jump(tag_2)\n    tag_27:\n      dup1\n      0x56461fab\n      gt\n      tag_29\n      jumpi\n      dup1\n      0x56461fab\n      eq\n      tag_9\n      jumpi\n      dup1\n      0x5bba5d75\n      eq\n      tag_10\n      jumpi\n      dup1\n      0x615889a0\n      eq\n      tag_11\n      jumpi\n      dup1\n      0x6a58ca87\n      eq\n      tag_12\n      jumpi\n      dup1\n      0x76b1379a\n      eq\n      tag_13\n      jumpi\n      dup1\n      0x843ed70d\n      eq\n      tag_14\n      jumpi\n      jump(tag_2)\n    tag_29:\n      dup1\n      0x10994336\n      eq\n      tag_3\n      jumpi\n      dup1\n      0x28aef359\n      eq\n      tag_4\n      jumpi\n      dup1\n      0x35afba3b\n      eq\n      tag_5\n      jumpi\n      dup1\n      0x38d75cd3\n      eq\n      tag_6\n      jumpi\n      dup1\n      0x3fdda9b7\n      eq\n      tag_7\n      jumpi\n      dup1\n      0x460526fb\n      eq\n      tag_8\n      jumpi\n    tag_2:\n      0x00\n      dup1\n      revert\n        /* \"contracts/10-07-2023.sol\":1116:1155  uint8 public uint8min = type(uint8).min */\n    tag_3:\n      tag_30\n      tag_31\n      jump\t// in\n    tag_30:\n      mload(0x40)\n      tag_32\n      swap2\n      swap1\n      tag_33\n      jump\t// in\n    tag_32:\n      mload(0x40)\n      dup1\n      swap2\n      sub\n      swap1\n      return\n        /* \"contracts/10-07-2023.sol\":1070:1109  uint8 public uint8max = type(uint8).max */\n    tag_4:\n      tag_34\n      tag_35\n      jump\t// in\n    tag_34:\n      mload(0x40)\n      tag_36\n      swap2\n      swap1\n      tag_33\n      jump\t// in\n    tag_36:\n      mload(0x40)\n      dup1\n      swap2\n      sub\n      swap1\n      return\n        /* \"contracts/10-07-2023.sol\":1164:1206  uint16 public uint16max = type(uint16).max */\n    tag_5:\n      tag_37\n      tag_38\n      jump\t// in\n    tag_37:\n      mload(0x40)\n      tag_39\n      swap2\n      swap1\n      tag_40\n      jump\t// in\n    tag_39:\n      mload(0x40)\n      dup1\n      swap2\n      sub\n      swap1\n      return\n        /* \"contracts/10-07-2023.sol\":1019:1061  int256 public int256min = type(int256).min */\n    tag_6:\n      tag_41\n      tag_42\n      jump\t// in\n    tag_41:\n      mload(0x40)\n      tag_43\n      swap2\n      swap1\n      tag_44\n      jump\t// in\n    tag_43:\n      mload(0x40)\n      dup1\n      swap2\n      sub\n      swap1\n      return\n        /* \"contracts/10-07-2023.sol\":682:721  int32 public int32max = type(int32).max */\n    tag_7:\n      tag_45\n      tag_46\n      jump\t// in\n    tag_45:\n      mload(0x40)\n      tag_47\n      swap2\n      swap1\n      tag_48\n      jump\t// in\n    tag_47:\n      mload(0x40)\n      dup1\n      swap2\n      sub\n      swap1\n      return\n        /* \"contracts/10-07-2023.sol\":589:628  int16 public int16max = type(int16).max */\n    tag_8:\n      tag_49\n      tag_50\n      jump\t// in\n    tag_49:\n      mload(0x40)\n      tag_51\n      swap2\n      swap1\n      tag_52\n      jump\t// in\n    tag_51:\n      mload(0x40)\n      dup1\n      swap2\n      sub\n      swap1\n      return\n        /* \"contracts/10-07-2023.sol\":970:1012  int256 public int256max = type(int256).max */\n    tag_9:\n      tag_53\n      tag_54\n      jump\t// in\n    tag_53:\n      mload(0x40)\n      tag_55\n      swap2\n      swap1\n      tag_44\n      jump\t// in\n    tag_55:\n      mload(0x40)\n      dup1\n      swap2\n      sub\n      swap1\n      return\n        /* \"contracts/10-07-2023.sol\":635:673  int16 public int16min= type(int16).min */\n    tag_10:\n      tag_56\n      tag_57\n      jump\t// in\n    tag_56:\n      mload(0x40)\n      tag_58\n      swap2\n      swap1\n      tag_52\n      jump\t// in\n    tag_58:\n      mload(0x40)\n      dup1\n      swap2\n      sub\n      swap1\n      return\n        /* \"contracts/10-07-2023.sol\":1622:1667  uint256 public uint256min = type(uint256).min */\n    tag_11:\n      tag_59\n      tag_60\n      jump\t// in\n    tag_59:\n      mload(0x40)\n      tag_61\n      swap2\n      swap1\n      tag_62\n      jump\t// in\n    tag_61:\n      mload(0x40)\n      dup1\n      swap2\n      sub\n      swap1\n      return\n        /* \"contracts/10-07-2023.sol\":776:815  int64 public int64max = type(int64).max */\n    tag_12:\n      tag_63\n      tag_64\n      jump\t// in\n    tag_63:\n      mload(0x40)\n      tag_65\n      swap2\n      swap1\n      tag_66\n      jump\t// in\n    tag_65:\n      mload(0x40)\n      dup1\n      swap2\n      sub\n      swap1\n      return\n        /* \"contracts/10-07-2023.sol\":1570:1615  uint256 public uint256max = type(uint256).max */\n    tag_13:\n      tag_67\n      tag_68\n      jump\t// in\n    tag_67:\n      mload(0x40)\n      tag_69\n      swap2\n      swap1\n      tag_62\n      jump\t// in\n    tag_69:\n      mload(0x40)\n      dup1\n      swap2\n      sub\n      swap1\n      return\n        /* \"contracts/10-07-2023.sol\":728:767  int32 public int32min = type(int32).min */\n    tag_14:\n      tag_70\n      tag_71\n      jump\t// in\n    tag_70:\n      mload(0x40)\n      tag_72\n      swap2\n      swap1\n      tag_48\n      jump\t// in\n    tag_72:\n      mload(0x40)\n      dup1\n      swap2\n      sub\n      swap1\n      return\n        /* \"contracts/10-07-2023.sol\":501:537  int8 public int8max = type(int8).max */\n    tag_15:\n      tag_73\n      tag_74\n      jump\t// in\n    tag_73:\n      mload(0x40)\n      tag_75\n      swap2\n      swap1\n      tag_76\n      jump\t// in\n    tag_75:\n      mload(0x40)\n      dup1\n      swap2\n      sub\n      swap1\n      return\n        /* \"contracts/10-07-2023.sol\":870:912  int128 public int128max = type(int128).max */\n    tag_16:\n      tag_77\n      tag_78\n      jump\t// in\n    tag_77:\n      mload(0x40)\n      tag_79\n      swap2\n      swap1\n      tag_80\n      jump\t// in\n    tag_79:\n      mload(0x40)\n      dup1\n      swap2\n      sub\n      swap1\n      return\n        /* \"contracts/10-07-2023.sol\":1213:1255  uint16 public uint16min = type(uint16).min */\n    tag_17:\n      tag_81\n      tag_82\n      jump\t// in\n    tag_81:\n      mload(0x40)\n      tag_83\n      swap2\n      swap1\n      tag_40\n      jump\t// in\n    tag_83:\n      mload(0x40)\n      dup1\n      swap2\n      sub\n      swap1\n      return\n        /* \"contracts/10-07-2023.sol\":1516:1561  uint128 public uint128min = type(uint128).min */\n    tag_18:\n      tag_84\n      tag_85\n      jump\t// in\n    tag_84:\n      mload(0x40)\n      tag_86\n      swap2\n      swap1\n      tag_87\n      jump\t// in\n    tag_86:\n      mload(0x40)\n      dup1\n      swap2\n      sub\n      swap1\n      return\n        /* \"contracts/10-07-2023.sol\":1264:1306  uint32 public uint32max = type(uint32).max */\n    tag_19:\n      tag_88\n      tag_89\n      jump\t// in\n    tag_88:\n      mload(0x40)\n      tag_90\n      swap2\n      swap1\n      tag_91\n      jump\t// in\n    tag_90:\n      mload(0x40)\n      dup1\n      swap2\n      sub\n      swap1\n      return\n        /* \"contracts/10-07-2023.sol\":1464:1509  uint128 public uint128max = type(uint128).max */\n    tag_20:\n      tag_92\n      tag_93\n      jump\t// in\n    tag_92:\n      mload(0x40)\n      tag_94\n      swap2\n      swap1\n      tag_87\n      jump\t// in\n    tag_94:\n      mload(0x40)\n      dup1\n      swap2\n      sub\n      swap1\n      return\n        /* \"contracts/10-07-2023.sol\":1413:1455  uint64 public uint64min = type(uint64).min */\n    tag_21:\n      tag_95\n      tag_96\n      jump\t// in\n    tag_95:\n      mload(0x40)\n      tag_97\n      swap2\n      swap1\n      tag_98\n      jump\t// in\n    tag_97:\n      mload(0x40)\n      dup1\n      swap2\n      sub\n      swap1\n      return\n        /* \"contracts/10-07-2023.sol\":544:580  int8 public int8min = type(int8).min */\n    tag_22:\n      tag_99\n      tag_100\n      jump\t// in\n    tag_99:\n      mload(0x40)\n      tag_101\n      swap2\n      swap1\n      tag_76\n      jump\t// in\n    tag_101:\n      mload(0x40)\n      dup1\n      swap2\n      sub\n      swap1\n      return\n        /* \"contracts/10-07-2023.sol\":1313:1355  uint32 public uint32min = type(uint32).min */\n    tag_23:\n      tag_102\n      tag_103\n      jump\t// in\n    tag_102:\n      mload(0x40)\n      tag_104\n      swap2\n      swap1\n      tag_91\n      jump\t// in\n    tag_104:\n      mload(0x40)\n      dup1\n      swap2\n      sub\n      swap1\n      return\n        /* \"contracts/10-07-2023.sol\":822:861  int64 public int64min = type(int64).min */\n    tag_24:\n      tag_105\n      tag_106\n      jump\t// in\n    tag_105:\n      mload(0x40)\n      tag_107\n      swap2\n      swap1\n      tag_66\n      jump\t// in\n    tag_107:\n      mload(0x40)\n      dup1\n      swap2\n      sub\n      swap1\n      return\n        /* \"contracts/10-07-2023.sol\":919:961  int128 public int128min = type(int128).min */\n    tag_25:\n      tag_108\n      tag_109\n      jump\t// in\n    tag_108:\n      mload(0x40)\n      tag_110\n      swap2\n      swap1\n      tag_80\n      jump\t// in\n    tag_110:\n      mload(0x40)\n      dup1\n      swap2\n      sub\n      swap1\n      return\n        /* \"contracts/10-07-2023.sol\":1364:1406  uint64 public uint64max = type(uint64).max */\n    tag_26:\n      tag_111\n      tag_112\n      jump\t// in\n    tag_111:\n      mload(0x40)\n      tag_113\n      swap2\n      swap1\n      tag_98\n      jump\t// in\n    tag_113:\n      mload(0x40)\n      dup1\n      swap2\n      sub\n      swap1\n      return\n        /* \"contracts/10-07-2023.sol\":1116:1155  uint8 public uint8min = type(uint8).min */\n    tag_31:\n      0x04\n      0x01\n      swap1\n      sload\n      swap1\n      0x0100\n      exp\n      swap1\n      div\n      0xff\n      and\n      dup2\n      jump\t// out\n        /* \"contracts/10-07-2023.sol\":1070:1109  uint8 public uint8max = type(uint8).max */\n    tag_35:\n      0x04\n      0x00\n      swap1\n      sload\n      swap1\n      0x0100\n      exp\n      swap1\n      div\n      0xff\n      and\n      dup2\n      jump\t// out\n        /* \"contracts/10-07-2023.sol\":1164:1206  uint16 public uint16max = type(uint16).max */\n    tag_38:\n      0x04\n      0x02\n      swap1\n      sload\n      swap1\n      0x0100\n      exp\n      swap1\n      div\n      0xffff\n      and\n      dup2\n      jump\t// out\n        /* \"contracts/10-07-2023.sol\":1019:1061  int256 public int256min = type(int256).min */\n    tag_42:\n      sload(0x03)\n      dup2\n      jump\t// out\n        /* \"contracts/10-07-2023.sol\":682:721  int32 public int32max = type(int32).max */\n    tag_46:\n      0x00\n      0x06\n      swap1\n      sload\n      swap1\n      0x0100\n      exp\n      swap1\n      div\n      0x03\n      signextend\n      dup2\n      jump\t// out\n        /* \"contracts/10-07-2023.sol\":589:628  int16 public int16max = type(int16).max */\n    tag_50:\n      0x00\n      0x02\n      swap1\n      sload\n      swap1\n      0x0100\n      exp\n      swap1\n      div\n      0x01\n      signextend\n      dup2\n      jump\t// out\n        /* \"contracts/10-07-2023.sol\":970:1012  int256 public int256max = type(int256).max */\n    tag_54:\n      sload(0x02)\n      dup2\n      jump\t// out\n        /* \"contracts/10-07-2023.sol\":635:673  int16 public int16min= type(int16).min */\n    tag_57:\n      0x00\n      0x04\n      swap1\n      sload\n      swap1\n      0x0100\n      exp\n      swap1\n      div\n      0x01\n      signextend\n      dup2\n      jump\t// out\n        /* \"contracts/10-07-2023.sol\":1622:1667  uint256 public uint256min = type(uint256).min */\n    tag_60:\n      sload(0x07)\n      dup2\n      jump\t// out\n        /* \"contracts/10-07-2023.sol\":776:815  int64 public int64max = type(int64).max */\n    tag_64:\n      0x00\n      0x0e\n      swap1\n      sload\n      swap1\n      0x0100\n      exp\n      swap1\n      div\n      0x07\n      signextend\n      dup2\n      jump\t// out\n        /* \"contracts/10-07-2023.sol\":1570:1615  uint256 public uint256max = type(uint256).max */\n    tag_68:\n      sload(0x06)\n      dup2\n      jump\t// out\n        /* \"contracts/10-07-2023.sol\":728:767  int32 public int32min = type(int32).min */\n    tag_71:\n      0x00\n      0x0a\n      swap1\n      sload\n      swap1\n      0x0100\n      exp\n      swap1\n      div\n      0x03\n      signextend\n      dup2\n      jump\t// out\n        /* \"contracts/10-07-2023.sol\":501:537  int8 public int8max = type(int8).max */\n    tag_74:\n      0x00\n      dup1\n      sload\n      swap1\n      0x0100\n      exp\n      swap1\n      div\n      0x00\n      signextend\n      dup2\n      jump\t// out\n        /* \"contracts/10-07-2023.sol\":870:912  int128 public int128max = type(int128).max */\n    tag_78:\n      0x01\n      0x00\n      swap1\n      sload\n      swap1\n      0x0100\n      exp\n      swap1\n      div\n      0x0f\n      signextend\n      dup2\n      jump\t// out\n        /* \"contracts/10-07-2023.sol\":1213:1255  uint16 public uint16min = type(uint16).min */\n    tag_82:\n      0x04\n      dup1\n      sload\n      swap1\n      0x0100\n      exp\n      swap1\n      div\n      0xffff\n      and\n      dup2\n      jump\t// out\n        /* \"contracts/10-07-2023.sol\":1516:1561  uint128 public uint128min = type(uint128).min */\n    tag_85:\n      0x05\n      0x10\n      swap1\n      sload\n      swap1\n      0x0100\n      exp\n      swap1\n      div\n      0xffffffffffffffffffffffffffffffff\n      and\n      dup2\n      jump\t// out\n        /* \"contracts/10-07-2023.sol\":1264:1306  uint32 public uint32max = type(uint32).max */\n    tag_89:\n      0x04\n      0x06\n      swap1\n      sload\n      swap1\n      0x0100\n      exp\n      swap1\n      div\n      0xffffffff\n      and\n      dup2\n      jump\t// out\n        /* \"contracts/10-07-2023.sol\":1464:1509  uint128 public uint128max = type(uint128).max */\n    tag_93:\n      0x05\n      0x00\n      swap1\n      sload\n      swap1\n      0x0100\n      exp\n      swap1\n      div\n      0xffffffffffffffffffffffffffffffff\n      and\n      dup2\n      jump\t// out\n        /* \"contracts/10-07-2023.sol\":1413:1455  uint64 public uint64min = type(uint64).min */\n    tag_96:\n      0x04\n      0x16\n      swap1\n      sload\n      swap1\n      0x0100\n      exp\n      swap1\n      div\n      0xffffffffffffffff\n      and\n      dup2\n      jump\t// out\n        /* \"contracts/10-07-2023.sol\":544:580  int8 public int8min = type(int8).min */\n    tag_100:\n      0x00\n      0x01\n      swap1\n      sload\n      swap1\n      0x0100\n      exp\n      swap1\n      div\n      0x00\n      signextend\n      dup2\n      jump\t// out\n        /* \"contracts/10-07-2023.sol\":1313:1355  uint32 public uint32min = type(uint32).min */\n    tag_103:\n      0x04\n      0x0a\n      swap1\n      sload\n      swap1\n      0x0100\n      exp\n      swap1\n      div\n      0xffffffff\n      and\n      dup2\n      jump\t// out\n        /* \"contracts/10-07-2023.sol\":822:861  int64 public int64min = type(int64).min */\n    tag_106:\n      0x00\n      0x16\n      swap1\n      sload\n      swap1\n      0x0100\n      exp\n      swap1\n      div\n      0x07\n      signextend\n      dup2\n      jump\t// out\n        /* \"contracts/10-07-2023.sol\":919:961  int128 public int128min = type(int128).min */\n    tag_109:\n      0x01\n      0x10\n      swap1\n      sload\n      swap1\n      0x0100\n      exp\n      swap1\n      div\n      0x0f\n      signextend\n      dup2\n      jump\t// out\n        /* \"contracts/10-07-2023.sol\":1364:1406  uint64 public uint64max = type(uint64).max */\n    tag_112:\n      0x04\n      0x0e\n      swap1\n      sload\n      swap1\n      0x0100\n      exp\n      swap1\n      div\n      0xffffffffffffffff\n      and\n      dup2\n      jump\t// out\n        /* \"#utility.yul\":7:93   */\n    tag_114:\n        /* \"#utility.yul\":42:49   */\n      0x00\n        /* \"#utility.yul\":82:86   */\n      0xff\n        /* \"#utility.yul\":75:80   */\n      dup3\n        /* \"#utility.yul\":71:87   */\n      and\n        /* \"#utility.yul\":60:87   */\n      swap1\n      pop\n        /* \"#utility.yul\":7:93   */\n      swap2\n      swap1\n      pop\n      jump\t// out\n        /* \"#utility.yul\":99:211   */\n    tag_115:\n        /* \"#utility.yul\":182:204   */\n      tag_141\n        /* \"#utility.yul\":198:203   */\n      dup2\n        /* \"#utility.yul\":182:204   */\n      tag_114\n      jump\t// in\n    tag_141:\n        /* \"#utility.yul\":177:180   */\n      dup3\n        /* \"#utility.yul\":170:205   */\n      mstore\n        /* \"#utility.yul\":99:211   */\n      pop\n      pop\n      jump\t// out\n        /* \"#utility.yul\":217:431   */\n    tag_33:\n        /* \"#utility.yul\":306:310   */\n      0x00\n        /* \"#utility.yul\":344:346   */\n      0x20\n        /* \"#utility.yul\":333:342   */\n      dup3\n        /* \"#utility.yul\":329:347   */\n      add\n        /* \"#utility.yul\":321:347   */\n      swap1\n      pop\n        /* \"#utility.yul\":357:424   */\n      tag_143\n        /* \"#utility.yul\":421:422   */\n      0x00\n        /* \"#utility.yul\":410:419   */\n      dup4\n        /* \"#utility.yul\":406:423   */\n      add\n        /* \"#utility.yul\":397:403   */\n      dup5\n        /* \"#utility.yul\":357:424   */\n      tag_115\n      jump\t// in\n    tag_143:\n        /* \"#utility.yul\":217:431   */\n      swap3\n      swap2\n      pop\n      pop\n      jump\t// out\n        /* \"#utility.yul\":437:526   */\n    tag_116:\n        /* \"#utility.yul\":473:480   */\n      0x00\n        /* \"#utility.yul\":513:519   */\n      0xffff\n        /* \"#utility.yul\":506:511   */\n      dup3\n        /* \"#utility.yul\":502:520   */\n      and\n        /* \"#utility.yul\":491:520   */\n      swap1\n      pop\n        /* \"#utility.yul\":437:526   */\n      swap2\n      swap1\n      pop\n      jump\t// out\n        /* \"#utility.yul\":532:647   */\n    tag_117:\n        /* \"#utility.yul\":617:640   */\n      tag_146\n        /* \"#utility.yul\":634:639   */\n      dup2\n        /* \"#utility.yul\":617:640   */\n      tag_116\n      jump\t// in\n    tag_146:\n        /* \"#utility.yul\":612:615   */\n      dup3\n        /* \"#utility.yul\":605:641   */\n      mstore\n        /* \"#utility.yul\":532:647   */\n      pop\n      pop\n      jump\t// out\n        /* \"#utility.yul\":653:871   */\n    tag_40:\n        /* \"#utility.yul\":744:748   */\n      0x00\n        /* \"#utility.yul\":782:784   */\n      0x20\n        /* \"#utility.yul\":771:780   */\n      dup3\n        /* \"#utility.yul\":767:785   */\n      add\n        /* \"#utility.yul\":759:785   */\n      swap1\n      pop\n        /* \"#utility.yul\":795:864   */\n      tag_148\n        /* \"#utility.yul\":861:862   */\n      0x00\n        /* \"#utility.yul\":850:859   */\n      dup4\n        /* \"#utility.yul\":846:863   */\n      add\n        /* \"#utility.yul\":837:843   */\n      dup5\n        /* \"#utility.yul\":795:864   */\n      tag_117\n      jump\t// in\n    tag_148:\n        /* \"#utility.yul\":653:871   */\n      swap3\n      swap2\n      pop\n      pop\n      jump\t// out\n        /* \"#utility.yul\":877:953   */\n    tag_118:\n        /* \"#utility.yul\":913:920   */\n      0x00\n        /* \"#utility.yul\":942:947   */\n      dup2\n        /* \"#utility.yul\":931:947   */\n      swap1\n      pop\n        /* \"#utility.yul\":877:953   */\n      swap2\n      swap1\n      pop\n      jump\t// out\n        /* \"#utility.yul\":959:1074   */\n    tag_119:\n        /* \"#utility.yul\":1044:1067   */\n      tag_151\n        /* \"#utility.yul\":1061:1066   */\n      dup2\n        /* \"#utility.yul\":1044:1067   */\n      tag_118\n      jump\t// in\n    tag_151:\n        /* \"#utility.yul\":1039:1042   */\n      dup3\n        /* \"#utility.yul\":1032:1068   */\n      mstore\n        /* \"#utility.yul\":959:1074   */\n      pop\n      pop\n      jump\t// out\n        /* \"#utility.yul\":1080:1298   */\n    tag_44:\n        /* \"#utility.yul\":1171:1175   */\n      0x00\n        /* \"#utility.yul\":1209:1211   */\n      0x20\n        /* \"#utility.yul\":1198:1207   */\n      dup3\n        /* \"#utility.yul\":1194:1212   */\n      add\n        /* \"#utility.yul\":1186:1212   */\n      swap1\n      pop\n        /* \"#utility.yul\":1222:1291   */\n      tag_153\n        /* \"#utility.yul\":1288:1289   */\n      0x00\n        /* \"#utility.yul\":1277:1286   */\n      dup4\n        /* \"#utility.yul\":1273:1290   */\n      add\n        /* \"#utility.yul\":1264:1270   */\n      dup5\n        /* \"#utility.yul\":1222:1291   */\n      tag_119\n      jump\t// in\n    tag_153:\n        /* \"#utility.yul\":1080:1298   */\n      swap3\n      swap2\n      pop\n      pop\n      jump\t// out\n        /* \"#utility.yul\":1304:1394   */\n    tag_120:\n        /* \"#utility.yul\":1339:1346   */\n      0x00\n        /* \"#utility.yul\":1382:1387   */\n      dup2\n        /* \"#utility.yul\":1379:1380   */\n      0x03\n        /* \"#utility.yul\":1368:1388   */\n      signextend\n        /* \"#utility.yul\":1357:1388   */\n      swap1\n      pop\n        /* \"#utility.yul\":1304:1394   */\n      swap2\n      swap1\n      pop\n      jump\t// out\n        /* \"#utility.yul\":1400:1512   */\n    tag_121:\n        /* \"#utility.yul\":1483:1505   */\n      tag_156\n        /* \"#utility.yul\":1499:1504   */\n      dup2\n        /* \"#utility.yul\":1483:1505   */\n      tag_120\n      jump\t// in\n    tag_156:\n        /* \"#utility.yul\":1478:1481   */\n      dup3\n        /* \"#utility.yul\":1471:1506   */\n      mstore\n        /* \"#utility.yul\":1400:1512   */\n      pop\n      pop\n      jump\t// out\n        /* \"#utility.yul\":1518:1732   */\n    tag_48:\n        /* \"#utility.yul\":1607:1611   */\n      0x00\n        /* \"#utility.yul\":1645:1647   */\n      0x20\n        /* \"#utility.yul\":1634:1643   */\n      dup3\n        /* \"#utility.yul\":1630:1648   */\n      add\n        /* \"#utility.yul\":1622:1648   */\n      swap1\n      pop\n        /* \"#utility.yul\":1658:1725   */\n      tag_158\n        /* \"#utility.yul\":1722:1723   */\n      0x00\n        /* \"#utility.yul\":1711:1720   */\n      dup4\n        /* \"#utility.yul\":1707:1724   */\n      add\n        /* \"#utility.yul\":1698:1704   */\n      dup5\n        /* \"#utility.yul\":1658:1725   */\n      tag_121\n      jump\t// in\n    tag_158:\n        /* \"#utility.yul\":1518:1732   */\n      swap3\n      swap2\n      pop\n      pop\n      jump\t// out\n        /* \"#utility.yul\":1738:1828   */\n    tag_122:\n        /* \"#utility.yul\":1773:1780   */\n      0x00\n        /* \"#utility.yul\":1816:1821   */\n      dup2\n        /* \"#utility.yul\":1813:1814   */\n      0x01\n        /* \"#utility.yul\":1802:1822   */\n      signextend\n        /* \"#utility.yul\":1791:1822   */\n      swap1\n      pop\n        /* \"#utility.yul\":1738:1828   */\n      swap2\n      swap1\n      pop\n      jump\t// out\n        /* \"#utility.yul\":1834:1946   */\n    tag_123:\n        /* \"#utility.yul\":1917:1939   */\n      tag_161\n        /* \"#utility.yul\":1933:1938   */\n      dup2\n        /* \"#utility.yul\":1917:1939   */\n      tag_122\n      jump\t// in\n    tag_161:\n        /* \"#utility.yul\":1912:1915   */\n      dup3\n        /* \"#utility.yul\":1905:1940   */\n      mstore\n        /* \"#utility.yul\":1834:1946   */\n      pop\n      pop\n      jump\t// out\n        /* \"#utility.yul\":1952:2166   */\n    tag_52:\n        /* \"#utility.yul\":2041:2045   */\n      0x00\n        /* \"#utility.yul\":2079:2081   */\n      0x20\n        /* \"#utility.yul\":2068:2077   */\n      dup3\n        /* \"#utility.yul\":2064:2082   */\n      add\n        /* \"#utility.yul\":2056:2082   */\n      swap1\n      pop\n        /* \"#utility.yul\":2092:2159   */\n      tag_163\n        /* \"#utility.yul\":2156:2157   */\n      0x00\n        /* \"#utility.yul\":2145:2154   */\n      dup4\n        /* \"#utility.yul\":2141:2158   */\n      add\n        /* \"#utility.yul\":2132:2138   */\n      dup5\n        /* \"#utility.yul\":2092:2159   */\n      tag_123\n      jump\t// in\n    tag_163:\n        /* \"#utility.yul\":1952:2166   */\n      swap3\n      swap2\n      pop\n      pop\n      jump\t// out\n        /* \"#utility.yul\":2172:2249   */\n    tag_124:\n        /* \"#utility.yul\":2209:2216   */\n      0x00\n        /* \"#utility.yul\":2238:2243   */\n      dup2\n        /* \"#utility.yul\":2227:2243   */\n      swap1\n      pop\n        /* \"#utility.yul\":2172:2249   */\n      swap2\n      swap1\n      pop\n      jump\t// out\n        /* \"#utility.yul\":2255:2373   */\n    tag_125:\n        /* \"#utility.yul\":2342:2366   */\n      tag_166\n        /* \"#utility.yul\":2360:2365   */\n      dup2\n        /* \"#utility.yul\":2342:2366   */\n      tag_124\n      jump\t// in\n    tag_166:\n        /* \"#utility.yul\":2337:2340   */\n      dup3\n        /* \"#utility.yul\":2330:2367   */\n      mstore\n        /* \"#utility.yul\":2255:2373   */\n      pop\n      pop\n      jump\t// out\n        /* \"#utility.yul\":2379:2601   */\n    tag_62:\n        /* \"#utility.yul\":2472:2476   */\n      0x00\n        /* \"#utility.yul\":2510:2512   */\n      0x20\n        /* \"#utility.yul\":2499:2508   */\n      dup3\n        /* \"#utility.yul\":2495:2513   */\n      add\n        /* \"#utility.yul\":2487:2513   */\n      swap1\n      pop\n        /* \"#utility.yul\":2523:2594   */\n      tag_168\n        /* \"#utility.yul\":2591:2592   */\n      0x00\n        /* \"#utility.yul\":2580:2589   */\n      dup4\n        /* \"#utility.yul\":2576:2593   */\n      add\n        /* \"#utility.yul\":2567:2573   */\n      dup5\n        /* \"#utility.yul\":2523:2594   */\n      tag_125\n      jump\t// in\n    tag_168:\n        /* \"#utility.yul\":2379:2601   */\n      swap3\n      swap2\n      pop\n      pop\n      jump\t// out\n        /* \"#utility.yul\":2607:2697   */\n    tag_126:\n        /* \"#utility.yul\":2642:2649   */\n      0x00\n        /* \"#utility.yul\":2685:2690   */\n      dup2\n        /* \"#utility.yul\":2682:2683   */\n      0x07\n        /* \"#utility.yul\":2671:2691   */\n      signextend\n        /* \"#utility.yul\":2660:2691   */\n      swap1\n      pop\n        /* \"#utility.yul\":2607:2697   */\n      swap2\n      swap1\n      pop\n      jump\t// out\n        /* \"#utility.yul\":2703:2815   */\n    tag_127:\n        /* \"#utility.yul\":2786:2808   */\n      tag_171\n        /* \"#utility.yul\":2802:2807   */\n      dup2\n        /* \"#utility.yul\":2786:2808   */\n      tag_126\n      jump\t// in\n    tag_171:\n        /* \"#utility.yul\":2781:2784   */\n      dup3\n        /* \"#utility.yul\":2774:2809   */\n      mstore\n        /* \"#utility.yul\":2703:2815   */\n      pop\n      pop\n      jump\t// out\n        /* \"#utility.yul\":2821:3035   */\n    tag_66:\n        /* \"#utility.yul\":2910:2914   */\n      0x00\n        /* \"#utility.yul\":2948:2950   */\n      0x20\n        /* \"#utility.yul\":2937:2946   */\n      dup3\n        /* \"#utility.yul\":2933:2951   */\n      add\n        /* \"#utility.yul\":2925:2951   */\n      swap1\n      pop\n        /* \"#utility.yul\":2961:3028   */\n      tag_173\n        /* \"#utility.yul\":3025:3026   */\n      0x00\n        /* \"#utility.yul\":3014:3023   */\n      dup4\n        /* \"#utility.yul\":3010:3027   */\n      add\n        /* \"#utility.yul\":3001:3007   */\n      dup5\n        /* \"#utility.yul\":2961:3028   */\n      tag_127\n      jump\t// in\n    tag_173:\n        /* \"#utility.yul\":2821:3035   */\n      swap3\n      swap2\n      pop\n      pop\n      jump\t// out\n        /* \"#utility.yul\":3041:3130   */\n    tag_128:\n        /* \"#utility.yul\":3075:3082   */\n      0x00\n        /* \"#utility.yul\":3118:3123   */\n      dup2\n        /* \"#utility.yul\":3115:3116   */\n      0x00\n        /* \"#utility.yul\":3104:3124   */\n      signextend\n        /* \"#utility.yul\":3093:3124   */\n      swap1\n      pop\n        /* \"#utility.yul\":3041:3130   */\n      swap2\n      swap1\n      pop\n      jump\t// out\n        /* \"#utility.yul\":3136:3245   */\n    tag_129:\n        /* \"#utility.yul\":3217:3238   */\n      tag_176\n        /* \"#utility.yul\":3232:3237   */\n      dup2\n        /* \"#utility.yul\":3217:3238   */\n      tag_128\n      jump\t// in\n    tag_176:\n        /* \"#utility.yul\":3212:3215   */\n      dup3\n        /* \"#utility.yul\":3205:3239   */\n      mstore\n        /* \"#utility.yul\":3136:3245   */\n      pop\n      pop\n      jump\t// out\n        /* \"#utility.yul\":3251:3461   */\n    tag_76:\n        /* \"#utility.yul\":3338:3342   */\n      0x00\n        /* \"#utility.yul\":3376:3378   */\n      0x20\n        /* \"#utility.yul\":3365:3374   */\n      dup3\n        /* \"#utility.yul\":3361:3379   */\n      add\n        /* \"#utility.yul\":3353:3379   */\n      swap1\n      pop\n        /* \"#utility.yul\":3389:3454   */\n      tag_178\n        /* \"#utility.yul\":3451:3452   */\n      0x00\n        /* \"#utility.yul\":3440:3449   */\n      dup4\n        /* \"#utility.yul\":3436:3453   */\n      add\n        /* \"#utility.yul\":3427:3433   */\n      dup5\n        /* \"#utility.yul\":3389:3454   */\n      tag_129\n      jump\t// in\n    tag_178:\n        /* \"#utility.yul\":3251:3461   */\n      swap3\n      swap2\n      pop\n      pop\n      jump\t// out\n        /* \"#utility.yul\":3467:3559   */\n    tag_130:\n        /* \"#utility.yul\":3503:3510   */\n      0x00\n        /* \"#utility.yul\":3547:3552   */\n      dup2\n        /* \"#utility.yul\":3543:3545   */\n      0x0f\n        /* \"#utility.yul\":3532:3553   */\n      signextend\n        /* \"#utility.yul\":3521:3553   */\n      swap1\n      pop\n        /* \"#utility.yul\":3467:3559   */\n      swap2\n      swap1\n      pop\n      jump\t// out\n        /* \"#utility.yul\":3565:3680   */\n    tag_131:\n        /* \"#utility.yul\":3650:3673   */\n      tag_181\n        /* \"#utility.yul\":3667:3672   */\n      dup2\n        /* \"#utility.yul\":3650:3673   */\n      tag_130\n      jump\t// in\n    tag_181:\n        /* \"#utility.yul\":3645:3648   */\n      dup3\n        /* \"#utility.yul\":3638:3674   */\n      mstore\n        /* \"#utility.yul\":3565:3680   */\n      pop\n      pop\n      jump\t// out\n        /* \"#utility.yul\":3686:3904   */\n    tag_80:\n        /* \"#utility.yul\":3777:3781   */\n      0x00\n        /* \"#utility.yul\":3815:3817   */\n      0x20\n        /* \"#utility.yul\":3804:3813   */\n      dup3\n        /* \"#utility.yul\":3800:3818   */\n      add\n        /* \"#utility.yul\":3792:3818   */\n      swap1\n      pop\n        /* \"#utility.yul\":3828:3897   */\n      tag_183\n        /* \"#utility.yul\":3894:3895   */\n      0x00\n        /* \"#utility.yul\":3883:3892   */\n      dup4\n        /* \"#utility.yul\":3879:3896   */\n      add\n        /* \"#utility.yul\":3870:3876   */\n      dup5\n        /* \"#utility.yul\":3828:3897   */\n      tag_131\n      jump\t// in\n    tag_183:\n        /* \"#utility.yul\":3686:3904   */\n      swap3\n      swap2\n      pop\n      pop\n      jump\t// out\n        /* \"#utility.yul\":3910:4028   */\n    tag_132:\n        /* \"#utility.yul\":3947:3954   */\n      0x00\n        /* \"#utility.yul\":3987:4021   */\n      0xffffffffffffffffffffffffffffffff\n        /* \"#utility.yul\":3980:3985   */\n      dup3\n        /* \"#utility.yul\":3976:4022   */\n      and\n        /* \"#utility.yul\":3965:4022   */\n      swap1\n      pop\n        /* \"#utility.yul\":3910:4028   */\n      swap2\n      swap1\n      pop\n      jump\t// out\n        /* \"#utility.yul\":4034:4152   */\n    tag_133:\n        /* \"#utility.yul\":4121:4145   */\n      tag_186\n        /* \"#utility.yul\":4139:4144   */\n      dup2\n        /* \"#utility.yul\":4121:4145   */\n      tag_132\n      jump\t// in\n    tag_186:\n        /* \"#utility.yul\":4116:4119   */\n      dup3\n        /* \"#utility.yul\":4109:4146   */\n      mstore\n        /* \"#utility.yul\":4034:4152   */\n      pop\n      pop\n      jump\t// out\n        /* \"#utility.yul\":4158:4380   */\n    tag_87:\n        /* \"#utility.yul\":4251:4255   */\n      0x00\n        /* \"#utility.yul\":4289:4291   */\n      0x20\n        /* \"#utility.yul\":4278:4287   */\n      dup3\n        /* \"#utility.yul\":4274:4292   */\n      add\n        /* \"#utility.yul\":4266:4292   */\n      swap1\n      pop\n        /* \"#utility.yul\":4302:4373   */\n      tag_188\n        /* \"#utility.yul\":4370:4371   */\n      0x00\n        /* \"#utility.yul\":4359:4368   */\n      dup4\n        /* \"#utility.yul\":4355:4372   */\n      add\n        /* \"#utility.yul\":4346:4352   */\n      dup5\n        /* \"#utility.yul\":4302:4373   */\n      tag_133\n      jump\t// in\n    tag_188:\n        /* \"#utility.yul\":4158:4380   */\n      swap3\n      swap2\n      pop\n      pop\n      jump\t// out\n        /* \"#utility.yul\":4386:4479   */\n    tag_134:\n        /* \"#utility.yul\":4422:4429   */\n      0x00\n        /* \"#utility.yul\":4462:4472   */\n      0xffffffff\n        /* \"#utility.yul\":4455:4460   */\n      dup3\n        /* \"#utility.yul\":4451:4473   */\n      and\n        /* \"#utility.yul\":4440:4473   */\n      swap1\n      pop\n        /* \"#utility.yul\":4386:4479   */\n      swap2\n      swap1\n      pop\n      jump\t// out\n        /* \"#utility.yul\":4485:4600   */\n    tag_135:\n        /* \"#utility.yul\":4570:4593   */\n      tag_191\n        /* \"#utility.yul\":4587:4592   */\n      dup2\n        /* \"#utility.yul\":4570:4593   */\n      tag_134\n      jump\t// in\n    tag_191:\n        /* \"#utility.yul\":4565:4568   */\n      dup3\n        /* \"#utility.yul\":4558:4594   */\n      mstore\n        /* \"#utility.yul\":4485:4600   */\n      pop\n      pop\n      jump\t// out\n        /* \"#utility.yul\":4606:4824   */\n    tag_91:\n        /* \"#utility.yul\":4697:4701   */\n      0x00\n        /* \"#utility.yul\":4735:4737   */\n      0x20\n        /* \"#utility.yul\":4724:4733   */\n      dup3\n        /* \"#utility.yul\":4720:4738   */\n      add\n        /* \"#utility.yul\":4712:4738   */\n      swap1\n      pop\n        /* \"#utility.yul\":4748:4817   */\n      tag_193\n        /* \"#utility.yul\":4814:4815   */\n      0x00\n        /* \"#utility.yul\":4803:4812   */\n      dup4\n        /* \"#utility.yul\":4799:4816   */\n      add\n        /* \"#utility.yul\":4790:4796   */\n      dup5\n        /* \"#utility.yul\":4748:4817   */\n      tag_135\n      jump\t// in\n    tag_193:\n        /* \"#utility.yul\":4606:4824   */\n      swap3\n      swap2\n      pop\n      pop\n      jump\t// out\n        /* \"#utility.yul\":4830:4931   */\n    tag_136:\n        /* \"#utility.yul\":4866:4873   */\n      0x00\n        /* \"#utility.yul\":4906:4924   */\n      0xffffffffffffffff\n        /* \"#utility.yul\":4899:4904   */\n      dup3\n        /* \"#utility.yul\":4895:4925   */\n      and\n        /* \"#utility.yul\":4884:4925   */\n      swap1\n      pop\n        /* \"#utility.yul\":4830:4931   */\n      swap2\n      swap1\n      pop\n      jump\t// out\n        /* \"#utility.yul\":4937:5052   */\n    tag_137:\n        /* \"#utility.yul\":5022:5045   */\n      tag_196\n        /* \"#utility.yul\":5039:5044   */\n      dup2\n        /* \"#utility.yul\":5022:5045   */\n      tag_136\n      jump\t// in\n    tag_196:\n        /* \"#utility.yul\":5017:5020   */\n      dup3\n        /* \"#utility.yul\":5010:5046   */\n      mstore\n        /* \"#utility.yul\":4937:5052   */\n      pop\n      pop\n      jump\t// out\n        /* \"#utility.yul\":5058:5276   */\n    tag_98:\n        /* \"#utility.yul\":5149:5153   */\n      0x00\n        /* \"#utility.yul\":5187:5189   */\n      0x20\n        /* \"#utility.yul\":5176:5185   */\n      dup3\n        /* \"#utility.yul\":5172:5190   */\n      add\n        /* \"#utility.yul\":5164:5190   */\n      swap1\n      pop\n        /* \"#utility.yul\":5200:5269   */\n      tag_198\n        /* \"#utility.yul\":5266:5267   */\n      0x00\n        /* \"#utility.yul\":5255:5264   */\n      dup4\n        /* \"#utility.yul\":5251:5268   */\n      add\n        /* \"#utility.yul\":5242:5248   */\n      dup5\n        /* \"#utility.yul\":5200:5269   */\n      tag_137\n      jump\t// in\n    tag_198:\n        /* \"#utility.yul\":5058:5276   */\n      swap3\n      swap2\n      pop\n      pop\n      jump\t// out\n\n    auxdata: 0xa26469706673582212202fc8d4e4fde8aeca6609eba5e81ef67b4b4504f0616cb59ed941f9a82587abf764736f6c63430008120033\n}\n",
				"bytecode": {
					"linkReferences": {},
					"object": "6080604052607f6000806101000a81548160ff021916908360000b60ff1602179055507fffffffffffffffffffffffffffffffffffffffffffffffffffffffffffffff80600060016101000a81548160ff021916908360000b60ff160217905550617fff600060026101000a81548161ffff021916908360010b61ffff1602179055507fffffffffffffffffffffffffffffffffffffffffffffffffffffffffffff8000600060046101000a81548161ffff021916908360010b61ffff160217905550637fffffff600060066101000a81548163ffffffff021916908360030b63ffffffff1602179055507fffffffffffffffffffffffffffffffffffffffffffffffffffffffff800000006000600a6101000a81548163ffffffff021916908360030b63ffffffff160217905550677fffffffffffffff6000600e6101000a81548167ffffffffffffffff021916908360070b67ffffffffffffffff1602179055507fffffffffffffffffffffffffffffffffffffffffffffffff8000000000000000600060166101000a81548167ffffffffffffffff021916908360070b67ffffffffffffffff1602179055506f7fffffffffffffffffffffffffffffff600160006101000a8154816fffffffffffffffffffffffffffffffff0219169083600f0b6fffffffffffffffffffffffffffffffff1602179055507fffffffffffffffffffffffffffffffff80000000000000000000000000000000600160106101000a8154816fffffffffffffffffffffffffffffffff0219169083600f0b6fffffffffffffffffffffffffffffffff1602179055507f7fffffffffffffffffffffffffffffffffffffffffffffffffffffffffffffff6002557f800000000000000000000000000000000000000000000000000000000000000060035560ff600460006101000a81548160ff021916908360ff1602179055506000600460016101000a81548160ff021916908360ff16021790555061ffff600460026101000a81548161ffff021916908361ffff16021790555060006004806101000a81548161ffff021916908361ffff16021790555063ffffffff600460066101000a81548163ffffffff021916908363ffffffff16021790555060006004600a6101000a81548163ffffffff021916908363ffffffff16021790555067ffffffffffffffff6004600e6101000a81548167ffffffffffffffff021916908367ffffffffffffffff1602179055506000600460166101000a81548167ffffffffffffffff021916908367ffffffffffffffff1602179055506fffffffffffffffffffffffffffffffff600560006101000a8154816fffffffffffffffffffffffffffffffff02191690836fffffffffffffffffffffffffffffffff1602179055506000600560106101000a8154816fffffffffffffffffffffffffffffffff02191690836fffffffffffffffffffffffffffffffff1602179055507fffffffffffffffffffffffffffffffffffffffffffffffffffffffffffffffff600655600060075534801561046c57600080fd5b506108cf8061047c6000396000f3fe608060405234801561001057600080fd5b50600436106101585760003560e01c80638b89fe12116100c3578063b9375a7e1161007c578063b9375a7e14610379578063e1e8f19614610397578063e82bb7fe146103b5578063eb8db1f0146103d3578063ee5eb961146103f1578063f9ae49bc1461040f57610158565b80638b89fe12146102c55780638ce273c7146102e35780638f3d752e14610301578063936777621461031f578063b16411221461033d578063b3ed07491461035b57610158565b806356461fab1161011557806356461fab146102115780635bba5d751461022f578063615889a01461024d5780636a58ca871461026b57806376b1379a14610289578063843ed70d146102a757610158565b8063109943361461015d57806328aef3591461017b57806335afba3b1461019957806338d75cd3146101b75780633fdda9b7146101d5578063460526fb146101f3575b600080fd5b61016561042d565b604051610172919061060d565b60405180910390f35b610183610440565b604051610190919061060d565b60405180910390f35b6101a1610453565b6040516101ae9190610645565b60405180910390f35b6101bf610467565b6040516101cc9190610679565b60405180910390f35b6101dd61046d565b6040516101ea91906106b0565b60405180910390f35b6101fb610480565b60405161020891906106e7565b60405180910390f35b610219610493565b6040516102269190610679565b60405180910390f35b610237610499565b60405161024491906106e7565b60405180910390f35b6102556104ac565b604051610262919061071b565b60405180910390f35b6102736104b2565b6040516102809190610752565b60405180910390f35b6102916104c5565b60405161029e919061071b565b60405180910390f35b6102af6104cb565b6040516102bc91906106b0565b60405180910390f35b6102cd6104de565b6040516102da9190610789565b60405180910390f35b6102eb6104ef565b6040516102f891906107c0565b60405180910390f35b610309610502565b6040516103169190610645565b60405180910390f35b610327610514565b6040516103349190610806565b60405180910390f35b610345610536565b6040516103529190610840565b60405180910390f35b61036361054c565b6040516103709190610806565b60405180910390f35b61038161056e565b60405161038e919061087e565b60405180910390f35b61039f610588565b6040516103ac9190610789565b60405180910390f35b6103bd61059b565b6040516103ca9190610840565b60405180910390f35b6103db6105b1565b6040516103e89190610752565b60405180910390f35b6103f96105c4565b60405161040691906107c0565b60405180910390f35b6104176105d7565b604051610424919061087e565b60405180910390f35b600460019054906101000a900460ff1681565b600460009054906101000a900460ff1681565b600460029054906101000a900461ffff1681565b60035481565b600060069054906101000a900460030b81565b600060029054906101000a900460010b81565b60025481565b600060049054906101000a900460010b81565b60075481565b6000600e9054906101000a900460070b81565b60065481565b6000600a9054906101000a900460030b81565b60008054906101000a900460000b81565b600160009054906101000a9004600f0b81565b60048054906101000a900461ffff1681565b600560109054906101000a90046fffffffffffffffffffffffffffffffff1681565b600460069054906101000a900463ffffffff1681565b600560009054906101000a90046fffffffffffffffffffffffffffffffff1681565b600460169054906101000a900467ffffffffffffffff1681565b600060019054906101000a900460000b81565b6004600a9054906101000a900463ffffffff1681565b600060169054906101000a900460070b81565b600160109054906101000a9004600f0b81565b6004600e9054906101000a900467ffffffffffffffff1681565b600060ff82169050919050565b610607816105f1565b82525050565b600060208201905061062260008301846105fe565b92915050565b600061ffff82169050919050565b61063f81610628565b82525050565b600060208201905061065a6000830184610636565b92915050565b6000819050919050565b61067381610660565b82525050565b600060208201905061068e600083018461066a565b92915050565b60008160030b9050919050565b6106aa81610694565b82525050565b60006020820190506106c560008301846106a1565b92915050565b60008160010b9050919050565b6106e1816106cb565b82525050565b60006020820190506106fc60008301846106d8565b92915050565b6000819050919050565b61071581610702565b82525050565b6000602082019050610730600083018461070c565b92915050565b60008160070b9050919050565b61074c81610736565b82525050565b60006020820190506107676000830184610743565b92915050565b60008160000b9050919050565b6107838161076d565b82525050565b600060208201905061079e600083018461077a565b92915050565b600081600f0b9050919050565b6107ba816107a4565b82525050565b60006020820190506107d560008301846107b1565b92915050565b60006fffffffffffffffffffffffffffffffff82169050919050565b610800816107db565b82525050565b600060208201905061081b60008301846107f7565b92915050565b600063ffffffff82169050919050565b61083a81610821565b82525050565b60006020820190506108556000830184610831565b92915050565b600067ffffffffffffffff82169050919050565b6108788161085b565b82525050565b6000602082019050610893600083018461086f565b9291505056fea26469706673582212202fc8d4e4fde8aeca6609eba5e81ef67b4b4504f0616cb59ed941f9a82587abf764736f6c63430008120033",
					"opcodes": "PUSH1 0x80 PUSH1 0x40 MSTORE PUSH1 0x7F PUSH1 0x0 DUP1 PUSH2 0x100 EXP DUP2 SLOAD DUP2 PUSH1 0xFF MUL NOT AND SWAP1 DUP4 PUSH1 0x0 SIGNEXTEND PUSH1 0xFF AND MUL OR SWAP1 SSTORE POP PUSH32 0xFFFFFFFFFFFFFFFFFFFFFFFFFFFFFFFFFFFFFFFFFFFFFFFFFFFFFFFFFFFFFF80 PUSH1 0x0 PUSH1 0x1 PUSH2 0x100 EXP DUP2 SLOAD DUP2 PUSH1 0xFF MUL NOT AND SWAP1 DUP4 PUSH1 0x0 SIGNEXTEND PUSH1 0xFF AND MUL OR SWAP1 SSTORE POP PUSH2 0x7FFF PUSH1 0x0 PUSH1 0x2 PUSH2 0x100 EXP DUP2 SLOAD DUP2 PUSH2 0xFFFF MUL NOT AND SWAP1 DUP4 PUSH1 0x1 SIGNEXTEND PUSH2 0xFFFF AND MUL OR SWAP1 SSTORE POP PUSH32 0xFFFFFFFFFFFFFFFFFFFFFFFFFFFFFFFFFFFFFFFFFFFFFFFFFFFFFFFFFFFF8000 PUSH1 0x0 PUSH1 0x4 PUSH2 0x100 EXP DUP2 SLOAD DUP2 PUSH2 0xFFFF MUL NOT AND SWAP1 DUP4 PUSH1 0x1 SIGNEXTEND PUSH2 0xFFFF AND MUL OR SWAP1 SSTORE POP PUSH4 0x7FFFFFFF PUSH1 0x0 PUSH1 0x6 PUSH2 0x100 EXP DUP2 SLOAD DUP2 PUSH4 0xFFFFFFFF MUL NOT AND SWAP1 DUP4 PUSH1 0x3 SIGNEXTEND PUSH4 0xFFFFFFFF AND MUL OR SWAP1 SSTORE POP PUSH32 0xFFFFFFFFFFFFFFFFFFFFFFFFFFFFFFFFFFFFFFFFFFFFFFFFFFFFFFFF80000000 PUSH1 0x0 PUSH1 0xA PUSH2 0x100 EXP DUP2 SLOAD DUP2 PUSH4 0xFFFFFFFF MUL NOT AND SWAP1 DUP4 PUSH1 0x3 SIGNEXTEND PUSH4 0xFFFFFFFF AND MUL OR SWAP1 SSTORE POP PUSH8 0x7FFFFFFFFFFFFFFF PUSH1 0x0 PUSH1 0xE PUSH2 0x100 EXP DUP2 SLOAD DUP2 PUSH8 0xFFFFFFFFFFFFFFFF MUL NOT AND SWAP1 DUP4 PUSH1 0x7 SIGNEXTEND PUSH8 0xFFFFFFFFFFFFFFFF AND MUL OR SWAP1 SSTORE POP PUSH32 0xFFFFFFFFFFFFFFFFFFFFFFFFFFFFFFFFFFFFFFFFFFFFFFFF8000000000000000 PUSH1 0x0 PUSH1 0x16 PUSH2 0x100 EXP DUP2 SLOAD DUP2 PUSH8 0xFFFFFFFFFFFFFFFF MUL NOT AND SWAP1 DUP4 PUSH1 0x7 SIGNEXTEND PUSH8 0xFFFFFFFFFFFFFFFF AND MUL OR SWAP1 SSTORE POP PUSH16 0x7FFFFFFFFFFFFFFFFFFFFFFFFFFFFFFF PUSH1 0x1 PUSH1 0x0 PUSH2 0x100 EXP DUP2 SLOAD DUP2 PUSH16 0xFFFFFFFFFFFFFFFFFFFFFFFFFFFFFFFF MUL NOT AND SWAP1 DUP4 PUSH1 0xF SIGNEXTEND PUSH16 0xFFFFFFFFFFFFFFFFFFFFFFFFFFFFFFFF AND MUL OR SWAP1 SSTORE POP PUSH32 0xFFFFFFFFFFFFFFFFFFFFFFFFFFFFFFFF80000000000000000000000000000000 PUSH1 0x1 PUSH1 0x10 PUSH2 0x100 EXP DUP2 SLOAD DUP2 PUSH16 0xFFFFFFFFFFFFFFFFFFFFFFFFFFFFFFFF MUL NOT AND SWAP1 DUP4 PUSH1 0xF SIGNEXTEND PUSH16 0xFFFFFFFFFFFFFFFFFFFFFFFFFFFFFFFF AND MUL OR SWAP1 SSTORE POP PUSH32 0x7FFFFFFFFFFFFFFFFFFFFFFFFFFFFFFFFFFFFFFFFFFFFFFFFFFFFFFFFFFFFFFF PUSH1 0x2 SSTORE PUSH32 0x8000000000000000000000000000000000000000000000000000000000000000 PUSH1 0x3 SSTORE PUSH1 0xFF PUSH1 0x4 PUSH1 0x0 PUSH2 0x100 EXP DUP2 SLOAD DUP2 PUSH1 0xFF MUL NOT AND SWAP1 DUP4 PUSH1 0xFF AND MUL OR SWAP1 SSTORE POP PUSH1 0x0 PUSH1 0x4 PUSH1 0x1 PUSH2 0x100 EXP DUP2 SLOAD DUP2 PUSH1 0xFF MUL NOT AND SWAP1 DUP4 PUSH1 0xFF AND MUL OR SWAP1 SSTORE POP PUSH2 0xFFFF PUSH1 0x4 PUSH1 0x2 PUSH2 0x100 EXP DUP2 SLOAD DUP2 PUSH2 0xFFFF MUL NOT AND SWAP1 DUP4 PUSH2 0xFFFF AND MUL OR SWAP1 SSTORE POP PUSH1 0x0 PUSH1 0x4 DUP1 PUSH2 0x100 EXP DUP2 SLOAD DUP2 PUSH2 0xFFFF MUL NOT AND SWAP1 DUP4 PUSH2 0xFFFF AND MUL OR SWAP1 SSTORE POP PUSH4 0xFFFFFFFF PUSH1 0x4 PUSH1 0x6 PUSH2 0x100 EXP DUP2 SLOAD DUP2 PUSH4 0xFFFFFFFF MUL NOT AND SWAP1 DUP4 PUSH4 0xFFFFFFFF AND MUL OR SWAP1 SSTORE POP PUSH1 0x0 PUSH1 0x4 PUSH1 0xA PUSH2 0x100 EXP DUP2 SLOAD DUP2 PUSH4 0xFFFFFFFF MUL NOT AND SWAP1 DUP4 PUSH4 0xFFFFFFFF AND MUL OR SWAP1 SSTORE POP PUSH8 0xFFFFFFFFFFFFFFFF PUSH1 0x4 PUSH1 0xE PUSH2 0x100 EXP DUP2 SLOAD DUP2 PUSH8 0xFFFFFFFFFFFFFFFF MUL NOT AND SWAP1 DUP4 PUSH8 0xFFFFFFFFFFFFFFFF AND MUL OR SWAP1 SSTORE POP PUSH1 0x0 PUSH1 0x4 PUSH1 0x16 PUSH2 0x100 EXP DUP2 SLOAD DUP2 PUSH8 0xFFFFFFFFFFFFFFFF MUL NOT AND SWAP1 DUP4 PUSH8 0xFFFFFFFFFFFFFFFF AND MUL OR SWAP1 SSTORE POP PUSH16 0xFFFFFFFFFFFFFFFFFFFFFFFFFFFFFFFF PUSH1 0x5 PUSH1 0x0 PUSH2 0x100 EXP DUP2 SLOAD DUP2 PUSH16 0xFFFFFFFFFFFFFFFFFFFFFFFFFFFFFFFF MUL NOT AND SWAP1 DUP4 PUSH16 0xFFFFFFFFFFFFFFFFFFFFFFFFFFFFFFFF AND MUL OR SWAP1 SSTORE POP PUSH1 0x0 PUSH1 0x5 PUSH1 0x10 PUSH2 0x100 EXP DUP2 SLOAD DUP2 PUSH16 0xFFFFFFFFFFFFFFFFFFFFFFFFFFFFFFFF MUL NOT AND SWAP1 DUP4 PUSH16 0xFFFFFFFFFFFFFFFFFFFFFFFFFFFFFFFF AND MUL OR SWAP1 SSTORE POP PUSH32 0xFFFFFFFFFFFFFFFFFFFFFFFFFFFFFFFFFFFFFFFFFFFFFFFFFFFFFFFFFFFFFFFF PUSH1 0x6 SSTORE PUSH1 0x0 PUSH1 0x7 SSTORE CALLVALUE DUP1 ISZERO PUSH2 0x46C JUMPI PUSH1 0x0 DUP1 REVERT JUMPDEST POP PUSH2 0x8CF DUP1 PUSH2 0x47C PUSH1 0x0 CODECOPY PUSH1 0x0 RETURN INVALID PUSH1 0x80 PUSH1 0x40 MSTORE CALLVALUE DUP1 ISZERO PUSH2 0x10 JUMPI PUSH1 0x0 DUP1 REVERT JUMPDEST POP PUSH1 0x4 CALLDATASIZE LT PUSH2 0x158 JUMPI PUSH1 0x0 CALLDATALOAD PUSH1 0xE0 SHR DUP1 PUSH4 0x8B89FE12 GT PUSH2 0xC3 JUMPI DUP1 PUSH4 0xB9375A7E GT PUSH2 0x7C JUMPI DUP1 PUSH4 0xB9375A7E EQ PUSH2 0x379 JUMPI DUP1 PUSH4 0xE1E8F196 EQ PUSH2 0x397 JUMPI DUP1 PUSH4 0xE82BB7FE EQ PUSH2 0x3B5 JUMPI DUP1 PUSH4 0xEB8DB1F0 EQ PUSH2 0x3D3 JUMPI DUP1 PUSH4 0xEE5EB961 EQ PUSH2 0x3F1 JUMPI DUP1 PUSH4 0xF9AE49BC EQ PUSH2 0x40F JUMPI PUSH2 0x158 JUMP JUMPDEST DUP1 PUSH4 0x8B89FE12 EQ PUSH2 0x2C5 JUMPI DUP1 PUSH4 0x8CE273C7 EQ PUSH2 0x2E3 JUMPI DUP1 PUSH4 0x8F3D752E EQ PUSH2 0x301 JUMPI DUP1 PUSH4 0x93677762 EQ PUSH2 0x31F JUMPI DUP1 PUSH4 0xB1641122 EQ PUSH2 0x33D JUMPI DUP1 PUSH4 0xB3ED0749 EQ PUSH2 0x35B JUMPI PUSH2 0x158 JUMP JUMPDEST DUP1 PUSH4 0x56461FAB GT PUSH2 0x115 JUMPI DUP1 PUSH4 0x56461FAB EQ PUSH2 0x211 JUMPI DUP1 PUSH4 0x5BBA5D75 EQ PUSH2 0x22F JUMPI DUP1 PUSH4 0x615889A0 EQ PUSH2 0x24D JUMPI DUP1 PUSH4 0x6A58CA87 EQ PUSH2 0x26B JUMPI DUP1 PUSH4 0x76B1379A EQ PUSH2 0x289 JUMPI DUP1 PUSH4 0x843ED70D EQ PUSH2 0x2A7 JUMPI PUSH2 0x158 JUMP JUMPDEST DUP1 PUSH4 0x10994336 EQ PUSH2 0x15D JUMPI DUP1 PUSH4 0x28AEF359 EQ PUSH2 0x17B JUMPI DUP1 PUSH4 0x35AFBA3B EQ PUSH2 0x199 JUMPI DUP1 PUSH4 0x38D75CD3 EQ PUSH2 0x1B7 JUMPI DUP1 PUSH4 0x3FDDA9B7 EQ PUSH2 0x1D5 JUMPI DUP1 PUSH4 0x460526FB EQ PUSH2 0x1F3 JUMPI JUMPDEST PUSH1 0x0 DUP1 REVERT JUMPDEST PUSH2 0x165 PUSH2 0x42D JUMP JUMPDEST PUSH1 0x40 MLOAD PUSH2 0x172 SWAP2 SWAP1 PUSH2 0x60D JUMP JUMPDEST PUSH1 0x40 MLOAD DUP1 SWAP2 SUB SWAP1 RETURN JUMPDEST PUSH2 0x183 PUSH2 0x440 JUMP JUMPDEST PUSH1 0x40 MLOAD PUSH2 0x190 SWAP2 SWAP1 PUSH2 0x60D JUMP JUMPDEST PUSH1 0x40 MLOAD DUP1 SWAP2 SUB SWAP1 RETURN JUMPDEST PUSH2 0x1A1 PUSH2 0x453 JUMP JUMPDEST PUSH1 0x40 MLOAD PUSH2 0x1AE SWAP2 SWAP1 PUSH2 0x645 JUMP JUMPDEST PUSH1 0x40 MLOAD DUP1 SWAP2 SUB SWAP1 RETURN JUMPDEST PUSH2 0x1BF PUSH2 0x467 JUMP JUMPDEST PUSH1 0x40 MLOAD PUSH2 0x1CC SWAP2 SWAP1 PUSH2 0x679 JUMP JUMPDEST PUSH1 0x40 MLOAD DUP1 SWAP2 SUB SWAP1 RETURN JUMPDEST PUSH2 0x1DD PUSH2 0x46D JUMP JUMPDEST PUSH1 0x40 MLOAD PUSH2 0x1EA SWAP2 SWAP1 PUSH2 0x6B0 JUMP JUMPDEST PUSH1 0x40 MLOAD DUP1 SWAP2 SUB SWAP1 RETURN JUMPDEST PUSH2 0x1FB PUSH2 0x480 JUMP JUMPDEST PUSH1 0x40 MLOAD PUSH2 0x208 SWAP2 SWAP1 PUSH2 0x6E7 JUMP JUMPDEST PUSH1 0x40 MLOAD DUP1 SWAP2 SUB SWAP1 RETURN JUMPDEST PUSH2 0x219 PUSH2 0x493 JUMP JUMPDEST PUSH1 0x40 MLOAD PUSH2 0x226 SWAP2 SWAP1 PUSH2 0x679 JUMP JUMPDEST PUSH1 0x40 MLOAD DUP1 SWAP2 SUB SWAP1 RETURN JUMPDEST PUSH2 0x237 PUSH2 0x499 JUMP JUMPDEST PUSH1 0x40 MLOAD PUSH2 0x244 SWAP2 SWAP1 PUSH2 0x6E7 JUMP JUMPDEST PUSH1 0x40 MLOAD DUP1 SWAP2 SUB SWAP1 RETURN JUMPDEST PUSH2 0x255 PUSH2 0x4AC JUMP JUMPDEST PUSH1 0x40 MLOAD PUSH2 0x262 SWAP2 SWAP1 PUSH2 0x71B JUMP JUMPDEST PUSH1 0x40 MLOAD DUP1 SWAP2 SUB SWAP1 RETURN JUMPDEST PUSH2 0x273 PUSH2 0x4B2 JUMP JUMPDEST PUSH1 0x40 MLOAD PUSH2 0x280 SWAP2 SWAP1 PUSH2 0x752 JUMP JUMPDEST PUSH1 0x40 MLOAD DUP1 SWAP2 SUB SWAP1 RETURN JUMPDEST PUSH2 0x291 PUSH2 0x4C5 JUMP JUMPDEST PUSH1 0x40 MLOAD PUSH2 0x29E SWAP2 SWAP1 PUSH2 0x71B JUMP JUMPDEST PUSH1 0x40 MLOAD DUP1 SWAP2 SUB SWAP1 RETURN JUMPDEST PUSH2 0x2AF PUSH2 0x4CB JUMP JUMPDEST PUSH1 0x40 MLOAD PUSH2 0x2BC SWAP2 SWAP1 PUSH2 0x6B0 JUMP JUMPDEST PUSH1 0x40 MLOAD DUP1 SWAP2 SUB SWAP1 RETURN JUMPDEST PUSH2 0x2CD PUSH2 0x4DE JUMP JUMPDEST PUSH1 0x40 MLOAD PUSH2 0x2DA SWAP2 SWAP1 PUSH2 0x789 JUMP JUMPDEST PUSH1 0x40 MLOAD DUP1 SWAP2 SUB SWAP1 RETURN JUMPDEST PUSH2 0x2EB PUSH2 0x4EF JUMP JUMPDEST PUSH1 0x40 MLOAD PUSH2 0x2F8 SWAP2 SWAP1 PUSH2 0x7C0 JUMP JUMPDEST PUSH1 0x40 MLOAD DUP1 SWAP2 SUB SWAP1 RETURN JUMPDEST PUSH2 0x309 PUSH2 0x502 JUMP JUMPDEST PUSH1 0x40 MLOAD PUSH2 0x316 SWAP2 SWAP1 PUSH2 0x645 JUMP JUMPDEST PUSH1 0x40 MLOAD DUP1 SWAP2 SUB SWAP1 RETURN JUMPDEST PUSH2 0x327 PUSH2 0x514 JUMP JUMPDEST PUSH1 0x40 MLOAD PUSH2 0x334 SWAP2 SWAP1 PUSH2 0x806 JUMP JUMPDEST PUSH1 0x40 MLOAD DUP1 SWAP2 SUB SWAP1 RETURN JUMPDEST PUSH2 0x345 PUSH2 0x536 JUMP JUMPDEST PUSH1 0x40 MLOAD PUSH2 0x352 SWAP2 SWAP1 PUSH2 0x840 JUMP JUMPDEST PUSH1 0x40 MLOAD DUP1 SWAP2 SUB SWAP1 RETURN JUMPDEST PUSH2 0x363 PUSH2 0x54C JUMP JUMPDEST PUSH1 0x40 MLOAD PUSH2 0x370 SWAP2 SWAP1 PUSH2 0x806 JUMP JUMPDEST PUSH1 0x40 MLOAD DUP1 SWAP2 SUB SWAP1 RETURN JUMPDEST PUSH2 0x381 PUSH2 0x56E JUMP JUMPDEST PUSH1 0x40 MLOAD PUSH2 0x38E SWAP2 SWAP1 PUSH2 0x87E JUMP JUMPDEST PUSH1 0x40 MLOAD DUP1 SWAP2 SUB SWAP1 RETURN JUMPDEST PUSH2 0x39F PUSH2 0x588 JUMP JUMPDEST PUSH1 0x40 MLOAD PUSH2 0x3AC SWAP2 SWAP1 PUSH2 0x789 JUMP JUMPDEST PUSH1 0x40 MLOAD DUP1 SWAP2 SUB SWAP1 RETURN JUMPDEST PUSH2 0x3BD PUSH2 0x59B JUMP JUMPDEST PUSH1 0x40 MLOAD PUSH2 0x3CA SWAP2 SWAP1 PUSH2 0x840 JUMP JUMPDEST PUSH1 0x40 MLOAD DUP1 SWAP2 SUB SWAP1 RETURN JUMPDEST PUSH2 0x3DB PUSH2 0x5B1 JUMP JUMPDEST PUSH1 0x40 MLOAD PUSH2 0x3E8 SWAP2 SWAP1 PUSH2 0x752 JUMP JUMPDEST PUSH1 0x40 MLOAD DUP1 SWAP2 SUB SWAP1 RETURN JUMPDEST PUSH2 0x3F9 PUSH2 0x5C4 JUMP JUMPDEST PUSH1 0x40 MLOAD PUSH2 0x406 SWAP2 SWAP1 PUSH2 0x7C0 JUMP JUMPDEST PUSH1 0x40 MLOAD DUP1 SWAP2 SUB SWAP1 RETURN JUMPDEST PUSH2 0x417 PUSH2 0x5D7 JUMP JUMPDEST PUSH1 0x40 MLOAD PUSH2 0x424 SWAP2 SWAP1 PUSH2 0x87E JUMP JUMPDEST PUSH1 0x40 MLOAD DUP1 SWAP2 SUB SWAP1 RETURN JUMPDEST PUSH1 0x4 PUSH1 0x1 SWAP1 SLOAD SWAP1 PUSH2 0x100 EXP SWAP1 DIV PUSH1 0xFF AND DUP2 JUMP JUMPDEST PUSH1 0x4 PUSH1 0x0 SWAP1 SLOAD SWAP1 PUSH2 0x100 EXP SWAP1 DIV PUSH1 0xFF AND DUP2 JUMP JUMPDEST PUSH1 0x4 PUSH1 0x2 SWAP1 SLOAD SWAP1 PUSH2 0x100 EXP SWAP1 DIV PUSH2 0xFFFF AND DUP2 JUMP JUMPDEST PUSH1 0x3 SLOAD DUP2 JUMP JUMPDEST PUSH1 0x0 PUSH1 0x6 SWAP1 SLOAD SWAP1 PUSH2 0x100 EXP SWAP1 DIV PUSH1 0x3 SIGNEXTEND DUP2 JUMP JUMPDEST PUSH1 0x0 PUSH1 0x2 SWAP1 SLOAD SWAP1 PUSH2 0x100 EXP SWAP1 DIV PUSH1 0x1 SIGNEXTEND DUP2 JUMP JUMPDEST PUSH1 0x2 SLOAD DUP2 JUMP JUMPDEST PUSH1 0x0 PUSH1 0x4 SWAP1 SLOAD SWAP1 PUSH2 0x100 EXP SWAP1 DIV PUSH1 0x1 SIGNEXTEND DUP2 JUMP JUMPDEST PUSH1 0x7 SLOAD DUP2 JUMP JUMPDEST PUSH1 0x0 PUSH1 0xE SWAP1 SLOAD SWAP1 PUSH2 0x100 EXP SWAP1 DIV PUSH1 0x7 SIGNEXTEND DUP2 JUMP JUMPDEST PUSH1 0x6 SLOAD DUP2 JUMP JUMPDEST PUSH1 0x0 PUSH1 0xA SWAP1 SLOAD SWAP1 PUSH2 0x100 EXP SWAP1 DIV PUSH1 0x3 SIGNEXTEND DUP2 JUMP JUMPDEST PUSH1 0x0 DUP1 SLOAD SWAP1 PUSH2 0x100 EXP SWAP1 DIV PUSH1 0x0 SIGNEXTEND DUP2 JUMP JUMPDEST PUSH1 0x1 PUSH1 0x0 SWAP1 SLOAD SWAP1 PUSH2 0x100 EXP SWAP1 DIV PUSH1 0xF SIGNEXTEND DUP2 JUMP JUMPDEST PUSH1 0x4 DUP1 SLOAD SWAP1 PUSH2 0x100 EXP SWAP1 DIV PUSH2 0xFFFF AND DUP2 JUMP JUMPDEST PUSH1 0x5 PUSH1 0x10 SWAP1 SLOAD SWAP1 PUSH2 0x100 EXP SWAP1 DIV PUSH16 0xFFFFFFFFFFFFFFFFFFFFFFFFFFFFFFFF AND DUP2 JUMP JUMPDEST PUSH1 0x4 PUSH1 0x6 SWAP1 SLOAD SWAP1 PUSH2 0x100 EXP SWAP1 DIV PUSH4 0xFFFFFFFF AND DUP2 JUMP JUMPDEST PUSH1 0x5 PUSH1 0x0 SWAP1 SLOAD SWAP1 PUSH2 0x100 EXP SWAP1 DIV PUSH16 0xFFFFFFFFFFFFFFFFFFFFFFFFFFFFFFFF AND DUP2 JUMP JUMPDEST PUSH1 0x4 PUSH1 0x16 SWAP1 SLOAD SWAP1 PUSH2 0x100 EXP SWAP1 DIV PUSH8 0xFFFFFFFFFFFFFFFF AND DUP2 JUMP JUMPDEST PUSH1 0x0 PUSH1 0x1 SWAP1 SLOAD SWAP1 PUSH2 0x100 EXP SWAP1 DIV PUSH1 0x0 SIGNEXTEND DUP2 JUMP JUMPDEST PUSH1 0x4 PUSH1 0xA SWAP1 SLOAD SWAP1 PUSH2 0x100 EXP SWAP1 DIV PUSH4 0xFFFFFFFF AND DUP2 JUMP JUMPDEST PUSH1 0x0 PUSH1 0x16 SWAP1 SLOAD SWAP1 PUSH2 0x100 EXP SWAP1 DIV PUSH1 0x7 SIGNEXTEND DUP2 JUMP JUMPDEST PUSH1 0x1 PUSH1 0x10 SWAP1 SLOAD SWAP1 PUSH2 0x100 EXP SWAP1 DIV PUSH1 0xF SIGNEXTEND DUP2 JUMP JUMPDEST PUSH1 0x4 PUSH1 0xE SWAP1 SLOAD SWAP1 PUSH2 0x100 EXP SWAP1 DIV PUSH8 0xFFFFFFFFFFFFFFFF AND DUP2 JUMP JUMPDEST PUSH1 0x0 PUSH1 0xFF DUP3 AND SWAP1 POP SWAP2 SWAP1 POP JUMP JUMPDEST PUSH2 0x607 DUP2 PUSH2 0x5F1 JUMP JUMPDEST DUP3 MSTORE POP POP JUMP JUMPDEST PUSH1 0x0 PUSH1 0x20 DUP3 ADD SWAP1 POP PUSH2 0x622 PUSH1 0x0 DUP4 ADD DUP5 PUSH2 0x5FE JUMP JUMPDEST SWAP3 SWAP2 POP POP JUMP JUMPDEST PUSH1 0x0 PUSH2 0xFFFF DUP3 AND SWAP1 POP SWAP2 SWAP1 POP JUMP JUMPDEST PUSH2 0x63F DUP2 PUSH2 0x628 JUMP JUMPDEST DUP3 MSTORE POP POP JUMP JUMPDEST PUSH1 0x0 PUSH1 0x20 DUP3 ADD SWAP1 POP PUSH2 0x65A PUSH1 0x0 DUP4 ADD DUP5 PUSH2 0x636 JUMP JUMPDEST SWAP3 SWAP2 POP POP JUMP JUMPDEST PUSH1 0x0 DUP2 SWAP1 POP SWAP2 SWAP1 POP JUMP JUMPDEST PUSH2 0x673 DUP2 PUSH2 0x660 JUMP JUMPDEST DUP3 MSTORE POP POP JUMP JUMPDEST PUSH1 0x0 PUSH1 0x20 DUP3 ADD SWAP1 POP PUSH2 0x68E PUSH1 0x0 DUP4 ADD DUP5 PUSH2 0x66A JUMP JUMPDEST SWAP3 SWAP2 POP POP JUMP JUMPDEST PUSH1 0x0 DUP2 PUSH1 0x3 SIGNEXTEND SWAP1 POP SWAP2 SWAP1 POP JUMP JUMPDEST PUSH2 0x6AA DUP2 PUSH2 0x694 JUMP JUMPDEST DUP3 MSTORE POP POP JUMP JUMPDEST PUSH1 0x0 PUSH1 0x20 DUP3 ADD SWAP1 POP PUSH2 0x6C5 PUSH1 0x0 DUP4 ADD DUP5 PUSH2 0x6A1 JUMP JUMPDEST SWAP3 SWAP2 POP POP JUMP JUMPDEST PUSH1 0x0 DUP2 PUSH1 0x1 SIGNEXTEND SWAP1 POP SWAP2 SWAP1 POP JUMP JUMPDEST PUSH2 0x6E1 DUP2 PUSH2 0x6CB JUMP JUMPDEST DUP3 MSTORE POP POP JUMP JUMPDEST PUSH1 0x0 PUSH1 0x20 DUP3 ADD SWAP1 POP PUSH2 0x6FC PUSH1 0x0 DUP4 ADD DUP5 PUSH2 0x6D8 JUMP JUMPDEST SWAP3 SWAP2 POP POP JUMP JUMPDEST PUSH1 0x0 DUP2 SWAP1 POP SWAP2 SWAP1 POP JUMP JUMPDEST PUSH2 0x715 DUP2 PUSH2 0x702 JUMP JUMPDEST DUP3 MSTORE POP POP JUMP JUMPDEST PUSH1 0x0 PUSH1 0x20 DUP3 ADD SWAP1 POP PUSH2 0x730 PUSH1 0x0 DUP4 ADD DUP5 PUSH2 0x70C JUMP JUMPDEST SWAP3 SWAP2 POP POP JUMP JUMPDEST PUSH1 0x0 DUP2 PUSH1 0x7 SIGNEXTEND SWAP1 POP SWAP2 SWAP1 POP JUMP JUMPDEST PUSH2 0x74C DUP2 PUSH2 0x736 JUMP JUMPDEST DUP3 MSTORE POP POP JUMP JUMPDEST PUSH1 0x0 PUSH1 0x20 DUP3 ADD SWAP1 POP PUSH2 0x767 PUSH1 0x0 DUP4 ADD DUP5 PUSH2 0x743 JUMP JUMPDEST SWAP3 SWAP2 POP POP JUMP JUMPDEST PUSH1 0x0 DUP2 PUSH1 0x0 SIGNEXTEND SWAP1 POP SWAP2 SWAP1 POP JUMP JUMPDEST PUSH2 0x783 DUP2 PUSH2 0x76D JUMP JUMPDEST DUP3 MSTORE POP POP JUMP JUMPDEST PUSH1 0x0 PUSH1 0x20 DUP3 ADD SWAP1 POP PUSH2 0x79E PUSH1 0x0 DUP4 ADD DUP5 PUSH2 0x77A JUMP JUMPDEST SWAP3 SWAP2 POP POP JUMP JUMPDEST PUSH1 0x0 DUP2 PUSH1 0xF SIGNEXTEND SWAP1 POP SWAP2 SWAP1 POP JUMP JUMPDEST PUSH2 0x7BA DUP2 PUSH2 0x7A4 JUMP JUMPDEST DUP3 MSTORE POP POP JUMP JUMPDEST PUSH1 0x0 PUSH1 0x20 DUP3 ADD SWAP1 POP PUSH2 0x7D5 PUSH1 0x0 DUP4 ADD DUP5 PUSH2 0x7B1 JUMP JUMPDEST SWAP3 SWAP2 POP POP JUMP JUMPDEST PUSH1 0x0 PUSH16 0xFFFFFFFFFFFFFFFFFFFFFFFFFFFFFFFF DUP3 AND SWAP1 POP SWAP2 SWAP1 POP JUMP JUMPDEST PUSH2 0x800 DUP2 PUSH2 0x7DB JUMP JUMPDEST DUP3 MSTORE POP POP JUMP JUMPDEST PUSH1 0x0 PUSH1 0x20 DUP3 ADD SWAP1 POP PUSH2 0x81B PUSH1 0x0 DUP4 ADD DUP5 PUSH2 0x7F7 JUMP JUMPDEST SWAP3 SWAP2 POP POP JUMP JUMPDEST PUSH1 0x0 PUSH4 0xFFFFFFFF DUP3 AND SWAP1 POP SWAP2 SWAP1 POP JUMP JUMPDEST PUSH2 0x83A DUP2 PUSH2 0x821 JUMP JUMPDEST DUP3 MSTORE POP POP JUMP JUMPDEST PUSH1 0x0 PUSH1 0x20 DUP3 ADD SWAP1 POP PUSH2 0x855 PUSH1 0x0 DUP4 ADD DUP5 PUSH2 0x831 JUMP JUMPDEST SWAP3 SWAP2 POP POP JUMP JUMPDEST PUSH1 0x0 PUSH8 0xFFFFFFFFFFFFFFFF DUP3 AND SWAP1 POP SWAP2 SWAP1 POP JUMP JUMPDEST PUSH2 0x878 DUP2 PUSH2 0x85B JUMP JUMPDEST DUP3 MSTORE POP POP JUMP JUMPDEST PUSH1 0x0 PUSH1 0x20 DUP3 ADD SWAP1 POP PUSH2 0x893 PUSH1 0x0 DUP4 ADD DUP5 PUSH2 0x86F JUMP JUMPDEST SWAP3 SWAP2 POP POP JUMP INVALID LOG2 PUSH5 0x6970667358 0x22 SLT KECCAK256 0x2F 0xC8 0xD4 0xE4 REVERT 0xE8 0xAE 0xCA PUSH7 0x9EBA5E81EF67B 0x4B GASLIMIT DIV CREATE PUSH2 0x6CB5 SWAP15 0xD9 COINBASE 0xF9 0xA8 0x25 DUP8 0xAB 0xF7 PUSH5 0x736F6C6343 STOP ADDMOD SLT STOP CALLER "
				},
				"gasEstimates": {
					"creation": {
						"codeDepositCost": "451000",
						"executionCost": "558030",
						"totalCost": "1009030"
					},
					"external": {
						"int128max()": "2520",
						"int128min()": "2635",
						"int16max()": "2659",
						"int16min()": "2570",
						"int256max()": "2452",
						"int256min()": "2519",
						"int32max()": "2637",
						"int32min()": "2658",
						"int64max()": "2614",
						"int64min()": "2613",
						"int8max()": "2495",
						"int8min()": "2569",
						"uint128max()": "2604",
						"uint128min()": "2610",
						"uint16max()": "2589",
						"uint16min()": "2585",
						"uint256max()": "2540",
						"uint256min()": "2496",
						"uint32max()": "2632",
						"uint32min()": "2587",
						"uint64max()": "2653",
						"uint64min()": "2543",
						"uint8max()": "2517",
						"uint8min()": "2545"
					}
				},
				"methodIdentifiers": {
					"int128max()": "8ce273c7",
					"int128min()": "ee5eb961",
					"int16max()": "460526fb",
					"int16min()": "5bba5d75",
					"int256max()": "56461fab",
					"int256min()": "38d75cd3",
					"int32max()": "3fdda9b7",
					"int32min()": "843ed70d",
					"int64max()": "6a58ca87",
					"int64min()": "eb8db1f0",
					"int8max()": "8b89fe12",
					"int8min()": "e1e8f196",
					"uint128max()": "b3ed0749",
					"uint128min()": "93677762",
					"uint16max()": "35afba3b",
					"uint16min()": "8f3d752e",
					"uint256max()": "76b1379a",
					"uint256min()": "615889a0",
					"uint32max()": "b1641122",
					"uint32min()": "e82bb7fe",
					"uint64max()": "f9ae49bc",
					"uint64min()": "b9375a7e",
					"uint8max()": "28aef359",
					"uint8min()": "10994336"
				}
			},
			"storageLayout": {
				"storage": [
					{
						"astId": 56,
						"contract": "contracts/10-07-2023.sol:minmax",
						"label": "int8max",
						"offset": 0,
						"slot": "0",
						"type": "t_int8"
					},
					{
						"astId": 63,
						"contract": "contracts/10-07-2023.sol:minmax",
						"label": "int8min",
						"offset": 1,
						"slot": "0",
						"type": "t_int8"
					},
					{
						"astId": 70,
						"contract": "contracts/10-07-2023.sol:minmax",
						"label": "int16max",
						"offset": 2,
						"slot": "0",
						"type": "t_int16"
					},
					{
						"astId": 77,
						"contract": "contracts/10-07-2023.sol:minmax",
						"label": "int16min",
						"offset": 4,
						"slot": "0",
						"type": "t_int16"
					},
					{
						"astId": 84,
						"contract": "contracts/10-07-2023.sol:minmax",
						"label": "int32max",
						"offset": 6,
						"slot": "0",
						"type": "t_int32"
					},
					{
						"astId": 91,
						"contract": "contracts/10-07-2023.sol:minmax",
						"label": "int32min",
						"offset": 10,
						"slot": "0",
						"type": "t_int32"
					},
					{
						"astId": 98,
						"contract": "contracts/10-07-2023.sol:minmax",
						"label": "int64max",
						"offset": 14,
						"slot": "0",
						"type": "t_int64"
					},
					{
						"astId": 105,
						"contract": "contracts/10-07-2023.sol:minmax",
						"label": "int64min",
						"offset": 22,
						"slot": "0",
						"type": "t_int64"
					},
					{
						"astId": 112,
						"contract": "contracts/10-07-2023.sol:minmax",
						"label": "int128max",
						"offset": 0,
						"slot": "1",
						"type": "t_int128"
					},
					{
						"astId": 119,
						"contract": "contracts/10-07-2023.sol:minmax",
						"label": "int128min",
						"offset": 16,
						"slot": "1",
						"type": "t_int128"
					},
					{
						"astId": 126,
						"contract": "contracts/10-07-2023.sol:minmax",
						"label": "int256max",
						"offset": 0,
						"slot": "2",
						"type": "t_int256"
					},
					{
						"astId": 133,
						"contract": "contracts/10-07-2023.sol:minmax",
						"label": "int256min",
						"offset": 0,
						"slot": "3",
						"type": "t_int256"
					},
					{
						"astId": 140,
						"contract": "contracts/10-07-2023.sol:minmax",
						"label": "uint8max",
						"offset": 0,
						"slot": "4",
						"type": "t_uint8"
					},
					{
						"astId": 147,
						"contract": "contracts/10-07-2023.sol:minmax",
						"label": "uint8min",
						"offset": 1,
						"slot": "4",
						"type": "t_uint8"
					},
					{
						"astId": 154,
						"contract": "contracts/10-07-2023.sol:minmax",
						"label": "uint16max",
						"offset": 2,
						"slot": "4",
						"type": "t_uint16"
					},
					{
						"astId": 161,
						"contract": "contracts/10-07-2023.sol:minmax",
						"label": "uint16min",
						"offset": 4,
						"slot": "4",
						"type": "t_uint16"
					},
					{
						"astId": 168,
						"contract": "contracts/10-07-2023.sol:minmax",
						"label": "uint32max",
						"offset": 6,
						"slot": "4",
						"type": "t_uint32"
					},
					{
						"astId": 175,
						"contract": "contracts/10-07-2023.sol:minmax",
						"label": "uint32min",
						"offset": 10,
						"slot": "4",
						"type": "t_uint32"
					},
					{
						"astId": 182,
						"contract": "contracts/10-07-2023.sol:minmax",
						"label": "uint64max",
						"offset": 14,
						"slot": "4",
						"type": "t_uint64"
					},
					{
						"astId": 189,
						"contract": "contracts/10-07-2023.sol:minmax",
						"label": "uint64min",
						"offset": 22,
						"slot": "4",
						"type": "t_uint64"
					},
					{
						"astId": 196,
						"contract": "contracts/10-07-2023.sol:minmax",
						"label": "uint128max",
						"offset": 0,
						"slot": "5",
						"type": "t_uint128"
					},
					{
						"astId": 203,
						"contract": "contracts/10-07-2023.sol:minmax",
						"label": "uint128min",
						"offset": 16,
						"slot": "5",
						"type": "t_uint128"
					},
					{
						"astId": 210,
						"contract": "contracts/10-07-2023.sol:minmax",
						"label": "uint256max",
						"offset": 0,
						"slot": "6",
						"type": "t_uint256"
					},
					{
						"astId": 217,
						"contract": "contracts/10-07-2023.sol:minmax",
						"label": "uint256min",
						"offset": 0,
						"slot": "7",
						"type": "t_uint256"
					}
				],
				"types": {
					"t_int128": {
						"encoding": "inplace",
						"label": "int128",
						"numberOfBytes": "16"
					},
					"t_int16": {
						"encoding": "inplace",
						"label": "int16",
						"numberOfBytes": "2"
					},
					"t_int256": {
						"encoding": "inplace",
						"label": "int256",
						"numberOfBytes": "32"
					},
					"t_int32": {
						"encoding": "inplace",
						"label": "int32",
						"numberOfBytes": "4"
					},
					"t_int64": {
						"encoding": "inplace",
						"label": "int64",
						"numberOfBytes": "8"
					},
					"t_int8": {
						"encoding": "inplace",
						"label": "int8",
						"numberOfBytes": "1"
					},
					"t_uint128": {
						"encoding": "inplace",
						"label": "uint128",
						"numberOfBytes": "16"
					},
					"t_uint16": {
						"encoding": "inplace",
						"label": "uint16",
						"numberOfBytes": "2"
					},
					"t_uint256": {
						"encoding": "inplace",
						"label": "uint256",
						"numberOfBytes": "32"
					},
					"t_uint32": {
						"encoding": "inplace",
						"label": "uint32",
						"numberOfBytes": "4"
					},
					"t_uint64": {
						"encoding": "inplace",
						"label": "uint64",
						"numberOfBytes": "8"
					},
					"t_uint8": {
						"encoding": "inplace",
						"label": "uint8",
						"numberOfBytes": "1"
					}
				}
			},
			"userdoc": {
				"kind": "user",
				"methods": {},
				"version": 1
			}
		}
	}
}