{
	"contracts/7thaug.sol": {
		"task": {
			"abi": [
				{
					"inputs": [],
					"name": "_car",
					"outputs": [
						{
							"internalType": "string",
							"name": "Make",
							"type": "string"
						},
						{
							"internalType": "string",
							"name": "model",
							"type": "string"
						},
						{
							"internalType": "uint256",
							"name": "Variant",
							"type": "uint256"
						}
					],
					"stateMutability": "view",
					"type": "function"
				},
				{
					"inputs": [
						{
							"internalType": "uint256",
							"name": "",
							"type": "uint256"
						}
					],
					"name": "arr",
					"outputs": [
						{
							"internalType": "string",
							"name": "Make",
							"type": "string"
						},
						{
							"internalType": "string",
							"name": "model",
							"type": "string"
						},
						{
							"internalType": "uint256",
							"name": "Variant",
							"type": "uint256"
						}
					],
					"stateMutability": "view",
					"type": "function"
				},
				{
					"inputs": [
						{
							"internalType": "string",
							"name": "_make",
							"type": "string"
						},
						{
							"internalType": "string",
							"name": "_model",
							"type": "string"
						},
						{
							"internalType": "uint256",
							"name": "variant",
							"type": "uint256"
						}
					],
					"name": "initCar1",
					"outputs": [],
					"stateMutability": "nonpayable",
					"type": "function"
				},
				{
					"inputs": [
						{
							"internalType": "string",
							"name": "_make",
							"type": "string"
						},
						{
							"internalType": "string",
							"name": "_model",
							"type": "string"
						},
						{
							"internalType": "uint256",
							"name": "variant",
							"type": "uint256"
						}
					],
					"name": "initCar2",
					"outputs": [],
					"stateMutability": "nonpayable",
					"type": "function"
				}
			],
			"devdoc": {
				"kind": "dev",
				"methods": {},
				"version": 1
			},
			"evm": {
				"assembly": "    /* \"contracts/7thaug.sol\":2506:3137  contract task{... */\n  mstore(0x40, 0x80)\n  callvalue\n  dup1\n  iszero\n  tag_1\n  jumpi\n  0x00\n  dup1\n  revert\ntag_1:\n  pop\n  dataSize(sub_0)\n  dup1\n  dataOffset(sub_0)\n  0x00\n  codecopy\n  0x00\n  return\nstop\n\nsub_0: assembly {\n        /* \"contracts/7thaug.sol\":2506:3137  contract task{... */\n      mstore(0x40, 0x80)\n      callvalue\n      dup1\n      iszero\n      tag_1\n      jumpi\n      0x00\n      dup1\n      revert\n    tag_1:\n      pop\n      jumpi(tag_2, lt(calldatasize, 0x04))\n      shr(0xe0, calldataload(0x00))\n      dup1\n      0x1ae4b450\n      eq\n      tag_3\n      jumpi\n      dup1\n      0x71e5ee5f\n      eq\n      tag_4\n      jumpi\n      dup1\n      0x74b4ad61\n      eq\n      tag_5\n      jumpi\n      dup1\n      0xdb8a46c2\n      eq\n      tag_6\n      jumpi\n    tag_2:\n      0x00\n      dup1\n      revert\n        /* \"contracts/7thaug.sol\":2661:2898  function initCar1(string memory _make, string memory  _model , uint variant)public  {... */\n    tag_3:\n      tag_7\n      0x04\n      dup1\n      calldatasize\n      sub\n      dup2\n      add\n      swap1\n      tag_8\n      swap2\n      swap1\n      tag_9\n      jump\t// in\n    tag_8:\n      tag_10\n      jump\t// in\n    tag_7:\n      stop\n        /* \"contracts/7thaug.sol\":2638:2654  CAR[] public arr */\n    tag_4:\n      tag_11\n      0x04\n      dup1\n      calldatasize\n      sub\n      dup2\n      add\n      swap1\n      tag_12\n      swap2\n      swap1\n      tag_13\n      jump\t// in\n    tag_12:\n      tag_14\n      jump\t// in\n    tag_11:\n      mload(0x40)\n      tag_15\n      swap4\n      swap3\n      swap2\n      swap1\n      tag_16\n      jump\t// in\n    tag_15:\n      mload(0x40)\n      dup1\n      swap2\n      sub\n      swap1\n      return\n        /* \"contracts/7thaug.sol\":2904:3134  function  initCar2(string memory _make, string memory  _model , uint variant) public {... */\n    tag_5:\n      tag_17\n      0x04\n      dup1\n      calldatasize\n      sub\n      dup2\n      add\n      swap1\n      tag_18\n      swap2\n      swap1\n      tag_9\n      jump\t// in\n    tag_18:\n      tag_19\n      jump\t// in\n    tag_17:\n      stop\n        /* \"contracts/7thaug.sol\":2616:2631  CAR public _car */\n    tag_6:\n      tag_20\n      tag_21\n      jump\t// in\n    tag_20:\n      mload(0x40)\n      tag_22\n      swap4\n      swap3\n      swap2\n      swap1\n      tag_16\n      jump\t// in\n    tag_22:\n      mload(0x40)\n      dup1\n      swap2\n      sub\n      swap1\n      return\n        /* \"contracts/7thaug.sol\":2661:2898  function initCar1(string memory _make, string memory  _model , uint variant)public  {... */\n    tag_10:\n        /* \"contracts/7thaug.sol\":2756:2771  CAR storage car */\n      0x00\n        /* \"contracts/7thaug.sol\":2800:2805  _make */\n      dup4\n        /* \"contracts/7thaug.sol\":2789:2792  car */\n      dup2\n        /* \"contracts/7thaug.sol\":2789:2797  car.Make */\n      0x00\n      add\n        /* \"contracts/7thaug.sol\":2789:2805  car.Make = _make */\n      swap1\n      dup2\n      tag_24\n      swap2\n      swap1\n      tag_25\n      jump\t// in\n    tag_24:\n      pop\n        /* \"contracts/7thaug.sol\":2828:2834  _model */\n      dup3\n        /* \"contracts/7thaug.sol\":2816:2819  car */\n      dup2\n        /* \"contracts/7thaug.sol\":2816:2825  car.model */\n      0x01\n      add\n        /* \"contracts/7thaug.sol\":2816:2834  car.model = _model */\n      swap1\n      dup2\n      tag_26\n      swap2\n      swap1\n      tag_25\n      jump\t// in\n    tag_26:\n      pop\n        /* \"contracts/7thaug.sol\":2859:2866  variant */\n      dup2\n        /* \"contracts/7thaug.sol\":2845:2848  car */\n      dup2\n        /* \"contracts/7thaug.sol\":2845:2856  car.Variant */\n      0x02\n      add\n        /* \"contracts/7thaug.sol\":2845:2866  car.Variant = variant */\n      dup2\n      swap1\n      sstore\n      pop\n        /* \"contracts/7thaug.sol\":2877:2880  arr */\n      0x03\n        /* \"contracts/7thaug.sol\":2886:2889  car */\n      dup2\n        /* \"contracts/7thaug.sol\":2877:2890  arr.push(car) */\n      swap1\n      dup1\n      0x01\n      dup2\n      sload\n      add\n      dup1\n      dup3\n      sstore\n      dup1\n      swap2\n      pop\n      pop\n      0x01\n      swap1\n      sub\n      swap1\n      0x00\n      mstore\n      keccak256(0x00, 0x20)\n      swap1\n      0x03\n      mul\n      add\n      0x00\n      swap1\n      swap2\n      swap1\n      swap2\n      swap1\n      swap2\n      pop\n      0x00\n      dup3\n      add\n      dup2\n      0x00\n      add\n      swap1\n      dup2\n      tag_28\n      swap2\n      swap1\n      tag_29\n      jump\t// in\n    tag_28:\n      pop\n      0x01\n      dup3\n      add\n      dup2\n      0x01\n      add\n      swap1\n      dup2\n      tag_30\n      swap2\n      swap1\n      tag_29\n      jump\t// in\n    tag_30:\n      pop\n      0x02\n      dup3\n      add\n      sload\n      dup2\n      0x02\n      add\n      sstore\n      pop\n      pop\n        /* \"contracts/7thaug.sol\":2745:2898  {... */\n      pop\n        /* \"contracts/7thaug.sol\":2661:2898  function initCar1(string memory _make, string memory  _model , uint variant)public  {... */\n      pop\n      pop\n      pop\n      jump\t// out\n        /* \"contracts/7thaug.sol\":2638:2654  CAR[] public arr */\n    tag_14:\n      0x03\n      dup2\n      dup2\n      sload\n      dup2\n      lt\n      tag_31\n      jumpi\n      0x00\n      dup1\n      revert\n    tag_31:\n      swap1\n      0x00\n      mstore\n      keccak256(0x00, 0x20)\n      swap1\n      0x03\n      mul\n      add\n      0x00\n      swap2\n      pop\n      swap1\n      pop\n      dup1\n      0x00\n      add\n      dup1\n      sload\n      tag_33\n      swap1\n      tag_34\n      jump\t// in\n    tag_33:\n      dup1\n      0x1f\n      add\n      0x20\n      dup1\n      swap2\n      div\n      mul\n      0x20\n      add\n      mload(0x40)\n      swap1\n      dup2\n      add\n      0x40\n      mstore\n      dup1\n      swap3\n      swap2\n      swap1\n      dup2\n      dup2\n      mstore\n      0x20\n      add\n      dup3\n      dup1\n      sload\n      tag_35\n      swap1\n      tag_34\n      jump\t// in\n    tag_35:\n      dup1\n      iszero\n      tag_36\n      jumpi\n      dup1\n      0x1f\n      lt\n      tag_37\n      jumpi\n      0x0100\n      dup1\n      dup4\n      sload\n      div\n      mul\n      dup4\n      mstore\n      swap2\n      0x20\n      add\n      swap2\n      jump(tag_36)\n    tag_37:\n      dup3\n      add\n      swap2\n      swap1\n      0x00\n      mstore\n      keccak256(0x00, 0x20)\n      swap1\n    tag_38:\n      dup2\n      sload\n      dup2\n      mstore\n      swap1\n      0x01\n      add\n      swap1\n      0x20\n      add\n      dup1\n      dup4\n      gt\n      tag_38\n      jumpi\n      dup3\n      swap1\n      sub\n      0x1f\n      and\n      dup3\n      add\n      swap2\n    tag_36:\n      pop\n      pop\n      pop\n      pop\n      pop\n      swap1\n      dup1\n      0x01\n      add\n      dup1\n      sload\n      tag_39\n      swap1\n      tag_34\n      jump\t// in\n    tag_39:\n      dup1\n      0x1f\n      add\n      0x20\n      dup1\n      swap2\n      div\n      mul\n      0x20\n      add\n      mload(0x40)\n      swap1\n      dup2\n      add\n      0x40\n      mstore\n      dup1\n      swap3\n      swap2\n      swap1\n      dup2\n      dup2\n      mstore\n      0x20\n      add\n      dup3\n      dup1\n      sload\n      tag_40\n      swap1\n      tag_34\n      jump\t// in\n    tag_40:\n      dup1\n      iszero\n      tag_41\n      jumpi\n      dup1\n      0x1f\n      lt\n      tag_42\n      jumpi\n      0x0100\n      dup1\n      dup4\n      sload\n      div\n      mul\n      dup4\n      mstore\n      swap2\n      0x20\n      add\n      swap2\n      jump(tag_41)\n    tag_42:\n      dup3\n      add\n      swap2\n      swap1\n      0x00\n      mstore\n      keccak256(0x00, 0x20)\n      swap1\n    tag_43:\n      dup2\n      sload\n      dup2\n      mstore\n      swap1\n      0x01\n      add\n      swap1\n      0x20\n      add\n      dup1\n      dup4\n      gt\n      tag_43\n      jumpi\n      dup3\n      swap1\n      sub\n      0x1f\n      and\n      dup3\n      add\n      swap2\n    tag_41:\n      pop\n      pop\n      pop\n      pop\n      pop\n      swap1\n      dup1\n      0x02\n      add\n      sload\n      swap1\n      pop\n      dup4\n      jump\t// out\n        /* \"contracts/7thaug.sol\":2904:3134  function  initCar2(string memory _make, string memory  _model , uint variant) public {... */\n    tag_19:\n        /* \"contracts/7thaug.sol\":3000:3014  CAR memory car */\n      tag_45\n      tag_46\n      jump\t// in\n    tag_45:\n        /* \"contracts/7thaug.sol\":3035:3040  _make */\n      dup4\n        /* \"contracts/7thaug.sol\":3025:3028  car */\n      dup2\n        /* \"contracts/7thaug.sol\":3025:3033  car.Make */\n      0x00\n      add\n        /* \"contracts/7thaug.sol\":3025:3040  car.Make =_make */\n      dup2\n      swap1\n      mstore\n      pop\n        /* \"contracts/7thaug.sol\":3063:3069  _model */\n      dup3\n        /* \"contracts/7thaug.sol\":3051:3054  car */\n      dup2\n        /* \"contracts/7thaug.sol\":3051:3060  car.model */\n      0x20\n      add\n        /* \"contracts/7thaug.sol\":3051:3069  car.model = _model */\n      dup2\n      swap1\n      mstore\n      pop\n        /* \"contracts/7thaug.sol\":3095:3102  variant */\n      dup2\n        /* \"contracts/7thaug.sol\":3080:3083  car */\n      dup2\n        /* \"contracts/7thaug.sol\":3080:3091  car.Variant */\n      0x40\n      add\n        /* \"contracts/7thaug.sol\":3080:3102  car.Variant  = variant */\n      dup2\n      dup2\n      mstore\n      pop\n      pop\n        /* \"contracts/7thaug.sol\":3113:3116  arr */\n      0x03\n        /* \"contracts/7thaug.sol\":3122:3125  car */\n      dup2\n        /* \"contracts/7thaug.sol\":3113:3126  arr.push(car) */\n      swap1\n      dup1\n      0x01\n      dup2\n      sload\n      add\n      dup1\n      dup3\n      sstore\n      dup1\n      swap2\n      pop\n      pop\n      0x01\n      swap1\n      sub\n      swap1\n      0x00\n      mstore\n      keccak256(0x00, 0x20)\n      swap1\n      0x03\n      mul\n      add\n      0x00\n      swap1\n      swap2\n      swap1\n      swap2\n      swap1\n      swap2\n      pop\n      0x00\n      dup3\n      add\n      mload\n      dup2\n      0x00\n      add\n      swap1\n      dup2\n      tag_48\n      swap2\n      swap1\n      tag_25\n      jump\t// in\n    tag_48:\n      pop\n      0x20\n      dup3\n      add\n      mload\n      dup2\n      0x01\n      add\n      swap1\n      dup2\n      tag_49\n      swap2\n      swap1\n      tag_25\n      jump\t// in\n    tag_49:\n      pop\n      0x40\n      dup3\n      add\n      mload\n      dup2\n      0x02\n      add\n      sstore\n      pop\n      pop\n        /* \"contracts/7thaug.sol\":2989:3134  {... */\n      pop\n        /* \"contracts/7thaug.sol\":2904:3134  function  initCar2(string memory _make, string memory  _model , uint variant) public {... */\n      pop\n      pop\n      pop\n      jump\t// out\n        /* \"contracts/7thaug.sol\":2616:2631  CAR public _car */\n    tag_21:\n      0x00\n      dup1\n      0x00\n      add\n      dup1\n      sload\n      tag_50\n      swap1\n      tag_34\n      jump\t// in\n    tag_50:\n      dup1\n      0x1f\n      add\n      0x20\n      dup1\n      swap2\n      div\n      mul\n      0x20\n      add\n      mload(0x40)\n      swap1\n      dup2\n      add\n      0x40\n      mstore\n      dup1\n      swap3\n      swap2\n      swap1\n      dup2\n      dup2\n      mstore\n      0x20\n      add\n      dup3\n      dup1\n      sload\n      tag_51\n      swap1\n      tag_34\n      jump\t// in\n    tag_51:\n      dup1\n      iszero\n      tag_52\n      jumpi\n      dup1\n      0x1f\n      lt\n      tag_53\n      jumpi\n      0x0100\n      dup1\n      dup4\n      sload\n      div\n      mul\n      dup4\n      mstore\n      swap2\n      0x20\n      add\n      swap2\n      jump(tag_52)\n    tag_53:\n      dup3\n      add\n      swap2\n      swap1\n      0x00\n      mstore\n      keccak256(0x00, 0x20)\n      swap1\n    tag_54:\n      dup2\n      sload\n      dup2\n      mstore\n      swap1\n      0x01\n      add\n      swap1\n      0x20\n      add\n      dup1\n      dup4\n      gt\n      tag_54\n      jumpi\n      dup3\n      swap1\n      sub\n      0x1f\n      and\n      dup3\n      add\n      swap2\n    tag_52:\n      pop\n      pop\n      pop\n      pop\n      pop\n      swap1\n      dup1\n      0x01\n      add\n      dup1\n      sload\n      tag_55\n      swap1\n      tag_34\n      jump\t// in\n    tag_55:\n      dup1\n      0x1f\n      add\n      0x20\n      dup1\n      swap2\n      div\n      mul\n      0x20\n      add\n      mload(0x40)\n      swap1\n      dup2\n      add\n      0x40\n      mstore\n      dup1\n      swap3\n      swap2\n      swap1\n      dup2\n      dup2\n      mstore\n      0x20\n      add\n      dup3\n      dup1\n      sload\n      tag_56\n      swap1\n      tag_34\n      jump\t// in\n    tag_56:\n      dup1\n      iszero\n      tag_57\n      jumpi\n      dup1\n      0x1f\n      lt\n      tag_58\n      jumpi\n      0x0100\n      dup1\n      dup4\n      sload\n      div\n      mul\n      dup4\n      mstore\n      swap2\n      0x20\n      add\n      swap2\n      jump(tag_57)\n    tag_58:\n      dup3\n      add\n      swap2\n      swap1\n      0x00\n      mstore\n      keccak256(0x00, 0x20)\n      swap1\n    tag_59:\n      dup2\n      sload\n      dup2\n      mstore\n      swap1\n      0x01\n      add\n      swap1\n      0x20\n      add\n      dup1\n      dup4\n      gt\n      tag_59\n      jumpi\n      dup3\n      swap1\n      sub\n      0x1f\n      and\n      dup3\n      add\n      swap2\n    tag_57:\n      pop\n      pop\n      pop\n      pop\n      pop\n      swap1\n      dup1\n      0x02\n      add\n      sload\n      swap1\n      pop\n      dup4\n      jump\t// out\n    tag_46:\n      mload(0x40)\n      dup1\n      0x60\n      add\n      0x40\n      mstore\n      dup1\n      0x60\n      dup2\n      mstore\n      0x20\n      add\n      0x60\n      dup2\n      mstore\n      0x20\n      add\n      0x00\n      dup2\n      mstore\n      pop\n      swap1\n      jump\t// out\n        /* \"#utility.yul\":7:82   */\n    tag_60:\n        /* \"#utility.yul\":40:46   */\n      0x00\n        /* \"#utility.yul\":73:75   */\n      0x40\n        /* \"#utility.yul\":67:76   */\n      mload\n        /* \"#utility.yul\":57:76   */\n      swap1\n      pop\n        /* \"#utility.yul\":7:82   */\n      swap1\n      jump\t// out\n        /* \"#utility.yul\":88:205   */\n    tag_61:\n        /* \"#utility.yul\":197:198   */\n      0x00\n        /* \"#utility.yul\":194:195   */\n      dup1\n        /* \"#utility.yul\":187:199   */\n      revert\n        /* \"#utility.yul\":211:328   */\n    tag_62:\n        /* \"#utility.yul\":320:321   */\n      0x00\n        /* \"#utility.yul\":317:318   */\n      dup1\n        /* \"#utility.yul\":310:322   */\n      revert\n        /* \"#utility.yul\":334:451   */\n    tag_63:\n        /* \"#utility.yul\":443:444   */\n      0x00\n        /* \"#utility.yul\":440:441   */\n      dup1\n        /* \"#utility.yul\":433:445   */\n      revert\n        /* \"#utility.yul\":457:574   */\n    tag_64:\n        /* \"#utility.yul\":566:567   */\n      0x00\n        /* \"#utility.yul\":563:564   */\n      dup1\n        /* \"#utility.yul\":556:568   */\n      revert\n        /* \"#utility.yul\":580:682   */\n    tag_65:\n        /* \"#utility.yul\":621:627   */\n      0x00\n        /* \"#utility.yul\":672:674   */\n      0x1f\n        /* \"#utility.yul\":668:675   */\n      not\n        /* \"#utility.yul\":663:665   */\n      0x1f\n        /* \"#utility.yul\":656:661   */\n      dup4\n        /* \"#utility.yul\":652:666   */\n      add\n        /* \"#utility.yul\":648:676   */\n      and\n        /* \"#utility.yul\":638:676   */\n      swap1\n      pop\n        /* \"#utility.yul\":580:682   */\n      swap2\n      swap1\n      pop\n      jump\t// out\n        /* \"#utility.yul\":688:868   */\n    tag_66:\n        /* \"#utility.yul\":736:813   */\n      0x4e487b7100000000000000000000000000000000000000000000000000000000\n        /* \"#utility.yul\":733:734   */\n      0x00\n        /* \"#utility.yul\":726:814   */\n      mstore\n        /* \"#utility.yul\":833:837   */\n      0x41\n        /* \"#utility.yul\":830:831   */\n      0x04\n        /* \"#utility.yul\":823:838   */\n      mstore\n        /* \"#utility.yul\":857:861   */\n      0x24\n        /* \"#utility.yul\":854:855   */\n      0x00\n        /* \"#utility.yul\":847:862   */\n      revert\n        /* \"#utility.yul\":874:1155   */\n    tag_67:\n        /* \"#utility.yul\":957:984   */\n      tag_107\n        /* \"#utility.yul\":979:983   */\n      dup3\n        /* \"#utility.yul\":957:984   */\n      tag_65\n      jump\t// in\n    tag_107:\n        /* \"#utility.yul\":949:955   */\n      dup2\n        /* \"#utility.yul\":945:985   */\n      add\n        /* \"#utility.yul\":1087:1093   */\n      dup2\n        /* \"#utility.yul\":1075:1085   */\n      dup2\n        /* \"#utility.yul\":1072:1094   */\n      lt\n        /* \"#utility.yul\":1051:1069   */\n      0xffffffffffffffff\n        /* \"#utility.yul\":1039:1049   */\n      dup3\n        /* \"#utility.yul\":1036:1070   */\n      gt\n        /* \"#utility.yul\":1033:1095   */\n      or\n        /* \"#utility.yul\":1030:1118   */\n      iszero\n      tag_108\n      jumpi\n        /* \"#utility.yul\":1098:1116   */\n      tag_109\n      tag_66\n      jump\t// in\n    tag_109:\n        /* \"#utility.yul\":1030:1118   */\n    tag_108:\n        /* \"#utility.yul\":1138:1148   */\n      dup1\n        /* \"#utility.yul\":1134:1136   */\n      0x40\n        /* \"#utility.yul\":1127:1149   */\n      mstore\n        /* \"#utility.yul\":917:1155   */\n      pop\n        /* \"#utility.yul\":874:1155   */\n      pop\n      pop\n      jump\t// out\n        /* \"#utility.yul\":1161:1290   */\n    tag_68:\n        /* \"#utility.yul\":1195:1201   */\n      0x00\n        /* \"#utility.yul\":1222:1242   */\n      tag_111\n      tag_60\n      jump\t// in\n    tag_111:\n        /* \"#utility.yul\":1212:1242   */\n      swap1\n      pop\n        /* \"#utility.yul\":1251:1284   */\n      tag_112\n        /* \"#utility.yul\":1279:1283   */\n      dup3\n        /* \"#utility.yul\":1271:1277   */\n      dup3\n        /* \"#utility.yul\":1251:1284   */\n      tag_67\n      jump\t// in\n    tag_112:\n        /* \"#utility.yul\":1161:1290   */\n      swap2\n      swap1\n      pop\n      jump\t// out\n        /* \"#utility.yul\":1296:1604   */\n    tag_69:\n        /* \"#utility.yul\":1358:1362   */\n      0x00\n        /* \"#utility.yul\":1448:1466   */\n      0xffffffffffffffff\n        /* \"#utility.yul\":1440:1446   */\n      dup3\n        /* \"#utility.yul\":1437:1467   */\n      gt\n        /* \"#utility.yul\":1434:1490   */\n      iszero\n      tag_114\n      jumpi\n        /* \"#utility.yul\":1470:1488   */\n      tag_115\n      tag_66\n      jump\t// in\n    tag_115:\n        /* \"#utility.yul\":1434:1490   */\n    tag_114:\n        /* \"#utility.yul\":1508:1537   */\n      tag_116\n        /* \"#utility.yul\":1530:1536   */\n      dup3\n        /* \"#utility.yul\":1508:1537   */\n      tag_65\n      jump\t// in\n    tag_116:\n        /* \"#utility.yul\":1500:1537   */\n      swap1\n      pop\n        /* \"#utility.yul\":1592:1596   */\n      0x20\n        /* \"#utility.yul\":1586:1590   */\n      dup2\n        /* \"#utility.yul\":1582:1597   */\n      add\n        /* \"#utility.yul\":1574:1597   */\n      swap1\n      pop\n        /* \"#utility.yul\":1296:1604   */\n      swap2\n      swap1\n      pop\n      jump\t// out\n        /* \"#utility.yul\":1610:1756   */\n    tag_70:\n        /* \"#utility.yul\":1707:1713   */\n      dup3\n        /* \"#utility.yul\":1702:1705   */\n      dup2\n        /* \"#utility.yul\":1697:1700   */\n      dup4\n        /* \"#utility.yul\":1684:1714   */\n      calldatacopy\n        /* \"#utility.yul\":1748:1749   */\n      0x00\n        /* \"#utility.yul\":1739:1745   */\n      dup4\n        /* \"#utility.yul\":1734:1737   */\n      dup4\n        /* \"#utility.yul\":1730:1746   */\n      add\n        /* \"#utility.yul\":1723:1750   */\n      mstore\n        /* \"#utility.yul\":1610:1756   */\n      pop\n      pop\n      pop\n      jump\t// out\n        /* \"#utility.yul\":1762:2187   */\n    tag_71:\n        /* \"#utility.yul\":1840:1845   */\n      0x00\n        /* \"#utility.yul\":1865:1931   */\n      tag_119\n        /* \"#utility.yul\":1881:1930   */\n      tag_120\n        /* \"#utility.yul\":1923:1929   */\n      dup5\n        /* \"#utility.yul\":1881:1930   */\n      tag_69\n      jump\t// in\n    tag_120:\n        /* \"#utility.yul\":1865:1931   */\n      tag_68\n      jump\t// in\n    tag_119:\n        /* \"#utility.yul\":1856:1931   */\n      swap1\n      pop\n        /* \"#utility.yul\":1954:1960   */\n      dup3\n        /* \"#utility.yul\":1947:1952   */\n      dup2\n        /* \"#utility.yul\":1940:1961   */\n      mstore\n        /* \"#utility.yul\":1992:1996   */\n      0x20\n        /* \"#utility.yul\":1985:1990   */\n      dup2\n        /* \"#utility.yul\":1981:1997   */\n      add\n        /* \"#utility.yul\":2030:2033   */\n      dup5\n        /* \"#utility.yul\":2021:2027   */\n      dup5\n        /* \"#utility.yul\":2016:2019   */\n      dup5\n        /* \"#utility.yul\":2012:2028   */\n      add\n        /* \"#utility.yul\":2009:2034   */\n      gt\n        /* \"#utility.yul\":2006:2118   */\n      iszero\n      tag_121\n      jumpi\n        /* \"#utility.yul\":2037:2116   */\n      tag_122\n      tag_64\n      jump\t// in\n    tag_122:\n        /* \"#utility.yul\":2006:2118   */\n    tag_121:\n        /* \"#utility.yul\":2127:2181   */\n      tag_123\n        /* \"#utility.yul\":2174:2180   */\n      dup5\n        /* \"#utility.yul\":2169:2172   */\n      dup3\n        /* \"#utility.yul\":2164:2167   */\n      dup6\n        /* \"#utility.yul\":2127:2181   */\n      tag_70\n      jump\t// in\n    tag_123:\n        /* \"#utility.yul\":1846:2187   */\n      pop\n        /* \"#utility.yul\":1762:2187   */\n      swap4\n      swap3\n      pop\n      pop\n      pop\n      jump\t// out\n        /* \"#utility.yul\":2207:2547   */\n    tag_72:\n        /* \"#utility.yul\":2263:2268   */\n      0x00\n        /* \"#utility.yul\":2312:2315   */\n      dup3\n        /* \"#utility.yul\":2305:2309   */\n      0x1f\n        /* \"#utility.yul\":2297:2303   */\n      dup4\n        /* \"#utility.yul\":2293:2310   */\n      add\n        /* \"#utility.yul\":2289:2316   */\n      slt\n        /* \"#utility.yul\":2279:2401   */\n      tag_125\n      jumpi\n        /* \"#utility.yul\":2320:2399   */\n      tag_126\n      tag_63\n      jump\t// in\n    tag_126:\n        /* \"#utility.yul\":2279:2401   */\n    tag_125:\n        /* \"#utility.yul\":2437:2443   */\n      dup2\n        /* \"#utility.yul\":2424:2444   */\n      calldataload\n        /* \"#utility.yul\":2462:2541   */\n      tag_127\n        /* \"#utility.yul\":2537:2540   */\n      dup5\n        /* \"#utility.yul\":2529:2535   */\n      dup3\n        /* \"#utility.yul\":2522:2526   */\n      0x20\n        /* \"#utility.yul\":2514:2520   */\n      dup7\n        /* \"#utility.yul\":2510:2527   */\n      add\n        /* \"#utility.yul\":2462:2541   */\n      tag_71\n      jump\t// in\n    tag_127:\n        /* \"#utility.yul\":2453:2541   */\n      swap2\n      pop\n        /* \"#utility.yul\":2269:2547   */\n      pop\n        /* \"#utility.yul\":2207:2547   */\n      swap3\n      swap2\n      pop\n      pop\n      jump\t// out\n        /* \"#utility.yul\":2553:2630   */\n    tag_73:\n        /* \"#utility.yul\":2590:2597   */\n      0x00\n        /* \"#utility.yul\":2619:2624   */\n      dup2\n        /* \"#utility.yul\":2608:2624   */\n      swap1\n      pop\n        /* \"#utility.yul\":2553:2630   */\n      swap2\n      swap1\n      pop\n      jump\t// out\n        /* \"#utility.yul\":2636:2758   */\n    tag_74:\n        /* \"#utility.yul\":2709:2733   */\n      tag_130\n        /* \"#utility.yul\":2727:2732   */\n      dup2\n        /* \"#utility.yul\":2709:2733   */\n      tag_73\n      jump\t// in\n    tag_130:\n        /* \"#utility.yul\":2702:2707   */\n      dup2\n        /* \"#utility.yul\":2699:2734   */\n      eq\n        /* \"#utility.yul\":2689:2752   */\n      tag_131\n      jumpi\n        /* \"#utility.yul\":2748:2749   */\n      0x00\n        /* \"#utility.yul\":2745:2746   */\n      dup1\n        /* \"#utility.yul\":2738:2750   */\n      revert\n        /* \"#utility.yul\":2689:2752   */\n    tag_131:\n        /* \"#utility.yul\":2636:2758   */\n      pop\n      jump\t// out\n        /* \"#utility.yul\":2764:2903   */\n    tag_75:\n        /* \"#utility.yul\":2810:2815   */\n      0x00\n        /* \"#utility.yul\":2848:2854   */\n      dup2\n        /* \"#utility.yul\":2835:2855   */\n      calldataload\n        /* \"#utility.yul\":2826:2855   */\n      swap1\n      pop\n        /* \"#utility.yul\":2864:2897   */\n      tag_133\n        /* \"#utility.yul\":2891:2896   */\n      dup2\n        /* \"#utility.yul\":2864:2897   */\n      tag_74\n      jump\t// in\n    tag_133:\n        /* \"#utility.yul\":2764:2903   */\n      swap3\n      swap2\n      pop\n      pop\n      jump\t// out\n        /* \"#utility.yul\":2909:3888   */\n    tag_9:\n        /* \"#utility.yul\":3006:3012   */\n      0x00\n        /* \"#utility.yul\":3014:3020   */\n      dup1\n        /* \"#utility.yul\":3022:3028   */\n      0x00\n        /* \"#utility.yul\":3071:3073   */\n      0x60\n        /* \"#utility.yul\":3059:3068   */\n      dup5\n        /* \"#utility.yul\":3050:3057   */\n      dup7\n        /* \"#utility.yul\":3046:3069   */\n      sub\n        /* \"#utility.yul\":3042:3074   */\n      slt\n        /* \"#utility.yul\":3039:3158   */\n      iszero\n      tag_135\n      jumpi\n        /* \"#utility.yul\":3077:3156   */\n      tag_136\n      tag_61\n      jump\t// in\n    tag_136:\n        /* \"#utility.yul\":3039:3158   */\n    tag_135:\n        /* \"#utility.yul\":3225:3226   */\n      0x00\n        /* \"#utility.yul\":3214:3223   */\n      dup5\n        /* \"#utility.yul\":3210:3227   */\n      add\n        /* \"#utility.yul\":3197:3228   */\n      calldataload\n        /* \"#utility.yul\":3255:3273   */\n      0xffffffffffffffff\n        /* \"#utility.yul\":3247:3253   */\n      dup2\n        /* \"#utility.yul\":3244:3274   */\n      gt\n        /* \"#utility.yul\":3241:3358   */\n      iszero\n      tag_137\n      jumpi\n        /* \"#utility.yul\":3277:3356   */\n      tag_138\n      tag_62\n      jump\t// in\n    tag_138:\n        /* \"#utility.yul\":3241:3358   */\n    tag_137:\n        /* \"#utility.yul\":3382:3445   */\n      tag_139\n        /* \"#utility.yul\":3437:3444   */\n      dup7\n        /* \"#utility.yul\":3428:3434   */\n      dup3\n        /* \"#utility.yul\":3417:3426   */\n      dup8\n        /* \"#utility.yul\":3413:3435   */\n      add\n        /* \"#utility.yul\":3382:3445   */\n      tag_72\n      jump\t// in\n    tag_139:\n        /* \"#utility.yul\":3372:3445   */\n      swap4\n      pop\n        /* \"#utility.yul\":3168:3455   */\n      pop\n        /* \"#utility.yul\":3522:3524   */\n      0x20\n        /* \"#utility.yul\":3511:3520   */\n      dup5\n        /* \"#utility.yul\":3507:3525   */\n      add\n        /* \"#utility.yul\":3494:3526   */\n      calldataload\n        /* \"#utility.yul\":3553:3571   */\n      0xffffffffffffffff\n        /* \"#utility.yul\":3545:3551   */\n      dup2\n        /* \"#utility.yul\":3542:3572   */\n      gt\n        /* \"#utility.yul\":3539:3656   */\n      iszero\n      tag_140\n      jumpi\n        /* \"#utility.yul\":3575:3654   */\n      tag_141\n      tag_62\n      jump\t// in\n    tag_141:\n        /* \"#utility.yul\":3539:3656   */\n    tag_140:\n        /* \"#utility.yul\":3680:3743   */\n      tag_142\n        /* \"#utility.yul\":3735:3742   */\n      dup7\n        /* \"#utility.yul\":3726:3732   */\n      dup3\n        /* \"#utility.yul\":3715:3724   */\n      dup8\n        /* \"#utility.yul\":3711:3733   */\n      add\n        /* \"#utility.yul\":3680:3743   */\n      tag_72\n      jump\t// in\n    tag_142:\n        /* \"#utility.yul\":3670:3743   */\n      swap3\n      pop\n        /* \"#utility.yul\":3465:3753   */\n      pop\n        /* \"#utility.yul\":3792:3794   */\n      0x40\n        /* \"#utility.yul\":3818:3871   */\n      tag_143\n        /* \"#utility.yul\":3863:3870   */\n      dup7\n        /* \"#utility.yul\":3854:3860   */\n      dup3\n        /* \"#utility.yul\":3843:3852   */\n      dup8\n        /* \"#utility.yul\":3839:3861   */\n      add\n        /* \"#utility.yul\":3818:3871   */\n      tag_75\n      jump\t// in\n    tag_143:\n        /* \"#utility.yul\":3808:3871   */\n      swap2\n      pop\n        /* \"#utility.yul\":3763:3881   */\n      pop\n        /* \"#utility.yul\":2909:3888   */\n      swap3\n      pop\n      swap3\n      pop\n      swap3\n      jump\t// out\n        /* \"#utility.yul\":3894:4223   */\n    tag_13:\n        /* \"#utility.yul\":3953:3959   */\n      0x00\n        /* \"#utility.yul\":4002:4004   */\n      0x20\n        /* \"#utility.yul\":3990:3999   */\n      dup3\n        /* \"#utility.yul\":3981:3988   */\n      dup5\n        /* \"#utility.yul\":3977:4000   */\n      sub\n        /* \"#utility.yul\":3973:4005   */\n      slt\n        /* \"#utility.yul\":3970:4089   */\n      iszero\n      tag_145\n      jumpi\n        /* \"#utility.yul\":4008:4087   */\n      tag_146\n      tag_61\n      jump\t// in\n    tag_146:\n        /* \"#utility.yul\":3970:4089   */\n    tag_145:\n        /* \"#utility.yul\":4128:4129   */\n      0x00\n        /* \"#utility.yul\":4153:4206   */\n      tag_147\n        /* \"#utility.yul\":4198:4205   */\n      dup5\n        /* \"#utility.yul\":4189:4195   */\n      dup3\n        /* \"#utility.yul\":4178:4187   */\n      dup6\n        /* \"#utility.yul\":4174:4196   */\n      add\n        /* \"#utility.yul\":4153:4206   */\n      tag_75\n      jump\t// in\n    tag_147:\n        /* \"#utility.yul\":4143:4206   */\n      swap2\n      pop\n        /* \"#utility.yul\":4099:4216   */\n      pop\n        /* \"#utility.yul\":3894:4223   */\n      swap3\n      swap2\n      pop\n      pop\n      jump\t// out\n        /* \"#utility.yul\":4229:4328   */\n    tag_76:\n        /* \"#utility.yul\":4281:4287   */\n      0x00\n        /* \"#utility.yul\":4315:4320   */\n      dup2\n        /* \"#utility.yul\":4309:4321   */\n      mload\n        /* \"#utility.yul\":4299:4321   */\n      swap1\n      pop\n        /* \"#utility.yul\":4229:4328   */\n      swap2\n      swap1\n      pop\n      jump\t// out\n        /* \"#utility.yul\":4334:4503   */\n    tag_77:\n        /* \"#utility.yul\":4418:4429   */\n      0x00\n        /* \"#utility.yul\":4452:4458   */\n      dup3\n        /* \"#utility.yul\":4447:4450   */\n      dup3\n        /* \"#utility.yul\":4440:4459   */\n      mstore\n        /* \"#utility.yul\":4492:4496   */\n      0x20\n        /* \"#utility.yul\":4487:4490   */\n      dup3\n        /* \"#utility.yul\":4483:4497   */\n      add\n        /* \"#utility.yul\":4468:4497   */\n      swap1\n      pop\n        /* \"#utility.yul\":4334:4503   */\n      swap3\n      swap2\n      pop\n      pop\n      jump\t// out\n        /* \"#utility.yul\":4509:4755   */\n    tag_78:\n        /* \"#utility.yul\":4590:4591   */\n      0x00\n        /* \"#utility.yul\":4600:4713   */\n    tag_151:\n        /* \"#utility.yul\":4614:4620   */\n      dup4\n        /* \"#utility.yul\":4611:4612   */\n      dup2\n        /* \"#utility.yul\":4608:4621   */\n      lt\n        /* \"#utility.yul\":4600:4713   */\n      iszero\n      tag_153\n      jumpi\n        /* \"#utility.yul\":4699:4700   */\n      dup1\n        /* \"#utility.yul\":4694:4697   */\n      dup3\n        /* \"#utility.yul\":4690:4701   */\n      add\n        /* \"#utility.yul\":4684:4702   */\n      mload\n        /* \"#utility.yul\":4680:4681   */\n      dup2\n        /* \"#utility.yul\":4675:4678   */\n      dup5\n        /* \"#utility.yul\":4671:4682   */\n      add\n        /* \"#utility.yul\":4664:4703   */\n      mstore\n        /* \"#utility.yul\":4636:4638   */\n      0x20\n        /* \"#utility.yul\":4633:4634   */\n      dup2\n        /* \"#utility.yul\":4629:4639   */\n      add\n        /* \"#utility.yul\":4624:4639   */\n      swap1\n      pop\n        /* \"#utility.yul\":4600:4713   */\n      jump(tag_151)\n    tag_153:\n        /* \"#utility.yul\":4747:4748   */\n      0x00\n        /* \"#utility.yul\":4738:4744   */\n      dup5\n        /* \"#utility.yul\":4733:4736   */\n      dup5\n        /* \"#utility.yul\":4729:4745   */\n      add\n        /* \"#utility.yul\":4722:4749   */\n      mstore\n        /* \"#utility.yul\":4571:4755   */\n      pop\n        /* \"#utility.yul\":4509:4755   */\n      pop\n      pop\n      pop\n      jump\t// out\n        /* \"#utility.yul\":4761:5138   */\n    tag_79:\n        /* \"#utility.yul\":4849:4852   */\n      0x00\n        /* \"#utility.yul\":4877:4916   */\n      tag_155\n        /* \"#utility.yul\":4910:4915   */\n      dup3\n        /* \"#utility.yul\":4877:4916   */\n      tag_76\n      jump\t// in\n    tag_155:\n        /* \"#utility.yul\":4932:5003   */\n      tag_156\n        /* \"#utility.yul\":4996:5002   */\n      dup2\n        /* \"#utility.yul\":4991:4994   */\n      dup6\n        /* \"#utility.yul\":4932:5003   */\n      tag_77\n      jump\t// in\n    tag_156:\n        /* \"#utility.yul\":4925:5003   */\n      swap4\n      pop\n        /* \"#utility.yul\":5012:5077   */\n      tag_157\n        /* \"#utility.yul\":5070:5076   */\n      dup2\n        /* \"#utility.yul\":5065:5068   */\n      dup6\n        /* \"#utility.yul\":5058:5062   */\n      0x20\n        /* \"#utility.yul\":5051:5056   */\n      dup7\n        /* \"#utility.yul\":5047:5063   */\n      add\n        /* \"#utility.yul\":5012:5077   */\n      tag_78\n      jump\t// in\n    tag_157:\n        /* \"#utility.yul\":5102:5131   */\n      tag_158\n        /* \"#utility.yul\":5124:5130   */\n      dup2\n        /* \"#utility.yul\":5102:5131   */\n      tag_65\n      jump\t// in\n    tag_158:\n        /* \"#utility.yul\":5097:5100   */\n      dup5\n        /* \"#utility.yul\":5093:5132   */\n      add\n        /* \"#utility.yul\":5086:5132   */\n      swap2\n      pop\n        /* \"#utility.yul\":4853:5138   */\n      pop\n        /* \"#utility.yul\":4761:5138   */\n      swap3\n      swap2\n      pop\n      pop\n      jump\t// out\n        /* \"#utility.yul\":5144:5262   */\n    tag_80:\n        /* \"#utility.yul\":5231:5255   */\n      tag_160\n        /* \"#utility.yul\":5249:5254   */\n      dup2\n        /* \"#utility.yul\":5231:5255   */\n      tag_73\n      jump\t// in\n    tag_160:\n        /* \"#utility.yul\":5226:5229   */\n      dup3\n        /* \"#utility.yul\":5219:5256   */\n      mstore\n        /* \"#utility.yul\":5144:5262   */\n      pop\n      pop\n      jump\t// out\n        /* \"#utility.yul\":5268:5892   */\n    tag_16:\n        /* \"#utility.yul\":5457:5461   */\n      0x00\n        /* \"#utility.yul\":5495:5497   */\n      0x60\n        /* \"#utility.yul\":5484:5493   */\n      dup3\n        /* \"#utility.yul\":5480:5498   */\n      add\n        /* \"#utility.yul\":5472:5498   */\n      swap1\n      pop\n        /* \"#utility.yul\":5544:5553   */\n      dup2\n        /* \"#utility.yul\":5538:5542   */\n      dup2\n        /* \"#utility.yul\":5534:5554   */\n      sub\n        /* \"#utility.yul\":5530:5531   */\n      0x00\n        /* \"#utility.yul\":5519:5528   */\n      dup4\n        /* \"#utility.yul\":5515:5532   */\n      add\n        /* \"#utility.yul\":5508:5555   */\n      mstore\n        /* \"#utility.yul\":5572:5650   */\n      tag_162\n        /* \"#utility.yul\":5645:5649   */\n      dup2\n        /* \"#utility.yul\":5636:5642   */\n      dup7\n        /* \"#utility.yul\":5572:5650   */\n      tag_79\n      jump\t// in\n    tag_162:\n        /* \"#utility.yul\":5564:5650   */\n      swap1\n      pop\n        /* \"#utility.yul\":5697:5706   */\n      dup2\n        /* \"#utility.yul\":5691:5695   */\n      dup2\n        /* \"#utility.yul\":5687:5707   */\n      sub\n        /* \"#utility.yul\":5682:5684   */\n      0x20\n        /* \"#utility.yul\":5671:5680   */\n      dup4\n        /* \"#utility.yul\":5667:5685   */\n      add\n        /* \"#utility.yul\":5660:5708   */\n      mstore\n        /* \"#utility.yul\":5725:5803   */\n      tag_163\n        /* \"#utility.yul\":5798:5802   */\n      dup2\n        /* \"#utility.yul\":5789:5795   */\n      dup6\n        /* \"#utility.yul\":5725:5803   */\n      tag_79\n      jump\t// in\n    tag_163:\n        /* \"#utility.yul\":5717:5803   */\n      swap1\n      pop\n        /* \"#utility.yul\":5813:5885   */\n      tag_164\n        /* \"#utility.yul\":5881:5883   */\n      0x40\n        /* \"#utility.yul\":5870:5879   */\n      dup4\n        /* \"#utility.yul\":5866:5884   */\n      add\n        /* \"#utility.yul\":5857:5863   */\n      dup5\n        /* \"#utility.yul\":5813:5885   */\n      tag_80\n      jump\t// in\n    tag_164:\n        /* \"#utility.yul\":5268:5892   */\n      swap5\n      swap4\n      pop\n      pop\n      pop\n      pop\n      jump\t// out\n        /* \"#utility.yul\":5898:6078   */\n    tag_81:\n        /* \"#utility.yul\":5946:6023   */\n      0x4e487b7100000000000000000000000000000000000000000000000000000000\n        /* \"#utility.yul\":5943:5944   */\n      0x00\n        /* \"#utility.yul\":5936:6024   */\n      mstore\n        /* \"#utility.yul\":6043:6047   */\n      0x22\n        /* \"#utility.yul\":6040:6041   */\n      0x04\n        /* \"#utility.yul\":6033:6048   */\n      mstore\n        /* \"#utility.yul\":6067:6071   */\n      0x24\n        /* \"#utility.yul\":6064:6065   */\n      0x00\n        /* \"#utility.yul\":6057:6072   */\n      revert\n        /* \"#utility.yul\":6084:6404   */\n    tag_34:\n        /* \"#utility.yul\":6128:6134   */\n      0x00\n        /* \"#utility.yul\":6165:6166   */\n      0x02\n        /* \"#utility.yul\":6159:6163   */\n      dup3\n        /* \"#utility.yul\":6155:6167   */\n      div\n        /* \"#utility.yul\":6145:6167   */\n      swap1\n      pop\n        /* \"#utility.yul\":6212:6213   */\n      0x01\n        /* \"#utility.yul\":6206:6210   */\n      dup3\n        /* \"#utility.yul\":6202:6214   */\n      and\n        /* \"#utility.yul\":6233:6251   */\n      dup1\n        /* \"#utility.yul\":6223:6304   */\n      tag_167\n      jumpi\n        /* \"#utility.yul\":6289:6293   */\n      0x7f\n        /* \"#utility.yul\":6281:6287   */\n      dup3\n        /* \"#utility.yul\":6277:6294   */\n      and\n        /* \"#utility.yul\":6267:6294   */\n      swap2\n      pop\n        /* \"#utility.yul\":6223:6304   */\n    tag_167:\n        /* \"#utility.yul\":6351:6353   */\n      0x20\n        /* \"#utility.yul\":6343:6349   */\n      dup3\n        /* \"#utility.yul\":6340:6354   */\n      lt\n        /* \"#utility.yul\":6320:6338   */\n      dup2\n        /* \"#utility.yul\":6317:6355   */\n      sub\n        /* \"#utility.yul\":6314:6398   */\n      tag_168\n      jumpi\n        /* \"#utility.yul\":6370:6388   */\n      tag_169\n      tag_81\n      jump\t// in\n    tag_169:\n        /* \"#utility.yul\":6314:6398   */\n    tag_168:\n        /* \"#utility.yul\":6135:6404   */\n      pop\n        /* \"#utility.yul\":6084:6404   */\n      swap2\n      swap1\n      pop\n      jump\t// out\n        /* \"#utility.yul\":6410:6551   */\n    tag_82:\n        /* \"#utility.yul\":6459:6463   */\n      0x00\n        /* \"#utility.yul\":6482:6485   */\n      dup2\n        /* \"#utility.yul\":6474:6485   */\n      swap1\n      pop\n        /* \"#utility.yul\":6505:6508   */\n      dup2\n        /* \"#utility.yul\":6502:6503   */\n      0x00\n        /* \"#utility.yul\":6495:6509   */\n      mstore\n        /* \"#utility.yul\":6539:6543   */\n      0x20\n        /* \"#utility.yul\":6536:6537   */\n      0x00\n        /* \"#utility.yul\":6526:6544   */\n      keccak256\n        /* \"#utility.yul\":6518:6544   */\n      swap1\n      pop\n        /* \"#utility.yul\":6410:6551   */\n      swap2\n      swap1\n      pop\n      jump\t// out\n        /* \"#utility.yul\":6557:6650   */\n    tag_83:\n        /* \"#utility.yul\":6594:6600   */\n      0x00\n        /* \"#utility.yul\":6641:6643   */\n      0x20\n        /* \"#utility.yul\":6636:6638   */\n      0x1f\n        /* \"#utility.yul\":6629:6634   */\n      dup4\n        /* \"#utility.yul\":6625:6639   */\n      add\n        /* \"#utility.yul\":6621:6644   */\n      div\n        /* \"#utility.yul\":6611:6644   */\n      swap1\n      pop\n        /* \"#utility.yul\":6557:6650   */\n      swap2\n      swap1\n      pop\n      jump\t// out\n        /* \"#utility.yul\":6656:6763   */\n    tag_84:\n        /* \"#utility.yul\":6700:6708   */\n      0x00\n        /* \"#utility.yul\":6750:6755   */\n      dup3\n        /* \"#utility.yul\":6744:6748   */\n      dup3\n        /* \"#utility.yul\":6740:6756   */\n      shl\n        /* \"#utility.yul\":6719:6756   */\n      swap1\n      pop\n        /* \"#utility.yul\":6656:6763   */\n      swap3\n      swap2\n      pop\n      pop\n      jump\t// out\n        /* \"#utility.yul\":6769:7162   */\n    tag_85:\n        /* \"#utility.yul\":6838:6844   */\n      0x00\n        /* \"#utility.yul\":6888:6889   */\n      0x08\n        /* \"#utility.yul\":6876:6886   */\n      dup4\n        /* \"#utility.yul\":6872:6890   */\n      mul\n        /* \"#utility.yul\":6911:7008   */\n      tag_174\n        /* \"#utility.yul\":6941:7007   */\n      0xffffffffffffffffffffffffffffffffffffffffffffffffffffffffffffffff\n        /* \"#utility.yul\":6930:6939   */\n      dup3\n        /* \"#utility.yul\":6911:7008   */\n      tag_84\n      jump\t// in\n    tag_174:\n        /* \"#utility.yul\":7029:7068   */\n      tag_175\n        /* \"#utility.yul\":7059:7067   */\n      dup7\n        /* \"#utility.yul\":7048:7057   */\n      dup4\n        /* \"#utility.yul\":7029:7068   */\n      tag_84\n      jump\t// in\n    tag_175:\n        /* \"#utility.yul\":7017:7068   */\n      swap6\n      pop\n        /* \"#utility.yul\":7101:7105   */\n      dup1\n        /* \"#utility.yul\":7097:7106   */\n      not\n        /* \"#utility.yul\":7090:7095   */\n      dup5\n        /* \"#utility.yul\":7086:7107   */\n      and\n        /* \"#utility.yul\":7077:7107   */\n      swap4\n      pop\n        /* \"#utility.yul\":7150:7154   */\n      dup1\n        /* \"#utility.yul\":7140:7148   */\n      dup7\n        /* \"#utility.yul\":7136:7155   */\n      and\n        /* \"#utility.yul\":7129:7134   */\n      dup5\n        /* \"#utility.yul\":7126:7156   */\n      or\n        /* \"#utility.yul\":7116:7156   */\n      swap3\n      pop\n        /* \"#utility.yul\":6845:7162   */\n      pop\n      pop\n        /* \"#utility.yul\":6769:7162   */\n      swap4\n      swap3\n      pop\n      pop\n      pop\n      jump\t// out\n        /* \"#utility.yul\":7168:7228   */\n    tag_86:\n        /* \"#utility.yul\":7196:7199   */\n      0x00\n        /* \"#utility.yul\":7217:7222   */\n      dup2\n        /* \"#utility.yul\":7210:7222   */\n      swap1\n      pop\n        /* \"#utility.yul\":7168:7228   */\n      swap2\n      swap1\n      pop\n      jump\t// out\n        /* \"#utility.yul\":7234:7376   */\n    tag_87:\n        /* \"#utility.yul\":7284:7293   */\n      0x00\n        /* \"#utility.yul\":7317:7370   */\n      tag_178\n        /* \"#utility.yul\":7335:7369   */\n      tag_179\n        /* \"#utility.yul\":7344:7368   */\n      tag_180\n        /* \"#utility.yul\":7362:7367   */\n      dup5\n        /* \"#utility.yul\":7344:7368   */\n      tag_73\n      jump\t// in\n    tag_180:\n        /* \"#utility.yul\":7335:7369   */\n      tag_86\n      jump\t// in\n    tag_179:\n        /* \"#utility.yul\":7317:7370   */\n      tag_73\n      jump\t// in\n    tag_178:\n        /* \"#utility.yul\":7304:7370   */\n      swap1\n      pop\n        /* \"#utility.yul\":7234:7376   */\n      swap2\n      swap1\n      pop\n      jump\t// out\n        /* \"#utility.yul\":7382:7457   */\n    tag_88:\n        /* \"#utility.yul\":7425:7428   */\n      0x00\n        /* \"#utility.yul\":7446:7451   */\n      dup2\n        /* \"#utility.yul\":7439:7451   */\n      swap1\n      pop\n        /* \"#utility.yul\":7382:7457   */\n      swap2\n      swap1\n      pop\n      jump\t// out\n        /* \"#utility.yul\":7463:7732   */\n    tag_89:\n        /* \"#utility.yul\":7573:7612   */\n      tag_183\n        /* \"#utility.yul\":7604:7611   */\n      dup4\n        /* \"#utility.yul\":7573:7612   */\n      tag_87\n      jump\t// in\n    tag_183:\n        /* \"#utility.yul\":7634:7725   */\n      tag_184\n        /* \"#utility.yul\":7683:7724   */\n      tag_185\n        /* \"#utility.yul\":7707:7723   */\n      dup3\n        /* \"#utility.yul\":7683:7724   */\n      tag_88\n      jump\t// in\n    tag_185:\n        /* \"#utility.yul\":7675:7681   */\n      dup5\n        /* \"#utility.yul\":7668:7672   */\n      dup5\n        /* \"#utility.yul\":7662:7673   */\n      sload\n        /* \"#utility.yul\":7634:7725   */\n      tag_85\n      jump\t// in\n    tag_184:\n        /* \"#utility.yul\":7628:7632   */\n      dup3\n        /* \"#utility.yul\":7621:7726   */\n      sstore\n        /* \"#utility.yul\":7539:7732   */\n      pop\n        /* \"#utility.yul\":7463:7732   */\n      pop\n      pop\n      pop\n      jump\t// out\n        /* \"#utility.yul\":7738:7811   */\n    tag_90:\n        /* \"#utility.yul\":7783:7786   */\n      0x00\n        /* \"#utility.yul\":7738:7811   */\n      swap1\n      jump\t// out\n        /* \"#utility.yul\":7817:8006   */\n    tag_91:\n        /* \"#utility.yul\":7894:7926   */\n      tag_188\n      tag_90\n      jump\t// in\n    tag_188:\n        /* \"#utility.yul\":7935:8000   */\n      tag_189\n        /* \"#utility.yul\":7993:7999   */\n      dup2\n        /* \"#utility.yul\":7985:7991   */\n      dup5\n        /* \"#utility.yul\":7979:7983   */\n      dup5\n        /* \"#utility.yul\":7935:8000   */\n      tag_89\n      jump\t// in\n    tag_189:\n        /* \"#utility.yul\":7870:8006   */\n      pop\n        /* \"#utility.yul\":7817:8006   */\n      pop\n      pop\n      jump\t// out\n        /* \"#utility.yul\":8012:8198   */\n    tag_92:\n        /* \"#utility.yul\":8072:8192   */\n    tag_191:\n        /* \"#utility.yul\":8089:8092   */\n      dup2\n        /* \"#utility.yul\":8082:8087   */\n      dup2\n        /* \"#utility.yul\":8079:8093   */\n      lt\n        /* \"#utility.yul\":8072:8192   */\n      iszero\n      tag_193\n      jumpi\n        /* \"#utility.yul\":8143:8182   */\n      tag_194\n        /* \"#utility.yul\":8180:8181   */\n      0x00\n        /* \"#utility.yul\":8173:8178   */\n      dup3\n        /* \"#utility.yul\":8143:8182   */\n      tag_91\n      jump\t// in\n    tag_194:\n        /* \"#utility.yul\":8116:8117   */\n      0x01\n        /* \"#utility.yul\":8109:8114   */\n      dup2\n        /* \"#utility.yul\":8105:8118   */\n      add\n        /* \"#utility.yul\":8096:8118   */\n      swap1\n      pop\n        /* \"#utility.yul\":8072:8192   */\n      jump(tag_191)\n    tag_193:\n        /* \"#utility.yul\":8012:8198   */\n      pop\n      pop\n      jump\t// out\n        /* \"#utility.yul\":8204:8747   */\n    tag_93:\n        /* \"#utility.yul\":8305:8307   */\n      0x1f\n        /* \"#utility.yul\":8300:8303   */\n      dup3\n        /* \"#utility.yul\":8297:8308   */\n      gt\n        /* \"#utility.yul\":8294:8740   */\n      iszero\n      tag_196\n      jumpi\n        /* \"#utility.yul\":8339:8377   */\n      tag_197\n        /* \"#utility.yul\":8371:8376   */\n      dup2\n        /* \"#utility.yul\":8339:8377   */\n      tag_82\n      jump\t// in\n    tag_197:\n        /* \"#utility.yul\":8423:8452   */\n      tag_198\n        /* \"#utility.yul\":8441:8451   */\n      dup5\n        /* \"#utility.yul\":8423:8452   */\n      tag_83\n      jump\t// in\n    tag_198:\n        /* \"#utility.yul\":8413:8421   */\n      dup2\n        /* \"#utility.yul\":8409:8453   */\n      add\n        /* \"#utility.yul\":8606:8608   */\n      0x20\n        /* \"#utility.yul\":8594:8604   */\n      dup6\n        /* \"#utility.yul\":8591:8609   */\n      lt\n        /* \"#utility.yul\":8588:8637   */\n      iszero\n      tag_199\n      jumpi\n        /* \"#utility.yul\":8627:8635   */\n      dup2\n        /* \"#utility.yul\":8612:8635   */\n      swap1\n      pop\n        /* \"#utility.yul\":8588:8637   */\n    tag_199:\n        /* \"#utility.yul\":8650:8730   */\n      tag_200\n        /* \"#utility.yul\":8706:8728   */\n      tag_201\n        /* \"#utility.yul\":8724:8727   */\n      dup6\n        /* \"#utility.yul\":8706:8728   */\n      tag_83\n      jump\t// in\n    tag_201:\n        /* \"#utility.yul\":8696:8704   */\n      dup4\n        /* \"#utility.yul\":8692:8729   */\n      add\n        /* \"#utility.yul\":8679:8690   */\n      dup3\n        /* \"#utility.yul\":8650:8730   */\n      tag_92\n      jump\t// in\n    tag_200:\n        /* \"#utility.yul\":8309:8740   */\n      pop\n      pop\n        /* \"#utility.yul\":8294:8740   */\n    tag_196:\n        /* \"#utility.yul\":8204:8747   */\n      pop\n      pop\n      pop\n      jump\t// out\n        /* \"#utility.yul\":8753:8870   */\n    tag_94:\n        /* \"#utility.yul\":8807:8815   */\n      0x00\n        /* \"#utility.yul\":8857:8862   */\n      dup3\n        /* \"#utility.yul\":8851:8855   */\n      dup3\n        /* \"#utility.yul\":8847:8863   */\n      shr\n        /* \"#utility.yul\":8826:8863   */\n      swap1\n      pop\n        /* \"#utility.yul\":8753:8870   */\n      swap3\n      swap2\n      pop\n      pop\n      jump\t// out\n        /* \"#utility.yul\":8876:9045   */\n    tag_95:\n        /* \"#utility.yul\":8920:8926   */\n      0x00\n        /* \"#utility.yul\":8953:9004   */\n      tag_204\n        /* \"#utility.yul\":9001:9002   */\n      0x00\n        /* \"#utility.yul\":8997:9003   */\n      not\n        /* \"#utility.yul\":8989:8994   */\n      dup5\n        /* \"#utility.yul\":8986:8987   */\n      0x08\n        /* \"#utility.yul\":8982:8995   */\n      mul\n        /* \"#utility.yul\":8953:9004   */\n      tag_94\n      jump\t// in\n    tag_204:\n        /* \"#utility.yul\":8949:9005   */\n      not\n        /* \"#utility.yul\":9034:9038   */\n      dup1\n        /* \"#utility.yul\":9028:9032   */\n      dup4\n        /* \"#utility.yul\":9024:9039   */\n      and\n        /* \"#utility.yul\":9014:9039   */\n      swap2\n      pop\n        /* \"#utility.yul\":8927:9045   */\n      pop\n        /* \"#utility.yul\":8876:9045   */\n      swap3\n      swap2\n      pop\n      pop\n      jump\t// out\n        /* \"#utility.yul\":9050:9345   */\n    tag_96:\n        /* \"#utility.yul\":9126:9130   */\n      0x00\n        /* \"#utility.yul\":9272:9301   */\n      tag_206\n        /* \"#utility.yul\":9297:9300   */\n      dup4\n        /* \"#utility.yul\":9291:9295   */\n      dup4\n        /* \"#utility.yul\":9272:9301   */\n      tag_95\n      jump\t// in\n    tag_206:\n        /* \"#utility.yul\":9264:9301   */\n      swap2\n      pop\n        /* \"#utility.yul\":9334:9337   */\n      dup3\n        /* \"#utility.yul\":9331:9332   */\n      0x02\n        /* \"#utility.yul\":9327:9338   */\n      mul\n        /* \"#utility.yul\":9321:9325   */\n      dup3\n        /* \"#utility.yul\":9318:9339   */\n      or\n        /* \"#utility.yul\":9310:9339   */\n      swap1\n      pop\n        /* \"#utility.yul\":9050:9345   */\n      swap3\n      swap2\n      pop\n      pop\n      jump\t// out\n        /* \"#utility.yul\":9350:10745   */\n    tag_25:\n        /* \"#utility.yul\":9467:9504   */\n      tag_208\n        /* \"#utility.yul\":9500:9503   */\n      dup3\n        /* \"#utility.yul\":9467:9504   */\n      tag_76\n      jump\t// in\n    tag_208:\n        /* \"#utility.yul\":9569:9587   */\n      0xffffffffffffffff\n        /* \"#utility.yul\":9561:9567   */\n      dup2\n        /* \"#utility.yul\":9558:9588   */\n      gt\n        /* \"#utility.yul\":9555:9611   */\n      iszero\n      tag_209\n      jumpi\n        /* \"#utility.yul\":9591:9609   */\n      tag_210\n      tag_66\n      jump\t// in\n    tag_210:\n        /* \"#utility.yul\":9555:9611   */\n    tag_209:\n        /* \"#utility.yul\":9635:9673   */\n      tag_211\n        /* \"#utility.yul\":9667:9671   */\n      dup3\n        /* \"#utility.yul\":9661:9672   */\n      sload\n        /* \"#utility.yul\":9635:9673   */\n      tag_34\n      jump\t// in\n    tag_211:\n        /* \"#utility.yul\":9720:9787   */\n      tag_212\n        /* \"#utility.yul\":9780:9786   */\n      dup3\n        /* \"#utility.yul\":9772:9778   */\n      dup3\n        /* \"#utility.yul\":9766:9770   */\n      dup6\n        /* \"#utility.yul\":9720:9787   */\n      tag_93\n      jump\t// in\n    tag_212:\n        /* \"#utility.yul\":9814:9815   */\n      0x00\n        /* \"#utility.yul\":9838:9842   */\n      0x20\n        /* \"#utility.yul\":9825:9842   */\n      swap1\n      pop\n        /* \"#utility.yul\":9870:9872   */\n      0x1f\n        /* \"#utility.yul\":9862:9868   */\n      dup4\n        /* \"#utility.yul\":9859:9873   */\n      gt\n        /* \"#utility.yul\":9887:9888   */\n      0x01\n        /* \"#utility.yul\":9882:10500   */\n      dup2\n      eq\n      tag_214\n      jumpi\n        /* \"#utility.yul\":10544:10545   */\n      0x00\n        /* \"#utility.yul\":10561:10567   */\n      dup5\n        /* \"#utility.yul\":10558:10635   */\n      iszero\n      tag_215\n      jumpi\n        /* \"#utility.yul\":10610:10619   */\n      dup3\n        /* \"#utility.yul\":10605:10608   */\n      dup8\n        /* \"#utility.yul\":10601:10620   */\n      add\n        /* \"#utility.yul\":10595:10621   */\n      mload\n        /* \"#utility.yul\":10586:10621   */\n      swap1\n      pop\n        /* \"#utility.yul\":10558:10635   */\n    tag_215:\n        /* \"#utility.yul\":10661:10728   */\n      tag_216\n        /* \"#utility.yul\":10721:10727   */\n      dup6\n        /* \"#utility.yul\":10714:10719   */\n      dup3\n        /* \"#utility.yul\":10661:10728   */\n      tag_96\n      jump\t// in\n    tag_216:\n        /* \"#utility.yul\":10655:10659   */\n      dup7\n        /* \"#utility.yul\":10648:10729   */\n      sstore\n        /* \"#utility.yul\":10517:10739   */\n      pop\n        /* \"#utility.yul\":9852:10739   */\n      jump(tag_213)\n        /* \"#utility.yul\":9882:10500   */\n    tag_214:\n        /* \"#utility.yul\":9934:9938   */\n      0x1f\n        /* \"#utility.yul\":9930:9939   */\n      not\n        /* \"#utility.yul\":9922:9928   */\n      dup5\n        /* \"#utility.yul\":9918:9940   */\n      and\n        /* \"#utility.yul\":9968:10005   */\n      tag_217\n        /* \"#utility.yul\":10000:10004   */\n      dup7\n        /* \"#utility.yul\":9968:10005   */\n      tag_82\n      jump\t// in\n    tag_217:\n        /* \"#utility.yul\":10027:10028   */\n      0x00\n        /* \"#utility.yul\":10041:10249   */\n    tag_218:\n        /* \"#utility.yul\":10055:10062   */\n      dup3\n        /* \"#utility.yul\":10052:10053   */\n      dup2\n        /* \"#utility.yul\":10049:10063   */\n      lt\n        /* \"#utility.yul\":10041:10249   */\n      iszero\n      tag_220\n      jumpi\n        /* \"#utility.yul\":10134:10143   */\n      dup5\n        /* \"#utility.yul\":10129:10132   */\n      dup10\n        /* \"#utility.yul\":10125:10144   */\n      add\n        /* \"#utility.yul\":10119:10145   */\n      mload\n        /* \"#utility.yul\":10111:10117   */\n      dup3\n        /* \"#utility.yul\":10104:10146   */\n      sstore\n        /* \"#utility.yul\":10185:10186   */\n      0x01\n        /* \"#utility.yul\":10177:10183   */\n      dup3\n        /* \"#utility.yul\":10173:10187   */\n      add\n        /* \"#utility.yul\":10163:10187   */\n      swap2\n      pop\n        /* \"#utility.yul\":10232:10234   */\n      0x20\n        /* \"#utility.yul\":10221:10230   */\n      dup6\n        /* \"#utility.yul\":10217:10235   */\n      add\n        /* \"#utility.yul\":10204:10235   */\n      swap5\n      pop\n        /* \"#utility.yul\":10078:10082   */\n      0x20\n        /* \"#utility.yul\":10075:10076   */\n      dup2\n        /* \"#utility.yul\":10071:10083   */\n      add\n        /* \"#utility.yul\":10066:10083   */\n      swap1\n      pop\n        /* \"#utility.yul\":10041:10249   */\n      jump(tag_218)\n    tag_220:\n        /* \"#utility.yul\":10277:10283   */\n      dup7\n        /* \"#utility.yul\":10268:10275   */\n      dup4\n        /* \"#utility.yul\":10265:10284   */\n      lt\n        /* \"#utility.yul\":10262:10441   */\n      iszero\n      tag_221\n      jumpi\n        /* \"#utility.yul\":10335:10344   */\n      dup5\n        /* \"#utility.yul\":10330:10333   */\n      dup10\n        /* \"#utility.yul\":10326:10345   */\n      add\n        /* \"#utility.yul\":10320:10346   */\n      mload\n        /* \"#utility.yul\":10378:10426   */\n      tag_222\n        /* \"#utility.yul\":10420:10424   */\n      0x1f\n        /* \"#utility.yul\":10412:10418   */\n      dup10\n        /* \"#utility.yul\":10408:10425   */\n      and\n        /* \"#utility.yul\":10397:10406   */\n      dup3\n        /* \"#utility.yul\":10378:10426   */\n      tag_95\n      jump\t// in\n    tag_222:\n        /* \"#utility.yul\":10370:10376   */\n      dup4\n        /* \"#utility.yul\":10363:10427   */\n      sstore\n        /* \"#utility.yul\":10285:10441   */\n      pop\n        /* \"#utility.yul\":10262:10441   */\n    tag_221:\n        /* \"#utility.yul\":10487:10488   */\n      0x01\n        /* \"#utility.yul\":10483:10484   */\n      0x02\n        /* \"#utility.yul\":10475:10481   */\n      dup9\n        /* \"#utility.yul\":10471:10485   */\n      mul\n        /* \"#utility.yul\":10467:10489   */\n      add\n        /* \"#utility.yul\":10461:10465   */\n      dup9\n        /* \"#utility.yul\":10454:10490   */\n      sstore\n        /* \"#utility.yul\":9889:10500   */\n      pop\n      pop\n      pop\n        /* \"#utility.yul\":9852:10739   */\n    tag_213:\n      pop\n        /* \"#utility.yul\":9442:10745   */\n      pop\n      pop\n      pop\n        /* \"#utility.yul\":9350:10745   */\n      pop\n      pop\n      jump\t// out\n        /* \"#utility.yul\":10751:10900   */\n    tag_97:\n        /* \"#utility.yul\":10800:10806   */\n      0x00\n        /* \"#utility.yul\":10834:10839   */\n      dup2\n        /* \"#utility.yul\":10828:10840   */\n      sload\n        /* \"#utility.yul\":10818:10840   */\n      swap1\n      pop\n        /* \"#utility.yul\":10860:10893   */\n      tag_224\n        /* \"#utility.yul\":10886:10892   */\n      dup2\n        /* \"#utility.yul\":10860:10893   */\n      tag_34\n      jump\t// in\n    tag_224:\n        /* \"#utility.yul\":10850:10893   */\n      swap1\n      pop\n        /* \"#utility.yul\":10751:10900   */\n      swap2\n      swap1\n      pop\n      jump\t// out\n        /* \"#utility.yul\":10906:12357   */\n    tag_29:\n        /* \"#utility.yul\":11017:11020   */\n      dup2\n        /* \"#utility.yul\":11011:11015   */\n      dup2\n        /* \"#utility.yul\":11008:11021   */\n      sub\n        /* \"#utility.yul\":11005:11031   */\n      tag_226\n      jumpi\n        /* \"#utility.yul\":11024:11029   */\n      pop\n      pop\n      jump(tag_225)\n        /* \"#utility.yul\":11005:11031   */\n    tag_226:\n        /* \"#utility.yul\":11055:11089   */\n      tag_227\n        /* \"#utility.yul\":11085:11088   */\n      dup3\n        /* \"#utility.yul\":11055:11089   */\n      tag_97\n      jump\t// in\n    tag_227:\n        /* \"#utility.yul\":11154:11172   */\n      0xffffffffffffffff\n        /* \"#utility.yul\":11146:11152   */\n      dup2\n        /* \"#utility.yul\":11143:11173   */\n      gt\n        /* \"#utility.yul\":11140:11196   */\n      iszero\n      tag_228\n      jumpi\n        /* \"#utility.yul\":11176:11194   */\n      tag_229\n      tag_66\n      jump\t// in\n    tag_229:\n        /* \"#utility.yul\":11140:11196   */\n    tag_228:\n        /* \"#utility.yul\":11220:11258   */\n      tag_230\n        /* \"#utility.yul\":11252:11256   */\n      dup3\n        /* \"#utility.yul\":11246:11257   */\n      sload\n        /* \"#utility.yul\":11220:11258   */\n      tag_34\n      jump\t// in\n    tag_230:\n        /* \"#utility.yul\":11305:11372   */\n      tag_231\n        /* \"#utility.yul\":11365:11371   */\n      dup3\n        /* \"#utility.yul\":11357:11363   */\n      dup3\n        /* \"#utility.yul\":11351:11355   */\n      dup6\n        /* \"#utility.yul\":11305:11372   */\n      tag_93\n      jump\t// in\n    tag_231:\n        /* \"#utility.yul\":11399:11400   */\n      0x00\n        /* \"#utility.yul\":11428:11430   */\n      0x1f\n        /* \"#utility.yul\":11420:11426   */\n      dup4\n        /* \"#utility.yul\":11417:11431   */\n      gt\n        /* \"#utility.yul\":11445:11446   */\n      0x01\n        /* \"#utility.yul\":11440:12112   */\n      dup2\n      eq\n      tag_233\n      jumpi\n        /* \"#utility.yul\":12156:12157   */\n      0x00\n        /* \"#utility.yul\":12173:12179   */\n      dup5\n        /* \"#utility.yul\":12170:12247   */\n      iszero\n      tag_234\n      jumpi\n        /* \"#utility.yul\":12222:12231   */\n      dup3\n        /* \"#utility.yul\":12217:12220   */\n      dup8\n        /* \"#utility.yul\":12213:12232   */\n      add\n        /* \"#utility.yul\":12207:12233   */\n      sload\n        /* \"#utility.yul\":12198:12233   */\n      swap1\n      pop\n        /* \"#utility.yul\":12170:12247   */\n    tag_234:\n        /* \"#utility.yul\":12273:12340   */\n      tag_235\n        /* \"#utility.yul\":12333:12339   */\n      dup6\n        /* \"#utility.yul\":12326:12331   */\n      dup3\n        /* \"#utility.yul\":12273:12340   */\n      tag_96\n      jump\t// in\n    tag_235:\n        /* \"#utility.yul\":12267:12271   */\n      dup7\n        /* \"#utility.yul\":12260:12341   */\n      sstore\n        /* \"#utility.yul\":12129:12351   */\n      pop\n        /* \"#utility.yul\":11410:12351   */\n      jump(tag_232)\n        /* \"#utility.yul\":11440:12112   */\n    tag_233:\n        /* \"#utility.yul\":11492:11496   */\n      0x1f\n        /* \"#utility.yul\":11488:11497   */\n      not\n        /* \"#utility.yul\":11480:11486   */\n      dup5\n        /* \"#utility.yul\":11476:11498   */\n      and\n        /* \"#utility.yul\":11518:11554   */\n      tag_236\n        /* \"#utility.yul\":11550:11553   */\n      dup8\n        /* \"#utility.yul\":11518:11554   */\n      tag_82\n      jump\t// in\n    tag_236:\n        /* \"#utility.yul\":11511:11554   */\n      swap7\n      pop\n        /* \"#utility.yul\":11581:11618   */\n      tag_237\n        /* \"#utility.yul\":11613:11617   */\n      dup7\n        /* \"#utility.yul\":11581:11618   */\n      tag_82\n      jump\t// in\n    tag_237:\n        /* \"#utility.yul\":11640:11641   */\n      0x00\n        /* \"#utility.yul\":11654:11861   */\n    tag_238:\n        /* \"#utility.yul\":11668:11675   */\n      dup3\n        /* \"#utility.yul\":11665:11666   */\n      dup2\n        /* \"#utility.yul\":11662:11676   */\n      lt\n        /* \"#utility.yul\":11654:11861   */\n      iszero\n      tag_240\n      jumpi\n        /* \"#utility.yul\":11747:11756   */\n      dup5\n        /* \"#utility.yul\":11742:11745   */\n      dup10\n        /* \"#utility.yul\":11738:11757   */\n      add\n        /* \"#utility.yul\":11732:11758   */\n      sload\n        /* \"#utility.yul\":11724:11730   */\n      dup3\n        /* \"#utility.yul\":11717:11759   */\n      sstore\n        /* \"#utility.yul\":11798:11799   */\n      0x01\n        /* \"#utility.yul\":11790:11796   */\n      dup3\n        /* \"#utility.yul\":11786:11800   */\n      add\n        /* \"#utility.yul\":11776:11800   */\n      swap2\n      pop\n        /* \"#utility.yul\":11845:11846   */\n      0x01\n        /* \"#utility.yul\":11834:11843   */\n      dup6\n        /* \"#utility.yul\":11830:11847   */\n      add\n        /* \"#utility.yul\":11817:11847   */\n      swap5\n      pop\n        /* \"#utility.yul\":11691:11695   */\n      0x20\n        /* \"#utility.yul\":11688:11689   */\n      dup2\n        /* \"#utility.yul\":11684:11696   */\n      add\n        /* \"#utility.yul\":11679:11696   */\n      swap1\n      pop\n        /* \"#utility.yul\":11654:11861   */\n      jump(tag_238)\n    tag_240:\n        /* \"#utility.yul\":11889:11895   */\n      dup7\n        /* \"#utility.yul\":11880:11887   */\n      dup4\n        /* \"#utility.yul\":11877:11896   */\n      lt\n        /* \"#utility.yul\":11874:12053   */\n      iszero\n      tag_241\n      jumpi\n        /* \"#utility.yul\":11947:11956   */\n      dup5\n        /* \"#utility.yul\":11942:11945   */\n      dup10\n        /* \"#utility.yul\":11938:11957   */\n      add\n        /* \"#utility.yul\":11932:11958   */\n      sload\n        /* \"#utility.yul\":11990:12038   */\n      tag_242\n        /* \"#utility.yul\":12032:12036   */\n      0x1f\n        /* \"#utility.yul\":12024:12030   */\n      dup10\n        /* \"#utility.yul\":12020:12037   */\n      and\n        /* \"#utility.yul\":12009:12018   */\n      dup3\n        /* \"#utility.yul\":11990:12038   */\n      tag_95\n      jump\t// in\n    tag_242:\n        /* \"#utility.yul\":11982:11988   */\n      dup4\n        /* \"#utility.yul\":11975:12039   */\n      sstore\n        /* \"#utility.yul\":11897:12053   */\n      pop\n        /* \"#utility.yul\":11874:12053   */\n    tag_241:\n        /* \"#utility.yul\":12099:12100   */\n      0x01\n        /* \"#utility.yul\":12095:12096   */\n      0x02\n        /* \"#utility.yul\":12087:12093   */\n      dup9\n        /* \"#utility.yul\":12083:12097   */\n      mul\n        /* \"#utility.yul\":12079:12101   */\n      add\n        /* \"#utility.yul\":12073:12077   */\n      dup9\n        /* \"#utility.yul\":12066:12102   */\n      sstore\n        /* \"#utility.yul\":11447:12112   */\n      pop\n      pop\n      pop\n        /* \"#utility.yul\":11410:12351   */\n    tag_232:\n      pop\n        /* \"#utility.yul\":10995:12357   */\n      pop\n      pop\n      pop\n        /* \"#utility.yul\":10906:12357   */\n      pop\n      pop\n    tag_225:\n      jump\t// out\n\n    auxdata: 0xa2646970667358221220fa3985f7f9e7262b655ca63f84774852b338060117c0d221c1c9bf389d5c961f64736f6c63430008150033\n}\n",
				"bytecode": {
					"linkReferences": {},
					"object": "608060405234801561000f575f80fd5b50610b6b8061001d5f395ff3fe608060405234801561000f575f80fd5b506004361061004a575f3560e01c80631ae4b4501461004e57806371e5ee5f1461006a57806374b4ad611461009c578063db8a46c2146100b8575b5f80fd5b610068600480360381019061006391906105f3565b6100d8565b005b610084600480360381019061007f919061067b565b610168565b6040516100939392919061072f565b60405180910390f35b6100b660048036038101906100b191906105f3565b6102a9565b005b6100c0610331565b6040516100cf9392919061072f565b60405180910390f35b5f83815f0190816100e9919061096c565b50828160010190816100fb919061096c565b50818160020181905550600381908060018154018082558091505060019003905f5260205f2090600302015f909190919091505f8201815f0190816101409190610a50565b50600182018160010190816101559190610a50565b5060028201548160020155505050505050565b60038181548110610177575f80fd5b905f5260205f2090600302015f91509050805f0180546101969061079f565b80601f01602080910402602001604051908101604052809291908181526020018280546101c29061079f565b801561020d5780601f106101e45761010080835404028352916020019161020d565b820191905f5260205f20905b8154815290600101906020018083116101f057829003601f168201915b5050505050908060010180546102229061079f565b80601f016020809104026020016040519081016040528092919081815260200182805461024e9061079f565b80156102995780601f1061027057610100808354040283529160200191610299565b820191905f5260205f20905b81548152906001019060200180831161027c57829003601f168201915b5050505050908060020154905083565b6102b1610453565b83815f018190525082816020018190525081816040018181525050600381908060018154018082558091505060019003905f5260205f2090600302015f909190919091505f820151815f019081610308919061096c565b50602082015181600101908161031e919061096c565b5060408201518160020155505050505050565b5f805f0180546103409061079f565b80601f016020809104026020016040519081016040528092919081815260200182805461036c9061079f565b80156103b75780601f1061038e576101008083540402835291602001916103b7565b820191905f5260205f20905b81548152906001019060200180831161039a57829003601f168201915b5050505050908060010180546103cc9061079f565b80601f01602080910402602001604051908101604052809291908181526020018280546103f89061079f565b80156104435780601f1061041a57610100808354040283529160200191610443565b820191905f5260205f20905b81548152906001019060200180831161042657829003601f168201915b5050505050908060020154905083565b604051806060016040528060608152602001606081526020015f81525090565b5f604051905090565b5f80fd5b5f80fd5b5f80fd5b5f80fd5b5f601f19601f8301169050919050565b7f4e487b71000000000000000000000000000000000000000000000000000000005f52604160045260245ffd5b6104d28261048c565b810181811067ffffffffffffffff821117156104f1576104f061049c565b5b80604052505050565b5f610503610473565b905061050f82826104c9565b919050565b5f67ffffffffffffffff82111561052e5761052d61049c565b5b6105378261048c565b9050602081019050919050565b828183375f83830152505050565b5f61056461055f84610514565b6104fa565b9050828152602081018484840111156105805761057f610488565b5b61058b848285610544565b509392505050565b5f82601f8301126105a7576105a6610484565b5b81356105b7848260208601610552565b91505092915050565b5f819050919050565b6105d2816105c0565b81146105dc575f80fd5b50565b5f813590506105ed816105c9565b92915050565b5f805f6060848603121561060a5761060961047c565b5b5f84013567ffffffffffffffff81111561062757610626610480565b5b61063386828701610593565b935050602084013567ffffffffffffffff81111561065457610653610480565b5b61066086828701610593565b9250506040610671868287016105df565b9150509250925092565b5f602082840312156106905761068f61047c565b5b5f61069d848285016105df565b91505092915050565b5f81519050919050565b5f82825260208201905092915050565b5f5b838110156106dd5780820151818401526020810190506106c2565b5f8484015250505050565b5f6106f2826106a6565b6106fc81856106b0565b935061070c8185602086016106c0565b6107158161048c565b840191505092915050565b610729816105c0565b82525050565b5f6060820190508181035f83015261074781866106e8565b9050818103602083015261075b81856106e8565b905061076a6040830184610720565b949350505050565b7f4e487b71000000000000000000000000000000000000000000000000000000005f52602260045260245ffd5b5f60028204905060018216806107b657607f821691505b6020821081036107c9576107c8610772565b5b50919050565b5f819050815f5260205f209050919050565b5f6020601f8301049050919050565b5f82821b905092915050565b5f6008830261082b7fffffffffffffffffffffffffffffffffffffffffffffffffffffffffffffffff826107f0565b61083586836107f0565b95508019841693508086168417925050509392505050565b5f819050919050565b5f61087061086b610866846105c0565b61084d565b6105c0565b9050919050565b5f819050919050565b61088983610856565b61089d61089582610877565b8484546107fc565b825550505050565b5f90565b6108b16108a5565b6108bc818484610880565b505050565b5b818110156108df576108d45f826108a9565b6001810190506108c2565b5050565b601f821115610924576108f5816107cf565b6108fe846107e1565b8101602085101561090d578190505b610921610919856107e1565b8301826108c1565b50505b505050565b5f82821c905092915050565b5f6109445f1984600802610929565b1980831691505092915050565b5f61095c8383610935565b9150826002028217905092915050565b610975826106a6565b67ffffffffffffffff81111561098e5761098d61049c565b5b610998825461079f565b6109a38282856108e3565b5f60209050601f8311600181146109d4575f84156109c2578287015190505b6109cc8582610951565b865550610a33565b601f1984166109e2866107cf565b5f5b82811015610a09578489015182556001820191506020850194506020810190506109e4565b86831015610a265784890151610a22601f891682610935565b8355505b6001600288020188555050505b505050505050565b5f81549050610a498161079f565b9050919050565b818103610a5e575050610b33565b610a6782610a3b565b67ffffffffffffffff811115610a8057610a7f61049c565b5b610a8a825461079f565b610a958282856108e3565b5f601f831160018114610ac2575f8415610ab0578287015490505b610aba8582610951565b865550610b2c565b601f198416610ad0876107cf565b9650610adb866107cf565b5f5b82811015610b0257848901548255600182019150600185019450602081019050610add565b86831015610b1f5784890154610b1b601f891682610935565b8355505b6001600288020188555050505b5050505050505b56fea2646970667358221220fa3985f7f9e7262b655ca63f84774852b338060117c0d221c1c9bf389d5c961f64736f6c63430008150033",
					"opcodes": "PUSH1 0x80 PUSH1 0x40 MSTORE CALLVALUE DUP1 ISZERO PUSH2 0xF JUMPI PUSH0 DUP1 REVERT JUMPDEST POP PUSH2 0xB6B DUP1 PUSH2 0x1D PUSH0 CODECOPY PUSH0 RETURN INVALID PUSH1 0x80 PUSH1 0x40 MSTORE CALLVALUE DUP1 ISZERO PUSH2 0xF JUMPI PUSH0 DUP1 REVERT JUMPDEST POP PUSH1 0x4 CALLDATASIZE LT PUSH2 0x4A JUMPI PUSH0 CALLDATALOAD PUSH1 0xE0 SHR DUP1 PUSH4 0x1AE4B450 EQ PUSH2 0x4E JUMPI DUP1 PUSH4 0x71E5EE5F EQ PUSH2 0x6A JUMPI DUP1 PUSH4 0x74B4AD61 EQ PUSH2 0x9C JUMPI DUP1 PUSH4 0xDB8A46C2 EQ PUSH2 0xB8 JUMPI JUMPDEST PUSH0 DUP1 REVERT JUMPDEST PUSH2 0x68 PUSH1 0x4 DUP1 CALLDATASIZE SUB DUP2 ADD SWAP1 PUSH2 0x63 SWAP2 SWAP1 PUSH2 0x5F3 JUMP JUMPDEST PUSH2 0xD8 JUMP JUMPDEST STOP JUMPDEST PUSH2 0x84 PUSH1 0x4 DUP1 CALLDATASIZE SUB DUP2 ADD SWAP1 PUSH2 0x7F SWAP2 SWAP1 PUSH2 0x67B JUMP JUMPDEST PUSH2 0x168 JUMP JUMPDEST PUSH1 0x40 MLOAD PUSH2 0x93 SWAP4 SWAP3 SWAP2 SWAP1 PUSH2 0x72F JUMP JUMPDEST PUSH1 0x40 MLOAD DUP1 SWAP2 SUB SWAP1 RETURN JUMPDEST PUSH2 0xB6 PUSH1 0x4 DUP1 CALLDATASIZE SUB DUP2 ADD SWAP1 PUSH2 0xB1 SWAP2 SWAP1 PUSH2 0x5F3 JUMP JUMPDEST PUSH2 0x2A9 JUMP JUMPDEST STOP JUMPDEST PUSH2 0xC0 PUSH2 0x331 JUMP JUMPDEST PUSH1 0x40 MLOAD PUSH2 0xCF SWAP4 SWAP3 SWAP2 SWAP1 PUSH2 0x72F JUMP JUMPDEST PUSH1 0x40 MLOAD DUP1 SWAP2 SUB SWAP1 RETURN JUMPDEST PUSH0 DUP4 DUP2 PUSH0 ADD SWAP1 DUP2 PUSH2 0xE9 SWAP2 SWAP1 PUSH2 0x96C JUMP JUMPDEST POP DUP3 DUP2 PUSH1 0x1 ADD SWAP1 DUP2 PUSH2 0xFB SWAP2 SWAP1 PUSH2 0x96C JUMP JUMPDEST POP DUP2 DUP2 PUSH1 0x2 ADD DUP2 SWAP1 SSTORE POP PUSH1 0x3 DUP2 SWAP1 DUP1 PUSH1 0x1 DUP2 SLOAD ADD DUP1 DUP3 SSTORE DUP1 SWAP2 POP POP PUSH1 0x1 SWAP1 SUB SWAP1 PUSH0 MSTORE PUSH1 0x20 PUSH0 KECCAK256 SWAP1 PUSH1 0x3 MUL ADD PUSH0 SWAP1 SWAP2 SWAP1 SWAP2 SWAP1 SWAP2 POP PUSH0 DUP3 ADD DUP2 PUSH0 ADD SWAP1 DUP2 PUSH2 0x140 SWAP2 SWAP1 PUSH2 0xA50 JUMP JUMPDEST POP PUSH1 0x1 DUP3 ADD DUP2 PUSH1 0x1 ADD SWAP1 DUP2 PUSH2 0x155 SWAP2 SWAP1 PUSH2 0xA50 JUMP JUMPDEST POP PUSH1 0x2 DUP3 ADD SLOAD DUP2 PUSH1 0x2 ADD SSTORE POP POP POP POP POP POP JUMP JUMPDEST PUSH1 0x3 DUP2 DUP2 SLOAD DUP2 LT PUSH2 0x177 JUMPI PUSH0 DUP1 REVERT JUMPDEST SWAP1 PUSH0 MSTORE PUSH1 0x20 PUSH0 KECCAK256 SWAP1 PUSH1 0x3 MUL ADD PUSH0 SWAP2 POP SWAP1 POP DUP1 PUSH0 ADD DUP1 SLOAD PUSH2 0x196 SWAP1 PUSH2 0x79F JUMP JUMPDEST DUP1 PUSH1 0x1F ADD PUSH1 0x20 DUP1 SWAP2 DIV MUL PUSH1 0x20 ADD PUSH1 0x40 MLOAD SWAP1 DUP2 ADD PUSH1 0x40 MSTORE DUP1 SWAP3 SWAP2 SWAP1 DUP2 DUP2 MSTORE PUSH1 0x20 ADD DUP3 DUP1 SLOAD PUSH2 0x1C2 SWAP1 PUSH2 0x79F JUMP JUMPDEST DUP1 ISZERO PUSH2 0x20D JUMPI DUP1 PUSH1 0x1F LT PUSH2 0x1E4 JUMPI PUSH2 0x100 DUP1 DUP4 SLOAD DIV MUL DUP4 MSTORE SWAP2 PUSH1 0x20 ADD SWAP2 PUSH2 0x20D JUMP JUMPDEST DUP3 ADD SWAP2 SWAP1 PUSH0 MSTORE PUSH1 0x20 PUSH0 KECCAK256 SWAP1 JUMPDEST DUP2 SLOAD DUP2 MSTORE SWAP1 PUSH1 0x1 ADD SWAP1 PUSH1 0x20 ADD DUP1 DUP4 GT PUSH2 0x1F0 JUMPI DUP3 SWAP1 SUB PUSH1 0x1F AND DUP3 ADD SWAP2 JUMPDEST POP POP POP POP POP SWAP1 DUP1 PUSH1 0x1 ADD DUP1 SLOAD PUSH2 0x222 SWAP1 PUSH2 0x79F JUMP JUMPDEST DUP1 PUSH1 0x1F ADD PUSH1 0x20 DUP1 SWAP2 DIV MUL PUSH1 0x20 ADD PUSH1 0x40 MLOAD SWAP1 DUP2 ADD PUSH1 0x40 MSTORE DUP1 SWAP3 SWAP2 SWAP1 DUP2 DUP2 MSTORE PUSH1 0x20 ADD DUP3 DUP1 SLOAD PUSH2 0x24E SWAP1 PUSH2 0x79F JUMP JUMPDEST DUP1 ISZERO PUSH2 0x299 JUMPI DUP1 PUSH1 0x1F LT PUSH2 0x270 JUMPI PUSH2 0x100 DUP1 DUP4 SLOAD DIV MUL DUP4 MSTORE SWAP2 PUSH1 0x20 ADD SWAP2 PUSH2 0x299 JUMP JUMPDEST DUP3 ADD SWAP2 SWAP1 PUSH0 MSTORE PUSH1 0x20 PUSH0 KECCAK256 SWAP1 JUMPDEST DUP2 SLOAD DUP2 MSTORE SWAP1 PUSH1 0x1 ADD SWAP1 PUSH1 0x20 ADD DUP1 DUP4 GT PUSH2 0x27C JUMPI DUP3 SWAP1 SUB PUSH1 0x1F AND DUP3 ADD SWAP2 JUMPDEST POP POP POP POP POP SWAP1 DUP1 PUSH1 0x2 ADD SLOAD SWAP1 POP DUP4 JUMP JUMPDEST PUSH2 0x2B1 PUSH2 0x453 JUMP JUMPDEST DUP4 DUP2 PUSH0 ADD DUP2 SWAP1 MSTORE POP DUP3 DUP2 PUSH1 0x20 ADD DUP2 SWAP1 MSTORE POP DUP2 DUP2 PUSH1 0x40 ADD DUP2 DUP2 MSTORE POP POP PUSH1 0x3 DUP2 SWAP1 DUP1 PUSH1 0x1 DUP2 SLOAD ADD DUP1 DUP3 SSTORE DUP1 SWAP2 POP POP PUSH1 0x1 SWAP1 SUB SWAP1 PUSH0 MSTORE PUSH1 0x20 PUSH0 KECCAK256 SWAP1 PUSH1 0x3 MUL ADD PUSH0 SWAP1 SWAP2 SWAP1 SWAP2 SWAP1 SWAP2 POP PUSH0 DUP3 ADD MLOAD DUP2 PUSH0 ADD SWAP1 DUP2 PUSH2 0x308 SWAP2 SWAP1 PUSH2 0x96C JUMP JUMPDEST POP PUSH1 0x20 DUP3 ADD MLOAD DUP2 PUSH1 0x1 ADD SWAP1 DUP2 PUSH2 0x31E SWAP2 SWAP1 PUSH2 0x96C JUMP JUMPDEST POP PUSH1 0x40 DUP3 ADD MLOAD DUP2 PUSH1 0x2 ADD SSTORE POP POP POP POP POP POP JUMP JUMPDEST PUSH0 DUP1 PUSH0 ADD DUP1 SLOAD PUSH2 0x340 SWAP1 PUSH2 0x79F JUMP JUMPDEST DUP1 PUSH1 0x1F ADD PUSH1 0x20 DUP1 SWAP2 DIV MUL PUSH1 0x20 ADD PUSH1 0x40 MLOAD SWAP1 DUP2 ADD PUSH1 0x40 MSTORE DUP1 SWAP3 SWAP2 SWAP1 DUP2 DUP2 MSTORE PUSH1 0x20 ADD DUP3 DUP1 SLOAD PUSH2 0x36C SWAP1 PUSH2 0x79F JUMP JUMPDEST DUP1 ISZERO PUSH2 0x3B7 JUMPI DUP1 PUSH1 0x1F LT PUSH2 0x38E JUMPI PUSH2 0x100 DUP1 DUP4 SLOAD DIV MUL DUP4 MSTORE SWAP2 PUSH1 0x20 ADD SWAP2 PUSH2 0x3B7 JUMP JUMPDEST DUP3 ADD SWAP2 SWAP1 PUSH0 MSTORE PUSH1 0x20 PUSH0 KECCAK256 SWAP1 JUMPDEST DUP2 SLOAD DUP2 MSTORE SWAP1 PUSH1 0x1 ADD SWAP1 PUSH1 0x20 ADD DUP1 DUP4 GT PUSH2 0x39A JUMPI DUP3 SWAP1 SUB PUSH1 0x1F AND DUP3 ADD SWAP2 JUMPDEST POP POP POP POP POP SWAP1 DUP1 PUSH1 0x1 ADD DUP1 SLOAD PUSH2 0x3CC SWAP1 PUSH2 0x79F JUMP JUMPDEST DUP1 PUSH1 0x1F ADD PUSH1 0x20 DUP1 SWAP2 DIV MUL PUSH1 0x20 ADD PUSH1 0x40 MLOAD SWAP1 DUP2 ADD PUSH1 0x40 MSTORE DUP1 SWAP3 SWAP2 SWAP1 DUP2 DUP2 MSTORE PUSH1 0x20 ADD DUP3 DUP1 SLOAD PUSH2 0x3F8 SWAP1 PUSH2 0x79F JUMP JUMPDEST DUP1 ISZERO PUSH2 0x443 JUMPI DUP1 PUSH1 0x1F LT PUSH2 0x41A JUMPI PUSH2 0x100 DUP1 DUP4 SLOAD DIV MUL DUP4 MSTORE SWAP2 PUSH1 0x20 ADD SWAP2 PUSH2 0x443 JUMP JUMPDEST DUP3 ADD SWAP2 SWAP1 PUSH0 MSTORE PUSH1 0x20 PUSH0 KECCAK256 SWAP1 JUMPDEST DUP2 SLOAD DUP2 MSTORE SWAP1 PUSH1 0x1 ADD SWAP1 PUSH1 0x20 ADD DUP1 DUP4 GT PUSH2 0x426 JUMPI DUP3 SWAP1 SUB PUSH1 0x1F AND DUP3 ADD SWAP2 JUMPDEST POP POP POP POP POP SWAP1 DUP1 PUSH1 0x2 ADD SLOAD SWAP1 POP DUP4 JUMP JUMPDEST PUSH1 0x40 MLOAD DUP1 PUSH1 0x60 ADD PUSH1 0x40 MSTORE DUP1 PUSH1 0x60 DUP2 MSTORE PUSH1 0x20 ADD PUSH1 0x60 DUP2 MSTORE PUSH1 0x20 ADD PUSH0 DUP2 MSTORE POP SWAP1 JUMP JUMPDEST PUSH0 PUSH1 0x40 MLOAD SWAP1 POP SWAP1 JUMP JUMPDEST PUSH0 DUP1 REVERT JUMPDEST PUSH0 DUP1 REVERT JUMPDEST PUSH0 DUP1 REVERT JUMPDEST PUSH0 DUP1 REVERT JUMPDEST PUSH0 PUSH1 0x1F NOT PUSH1 0x1F DUP4 ADD AND SWAP1 POP SWAP2 SWAP1 POP JUMP JUMPDEST PUSH32 0x4E487B7100000000000000000000000000000000000000000000000000000000 PUSH0 MSTORE PUSH1 0x41 PUSH1 0x4 MSTORE PUSH1 0x24 PUSH0 REVERT JUMPDEST PUSH2 0x4D2 DUP3 PUSH2 0x48C JUMP JUMPDEST DUP2 ADD DUP2 DUP2 LT PUSH8 0xFFFFFFFFFFFFFFFF DUP3 GT OR ISZERO PUSH2 0x4F1 JUMPI PUSH2 0x4F0 PUSH2 0x49C JUMP JUMPDEST JUMPDEST DUP1 PUSH1 0x40 MSTORE POP POP POP JUMP JUMPDEST PUSH0 PUSH2 0x503 PUSH2 0x473 JUMP JUMPDEST SWAP1 POP PUSH2 0x50F DUP3 DUP3 PUSH2 0x4C9 JUMP JUMPDEST SWAP2 SWAP1 POP JUMP JUMPDEST PUSH0 PUSH8 0xFFFFFFFFFFFFFFFF DUP3 GT ISZERO PUSH2 0x52E JUMPI PUSH2 0x52D PUSH2 0x49C JUMP JUMPDEST JUMPDEST PUSH2 0x537 DUP3 PUSH2 0x48C JUMP JUMPDEST SWAP1 POP PUSH1 0x20 DUP2 ADD SWAP1 POP SWAP2 SWAP1 POP JUMP JUMPDEST DUP3 DUP2 DUP4 CALLDATACOPY PUSH0 DUP4 DUP4 ADD MSTORE POP POP POP JUMP JUMPDEST PUSH0 PUSH2 0x564 PUSH2 0x55F DUP5 PUSH2 0x514 JUMP JUMPDEST PUSH2 0x4FA JUMP JUMPDEST SWAP1 POP DUP3 DUP2 MSTORE PUSH1 0x20 DUP2 ADD DUP5 DUP5 DUP5 ADD GT ISZERO PUSH2 0x580 JUMPI PUSH2 0x57F PUSH2 0x488 JUMP JUMPDEST JUMPDEST PUSH2 0x58B DUP5 DUP3 DUP6 PUSH2 0x544 JUMP JUMPDEST POP SWAP4 SWAP3 POP POP POP JUMP JUMPDEST PUSH0 DUP3 PUSH1 0x1F DUP4 ADD SLT PUSH2 0x5A7 JUMPI PUSH2 0x5A6 PUSH2 0x484 JUMP JUMPDEST JUMPDEST DUP2 CALLDATALOAD PUSH2 0x5B7 DUP5 DUP3 PUSH1 0x20 DUP7 ADD PUSH2 0x552 JUMP JUMPDEST SWAP2 POP POP SWAP3 SWAP2 POP POP JUMP JUMPDEST PUSH0 DUP2 SWAP1 POP SWAP2 SWAP1 POP JUMP JUMPDEST PUSH2 0x5D2 DUP2 PUSH2 0x5C0 JUMP JUMPDEST DUP2 EQ PUSH2 0x5DC JUMPI PUSH0 DUP1 REVERT JUMPDEST POP JUMP JUMPDEST PUSH0 DUP2 CALLDATALOAD SWAP1 POP PUSH2 0x5ED DUP2 PUSH2 0x5C9 JUMP JUMPDEST SWAP3 SWAP2 POP POP JUMP JUMPDEST PUSH0 DUP1 PUSH0 PUSH1 0x60 DUP5 DUP7 SUB SLT ISZERO PUSH2 0x60A JUMPI PUSH2 0x609 PUSH2 0x47C JUMP JUMPDEST JUMPDEST PUSH0 DUP5 ADD CALLDATALOAD PUSH8 0xFFFFFFFFFFFFFFFF DUP2 GT ISZERO PUSH2 0x627 JUMPI PUSH2 0x626 PUSH2 0x480 JUMP JUMPDEST JUMPDEST PUSH2 0x633 DUP7 DUP3 DUP8 ADD PUSH2 0x593 JUMP JUMPDEST SWAP4 POP POP PUSH1 0x20 DUP5 ADD CALLDATALOAD PUSH8 0xFFFFFFFFFFFFFFFF DUP2 GT ISZERO PUSH2 0x654 JUMPI PUSH2 0x653 PUSH2 0x480 JUMP JUMPDEST JUMPDEST PUSH2 0x660 DUP7 DUP3 DUP8 ADD PUSH2 0x593 JUMP JUMPDEST SWAP3 POP POP PUSH1 0x40 PUSH2 0x671 DUP7 DUP3 DUP8 ADD PUSH2 0x5DF JUMP JUMPDEST SWAP2 POP POP SWAP3 POP SWAP3 POP SWAP3 JUMP JUMPDEST PUSH0 PUSH1 0x20 DUP3 DUP5 SUB SLT ISZERO PUSH2 0x690 JUMPI PUSH2 0x68F PUSH2 0x47C JUMP JUMPDEST JUMPDEST PUSH0 PUSH2 0x69D DUP5 DUP3 DUP6 ADD PUSH2 0x5DF JUMP JUMPDEST SWAP2 POP POP SWAP3 SWAP2 POP POP JUMP JUMPDEST PUSH0 DUP2 MLOAD SWAP1 POP SWAP2 SWAP1 POP JUMP JUMPDEST PUSH0 DUP3 DUP3 MSTORE PUSH1 0x20 DUP3 ADD SWAP1 POP SWAP3 SWAP2 POP POP JUMP JUMPDEST PUSH0 JUMPDEST DUP4 DUP2 LT ISZERO PUSH2 0x6DD JUMPI DUP1 DUP3 ADD MLOAD DUP2 DUP5 ADD MSTORE PUSH1 0x20 DUP2 ADD SWAP1 POP PUSH2 0x6C2 JUMP JUMPDEST PUSH0 DUP5 DUP5 ADD MSTORE POP POP POP POP JUMP JUMPDEST PUSH0 PUSH2 0x6F2 DUP3 PUSH2 0x6A6 JUMP JUMPDEST PUSH2 0x6FC DUP2 DUP6 PUSH2 0x6B0 JUMP JUMPDEST SWAP4 POP PUSH2 0x70C DUP2 DUP6 PUSH1 0x20 DUP7 ADD PUSH2 0x6C0 JUMP JUMPDEST PUSH2 0x715 DUP2 PUSH2 0x48C JUMP JUMPDEST DUP5 ADD SWAP2 POP POP SWAP3 SWAP2 POP POP JUMP JUMPDEST PUSH2 0x729 DUP2 PUSH2 0x5C0 JUMP JUMPDEST DUP3 MSTORE POP POP JUMP JUMPDEST PUSH0 PUSH1 0x60 DUP3 ADD SWAP1 POP DUP2 DUP2 SUB PUSH0 DUP4 ADD MSTORE PUSH2 0x747 DUP2 DUP7 PUSH2 0x6E8 JUMP JUMPDEST SWAP1 POP DUP2 DUP2 SUB PUSH1 0x20 DUP4 ADD MSTORE PUSH2 0x75B DUP2 DUP6 PUSH2 0x6E8 JUMP JUMPDEST SWAP1 POP PUSH2 0x76A PUSH1 0x40 DUP4 ADD DUP5 PUSH2 0x720 JUMP JUMPDEST SWAP5 SWAP4 POP POP POP POP JUMP JUMPDEST PUSH32 0x4E487B7100000000000000000000000000000000000000000000000000000000 PUSH0 MSTORE PUSH1 0x22 PUSH1 0x4 MSTORE PUSH1 0x24 PUSH0 REVERT JUMPDEST PUSH0 PUSH1 0x2 DUP3 DIV SWAP1 POP PUSH1 0x1 DUP3 AND DUP1 PUSH2 0x7B6 JUMPI PUSH1 0x7F DUP3 AND SWAP2 POP JUMPDEST PUSH1 0x20 DUP3 LT DUP2 SUB PUSH2 0x7C9 JUMPI PUSH2 0x7C8 PUSH2 0x772 JUMP JUMPDEST JUMPDEST POP SWAP2 SWAP1 POP JUMP JUMPDEST PUSH0 DUP2 SWAP1 POP DUP2 PUSH0 MSTORE PUSH1 0x20 PUSH0 KECCAK256 SWAP1 POP SWAP2 SWAP1 POP JUMP JUMPDEST PUSH0 PUSH1 0x20 PUSH1 0x1F DUP4 ADD DIV SWAP1 POP SWAP2 SWAP1 POP JUMP JUMPDEST PUSH0 DUP3 DUP3 SHL SWAP1 POP SWAP3 SWAP2 POP POP JUMP JUMPDEST PUSH0 PUSH1 0x8 DUP4 MUL PUSH2 0x82B PUSH32 0xFFFFFFFFFFFFFFFFFFFFFFFFFFFFFFFFFFFFFFFFFFFFFFFFFFFFFFFFFFFFFFFF DUP3 PUSH2 0x7F0 JUMP JUMPDEST PUSH2 0x835 DUP7 DUP4 PUSH2 0x7F0 JUMP JUMPDEST SWAP6 POP DUP1 NOT DUP5 AND SWAP4 POP DUP1 DUP7 AND DUP5 OR SWAP3 POP POP POP SWAP4 SWAP3 POP POP POP JUMP JUMPDEST PUSH0 DUP2 SWAP1 POP SWAP2 SWAP1 POP JUMP JUMPDEST PUSH0 PUSH2 0x870 PUSH2 0x86B PUSH2 0x866 DUP5 PUSH2 0x5C0 JUMP JUMPDEST PUSH2 0x84D JUMP JUMPDEST PUSH2 0x5C0 JUMP JUMPDEST SWAP1 POP SWAP2 SWAP1 POP JUMP JUMPDEST PUSH0 DUP2 SWAP1 POP SWAP2 SWAP1 POP JUMP JUMPDEST PUSH2 0x889 DUP4 PUSH2 0x856 JUMP JUMPDEST PUSH2 0x89D PUSH2 0x895 DUP3 PUSH2 0x877 JUMP JUMPDEST DUP5 DUP5 SLOAD PUSH2 0x7FC JUMP JUMPDEST DUP3 SSTORE POP POP POP POP JUMP JUMPDEST PUSH0 SWAP1 JUMP JUMPDEST PUSH2 0x8B1 PUSH2 0x8A5 JUMP JUMPDEST PUSH2 0x8BC DUP2 DUP5 DUP5 PUSH2 0x880 JUMP JUMPDEST POP POP POP JUMP JUMPDEST JUMPDEST DUP2 DUP2 LT ISZERO PUSH2 0x8DF JUMPI PUSH2 0x8D4 PUSH0 DUP3 PUSH2 0x8A9 JUMP JUMPDEST PUSH1 0x1 DUP2 ADD SWAP1 POP PUSH2 0x8C2 JUMP JUMPDEST POP POP JUMP JUMPDEST PUSH1 0x1F DUP3 GT ISZERO PUSH2 0x924 JUMPI PUSH2 0x8F5 DUP2 PUSH2 0x7CF JUMP JUMPDEST PUSH2 0x8FE DUP5 PUSH2 0x7E1 JUMP JUMPDEST DUP2 ADD PUSH1 0x20 DUP6 LT ISZERO PUSH2 0x90D JUMPI DUP2 SWAP1 POP JUMPDEST PUSH2 0x921 PUSH2 0x919 DUP6 PUSH2 0x7E1 JUMP JUMPDEST DUP4 ADD DUP3 PUSH2 0x8C1 JUMP JUMPDEST POP POP JUMPDEST POP POP POP JUMP JUMPDEST PUSH0 DUP3 DUP3 SHR SWAP1 POP SWAP3 SWAP2 POP POP JUMP JUMPDEST PUSH0 PUSH2 0x944 PUSH0 NOT DUP5 PUSH1 0x8 MUL PUSH2 0x929 JUMP JUMPDEST NOT DUP1 DUP4 AND SWAP2 POP POP SWAP3 SWAP2 POP POP JUMP JUMPDEST PUSH0 PUSH2 0x95C DUP4 DUP4 PUSH2 0x935 JUMP JUMPDEST SWAP2 POP DUP3 PUSH1 0x2 MUL DUP3 OR SWAP1 POP SWAP3 SWAP2 POP POP JUMP JUMPDEST PUSH2 0x975 DUP3 PUSH2 0x6A6 JUMP JUMPDEST PUSH8 0xFFFFFFFFFFFFFFFF DUP2 GT ISZERO PUSH2 0x98E JUMPI PUSH2 0x98D PUSH2 0x49C JUMP JUMPDEST JUMPDEST PUSH2 0x998 DUP3 SLOAD PUSH2 0x79F JUMP JUMPDEST PUSH2 0x9A3 DUP3 DUP3 DUP6 PUSH2 0x8E3 JUMP JUMPDEST PUSH0 PUSH1 0x20 SWAP1 POP PUSH1 0x1F DUP4 GT PUSH1 0x1 DUP2 EQ PUSH2 0x9D4 JUMPI PUSH0 DUP5 ISZERO PUSH2 0x9C2 JUMPI DUP3 DUP8 ADD MLOAD SWAP1 POP JUMPDEST PUSH2 0x9CC DUP6 DUP3 PUSH2 0x951 JUMP JUMPDEST DUP7 SSTORE POP PUSH2 0xA33 JUMP JUMPDEST PUSH1 0x1F NOT DUP5 AND PUSH2 0x9E2 DUP7 PUSH2 0x7CF JUMP JUMPDEST PUSH0 JUMPDEST DUP3 DUP2 LT ISZERO PUSH2 0xA09 JUMPI DUP5 DUP10 ADD MLOAD DUP3 SSTORE PUSH1 0x1 DUP3 ADD SWAP2 POP PUSH1 0x20 DUP6 ADD SWAP5 POP PUSH1 0x20 DUP2 ADD SWAP1 POP PUSH2 0x9E4 JUMP JUMPDEST DUP7 DUP4 LT ISZERO PUSH2 0xA26 JUMPI DUP5 DUP10 ADD MLOAD PUSH2 0xA22 PUSH1 0x1F DUP10 AND DUP3 PUSH2 0x935 JUMP JUMPDEST DUP4 SSTORE POP JUMPDEST PUSH1 0x1 PUSH1 0x2 DUP9 MUL ADD DUP9 SSTORE POP POP POP JUMPDEST POP POP POP POP POP POP JUMP JUMPDEST PUSH0 DUP2 SLOAD SWAP1 POP PUSH2 0xA49 DUP2 PUSH2 0x79F JUMP JUMPDEST SWAP1 POP SWAP2 SWAP1 POP JUMP JUMPDEST DUP2 DUP2 SUB PUSH2 0xA5E JUMPI POP POP PUSH2 0xB33 JUMP JUMPDEST PUSH2 0xA67 DUP3 PUSH2 0xA3B JUMP JUMPDEST PUSH8 0xFFFFFFFFFFFFFFFF DUP2 GT ISZERO PUSH2 0xA80 JUMPI PUSH2 0xA7F PUSH2 0x49C JUMP JUMPDEST JUMPDEST PUSH2 0xA8A DUP3 SLOAD PUSH2 0x79F JUMP JUMPDEST PUSH2 0xA95 DUP3 DUP3 DUP6 PUSH2 0x8E3 JUMP JUMPDEST PUSH0 PUSH1 0x1F DUP4 GT PUSH1 0x1 DUP2 EQ PUSH2 0xAC2 JUMPI PUSH0 DUP5 ISZERO PUSH2 0xAB0 JUMPI DUP3 DUP8 ADD SLOAD SWAP1 POP JUMPDEST PUSH2 0xABA DUP6 DUP3 PUSH2 0x951 JUMP JUMPDEST DUP7 SSTORE POP PUSH2 0xB2C JUMP JUMPDEST PUSH1 0x1F NOT DUP5 AND PUSH2 0xAD0 DUP8 PUSH2 0x7CF JUMP JUMPDEST SWAP7 POP PUSH2 0xADB DUP7 PUSH2 0x7CF JUMP JUMPDEST PUSH0 JUMPDEST DUP3 DUP2 LT ISZERO PUSH2 0xB02 JUMPI DUP5 DUP10 ADD SLOAD DUP3 SSTORE PUSH1 0x1 DUP3 ADD SWAP2 POP PUSH1 0x1 DUP6 ADD SWAP5 POP PUSH1 0x20 DUP2 ADD SWAP1 POP PUSH2 0xADD JUMP JUMPDEST DUP7 DUP4 LT ISZERO PUSH2 0xB1F JUMPI DUP5 DUP10 ADD SLOAD PUSH2 0xB1B PUSH1 0x1F DUP10 AND DUP3 PUSH2 0x935 JUMP JUMPDEST DUP4 SSTORE POP JUMPDEST PUSH1 0x1 PUSH1 0x2 DUP9 MUL ADD DUP9 SSTORE POP POP POP JUMPDEST POP POP POP POP POP POP JUMPDEST JUMP INVALID LOG2 PUSH5 0x6970667358 0x22 SLT KECCAK256 STATICCALL CODECOPY DUP6 0xF7 0xF9 0xE7 0x26 0x2B PUSH6 0x5CA63F847748 MSTORE 0xB3 CODESIZE MOD ADD OR 0xC0 0xD2 0x21 0xC1 0xC9 0xBF CODESIZE SWAP14 0x5C SWAP7 0x1F PUSH5 0x736F6C6343 STOP ADDMOD ISZERO STOP CALLER "
				},
				"gasEstimates": {
					"creation": {
						"codeDepositCost": "584600",
						"executionCost": "617",
						"totalCost": "585217"
					},
					"external": {
						"_car()": "infinite",
						"arr(uint256)": "infinite",
						"initCar1(string,string,uint256)": "infinite",
						"initCar2(string,string,uint256)": "infinite"
					}
				},
				"methodIdentifiers": {
					"_car()": "db8a46c2",
					"arr(uint256)": "71e5ee5f",
					"initCar1(string,string,uint256)": "1ae4b450",
					"initCar2(string,string,uint256)": "74b4ad61"
				}
			},
			"storageLayout": {
				"storage": [
					{
						"astId": 11,
						"contract": "contracts/7thaug.sol:task",
						"label": "_car",
						"offset": 0,
						"slot": "0",
						"type": "t_struct(CAR)8_storage"
					},
					{
						"astId": 15,
						"contract": "contracts/7thaug.sol:task",
						"label": "arr",
						"offset": 0,
						"slot": "3",
						"type": "t_array(t_struct(CAR)8_storage)dyn_storage"
					}
				],
				"types": {
					"t_array(t_struct(CAR)8_storage)dyn_storage": {
						"base": "t_struct(CAR)8_storage",
						"encoding": "dynamic_array",
						"label": "struct task.CAR[]",
						"numberOfBytes": "32"
					},
					"t_string_storage": {
						"encoding": "bytes",
						"label": "string",
						"numberOfBytes": "32"
					},
					"t_struct(CAR)8_storage": {
						"encoding": "inplace",
						"label": "struct task.CAR",
						"members": [
							{
								"astId": 3,
								"contract": "contracts/7thaug.sol:task",
								"label": "Make",
								"offset": 0,
								"slot": "0",
								"type": "t_string_storage"
							},
							{
								"astId": 5,
								"contract": "contracts/7thaug.sol:task",
								"label": "model",
								"offset": 0,
								"slot": "1",
								"type": "t_string_storage"
							},
							{
								"astId": 7,
								"contract": "contracts/7thaug.sol:task",
								"label": "Variant",
								"offset": 0,
								"slot": "2",
								"type": "t_uint256"
							}
						],
						"numberOfBytes": "96"
					},
					"t_uint256": {
						"encoding": "inplace",
						"label": "uint256",
						"numberOfBytes": "32"
					}
				}
			},
			"userdoc": {
				"kind": "user",
				"methods": {},
				"version": 1
			}
		}
	}
}