{
	"contracts/10thaug.sol": {
		"noprime": {
			"abi": [
				{
					"anonymous": false,
					"inputs": [
						{
							"indexed": false,
							"internalType": "string",
							"name": "",
							"type": "string"
						},
						{
							"indexed": false,
							"internalType": "uint256",
							"name": "",
							"type": "uint256"
						}
					],
					"name": "PrimeChecker",
					"type": "event"
				},
				{
					"inputs": [],
					"name": "PrimeNo",
					"outputs": [
						{
							"internalType": "bool",
							"name": "is_prime",
							"type": "bool"
						}
					],
					"stateMutability": "view",
					"type": "function"
				},
				{
					"inputs": [
						{
							"internalType": "uint256",
							"name": "number",
							"type": "uint256"
						}
					],
					"name": "check",
					"outputs": [],
					"stateMutability": "nonpayable",
					"type": "function"
				},
				{
					"inputs": [],
					"name": "num",
					"outputs": [
						{
							"internalType": "uint256",
							"name": "",
							"type": "uint256"
						}
					],
					"stateMutability": "view",
					"type": "function"
				},
				{
					"inputs": [
						{
							"internalType": "uint256",
							"name": "_inputNum",
							"type": "uint256"
						}
					],
					"name": "setter",
					"outputs": [],
					"stateMutability": "nonpayable",
					"type": "function"
				}
			],
			"devdoc": {
				"kind": "dev",
				"methods": {},
				"version": 1
			},
			"evm": {
				"assembly": "    /* \"contracts/10thaug.sol\":2108:2673  contract noprime{... */\n  mstore(0x40, 0x80)\n  callvalue\n  dup1\n  iszero\n  tag_1\n  jumpi\n  0x00\n  dup1\n  revert\ntag_1:\n  pop\n  dataSize(sub_0)\n  dup1\n  dataOffset(sub_0)\n  0x00\n  codecopy\n  0x00\n  return\nstop\n\nsub_0: assembly {\n        /* \"contracts/10thaug.sol\":2108:2673  contract noprime{... */\n      mstore(0x40, 0x80)\n      callvalue\n      dup1\n      iszero\n      tag_1\n      jumpi\n      0x00\n      dup1\n      revert\n    tag_1:\n      pop\n      jumpi(tag_2, lt(calldatasize, 0x04))\n      shr(0xe0, calldataload(0x00))\n      dup1\n      0x4e70b1dc\n      eq\n      tag_3\n      jumpi\n      dup1\n      0x5f72f450\n      eq\n      tag_4\n      jumpi\n      dup1\n      0x64b7eca8\n      eq\n      tag_5\n      jumpi\n      dup1\n      0xd423740b\n      eq\n      tag_6\n      jumpi\n    tag_2:\n      0x00\n      dup1\n      revert\n        /* \"contracts/10thaug.sol\":2128:2143  uint public num */\n    tag_3:\n      tag_7\n      tag_8\n      jump\t// in\n    tag_7:\n      mload(0x40)\n      tag_9\n      swap2\n      swap1\n      tag_10\n      jump\t// in\n    tag_9:\n      mload(0x40)\n      dup1\n      swap2\n      sub\n      swap1\n      return\n        /* \"contracts/10thaug.sol\":2487:2670  function check(uint number) public {... */\n    tag_4:\n      tag_11\n      0x04\n      dup1\n      calldatasize\n      sub\n      dup2\n      add\n      swap1\n      tag_12\n      swap2\n      swap1\n      tag_13\n      jump\t// in\n    tag_12:\n      tag_14\n      jump\t// in\n    tag_11:\n      stop\n        /* \"contracts/10thaug.sol\":2254:2485  function PrimeNo() public view returns (bool is_prime ) {... */\n    tag_5:\n      tag_15\n      tag_16\n      jump\t// in\n    tag_15:\n      mload(0x40)\n      tag_17\n      swap2\n      swap1\n      tag_18\n      jump\t// in\n    tag_17:\n      mload(0x40)\n      dup1\n      swap2\n      sub\n      swap1\n      return\n        /* \"contracts/10thaug.sol\":2183:2251  function setter(uint _inputNum) public{... */\n    tag_6:\n      tag_19\n      0x04\n      dup1\n      calldatasize\n      sub\n      dup2\n      add\n      swap1\n      tag_20\n      swap2\n      swap1\n      tag_13\n      jump\t// in\n    tag_20:\n      tag_21\n      jump\t// in\n    tag_19:\n      stop\n        /* \"contracts/10thaug.sol\":2128:2143  uint public num */\n    tag_8:\n      sload(0x00)\n      dup2\n      jump\t// out\n        /* \"contracts/10thaug.sol\":2487:2670  function check(uint number) public {... */\n    tag_14:\n        /* \"contracts/10thaug.sol\":2529:2535  bool n */\n      0x00\n        /* \"contracts/10thaug.sol\":2537:2546  PrimeNo() */\n      tag_23\n        /* \"contracts/10thaug.sol\":2537:2544  PrimeNo */\n      tag_16\n        /* \"contracts/10thaug.sol\":2537:2546  PrimeNo() */\n      jump\t// in\n    tag_23:\n        /* \"contracts/10thaug.sol\":2529:2546  bool n= PrimeNo() */\n      swap1\n      pop\n        /* \"contracts/10thaug.sol\":2553:2554  n */\n      dup1\n        /* \"contracts/10thaug.sol\":2549:2666  if (n)... */\n      iszero\n      tag_24\n      jumpi\n        /* \"contracts/10thaug.sol\":2562:2605  PrimeChecker('The Number is Prime', number) */\n      0x0b5f3d3a9b59fc95c9c652487826ba08506990235686bebaae78e0fd3d934e7c\n        /* \"contracts/10thaug.sol\":2598:2604  number */\n      dup3\n        /* \"contracts/10thaug.sol\":2562:2605  PrimeChecker('The Number is Prime', number) */\n      mload(0x40)\n      tag_25\n      swap2\n      swap1\n      tag_26\n      jump\t// in\n    tag_25:\n      mload(0x40)\n      dup1\n      swap2\n      sub\n      swap1\n      log1\n        /* \"contracts/10thaug.sol\":2549:2666  if (n)... */\n      jump(tag_27)\n    tag_24:\n        /* \"contracts/10thaug.sol\":2619:2666  PrimeChecker('The Number is not Prime', number) */\n      0x0b5f3d3a9b59fc95c9c652487826ba08506990235686bebaae78e0fd3d934e7c\n        /* \"contracts/10thaug.sol\":2659:2665  number */\n      dup3\n        /* \"contracts/10thaug.sol\":2619:2666  PrimeChecker('The Number is not Prime', number) */\n      mload(0x40)\n      tag_28\n      swap2\n      swap1\n      tag_29\n      jump\t// in\n    tag_28:\n      mload(0x40)\n      dup1\n      swap2\n      sub\n      swap1\n      log1\n        /* \"contracts/10thaug.sol\":2549:2666  if (n)... */\n    tag_27:\n        /* \"contracts/10thaug.sol\":2522:2670  {... */\n      pop\n        /* \"contracts/10thaug.sol\":2487:2670  function check(uint number) public {... */\n      pop\n      jump\t// out\n        /* \"contracts/10thaug.sol\":2254:2485  function PrimeNo() public view returns (bool is_prime ) {... */\n    tag_16:\n        /* \"contracts/10thaug.sol\":2294:2307  bool is_prime */\n      0x00\n        /* \"contracts/10thaug.sol\":2314:2320  uint j */\n      dup1\n        /* \"contracts/10thaug.sol\":2322:2323  2 */\n      0x02\n        /* \"contracts/10thaug.sol\":2314:2323  uint j =2 */\n      swap1\n      pop\n        /* \"contracts/10thaug.sol\":2337:2341  true */\n      0x01\n        /* \"contracts/10thaug.sol\":2327:2341  is_prime= true */\n      swap2\n      pop\n        /* \"contracts/10thaug.sol\":2356:2357  0 */\n      0x00\n        /* \"contracts/10thaug.sol\":2349:2352  num */\n      dup1\n      sload\n        /* \"contracts/10thaug.sol\":2349:2357  num == 0 */\n      eq\n        /* \"contracts/10thaug.sol\":2349:2369  num == 0 || num == 1 */\n      dup1\n      tag_31\n      jumpi\n      pop\n        /* \"contracts/10thaug.sol\":2368:2369  1 */\n      0x01\n        /* \"contracts/10thaug.sol\":2361:2364  num */\n      sload(0x00)\n        /* \"contracts/10thaug.sol\":2361:2369  num == 1 */\n      eq\n        /* \"contracts/10thaug.sol\":2349:2369  num == 0 || num == 1 */\n    tag_31:\n        /* \"contracts/10thaug.sol\":2345:2396  if (num == 0 || num == 1) {... */\n      iszero\n      tag_32\n      jumpi\n        /* \"contracts/10thaug.sol\":2386:2391  false */\n      0x00\n        /* \"contracts/10thaug.sol\":2375:2391  is_prime = false */\n      swap2\n      pop\n        /* \"contracts/10thaug.sol\":2345:2396  if (num == 0 || num == 1) {... */\n    tag_32:\n        /* \"contracts/10thaug.sol\":2399:2482  while (j <= num/2 ) {... */\n    tag_33:\n        /* \"contracts/10thaug.sol\":2415:2416  2 */\n      0x02\n        /* \"contracts/10thaug.sol\":2411:2414  num */\n      sload(0x00)\n        /* \"contracts/10thaug.sol\":2411:2416  num/2 */\n      tag_35\n      swap2\n      swap1\n      tag_36\n      jump\t// in\n    tag_35:\n        /* \"contracts/10thaug.sol\":2406:2407  j */\n      dup2\n        /* \"contracts/10thaug.sol\":2406:2416  j <= num/2 */\n      gt\n        /* \"contracts/10thaug.sol\":2399:2482  while (j <= num/2 ) {... */\n      tag_34\n      jumpi\n        /* \"contracts/10thaug.sol\":2438:2439  0 */\n      0x00\n        /* \"contracts/10thaug.sol\":2433:2434  j */\n      dup2\n        /* \"contracts/10thaug.sol\":2427:2430  num */\n      sload(0x00)\n        /* \"contracts/10thaug.sol\":2427:2434  num % j */\n      tag_37\n      swap2\n      swap1\n      tag_38\n      jump\t// in\n    tag_37:\n        /* \"contracts/10thaug.sol\":2427:2439  num % j == 0 */\n      sub\n        /* \"contracts/10thaug.sol\":2423:2473  if (num % j == 0) {... */\n      tag_39\n      jumpi\n        /* \"contracts/10thaug.sol\":2456:2461  false */\n      0x00\n        /* \"contracts/10thaug.sol\":2445:2461  is_prime = false */\n      swap2\n      pop\n        /* \"contracts/10thaug.sol\":2465:2470  break */\n      jump(tag_34)\n        /* \"contracts/10thaug.sol\":2423:2473  if (num % j == 0) {... */\n    tag_39:\n        /* \"contracts/10thaug.sol\":2476:2479  j++ */\n      dup1\n      dup1\n      tag_40\n      swap1\n      tag_41\n      jump\t// in\n    tag_40:\n      swap2\n      pop\n      pop\n        /* \"contracts/10thaug.sol\":2399:2482  while (j <= num/2 ) {... */\n      jump(tag_33)\n    tag_34:\n        /* \"contracts/10thaug.sol\":2310:2485  {... */\n      pop\n        /* \"contracts/10thaug.sol\":2254:2485  function PrimeNo() public view returns (bool is_prime ) {... */\n      swap1\n      jump\t// out\n        /* \"contracts/10thaug.sol\":2183:2251  function setter(uint _inputNum) public{... */\n    tag_21:\n        /* \"contracts/10thaug.sol\":2235:2244  _inputNum */\n      dup1\n        /* \"contracts/10thaug.sol\":2229:2232  num */\n      0x00\n        /* \"contracts/10thaug.sol\":2229:2244  num = _inputNum */\n      dup2\n      swap1\n      sstore\n      pop\n        /* \"contracts/10thaug.sol\":2183:2251  function setter(uint _inputNum) public{... */\n      pop\n      jump\t// out\n        /* \"#utility.yul\":7:84   */\n    tag_43:\n        /* \"#utility.yul\":44:51   */\n      0x00\n        /* \"#utility.yul\":73:78   */\n      dup2\n        /* \"#utility.yul\":62:78   */\n      swap1\n      pop\n        /* \"#utility.yul\":7:84   */\n      swap2\n      swap1\n      pop\n      jump\t// out\n        /* \"#utility.yul\":90:208   */\n    tag_44:\n        /* \"#utility.yul\":177:201   */\n      tag_62\n        /* \"#utility.yul\":195:200   */\n      dup2\n        /* \"#utility.yul\":177:201   */\n      tag_43\n      jump\t// in\n    tag_62:\n        /* \"#utility.yul\":172:175   */\n      dup3\n        /* \"#utility.yul\":165:202   */\n      mstore\n        /* \"#utility.yul\":90:208   */\n      pop\n      pop\n      jump\t// out\n        /* \"#utility.yul\":214:436   */\n    tag_10:\n        /* \"#utility.yul\":307:311   */\n      0x00\n        /* \"#utility.yul\":345:347   */\n      0x20\n        /* \"#utility.yul\":334:343   */\n      dup3\n        /* \"#utility.yul\":330:348   */\n      add\n        /* \"#utility.yul\":322:348   */\n      swap1\n      pop\n        /* \"#utility.yul\":358:429   */\n      tag_64\n        /* \"#utility.yul\":426:427   */\n      0x00\n        /* \"#utility.yul\":415:424   */\n      dup4\n        /* \"#utility.yul\":411:428   */\n      add\n        /* \"#utility.yul\":402:408   */\n      dup5\n        /* \"#utility.yul\":358:429   */\n      tag_44\n      jump\t// in\n    tag_64:\n        /* \"#utility.yul\":214:436   */\n      swap3\n      swap2\n      pop\n      pop\n      jump\t// out\n        /* \"#utility.yul\":523:640   */\n    tag_46:\n        /* \"#utility.yul\":632:633   */\n      0x00\n        /* \"#utility.yul\":629:630   */\n      dup1\n        /* \"#utility.yul\":622:634   */\n      revert\n        /* \"#utility.yul\":769:891   */\n    tag_48:\n        /* \"#utility.yul\":842:866   */\n      tag_69\n        /* \"#utility.yul\":860:865   */\n      dup2\n        /* \"#utility.yul\":842:866   */\n      tag_43\n      jump\t// in\n    tag_69:\n        /* \"#utility.yul\":835:840   */\n      dup2\n        /* \"#utility.yul\":832:867   */\n      eq\n        /* \"#utility.yul\":822:885   */\n      tag_70\n      jumpi\n        /* \"#utility.yul\":881:882   */\n      0x00\n        /* \"#utility.yul\":878:879   */\n      dup1\n        /* \"#utility.yul\":871:883   */\n      revert\n        /* \"#utility.yul\":822:885   */\n    tag_70:\n        /* \"#utility.yul\":769:891   */\n      pop\n      jump\t// out\n        /* \"#utility.yul\":897:1036   */\n    tag_49:\n        /* \"#utility.yul\":943:948   */\n      0x00\n        /* \"#utility.yul\":981:987   */\n      dup2\n        /* \"#utility.yul\":968:988   */\n      calldataload\n        /* \"#utility.yul\":959:988   */\n      swap1\n      pop\n        /* \"#utility.yul\":997:1030   */\n      tag_72\n        /* \"#utility.yul\":1024:1029   */\n      dup2\n        /* \"#utility.yul\":997:1030   */\n      tag_48\n      jump\t// in\n    tag_72:\n        /* \"#utility.yul\":897:1036   */\n      swap3\n      swap2\n      pop\n      pop\n      jump\t// out\n        /* \"#utility.yul\":1042:1371   */\n    tag_13:\n        /* \"#utility.yul\":1101:1107   */\n      0x00\n        /* \"#utility.yul\":1150:1152   */\n      0x20\n        /* \"#utility.yul\":1138:1147   */\n      dup3\n        /* \"#utility.yul\":1129:1136   */\n      dup5\n        /* \"#utility.yul\":1125:1148   */\n      sub\n        /* \"#utility.yul\":1121:1153   */\n      slt\n        /* \"#utility.yul\":1118:1237   */\n      iszero\n      tag_74\n      jumpi\n        /* \"#utility.yul\":1156:1235   */\n      tag_75\n      tag_46\n      jump\t// in\n    tag_75:\n        /* \"#utility.yul\":1118:1237   */\n    tag_74:\n        /* \"#utility.yul\":1276:1277   */\n      0x00\n        /* \"#utility.yul\":1301:1354   */\n      tag_76\n        /* \"#utility.yul\":1346:1353   */\n      dup5\n        /* \"#utility.yul\":1337:1343   */\n      dup3\n        /* \"#utility.yul\":1326:1335   */\n      dup6\n        /* \"#utility.yul\":1322:1344   */\n      add\n        /* \"#utility.yul\":1301:1354   */\n      tag_49\n      jump\t// in\n    tag_76:\n        /* \"#utility.yul\":1291:1354   */\n      swap2\n      pop\n        /* \"#utility.yul\":1247:1364   */\n      pop\n        /* \"#utility.yul\":1042:1371   */\n      swap3\n      swap2\n      pop\n      pop\n      jump\t// out\n        /* \"#utility.yul\":1377:1467   */\n    tag_50:\n        /* \"#utility.yul\":1411:1418   */\n      0x00\n        /* \"#utility.yul\":1454:1459   */\n      dup2\n        /* \"#utility.yul\":1447:1460   */\n      iszero\n        /* \"#utility.yul\":1440:1461   */\n      iszero\n        /* \"#utility.yul\":1429:1461   */\n      swap1\n      pop\n        /* \"#utility.yul\":1377:1467   */\n      swap2\n      swap1\n      pop\n      jump\t// out\n        /* \"#utility.yul\":1473:1582   */\n    tag_51:\n        /* \"#utility.yul\":1554:1575   */\n      tag_79\n        /* \"#utility.yul\":1569:1574   */\n      dup2\n        /* \"#utility.yul\":1554:1575   */\n      tag_50\n      jump\t// in\n    tag_79:\n        /* \"#utility.yul\":1549:1552   */\n      dup3\n        /* \"#utility.yul\":1542:1576   */\n      mstore\n        /* \"#utility.yul\":1473:1582   */\n      pop\n      pop\n      jump\t// out\n        /* \"#utility.yul\":1588:1798   */\n    tag_18:\n        /* \"#utility.yul\":1675:1679   */\n      0x00\n        /* \"#utility.yul\":1713:1715   */\n      0x20\n        /* \"#utility.yul\":1702:1711   */\n      dup3\n        /* \"#utility.yul\":1698:1716   */\n      add\n        /* \"#utility.yul\":1690:1716   */\n      swap1\n      pop\n        /* \"#utility.yul\":1726:1791   */\n      tag_81\n        /* \"#utility.yul\":1788:1789   */\n      0x00\n        /* \"#utility.yul\":1777:1786   */\n      dup4\n        /* \"#utility.yul\":1773:1790   */\n      add\n        /* \"#utility.yul\":1764:1770   */\n      dup5\n        /* \"#utility.yul\":1726:1791   */\n      tag_51\n      jump\t// in\n    tag_81:\n        /* \"#utility.yul\":1588:1798   */\n      swap3\n      swap2\n      pop\n      pop\n      jump\t// out\n        /* \"#utility.yul\":1804:1973   */\n    tag_52:\n        /* \"#utility.yul\":1888:1899   */\n      0x00\n        /* \"#utility.yul\":1922:1928   */\n      dup3\n        /* \"#utility.yul\":1917:1920   */\n      dup3\n        /* \"#utility.yul\":1910:1929   */\n      mstore\n        /* \"#utility.yul\":1962:1966   */\n      0x20\n        /* \"#utility.yul\":1957:1960   */\n      dup3\n        /* \"#utility.yul\":1953:1967   */\n      add\n        /* \"#utility.yul\":1938:1967   */\n      swap1\n      pop\n        /* \"#utility.yul\":1804:1973   */\n      swap3\n      swap2\n      pop\n      pop\n      jump\t// out\n        /* \"#utility.yul\":1979:2148   */\n    tag_53:\n        /* \"#utility.yul\":2119:2140   */\n      0x546865204e756d626572206973205072696d6500000000000000000000000000\n        /* \"#utility.yul\":2115:2116   */\n      0x00\n        /* \"#utility.yul\":2107:2113   */\n      dup3\n        /* \"#utility.yul\":2103:2117   */\n      add\n        /* \"#utility.yul\":2096:2141   */\n      mstore\n        /* \"#utility.yul\":1979:2148   */\n      pop\n      jump\t// out\n        /* \"#utility.yul\":2154:2520   */\n    tag_54:\n        /* \"#utility.yul\":2296:2299   */\n      0x00\n        /* \"#utility.yul\":2317:2384   */\n      tag_85\n        /* \"#utility.yul\":2381:2383   */\n      0x13\n        /* \"#utility.yul\":2376:2379   */\n      dup4\n        /* \"#utility.yul\":2317:2384   */\n      tag_52\n      jump\t// in\n    tag_85:\n        /* \"#utility.yul\":2310:2384   */\n      swap2\n      pop\n        /* \"#utility.yul\":2393:2486   */\n      tag_86\n        /* \"#utility.yul\":2482:2485   */\n      dup3\n        /* \"#utility.yul\":2393:2486   */\n      tag_53\n      jump\t// in\n    tag_86:\n        /* \"#utility.yul\":2511:2513   */\n      0x20\n        /* \"#utility.yul\":2506:2509   */\n      dup3\n        /* \"#utility.yul\":2502:2514   */\n      add\n        /* \"#utility.yul\":2495:2514   */\n      swap1\n      pop\n        /* \"#utility.yul\":2154:2520   */\n      swap2\n      swap1\n      pop\n      jump\t// out\n        /* \"#utility.yul\":2526:3055   */\n    tag_26:\n        /* \"#utility.yul\":2720:2724   */\n      0x00\n        /* \"#utility.yul\":2758:2760   */\n      0x40\n        /* \"#utility.yul\":2747:2756   */\n      dup3\n        /* \"#utility.yul\":2743:2761   */\n      add\n        /* \"#utility.yul\":2735:2761   */\n      swap1\n      pop\n        /* \"#utility.yul\":2807:2816   */\n      dup2\n        /* \"#utility.yul\":2801:2805   */\n      dup2\n        /* \"#utility.yul\":2797:2817   */\n      sub\n        /* \"#utility.yul\":2793:2794   */\n      0x00\n        /* \"#utility.yul\":2782:2791   */\n      dup4\n        /* \"#utility.yul\":2778:2795   */\n      add\n        /* \"#utility.yul\":2771:2818   */\n      mstore\n        /* \"#utility.yul\":2835:2966   */\n      tag_88\n        /* \"#utility.yul\":2961:2965   */\n      dup2\n        /* \"#utility.yul\":2835:2966   */\n      tag_54\n      jump\t// in\n    tag_88:\n        /* \"#utility.yul\":2827:2966   */\n      swap1\n      pop\n        /* \"#utility.yul\":2976:3048   */\n      tag_89\n        /* \"#utility.yul\":3044:3046   */\n      0x20\n        /* \"#utility.yul\":3033:3042   */\n      dup4\n        /* \"#utility.yul\":3029:3047   */\n      add\n        /* \"#utility.yul\":3020:3026   */\n      dup5\n        /* \"#utility.yul\":2976:3048   */\n      tag_44\n      jump\t// in\n    tag_89:\n        /* \"#utility.yul\":2526:3055   */\n      swap3\n      swap2\n      pop\n      pop\n      jump\t// out\n        /* \"#utility.yul\":3061:3234   */\n    tag_55:\n        /* \"#utility.yul\":3201:3226   */\n      0x546865204e756d626572206973206e6f74205072696d65000000000000000000\n        /* \"#utility.yul\":3197:3198   */\n      0x00\n        /* \"#utility.yul\":3189:3195   */\n      dup3\n        /* \"#utility.yul\":3185:3199   */\n      add\n        /* \"#utility.yul\":3178:3227   */\n      mstore\n        /* \"#utility.yul\":3061:3234   */\n      pop\n      jump\t// out\n        /* \"#utility.yul\":3240:3606   */\n    tag_56:\n        /* \"#utility.yul\":3382:3385   */\n      0x00\n        /* \"#utility.yul\":3403:3470   */\n      tag_92\n        /* \"#utility.yul\":3467:3469   */\n      0x17\n        /* \"#utility.yul\":3462:3465   */\n      dup4\n        /* \"#utility.yul\":3403:3470   */\n      tag_52\n      jump\t// in\n    tag_92:\n        /* \"#utility.yul\":3396:3470   */\n      swap2\n      pop\n        /* \"#utility.yul\":3479:3572   */\n      tag_93\n        /* \"#utility.yul\":3568:3571   */\n      dup3\n        /* \"#utility.yul\":3479:3572   */\n      tag_55\n      jump\t// in\n    tag_93:\n        /* \"#utility.yul\":3597:3599   */\n      0x20\n        /* \"#utility.yul\":3592:3595   */\n      dup3\n        /* \"#utility.yul\":3588:3600   */\n      add\n        /* \"#utility.yul\":3581:3600   */\n      swap1\n      pop\n        /* \"#utility.yul\":3240:3606   */\n      swap2\n      swap1\n      pop\n      jump\t// out\n        /* \"#utility.yul\":3612:4141   */\n    tag_29:\n        /* \"#utility.yul\":3806:3810   */\n      0x00\n        /* \"#utility.yul\":3844:3846   */\n      0x40\n        /* \"#utility.yul\":3833:3842   */\n      dup3\n        /* \"#utility.yul\":3829:3847   */\n      add\n        /* \"#utility.yul\":3821:3847   */\n      swap1\n      pop\n        /* \"#utility.yul\":3893:3902   */\n      dup2\n        /* \"#utility.yul\":3887:3891   */\n      dup2\n        /* \"#utility.yul\":3883:3903   */\n      sub\n        /* \"#utility.yul\":3879:3880   */\n      0x00\n        /* \"#utility.yul\":3868:3877   */\n      dup4\n        /* \"#utility.yul\":3864:3881   */\n      add\n        /* \"#utility.yul\":3857:3904   */\n      mstore\n        /* \"#utility.yul\":3921:4052   */\n      tag_95\n        /* \"#utility.yul\":4047:4051   */\n      dup2\n        /* \"#utility.yul\":3921:4052   */\n      tag_56\n      jump\t// in\n    tag_95:\n        /* \"#utility.yul\":3913:4052   */\n      swap1\n      pop\n        /* \"#utility.yul\":4062:4134   */\n      tag_96\n        /* \"#utility.yul\":4130:4132   */\n      0x20\n        /* \"#utility.yul\":4119:4128   */\n      dup4\n        /* \"#utility.yul\":4115:4133   */\n      add\n        /* \"#utility.yul\":4106:4112   */\n      dup5\n        /* \"#utility.yul\":4062:4134   */\n      tag_44\n      jump\t// in\n    tag_96:\n        /* \"#utility.yul\":3612:4141   */\n      swap3\n      swap2\n      pop\n      pop\n      jump\t// out\n        /* \"#utility.yul\":4147:4327   */\n    tag_57:\n        /* \"#utility.yul\":4195:4272   */\n      0x4e487b7100000000000000000000000000000000000000000000000000000000\n        /* \"#utility.yul\":4192:4193   */\n      0x00\n        /* \"#utility.yul\":4185:4273   */\n      mstore\n        /* \"#utility.yul\":4292:4296   */\n      0x12\n        /* \"#utility.yul\":4289:4290   */\n      0x04\n        /* \"#utility.yul\":4282:4297   */\n      mstore\n        /* \"#utility.yul\":4316:4320   */\n      0x24\n        /* \"#utility.yul\":4313:4314   */\n      0x00\n        /* \"#utility.yul\":4306:4321   */\n      revert\n        /* \"#utility.yul\":4333:4513   */\n    tag_58:\n        /* \"#utility.yul\":4381:4458   */\n      0x4e487b7100000000000000000000000000000000000000000000000000000000\n        /* \"#utility.yul\":4378:4379   */\n      0x00\n        /* \"#utility.yul\":4371:4459   */\n      mstore\n        /* \"#utility.yul\":4478:4482   */\n      0x11\n        /* \"#utility.yul\":4475:4476   */\n      0x04\n        /* \"#utility.yul\":4468:4483   */\n      mstore\n        /* \"#utility.yul\":4502:4506   */\n      0x24\n        /* \"#utility.yul\":4499:4500   */\n      0x00\n        /* \"#utility.yul\":4492:4507   */\n      revert\n        /* \"#utility.yul\":4519:4704   */\n    tag_36:\n        /* \"#utility.yul\":4559:4560   */\n      0x00\n        /* \"#utility.yul\":4576:4596   */\n      tag_100\n        /* \"#utility.yul\":4594:4595   */\n      dup3\n        /* \"#utility.yul\":4576:4596   */\n      tag_43\n      jump\t// in\n    tag_100:\n        /* \"#utility.yul\":4571:4596   */\n      swap2\n      pop\n        /* \"#utility.yul\":4610:4630   */\n      tag_101\n        /* \"#utility.yul\":4628:4629   */\n      dup4\n        /* \"#utility.yul\":4610:4630   */\n      tag_43\n      jump\t// in\n    tag_101:\n        /* \"#utility.yul\":4605:4630   */\n      swap3\n      pop\n        /* \"#utility.yul\":4649:4650   */\n      dup3\n        /* \"#utility.yul\":4639:4674   */\n      tag_102\n      jumpi\n        /* \"#utility.yul\":4654:4672   */\n      tag_103\n      tag_57\n      jump\t// in\n    tag_103:\n        /* \"#utility.yul\":4639:4674   */\n    tag_102:\n        /* \"#utility.yul\":4696:4697   */\n      dup3\n        /* \"#utility.yul\":4693:4694   */\n      dup3\n        /* \"#utility.yul\":4689:4698   */\n      div\n        /* \"#utility.yul\":4684:4698   */\n      swap1\n      pop\n        /* \"#utility.yul\":4519:4704   */\n      swap3\n      swap2\n      pop\n      pop\n      jump\t// out\n        /* \"#utility.yul\":4710:4886   */\n    tag_38:\n        /* \"#utility.yul\":4742:4743   */\n      0x00\n        /* \"#utility.yul\":4759:4779   */\n      tag_105\n        /* \"#utility.yul\":4777:4778   */\n      dup3\n        /* \"#utility.yul\":4759:4779   */\n      tag_43\n      jump\t// in\n    tag_105:\n        /* \"#utility.yul\":4754:4779   */\n      swap2\n      pop\n        /* \"#utility.yul\":4793:4813   */\n      tag_106\n        /* \"#utility.yul\":4811:4812   */\n      dup4\n        /* \"#utility.yul\":4793:4813   */\n      tag_43\n      jump\t// in\n    tag_106:\n        /* \"#utility.yul\":4788:4813   */\n      swap3\n      pop\n        /* \"#utility.yul\":4832:4833   */\n      dup3\n        /* \"#utility.yul\":4822:4857   */\n      tag_107\n      jumpi\n        /* \"#utility.yul\":4837:4855   */\n      tag_108\n      tag_57\n      jump\t// in\n    tag_108:\n        /* \"#utility.yul\":4822:4857   */\n    tag_107:\n        /* \"#utility.yul\":4878:4879   */\n      dup3\n        /* \"#utility.yul\":4875:4876   */\n      dup3\n        /* \"#utility.yul\":4871:4880   */\n      mod\n        /* \"#utility.yul\":4866:4880   */\n      swap1\n      pop\n        /* \"#utility.yul\":4710:4886   */\n      swap3\n      swap2\n      pop\n      pop\n      jump\t// out\n        /* \"#utility.yul\":4892:5125   */\n    tag_41:\n        /* \"#utility.yul\":4931:4934   */\n      0x00\n        /* \"#utility.yul\":4954:4978   */\n      tag_110\n        /* \"#utility.yul\":4972:4977   */\n      dup3\n        /* \"#utility.yul\":4954:4978   */\n      tag_43\n      jump\t// in\n    tag_110:\n        /* \"#utility.yul\":4945:4978   */\n      swap2\n      pop\n        /* \"#utility.yul\":5000:5066   */\n      0xffffffffffffffffffffffffffffffffffffffffffffffffffffffffffffffff\n        /* \"#utility.yul\":4993:4998   */\n      dup3\n        /* \"#utility.yul\":4990:5067   */\n      sub\n        /* \"#utility.yul\":4987:5090   */\n      tag_111\n      jumpi\n        /* \"#utility.yul\":5070:5088   */\n      tag_112\n      tag_58\n      jump\t// in\n    tag_112:\n        /* \"#utility.yul\":4987:5090   */\n    tag_111:\n        /* \"#utility.yul\":5117:5118   */\n      0x01\n        /* \"#utility.yul\":5110:5115   */\n      dup3\n        /* \"#utility.yul\":5106:5119   */\n      add\n        /* \"#utility.yul\":5099:5119   */\n      swap1\n      pop\n        /* \"#utility.yul\":4892:5125   */\n      swap2\n      swap1\n      pop\n      jump\t// out\n\n    auxdata: 0xa2646970667358221220fa6eb4c11654859b526bda73063c9e369c5253d03489e901aae2e5dc26e7f87b64736f6c63430008150033\n}\n",
				"bytecode": {
					"linkReferences": {},
					"object": "608060405234801561000f575f80fd5b506104b38061001d5f395ff3fe608060405234801561000f575f80fd5b506004361061004a575f3560e01c80634e70b1dc1461004e5780635f72f4501461006c57806364b7eca814610088578063d423740b146100a6575b5f80fd5b6100566100c2565b60405161006391906101db565b60405180910390f35b61008660048036038101906100819190610222565b6100c7565b005b610090610150565b60405161009d9190610267565b60405180910390f35b6100c060048036038101906100bb9190610222565b6101ba565b005b5f5481565b5f6100d0610150565b90508015610114577f0b5f3d3a9b59fc95c9c652487826ba08506990235686bebaae78e0fd3d934e7c8260405161010791906102da565b60405180910390a161014c565b7f0b5f3d3a9b59fc95c9c652487826ba08506990235686bebaae78e0fd3d934e7c826040516101439190610350565b60405180910390a15b5050565b5f8060029050600191505f8054148061016a575060015f54145b15610173575f91505b5b60025f5461018291906103d6565b81116101b6575f815f546101969190610406565b036101a3575f91506101b6565b80806101ae90610436565b915050610174565b5090565b805f8190555050565b5f819050919050565b6101d5816101c3565b82525050565b5f6020820190506101ee5f8301846101cc565b92915050565b5f80fd5b610201816101c3565b811461020b575f80fd5b50565b5f8135905061021c816101f8565b92915050565b5f60208284031215610237576102366101f4565b5b5f6102448482850161020e565b91505092915050565b5f8115159050919050565b6102618161024d565b82525050565b5f60208201905061027a5f830184610258565b92915050565b5f82825260208201905092915050565b7f546865204e756d626572206973205072696d65000000000000000000000000005f82015250565b5f6102c4601383610280565b91506102cf82610290565b602082019050919050565b5f6040820190508181035f8301526102f1816102b8565b905061030060208301846101cc565b92915050565b7f546865204e756d626572206973206e6f74205072696d650000000000000000005f82015250565b5f61033a601783610280565b915061034582610306565b602082019050919050565b5f6040820190508181035f8301526103678161032e565b905061037660208301846101cc565b92915050565b7f4e487b71000000000000000000000000000000000000000000000000000000005f52601260045260245ffd5b7f4e487b71000000000000000000000000000000000000000000000000000000005f52601160045260245ffd5b5f6103e0826101c3565b91506103eb836101c3565b9250826103fb576103fa61037c565b5b828204905092915050565b5f610410826101c3565b915061041b836101c3565b92508261042b5761042a61037c565b5b828206905092915050565b5f610440826101c3565b91507fffffffffffffffffffffffffffffffffffffffffffffffffffffffffffffffff8203610472576104716103a9565b5b60018201905091905056fea2646970667358221220fa6eb4c11654859b526bda73063c9e369c5253d03489e901aae2e5dc26e7f87b64736f6c63430008150033",
					"opcodes": "PUSH1 0x80 PUSH1 0x40 MSTORE CALLVALUE DUP1 ISZERO PUSH2 0xF JUMPI PUSH0 DUP1 REVERT JUMPDEST POP PUSH2 0x4B3 DUP1 PUSH2 0x1D PUSH0 CODECOPY PUSH0 RETURN INVALID PUSH1 0x80 PUSH1 0x40 MSTORE CALLVALUE DUP1 ISZERO PUSH2 0xF JUMPI PUSH0 DUP1 REVERT JUMPDEST POP PUSH1 0x4 CALLDATASIZE LT PUSH2 0x4A JUMPI PUSH0 CALLDATALOAD PUSH1 0xE0 SHR DUP1 PUSH4 0x4E70B1DC EQ PUSH2 0x4E JUMPI DUP1 PUSH4 0x5F72F450 EQ PUSH2 0x6C JUMPI DUP1 PUSH4 0x64B7ECA8 EQ PUSH2 0x88 JUMPI DUP1 PUSH4 0xD423740B EQ PUSH2 0xA6 JUMPI JUMPDEST PUSH0 DUP1 REVERT JUMPDEST PUSH2 0x56 PUSH2 0xC2 JUMP JUMPDEST PUSH1 0x40 MLOAD PUSH2 0x63 SWAP2 SWAP1 PUSH2 0x1DB JUMP JUMPDEST PUSH1 0x40 MLOAD DUP1 SWAP2 SUB SWAP1 RETURN JUMPDEST PUSH2 0x86 PUSH1 0x4 DUP1 CALLDATASIZE SUB DUP2 ADD SWAP1 PUSH2 0x81 SWAP2 SWAP1 PUSH2 0x222 JUMP JUMPDEST PUSH2 0xC7 JUMP JUMPDEST STOP JUMPDEST PUSH2 0x90 PUSH2 0x150 JUMP JUMPDEST PUSH1 0x40 MLOAD PUSH2 0x9D SWAP2 SWAP1 PUSH2 0x267 JUMP JUMPDEST PUSH1 0x40 MLOAD DUP1 SWAP2 SUB SWAP1 RETURN JUMPDEST PUSH2 0xC0 PUSH1 0x4 DUP1 CALLDATASIZE SUB DUP2 ADD SWAP1 PUSH2 0xBB SWAP2 SWAP1 PUSH2 0x222 JUMP JUMPDEST PUSH2 0x1BA JUMP JUMPDEST STOP JUMPDEST PUSH0 SLOAD DUP2 JUMP JUMPDEST PUSH0 PUSH2 0xD0 PUSH2 0x150 JUMP JUMPDEST SWAP1 POP DUP1 ISZERO PUSH2 0x114 JUMPI PUSH32 0xB5F3D3A9B59FC95C9C652487826BA08506990235686BEBAAE78E0FD3D934E7C DUP3 PUSH1 0x40 MLOAD PUSH2 0x107 SWAP2 SWAP1 PUSH2 0x2DA JUMP JUMPDEST PUSH1 0x40 MLOAD DUP1 SWAP2 SUB SWAP1 LOG1 PUSH2 0x14C JUMP JUMPDEST PUSH32 0xB5F3D3A9B59FC95C9C652487826BA08506990235686BEBAAE78E0FD3D934E7C DUP3 PUSH1 0x40 MLOAD PUSH2 0x143 SWAP2 SWAP1 PUSH2 0x350 JUMP JUMPDEST PUSH1 0x40 MLOAD DUP1 SWAP2 SUB SWAP1 LOG1 JUMPDEST POP POP JUMP JUMPDEST PUSH0 DUP1 PUSH1 0x2 SWAP1 POP PUSH1 0x1 SWAP2 POP PUSH0 DUP1 SLOAD EQ DUP1 PUSH2 0x16A JUMPI POP PUSH1 0x1 PUSH0 SLOAD EQ JUMPDEST ISZERO PUSH2 0x173 JUMPI PUSH0 SWAP2 POP JUMPDEST JUMPDEST PUSH1 0x2 PUSH0 SLOAD PUSH2 0x182 SWAP2 SWAP1 PUSH2 0x3D6 JUMP JUMPDEST DUP2 GT PUSH2 0x1B6 JUMPI PUSH0 DUP2 PUSH0 SLOAD PUSH2 0x196 SWAP2 SWAP1 PUSH2 0x406 JUMP JUMPDEST SUB PUSH2 0x1A3 JUMPI PUSH0 SWAP2 POP PUSH2 0x1B6 JUMP JUMPDEST DUP1 DUP1 PUSH2 0x1AE SWAP1 PUSH2 0x436 JUMP JUMPDEST SWAP2 POP POP PUSH2 0x174 JUMP JUMPDEST POP SWAP1 JUMP JUMPDEST DUP1 PUSH0 DUP2 SWAP1 SSTORE POP POP JUMP JUMPDEST PUSH0 DUP2 SWAP1 POP SWAP2 SWAP1 POP JUMP JUMPDEST PUSH2 0x1D5 DUP2 PUSH2 0x1C3 JUMP JUMPDEST DUP3 MSTORE POP POP JUMP JUMPDEST PUSH0 PUSH1 0x20 DUP3 ADD SWAP1 POP PUSH2 0x1EE PUSH0 DUP4 ADD DUP5 PUSH2 0x1CC JUMP JUMPDEST SWAP3 SWAP2 POP POP JUMP JUMPDEST PUSH0 DUP1 REVERT JUMPDEST PUSH2 0x201 DUP2 PUSH2 0x1C3 JUMP JUMPDEST DUP2 EQ PUSH2 0x20B JUMPI PUSH0 DUP1 REVERT JUMPDEST POP JUMP JUMPDEST PUSH0 DUP2 CALLDATALOAD SWAP1 POP PUSH2 0x21C DUP2 PUSH2 0x1F8 JUMP JUMPDEST SWAP3 SWAP2 POP POP JUMP JUMPDEST PUSH0 PUSH1 0x20 DUP3 DUP5 SUB SLT ISZERO PUSH2 0x237 JUMPI PUSH2 0x236 PUSH2 0x1F4 JUMP JUMPDEST JUMPDEST PUSH0 PUSH2 0x244 DUP5 DUP3 DUP6 ADD PUSH2 0x20E JUMP JUMPDEST SWAP2 POP POP SWAP3 SWAP2 POP POP JUMP JUMPDEST PUSH0 DUP2 ISZERO ISZERO SWAP1 POP SWAP2 SWAP1 POP JUMP JUMPDEST PUSH2 0x261 DUP2 PUSH2 0x24D JUMP JUMPDEST DUP3 MSTORE POP POP JUMP JUMPDEST PUSH0 PUSH1 0x20 DUP3 ADD SWAP1 POP PUSH2 0x27A PUSH0 DUP4 ADD DUP5 PUSH2 0x258 JUMP JUMPDEST SWAP3 SWAP2 POP POP JUMP JUMPDEST PUSH0 DUP3 DUP3 MSTORE PUSH1 0x20 DUP3 ADD SWAP1 POP SWAP3 SWAP2 POP POP JUMP JUMPDEST PUSH32 0x546865204E756D626572206973205072696D6500000000000000000000000000 PUSH0 DUP3 ADD MSTORE POP JUMP JUMPDEST PUSH0 PUSH2 0x2C4 PUSH1 0x13 DUP4 PUSH2 0x280 JUMP JUMPDEST SWAP2 POP PUSH2 0x2CF DUP3 PUSH2 0x290 JUMP JUMPDEST PUSH1 0x20 DUP3 ADD SWAP1 POP SWAP2 SWAP1 POP JUMP JUMPDEST PUSH0 PUSH1 0x40 DUP3 ADD SWAP1 POP DUP2 DUP2 SUB PUSH0 DUP4 ADD MSTORE PUSH2 0x2F1 DUP2 PUSH2 0x2B8 JUMP JUMPDEST SWAP1 POP PUSH2 0x300 PUSH1 0x20 DUP4 ADD DUP5 PUSH2 0x1CC JUMP JUMPDEST SWAP3 SWAP2 POP POP JUMP JUMPDEST PUSH32 0x546865204E756D626572206973206E6F74205072696D65000000000000000000 PUSH0 DUP3 ADD MSTORE POP JUMP JUMPDEST PUSH0 PUSH2 0x33A PUSH1 0x17 DUP4 PUSH2 0x280 JUMP JUMPDEST SWAP2 POP PUSH2 0x345 DUP3 PUSH2 0x306 JUMP JUMPDEST PUSH1 0x20 DUP3 ADD SWAP1 POP SWAP2 SWAP1 POP JUMP JUMPDEST PUSH0 PUSH1 0x40 DUP3 ADD SWAP1 POP DUP2 DUP2 SUB PUSH0 DUP4 ADD MSTORE PUSH2 0x367 DUP2 PUSH2 0x32E JUMP JUMPDEST SWAP1 POP PUSH2 0x376 PUSH1 0x20 DUP4 ADD DUP5 PUSH2 0x1CC JUMP JUMPDEST SWAP3 SWAP2 POP POP JUMP JUMPDEST PUSH32 0x4E487B7100000000000000000000000000000000000000000000000000000000 PUSH0 MSTORE PUSH1 0x12 PUSH1 0x4 MSTORE PUSH1 0x24 PUSH0 REVERT JUMPDEST PUSH32 0x4E487B7100000000000000000000000000000000000000000000000000000000 PUSH0 MSTORE PUSH1 0x11 PUSH1 0x4 MSTORE PUSH1 0x24 PUSH0 REVERT JUMPDEST PUSH0 PUSH2 0x3E0 DUP3 PUSH2 0x1C3 JUMP JUMPDEST SWAP2 POP PUSH2 0x3EB DUP4 PUSH2 0x1C3 JUMP JUMPDEST SWAP3 POP DUP3 PUSH2 0x3FB JUMPI PUSH2 0x3FA PUSH2 0x37C JUMP JUMPDEST JUMPDEST DUP3 DUP3 DIV SWAP1 POP SWAP3 SWAP2 POP POP JUMP JUMPDEST PUSH0 PUSH2 0x410 DUP3 PUSH2 0x1C3 JUMP JUMPDEST SWAP2 POP PUSH2 0x41B DUP4 PUSH2 0x1C3 JUMP JUMPDEST SWAP3 POP DUP3 PUSH2 0x42B JUMPI PUSH2 0x42A PUSH2 0x37C JUMP JUMPDEST JUMPDEST DUP3 DUP3 MOD SWAP1 POP SWAP3 SWAP2 POP POP JUMP JUMPDEST PUSH0 PUSH2 0x440 DUP3 PUSH2 0x1C3 JUMP JUMPDEST SWAP2 POP PUSH32 0xFFFFFFFFFFFFFFFFFFFFFFFFFFFFFFFFFFFFFFFFFFFFFFFFFFFFFFFFFFFFFFFF DUP3 SUB PUSH2 0x472 JUMPI PUSH2 0x471 PUSH2 0x3A9 JUMP JUMPDEST JUMPDEST PUSH1 0x1 DUP3 ADD SWAP1 POP SWAP2 SWAP1 POP JUMP INVALID LOG2 PUSH5 0x6970667358 0x22 SLT KECCAK256 STATICCALL PUSH15 0xB4C11654859B526BDA73063C9E369C MSTORE MSTORE8 0xD0 CALLVALUE DUP10 0xE9 ADD 0xAA 0xE2 0xE5 0xDC 0x26 0xE7 0xF8 PUSH28 0x64736F6C634300081500330000000000000000000000000000000000 "
				},
				"gasEstimates": {
					"creation": {
						"codeDepositCost": "240600",
						"executionCost": "279",
						"totalCost": "240879"
					},
					"external": {
						"PrimeNo()": "infinite",
						"check(uint256)": "infinite",
						"num()": "2402",
						"setter(uint256)": "22558"
					}
				},
				"methodIdentifiers": {
					"PrimeNo()": "64b7eca8",
					"check(uint256)": "5f72f450",
					"num()": "4e70b1dc",
					"setter(uint256)": "d423740b"
				}
			},
			"storageLayout": {
				"storage": [
					{
						"astId": 3,
						"contract": "contracts/10thaug.sol:noprime",
						"label": "num",
						"offset": 0,
						"slot": "0",
						"type": "t_uint256"
					}
				],
				"types": {
					"t_uint256": {
						"encoding": "inplace",
						"label": "uint256",
						"numberOfBytes": "32"
					}
				}
			},
			"userdoc": {
				"kind": "user",
				"methods": {},
				"version": 1
			}
		}
	}
}