{
	"contracts/ifelseifpart2.sol": {
		"IntegerChecker": {
			"abi": [
				{
					"inputs": [
						{
							"internalType": "uint256",
							"name": "score",
							"type": "uint256"
						}
					],
					"name": "StudentScore",
					"outputs": [
						{
							"internalType": "bool",
							"name": "",
							"type": "bool"
						},
						{
							"internalType": "string",
							"name": "",
							"type": "string"
						}
					],
					"stateMutability": "pure",
					"type": "function"
				},
				{
					"inputs": [
						{
							"internalType": "int256",
							"name": "num",
							"type": "int256"
						}
					],
					"name": "checkNum",
					"outputs": [
						{
							"internalType": "string",
							"name": "",
							"type": "string"
						}
					],
					"stateMutability": "pure",
					"type": "function"
				},
				{
					"inputs": [
						{
							"internalType": "int256",
							"name": "num",
							"type": "int256"
						}
					],
					"name": "checkNumber",
					"outputs": [
						{
							"internalType": "string",
							"name": "",
							"type": "string"
						}
					],
					"stateMutability": "pure",
					"type": "function"
				},
				{
					"inputs": [
						{
							"internalType": "uint256",
							"name": "score",
							"type": "uint256"
						}
					],
					"name": "stdScore",
					"outputs": [
						{
							"internalType": "bool",
							"name": "",
							"type": "bool"
						},
						{
							"internalType": "string",
							"name": "",
							"type": "string"
						}
					],
					"stateMutability": "pure",
					"type": "function"
				}
			],
			"devdoc": {
				"kind": "dev",
				"methods": {},
				"version": 1
			},
			"evm": {
				"assembly": "    /* \"contracts/ifelseifpart2.sol\":59:1596  contract IntegerChecker{... */\n  mstore(0x40, 0x80)\n  callvalue\n  dup1\n  iszero\n  tag_1\n  jumpi\n  0x00\n  dup1\n  revert\ntag_1:\n  pop\n  dataSize(sub_0)\n  dup1\n  dataOffset(sub_0)\n  0x00\n  codecopy\n  0x00\n  return\nstop\n\nsub_0: assembly {\n        /* \"contracts/ifelseifpart2.sol\":59:1596  contract IntegerChecker{... */\n      mstore(0x40, 0x80)\n      callvalue\n      dup1\n      iszero\n      tag_1\n      jumpi\n      0x00\n      dup1\n      revert\n    tag_1:\n      pop\n      jumpi(tag_2, lt(calldatasize, 0x04))\n      shr(0xe0, calldataload(0x00))\n      dup1\n      0x50cde9b4\n      eq\n      tag_3\n      jumpi\n      dup1\n      0x699b3d23\n      eq\n      tag_4\n      jumpi\n      dup1\n      0xd1402bf3\n      eq\n      tag_5\n      jumpi\n      dup1\n      0xefeba328\n      eq\n      tag_6\n      jumpi\n    tag_2:\n      0x00\n      dup1\n      revert\n        /* \"contracts/ifelseifpart2.sol\":634:1265  function StudentScore(uint score)public pure returns(bool, string memory){... */\n    tag_3:\n      tag_7\n      0x04\n      dup1\n      calldatasize\n      sub\n      dup2\n      add\n      swap1\n      tag_8\n      swap2\n      swap1\n      tag_9\n      jump\t// in\n    tag_8:\n      tag_10\n      jump\t// in\n    tag_7:\n      mload(0x40)\n      tag_11\n      swap3\n      swap2\n      swap1\n      tag_12\n      jump\t// in\n    tag_11:\n      mload(0x40)\n      dup1\n      swap2\n      sub\n      swap1\n      return\n        /* \"contracts/ifelseifpart2.sol\":1276:1593  function stdScore(uint score) public pure returns(bool,string memory){... */\n    tag_4:\n      tag_13\n      0x04\n      dup1\n      calldatasize\n      sub\n      dup2\n      add\n      swap1\n      tag_14\n      swap2\n      swap1\n      tag_9\n      jump\t// in\n    tag_14:\n      tag_15\n      jump\t// in\n    tag_13:\n      mload(0x40)\n      tag_16\n      swap3\n      swap2\n      swap1\n      tag_12\n      jump\t// in\n    tag_16:\n      mload(0x40)\n      dup1\n      swap2\n      sub\n      swap1\n      return\n        /* \"contracts/ifelseifpart2.sol\":89:413  function checkNumber(int num) public pure returns(string memory){... */\n    tag_5:\n      tag_17\n      0x04\n      dup1\n      calldatasize\n      sub\n      dup2\n      add\n      swap1\n      tag_18\n      swap2\n      swap1\n      tag_19\n      jump\t// in\n    tag_18:\n      tag_20\n      jump\t// in\n    tag_17:\n      mload(0x40)\n      tag_21\n      swap2\n      swap1\n      tag_22\n      jump\t// in\n    tag_21:\n      mload(0x40)\n      dup1\n      swap2\n      sub\n      swap1\n      return\n        /* \"contracts/ifelseifpart2.sol\":419:624  function checkNum(int num) public pure returns (string memory){... */\n    tag_6:\n      tag_23\n      0x04\n      dup1\n      calldatasize\n      sub\n      dup2\n      add\n      swap1\n      tag_24\n      swap2\n      swap1\n      tag_19\n      jump\t// in\n    tag_24:\n      tag_25\n      jump\t// in\n    tag_23:\n      mload(0x40)\n      tag_26\n      swap2\n      swap1\n      tag_22\n      jump\t// in\n    tag_26:\n      mload(0x40)\n      dup1\n      swap2\n      sub\n      swap1\n      return\n        /* \"contracts/ifelseifpart2.sol\":634:1265  function StudentScore(uint score)public pure returns(bool, string memory){... */\n    tag_10:\n        /* \"contracts/ifelseifpart2.sol\":687:691  bool */\n      0x00\n        /* \"contracts/ifelseifpart2.sol\":693:706  string memory */\n      0x60\n        /* \"contracts/ifelseifpart2.sol\":730:732  60 */\n      0x3c\n        /* \"contracts/ifelseifpart2.sol\":721:726  score */\n      dup4\n        /* \"contracts/ifelseifpart2.sol\":721:732  score >= 60 */\n      lt\n        /* \"contracts/ifelseifpart2.sol\":718:974  if(score >= 60){... */\n      tag_28\n      jumpi\n        /* \"contracts/ifelseifpart2.sol\":760:762  80 */\n      0x50\n        /* \"contracts/ifelseifpart2.sol\":751:756  score */\n      dup4\n        /* \"contracts/ifelseifpart2.sol\":751:762  score >= 80 */\n      lt\n      iszero\n        /* \"contracts/ifelseifpart2.sol\":751:778  score >= 80 && score <= 100 */\n      dup1\n      iszero\n      tag_29\n      jumpi\n      pop\n        /* \"contracts/ifelseifpart2.sol\":775:778  100 */\n      0x64\n        /* \"contracts/ifelseifpart2.sol\":766:771  score */\n      dup4\n        /* \"contracts/ifelseifpart2.sol\":766:778  score <= 100 */\n      gt\n      iszero\n        /* \"contracts/ifelseifpart2.sol\":751:778  score >= 80 && score <= 100 */\n    tag_29:\n        /* \"contracts/ifelseifpart2.sol\":748:849  if(score >= 80 && score <= 100){... */\n      iszero\n      tag_30\n      jumpi\n        /* \"contracts/ifelseifpart2.sol\":806:810  true */\n      0x01\n        /* \"contracts/ifelseifpart2.sol\":798:833  return (true,\"Archieved Grade : A\") */\n      mload(0x40)\n      dup1\n      0x40\n      add\n      0x40\n      mstore\n      dup1\n      0x13\n      dup2\n      mstore\n      0x20\n      add\n      0x417263686965766564204772616465203a204100000000000000000000000000\n      dup2\n      mstore\n      pop\n      swap2\n      pop\n      swap2\n      pop\n      jump(tag_27)\n        /* \"contracts/ifelseifpart2.sol\":748:849  if(score >= 80 && score <= 100){... */\n    tag_30:\n        /* \"contracts/ifelseifpart2.sol\":875:877  60 */\n      0x3c\n        /* \"contracts/ifelseifpart2.sol\":866:871  score */\n      dup4\n        /* \"contracts/ifelseifpart2.sol\":866:877  score >= 60 */\n      lt\n      iszero\n        /* \"contracts/ifelseifpart2.sol\":866:892  score >= 60 && score <= 79 */\n      dup1\n      iszero\n      tag_31\n      jumpi\n      pop\n        /* \"contracts/ifelseifpart2.sol\":890:892  79 */\n      0x4f\n        /* \"contracts/ifelseifpart2.sol\":881:886  score */\n      dup4\n        /* \"contracts/ifelseifpart2.sol\":881:892  score <= 79 */\n      gt\n      iszero\n        /* \"contracts/ifelseifpart2.sol\":866:892  score >= 60 && score <= 79 */\n    tag_31:\n        /* \"contracts/ifelseifpart2.sol\":863:963  if(score >= 60 && score <= 79){... */\n      iszero\n      tag_32\n      jumpi\n        /* \"contracts/ifelseifpart2.sol\":920:924  true */\n      0x01\n        /* \"contracts/ifelseifpart2.sol\":912:947  return (true,\"Archieved Grade : B\") */\n      mload(0x40)\n      dup1\n      0x40\n      add\n      0x40\n      mstore\n      dup1\n      0x13\n      dup2\n      mstore\n      0x20\n      add\n      0x417263686965766564204772616465203a204200000000000000000000000000\n      dup2\n      mstore\n      pop\n      swap2\n      pop\n      swap2\n      pop\n      jump(tag_27)\n        /* \"contracts/ifelseifpart2.sol\":863:963  if(score >= 60 && score <= 79){... */\n    tag_32:\n        /* \"contracts/ifelseifpart2.sol\":718:974  if(score >= 60){... */\n    tag_28:\n        /* \"contracts/ifelseifpart2.sol\":995:997  60 */\n      0x3c\n        /* \"contracts/ifelseifpart2.sol\":987:992  score */\n      dup4\n        /* \"contracts/ifelseifpart2.sol\":987:997  score < 60 */\n      lt\n        /* \"contracts/ifelseifpart2.sol\":984:1256  if(score < 60){... */\n      iszero\n      tag_33\n      jumpi\n        /* \"contracts/ifelseifpart2.sol\":1025:1027  40 */\n      0x28\n        /* \"contracts/ifelseifpart2.sol\":1016:1021  score */\n      dup4\n        /* \"contracts/ifelseifpart2.sol\":1016:1027  score >= 40 */\n      lt\n      iszero\n        /* \"contracts/ifelseifpart2.sol\":1016:1041  score >= 40 && score <=59 */\n      dup1\n      iszero\n      tag_34\n      jumpi\n      pop\n        /* \"contracts/ifelseifpart2.sol\":1039:1041  59 */\n      0x3b\n        /* \"contracts/ifelseifpart2.sol\":1031:1036  score */\n      dup4\n        /* \"contracts/ifelseifpart2.sol\":1031:1041  score <=59 */\n      gt\n      iszero\n        /* \"contracts/ifelseifpart2.sol\":1016:1041  score >= 40 && score <=59 */\n    tag_34:\n        /* \"contracts/ifelseifpart2.sol\":1013:1235  if(score >= 40 && score <=59){... */\n      iszero\n      tag_35\n      jumpi\n        /* \"contracts/ifelseifpart2.sol\":1070:1075  false */\n      0x00\n        /* \"contracts/ifelseifpart2.sol\":1061:1098  return  (false,\"Archieved Grade : C\") */\n      mload(0x40)\n      dup1\n      0x40\n      add\n      0x40\n      mstore\n      dup1\n      0x13\n      dup2\n      mstore\n      0x20\n      add\n      0x417263686965766564204772616465203a204300000000000000000000000000\n      dup2\n      mstore\n      pop\n      swap2\n      pop\n      swap2\n      pop\n      jump(tag_27)\n        /* \"contracts/ifelseifpart2.sol\":1013:1235  if(score >= 40 && score <=59){... */\n    tag_35:\n        /* \"contracts/ifelseifpart2.sol\":1144:1145  0 */\n      0x00\n        /* \"contracts/ifelseifpart2.sol\":1136:1141  score */\n      dup4\n        /* \"contracts/ifelseifpart2.sol\":1136:1145  score >=0 */\n      lt\n      iszero\n        /* \"contracts/ifelseifpart2.sol\":1136:1160  score >=0 && score <= 39 */\n      dup1\n      iszero\n      tag_37\n      jumpi\n      pop\n        /* \"contracts/ifelseifpart2.sol\":1158:1160  39 */\n      0x27\n        /* \"contracts/ifelseifpart2.sol\":1149:1154  score */\n      dup4\n        /* \"contracts/ifelseifpart2.sol\":1149:1160  score <= 39 */\n      gt\n      iszero\n        /* \"contracts/ifelseifpart2.sol\":1136:1160  score >=0 && score <= 39 */\n    tag_37:\n        /* \"contracts/ifelseifpart2.sol\":1133:1235  if(score >=0 && score <= 39){... */\n      iszero\n      tag_38\n      jumpi\n        /* \"contracts/ifelseifpart2.sol\":1188:1193  false */\n      0x00\n        /* \"contracts/ifelseifpart2.sol\":1180:1219  return (false,\"Better Luck Next Time.\") */\n      mload(0x40)\n      dup1\n      0x40\n      add\n      0x40\n      mstore\n      dup1\n      0x16\n      dup2\n      mstore\n      0x20\n      add\n      0x426574746572204c75636b204e6578742054696d652e00000000000000000000\n      dup2\n      mstore\n      pop\n      swap2\n      pop\n      swap2\n      pop\n      jump(tag_27)\n        /* \"contracts/ifelseifpart2.sol\":1133:1235  if(score >=0 && score <= 39){... */\n    tag_38:\n        /* \"contracts/ifelseifpart2.sol\":984:1256  if(score < 60){... */\n    tag_33:\n        /* \"contracts/ifelseifpart2.sol\":634:1265  function StudentScore(uint score)public pure returns(bool, string memory){... */\n    tag_27:\n      swap2\n      pop\n      swap2\n      jump\t// out\n        /* \"contracts/ifelseifpart2.sol\":1276:1593  function stdScore(uint score) public pure returns(bool,string memory){... */\n    tag_15:\n        /* \"contracts/ifelseifpart2.sol\":1326:1330  bool */\n      0x00\n        /* \"contracts/ifelseifpart2.sol\":1331:1344  string memory */\n      0x60\n        /* \"contracts/ifelseifpart2.sol\":1385:1387  60 */\n      0x3c\n        /* \"contracts/ifelseifpart2.sol\":1376:1381  score */\n      dup4\n        /* \"contracts/ifelseifpart2.sol\":1376:1387  score >= 60 */\n      lt\n      iszero\n        /* \"contracts/ifelseifpart2.sol\":1375:1579  (score >= 60) ? (true ,((score >= 80 && score <= 100) ? \"Archieved Grade : A\" :\"Archieved Grade : B\") ):... */\n      tag_40\n      jumpi\n        /* \"contracts/ifelseifpart2.sol\":1492:1497  false */\n      0x00\n        /* \"contracts/ifelseifpart2.sol\":1509:1511  40 */\n      0x28\n        /* \"contracts/ifelseifpart2.sol\":1500:1505  score */\n      dup5\n        /* \"contracts/ifelseifpart2.sol\":1500:1511  score >= 40 */\n      lt\n      iszero\n        /* \"contracts/ifelseifpart2.sol\":1500:1525  score >= 40 && score <=59 */\n      dup1\n      iszero\n      tag_41\n      jumpi\n      pop\n        /* \"contracts/ifelseifpart2.sol\":1523:1525  59 */\n      0x3b\n        /* \"contracts/ifelseifpart2.sol\":1515:1520  score */\n      dup5\n        /* \"contracts/ifelseifpart2.sol\":1515:1525  score <=59 */\n      gt\n      iszero\n        /* \"contracts/ifelseifpart2.sol\":1500:1525  score >= 40 && score <=59 */\n    tag_41:\n        /* \"contracts/ifelseifpart2.sol\":1499:1577  (score >= 40 && score <=59) ? \"Archieved Grade : C\" : \"Better Luck Next Time.\" */\n      tag_42\n      jumpi\n      mload(0x40)\n      dup1\n      0x40\n      add\n      0x40\n      mstore\n      dup1\n      0x16\n      dup2\n      mstore\n      0x20\n      add\n      0x426574746572204c75636b204e6578742054696d652e00000000000000000000\n      dup2\n      mstore\n      pop\n      jump(tag_43)\n    tag_42:\n      mload(0x40)\n      dup1\n      0x40\n      add\n      0x40\n      mstore\n      dup1\n      0x13\n      dup2\n      mstore\n      0x20\n      add\n      0x417263686965766564204772616465203a204300000000000000000000000000\n      dup2\n      mstore\n      pop\n    tag_43:\n        /* \"contracts/ifelseifpart2.sol\":1375:1579  (score >= 60) ? (true ,((score >= 80 && score <= 100) ? \"Archieved Grade : A\" :\"Archieved Grade : B\") ):... */\n      jump(tag_44)\n    tag_40:\n        /* \"contracts/ifelseifpart2.sol\":1392:1396  true */\n      0x01\n        /* \"contracts/ifelseifpart2.sol\":1409:1411  80 */\n      0x50\n        /* \"contracts/ifelseifpart2.sol\":1400:1405  score */\n      dup5\n        /* \"contracts/ifelseifpart2.sol\":1400:1411  score >= 80 */\n      lt\n      iszero\n        /* \"contracts/ifelseifpart2.sol\":1400:1427  score >= 80 && score <= 100 */\n      dup1\n      iszero\n      tag_45\n      jumpi\n      pop\n        /* \"contracts/ifelseifpart2.sol\":1424:1427  100 */\n      0x64\n        /* \"contracts/ifelseifpart2.sol\":1415:1420  score */\n      dup5\n        /* \"contracts/ifelseifpart2.sol\":1415:1427  score <= 100 */\n      gt\n      iszero\n        /* \"contracts/ifelseifpart2.sol\":1400:1427  score >= 80 && score <= 100 */\n    tag_45:\n        /* \"contracts/ifelseifpart2.sol\":1399:1475  (score >= 80 && score <= 100) ? \"Archieved Grade : A\" :\"Archieved Grade : B\" */\n      tag_46\n      jumpi\n      mload(0x40)\n      dup1\n      0x40\n      add\n      0x40\n      mstore\n      dup1\n      0x13\n      dup2\n      mstore\n      0x20\n      add\n      0x417263686965766564204772616465203a204200000000000000000000000000\n      dup2\n      mstore\n      pop\n      jump(tag_47)\n    tag_46:\n      mload(0x40)\n      dup1\n      0x40\n      add\n      0x40\n      mstore\n      dup1\n      0x13\n      dup2\n      mstore\n      0x20\n      add\n      0x417263686965766564204772616465203a204100000000000000000000000000\n      dup2\n      mstore\n      pop\n    tag_47:\n        /* \"contracts/ifelseifpart2.sol\":1375:1579  (score >= 60) ? (true ,((score >= 80 && score <= 100) ? \"Archieved Grade : A\" :\"Archieved Grade : B\") ):... */\n    tag_44:\n        /* \"contracts/ifelseifpart2.sol\":1355:1579  return... */\n      swap2\n      pop\n      swap2\n      pop\n        /* \"contracts/ifelseifpart2.sol\":1276:1593  function stdScore(uint score) public pure returns(bool,string memory){... */\n      swap2\n      pop\n      swap2\n      jump\t// out\n        /* \"contracts/ifelseifpart2.sol\":89:413  function checkNumber(int num) public pure returns(string memory){... */\n    tag_20:\n        /* \"contracts/ifelseifpart2.sol\":139:152  string memory */\n      0x60\n        /* \"contracts/ifelseifpart2.sol\":173:174  0 */\n      0x00\n        /* \"contracts/ifelseifpart2.sol\":167:170  num */\n      dup3\n        /* \"contracts/ifelseifpart2.sol\":167:174  num < 0 */\n      slt\n        /* \"contracts/ifelseifpart2.sol\":164:406  if(num < 0){... */\n      iszero\n      tag_49\n      jumpi\n        /* \"contracts/ifelseifpart2.sol\":190:225  return  \"Number is less than zero.\" */\n      mload(0x40)\n      dup1\n      0x40\n      add\n      0x40\n      mstore\n      dup1\n      0x19\n      dup2\n      mstore\n      0x20\n      add\n      0x4e756d626572206973206c657373207468616e207a65726f2e00000000000000\n      dup2\n      mstore\n      pop\n      swap1\n      pop\n      jump(tag_48)\n        /* \"contracts/ifelseifpart2.sol\":164:406  if(num < 0){... */\n    tag_49:\n        /* \"contracts/ifelseifpart2.sol\":262:263  0 */\n      0x00\n        /* \"contracts/ifelseifpart2.sol\":256:259  num */\n      dup3\n        /* \"contracts/ifelseifpart2.sol\":256:263  num > 0 */\n      sgt\n        /* \"contracts/ifelseifpart2.sol\":253:406  if(num > 0){... */\n      iszero\n      tag_51\n      jumpi\n        /* \"contracts/ifelseifpart2.sol\":279:316  return \"Number is greater than zero.\" */\n      mload(0x40)\n      dup1\n      0x40\n      add\n      0x40\n      mstore\n      dup1\n      0x1c\n      dup2\n      mstore\n      0x20\n      add\n      0x4e756d6265722069732067726561746572207468616e207a65726f2e00000000\n      dup2\n      mstore\n      pop\n      swap1\n      pop\n      jump(tag_48)\n        /* \"contracts/ifelseifpart2.sol\":253:406  if(num > 0){... */\n    tag_51:\n        /* \"contracts/ifelseifpart2.sol\":357:394  return \"Number is greater than zero.\" */\n      mload(0x40)\n      dup1\n      0x40\n      add\n      0x40\n      mstore\n      dup1\n      0x1c\n      dup2\n      mstore\n      0x20\n      add\n      0x4e756d6265722069732067726561746572207468616e207a65726f2e00000000\n      dup2\n      mstore\n      pop\n      swap1\n      pop\n        /* \"contracts/ifelseifpart2.sol\":89:413  function checkNumber(int num) public pure returns(string memory){... */\n    tag_48:\n      swap2\n      swap1\n      pop\n      jump\t// out\n        /* \"contracts/ifelseifpart2.sol\":419:624  function checkNum(int num) public pure returns (string memory){... */\n    tag_25:\n        /* \"contracts/ifelseifpart2.sol\":467:480  string memory */\n      0x60\n        /* \"contracts/ifelseifpart2.sol\":506:507  0 */\n      0x00\n        /* \"contracts/ifelseifpart2.sol\":500:503  num */\n      dup3\n        /* \"contracts/ifelseifpart2.sol\":500:507  num < 0 */\n      slt\n        /* \"contracts/ifelseifpart2.sol\":499:616  (num < 0) ? \"Number is less than zero.\" : (num > 0) ? \"Number is greater than zero.\" : \"Number is greater than zero.\" */\n      tag_54\n      jumpi\n        /* \"contracts/ifelseifpart2.sol\":548:549  0 */\n      0x00\n        /* \"contracts/ifelseifpart2.sol\":542:545  num */\n      dup3\n        /* \"contracts/ifelseifpart2.sol\":542:549  num > 0 */\n      sgt\n        /* \"contracts/ifelseifpart2.sol\":541:616  (num > 0) ? \"Number is greater than zero.\" : \"Number is greater than zero.\" */\n      tag_55\n      jumpi\n      mload(0x40)\n      dup1\n      0x40\n      add\n      0x40\n      mstore\n      dup1\n      0x1c\n      dup2\n      mstore\n      0x20\n      add\n      0x4e756d6265722069732067726561746572207468616e207a65726f2e00000000\n      dup2\n      mstore\n      pop\n      jump(tag_56)\n    tag_55:\n      mload(0x40)\n      dup1\n      0x40\n      add\n      0x40\n      mstore\n      dup1\n      0x1c\n      dup2\n      mstore\n      0x20\n      add\n      0x4e756d6265722069732067726561746572207468616e207a65726f2e00000000\n      dup2\n      mstore\n      pop\n    tag_56:\n        /* \"contracts/ifelseifpart2.sol\":499:616  (num < 0) ? \"Number is less than zero.\" : (num > 0) ? \"Number is greater than zero.\" : \"Number is greater than zero.\" */\n      jump(tag_57)\n    tag_54:\n      mload(0x40)\n      dup1\n      0x40\n      add\n      0x40\n      mstore\n      dup1\n      0x19\n      dup2\n      mstore\n      0x20\n      add\n      0x4e756d626572206973206c657373207468616e207a65726f2e00000000000000\n      dup2\n      mstore\n      pop\n    tag_57:\n        /* \"contracts/ifelseifpart2.sol\":492:616  return (num < 0) ? \"Number is less than zero.\" : (num > 0) ? \"Number is greater than zero.\" : \"Number is greater than zero.\" */\n      swap1\n      pop\n        /* \"contracts/ifelseifpart2.sol\":419:624  function checkNum(int num) public pure returns (string memory){... */\n      swap2\n      swap1\n      pop\n      jump\t// out\n        /* \"#utility.yul\":88:205   */\n    tag_59:\n        /* \"#utility.yul\":197:198   */\n      0x00\n        /* \"#utility.yul\":194:195   */\n      dup1\n        /* \"#utility.yul\":187:199   */\n      revert\n        /* \"#utility.yul\":334:411   */\n    tag_61:\n        /* \"#utility.yul\":371:378   */\n      0x00\n        /* \"#utility.yul\":400:405   */\n      dup2\n        /* \"#utility.yul\":389:405   */\n      swap1\n      pop\n        /* \"#utility.yul\":334:411   */\n      swap2\n      swap1\n      pop\n      jump\t// out\n        /* \"#utility.yul\":417:539   */\n    tag_62:\n        /* \"#utility.yul\":490:514   */\n      tag_80\n        /* \"#utility.yul\":508:513   */\n      dup2\n        /* \"#utility.yul\":490:514   */\n      tag_61\n      jump\t// in\n    tag_80:\n        /* \"#utility.yul\":483:488   */\n      dup2\n        /* \"#utility.yul\":480:515   */\n      eq\n        /* \"#utility.yul\":470:533   */\n      tag_81\n      jumpi\n        /* \"#utility.yul\":529:530   */\n      0x00\n        /* \"#utility.yul\":526:527   */\n      dup1\n        /* \"#utility.yul\":519:531   */\n      revert\n        /* \"#utility.yul\":470:533   */\n    tag_81:\n        /* \"#utility.yul\":417:539   */\n      pop\n      jump\t// out\n        /* \"#utility.yul\":545:684   */\n    tag_63:\n        /* \"#utility.yul\":591:596   */\n      0x00\n        /* \"#utility.yul\":629:635   */\n      dup2\n        /* \"#utility.yul\":616:636   */\n      calldataload\n        /* \"#utility.yul\":607:636   */\n      swap1\n      pop\n        /* \"#utility.yul\":645:678   */\n      tag_83\n        /* \"#utility.yul\":672:677   */\n      dup2\n        /* \"#utility.yul\":645:678   */\n      tag_62\n      jump\t// in\n    tag_83:\n        /* \"#utility.yul\":545:684   */\n      swap3\n      swap2\n      pop\n      pop\n      jump\t// out\n        /* \"#utility.yul\":690:1019   */\n    tag_9:\n        /* \"#utility.yul\":749:755   */\n      0x00\n        /* \"#utility.yul\":798:800   */\n      0x20\n        /* \"#utility.yul\":786:795   */\n      dup3\n        /* \"#utility.yul\":777:784   */\n      dup5\n        /* \"#utility.yul\":773:796   */\n      sub\n        /* \"#utility.yul\":769:801   */\n      slt\n        /* \"#utility.yul\":766:885   */\n      iszero\n      tag_85\n      jumpi\n        /* \"#utility.yul\":804:883   */\n      tag_86\n      tag_59\n      jump\t// in\n    tag_86:\n        /* \"#utility.yul\":766:885   */\n    tag_85:\n        /* \"#utility.yul\":924:925   */\n      0x00\n        /* \"#utility.yul\":949:1002   */\n      tag_87\n        /* \"#utility.yul\":994:1001   */\n      dup5\n        /* \"#utility.yul\":985:991   */\n      dup3\n        /* \"#utility.yul\":974:983   */\n      dup6\n        /* \"#utility.yul\":970:992   */\n      add\n        /* \"#utility.yul\":949:1002   */\n      tag_63\n      jump\t// in\n    tag_87:\n        /* \"#utility.yul\":939:1002   */\n      swap2\n      pop\n        /* \"#utility.yul\":895:1012   */\n      pop\n        /* \"#utility.yul\":690:1019   */\n      swap3\n      swap2\n      pop\n      pop\n      jump\t// out\n        /* \"#utility.yul\":1025:1115   */\n    tag_64:\n        /* \"#utility.yul\":1059:1066   */\n      0x00\n        /* \"#utility.yul\":1102:1107   */\n      dup2\n        /* \"#utility.yul\":1095:1108   */\n      iszero\n        /* \"#utility.yul\":1088:1109   */\n      iszero\n        /* \"#utility.yul\":1077:1109   */\n      swap1\n      pop\n        /* \"#utility.yul\":1025:1115   */\n      swap2\n      swap1\n      pop\n      jump\t// out\n        /* \"#utility.yul\":1121:1230   */\n    tag_65:\n        /* \"#utility.yul\":1202:1223   */\n      tag_90\n        /* \"#utility.yul\":1217:1222   */\n      dup2\n        /* \"#utility.yul\":1202:1223   */\n      tag_64\n      jump\t// in\n    tag_90:\n        /* \"#utility.yul\":1197:1200   */\n      dup3\n        /* \"#utility.yul\":1190:1224   */\n      mstore\n        /* \"#utility.yul\":1121:1230   */\n      pop\n      pop\n      jump\t// out\n        /* \"#utility.yul\":1236:1335   */\n    tag_66:\n        /* \"#utility.yul\":1288:1294   */\n      0x00\n        /* \"#utility.yul\":1322:1327   */\n      dup2\n        /* \"#utility.yul\":1316:1328   */\n      mload\n        /* \"#utility.yul\":1306:1328   */\n      swap1\n      pop\n        /* \"#utility.yul\":1236:1335   */\n      swap2\n      swap1\n      pop\n      jump\t// out\n        /* \"#utility.yul\":1341:1510   */\n    tag_67:\n        /* \"#utility.yul\":1425:1436   */\n      0x00\n        /* \"#utility.yul\":1459:1465   */\n      dup3\n        /* \"#utility.yul\":1454:1457   */\n      dup3\n        /* \"#utility.yul\":1447:1466   */\n      mstore\n        /* \"#utility.yul\":1499:1503   */\n      0x20\n        /* \"#utility.yul\":1494:1497   */\n      dup3\n        /* \"#utility.yul\":1490:1504   */\n      add\n        /* \"#utility.yul\":1475:1504   */\n      swap1\n      pop\n        /* \"#utility.yul\":1341:1510   */\n      swap3\n      swap2\n      pop\n      pop\n      jump\t// out\n        /* \"#utility.yul\":1516:1762   */\n    tag_68:\n        /* \"#utility.yul\":1597:1598   */\n      0x00\n        /* \"#utility.yul\":1607:1720   */\n    tag_94:\n        /* \"#utility.yul\":1621:1627   */\n      dup4\n        /* \"#utility.yul\":1618:1619   */\n      dup2\n        /* \"#utility.yul\":1615:1628   */\n      lt\n        /* \"#utility.yul\":1607:1720   */\n      iszero\n      tag_96\n      jumpi\n        /* \"#utility.yul\":1706:1707   */\n      dup1\n        /* \"#utility.yul\":1701:1704   */\n      dup3\n        /* \"#utility.yul\":1697:1708   */\n      add\n        /* \"#utility.yul\":1691:1709   */\n      mload\n        /* \"#utility.yul\":1687:1688   */\n      dup2\n        /* \"#utility.yul\":1682:1685   */\n      dup5\n        /* \"#utility.yul\":1678:1689   */\n      add\n        /* \"#utility.yul\":1671:1710   */\n      mstore\n        /* \"#utility.yul\":1643:1645   */\n      0x20\n        /* \"#utility.yul\":1640:1641   */\n      dup2\n        /* \"#utility.yul\":1636:1646   */\n      add\n        /* \"#utility.yul\":1631:1646   */\n      swap1\n      pop\n        /* \"#utility.yul\":1607:1720   */\n      jump(tag_94)\n    tag_96:\n        /* \"#utility.yul\":1754:1755   */\n      0x00\n        /* \"#utility.yul\":1745:1751   */\n      dup5\n        /* \"#utility.yul\":1740:1743   */\n      dup5\n        /* \"#utility.yul\":1736:1752   */\n      add\n        /* \"#utility.yul\":1729:1756   */\n      mstore\n        /* \"#utility.yul\":1578:1762   */\n      pop\n        /* \"#utility.yul\":1516:1762   */\n      pop\n      pop\n      pop\n      jump\t// out\n        /* \"#utility.yul\":1768:1870   */\n    tag_69:\n        /* \"#utility.yul\":1809:1815   */\n      0x00\n        /* \"#utility.yul\":1860:1862   */\n      0x1f\n        /* \"#utility.yul\":1856:1863   */\n      not\n        /* \"#utility.yul\":1851:1853   */\n      0x1f\n        /* \"#utility.yul\":1844:1849   */\n      dup4\n        /* \"#utility.yul\":1840:1854   */\n      add\n        /* \"#utility.yul\":1836:1864   */\n      and\n        /* \"#utility.yul\":1826:1864   */\n      swap1\n      pop\n        /* \"#utility.yul\":1768:1870   */\n      swap2\n      swap1\n      pop\n      jump\t// out\n        /* \"#utility.yul\":1876:2253   */\n    tag_70:\n        /* \"#utility.yul\":1964:1967   */\n      0x00\n        /* \"#utility.yul\":1992:2031   */\n      tag_99\n        /* \"#utility.yul\":2025:2030   */\n      dup3\n        /* \"#utility.yul\":1992:2031   */\n      tag_66\n      jump\t// in\n    tag_99:\n        /* \"#utility.yul\":2047:2118   */\n      tag_100\n        /* \"#utility.yul\":2111:2117   */\n      dup2\n        /* \"#utility.yul\":2106:2109   */\n      dup6\n        /* \"#utility.yul\":2047:2118   */\n      tag_67\n      jump\t// in\n    tag_100:\n        /* \"#utility.yul\":2040:2118   */\n      swap4\n      pop\n        /* \"#utility.yul\":2127:2192   */\n      tag_101\n        /* \"#utility.yul\":2185:2191   */\n      dup2\n        /* \"#utility.yul\":2180:2183   */\n      dup6\n        /* \"#utility.yul\":2173:2177   */\n      0x20\n        /* \"#utility.yul\":2166:2171   */\n      dup7\n        /* \"#utility.yul\":2162:2178   */\n      add\n        /* \"#utility.yul\":2127:2192   */\n      tag_68\n      jump\t// in\n    tag_101:\n        /* \"#utility.yul\":2217:2246   */\n      tag_102\n        /* \"#utility.yul\":2239:2245   */\n      dup2\n        /* \"#utility.yul\":2217:2246   */\n      tag_69\n      jump\t// in\n    tag_102:\n        /* \"#utility.yul\":2212:2215   */\n      dup5\n        /* \"#utility.yul\":2208:2247   */\n      add\n        /* \"#utility.yul\":2201:2247   */\n      swap2\n      pop\n        /* \"#utility.yul\":1968:2253   */\n      pop\n        /* \"#utility.yul\":1876:2253   */\n      swap3\n      swap2\n      pop\n      pop\n      jump\t// out\n        /* \"#utility.yul\":2259:2670   */\n    tag_12:\n        /* \"#utility.yul\":2394:2398   */\n      0x00\n        /* \"#utility.yul\":2432:2434   */\n      0x40\n        /* \"#utility.yul\":2421:2430   */\n      dup3\n        /* \"#utility.yul\":2417:2435   */\n      add\n        /* \"#utility.yul\":2409:2435   */\n      swap1\n      pop\n        /* \"#utility.yul\":2445:2510   */\n      tag_104\n        /* \"#utility.yul\":2507:2508   */\n      0x00\n        /* \"#utility.yul\":2496:2505   */\n      dup4\n        /* \"#utility.yul\":2492:2509   */\n      add\n        /* \"#utility.yul\":2483:2489   */\n      dup6\n        /* \"#utility.yul\":2445:2510   */\n      tag_65\n      jump\t// in\n    tag_104:\n        /* \"#utility.yul\":2557:2566   */\n      dup2\n        /* \"#utility.yul\":2551:2555   */\n      dup2\n        /* \"#utility.yul\":2547:2567   */\n      sub\n        /* \"#utility.yul\":2542:2544   */\n      0x20\n        /* \"#utility.yul\":2531:2540   */\n      dup4\n        /* \"#utility.yul\":2527:2545   */\n      add\n        /* \"#utility.yul\":2520:2568   */\n      mstore\n        /* \"#utility.yul\":2585:2663   */\n      tag_105\n        /* \"#utility.yul\":2658:2662   */\n      dup2\n        /* \"#utility.yul\":2649:2655   */\n      dup5\n        /* \"#utility.yul\":2585:2663   */\n      tag_70\n      jump\t// in\n    tag_105:\n        /* \"#utility.yul\":2577:2663   */\n      swap1\n      pop\n        /* \"#utility.yul\":2259:2670   */\n      swap4\n      swap3\n      pop\n      pop\n      pop\n      jump\t// out\n        /* \"#utility.yul\":2676:2752   */\n    tag_71:\n        /* \"#utility.yul\":2712:2719   */\n      0x00\n        /* \"#utility.yul\":2741:2746   */\n      dup2\n        /* \"#utility.yul\":2730:2746   */\n      swap1\n      pop\n        /* \"#utility.yul\":2676:2752   */\n      swap2\n      swap1\n      pop\n      jump\t// out\n        /* \"#utility.yul\":2758:2878   */\n    tag_72:\n        /* \"#utility.yul\":2830:2853   */\n      tag_108\n        /* \"#utility.yul\":2847:2852   */\n      dup2\n        /* \"#utility.yul\":2830:2853   */\n      tag_71\n      jump\t// in\n    tag_108:\n        /* \"#utility.yul\":2823:2828   */\n      dup2\n        /* \"#utility.yul\":2820:2854   */\n      eq\n        /* \"#utility.yul\":2810:2872   */\n      tag_109\n      jumpi\n        /* \"#utility.yul\":2868:2869   */\n      0x00\n        /* \"#utility.yul\":2865:2866   */\n      dup1\n        /* \"#utility.yul\":2858:2870   */\n      revert\n        /* \"#utility.yul\":2810:2872   */\n    tag_109:\n        /* \"#utility.yul\":2758:2878   */\n      pop\n      jump\t// out\n        /* \"#utility.yul\":2884:3021   */\n    tag_73:\n        /* \"#utility.yul\":2929:2934   */\n      0x00\n        /* \"#utility.yul\":2967:2973   */\n      dup2\n        /* \"#utility.yul\":2954:2974   */\n      calldataload\n        /* \"#utility.yul\":2945:2974   */\n      swap1\n      pop\n        /* \"#utility.yul\":2983:3015   */\n      tag_111\n        /* \"#utility.yul\":3009:3014   */\n      dup2\n        /* \"#utility.yul\":2983:3015   */\n      tag_72\n      jump\t// in\n    tag_111:\n        /* \"#utility.yul\":2884:3021   */\n      swap3\n      swap2\n      pop\n      pop\n      jump\t// out\n        /* \"#utility.yul\":3027:3354   */\n    tag_19:\n        /* \"#utility.yul\":3085:3091   */\n      0x00\n        /* \"#utility.yul\":3134:3136   */\n      0x20\n        /* \"#utility.yul\":3122:3131   */\n      dup3\n        /* \"#utility.yul\":3113:3120   */\n      dup5\n        /* \"#utility.yul\":3109:3132   */\n      sub\n        /* \"#utility.yul\":3105:3137   */\n      slt\n        /* \"#utility.yul\":3102:3221   */\n      iszero\n      tag_113\n      jumpi\n        /* \"#utility.yul\":3140:3219   */\n      tag_114\n      tag_59\n      jump\t// in\n    tag_114:\n        /* \"#utility.yul\":3102:3221   */\n    tag_113:\n        /* \"#utility.yul\":3260:3261   */\n      0x00\n        /* \"#utility.yul\":3285:3337   */\n      tag_115\n        /* \"#utility.yul\":3329:3336   */\n      dup5\n        /* \"#utility.yul\":3320:3326   */\n      dup3\n        /* \"#utility.yul\":3309:3318   */\n      dup6\n        /* \"#utility.yul\":3305:3327   */\n      add\n        /* \"#utility.yul\":3285:3337   */\n      tag_73\n      jump\t// in\n    tag_115:\n        /* \"#utility.yul\":3275:3337   */\n      swap2\n      pop\n        /* \"#utility.yul\":3231:3347   */\n      pop\n        /* \"#utility.yul\":3027:3354   */\n      swap3\n      swap2\n      pop\n      pop\n      jump\t// out\n        /* \"#utility.yul\":3360:3673   */\n    tag_22:\n        /* \"#utility.yul\":3473:3477   */\n      0x00\n        /* \"#utility.yul\":3511:3513   */\n      0x20\n        /* \"#utility.yul\":3500:3509   */\n      dup3\n        /* \"#utility.yul\":3496:3514   */\n      add\n        /* \"#utility.yul\":3488:3514   */\n      swap1\n      pop\n        /* \"#utility.yul\":3560:3569   */\n      dup2\n        /* \"#utility.yul\":3554:3558   */\n      dup2\n        /* \"#utility.yul\":3550:3570   */\n      sub\n        /* \"#utility.yul\":3546:3547   */\n      0x00\n        /* \"#utility.yul\":3535:3544   */\n      dup4\n        /* \"#utility.yul\":3531:3548   */\n      add\n        /* \"#utility.yul\":3524:3571   */\n      mstore\n        /* \"#utility.yul\":3588:3666   */\n      tag_117\n        /* \"#utility.yul\":3661:3665   */\n      dup2\n        /* \"#utility.yul\":3652:3658   */\n      dup5\n        /* \"#utility.yul\":3588:3666   */\n      tag_70\n      jump\t// in\n    tag_117:\n        /* \"#utility.yul\":3580:3666   */\n      swap1\n      pop\n        /* \"#utility.yul\":3360:3673   */\n      swap3\n      swap2\n      pop\n      pop\n      jump\t// out\n\n    auxdata: 0xa2646970667358221220f9de81a0d7695d1ac9236d728f8d07391eec68cd7465b8d783fd1a5de6f992f064736f6c63430008120033\n}\n",
				"bytecode": {
					"linkReferences": {},
					"object": "608060405234801561001057600080fd5b50610751806100206000396000f3fe608060405234801561001057600080fd5b506004361061004c5760003560e01c806350cde9b414610051578063699b3d2314610082578063d1402bf3146100b3578063efeba328146100e3575b600080fd5b61006b6004803603810190610066919061058e565b610113565b604051610079929190610666565b60405180910390f35b61009c6004803603810190610097919061058e565b610290565b6040516100aa929190610666565b60405180910390f35b6100cd60048036038101906100c891906106cc565b6103c0565b6040516100da91906106f9565b60405180910390f35b6100fd60048036038101906100f891906106cc565b61048c565b60405161010a91906106f9565b60405180910390f35b60006060603c83106101d05760508310158015610131575060648311155b156101775760016040518060400160405280601381526020017f417263686965766564204772616465203a2041000000000000000000000000008152509150915061028b565b603c83101580156101895750604f8311155b156101cf5760016040518060400160405280601381526020017f417263686965766564204772616465203a2042000000000000000000000000008152509150915061028b565b5b603c83101561028a57602883101580156101eb5750603b8311155b156102315760006040518060400160405280601381526020017f417263686965766564204772616465203a2043000000000000000000000000008152509150915061028b565b60008310158015610243575060278311155b156102895760006040518060400160405280601681526020017f426574746572204c75636b204e6578742054696d652e000000000000000000008152509150915061028b565b5b5b915091565b60006060603c83101561032c576000602884101580156102b15750603b8411155b6102f0576040518060400160405280601681526020017f426574746572204c75636b204e6578742054696d652e00000000000000000000815250610327565b6040518060400160405280601381526020017f417263686965766564204772616465203a2043000000000000000000000000008152505b6103b7565b600160508410158015610340575060648411155b61037f576040518060400160405280601381526020017f417263686965766564204772616465203a2042000000000000000000000000008152506103b6565b6040518060400160405280601381526020017f417263686965766564204772616465203a2041000000000000000000000000008152505b5b91509150915091565b60606000821215610408576040518060400160405280601981526020017f4e756d626572206973206c657373207468616e207a65726f2e000000000000008152509050610487565b600082131561044e576040518060400160405280601c81526020017f4e756d6265722069732067726561746572207468616e207a65726f2e000000008152509050610487565b6040518060400160405280601c81526020017f4e756d6265722069732067726561746572207468616e207a65726f2e0000000081525090505b919050565b60606000821261051557600082136104d9576040518060400160405280601c81526020017f4e756d6265722069732067726561746572207468616e207a65726f2e00000000815250610510565b6040518060400160405280601c81526020017f4e756d6265722069732067726561746572207468616e207a65726f2e000000008152505b61054c565b6040518060400160405280601981526020017f4e756d626572206973206c657373207468616e207a65726f2e000000000000008152505b9050919050565b600080fd5b6000819050919050565b61056b81610558565b811461057657600080fd5b50565b60008135905061058881610562565b92915050565b6000602082840312156105a4576105a3610553565b5b60006105b284828501610579565b91505092915050565b60008115159050919050565b6105d0816105bb565b82525050565b600081519050919050565b600082825260208201905092915050565b60005b838110156106105780820151818401526020810190506105f5565b60008484015250505050565b6000601f19601f8301169050919050565b6000610638826105d6565b61064281856105e1565b93506106528185602086016105f2565b61065b8161061c565b840191505092915050565b600060408201905061067b60008301856105c7565b818103602083015261068d818461062d565b90509392505050565b6000819050919050565b6106a981610696565b81146106b457600080fd5b50565b6000813590506106c6816106a0565b92915050565b6000602082840312156106e2576106e1610553565b5b60006106f0848285016106b7565b91505092915050565b60006020820190508181036000830152610713818461062d565b90509291505056fea2646970667358221220f9de81a0d7695d1ac9236d728f8d07391eec68cd7465b8d783fd1a5de6f992f064736f6c63430008120033",
					"opcodes": "PUSH1 0x80 PUSH1 0x40 MSTORE CALLVALUE DUP1 ISZERO PUSH2 0x10 JUMPI PUSH1 0x0 DUP1 REVERT JUMPDEST POP PUSH2 0x751 DUP1 PUSH2 0x20 PUSH1 0x0 CODECOPY PUSH1 0x0 RETURN INVALID PUSH1 0x80 PUSH1 0x40 MSTORE CALLVALUE DUP1 ISZERO PUSH2 0x10 JUMPI PUSH1 0x0 DUP1 REVERT JUMPDEST POP PUSH1 0x4 CALLDATASIZE LT PUSH2 0x4C JUMPI PUSH1 0x0 CALLDATALOAD PUSH1 0xE0 SHR DUP1 PUSH4 0x50CDE9B4 EQ PUSH2 0x51 JUMPI DUP1 PUSH4 0x699B3D23 EQ PUSH2 0x82 JUMPI DUP1 PUSH4 0xD1402BF3 EQ PUSH2 0xB3 JUMPI DUP1 PUSH4 0xEFEBA328 EQ PUSH2 0xE3 JUMPI JUMPDEST PUSH1 0x0 DUP1 REVERT JUMPDEST PUSH2 0x6B PUSH1 0x4 DUP1 CALLDATASIZE SUB DUP2 ADD SWAP1 PUSH2 0x66 SWAP2 SWAP1 PUSH2 0x58E JUMP JUMPDEST PUSH2 0x113 JUMP JUMPDEST PUSH1 0x40 MLOAD PUSH2 0x79 SWAP3 SWAP2 SWAP1 PUSH2 0x666 JUMP JUMPDEST PUSH1 0x40 MLOAD DUP1 SWAP2 SUB SWAP1 RETURN JUMPDEST PUSH2 0x9C PUSH1 0x4 DUP1 CALLDATASIZE SUB DUP2 ADD SWAP1 PUSH2 0x97 SWAP2 SWAP1 PUSH2 0x58E JUMP JUMPDEST PUSH2 0x290 JUMP JUMPDEST PUSH1 0x40 MLOAD PUSH2 0xAA SWAP3 SWAP2 SWAP1 PUSH2 0x666 JUMP JUMPDEST PUSH1 0x40 MLOAD DUP1 SWAP2 SUB SWAP1 RETURN JUMPDEST PUSH2 0xCD PUSH1 0x4 DUP1 CALLDATASIZE SUB DUP2 ADD SWAP1 PUSH2 0xC8 SWAP2 SWAP1 PUSH2 0x6CC JUMP JUMPDEST PUSH2 0x3C0 JUMP JUMPDEST PUSH1 0x40 MLOAD PUSH2 0xDA SWAP2 SWAP1 PUSH2 0x6F9 JUMP JUMPDEST PUSH1 0x40 MLOAD DUP1 SWAP2 SUB SWAP1 RETURN JUMPDEST PUSH2 0xFD PUSH1 0x4 DUP1 CALLDATASIZE SUB DUP2 ADD SWAP1 PUSH2 0xF8 SWAP2 SWAP1 PUSH2 0x6CC JUMP JUMPDEST PUSH2 0x48C JUMP JUMPDEST PUSH1 0x40 MLOAD PUSH2 0x10A SWAP2 SWAP1 PUSH2 0x6F9 JUMP JUMPDEST PUSH1 0x40 MLOAD DUP1 SWAP2 SUB SWAP1 RETURN JUMPDEST PUSH1 0x0 PUSH1 0x60 PUSH1 0x3C DUP4 LT PUSH2 0x1D0 JUMPI PUSH1 0x50 DUP4 LT ISZERO DUP1 ISZERO PUSH2 0x131 JUMPI POP PUSH1 0x64 DUP4 GT ISZERO JUMPDEST ISZERO PUSH2 0x177 JUMPI PUSH1 0x1 PUSH1 0x40 MLOAD DUP1 PUSH1 0x40 ADD PUSH1 0x40 MSTORE DUP1 PUSH1 0x13 DUP2 MSTORE PUSH1 0x20 ADD PUSH32 0x417263686965766564204772616465203A204100000000000000000000000000 DUP2 MSTORE POP SWAP2 POP SWAP2 POP PUSH2 0x28B JUMP JUMPDEST PUSH1 0x3C DUP4 LT ISZERO DUP1 ISZERO PUSH2 0x189 JUMPI POP PUSH1 0x4F DUP4 GT ISZERO JUMPDEST ISZERO PUSH2 0x1CF JUMPI PUSH1 0x1 PUSH1 0x40 MLOAD DUP1 PUSH1 0x40 ADD PUSH1 0x40 MSTORE DUP1 PUSH1 0x13 DUP2 MSTORE PUSH1 0x20 ADD PUSH32 0x417263686965766564204772616465203A204200000000000000000000000000 DUP2 MSTORE POP SWAP2 POP SWAP2 POP PUSH2 0x28B JUMP JUMPDEST JUMPDEST PUSH1 0x3C DUP4 LT ISZERO PUSH2 0x28A JUMPI PUSH1 0x28 DUP4 LT ISZERO DUP1 ISZERO PUSH2 0x1EB JUMPI POP PUSH1 0x3B DUP4 GT ISZERO JUMPDEST ISZERO PUSH2 0x231 JUMPI PUSH1 0x0 PUSH1 0x40 MLOAD DUP1 PUSH1 0x40 ADD PUSH1 0x40 MSTORE DUP1 PUSH1 0x13 DUP2 MSTORE PUSH1 0x20 ADD PUSH32 0x417263686965766564204772616465203A204300000000000000000000000000 DUP2 MSTORE POP SWAP2 POP SWAP2 POP PUSH2 0x28B JUMP JUMPDEST PUSH1 0x0 DUP4 LT ISZERO DUP1 ISZERO PUSH2 0x243 JUMPI POP PUSH1 0x27 DUP4 GT ISZERO JUMPDEST ISZERO PUSH2 0x289 JUMPI PUSH1 0x0 PUSH1 0x40 MLOAD DUP1 PUSH1 0x40 ADD PUSH1 0x40 MSTORE DUP1 PUSH1 0x16 DUP2 MSTORE PUSH1 0x20 ADD PUSH32 0x426574746572204C75636B204E6578742054696D652E00000000000000000000 DUP2 MSTORE POP SWAP2 POP SWAP2 POP PUSH2 0x28B JUMP JUMPDEST JUMPDEST JUMPDEST SWAP2 POP SWAP2 JUMP JUMPDEST PUSH1 0x0 PUSH1 0x60 PUSH1 0x3C DUP4 LT ISZERO PUSH2 0x32C JUMPI PUSH1 0x0 PUSH1 0x28 DUP5 LT ISZERO DUP1 ISZERO PUSH2 0x2B1 JUMPI POP PUSH1 0x3B DUP5 GT ISZERO JUMPDEST PUSH2 0x2F0 JUMPI PUSH1 0x40 MLOAD DUP1 PUSH1 0x40 ADD PUSH1 0x40 MSTORE DUP1 PUSH1 0x16 DUP2 MSTORE PUSH1 0x20 ADD PUSH32 0x426574746572204C75636B204E6578742054696D652E00000000000000000000 DUP2 MSTORE POP PUSH2 0x327 JUMP JUMPDEST PUSH1 0x40 MLOAD DUP1 PUSH1 0x40 ADD PUSH1 0x40 MSTORE DUP1 PUSH1 0x13 DUP2 MSTORE PUSH1 0x20 ADD PUSH32 0x417263686965766564204772616465203A204300000000000000000000000000 DUP2 MSTORE POP JUMPDEST PUSH2 0x3B7 JUMP JUMPDEST PUSH1 0x1 PUSH1 0x50 DUP5 LT ISZERO DUP1 ISZERO PUSH2 0x340 JUMPI POP PUSH1 0x64 DUP5 GT ISZERO JUMPDEST PUSH2 0x37F JUMPI PUSH1 0x40 MLOAD DUP1 PUSH1 0x40 ADD PUSH1 0x40 MSTORE DUP1 PUSH1 0x13 DUP2 MSTORE PUSH1 0x20 ADD PUSH32 0x417263686965766564204772616465203A204200000000000000000000000000 DUP2 MSTORE POP PUSH2 0x3B6 JUMP JUMPDEST PUSH1 0x40 MLOAD DUP1 PUSH1 0x40 ADD PUSH1 0x40 MSTORE DUP1 PUSH1 0x13 DUP2 MSTORE PUSH1 0x20 ADD PUSH32 0x417263686965766564204772616465203A204100000000000000000000000000 DUP2 MSTORE POP JUMPDEST JUMPDEST SWAP2 POP SWAP2 POP SWAP2 POP SWAP2 JUMP JUMPDEST PUSH1 0x60 PUSH1 0x0 DUP3 SLT ISZERO PUSH2 0x408 JUMPI PUSH1 0x40 MLOAD DUP1 PUSH1 0x40 ADD PUSH1 0x40 MSTORE DUP1 PUSH1 0x19 DUP2 MSTORE PUSH1 0x20 ADD PUSH32 0x4E756D626572206973206C657373207468616E207A65726F2E00000000000000 DUP2 MSTORE POP SWAP1 POP PUSH2 0x487 JUMP JUMPDEST PUSH1 0x0 DUP3 SGT ISZERO PUSH2 0x44E JUMPI PUSH1 0x40 MLOAD DUP1 PUSH1 0x40 ADD PUSH1 0x40 MSTORE DUP1 PUSH1 0x1C DUP2 MSTORE PUSH1 0x20 ADD PUSH32 0x4E756D6265722069732067726561746572207468616E207A65726F2E00000000 DUP2 MSTORE POP SWAP1 POP PUSH2 0x487 JUMP JUMPDEST PUSH1 0x40 MLOAD DUP1 PUSH1 0x40 ADD PUSH1 0x40 MSTORE DUP1 PUSH1 0x1C DUP2 MSTORE PUSH1 0x20 ADD PUSH32 0x4E756D6265722069732067726561746572207468616E207A65726F2E00000000 DUP2 MSTORE POP SWAP1 POP JUMPDEST SWAP2 SWAP1 POP JUMP JUMPDEST PUSH1 0x60 PUSH1 0x0 DUP3 SLT PUSH2 0x515 JUMPI PUSH1 0x0 DUP3 SGT PUSH2 0x4D9 JUMPI PUSH1 0x40 MLOAD DUP1 PUSH1 0x40 ADD PUSH1 0x40 MSTORE DUP1 PUSH1 0x1C DUP2 MSTORE PUSH1 0x20 ADD PUSH32 0x4E756D6265722069732067726561746572207468616E207A65726F2E00000000 DUP2 MSTORE POP PUSH2 0x510 JUMP JUMPDEST PUSH1 0x40 MLOAD DUP1 PUSH1 0x40 ADD PUSH1 0x40 MSTORE DUP1 PUSH1 0x1C DUP2 MSTORE PUSH1 0x20 ADD PUSH32 0x4E756D6265722069732067726561746572207468616E207A65726F2E00000000 DUP2 MSTORE POP JUMPDEST PUSH2 0x54C JUMP JUMPDEST PUSH1 0x40 MLOAD DUP1 PUSH1 0x40 ADD PUSH1 0x40 MSTORE DUP1 PUSH1 0x19 DUP2 MSTORE PUSH1 0x20 ADD PUSH32 0x4E756D626572206973206C657373207468616E207A65726F2E00000000000000 DUP2 MSTORE POP JUMPDEST SWAP1 POP SWAP2 SWAP1 POP JUMP JUMPDEST PUSH1 0x0 DUP1 REVERT JUMPDEST PUSH1 0x0 DUP2 SWAP1 POP SWAP2 SWAP1 POP JUMP JUMPDEST PUSH2 0x56B DUP2 PUSH2 0x558 JUMP JUMPDEST DUP2 EQ PUSH2 0x576 JUMPI PUSH1 0x0 DUP1 REVERT JUMPDEST POP JUMP JUMPDEST PUSH1 0x0 DUP2 CALLDATALOAD SWAP1 POP PUSH2 0x588 DUP2 PUSH2 0x562 JUMP JUMPDEST SWAP3 SWAP2 POP POP JUMP JUMPDEST PUSH1 0x0 PUSH1 0x20 DUP3 DUP5 SUB SLT ISZERO PUSH2 0x5A4 JUMPI PUSH2 0x5A3 PUSH2 0x553 JUMP JUMPDEST JUMPDEST PUSH1 0x0 PUSH2 0x5B2 DUP5 DUP3 DUP6 ADD PUSH2 0x579 JUMP JUMPDEST SWAP2 POP POP SWAP3 SWAP2 POP POP JUMP JUMPDEST PUSH1 0x0 DUP2 ISZERO ISZERO SWAP1 POP SWAP2 SWAP1 POP JUMP JUMPDEST PUSH2 0x5D0 DUP2 PUSH2 0x5BB JUMP JUMPDEST DUP3 MSTORE POP POP JUMP JUMPDEST PUSH1 0x0 DUP2 MLOAD SWAP1 POP SWAP2 SWAP1 POP JUMP JUMPDEST PUSH1 0x0 DUP3 DUP3 MSTORE PUSH1 0x20 DUP3 ADD SWAP1 POP SWAP3 SWAP2 POP POP JUMP JUMPDEST PUSH1 0x0 JUMPDEST DUP4 DUP2 LT ISZERO PUSH2 0x610 JUMPI DUP1 DUP3 ADD MLOAD DUP2 DUP5 ADD MSTORE PUSH1 0x20 DUP2 ADD SWAP1 POP PUSH2 0x5F5 JUMP JUMPDEST PUSH1 0x0 DUP5 DUP5 ADD MSTORE POP POP POP POP JUMP JUMPDEST PUSH1 0x0 PUSH1 0x1F NOT PUSH1 0x1F DUP4 ADD AND SWAP1 POP SWAP2 SWAP1 POP JUMP JUMPDEST PUSH1 0x0 PUSH2 0x638 DUP3 PUSH2 0x5D6 JUMP JUMPDEST PUSH2 0x642 DUP2 DUP6 PUSH2 0x5E1 JUMP JUMPDEST SWAP4 POP PUSH2 0x652 DUP2 DUP6 PUSH1 0x20 DUP7 ADD PUSH2 0x5F2 JUMP JUMPDEST PUSH2 0x65B DUP2 PUSH2 0x61C JUMP JUMPDEST DUP5 ADD SWAP2 POP POP SWAP3 SWAP2 POP POP JUMP JUMPDEST PUSH1 0x0 PUSH1 0x40 DUP3 ADD SWAP1 POP PUSH2 0x67B PUSH1 0x0 DUP4 ADD DUP6 PUSH2 0x5C7 JUMP JUMPDEST DUP2 DUP2 SUB PUSH1 0x20 DUP4 ADD MSTORE PUSH2 0x68D DUP2 DUP5 PUSH2 0x62D JUMP JUMPDEST SWAP1 POP SWAP4 SWAP3 POP POP POP JUMP JUMPDEST PUSH1 0x0 DUP2 SWAP1 POP SWAP2 SWAP1 POP JUMP JUMPDEST PUSH2 0x6A9 DUP2 PUSH2 0x696 JUMP JUMPDEST DUP2 EQ PUSH2 0x6B4 JUMPI PUSH1 0x0 DUP1 REVERT JUMPDEST POP JUMP JUMPDEST PUSH1 0x0 DUP2 CALLDATALOAD SWAP1 POP PUSH2 0x6C6 DUP2 PUSH2 0x6A0 JUMP JUMPDEST SWAP3 SWAP2 POP POP JUMP JUMPDEST PUSH1 0x0 PUSH1 0x20 DUP3 DUP5 SUB SLT ISZERO PUSH2 0x6E2 JUMPI PUSH2 0x6E1 PUSH2 0x553 JUMP JUMPDEST JUMPDEST PUSH1 0x0 PUSH2 0x6F0 DUP5 DUP3 DUP6 ADD PUSH2 0x6B7 JUMP JUMPDEST SWAP2 POP POP SWAP3 SWAP2 POP POP JUMP JUMPDEST PUSH1 0x0 PUSH1 0x20 DUP3 ADD SWAP1 POP DUP2 DUP2 SUB PUSH1 0x0 DUP4 ADD MSTORE PUSH2 0x713 DUP2 DUP5 PUSH2 0x62D JUMP JUMPDEST SWAP1 POP SWAP3 SWAP2 POP POP JUMP INVALID LOG2 PUSH5 0x6970667358 0x22 SLT KECCAK256 0xF9 0xDE DUP2 LOG0 0xD7 PUSH10 0x5D1AC9236D728F8D0739 0x1E 0xEC PUSH9 0xCD7465B8D783FD1A5D 0xE6 0xF9 SWAP3 CREATE PUSH5 0x736F6C6343 STOP ADDMOD SLT STOP CALLER "
				},
				"gasEstimates": {
					"creation": {
						"codeDepositCost": "374600",
						"executionCost": "411",
						"totalCost": "375011"
					},
					"external": {
						"StudentScore(uint256)": "infinite",
						"checkNum(int256)": "infinite",
						"checkNumber(int256)": "infinite",
						"stdScore(uint256)": "infinite"
					}
				},
				"methodIdentifiers": {
					"StudentScore(uint256)": "50cde9b4",
					"checkNum(int256)": "efeba328",
					"checkNumber(int256)": "d1402bf3",
					"stdScore(uint256)": "699b3d23"
				}
			},
			"storageLayout": {
				"storage": [],
				"types": null
			},
			"userdoc": {
				"kind": "user",
				"methods": {},
				"version": 1
			}
		}
	}
}