{
	"contracts/8thaug.sol": {
		"StudentRegistration": {
			"abi": [
				{
					"inputs": [],
					"name": "_localvar",
					"outputs": [
						{
							"internalType": "string",
							"name": "name",
							"type": "string"
						},
						{
							"internalType": "uint256",
							"name": "age",
							"type": "uint256"
						},
						{
							"internalType": "uint256",
							"name": "registrationDate",
							"type": "uint256"
						},
						{
							"internalType": "enum StudentRegistration.Department",
							"name": "department",
							"type": "uint8"
						},
						{
							"internalType": "enum StudentRegistration.Status",
							"name": "status",
							"type": "uint8"
						},
						{
							"internalType": "uint256",
							"name": "obtainedMarks",
							"type": "uint256"
						}
					],
					"stateMutability": "view",
					"type": "function"
				},
				{
					"inputs": [
						{
							"internalType": "uint256",
							"name": "",
							"type": "uint256"
						}
					],
					"name": "arr",
					"outputs": [
						{
							"internalType": "string",
							"name": "name",
							"type": "string"
						},
						{
							"internalType": "uint256",
							"name": "age",
							"type": "uint256"
						},
						{
							"internalType": "uint256",
							"name": "registrationDate",
							"type": "uint256"
						},
						{
							"internalType": "enum StudentRegistration.Department",
							"name": "department",
							"type": "uint8"
						},
						{
							"internalType": "enum StudentRegistration.Status",
							"name": "status",
							"type": "uint8"
						},
						{
							"internalType": "uint256",
							"name": "obtainedMarks",
							"type": "uint256"
						}
					],
					"stateMutability": "view",
					"type": "function"
				},
				{
					"inputs": [
						{
							"internalType": "enum StudentRegistration.Department",
							"name": "_dept",
							"type": "uint8"
						}
					],
					"name": "dept",
					"outputs": [
						{
							"internalType": "uint256",
							"name": "deptm",
							"type": "uint256"
						}
					],
					"stateMutability": "nonpayable",
					"type": "function"
				},
				{
					"inputs": [],
					"name": "dept1",
					"outputs": [
						{
							"internalType": "uint256",
							"name": "",
							"type": "uint256"
						}
					],
					"stateMutability": "view",
					"type": "function"
				},
				{
					"inputs": [],
					"name": "dept2",
					"outputs": [
						{
							"internalType": "uint256",
							"name": "",
							"type": "uint256"
						}
					],
					"stateMutability": "view",
					"type": "function"
				},
				{
					"inputs": [],
					"name": "dept3",
					"outputs": [
						{
							"internalType": "uint256",
							"name": "",
							"type": "uint256"
						}
					],
					"stateMutability": "view",
					"type": "function"
				},
				{
					"inputs": [],
					"name": "dept4",
					"outputs": [
						{
							"internalType": "uint256",
							"name": "",
							"type": "uint256"
						}
					],
					"stateMutability": "view",
					"type": "function"
				},
				{
					"inputs": [],
					"name": "getTopThreeBlockchainAchievers",
					"outputs": [
						{
							"components": [
								{
									"internalType": "string",
									"name": "name",
									"type": "string"
								},
								{
									"internalType": "uint256",
									"name": "age",
									"type": "uint256"
								},
								{
									"internalType": "uint256",
									"name": "registrationDate",
									"type": "uint256"
								},
								{
									"internalType": "enum StudentRegistration.Department",
									"name": "department",
									"type": "uint8"
								},
								{
									"internalType": "enum StudentRegistration.Status",
									"name": "status",
									"type": "uint8"
								},
								{
									"internalType": "uint256",
									"name": "obtainedMarks",
									"type": "uint256"
								}
							],
							"internalType": "struct StudentRegistration.Student[3]",
							"name": "",
							"type": "tuple[3]"
						}
					],
					"stateMutability": "view",
					"type": "function"
				},
				{
					"inputs": [
						{
							"internalType": "uint256",
							"name": "_rollno",
							"type": "uint256"
						},
						{
							"internalType": "string",
							"name": "_name",
							"type": "string"
						},
						{
							"internalType": "uint256",
							"name": "_age",
							"type": "uint256"
						},
						{
							"internalType": "uint256",
							"name": "_registrationDate",
							"type": "uint256"
						},
						{
							"internalType": "enum StudentRegistration.Department",
							"name": "_department",
							"type": "uint8"
						},
						{
							"internalType": "enum StudentRegistration.Status",
							"name": "_status",
							"type": "uint8"
						},
						{
							"internalType": "uint256",
							"name": "_obtainedMarks",
							"type": "uint256"
						}
					],
					"name": "registration",
					"outputs": [],
					"stateMutability": "nonpayable",
					"type": "function"
				},
				{
					"inputs": [
						{
							"internalType": "uint256",
							"name": "_rollno",
							"type": "uint256"
						}
					],
					"name": "retrieve",
					"outputs": [
						{
							"internalType": "string",
							"name": "_name",
							"type": "string"
						},
						{
							"internalType": "uint256",
							"name": "_age",
							"type": "uint256"
						},
						{
							"internalType": "uint256",
							"name": "_registrationDate",
							"type": "uint256"
						},
						{
							"internalType": "enum StudentRegistration.Department",
							"name": "_department",
							"type": "uint8"
						},
						{
							"internalType": "enum StudentRegistration.Status",
							"name": "_status",
							"type": "uint8"
						},
						{
							"internalType": "uint256",
							"name": "_obtainedMarks",
							"type": "uint256"
						}
					],
					"stateMutability": "view",
					"type": "function"
				},
				{
					"inputs": [
						{
							"internalType": "uint256",
							"name": "",
							"type": "uint256"
						}
					],
					"name": "stdinfo",
					"outputs": [
						{
							"internalType": "string",
							"name": "name",
							"type": "string"
						},
						{
							"internalType": "uint256",
							"name": "age",
							"type": "uint256"
						},
						{
							"internalType": "uint256",
							"name": "registrationDate",
							"type": "uint256"
						},
						{
							"internalType": "enum StudentRegistration.Department",
							"name": "department",
							"type": "uint8"
						},
						{
							"internalType": "enum StudentRegistration.Status",
							"name": "status",
							"type": "uint8"
						},
						{
							"internalType": "uint256",
							"name": "obtainedMarks",
							"type": "uint256"
						}
					],
					"stateMutability": "view",
					"type": "function"
				},
				{
					"inputs": [
						{
							"internalType": "uint256",
							"name": "_rollno",
							"type": "uint256"
						},
						{
							"internalType": "string",
							"name": "_name",
							"type": "string"
						},
						{
							"internalType": "uint256",
							"name": "_age",
							"type": "uint256"
						},
						{
							"internalType": "enum StudentRegistration.Department",
							"name": "_department",
							"type": "uint8"
						},
						{
							"internalType": "enum StudentRegistration.Status",
							"name": "_status",
							"type": "uint8"
						}
					],
					"name": "update",
					"outputs": [],
					"stateMutability": "nonpayable",
					"type": "function"
				}
			],
			"devdoc": {
				"kind": "dev",
				"methods": {},
				"version": 1
			},
			"evm": {
				"assembly": "    /* \"contracts/8thaug.sol\":57:3913  contract StudentRegistration {... */\n  mstore(0x40, 0x80)\n  callvalue\n  dup1\n  iszero\n  tag_1\n  jumpi\n  0x00\n  dup1\n  revert\ntag_1:\n  pop\n  dataSize(sub_0)\n  dup1\n  dataOffset(sub_0)\n  0x00\n  codecopy\n  0x00\n  return\nstop\n\nsub_0: assembly {\n        /* \"contracts/8thaug.sol\":57:3913  contract StudentRegistration {... */\n      mstore(0x40, 0x80)\n      callvalue\n      dup1\n      iszero\n      tag_1\n      jumpi\n      0x00\n      dup1\n      revert\n    tag_1:\n      pop\n      jumpi(tag_2, lt(calldatasize, 0x04))\n      shr(0xe0, calldataload(0x00))\n      dup1\n      0x8f88708b\n      gt\n      tag_15\n      jumpi\n      dup1\n      0x8f88708b\n      eq\n      tag_9\n      jumpi\n      dup1\n      0x9205c66e\n      eq\n      tag_10\n      jumpi\n      dup1\n      0xcaf76adb\n      eq\n      tag_11\n      jumpi\n      dup1\n      0xcf25823a\n      eq\n      tag_12\n      jumpi\n      dup1\n      0xd836e33c\n      eq\n      tag_13\n      jumpi\n      dup1\n      0xfd75948d\n      eq\n      tag_14\n      jumpi\n      jump(tag_2)\n    tag_15:\n      dup1\n      0x076d6935\n      eq\n      tag_3\n      jumpi\n      dup1\n      0x0d541dc6\n      eq\n      tag_4\n      jumpi\n      dup1\n      0x224e760c\n      eq\n      tag_5\n      jumpi\n      dup1\n      0x712781f5\n      eq\n      tag_6\n      jumpi\n      dup1\n      0x71e5ee5f\n      eq\n      tag_7\n      jumpi\n      dup1\n      0x743e8701\n      eq\n      tag_8\n      jumpi\n    tag_2:\n      0x00\n      dup1\n      revert\n        /* \"contracts/8thaug.sol\":2029:2046  uint public dept1 */\n    tag_3:\n      tag_16\n      tag_17\n      jump\t// in\n    tag_16:\n      mload(0x40)\n      tag_18\n      swap2\n      swap1\n      tag_19\n      jump\t// in\n    tag_18:\n      mload(0x40)\n      dup1\n      swap2\n      sub\n      swap1\n      return\n        /* \"contracts/8thaug.sol\":2101:2118  uint public dept4 */\n    tag_4:\n      tag_20\n      tag_21\n      jump\t// in\n    tag_20:\n      mload(0x40)\n      tag_22\n      swap2\n      swap1\n      tag_19\n      jump\t// in\n    tag_22:\n      mload(0x40)\n      dup1\n      swap2\n      sub\n      swap1\n      return\n        /* \"contracts/8thaug.sol\":2131:2609  function dept(Department _dept) public returns (uint deptm) {... */\n    tag_5:\n      tag_23\n      0x04\n      dup1\n      calldatasize\n      sub\n      dup2\n      add\n      swap1\n      tag_24\n      swap2\n      swap1\n      tag_25\n      jump\t// in\n    tag_24:\n      tag_26\n      jump\t// in\n    tag_23:\n      mload(0x40)\n      tag_27\n      swap2\n      swap1\n      tag_19\n      jump\t// in\n    tag_27:\n      mload(0x40)\n      dup1\n      swap2\n      sub\n      swap1\n      return\n        /* \"contracts/8thaug.sol\":578:602  Student public _localvar */\n    tag_6:\n      tag_28\n      tag_29\n      jump\t// in\n    tag_28:\n      mload(0x40)\n      tag_30\n      swap7\n      swap6\n      swap5\n      swap4\n      swap3\n      swap2\n      swap1\n      tag_31\n      jump\t// in\n    tag_30:\n      mload(0x40)\n      dup1\n      swap2\n      sub\n      swap1\n      return\n        /* \"contracts/8thaug.sol\":551:571  Student[] public arr */\n    tag_7:\n      tag_32\n      0x04\n      dup1\n      calldatasize\n      sub\n      dup2\n      add\n      swap1\n      tag_33\n      swap2\n      swap1\n      tag_34\n      jump\t// in\n    tag_33:\n      tag_35\n      jump\t// in\n    tag_32:\n      mload(0x40)\n      tag_36\n      swap7\n      swap6\n      swap5\n      swap4\n      swap3\n      swap2\n      swap1\n      tag_31\n      jump\t// in\n    tag_36:\n      mload(0x40)\n      dup1\n      swap2\n      sub\n      swap1\n      return\n        /* \"contracts/8thaug.sol\":1340:1682  function update(uint _rollno, string memory _name, uint _age, Department _department, Status _status) public {... */\n    tag_8:\n      tag_37\n      0x04\n      dup1\n      calldatasize\n      sub\n      dup2\n      add\n      swap1\n      tag_38\n      swap2\n      swap1\n      tag_39\n      jump\t// in\n    tag_38:\n      tag_40\n      jump\t// in\n    tag_37:\n      stop\n        /* \"contracts/8thaug.sol\":1688:2021  function retrieve(uint _rollno) public view returns (string memory _name, uint _age, uint _registrationDate, Department _department, Status _status, uint _obtainedMarks) {... */\n    tag_9:\n      tag_41\n      0x04\n      dup1\n      calldatasize\n      sub\n      dup2\n      add\n      swap1\n      tag_42\n      swap2\n      swap1\n      tag_34\n      jump\t// in\n    tag_42:\n      tag_43\n      jump\t// in\n    tag_41:\n      mload(0x40)\n      tag_44\n      swap7\n      swap6\n      swap5\n      swap4\n      swap3\n      swap2\n      swap1\n      tag_31\n      jump\t// in\n    tag_44:\n      mload(0x40)\n      dup1\n      swap2\n      sub\n      swap1\n      return\n        /* \"contracts/8thaug.sol\":505:544  mapping(uint => Student) public stdinfo */\n    tag_10:\n      tag_45\n      0x04\n      dup1\n      calldatasize\n      sub\n      dup2\n      add\n      swap1\n      tag_46\n      swap2\n      swap1\n      tag_34\n      jump\t// in\n    tag_46:\n      tag_47\n      jump\t// in\n    tag_45:\n      mload(0x40)\n      tag_48\n      swap7\n      swap6\n      swap5\n      swap4\n      swap3\n      swap2\n      swap1\n      tag_31\n      jump\t// in\n    tag_48:\n      mload(0x40)\n      dup1\n      swap2\n      sub\n      swap1\n      return\n        /* \"contracts/8thaug.sol\":2615:3910  function getTopThreeBlockchainAchievers() public view returns (Student[3] memory) {... */\n    tag_11:\n      tag_49\n      tag_50\n      jump\t// in\n    tag_49:\n      mload(0x40)\n      tag_51\n      swap2\n      swap1\n      tag_52\n      jump\t// in\n    tag_51:\n      mload(0x40)\n      dup1\n      swap2\n      sub\n      swap1\n      return\n        /* \"contracts/8thaug.sol\":615:1334  function registration(uint _rollno, string memory _name, uint _age, uint _registrationDate, Department _department, Status _status, uint _obtainedMarks) public {... */\n    tag_12:\n      tag_53\n      0x04\n      dup1\n      calldatasize\n      sub\n      dup2\n      add\n      swap1\n      tag_54\n      swap2\n      swap1\n      tag_55\n      jump\t// in\n    tag_54:\n      tag_56\n      jump\t// in\n    tag_53:\n      stop\n        /* \"contracts/8thaug.sol\":2077:2094  uint public dept3 */\n    tag_13:\n      tag_57\n      tag_58\n      jump\t// in\n    tag_57:\n      mload(0x40)\n      tag_59\n      swap2\n      swap1\n      tag_19\n      jump\t// in\n    tag_59:\n      mload(0x40)\n      dup1\n      swap2\n      sub\n      swap1\n      return\n        /* \"contracts/8thaug.sol\":2053:2070  uint public dept2 */\n    tag_14:\n      tag_60\n      tag_61\n      jump\t// in\n    tag_60:\n      mload(0x40)\n      tag_62\n      swap2\n      swap1\n      tag_19\n      jump\t// in\n    tag_62:\n      mload(0x40)\n      dup1\n      swap2\n      sub\n      swap1\n      return\n        /* \"contracts/8thaug.sol\":2029:2046  uint public dept1 */\n    tag_17:\n      sload(0x07)\n      dup2\n      jump\t// out\n        /* \"contracts/8thaug.sol\":2101:2118  uint public dept4 */\n    tag_21:\n      sload(0x0a)\n      dup2\n      jump\t// out\n        /* \"contracts/8thaug.sol\":2131:2609  function dept(Department _dept) public returns (uint deptm) {... */\n    tag_26:\n        /* \"contracts/8thaug.sol\":2179:2189  uint deptm */\n      0x00\n        /* \"contracts/8thaug.sol\":2207:2213  uint i */\n      dup1\n        /* \"contracts/8thaug.sol\":2216:2217  0 */\n      0x00\n        /* \"contracts/8thaug.sol\":2207:2217  uint i = 0 */\n      swap1\n      pop\n        /* \"contracts/8thaug.sol\":2202:2573  for (uint i = 0; i < arr.length; i++) {... */\n    tag_64:\n        /* \"contracts/8thaug.sol\":2223:2226  arr */\n      0x01\n        /* \"contracts/8thaug.sol\":2223:2233  arr.length */\n      dup1\n      sload\n      swap1\n      pop\n        /* \"contracts/8thaug.sol\":2219:2220  i */\n      dup2\n        /* \"contracts/8thaug.sol\":2219:2233  i < arr.length */\n      lt\n        /* \"contracts/8thaug.sol\":2202:2573  for (uint i = 0; i < arr.length; i++) {... */\n      iszero\n      tag_65\n      jumpi\n        /* \"contracts/8thaug.sol\":2268:2302  Department.Artificial_Intelligence */\n      0x00\n        /* \"contracts/8thaug.sol\":2259:2302  _dept == Department.Artificial_Intelligence */\n      0x03\n      dup2\n      gt\n      iszero\n      tag_67\n      jumpi\n      tag_68\n      tag_69\n      jump\t// in\n    tag_68:\n    tag_67:\n        /* \"contracts/8thaug.sol\":2259:2264  _dept */\n      dup4\n        /* \"contracts/8thaug.sol\":2259:2302  _dept == Department.Artificial_Intelligence */\n      0x03\n      dup2\n      gt\n      iszero\n      tag_70\n      jumpi\n      tag_71\n      tag_69\n      jump\t// in\n    tag_71:\n    tag_70:\n      sub\n        /* \"contracts/8thaug.sol\":2255:2562  if (_dept == Department.Artificial_Intelligence) {... */\n      tag_72\n      jumpi\n        /* \"contracts/8thaug.sol\":2323:2328  dept1 */\n      0x07\n      0x00\n        /* \"contracts/8thaug.sol\":2323:2330  dept1++ */\n      dup2\n      sload\n      dup1\n      swap3\n      swap2\n      swap1\n      tag_73\n      swap1\n      tag_74\n      jump\t// in\n    tag_73:\n      swap2\n      swap1\n      pop\n      sstore\n      pop\n        /* \"contracts/8thaug.sol\":2255:2562  if (_dept == Department.Artificial_Intelligence) {... */\n      jump(tag_75)\n    tag_72:\n        /* \"contracts/8thaug.sol\":2365:2386  Department.Blockchain */\n      0x01\n        /* \"contracts/8thaug.sol\":2356:2386  _dept == Department.Blockchain */\n      0x03\n      dup2\n      gt\n      iszero\n      tag_76\n      jumpi\n      tag_77\n      tag_69\n      jump\t// in\n    tag_77:\n    tag_76:\n        /* \"contracts/8thaug.sol\":2356:2361  _dept */\n      dup4\n        /* \"contracts/8thaug.sol\":2356:2386  _dept == Department.Blockchain */\n      0x03\n      dup2\n      gt\n      iszero\n      tag_78\n      jumpi\n      tag_79\n      tag_69\n      jump\t// in\n    tag_79:\n    tag_78:\n      sub\n        /* \"contracts/8thaug.sol\":2352:2562  if (_dept == Department.Blockchain) {... */\n      tag_80\n      jumpi\n        /* \"contracts/8thaug.sol\":2407:2412  dept2 */\n      0x08\n      0x00\n        /* \"contracts/8thaug.sol\":2407:2414  dept2++ */\n      dup2\n      sload\n      dup1\n      swap3\n      swap2\n      swap1\n      tag_81\n      swap1\n      tag_74\n      jump\t// in\n    tag_81:\n      swap2\n      swap1\n      pop\n      sstore\n      pop\n        /* \"contracts/8thaug.sol\":2352:2562  if (_dept == Department.Blockchain) {... */\n      jump(tag_82)\n    tag_80:\n        /* \"contracts/8thaug.sol\":2449:2470  Department.E_Commerce */\n      0x02\n        /* \"contracts/8thaug.sol\":2440:2470  _dept == Department.E_Commerce */\n      0x03\n      dup2\n      gt\n      iszero\n      tag_83\n      jumpi\n      tag_84\n      tag_69\n      jump\t// in\n    tag_84:\n    tag_83:\n        /* \"contracts/8thaug.sol\":2440:2445  _dept */\n      dup4\n        /* \"contracts/8thaug.sol\":2440:2470  _dept == Department.E_Commerce */\n      0x03\n      dup2\n      gt\n      iszero\n      tag_85\n      jumpi\n      tag_86\n      tag_69\n      jump\t// in\n    tag_86:\n    tag_85:\n      sub\n        /* \"contracts/8thaug.sol\":2436:2562  if (_dept == Department.E_Commerce) {... */\n      tag_87\n      jumpi\n        /* \"contracts/8thaug.sol\":2491:2496  dept3 */\n      0x09\n      0x00\n        /* \"contracts/8thaug.sol\":2491:2498  dept3++ */\n      dup2\n      sload\n      dup1\n      swap3\n      swap2\n      swap1\n      tag_88\n      swap1\n      tag_74\n      jump\t// in\n    tag_88:\n      swap2\n      swap1\n      pop\n      sstore\n      pop\n        /* \"contracts/8thaug.sol\":2436:2562  if (_dept == Department.E_Commerce) {... */\n      jump(tag_89)\n    tag_87:\n        /* \"contracts/8thaug.sol\":2539:2544  dept4 */\n      0x0a\n      0x00\n        /* \"contracts/8thaug.sol\":2539:2546  dept4++ */\n      dup2\n      sload\n      dup1\n      swap3\n      swap2\n      swap1\n      tag_90\n      swap1\n      tag_74\n      jump\t// in\n    tag_90:\n      swap2\n      swap1\n      pop\n      sstore\n      pop\n        /* \"contracts/8thaug.sol\":2436:2562  if (_dept == Department.E_Commerce) {... */\n    tag_89:\n        /* \"contracts/8thaug.sol\":2352:2562  if (_dept == Department.Blockchain) {... */\n    tag_82:\n        /* \"contracts/8thaug.sol\":2255:2562  if (_dept == Department.Artificial_Intelligence) {... */\n    tag_75:\n        /* \"contracts/8thaug.sol\":2235:2238  i++ */\n      dup1\n      dup1\n      tag_91\n      swap1\n      tag_74\n      jump\t// in\n    tag_91:\n      swap2\n      pop\n      pop\n        /* \"contracts/8thaug.sol\":2202:2573  for (uint i = 0; i < arr.length; i++) {... */\n      jump(tag_64)\n    tag_65:\n      pop\n        /* \"contracts/8thaug.sol\":2595:2600  _dept */\n      dup2\n        /* \"contracts/8thaug.sol\":2590:2601  uint(_dept) */\n      0x03\n      dup2\n      gt\n      iszero\n      tag_92\n      jumpi\n      tag_93\n      tag_69\n      jump\t// in\n    tag_93:\n    tag_92:\n        /* \"contracts/8thaug.sol\":2583:2601  return uint(_dept) */\n      swap1\n      pop\n        /* \"contracts/8thaug.sol\":2131:2609  function dept(Department _dept) public returns (uint deptm) {... */\n      swap2\n      swap1\n      pop\n      jump\t// out\n        /* \"contracts/8thaug.sol\":578:602  Student public _localvar */\n    tag_29:\n      0x02\n      dup1\n      0x00\n      add\n      dup1\n      sload\n      tag_94\n      swap1\n      tag_95\n      jump\t// in\n    tag_94:\n      dup1\n      0x1f\n      add\n      0x20\n      dup1\n      swap2\n      div\n      mul\n      0x20\n      add\n      mload(0x40)\n      swap1\n      dup2\n      add\n      0x40\n      mstore\n      dup1\n      swap3\n      swap2\n      swap1\n      dup2\n      dup2\n      mstore\n      0x20\n      add\n      dup3\n      dup1\n      sload\n      tag_96\n      swap1\n      tag_95\n      jump\t// in\n    tag_96:\n      dup1\n      iszero\n      tag_97\n      jumpi\n      dup1\n      0x1f\n      lt\n      tag_98\n      jumpi\n      0x0100\n      dup1\n      dup4\n      sload\n      div\n      mul\n      dup4\n      mstore\n      swap2\n      0x20\n      add\n      swap2\n      jump(tag_97)\n    tag_98:\n      dup3\n      add\n      swap2\n      swap1\n      0x00\n      mstore\n      keccak256(0x00, 0x20)\n      swap1\n    tag_99:\n      dup2\n      sload\n      dup2\n      mstore\n      swap1\n      0x01\n      add\n      swap1\n      0x20\n      add\n      dup1\n      dup4\n      gt\n      tag_99\n      jumpi\n      dup3\n      swap1\n      sub\n      0x1f\n      and\n      dup3\n      add\n      swap2\n    tag_97:\n      pop\n      pop\n      pop\n      pop\n      pop\n      swap1\n      dup1\n      0x01\n      add\n      sload\n      swap1\n      dup1\n      0x02\n      add\n      sload\n      swap1\n      dup1\n      0x03\n      add\n      0x00\n      swap1\n      sload\n      swap1\n      0x0100\n      exp\n      swap1\n      div\n      0xff\n      and\n      swap1\n      dup1\n      0x03\n      add\n      0x01\n      swap1\n      sload\n      swap1\n      0x0100\n      exp\n      swap1\n      div\n      0xff\n      and\n      swap1\n      dup1\n      0x04\n      add\n      sload\n      swap1\n      pop\n      dup7\n      jump\t// out\n        /* \"contracts/8thaug.sol\":551:571  Student[] public arr */\n    tag_35:\n      0x01\n      dup2\n      dup2\n      sload\n      dup2\n      lt\n      tag_100\n      jumpi\n      0x00\n      dup1\n      revert\n    tag_100:\n      swap1\n      0x00\n      mstore\n      keccak256(0x00, 0x20)\n      swap1\n      0x05\n      mul\n      add\n      0x00\n      swap2\n      pop\n      swap1\n      pop\n      dup1\n      0x00\n      add\n      dup1\n      sload\n      tag_102\n      swap1\n      tag_95\n      jump\t// in\n    tag_102:\n      dup1\n      0x1f\n      add\n      0x20\n      dup1\n      swap2\n      div\n      mul\n      0x20\n      add\n      mload(0x40)\n      swap1\n      dup2\n      add\n      0x40\n      mstore\n      dup1\n      swap3\n      swap2\n      swap1\n      dup2\n      dup2\n      mstore\n      0x20\n      add\n      dup3\n      dup1\n      sload\n      tag_103\n      swap1\n      tag_95\n      jump\t// in\n    tag_103:\n      dup1\n      iszero\n      tag_104\n      jumpi\n      dup1\n      0x1f\n      lt\n      tag_105\n      jumpi\n      0x0100\n      dup1\n      dup4\n      sload\n      div\n      mul\n      dup4\n      mstore\n      swap2\n      0x20\n      add\n      swap2\n      jump(tag_104)\n    tag_105:\n      dup3\n      add\n      swap2\n      swap1\n      0x00\n      mstore\n      keccak256(0x00, 0x20)\n      swap1\n    tag_106:\n      dup2\n      sload\n      dup2\n      mstore\n      swap1\n      0x01\n      add\n      swap1\n      0x20\n      add\n      dup1\n      dup4\n      gt\n      tag_106\n      jumpi\n      dup3\n      swap1\n      sub\n      0x1f\n      and\n      dup3\n      add\n      swap2\n    tag_104:\n      pop\n      pop\n      pop\n      pop\n      pop\n      swap1\n      dup1\n      0x01\n      add\n      sload\n      swap1\n      dup1\n      0x02\n      add\n      sload\n      swap1\n      dup1\n      0x03\n      add\n      0x00\n      swap1\n      sload\n      swap1\n      0x0100\n      exp\n      swap1\n      div\n      0xff\n      and\n      swap1\n      dup1\n      0x03\n      add\n      0x01\n      swap1\n      sload\n      swap1\n      0x0100\n      exp\n      swap1\n      div\n      0xff\n      and\n      swap1\n      dup1\n      0x04\n      add\n      sload\n      swap1\n      pop\n      dup7\n      jump\t// out\n        /* \"contracts/8thaug.sol\":1340:1682  function update(uint _rollno, string memory _name, uint _age, Department _department, Status _status) public {... */\n    tag_40:\n        /* \"contracts/8thaug.sol\":1460:1484  Student storage localVar */\n      0x00\n        /* \"contracts/8thaug.sol\":1487:1494  stdinfo */\n      dup1\n        /* \"contracts/8thaug.sol\":1487:1503  stdinfo[_rollno] */\n      0x00\n        /* \"contracts/8thaug.sol\":1495:1502  _rollno */\n      dup8\n        /* \"contracts/8thaug.sol\":1487:1503  stdinfo[_rollno] */\n      dup2\n      mstore\n      0x20\n      add\n      swap1\n      dup2\n      mstore\n      0x20\n      add\n      0x00\n      keccak256\n        /* \"contracts/8thaug.sol\":1460:1503  Student storage localVar = stdinfo[_rollno] */\n      swap1\n      pop\n        /* \"contracts/8thaug.sol\":1530:1535  _name */\n      dup5\n        /* \"contracts/8thaug.sol\":1514:1522  localVar */\n      dup2\n        /* \"contracts/8thaug.sol\":1514:1527  localVar.name */\n      0x00\n      add\n        /* \"contracts/8thaug.sol\":1514:1535  localVar.name = _name */\n      swap1\n      dup2\n      tag_108\n      swap2\n      swap1\n      tag_109\n      jump\t// in\n    tag_108:\n      pop\n        /* \"contracts/8thaug.sol\":1561:1565  _age */\n      dup4\n        /* \"contracts/8thaug.sol\":1546:1554  localVar */\n      dup2\n        /* \"contracts/8thaug.sol\":1546:1558  localVar.age */\n      0x01\n      add\n        /* \"contracts/8thaug.sol\":1546:1565  localVar.age = _age */\n      dup2\n      swap1\n      sstore\n      pop\n        /* \"contracts/8thaug.sol\":1598:1609  _department */\n      dup3\n        /* \"contracts/8thaug.sol\":1576:1584  localVar */\n      dup2\n        /* \"contracts/8thaug.sol\":1576:1595  localVar.department */\n      0x03\n      add\n      0x00\n        /* \"contracts/8thaug.sol\":1576:1609  localVar.department = _department */\n      0x0100\n      exp\n      dup2\n      sload\n      dup2\n      0xff\n      mul\n      not\n      and\n      swap1\n      dup4\n      0x03\n      dup2\n      gt\n      iszero\n      tag_110\n      jumpi\n      tag_111\n      tag_69\n      jump\t// in\n    tag_111:\n    tag_110:\n      mul\n      or\n      swap1\n      sstore\n      pop\n        /* \"contracts/8thaug.sol\":1638:1645  _status */\n      dup2\n        /* \"contracts/8thaug.sol\":1620:1628  localVar */\n      dup2\n        /* \"contracts/8thaug.sol\":1620:1635  localVar.status */\n      0x03\n      add\n      0x01\n        /* \"contracts/8thaug.sol\":1620:1645  localVar.status = _status */\n      0x0100\n      exp\n      dup2\n      sload\n      dup2\n      0xff\n      mul\n      not\n      and\n      swap1\n      dup4\n      0x03\n      dup2\n      gt\n      iszero\n      tag_112\n      jumpi\n      tag_113\n      tag_69\n      jump\t// in\n    tag_113:\n    tag_112:\n      mul\n      or\n      swap1\n      sstore\n      pop\n        /* \"contracts/8thaug.sol\":1656:1659  arr */\n      0x01\n        /* \"contracts/8thaug.sol\":1665:1673  localVar */\n      dup2\n        /* \"contracts/8thaug.sol\":1656:1674  arr.push(localVar) */\n      swap1\n      dup1\n      0x01\n      dup2\n      sload\n      add\n      dup1\n      dup3\n      sstore\n      dup1\n      swap2\n      pop\n      pop\n      0x01\n      swap1\n      sub\n      swap1\n      0x00\n      mstore\n      keccak256(0x00, 0x20)\n      swap1\n      0x05\n      mul\n      add\n      0x00\n      swap1\n      swap2\n      swap1\n      swap2\n      swap1\n      swap2\n      pop\n      0x00\n      dup3\n      add\n      dup2\n      0x00\n      add\n      swap1\n      dup2\n      tag_115\n      swap2\n      swap1\n      tag_116\n      jump\t// in\n    tag_115:\n      pop\n      0x01\n      dup3\n      add\n      sload\n      dup2\n      0x01\n      add\n      sstore\n      0x02\n      dup3\n      add\n      sload\n      dup2\n      0x02\n      add\n      sstore\n      0x03\n      dup3\n      add\n      0x00\n      swap1\n      sload\n      swap1\n      0x0100\n      exp\n      swap1\n      div\n      0xff\n      and\n      dup2\n      0x03\n      add\n      exp(0x0100, 0x00)\n      dup2\n      sload\n      dup2\n      0xff\n      mul\n      not\n      and\n      swap1\n      dup4\n      0x03\n      dup2\n      gt\n      iszero\n      tag_117\n      jumpi\n      tag_118\n      tag_69\n      jump\t// in\n    tag_118:\n    tag_117:\n      mul\n      or\n      swap1\n      sstore\n      pop\n      0x03\n      dup3\n      add\n      0x01\n      swap1\n      sload\n      swap1\n      0x0100\n      exp\n      swap1\n      div\n      0xff\n      and\n      dup2\n      0x03\n      add\n      exp(0x0100, 0x01)\n      dup2\n      sload\n      dup2\n      0xff\n      mul\n      not\n      and\n      swap1\n      dup4\n      0x03\n      dup2\n      gt\n      iszero\n      tag_119\n      jumpi\n      tag_120\n      tag_69\n      jump\t// in\n    tag_120:\n    tag_119:\n      mul\n      or\n      swap1\n      sstore\n      pop\n      0x04\n      dup3\n      add\n      sload\n      dup2\n      0x04\n      add\n      sstore\n      pop\n      pop\n        /* \"contracts/8thaug.sol\":1449:1682  {... */\n      pop\n        /* \"contracts/8thaug.sol\":1340:1682  function update(uint _rollno, string memory _name, uint _age, Department _department, Status _status) public {... */\n      pop\n      pop\n      pop\n      pop\n      pop\n      jump\t// out\n        /* \"contracts/8thaug.sol\":1688:2021  function retrieve(uint _rollno) public view returns (string memory _name, uint _age, uint _registrationDate, Department _department, Status _status, uint _obtainedMarks) {... */\n    tag_43:\n        /* \"contracts/8thaug.sol\":1741:1760  string memory _name */\n      0x60\n        /* \"contracts/8thaug.sol\":1762:1771  uint _age */\n      0x00\n        /* \"contracts/8thaug.sol\":1773:1795  uint _registrationDate */\n      dup1\n        /* \"contracts/8thaug.sol\":1797:1819  Department _department */\n      0x00\n        /* \"contracts/8thaug.sol\":1821:1835  Status _status */\n      dup1\n        /* \"contracts/8thaug.sol\":1837:1856  uint _obtainedMarks */\n      0x00\n        /* \"contracts/8thaug.sol\":1869:1888  Student storage std */\n      dup1\n        /* \"contracts/8thaug.sol\":1891:1898  stdinfo */\n      0x00\n        /* \"contracts/8thaug.sol\":1891:1907  stdinfo[_rollno] */\n      dup1\n        /* \"contracts/8thaug.sol\":1899:1906  _rollno */\n      dup10\n        /* \"contracts/8thaug.sol\":1891:1907  stdinfo[_rollno] */\n      dup2\n      mstore\n      0x20\n      add\n      swap1\n      dup2\n      mstore\n      0x20\n      add\n      0x00\n      keccak256\n        /* \"contracts/8thaug.sol\":1869:1907  Student storage std = stdinfo[_rollno] */\n      swap1\n      pop\n        /* \"contracts/8thaug.sol\":1926:1929  std */\n      dup1\n        /* \"contracts/8thaug.sol\":1926:1934  std.name */\n      0x00\n      add\n        /* \"contracts/8thaug.sol\":1936:1939  std */\n      dup2\n        /* \"contracts/8thaug.sol\":1936:1943  std.age */\n      0x01\n      add\n      sload\n        /* \"contracts/8thaug.sol\":1945:1948  std */\n      dup3\n        /* \"contracts/8thaug.sol\":1945:1965  std.registrationDate */\n      0x02\n      add\n      sload\n        /* \"contracts/8thaug.sol\":1967:1970  std */\n      dup4\n        /* \"contracts/8thaug.sol\":1967:1981  std.department */\n      0x03\n      add\n      0x00\n      swap1\n      sload\n      swap1\n      0x0100\n      exp\n      swap1\n      div\n      0xff\n      and\n        /* \"contracts/8thaug.sol\":1983:1986  std */\n      dup5\n        /* \"contracts/8thaug.sol\":1983:1993  std.status */\n      0x03\n      add\n      0x01\n      swap1\n      sload\n      swap1\n      0x0100\n      exp\n      swap1\n      div\n      0xff\n      and\n        /* \"contracts/8thaug.sol\":1995:1998  std */\n      dup6\n        /* \"contracts/8thaug.sol\":1995:2012  std.obtainedMarks */\n      0x04\n      add\n      sload\n        /* \"contracts/8thaug.sol\":1918:2013  return (std.name, std.age, std.registrationDate, std.department, std.status, std.obtainedMarks) */\n      dup6\n      dup1\n      sload\n      tag_122\n      swap1\n      tag_95\n      jump\t// in\n    tag_122:\n      dup1\n      0x1f\n      add\n      0x20\n      dup1\n      swap2\n      div\n      mul\n      0x20\n      add\n      mload(0x40)\n      swap1\n      dup2\n      add\n      0x40\n      mstore\n      dup1\n      swap3\n      swap2\n      swap1\n      dup2\n      dup2\n      mstore\n      0x20\n      add\n      dup3\n      dup1\n      sload\n      tag_123\n      swap1\n      tag_95\n      jump\t// in\n    tag_123:\n      dup1\n      iszero\n      tag_124\n      jumpi\n      dup1\n      0x1f\n      lt\n      tag_125\n      jumpi\n      0x0100\n      dup1\n      dup4\n      sload\n      div\n      mul\n      dup4\n      mstore\n      swap2\n      0x20\n      add\n      swap2\n      jump(tag_124)\n    tag_125:\n      dup3\n      add\n      swap2\n      swap1\n      0x00\n      mstore\n      keccak256(0x00, 0x20)\n      swap1\n    tag_126:\n      dup2\n      sload\n      dup2\n      mstore\n      swap1\n      0x01\n      add\n      swap1\n      0x20\n      add\n      dup1\n      dup4\n      gt\n      tag_126\n      jumpi\n      dup3\n      swap1\n      sub\n      0x1f\n      and\n      dup3\n      add\n      swap2\n    tag_124:\n      pop\n      pop\n      pop\n      pop\n      pop\n      swap6\n      pop\n      swap7\n      pop\n      swap7\n      pop\n      swap7\n      pop\n      swap7\n      pop\n      swap7\n      pop\n      swap7\n      pop\n      pop\n        /* \"contracts/8thaug.sol\":1688:2021  function retrieve(uint _rollno) public view returns (string memory _name, uint _age, uint _registrationDate, Department _department, Status _status, uint _obtainedMarks) {... */\n      swap2\n      swap4\n      swap6\n      pop\n      swap2\n      swap4\n      swap6\n      jump\t// out\n        /* \"contracts/8thaug.sol\":505:544  mapping(uint => Student) public stdinfo */\n    tag_47:\n      mstore(0x20, 0x00)\n      dup1\n      0x00\n      mstore\n      keccak256(0x00, 0x40)\n      0x00\n      swap2\n      pop\n      swap1\n      pop\n      dup1\n      0x00\n      add\n      dup1\n      sload\n      tag_127\n      swap1\n      tag_95\n      jump\t// in\n    tag_127:\n      dup1\n      0x1f\n      add\n      0x20\n      dup1\n      swap2\n      div\n      mul\n      0x20\n      add\n      mload(0x40)\n      swap1\n      dup2\n      add\n      0x40\n      mstore\n      dup1\n      swap3\n      swap2\n      swap1\n      dup2\n      dup2\n      mstore\n      0x20\n      add\n      dup3\n      dup1\n      sload\n      tag_128\n      swap1\n      tag_95\n      jump\t// in\n    tag_128:\n      dup1\n      iszero\n      tag_129\n      jumpi\n      dup1\n      0x1f\n      lt\n      tag_130\n      jumpi\n      0x0100\n      dup1\n      dup4\n      sload\n      div\n      mul\n      dup4\n      mstore\n      swap2\n      0x20\n      add\n      swap2\n      jump(tag_129)\n    tag_130:\n      dup3\n      add\n      swap2\n      swap1\n      0x00\n      mstore\n      keccak256(0x00, 0x20)\n      swap1\n    tag_131:\n      dup2\n      sload\n      dup2\n      mstore\n      swap1\n      0x01\n      add\n      swap1\n      0x20\n      add\n      dup1\n      dup4\n      gt\n      tag_131\n      jumpi\n      dup3\n      swap1\n      sub\n      0x1f\n      and\n      dup3\n      add\n      swap2\n    tag_129:\n      pop\n      pop\n      pop\n      pop\n      pop\n      swap1\n      dup1\n      0x01\n      add\n      sload\n      swap1\n      dup1\n      0x02\n      add\n      sload\n      swap1\n      dup1\n      0x03\n      add\n      0x00\n      swap1\n      sload\n      swap1\n      0x0100\n      exp\n      swap1\n      div\n      0xff\n      and\n      swap1\n      dup1\n      0x03\n      add\n      0x01\n      swap1\n      sload\n      swap1\n      0x0100\n      exp\n      swap1\n      div\n      0xff\n      and\n      swap1\n      dup1\n      0x04\n      add\n      sload\n      swap1\n      pop\n      dup7\n      jump\t// out\n        /* \"contracts/8thaug.sol\":2615:3910  function getTopThreeBlockchainAchievers() public view returns (Student[3] memory) {... */\n    tag_50:\n        /* \"contracts/8thaug.sol\":2678:2695  Student[3] memory */\n      tag_132\n      tag_133\n      jump\t// in\n    tag_132:\n        /* \"contracts/8thaug.sol\":2708:2738  Student[3] memory topAchievers */\n      tag_135\n      tag_133\n      jump\t// in\n    tag_135:\n        /* \"contracts/8thaug.sol\":2749:2765  uint highestMark */\n      0x00\n        /* \"contracts/8thaug.sol\":2780:2802  uint secondHighestMark */\n      dup1\n        /* \"contracts/8thaug.sol\":2817:2838  uint thirdHighestMark */\n      0x00\n        /* \"contracts/8thaug.sol\":2858:2864  uint i */\n      dup1\n        /* \"contracts/8thaug.sol\":2853:3873  for (uint i = 0; i < arr.length; i++) {... */\n    tag_136:\n        /* \"contracts/8thaug.sol\":2874:2877  arr */\n      0x01\n        /* \"contracts/8thaug.sol\":2874:2884  arr.length */\n      dup1\n      sload\n      swap1\n      pop\n        /* \"contracts/8thaug.sol\":2870:2871  i */\n      dup2\n        /* \"contracts/8thaug.sol\":2870:2884  i < arr.length */\n      lt\n        /* \"contracts/8thaug.sol\":2853:3873  for (uint i = 0; i < arr.length; i++) {... */\n      iszero\n      tag_137\n      jumpi\n        /* \"contracts/8thaug.sol\":2931:2952  Department.Blockchain */\n      0x01\n        /* \"contracts/8thaug.sol\":2910:2952  arr[i].department == Department.Blockchain */\n      0x03\n      dup2\n      gt\n      iszero\n      tag_139\n      jumpi\n      tag_140\n      tag_69\n      jump\t// in\n    tag_140:\n    tag_139:\n        /* \"contracts/8thaug.sol\":2910:2913  arr */\n      0x01\n        /* \"contracts/8thaug.sol\":2914:2915  i */\n      dup3\n        /* \"contracts/8thaug.sol\":2910:2916  arr[i] */\n      dup2\n      sload\n      dup2\n      lt\n      tag_141\n      jumpi\n      tag_142\n      tag_143\n      jump\t// in\n    tag_142:\n    tag_141:\n      swap1\n      0x00\n      mstore\n      keccak256(0x00, 0x20)\n      swap1\n      0x05\n      mul\n      add\n        /* \"contracts/8thaug.sol\":2910:2927  arr[i].department */\n      0x03\n      add\n      0x00\n      swap1\n      sload\n      swap1\n      0x0100\n      exp\n      swap1\n      div\n      0xff\n      and\n        /* \"contracts/8thaug.sol\":2910:2952  arr[i].department == Department.Blockchain */\n      0x03\n      dup2\n      gt\n      iszero\n      tag_145\n      jumpi\n      tag_146\n      tag_69\n      jump\t// in\n    tag_146:\n    tag_145:\n      sub\n        /* \"contracts/8thaug.sol\":2906:3862  if (arr[i].department == Department.Blockchain) {... */\n      tag_147\n      jumpi\n        /* \"contracts/8thaug.sol\":2973:2989  uint currentMark */\n      0x00\n        /* \"contracts/8thaug.sol\":2992:2995  arr */\n      0x01\n        /* \"contracts/8thaug.sol\":2996:2997  i */\n      dup3\n        /* \"contracts/8thaug.sol\":2992:2998  arr[i] */\n      dup2\n      sload\n      dup2\n      lt\n      tag_148\n      jumpi\n      tag_149\n      tag_143\n      jump\t// in\n    tag_149:\n    tag_148:\n      swap1\n      0x00\n      mstore\n      keccak256(0x00, 0x20)\n      swap1\n      0x05\n      mul\n      add\n        /* \"contracts/8thaug.sol\":2992:3012  arr[i].obtainedMarks */\n      0x04\n      add\n      sload\n        /* \"contracts/8thaug.sol\":2973:3012  uint currentMark = arr[i].obtainedMarks */\n      swap1\n      pop\n        /* \"contracts/8thaug.sol\":3049:3060  highestMark */\n      dup5\n        /* \"contracts/8thaug.sol\":3035:3046  currentMark */\n      dup2\n        /* \"contracts/8thaug.sol\":3035:3060  currentMark > highestMark */\n      gt\n        /* \"contracts/8thaug.sol\":3031:3847  if (currentMark > highestMark) {... */\n      iszero\n      tag_151\n      jumpi\n        /* \"contracts/8thaug.sol\":3104:3121  secondHighestMark */\n      dup4\n        /* \"contracts/8thaug.sol\":3085:3121  thirdHighestMark = secondHighestMark */\n      swap3\n      pop\n        /* \"contracts/8thaug.sol\":3164:3175  highestMark */\n      dup5\n        /* \"contracts/8thaug.sol\":3144:3175  secondHighestMark = highestMark */\n      swap4\n      pop\n        /* \"contracts/8thaug.sol\":3212:3223  currentMark */\n      dup1\n        /* \"contracts/8thaug.sol\":3198:3223  highestMark = currentMark */\n      swap5\n      pop\n        /* \"contracts/8thaug.sol\":3266:3278  topAchievers */\n      dup6\n        /* \"contracts/8thaug.sol\":3279:3280  1 */\n      0x01\n        /* \"contracts/8thaug.sol\":3266:3281  topAchievers[1] */\n      0x03\n      dup2\n      lt\n      tag_152\n      jumpi\n      tag_153\n      tag_143\n      jump\t// in\n    tag_153:\n    tag_152:\n      0x20\n      mul\n      add\n      mload\n        /* \"contracts/8thaug.sol\":3248:3260  topAchievers */\n      dup7\n        /* \"contracts/8thaug.sol\":3261:3262  2 */\n      0x02\n        /* \"contracts/8thaug.sol\":3248:3263  topAchievers[2] */\n      0x03\n      dup2\n      lt\n      tag_154\n      jumpi\n      tag_155\n      tag_143\n      jump\t// in\n    tag_155:\n    tag_154:\n      0x20\n      mul\n      add\n        /* \"contracts/8thaug.sol\":3248:3281  topAchievers[2] = topAchievers[1] */\n      dup2\n      swap1\n      mstore\n      pop\n        /* \"contracts/8thaug.sol\":3322:3334  topAchievers */\n      dup6\n        /* \"contracts/8thaug.sol\":3335:3336  0 */\n      0x00\n        /* \"contracts/8thaug.sol\":3322:3337  topAchievers[0] */\n      0x03\n      dup2\n      lt\n      tag_156\n      jumpi\n      tag_157\n      tag_143\n      jump\t// in\n    tag_157:\n    tag_156:\n      0x20\n      mul\n      add\n      mload\n        /* \"contracts/8thaug.sol\":3304:3316  topAchievers */\n      dup7\n        /* \"contracts/8thaug.sol\":3317:3318  1 */\n      0x01\n        /* \"contracts/8thaug.sol\":3304:3319  topAchievers[1] */\n      0x03\n      dup2\n      lt\n      tag_158\n      jumpi\n      tag_159\n      tag_143\n      jump\t// in\n    tag_159:\n    tag_158:\n      0x20\n      mul\n      add\n        /* \"contracts/8thaug.sol\":3304:3337  topAchievers[1] = topAchievers[0] */\n      dup2\n      swap1\n      mstore\n      pop\n        /* \"contracts/8thaug.sol\":3378:3381  arr */\n      0x01\n        /* \"contracts/8thaug.sol\":3382:3383  i */\n      dup3\n        /* \"contracts/8thaug.sol\":3378:3384  arr[i] */\n      dup2\n      sload\n      dup2\n      lt\n      tag_160\n      jumpi\n      tag_161\n      tag_143\n      jump\t// in\n    tag_161:\n    tag_160:\n      swap1\n      0x00\n      mstore\n      keccak256(0x00, 0x20)\n      swap1\n      0x05\n      mul\n      add\n        /* \"contracts/8thaug.sol\":3360:3384  topAchievers[0] = arr[i] */\n      mload(0x40)\n      dup1\n      0xc0\n      add\n      0x40\n      mstore\n      swap1\n      dup2\n      0x00\n      dup3\n      add\n      dup1\n      sload\n      tag_163\n      swap1\n      tag_95\n      jump\t// in\n    tag_163:\n      dup1\n      0x1f\n      add\n      0x20\n      dup1\n      swap2\n      div\n      mul\n      0x20\n      add\n      mload(0x40)\n      swap1\n      dup2\n      add\n      0x40\n      mstore\n      dup1\n      swap3\n      swap2\n      swap1\n      dup2\n      dup2\n      mstore\n      0x20\n      add\n      dup3\n      dup1\n      sload\n      tag_164\n      swap1\n      tag_95\n      jump\t// in\n    tag_164:\n      dup1\n      iszero\n      tag_165\n      jumpi\n      dup1\n      0x1f\n      lt\n      tag_166\n      jumpi\n      0x0100\n      dup1\n      dup4\n      sload\n      div\n      mul\n      dup4\n      mstore\n      swap2\n      0x20\n      add\n      swap2\n      jump(tag_165)\n    tag_166:\n      dup3\n      add\n      swap2\n      swap1\n      0x00\n      mstore\n      keccak256(0x00, 0x20)\n      swap1\n    tag_167:\n      dup2\n      sload\n      dup2\n      mstore\n      swap1\n      0x01\n      add\n      swap1\n      0x20\n      add\n      dup1\n      dup4\n      gt\n      tag_167\n      jumpi\n      dup3\n      swap1\n      sub\n      0x1f\n      and\n      dup3\n      add\n      swap2\n    tag_165:\n      pop\n      pop\n      pop\n      pop\n      pop\n      dup2\n      mstore\n      0x20\n      add\n      0x01\n      dup3\n      add\n      sload\n      dup2\n      mstore\n      0x20\n      add\n      0x02\n      dup3\n      add\n      sload\n      dup2\n      mstore\n      0x20\n      add\n      0x03\n      dup3\n      add\n      0x00\n      swap1\n      sload\n      swap1\n      0x0100\n      exp\n      swap1\n      div\n      0xff\n      and\n      0x03\n      dup2\n      gt\n      iszero\n      tag_168\n      jumpi\n      tag_169\n      tag_69\n      jump\t// in\n    tag_169:\n    tag_168:\n      0x03\n      dup2\n      gt\n      iszero\n      tag_170\n      jumpi\n      tag_171\n      tag_69\n      jump\t// in\n    tag_171:\n    tag_170:\n      dup2\n      mstore\n      0x20\n      add\n      0x03\n      dup3\n      add\n      0x01\n      swap1\n      sload\n      swap1\n      0x0100\n      exp\n      swap1\n      div\n      0xff\n      and\n      0x03\n      dup2\n      gt\n      iszero\n      tag_172\n      jumpi\n      tag_173\n      tag_69\n      jump\t// in\n    tag_173:\n    tag_172:\n      0x03\n      dup2\n      gt\n      iszero\n      tag_174\n      jumpi\n      tag_175\n      tag_69\n      jump\t// in\n    tag_175:\n    tag_174:\n      dup2\n      mstore\n      0x20\n      add\n      0x04\n      dup3\n      add\n      sload\n      dup2\n      mstore\n      pop\n      pop\n        /* \"contracts/8thaug.sol\":3360:3372  topAchievers */\n      dup7\n        /* \"contracts/8thaug.sol\":3373:3374  0 */\n      0x00\n        /* \"contracts/8thaug.sol\":3360:3375  topAchievers[0] */\n      0x03\n      dup2\n      lt\n      tag_176\n      jumpi\n      tag_177\n      tag_143\n      jump\t// in\n    tag_177:\n    tag_176:\n      0x20\n      mul\n      add\n        /* \"contracts/8thaug.sol\":3360:3384  topAchievers[0] = arr[i] */\n      dup2\n      swap1\n      mstore\n      pop\n        /* \"contracts/8thaug.sol\":3031:3847  if (currentMark > highestMark) {... */\n      jump(tag_178)\n    tag_151:\n        /* \"contracts/8thaug.sol\":3428:3445  secondHighestMark */\n      dup4\n        /* \"contracts/8thaug.sol\":3414:3425  currentMark */\n      dup2\n        /* \"contracts/8thaug.sol\":3414:3445  currentMark > secondHighestMark */\n      gt\n        /* \"contracts/8thaug.sol\":3410:3847  if (currentMark > secondHighestMark) {... */\n      iszero\n      tag_179\n      jumpi\n        /* \"contracts/8thaug.sol\":3489:3506  secondHighestMark */\n      dup4\n        /* \"contracts/8thaug.sol\":3470:3506  thirdHighestMark = secondHighestMark */\n      swap3\n      pop\n        /* \"contracts/8thaug.sol\":3549:3560  currentMark */\n      dup1\n        /* \"contracts/8thaug.sol\":3529:3560  secondHighestMark = currentMark */\n      swap4\n      pop\n        /* \"contracts/8thaug.sol\":3603:3615  topAchievers */\n      dup6\n        /* \"contracts/8thaug.sol\":3616:3617  1 */\n      0x01\n        /* \"contracts/8thaug.sol\":3603:3618  topAchievers[1] */\n      0x03\n      dup2\n      lt\n      tag_180\n      jumpi\n      tag_181\n      tag_143\n      jump\t// in\n    tag_181:\n    tag_180:\n      0x20\n      mul\n      add\n      mload\n        /* \"contracts/8thaug.sol\":3585:3597  topAchievers */\n      dup7\n        /* \"contracts/8thaug.sol\":3598:3599  2 */\n      0x02\n        /* \"contracts/8thaug.sol\":3585:3600  topAchievers[2] */\n      0x03\n      dup2\n      lt\n      tag_182\n      jumpi\n      tag_183\n      tag_143\n      jump\t// in\n    tag_183:\n    tag_182:\n      0x20\n      mul\n      add\n        /* \"contracts/8thaug.sol\":3585:3618  topAchievers[2] = topAchievers[1] */\n      dup2\n      swap1\n      mstore\n      pop\n        /* \"contracts/8thaug.sol\":3659:3662  arr */\n      0x01\n        /* \"contracts/8thaug.sol\":3663:3664  i */\n      dup3\n        /* \"contracts/8thaug.sol\":3659:3665  arr[i] */\n      dup2\n      sload\n      dup2\n      lt\n      tag_184\n      jumpi\n      tag_185\n      tag_143\n      jump\t// in\n    tag_185:\n    tag_184:\n      swap1\n      0x00\n      mstore\n      keccak256(0x00, 0x20)\n      swap1\n      0x05\n      mul\n      add\n        /* \"contracts/8thaug.sol\":3641:3665  topAchievers[1] = arr[i] */\n      mload(0x40)\n      dup1\n      0xc0\n      add\n      0x40\n      mstore\n      swap1\n      dup2\n      0x00\n      dup3\n      add\n      dup1\n      sload\n      tag_187\n      swap1\n      tag_95\n      jump\t// in\n    tag_187:\n      dup1\n      0x1f\n      add\n      0x20\n      dup1\n      swap2\n      div\n      mul\n      0x20\n      add\n      mload(0x40)\n      swap1\n      dup2\n      add\n      0x40\n      mstore\n      dup1\n      swap3\n      swap2\n      swap1\n      dup2\n      dup2\n      mstore\n      0x20\n      add\n      dup3\n      dup1\n      sload\n      tag_188\n      swap1\n      tag_95\n      jump\t// in\n    tag_188:\n      dup1\n      iszero\n      tag_189\n      jumpi\n      dup1\n      0x1f\n      lt\n      tag_190\n      jumpi\n      0x0100\n      dup1\n      dup4\n      sload\n      div\n      mul\n      dup4\n      mstore\n      swap2\n      0x20\n      add\n      swap2\n      jump(tag_189)\n    tag_190:\n      dup3\n      add\n      swap2\n      swap1\n      0x00\n      mstore\n      keccak256(0x00, 0x20)\n      swap1\n    tag_191:\n      dup2\n      sload\n      dup2\n      mstore\n      swap1\n      0x01\n      add\n      swap1\n      0x20\n      add\n      dup1\n      dup4\n      gt\n      tag_191\n      jumpi\n      dup3\n      swap1\n      sub\n      0x1f\n      and\n      dup3\n      add\n      swap2\n    tag_189:\n      pop\n      pop\n      pop\n      pop\n      pop\n      dup2\n      mstore\n      0x20\n      add\n      0x01\n      dup3\n      add\n      sload\n      dup2\n      mstore\n      0x20\n      add\n      0x02\n      dup3\n      add\n      sload\n      dup2\n      mstore\n      0x20\n      add\n      0x03\n      dup3\n      add\n      0x00\n      swap1\n      sload\n      swap1\n      0x0100\n      exp\n      swap1\n      div\n      0xff\n      and\n      0x03\n      dup2\n      gt\n      iszero\n      tag_192\n      jumpi\n      tag_193\n      tag_69\n      jump\t// in\n    tag_193:\n    tag_192:\n      0x03\n      dup2\n      gt\n      iszero\n      tag_194\n      jumpi\n      tag_195\n      tag_69\n      jump\t// in\n    tag_195:\n    tag_194:\n      dup2\n      mstore\n      0x20\n      add\n      0x03\n      dup3\n      add\n      0x01\n      swap1\n      sload\n      swap1\n      0x0100\n      exp\n      swap1\n      div\n      0xff\n      and\n      0x03\n      dup2\n      gt\n      iszero\n      tag_196\n      jumpi\n      tag_197\n      tag_69\n      jump\t// in\n    tag_197:\n    tag_196:\n      0x03\n      dup2\n      gt\n      iszero\n      tag_198\n      jumpi\n      tag_199\n      tag_69\n      jump\t// in\n    tag_199:\n    tag_198:\n      dup2\n      mstore\n      0x20\n      add\n      0x04\n      dup3\n      add\n      sload\n      dup2\n      mstore\n      pop\n      pop\n        /* \"contracts/8thaug.sol\":3641:3653  topAchievers */\n      dup7\n        /* \"contracts/8thaug.sol\":3654:3655  1 */\n      0x01\n        /* \"contracts/8thaug.sol\":3641:3656  topAchievers[1] */\n      0x03\n      dup2\n      lt\n      tag_200\n      jumpi\n      tag_201\n      tag_143\n      jump\t// in\n    tag_201:\n    tag_200:\n      0x20\n      mul\n      add\n        /* \"contracts/8thaug.sol\":3641:3665  topAchievers[1] = arr[i] */\n      dup2\n      swap1\n      mstore\n      pop\n        /* \"contracts/8thaug.sol\":3410:3847  if (currentMark > secondHighestMark) {... */\n      jump(tag_202)\n    tag_179:\n        /* \"contracts/8thaug.sol\":3709:3725  thirdHighestMark */\n      dup3\n        /* \"contracts/8thaug.sol\":3695:3706  currentMark */\n      dup2\n        /* \"contracts/8thaug.sol\":3695:3725  currentMark > thirdHighestMark */\n      gt\n        /* \"contracts/8thaug.sol\":3691:3847  if (currentMark > thirdHighestMark) {... */\n      iszero\n      tag_203\n      jumpi\n        /* \"contracts/8thaug.sol\":3769:3780  currentMark */\n      dup1\n        /* \"contracts/8thaug.sol\":3750:3780  thirdHighestMark = currentMark */\n      swap3\n      pop\n        /* \"contracts/8thaug.sol\":3821:3824  arr */\n      0x01\n        /* \"contracts/8thaug.sol\":3825:3826  i */\n      dup3\n        /* \"contracts/8thaug.sol\":3821:3827  arr[i] */\n      dup2\n      sload\n      dup2\n      lt\n      tag_204\n      jumpi\n      tag_205\n      tag_143\n      jump\t// in\n    tag_205:\n    tag_204:\n      swap1\n      0x00\n      mstore\n      keccak256(0x00, 0x20)\n      swap1\n      0x05\n      mul\n      add\n        /* \"contracts/8thaug.sol\":3803:3827  topAchievers[2] = arr[i] */\n      mload(0x40)\n      dup1\n      0xc0\n      add\n      0x40\n      mstore\n      swap1\n      dup2\n      0x00\n      dup3\n      add\n      dup1\n      sload\n      tag_207\n      swap1\n      tag_95\n      jump\t// in\n    tag_207:\n      dup1\n      0x1f\n      add\n      0x20\n      dup1\n      swap2\n      div\n      mul\n      0x20\n      add\n      mload(0x40)\n      swap1\n      dup2\n      add\n      0x40\n      mstore\n      dup1\n      swap3\n      swap2\n      swap1\n      dup2\n      dup2\n      mstore\n      0x20\n      add\n      dup3\n      dup1\n      sload\n      tag_208\n      swap1\n      tag_95\n      jump\t// in\n    tag_208:\n      dup1\n      iszero\n      tag_209\n      jumpi\n      dup1\n      0x1f\n      lt\n      tag_210\n      jumpi\n      0x0100\n      dup1\n      dup4\n      sload\n      div\n      mul\n      dup4\n      mstore\n      swap2\n      0x20\n      add\n      swap2\n      jump(tag_209)\n    tag_210:\n      dup3\n      add\n      swap2\n      swap1\n      0x00\n      mstore\n      keccak256(0x00, 0x20)\n      swap1\n    tag_211:\n      dup2\n      sload\n      dup2\n      mstore\n      swap1\n      0x01\n      add\n      swap1\n      0x20\n      add\n      dup1\n      dup4\n      gt\n      tag_211\n      jumpi\n      dup3\n      swap1\n      sub\n      0x1f\n      and\n      dup3\n      add\n      swap2\n    tag_209:\n      pop\n      pop\n      pop\n      pop\n      pop\n      dup2\n      mstore\n      0x20\n      add\n      0x01\n      dup3\n      add\n      sload\n      dup2\n      mstore\n      0x20\n      add\n      0x02\n      dup3\n      add\n      sload\n      dup2\n      mstore\n      0x20\n      add\n      0x03\n      dup3\n      add\n      0x00\n      swap1\n      sload\n      swap1\n      0x0100\n      exp\n      swap1\n      div\n      0xff\n      and\n      0x03\n      dup2\n      gt\n      iszero\n      tag_212\n      jumpi\n      tag_213\n      tag_69\n      jump\t// in\n    tag_213:\n    tag_212:\n      0x03\n      dup2\n      gt\n      iszero\n      tag_214\n      jumpi\n      tag_215\n      tag_69\n      jump\t// in\n    tag_215:\n    tag_214:\n      dup2\n      mstore\n      0x20\n      add\n      0x03\n      dup3\n      add\n      0x01\n      swap1\n      sload\n      swap1\n      0x0100\n      exp\n      swap1\n      div\n      0xff\n      and\n      0x03\n      dup2\n      gt\n      iszero\n      tag_216\n      jumpi\n      tag_217\n      tag_69\n      jump\t// in\n    tag_217:\n    tag_216:\n      0x03\n      dup2\n      gt\n      iszero\n      tag_218\n      jumpi\n      tag_219\n      tag_69\n      jump\t// in\n    tag_219:\n    tag_218:\n      dup2\n      mstore\n      0x20\n      add\n      0x04\n      dup3\n      add\n      sload\n      dup2\n      mstore\n      pop\n      pop\n        /* \"contracts/8thaug.sol\":3803:3815  topAchievers */\n      dup7\n        /* \"contracts/8thaug.sol\":3816:3817  2 */\n      0x02\n        /* \"contracts/8thaug.sol\":3803:3818  topAchievers[2] */\n      0x03\n      dup2\n      lt\n      tag_220\n      jumpi\n      tag_221\n      tag_143\n      jump\t// in\n    tag_221:\n    tag_220:\n      0x20\n      mul\n      add\n        /* \"contracts/8thaug.sol\":3803:3827  topAchievers[2] = arr[i] */\n      dup2\n      swap1\n      mstore\n      pop\n        /* \"contracts/8thaug.sol\":3691:3847  if (currentMark > thirdHighestMark) {... */\n    tag_203:\n        /* \"contracts/8thaug.sol\":3410:3847  if (currentMark > secondHighestMark) {... */\n    tag_202:\n        /* \"contracts/8thaug.sol\":3031:3847  if (currentMark > highestMark) {... */\n    tag_178:\n        /* \"contracts/8thaug.sol\":2954:3862  {... */\n      pop\n        /* \"contracts/8thaug.sol\":2906:3862  if (arr[i].department == Department.Blockchain) {... */\n    tag_147:\n        /* \"contracts/8thaug.sol\":2886:2889  i++ */\n      dup1\n      dup1\n      tag_222\n      swap1\n      tag_74\n      jump\t// in\n    tag_222:\n      swap2\n      pop\n      pop\n        /* \"contracts/8thaug.sol\":2853:3873  for (uint i = 0; i < arr.length; i++) {... */\n      jump(tag_136)\n    tag_137:\n      pop\n        /* \"contracts/8thaug.sol\":3890:3902  topAchievers */\n      dup4\n        /* \"contracts/8thaug.sol\":3883:3902  return topAchievers */\n      swap5\n      pop\n      pop\n      pop\n      pop\n      pop\n        /* \"contracts/8thaug.sol\":2615:3910  function getTopThreeBlockchainAchievers() public view returns (Student[3] memory) {... */\n      swap1\n      jump\t// out\n        /* \"contracts/8thaug.sol\":615:1334  function registration(uint _rollno, string memory _name, uint _age, uint _registrationDate, Department _department, Status _status, uint _obtainedMarks) public {... */\n    tag_56:\n        /* \"contracts/8thaug.sol\":801:819  Status.NotEnrolled */\n      0x01\n        /* \"contracts/8thaug.sol\":790:819  _status == Status.NotEnrolled */\n      0x03\n      dup2\n      gt\n      iszero\n      tag_224\n      jumpi\n      tag_225\n      tag_69\n      jump\t// in\n    tag_225:\n    tag_224:\n        /* \"contracts/8thaug.sol\":790:797  _status */\n      dup3\n        /* \"contracts/8thaug.sol\":790:819  _status == Status.NotEnrolled */\n      0x03\n      dup2\n      gt\n      iszero\n      tag_226\n      jumpi\n      tag_227\n      tag_69\n      jump\t// in\n    tag_227:\n    tag_226:\n      eq\n        /* \"contracts/8thaug.sol\":790:849  _status == Status.NotEnrolled || _status == Status.Expelled */\n      dup1\n      tag_228\n      jumpi\n      pop\n        /* \"contracts/8thaug.sol\":834:849  Status.Expelled */\n      0x03\n        /* \"contracts/8thaug.sol\":823:849  _status == Status.Expelled */\n      dup1\n      dup2\n      gt\n      iszero\n      tag_229\n      jumpi\n      tag_230\n      tag_69\n      jump\t// in\n    tag_230:\n    tag_229:\n        /* \"contracts/8thaug.sol\":823:830  _status */\n      dup3\n        /* \"contracts/8thaug.sol\":823:849  _status == Status.Expelled */\n      0x03\n      dup2\n      gt\n      iszero\n      tag_231\n      jumpi\n      tag_232\n      tag_69\n      jump\t// in\n    tag_232:\n    tag_231:\n      eq\n        /* \"contracts/8thaug.sol\":790:849  _status == Status.NotEnrolled || _status == Status.Expelled */\n    tag_228:\n        /* \"contracts/8thaug.sol\":786:896  if (_status == Status.NotEnrolled || _status == Status.Expelled) {... */\n      iszero\n      tag_233\n      jumpi\n        /* \"contracts/8thaug.sol\":883:884  0 */\n      0x00\n        /* \"contracts/8thaug.sol\":866:884  _obtainedMarks = 0 */\n      swap1\n      pop\n        /* \"contracts/8thaug.sol\":786:896  if (_status == Status.NotEnrolled || _status == Status.Expelled) {... */\n    tag_233:\n        /* \"contracts/8thaug.sol\":906:930  Student storage localVar */\n      0x00\n        /* \"contracts/8thaug.sol\":933:942  _localvar */\n      0x02\n        /* \"contracts/8thaug.sol\":906:942  Student storage localVar = _localvar */\n      swap1\n      pop\n        /* \"contracts/8thaug.sol\":969:974  _name */\n      dup7\n        /* \"contracts/8thaug.sol\":953:961  localVar */\n      dup2\n        /* \"contracts/8thaug.sol\":953:966  localVar.name */\n      0x00\n      add\n        /* \"contracts/8thaug.sol\":953:974  localVar.name = _name */\n      swap1\n      dup2\n      tag_234\n      swap2\n      swap1\n      tag_109\n      jump\t// in\n    tag_234:\n      pop\n        /* \"contracts/8thaug.sol\":1000:1004  _age */\n      dup6\n        /* \"contracts/8thaug.sol\":985:993  localVar */\n      dup2\n        /* \"contracts/8thaug.sol\":985:997  localVar.age */\n      0x01\n      add\n        /* \"contracts/8thaug.sol\":985:1004  localVar.age = _age */\n      dup2\n      swap1\n      sstore\n      pop\n        /* \"contracts/8thaug.sol\":1043:1060  _registrationDate */\n      dup5\n        /* \"contracts/8thaug.sol\":1015:1023  localVar */\n      dup2\n        /* \"contracts/8thaug.sol\":1015:1040  localVar.registrationDate */\n      0x02\n      add\n        /* \"contracts/8thaug.sol\":1015:1060  localVar.registrationDate = _registrationDate */\n      dup2\n      swap1\n      sstore\n      pop\n        /* \"contracts/8thaug.sol\":1093:1104  _department */\n      dup4\n        /* \"contracts/8thaug.sol\":1071:1079  localVar */\n      dup2\n        /* \"contracts/8thaug.sol\":1071:1090  localVar.department */\n      0x03\n      add\n      0x00\n        /* \"contracts/8thaug.sol\":1071:1104  localVar.department = _department */\n      0x0100\n      exp\n      dup2\n      sload\n      dup2\n      0xff\n      mul\n      not\n      and\n      swap1\n      dup4\n      0x03\n      dup2\n      gt\n      iszero\n      tag_235\n      jumpi\n      tag_236\n      tag_69\n      jump\t// in\n    tag_236:\n    tag_235:\n      mul\n      or\n      swap1\n      sstore\n      pop\n        /* \"contracts/8thaug.sol\":1133:1140  _status */\n      dup3\n        /* \"contracts/8thaug.sol\":1115:1123  localVar */\n      dup2\n        /* \"contracts/8thaug.sol\":1115:1130  localVar.status */\n      0x03\n      add\n      0x01\n        /* \"contracts/8thaug.sol\":1115:1140  localVar.status = _status */\n      0x0100\n      exp\n      dup2\n      sload\n      dup2\n      0xff\n      mul\n      not\n      and\n      swap1\n      dup4\n      0x03\n      dup2\n      gt\n      iszero\n      tag_237\n      jumpi\n      tag_238\n      tag_69\n      jump\t// in\n    tag_238:\n    tag_237:\n      mul\n      or\n      swap1\n      sstore\n      pop\n        /* \"contracts/8thaug.sol\":1176:1190  _obtainedMarks */\n      dup2\n        /* \"contracts/8thaug.sol\":1151:1159  localVar */\n      dup2\n        /* \"contracts/8thaug.sol\":1151:1173  localVar.obtainedMarks */\n      0x04\n      add\n        /* \"contracts/8thaug.sol\":1151:1190  localVar.obtainedMarks = _obtainedMarks */\n      dup2\n      swap1\n      sstore\n      pop\n        /* \"contracts/8thaug.sol\":1201:1204  arr */\n      0x01\n        /* \"contracts/8thaug.sol\":1210:1218  localVar */\n      dup2\n        /* \"contracts/8thaug.sol\":1201:1219  arr.push(localVar) */\n      swap1\n      dup1\n      0x01\n      dup2\n      sload\n      add\n      dup1\n      dup3\n      sstore\n      dup1\n      swap2\n      pop\n      pop\n      0x01\n      swap1\n      sub\n      swap1\n      0x00\n      mstore\n      keccak256(0x00, 0x20)\n      swap1\n      0x05\n      mul\n      add\n      0x00\n      swap1\n      swap2\n      swap1\n      swap2\n      swap1\n      swap2\n      pop\n      0x00\n      dup3\n      add\n      dup2\n      0x00\n      add\n      swap1\n      dup2\n      tag_240\n      swap2\n      swap1\n      tag_116\n      jump\t// in\n    tag_240:\n      pop\n      0x01\n      dup3\n      add\n      sload\n      dup2\n      0x01\n      add\n      sstore\n      0x02\n      dup3\n      add\n      sload\n      dup2\n      0x02\n      add\n      sstore\n      0x03\n      dup3\n      add\n      0x00\n      swap1\n      sload\n      swap1\n      0x0100\n      exp\n      swap1\n      div\n      0xff\n      and\n      dup2\n      0x03\n      add\n      exp(0x0100, 0x00)\n      dup2\n      sload\n      dup2\n      0xff\n      mul\n      not\n      and\n      swap1\n      dup4\n      0x03\n      dup2\n      gt\n      iszero\n      tag_241\n      jumpi\n      tag_242\n      tag_69\n      jump\t// in\n    tag_242:\n    tag_241:\n      mul\n      or\n      swap1\n      sstore\n      pop\n      0x03\n      dup3\n      add\n      0x01\n      swap1\n      sload\n      swap1\n      0x0100\n      exp\n      swap1\n      div\n      0xff\n      and\n      dup2\n      0x03\n      add\n      exp(0x0100, 0x01)\n      dup2\n      sload\n      dup2\n      0xff\n      mul\n      not\n      and\n      swap1\n      dup4\n      0x03\n      dup2\n      gt\n      iszero\n      tag_243\n      jumpi\n      tag_244\n      tag_69\n      jump\t// in\n    tag_244:\n    tag_243:\n      mul\n      or\n      swap1\n      sstore\n      pop\n      0x04\n      dup3\n      add\n      sload\n      dup2\n      0x04\n      add\n      sstore\n      pop\n      pop\n        /* \"contracts/8thaug.sol\":1249:1326  Student(_name, _age, _registrationDate, _department, _status, _obtainedMarks) */\n      mload(0x40)\n      dup1\n      0xc0\n      add\n      0x40\n      mstore\n      dup1\n        /* \"contracts/8thaug.sol\":1257:1262  _name */\n      dup9\n        /* \"contracts/8thaug.sol\":1249:1326  Student(_name, _age, _registrationDate, _department, _status, _obtainedMarks) */\n      dup2\n      mstore\n      0x20\n      add\n        /* \"contracts/8thaug.sol\":1264:1268  _age */\n      dup8\n        /* \"contracts/8thaug.sol\":1249:1326  Student(_name, _age, _registrationDate, _department, _status, _obtainedMarks) */\n      dup2\n      mstore\n      0x20\n      add\n        /* \"contracts/8thaug.sol\":1270:1287  _registrationDate */\n      dup7\n        /* \"contracts/8thaug.sol\":1249:1326  Student(_name, _age, _registrationDate, _department, _status, _obtainedMarks) */\n      dup2\n      mstore\n      0x20\n      add\n        /* \"contracts/8thaug.sol\":1289:1300  _department */\n      dup6\n        /* \"contracts/8thaug.sol\":1249:1326  Student(_name, _age, _registrationDate, _department, _status, _obtainedMarks) */\n      0x03\n      dup2\n      gt\n      iszero\n      tag_245\n      jumpi\n      tag_246\n      tag_69\n      jump\t// in\n    tag_246:\n    tag_245:\n      dup2\n      mstore\n      0x20\n      add\n        /* \"contracts/8thaug.sol\":1302:1309  _status */\n      dup5\n        /* \"contracts/8thaug.sol\":1249:1326  Student(_name, _age, _registrationDate, _department, _status, _obtainedMarks) */\n      0x03\n      dup2\n      gt\n      iszero\n      tag_247\n      jumpi\n      tag_248\n      tag_69\n      jump\t// in\n    tag_248:\n    tag_247:\n      dup2\n      mstore\n      0x20\n      add\n        /* \"contracts/8thaug.sol\":1311:1325  _obtainedMarks */\n      dup4\n        /* \"contracts/8thaug.sol\":1249:1326  Student(_name, _age, _registrationDate, _department, _status, _obtainedMarks) */\n      dup2\n      mstore\n      pop\n        /* \"contracts/8thaug.sol\":1230:1237  stdinfo */\n      0x00\n        /* \"contracts/8thaug.sol\":1230:1246  stdinfo[_rollno] */\n      dup1\n        /* \"contracts/8thaug.sol\":1238:1245  _rollno */\n      dup11\n        /* \"contracts/8thaug.sol\":1230:1246  stdinfo[_rollno] */\n      dup2\n      mstore\n      0x20\n      add\n      swap1\n      dup2\n      mstore\n      0x20\n      add\n      0x00\n      keccak256\n        /* \"contracts/8thaug.sol\":1230:1326  stdinfo[_rollno] = Student(_name, _age, _registrationDate, _department, _status, _obtainedMarks) */\n      0x00\n      dup3\n      add\n      mload\n      dup2\n      0x00\n      add\n      swap1\n      dup2\n      tag_249\n      swap2\n      swap1\n      tag_109\n      jump\t// in\n    tag_249:\n      pop\n      0x20\n      dup3\n      add\n      mload\n      dup2\n      0x01\n      add\n      sstore\n      0x40\n      dup3\n      add\n      mload\n      dup2\n      0x02\n      add\n      sstore\n      0x60\n      dup3\n      add\n      mload\n      dup2\n      0x03\n      add\n      exp(0x0100, 0x00)\n      dup2\n      sload\n      dup2\n      0xff\n      mul\n      not\n      and\n      swap1\n      dup4\n      0x03\n      dup2\n      gt\n      iszero\n      tag_250\n      jumpi\n      tag_251\n      tag_69\n      jump\t// in\n    tag_251:\n    tag_250:\n      mul\n      or\n      swap1\n      sstore\n      pop\n      0x80\n      dup3\n      add\n      mload\n      dup2\n      0x03\n      add\n      exp(0x0100, 0x01)\n      dup2\n      sload\n      dup2\n      0xff\n      mul\n      not\n      and\n      swap1\n      dup4\n      0x03\n      dup2\n      gt\n      iszero\n      tag_252\n      jumpi\n      tag_253\n      tag_69\n      jump\t// in\n    tag_253:\n    tag_252:\n      mul\n      or\n      swap1\n      sstore\n      pop\n      0xa0\n      dup3\n      add\n      mload\n      dup2\n      0x04\n      add\n      sstore\n      swap1\n      pop\n      pop\n        /* \"contracts/8thaug.sol\":775:1334  {... */\n      pop\n        /* \"contracts/8thaug.sol\":615:1334  function registration(uint _rollno, string memory _name, uint _age, uint _registrationDate, Department _department, Status _status, uint _obtainedMarks) public {... */\n      pop\n      pop\n      pop\n      pop\n      pop\n      pop\n      pop\n      jump\t// out\n        /* \"contracts/8thaug.sol\":2077:2094  uint public dept3 */\n    tag_58:\n      sload(0x09)\n      dup2\n      jump\t// out\n        /* \"contracts/8thaug.sol\":2053:2070  uint public dept2 */\n    tag_61:\n      sload(0x08)\n      dup2\n      jump\t// out\n    tag_133:\n      mload(0x40)\n      dup1\n      0x60\n      add\n      0x40\n      mstore\n      dup1\n      0x03\n      swap1\n    tag_254:\n      tag_255\n      tag_256\n      jump\t// in\n    tag_255:\n      dup2\n      mstore\n      0x20\n      add\n      swap1\n      0x01\n      swap1\n      sub\n      swap1\n      dup2\n      tag_254\n      jumpi\n      swap1\n      pop\n      pop\n      swap1\n      jump\t// out\n    tag_256:\n      mload(0x40)\n      dup1\n      0xc0\n      add\n      0x40\n      mstore\n      dup1\n      0x60\n      dup2\n      mstore\n      0x20\n      add\n      0x00\n      dup2\n      mstore\n      0x20\n      add\n      0x00\n      dup2\n      mstore\n      0x20\n      add\n      0x00\n      0x03\n      dup2\n      gt\n      iszero\n      tag_257\n      jumpi\n      tag_258\n      tag_69\n      jump\t// in\n    tag_258:\n    tag_257:\n      dup2\n      mstore\n      0x20\n      add\n      0x00\n      0x03\n      dup2\n      gt\n      iszero\n      tag_259\n      jumpi\n      tag_260\n      tag_69\n      jump\t// in\n    tag_260:\n    tag_259:\n      dup2\n      mstore\n      0x20\n      add\n      0x00\n      dup2\n      mstore\n      pop\n      swap1\n      jump\t// out\n        /* \"#utility.yul\":7:84   */\n    tag_261:\n        /* \"#utility.yul\":44:51   */\n      0x00\n        /* \"#utility.yul\":73:78   */\n      dup2\n        /* \"#utility.yul\":62:78   */\n      swap1\n      pop\n        /* \"#utility.yul\":7:84   */\n      swap2\n      swap1\n      pop\n      jump\t// out\n        /* \"#utility.yul\":90:208   */\n    tag_262:\n        /* \"#utility.yul\":177:201   */\n      tag_327\n        /* \"#utility.yul\":195:200   */\n      dup2\n        /* \"#utility.yul\":177:201   */\n      tag_261\n      jump\t// in\n    tag_327:\n        /* \"#utility.yul\":172:175   */\n      dup3\n        /* \"#utility.yul\":165:202   */\n      mstore\n        /* \"#utility.yul\":90:208   */\n      pop\n      pop\n      jump\t// out\n        /* \"#utility.yul\":214:436   */\n    tag_19:\n        /* \"#utility.yul\":307:311   */\n      0x00\n        /* \"#utility.yul\":345:347   */\n      0x20\n        /* \"#utility.yul\":334:343   */\n      dup3\n        /* \"#utility.yul\":330:348   */\n      add\n        /* \"#utility.yul\":322:348   */\n      swap1\n      pop\n        /* \"#utility.yul\":358:429   */\n      tag_329\n        /* \"#utility.yul\":426:427   */\n      0x00\n        /* \"#utility.yul\":415:424   */\n      dup4\n        /* \"#utility.yul\":411:428   */\n      add\n        /* \"#utility.yul\":402:408   */\n      dup5\n        /* \"#utility.yul\":358:429   */\n      tag_262\n      jump\t// in\n    tag_329:\n        /* \"#utility.yul\":214:436   */\n      swap3\n      swap2\n      pop\n      pop\n      jump\t// out\n        /* \"#utility.yul\":442:517   */\n    tag_263:\n        /* \"#utility.yul\":475:481   */\n      0x00\n        /* \"#utility.yul\":508:510   */\n      0x40\n        /* \"#utility.yul\":502:511   */\n      mload\n        /* \"#utility.yul\":492:511   */\n      swap1\n      pop\n        /* \"#utility.yul\":442:517   */\n      swap1\n      jump\t// out\n        /* \"#utility.yul\":523:640   */\n    tag_264:\n        /* \"#utility.yul\":632:633   */\n      0x00\n        /* \"#utility.yul\":629:630   */\n      dup1\n        /* \"#utility.yul\":622:634   */\n      revert\n        /* \"#utility.yul\":646:763   */\n    tag_265:\n        /* \"#utility.yul\":755:756   */\n      0x00\n        /* \"#utility.yul\":752:753   */\n      dup1\n        /* \"#utility.yul\":745:757   */\n      revert\n        /* \"#utility.yul\":769:880   */\n    tag_266:\n        /* \"#utility.yul\":854:855   */\n      0x04\n        /* \"#utility.yul\":847:852   */\n      dup2\n        /* \"#utility.yul\":844:856   */\n      lt\n        /* \"#utility.yul\":834:874   */\n      tag_334\n      jumpi\n        /* \"#utility.yul\":870:871   */\n      0x00\n        /* \"#utility.yul\":867:868   */\n      dup1\n        /* \"#utility.yul\":860:872   */\n      revert\n        /* \"#utility.yul\":834:874   */\n    tag_334:\n        /* \"#utility.yul\":769:880   */\n      pop\n      jump\t// out\n        /* \"#utility.yul\":886:1049   */\n    tag_267:\n        /* \"#utility.yul\":944:949   */\n      0x00\n        /* \"#utility.yul\":982:988   */\n      dup2\n        /* \"#utility.yul\":969:989   */\n      calldataload\n        /* \"#utility.yul\":960:989   */\n      swap1\n      pop\n        /* \"#utility.yul\":998:1043   */\n      tag_336\n        /* \"#utility.yul\":1037:1042   */\n      dup2\n        /* \"#utility.yul\":998:1043   */\n      tag_266\n      jump\t// in\n    tag_336:\n        /* \"#utility.yul\":886:1049   */\n      swap3\n      swap2\n      pop\n      pop\n      jump\t// out\n        /* \"#utility.yul\":1055:1408   */\n    tag_25:\n        /* \"#utility.yul\":1126:1132   */\n      0x00\n        /* \"#utility.yul\":1175:1177   */\n      0x20\n        /* \"#utility.yul\":1163:1172   */\n      dup3\n        /* \"#utility.yul\":1154:1161   */\n      dup5\n        /* \"#utility.yul\":1150:1173   */\n      sub\n        /* \"#utility.yul\":1146:1178   */\n      slt\n        /* \"#utility.yul\":1143:1262   */\n      iszero\n      tag_338\n      jumpi\n        /* \"#utility.yul\":1181:1260   */\n      tag_339\n      tag_264\n      jump\t// in\n    tag_339:\n        /* \"#utility.yul\":1143:1262   */\n    tag_338:\n        /* \"#utility.yul\":1301:1302   */\n      0x00\n        /* \"#utility.yul\":1326:1391   */\n      tag_340\n        /* \"#utility.yul\":1383:1390   */\n      dup5\n        /* \"#utility.yul\":1374:1380   */\n      dup3\n        /* \"#utility.yul\":1363:1372   */\n      dup6\n        /* \"#utility.yul\":1359:1381   */\n      add\n        /* \"#utility.yul\":1326:1391   */\n      tag_267\n      jump\t// in\n    tag_340:\n        /* \"#utility.yul\":1316:1391   */\n      swap2\n      pop\n        /* \"#utility.yul\":1272:1401   */\n      pop\n        /* \"#utility.yul\":1055:1408   */\n      swap3\n      swap2\n      pop\n      pop\n      jump\t// out\n        /* \"#utility.yul\":1414:1513   */\n    tag_268:\n        /* \"#utility.yul\":1466:1472   */\n      0x00\n        /* \"#utility.yul\":1500:1505   */\n      dup2\n        /* \"#utility.yul\":1494:1506   */\n      mload\n        /* \"#utility.yul\":1484:1506   */\n      swap1\n      pop\n        /* \"#utility.yul\":1414:1513   */\n      swap2\n      swap1\n      pop\n      jump\t// out\n        /* \"#utility.yul\":1519:1688   */\n    tag_269:\n        /* \"#utility.yul\":1603:1614   */\n      0x00\n        /* \"#utility.yul\":1637:1643   */\n      dup3\n        /* \"#utility.yul\":1632:1635   */\n      dup3\n        /* \"#utility.yul\":1625:1644   */\n      mstore\n        /* \"#utility.yul\":1677:1681   */\n      0x20\n        /* \"#utility.yul\":1672:1675   */\n      dup3\n        /* \"#utility.yul\":1668:1682   */\n      add\n        /* \"#utility.yul\":1653:1682   */\n      swap1\n      pop\n        /* \"#utility.yul\":1519:1688   */\n      swap3\n      swap2\n      pop\n      pop\n      jump\t// out\n        /* \"#utility.yul\":1694:1940   */\n    tag_270:\n        /* \"#utility.yul\":1775:1776   */\n      0x00\n        /* \"#utility.yul\":1785:1898   */\n    tag_344:\n        /* \"#utility.yul\":1799:1805   */\n      dup4\n        /* \"#utility.yul\":1796:1797   */\n      dup2\n        /* \"#utility.yul\":1793:1806   */\n      lt\n        /* \"#utility.yul\":1785:1898   */\n      iszero\n      tag_346\n      jumpi\n        /* \"#utility.yul\":1884:1885   */\n      dup1\n        /* \"#utility.yul\":1879:1882   */\n      dup3\n        /* \"#utility.yul\":1875:1886   */\n      add\n        /* \"#utility.yul\":1869:1887   */\n      mload\n        /* \"#utility.yul\":1865:1866   */\n      dup2\n        /* \"#utility.yul\":1860:1863   */\n      dup5\n        /* \"#utility.yul\":1856:1867   */\n      add\n        /* \"#utility.yul\":1849:1888   */\n      mstore\n        /* \"#utility.yul\":1821:1823   */\n      0x20\n        /* \"#utility.yul\":1818:1819   */\n      dup2\n        /* \"#utility.yul\":1814:1824   */\n      add\n        /* \"#utility.yul\":1809:1824   */\n      swap1\n      pop\n        /* \"#utility.yul\":1785:1898   */\n      jump(tag_344)\n    tag_346:\n        /* \"#utility.yul\":1932:1933   */\n      0x00\n        /* \"#utility.yul\":1923:1929   */\n      dup5\n        /* \"#utility.yul\":1918:1921   */\n      dup5\n        /* \"#utility.yul\":1914:1930   */\n      add\n        /* \"#utility.yul\":1907:1934   */\n      mstore\n        /* \"#utility.yul\":1756:1940   */\n      pop\n        /* \"#utility.yul\":1694:1940   */\n      pop\n      pop\n      pop\n      jump\t// out\n        /* \"#utility.yul\":1946:2048   */\n    tag_271:\n        /* \"#utility.yul\":1987:1993   */\n      0x00\n        /* \"#utility.yul\":2038:2040   */\n      0x1f\n        /* \"#utility.yul\":2034:2041   */\n      not\n        /* \"#utility.yul\":2029:2031   */\n      0x1f\n        /* \"#utility.yul\":2022:2027   */\n      dup4\n        /* \"#utility.yul\":2018:2032   */\n      add\n        /* \"#utility.yul\":2014:2042   */\n      and\n        /* \"#utility.yul\":2004:2042   */\n      swap1\n      pop\n        /* \"#utility.yul\":1946:2048   */\n      swap2\n      swap1\n      pop\n      jump\t// out\n        /* \"#utility.yul\":2054:2431   */\n    tag_272:\n        /* \"#utility.yul\":2142:2145   */\n      0x00\n        /* \"#utility.yul\":2170:2209   */\n      tag_349\n        /* \"#utility.yul\":2203:2208   */\n      dup3\n        /* \"#utility.yul\":2170:2209   */\n      tag_268\n      jump\t// in\n    tag_349:\n        /* \"#utility.yul\":2225:2296   */\n      tag_350\n        /* \"#utility.yul\":2289:2295   */\n      dup2\n        /* \"#utility.yul\":2284:2287   */\n      dup6\n        /* \"#utility.yul\":2225:2296   */\n      tag_269\n      jump\t// in\n    tag_350:\n        /* \"#utility.yul\":2218:2296   */\n      swap4\n      pop\n        /* \"#utility.yul\":2305:2370   */\n      tag_351\n        /* \"#utility.yul\":2363:2369   */\n      dup2\n        /* \"#utility.yul\":2358:2361   */\n      dup6\n        /* \"#utility.yul\":2351:2355   */\n      0x20\n        /* \"#utility.yul\":2344:2349   */\n      dup7\n        /* \"#utility.yul\":2340:2356   */\n      add\n        /* \"#utility.yul\":2305:2370   */\n      tag_270\n      jump\t// in\n    tag_351:\n        /* \"#utility.yul\":2395:2424   */\n      tag_352\n        /* \"#utility.yul\":2417:2423   */\n      dup2\n        /* \"#utility.yul\":2395:2424   */\n      tag_271\n      jump\t// in\n    tag_352:\n        /* \"#utility.yul\":2390:2393   */\n      dup5\n        /* \"#utility.yul\":2386:2425   */\n      add\n        /* \"#utility.yul\":2379:2425   */\n      swap2\n      pop\n        /* \"#utility.yul\":2146:2431   */\n      pop\n        /* \"#utility.yul\":2054:2431   */\n      swap3\n      swap2\n      pop\n      pop\n      jump\t// out\n        /* \"#utility.yul\":2437:2617   */\n    tag_69:\n        /* \"#utility.yul\":2485:2562   */\n      0x4e487b7100000000000000000000000000000000000000000000000000000000\n        /* \"#utility.yul\":2482:2483   */\n      0x00\n        /* \"#utility.yul\":2475:2563   */\n      mstore\n        /* \"#utility.yul\":2582:2586   */\n      0x21\n        /* \"#utility.yul\":2579:2580   */\n      0x04\n        /* \"#utility.yul\":2572:2587   */\n      mstore\n        /* \"#utility.yul\":2606:2610   */\n      0x24\n        /* \"#utility.yul\":2603:2604   */\n      0x00\n        /* \"#utility.yul\":2596:2611   */\n      revert\n        /* \"#utility.yul\":2623:2740   */\n    tag_273:\n        /* \"#utility.yul\":2708:2709   */\n      0x04\n        /* \"#utility.yul\":2701:2706   */\n      dup2\n        /* \"#utility.yul\":2698:2710   */\n      lt\n        /* \"#utility.yul\":2688:2734   */\n      tag_355\n      jumpi\n        /* \"#utility.yul\":2714:2732   */\n      tag_356\n      tag_69\n      jump\t// in\n    tag_356:\n        /* \"#utility.yul\":2688:2734   */\n    tag_355:\n        /* \"#utility.yul\":2623:2740   */\n      pop\n      jump\t// out\n        /* \"#utility.yul\":2746:2881   */\n    tag_274:\n        /* \"#utility.yul\":2795:2802   */\n      0x00\n        /* \"#utility.yul\":2824:2829   */\n      dup2\n        /* \"#utility.yul\":2813:2829   */\n      swap1\n      pop\n        /* \"#utility.yul\":2830:2875   */\n      tag_358\n        /* \"#utility.yul\":2869:2874   */\n      dup3\n        /* \"#utility.yul\":2830:2875   */\n      tag_273\n      jump\t// in\n    tag_358:\n        /* \"#utility.yul\":2746:2881   */\n      swap2\n      swap1\n      pop\n      jump\t// out\n        /* \"#utility.yul\":2887:3022   */\n    tag_275:\n        /* \"#utility.yul\":2947:2956   */\n      0x00\n        /* \"#utility.yul\":2980:3016   */\n      tag_360\n        /* \"#utility.yul\":3010:3015   */\n      dup3\n        /* \"#utility.yul\":2980:3016   */\n      tag_274\n      jump\t// in\n    tag_360:\n        /* \"#utility.yul\":2967:3016   */\n      swap1\n      pop\n        /* \"#utility.yul\":2887:3022   */\n      swap2\n      swap1\n      pop\n      jump\t// out\n        /* \"#utility.yul\":3028:3179   */\n    tag_276:\n        /* \"#utility.yul\":3125:3172   */\n      tag_362\n        /* \"#utility.yul\":3166:3171   */\n      dup2\n        /* \"#utility.yul\":3125:3172   */\n      tag_275\n      jump\t// in\n    tag_362:\n        /* \"#utility.yul\":3120:3123   */\n      dup3\n        /* \"#utility.yul\":3113:3173   */\n      mstore\n        /* \"#utility.yul\":3028:3179   */\n      pop\n      pop\n      jump\t// out\n        /* \"#utility.yul\":3185:3299   */\n    tag_277:\n        /* \"#utility.yul\":3267:3268   */\n      0x04\n        /* \"#utility.yul\":3260:3265   */\n      dup2\n        /* \"#utility.yul\":3257:3269   */\n      lt\n        /* \"#utility.yul\":3247:3293   */\n      tag_364\n      jumpi\n        /* \"#utility.yul\":3273:3291   */\n      tag_365\n      tag_69\n      jump\t// in\n    tag_365:\n        /* \"#utility.yul\":3247:3293   */\n    tag_364:\n        /* \"#utility.yul\":3185:3299   */\n      pop\n      jump\t// out\n        /* \"#utility.yul\":3305:3434   */\n    tag_278:\n        /* \"#utility.yul\":3351:3358   */\n      0x00\n        /* \"#utility.yul\":3380:3385   */\n      dup2\n        /* \"#utility.yul\":3369:3385   */\n      swap1\n      pop\n        /* \"#utility.yul\":3386:3428   */\n      tag_367\n        /* \"#utility.yul\":3422:3427   */\n      dup3\n        /* \"#utility.yul\":3386:3428   */\n      tag_277\n      jump\t// in\n    tag_367:\n        /* \"#utility.yul\":3305:3434   */\n      swap2\n      swap1\n      pop\n      jump\t// out\n        /* \"#utility.yul\":3440:3569   */\n    tag_279:\n        /* \"#utility.yul\":3497:3506   */\n      0x00\n        /* \"#utility.yul\":3530:3563   */\n      tag_369\n        /* \"#utility.yul\":3557:3562   */\n      dup3\n        /* \"#utility.yul\":3530:3563   */\n      tag_278\n      jump\t// in\n    tag_369:\n        /* \"#utility.yul\":3517:3563   */\n      swap1\n      pop\n        /* \"#utility.yul\":3440:3569   */\n      swap2\n      swap1\n      pop\n      jump\t// out\n        /* \"#utility.yul\":3575:3720   */\n    tag_280:\n        /* \"#utility.yul\":3669:3713   */\n      tag_371\n        /* \"#utility.yul\":3707:3712   */\n      dup2\n        /* \"#utility.yul\":3669:3713   */\n      tag_279\n      jump\t// in\n    tag_371:\n        /* \"#utility.yul\":3664:3667   */\n      dup3\n        /* \"#utility.yul\":3657:3714   */\n      mstore\n        /* \"#utility.yul\":3575:3720   */\n      pop\n      pop\n      jump\t// out\n        /* \"#utility.yul\":3726:4626   */\n    tag_31:\n        /* \"#utility.yul\":3996:4000   */\n      0x00\n        /* \"#utility.yul\":4034:4037   */\n      0xc0\n        /* \"#utility.yul\":4023:4032   */\n      dup3\n        /* \"#utility.yul\":4019:4038   */\n      add\n        /* \"#utility.yul\":4011:4038   */\n      swap1\n      pop\n        /* \"#utility.yul\":4084:4093   */\n      dup2\n        /* \"#utility.yul\":4078:4082   */\n      dup2\n        /* \"#utility.yul\":4074:4094   */\n      sub\n        /* \"#utility.yul\":4070:4071   */\n      0x00\n        /* \"#utility.yul\":4059:4068   */\n      dup4\n        /* \"#utility.yul\":4055:4072   */\n      add\n        /* \"#utility.yul\":4048:4095   */\n      mstore\n        /* \"#utility.yul\":4112:4190   */\n      tag_373\n        /* \"#utility.yul\":4185:4189   */\n      dup2\n        /* \"#utility.yul\":4176:4182   */\n      dup10\n        /* \"#utility.yul\":4112:4190   */\n      tag_272\n      jump\t// in\n    tag_373:\n        /* \"#utility.yul\":4104:4190   */\n      swap1\n      pop\n        /* \"#utility.yul\":4200:4272   */\n      tag_374\n        /* \"#utility.yul\":4268:4270   */\n      0x20\n        /* \"#utility.yul\":4257:4266   */\n      dup4\n        /* \"#utility.yul\":4253:4271   */\n      add\n        /* \"#utility.yul\":4244:4250   */\n      dup9\n        /* \"#utility.yul\":4200:4272   */\n      tag_262\n      jump\t// in\n    tag_374:\n        /* \"#utility.yul\":4282:4354   */\n      tag_375\n        /* \"#utility.yul\":4350:4352   */\n      0x40\n        /* \"#utility.yul\":4339:4348   */\n      dup4\n        /* \"#utility.yul\":4335:4353   */\n      add\n        /* \"#utility.yul\":4326:4332   */\n      dup8\n        /* \"#utility.yul\":4282:4354   */\n      tag_262\n      jump\t// in\n    tag_375:\n        /* \"#utility.yul\":4364:4446   */\n      tag_376\n        /* \"#utility.yul\":4442:4444   */\n      0x60\n        /* \"#utility.yul\":4431:4440   */\n      dup4\n        /* \"#utility.yul\":4427:4445   */\n      add\n        /* \"#utility.yul\":4418:4424   */\n      dup7\n        /* \"#utility.yul\":4364:4446   */\n      tag_276\n      jump\t// in\n    tag_376:\n        /* \"#utility.yul\":4456:4536   */\n      tag_377\n        /* \"#utility.yul\":4531:4534   */\n      0x80\n        /* \"#utility.yul\":4520:4529   */\n      dup4\n        /* \"#utility.yul\":4516:4535   */\n      add\n        /* \"#utility.yul\":4507:4513   */\n      dup6\n        /* \"#utility.yul\":4456:4536   */\n      tag_280\n      jump\t// in\n    tag_377:\n        /* \"#utility.yul\":4546:4619   */\n      tag_378\n        /* \"#utility.yul\":4614:4617   */\n      0xa0\n        /* \"#utility.yul\":4603:4612   */\n      dup4\n        /* \"#utility.yul\":4599:4618   */\n      add\n        /* \"#utility.yul\":4590:4596   */\n      dup5\n        /* \"#utility.yul\":4546:4619   */\n      tag_262\n      jump\t// in\n    tag_378:\n        /* \"#utility.yul\":3726:4626   */\n      swap8\n      swap7\n      pop\n      pop\n      pop\n      pop\n      pop\n      pop\n      pop\n      jump\t// out\n        /* \"#utility.yul\":4632:4754   */\n    tag_281:\n        /* \"#utility.yul\":4705:4729   */\n      tag_380\n        /* \"#utility.yul\":4723:4728   */\n      dup2\n        /* \"#utility.yul\":4705:4729   */\n      tag_261\n      jump\t// in\n    tag_380:\n        /* \"#utility.yul\":4698:4703   */\n      dup2\n        /* \"#utility.yul\":4695:4730   */\n      eq\n        /* \"#utility.yul\":4685:4748   */\n      tag_381\n      jumpi\n        /* \"#utility.yul\":4744:4745   */\n      0x00\n        /* \"#utility.yul\":4741:4742   */\n      dup1\n        /* \"#utility.yul\":4734:4746   */\n      revert\n        /* \"#utility.yul\":4685:4748   */\n    tag_381:\n        /* \"#utility.yul\":4632:4754   */\n      pop\n      jump\t// out\n        /* \"#utility.yul\":4760:4899   */\n    tag_282:\n        /* \"#utility.yul\":4806:4811   */\n      0x00\n        /* \"#utility.yul\":4844:4850   */\n      dup2\n        /* \"#utility.yul\":4831:4851   */\n      calldataload\n        /* \"#utility.yul\":4822:4851   */\n      swap1\n      pop\n        /* \"#utility.yul\":4860:4893   */\n      tag_383\n        /* \"#utility.yul\":4887:4892   */\n      dup2\n        /* \"#utility.yul\":4860:4893   */\n      tag_281\n      jump\t// in\n    tag_383:\n        /* \"#utility.yul\":4760:4899   */\n      swap3\n      swap2\n      pop\n      pop\n      jump\t// out\n        /* \"#utility.yul\":4905:5234   */\n    tag_34:\n        /* \"#utility.yul\":4964:4970   */\n      0x00\n        /* \"#utility.yul\":5013:5015   */\n      0x20\n        /* \"#utility.yul\":5001:5010   */\n      dup3\n        /* \"#utility.yul\":4992:4999   */\n      dup5\n        /* \"#utility.yul\":4988:5011   */\n      sub\n        /* \"#utility.yul\":4984:5016   */\n      slt\n        /* \"#utility.yul\":4981:5100   */\n      iszero\n      tag_385\n      jumpi\n        /* \"#utility.yul\":5019:5098   */\n      tag_386\n      tag_264\n      jump\t// in\n    tag_386:\n        /* \"#utility.yul\":4981:5100   */\n    tag_385:\n        /* \"#utility.yul\":5139:5140   */\n      0x00\n        /* \"#utility.yul\":5164:5217   */\n      tag_387\n        /* \"#utility.yul\":5209:5216   */\n      dup5\n        /* \"#utility.yul\":5200:5206   */\n      dup3\n        /* \"#utility.yul\":5189:5198   */\n      dup6\n        /* \"#utility.yul\":5185:5207   */\n      add\n        /* \"#utility.yul\":5164:5217   */\n      tag_282\n      jump\t// in\n    tag_387:\n        /* \"#utility.yul\":5154:5217   */\n      swap2\n      pop\n        /* \"#utility.yul\":5110:5227   */\n      pop\n        /* \"#utility.yul\":4905:5234   */\n      swap3\n      swap2\n      pop\n      pop\n      jump\t// out\n        /* \"#utility.yul\":5240:5357   */\n    tag_283:\n        /* \"#utility.yul\":5349:5350   */\n      0x00\n        /* \"#utility.yul\":5346:5347   */\n      dup1\n        /* \"#utility.yul\":5339:5351   */\n      revert\n        /* \"#utility.yul\":5363:5480   */\n    tag_284:\n        /* \"#utility.yul\":5472:5473   */\n      0x00\n        /* \"#utility.yul\":5469:5470   */\n      dup1\n        /* \"#utility.yul\":5462:5474   */\n      revert\n        /* \"#utility.yul\":5486:5666   */\n    tag_285:\n        /* \"#utility.yul\":5534:5611   */\n      0x4e487b7100000000000000000000000000000000000000000000000000000000\n        /* \"#utility.yul\":5531:5532   */\n      0x00\n        /* \"#utility.yul\":5524:5612   */\n      mstore\n        /* \"#utility.yul\":5631:5635   */\n      0x41\n        /* \"#utility.yul\":5628:5629   */\n      0x04\n        /* \"#utility.yul\":5621:5636   */\n      mstore\n        /* \"#utility.yul\":5655:5659   */\n      0x24\n        /* \"#utility.yul\":5652:5653   */\n      0x00\n        /* \"#utility.yul\":5645:5660   */\n      revert\n        /* \"#utility.yul\":5672:5953   */\n    tag_286:\n        /* \"#utility.yul\":5755:5782   */\n      tag_392\n        /* \"#utility.yul\":5777:5781   */\n      dup3\n        /* \"#utility.yul\":5755:5782   */\n      tag_271\n      jump\t// in\n    tag_392:\n        /* \"#utility.yul\":5747:5753   */\n      dup2\n        /* \"#utility.yul\":5743:5783   */\n      add\n        /* \"#utility.yul\":5885:5891   */\n      dup2\n        /* \"#utility.yul\":5873:5883   */\n      dup2\n        /* \"#utility.yul\":5870:5892   */\n      lt\n        /* \"#utility.yul\":5849:5867   */\n      0xffffffffffffffff\n        /* \"#utility.yul\":5837:5847   */\n      dup3\n        /* \"#utility.yul\":5834:5868   */\n      gt\n        /* \"#utility.yul\":5831:5893   */\n      or\n        /* \"#utility.yul\":5828:5916   */\n      iszero\n      tag_393\n      jumpi\n        /* \"#utility.yul\":5896:5914   */\n      tag_394\n      tag_285\n      jump\t// in\n    tag_394:\n        /* \"#utility.yul\":5828:5916   */\n    tag_393:\n        /* \"#utility.yul\":5936:5946   */\n      dup1\n        /* \"#utility.yul\":5932:5934   */\n      0x40\n        /* \"#utility.yul\":5925:5947   */\n      mstore\n        /* \"#utility.yul\":5715:5953   */\n      pop\n        /* \"#utility.yul\":5672:5953   */\n      pop\n      pop\n      jump\t// out\n        /* \"#utility.yul\":5959:6088   */\n    tag_287:\n        /* \"#utility.yul\":5993:5999   */\n      0x00\n        /* \"#utility.yul\":6020:6040   */\n      tag_396\n      tag_263\n      jump\t// in\n    tag_396:\n        /* \"#utility.yul\":6010:6040   */\n      swap1\n      pop\n        /* \"#utility.yul\":6049:6082   */\n      tag_397\n        /* \"#utility.yul\":6077:6081   */\n      dup3\n        /* \"#utility.yul\":6069:6075   */\n      dup3\n        /* \"#utility.yul\":6049:6082   */\n      tag_286\n      jump\t// in\n    tag_397:\n        /* \"#utility.yul\":5959:6088   */\n      swap2\n      swap1\n      pop\n      jump\t// out\n        /* \"#utility.yul\":6094:6402   */\n    tag_288:\n        /* \"#utility.yul\":6156:6160   */\n      0x00\n        /* \"#utility.yul\":6246:6264   */\n      0xffffffffffffffff\n        /* \"#utility.yul\":6238:6244   */\n      dup3\n        /* \"#utility.yul\":6235:6265   */\n      gt\n        /* \"#utility.yul\":6232:6288   */\n      iszero\n      tag_399\n      jumpi\n        /* \"#utility.yul\":6268:6286   */\n      tag_400\n      tag_285\n      jump\t// in\n    tag_400:\n        /* \"#utility.yul\":6232:6288   */\n    tag_399:\n        /* \"#utility.yul\":6306:6335   */\n      tag_401\n        /* \"#utility.yul\":6328:6334   */\n      dup3\n        /* \"#utility.yul\":6306:6335   */\n      tag_271\n      jump\t// in\n    tag_401:\n        /* \"#utility.yul\":6298:6335   */\n      swap1\n      pop\n        /* \"#utility.yul\":6390:6394   */\n      0x20\n        /* \"#utility.yul\":6384:6388   */\n      dup2\n        /* \"#utility.yul\":6380:6395   */\n      add\n        /* \"#utility.yul\":6372:6395   */\n      swap1\n      pop\n        /* \"#utility.yul\":6094:6402   */\n      swap2\n      swap1\n      pop\n      jump\t// out\n        /* \"#utility.yul\":6408:6554   */\n    tag_289:\n        /* \"#utility.yul\":6505:6511   */\n      dup3\n        /* \"#utility.yul\":6500:6503   */\n      dup2\n        /* \"#utility.yul\":6495:6498   */\n      dup4\n        /* \"#utility.yul\":6482:6512   */\n      calldatacopy\n        /* \"#utility.yul\":6546:6547   */\n      0x00\n        /* \"#utility.yul\":6537:6543   */\n      dup4\n        /* \"#utility.yul\":6532:6535   */\n      dup4\n        /* \"#utility.yul\":6528:6544   */\n      add\n        /* \"#utility.yul\":6521:6548   */\n      mstore\n        /* \"#utility.yul\":6408:6554   */\n      pop\n      pop\n      pop\n      jump\t// out\n        /* \"#utility.yul\":6560:6985   */\n    tag_290:\n        /* \"#utility.yul\":6638:6643   */\n      0x00\n        /* \"#utility.yul\":6663:6729   */\n      tag_404\n        /* \"#utility.yul\":6679:6728   */\n      tag_405\n        /* \"#utility.yul\":6721:6727   */\n      dup5\n        /* \"#utility.yul\":6679:6728   */\n      tag_288\n      jump\t// in\n    tag_405:\n        /* \"#utility.yul\":6663:6729   */\n      tag_287\n      jump\t// in\n    tag_404:\n        /* \"#utility.yul\":6654:6729   */\n      swap1\n      pop\n        /* \"#utility.yul\":6752:6758   */\n      dup3\n        /* \"#utility.yul\":6745:6750   */\n      dup2\n        /* \"#utility.yul\":6738:6759   */\n      mstore\n        /* \"#utility.yul\":6790:6794   */\n      0x20\n        /* \"#utility.yul\":6783:6788   */\n      dup2\n        /* \"#utility.yul\":6779:6795   */\n      add\n        /* \"#utility.yul\":6828:6831   */\n      dup5\n        /* \"#utility.yul\":6819:6825   */\n      dup5\n        /* \"#utility.yul\":6814:6817   */\n      dup5\n        /* \"#utility.yul\":6810:6826   */\n      add\n        /* \"#utility.yul\":6807:6832   */\n      gt\n        /* \"#utility.yul\":6804:6916   */\n      iszero\n      tag_406\n      jumpi\n        /* \"#utility.yul\":6835:6914   */\n      tag_407\n      tag_284\n      jump\t// in\n    tag_407:\n        /* \"#utility.yul\":6804:6916   */\n    tag_406:\n        /* \"#utility.yul\":6925:6979   */\n      tag_408\n        /* \"#utility.yul\":6972:6978   */\n      dup5\n        /* \"#utility.yul\":6967:6970   */\n      dup3\n        /* \"#utility.yul\":6962:6965   */\n      dup6\n        /* \"#utility.yul\":6925:6979   */\n      tag_289\n      jump\t// in\n    tag_408:\n        /* \"#utility.yul\":6644:6985   */\n      pop\n        /* \"#utility.yul\":6560:6985   */\n      swap4\n      swap3\n      pop\n      pop\n      pop\n      jump\t// out\n        /* \"#utility.yul\":7005:7345   */\n    tag_291:\n        /* \"#utility.yul\":7061:7066   */\n      0x00\n        /* \"#utility.yul\":7110:7113   */\n      dup3\n        /* \"#utility.yul\":7103:7107   */\n      0x1f\n        /* \"#utility.yul\":7095:7101   */\n      dup4\n        /* \"#utility.yul\":7091:7108   */\n      add\n        /* \"#utility.yul\":7087:7114   */\n      slt\n        /* \"#utility.yul\":7077:7199   */\n      tag_410\n      jumpi\n        /* \"#utility.yul\":7118:7197   */\n      tag_411\n      tag_283\n      jump\t// in\n    tag_411:\n        /* \"#utility.yul\":7077:7199   */\n    tag_410:\n        /* \"#utility.yul\":7235:7241   */\n      dup2\n        /* \"#utility.yul\":7222:7242   */\n      calldataload\n        /* \"#utility.yul\":7260:7339   */\n      tag_412\n        /* \"#utility.yul\":7335:7338   */\n      dup5\n        /* \"#utility.yul\":7327:7333   */\n      dup3\n        /* \"#utility.yul\":7320:7324   */\n      0x20\n        /* \"#utility.yul\":7312:7318   */\n      dup7\n        /* \"#utility.yul\":7308:7325   */\n      add\n        /* \"#utility.yul\":7260:7339   */\n      tag_290\n      jump\t// in\n    tag_412:\n        /* \"#utility.yul\":7251:7339   */\n      swap2\n      pop\n        /* \"#utility.yul\":7067:7345   */\n      pop\n        /* \"#utility.yul\":7005:7345   */\n      swap3\n      swap2\n      pop\n      pop\n      jump\t// out\n        /* \"#utility.yul\":7351:7459   */\n    tag_292:\n        /* \"#utility.yul\":7433:7434   */\n      0x04\n        /* \"#utility.yul\":7426:7431   */\n      dup2\n        /* \"#utility.yul\":7423:7435   */\n      lt\n        /* \"#utility.yul\":7413:7453   */\n      tag_414\n      jumpi\n        /* \"#utility.yul\":7449:7450   */\n      0x00\n        /* \"#utility.yul\":7446:7447   */\n      dup1\n        /* \"#utility.yul\":7439:7451   */\n      revert\n        /* \"#utility.yul\":7413:7453   */\n    tag_414:\n        /* \"#utility.yul\":7351:7459   */\n      pop\n      jump\t// out\n        /* \"#utility.yul\":7465:7622   */\n    tag_293:\n        /* \"#utility.yul\":7520:7525   */\n      0x00\n        /* \"#utility.yul\":7558:7564   */\n      dup2\n        /* \"#utility.yul\":7545:7565   */\n      calldataload\n        /* \"#utility.yul\":7536:7565   */\n      swap1\n      pop\n        /* \"#utility.yul\":7574:7616   */\n      tag_416\n        /* \"#utility.yul\":7610:7615   */\n      dup2\n        /* \"#utility.yul\":7574:7616   */\n      tag_292\n      jump\t// in\n    tag_416:\n        /* \"#utility.yul\":7465:7622   */\n      swap3\n      swap2\n      pop\n      pop\n      jump\t// out\n        /* \"#utility.yul\":7628:8761   */\n    tag_39:\n        /* \"#utility.yul\":7754:7760   */\n      0x00\n        /* \"#utility.yul\":7762:7768   */\n      dup1\n        /* \"#utility.yul\":7770:7776   */\n      0x00\n        /* \"#utility.yul\":7778:7784   */\n      dup1\n        /* \"#utility.yul\":7786:7792   */\n      0x00\n        /* \"#utility.yul\":7835:7838   */\n      0xa0\n        /* \"#utility.yul\":7823:7832   */\n      dup7\n        /* \"#utility.yul\":7814:7821   */\n      dup9\n        /* \"#utility.yul\":7810:7833   */\n      sub\n        /* \"#utility.yul\":7806:7839   */\n      slt\n        /* \"#utility.yul\":7803:7923   */\n      iszero\n      tag_418\n      jumpi\n        /* \"#utility.yul\":7842:7921   */\n      tag_419\n      tag_264\n      jump\t// in\n    tag_419:\n        /* \"#utility.yul\":7803:7923   */\n    tag_418:\n        /* \"#utility.yul\":7962:7963   */\n      0x00\n        /* \"#utility.yul\":7987:8040   */\n      tag_420\n        /* \"#utility.yul\":8032:8039   */\n      dup9\n        /* \"#utility.yul\":8023:8029   */\n      dup3\n        /* \"#utility.yul\":8012:8021   */\n      dup10\n        /* \"#utility.yul\":8008:8030   */\n      add\n        /* \"#utility.yul\":7987:8040   */\n      tag_282\n      jump\t// in\n    tag_420:\n        /* \"#utility.yul\":7977:8040   */\n      swap6\n      pop\n        /* \"#utility.yul\":7933:8050   */\n      pop\n        /* \"#utility.yul\":8117:8119   */\n      0x20\n        /* \"#utility.yul\":8106:8115   */\n      dup7\n        /* \"#utility.yul\":8102:8120   */\n      add\n        /* \"#utility.yul\":8089:8121   */\n      calldataload\n        /* \"#utility.yul\":8148:8166   */\n      0xffffffffffffffff\n        /* \"#utility.yul\":8140:8146   */\n      dup2\n        /* \"#utility.yul\":8137:8167   */\n      gt\n        /* \"#utility.yul\":8134:8251   */\n      iszero\n      tag_421\n      jumpi\n        /* \"#utility.yul\":8170:8249   */\n      tag_422\n      tag_265\n      jump\t// in\n    tag_422:\n        /* \"#utility.yul\":8134:8251   */\n    tag_421:\n        /* \"#utility.yul\":8275:8338   */\n      tag_423\n        /* \"#utility.yul\":8330:8337   */\n      dup9\n        /* \"#utility.yul\":8321:8327   */\n      dup3\n        /* \"#utility.yul\":8310:8319   */\n      dup10\n        /* \"#utility.yul\":8306:8328   */\n      add\n        /* \"#utility.yul\":8275:8338   */\n      tag_291\n      jump\t// in\n    tag_423:\n        /* \"#utility.yul\":8265:8338   */\n      swap5\n      pop\n        /* \"#utility.yul\":8060:8348   */\n      pop\n        /* \"#utility.yul\":8387:8389   */\n      0x40\n        /* \"#utility.yul\":8413:8466   */\n      tag_424\n        /* \"#utility.yul\":8458:8465   */\n      dup9\n        /* \"#utility.yul\":8449:8455   */\n      dup3\n        /* \"#utility.yul\":8438:8447   */\n      dup10\n        /* \"#utility.yul\":8434:8456   */\n      add\n        /* \"#utility.yul\":8413:8466   */\n      tag_282\n      jump\t// in\n    tag_424:\n        /* \"#utility.yul\":8403:8466   */\n      swap4\n      pop\n        /* \"#utility.yul\":8358:8476   */\n      pop\n        /* \"#utility.yul\":8515:8517   */\n      0x60\n        /* \"#utility.yul\":8541:8606   */\n      tag_425\n        /* \"#utility.yul\":8598:8605   */\n      dup9\n        /* \"#utility.yul\":8589:8595   */\n      dup3\n        /* \"#utility.yul\":8578:8587   */\n      dup10\n        /* \"#utility.yul\":8574:8596   */\n      add\n        /* \"#utility.yul\":8541:8606   */\n      tag_267\n      jump\t// in\n    tag_425:\n        /* \"#utility.yul\":8531:8606   */\n      swap3\n      pop\n        /* \"#utility.yul\":8486:8616   */\n      pop\n        /* \"#utility.yul\":8655:8658   */\n      0x80\n        /* \"#utility.yul\":8682:8744   */\n      tag_426\n        /* \"#utility.yul\":8736:8743   */\n      dup9\n        /* \"#utility.yul\":8727:8733   */\n      dup3\n        /* \"#utility.yul\":8716:8725   */\n      dup10\n        /* \"#utility.yul\":8712:8734   */\n      add\n        /* \"#utility.yul\":8682:8744   */\n      tag_293\n      jump\t// in\n    tag_426:\n        /* \"#utility.yul\":8672:8744   */\n      swap2\n      pop\n        /* \"#utility.yul\":8626:8754   */\n      pop\n        /* \"#utility.yul\":7628:8761   */\n      swap3\n      swap6\n      pop\n      swap3\n      swap6\n      swap1\n      swap4\n      pop\n      jump\t// out\n        /* \"#utility.yul\":8767:8894   */\n    tag_294:\n        /* \"#utility.yul\":8855:8861   */\n      0x00\n        /* \"#utility.yul\":8883:8887   */\n      0x03\n        /* \"#utility.yul\":8873:8887   */\n      swap1\n      pop\n        /* \"#utility.yul\":8767:8894   */\n      swap2\n      swap1\n      pop\n      jump\t// out\n        /* \"#utility.yul\":8900:9066   */\n    tag_295:\n        /* \"#utility.yul\":9020:9031   */\n      0x00\n        /* \"#utility.yul\":9057:9060   */\n      dup2\n        /* \"#utility.yul\":9042:9060   */\n      swap1\n      pop\n        /* \"#utility.yul\":8900:9066   */\n      swap3\n      swap2\n      pop\n      pop\n      jump\t// out\n        /* \"#utility.yul\":9072:9193   */\n    tag_296:\n        /* \"#utility.yul\":9160:9164   */\n      0x00\n        /* \"#utility.yul\":9183:9186   */\n      dup2\n        /* \"#utility.yul\":9175:9186   */\n      swap1\n      pop\n        /* \"#utility.yul\":9072:9193   */\n      swap2\n      swap1\n      pop\n      jump\t// out\n        /* \"#utility.yul\":9199:9358   */\n    tag_297:\n        /* \"#utility.yul\":9273:9284   */\n      0x00\n        /* \"#utility.yul\":9307:9313   */\n      dup3\n        /* \"#utility.yul\":9302:9305   */\n      dup3\n        /* \"#utility.yul\":9295:9314   */\n      mstore\n        /* \"#utility.yul\":9347:9351   */\n      0x20\n        /* \"#utility.yul\":9342:9345   */\n      dup3\n        /* \"#utility.yul\":9338:9352   */\n      add\n        /* \"#utility.yul\":9323:9352   */\n      swap1\n      pop\n        /* \"#utility.yul\":9199:9358   */\n      swap3\n      swap2\n      pop\n      pop\n      jump\t// out\n        /* \"#utility.yul\":9364:9721   */\n    tag_298:\n        /* \"#utility.yul\":9442:9445   */\n      0x00\n        /* \"#utility.yul\":9470:9509   */\n      tag_432\n        /* \"#utility.yul\":9503:9508   */\n      dup3\n        /* \"#utility.yul\":9470:9509   */\n      tag_268\n      jump\t// in\n    tag_432:\n        /* \"#utility.yul\":9525:9586   */\n      tag_433\n        /* \"#utility.yul\":9579:9585   */\n      dup2\n        /* \"#utility.yul\":9574:9577   */\n      dup6\n        /* \"#utility.yul\":9525:9586   */\n      tag_297\n      jump\t// in\n    tag_433:\n        /* \"#utility.yul\":9518:9586   */\n      swap4\n      pop\n        /* \"#utility.yul\":9595:9660   */\n      tag_434\n        /* \"#utility.yul\":9653:9659   */\n      dup2\n        /* \"#utility.yul\":9648:9651   */\n      dup6\n        /* \"#utility.yul\":9641:9645   */\n      0x20\n        /* \"#utility.yul\":9634:9639   */\n      dup7\n        /* \"#utility.yul\":9630:9646   */\n      add\n        /* \"#utility.yul\":9595:9660   */\n      tag_270\n      jump\t// in\n    tag_434:\n        /* \"#utility.yul\":9685:9714   */\n      tag_435\n        /* \"#utility.yul\":9707:9713   */\n      dup2\n        /* \"#utility.yul\":9685:9714   */\n      tag_271\n      jump\t// in\n    tag_435:\n        /* \"#utility.yul\":9680:9683   */\n      dup5\n        /* \"#utility.yul\":9676:9715   */\n      add\n        /* \"#utility.yul\":9669:9715   */\n      swap2\n      pop\n        /* \"#utility.yul\":9446:9721   */\n      pop\n        /* \"#utility.yul\":9364:9721   */\n      swap3\n      swap2\n      pop\n      pop\n      jump\t// out\n        /* \"#utility.yul\":9727:9835   */\n    tag_299:\n        /* \"#utility.yul\":9804:9828   */\n      tag_437\n        /* \"#utility.yul\":9822:9827   */\n      dup2\n        /* \"#utility.yul\":9804:9828   */\n      tag_261\n      jump\t// in\n    tag_437:\n        /* \"#utility.yul\":9799:9802   */\n      dup3\n        /* \"#utility.yul\":9792:9829   */\n      mstore\n        /* \"#utility.yul\":9727:9835   */\n      pop\n      pop\n      jump\t// out\n        /* \"#utility.yul\":9841:9982   */\n    tag_300:\n        /* \"#utility.yul\":9928:9975   */\n      tag_439\n        /* \"#utility.yul\":9969:9974   */\n      dup2\n        /* \"#utility.yul\":9928:9975   */\n      tag_275\n      jump\t// in\n    tag_439:\n        /* \"#utility.yul\":9923:9926   */\n      dup3\n        /* \"#utility.yul\":9916:9976   */\n      mstore\n        /* \"#utility.yul\":9841:9982   */\n      pop\n      pop\n      jump\t// out\n        /* \"#utility.yul\":9988:10123   */\n    tag_301:\n        /* \"#utility.yul\":10072:10116   */\n      tag_441\n        /* \"#utility.yul\":10110:10115   */\n      dup2\n        /* \"#utility.yul\":10072:10116   */\n      tag_279\n      jump\t// in\n    tag_441:\n        /* \"#utility.yul\":10067:10070   */\n      dup3\n        /* \"#utility.yul\":10060:10117   */\n      mstore\n        /* \"#utility.yul\":9988:10123   */\n      pop\n      pop\n      jump\t// out\n        /* \"#utility.yul\":10209:11542   */\n    tag_302:\n        /* \"#utility.yul\":10314:10317   */\n      0x00\n        /* \"#utility.yul\":10350:10354   */\n      0xc0\n        /* \"#utility.yul\":10345:10348   */\n      dup4\n        /* \"#utility.yul\":10341:10355   */\n      add\n        /* \"#utility.yul\":10437:10441   */\n      0x00\n        /* \"#utility.yul\":10430:10435   */\n      dup4\n        /* \"#utility.yul\":10426:10442   */\n      add\n        /* \"#utility.yul\":10420:10443   */\n      mload\n        /* \"#utility.yul\":10490:10493   */\n      dup5\n        /* \"#utility.yul\":10484:10488   */\n      dup3\n        /* \"#utility.yul\":10480:10494   */\n      sub\n        /* \"#utility.yul\":10473:10477   */\n      0x00\n        /* \"#utility.yul\":10468:10471   */\n      dup7\n        /* \"#utility.yul\":10464:10478   */\n      add\n        /* \"#utility.yul\":10457:10495   */\n      mstore\n        /* \"#utility.yul\":10516:10589   */\n      tag_443\n        /* \"#utility.yul\":10584:10588   */\n      dup3\n        /* \"#utility.yul\":10570:10582   */\n      dup3\n        /* \"#utility.yul\":10516:10589   */\n      tag_298\n      jump\t// in\n    tag_443:\n        /* \"#utility.yul\":10508:10589   */\n      swap2\n      pop\n        /* \"#utility.yul\":10365:10600   */\n      pop\n        /* \"#utility.yul\":10681:10685   */\n      0x20\n        /* \"#utility.yul\":10674:10679   */\n      dup4\n        /* \"#utility.yul\":10670:10686   */\n      add\n        /* \"#utility.yul\":10664:10687   */\n      mload\n        /* \"#utility.yul\":10700:10763   */\n      tag_444\n        /* \"#utility.yul\":10757:10761   */\n      0x20\n        /* \"#utility.yul\":10752:10755   */\n      dup7\n        /* \"#utility.yul\":10748:10762   */\n      add\n        /* \"#utility.yul\":10734:10746   */\n      dup3\n        /* \"#utility.yul\":10700:10763   */\n      tag_299\n      jump\t// in\n    tag_444:\n        /* \"#utility.yul\":10610:10773   */\n      pop\n        /* \"#utility.yul\":10867:10871   */\n      0x40\n        /* \"#utility.yul\":10860:10865   */\n      dup4\n        /* \"#utility.yul\":10856:10872   */\n      add\n        /* \"#utility.yul\":10850:10873   */\n      mload\n        /* \"#utility.yul\":10886:10949   */\n      tag_445\n        /* \"#utility.yul\":10943:10947   */\n      0x40\n        /* \"#utility.yul\":10938:10941   */\n      dup7\n        /* \"#utility.yul\":10934:10948   */\n      add\n        /* \"#utility.yul\":10920:10932   */\n      dup3\n        /* \"#utility.yul\":10886:10949   */\n      tag_299\n      jump\t// in\n    tag_445:\n        /* \"#utility.yul\":10783:10959   */\n      pop\n        /* \"#utility.yul\":11047:11051   */\n      0x60\n        /* \"#utility.yul\":11040:11045   */\n      dup4\n        /* \"#utility.yul\":11036:11052   */\n      add\n        /* \"#utility.yul\":11030:11053   */\n      mload\n        /* \"#utility.yul\":11066:11139   */\n      tag_446\n        /* \"#utility.yul\":11133:11137   */\n      0x60\n        /* \"#utility.yul\":11128:11131   */\n      dup7\n        /* \"#utility.yul\":11124:11138   */\n      add\n        /* \"#utility.yul\":11110:11122   */\n      dup3\n        /* \"#utility.yul\":11066:11139   */\n      tag_300\n      jump\t// in\n    tag_446:\n        /* \"#utility.yul\":10969:11149   */\n      pop\n        /* \"#utility.yul\":11233:11237   */\n      0x80\n        /* \"#utility.yul\":11226:11231   */\n      dup4\n        /* \"#utility.yul\":11222:11238   */\n      add\n        /* \"#utility.yul\":11216:11239   */\n      mload\n        /* \"#utility.yul\":11252:11322   */\n      tag_447\n        /* \"#utility.yul\":11316:11320   */\n      0x80\n        /* \"#utility.yul\":11311:11314   */\n      dup7\n        /* \"#utility.yul\":11307:11321   */\n      add\n        /* \"#utility.yul\":11293:11305   */\n      dup3\n        /* \"#utility.yul\":11252:11322   */\n      tag_301\n      jump\t// in\n    tag_447:\n        /* \"#utility.yul\":11159:11332   */\n      pop\n        /* \"#utility.yul\":11423:11427   */\n      0xa0\n        /* \"#utility.yul\":11416:11421   */\n      dup4\n        /* \"#utility.yul\":11412:11428   */\n      add\n        /* \"#utility.yul\":11406:11429   */\n      mload\n        /* \"#utility.yul\":11442:11505   */\n      tag_448\n        /* \"#utility.yul\":11499:11503   */\n      0xa0\n        /* \"#utility.yul\":11494:11497   */\n      dup7\n        /* \"#utility.yul\":11490:11504   */\n      add\n        /* \"#utility.yul\":11476:11488   */\n      dup3\n        /* \"#utility.yul\":11442:11505   */\n      tag_299\n      jump\t// in\n    tag_448:\n        /* \"#utility.yul\":11342:11515   */\n      pop\n        /* \"#utility.yul\":11532:11536   */\n      dup1\n        /* \"#utility.yul\":11525:11536   */\n      swap2\n      pop\n        /* \"#utility.yul\":10319:11542   */\n      pop\n        /* \"#utility.yul\":10209:11542   */\n      swap3\n      swap2\n      pop\n      pop\n      jump\t// out\n        /* \"#utility.yul\":11548:11796   */\n    tag_303:\n        /* \"#utility.yul\":11663:11673   */\n      0x00\n        /* \"#utility.yul\":11698:11790   */\n      tag_450\n        /* \"#utility.yul\":11786:11789   */\n      dup4\n        /* \"#utility.yul\":11778:11784   */\n      dup4\n        /* \"#utility.yul\":11698:11790   */\n      tag_302\n      jump\t// in\n    tag_450:\n        /* \"#utility.yul\":11684:11790   */\n      swap1\n      pop\n        /* \"#utility.yul\":11548:11796   */\n      swap3\n      swap2\n      pop\n      pop\n      jump\t// out\n        /* \"#utility.yul\":11802:11936   */\n    tag_304:\n        /* \"#utility.yul\":11893:11897   */\n      0x00\n        /* \"#utility.yul\":11925:11929   */\n      0x20\n        /* \"#utility.yul\":11920:11923   */\n      dup3\n        /* \"#utility.yul\":11916:11930   */\n      add\n        /* \"#utility.yul\":11908:11930   */\n      swap1\n      pop\n        /* \"#utility.yul\":11802:11936   */\n      swap2\n      swap1\n      pop\n      jump\t// out\n        /* \"#utility.yul\":12028:13111   */\n    tag_305:\n        /* \"#utility.yul\":12189:12192   */\n      0x00\n        /* \"#utility.yul\":12218:12293   */\n      tag_453\n        /* \"#utility.yul\":12287:12292   */\n      dup3\n        /* \"#utility.yul\":12218:12293   */\n      tag_294\n      jump\t// in\n    tag_453:\n        /* \"#utility.yul\":12309:12416   */\n      tag_454\n        /* \"#utility.yul\":12409:12415   */\n      dup2\n        /* \"#utility.yul\":12404:12407   */\n      dup6\n        /* \"#utility.yul\":12309:12416   */\n      tag_295\n      jump\t// in\n    tag_454:\n        /* \"#utility.yul\":12302:12416   */\n      swap4\n      pop\n        /* \"#utility.yul\":12442:12445   */\n      dup4\n        /* \"#utility.yul\":12487:12491   */\n      0x20\n        /* \"#utility.yul\":12479:12485   */\n      dup3\n        /* \"#utility.yul\":12475:12492   */\n      mul\n        /* \"#utility.yul\":12470:12473   */\n      dup6\n        /* \"#utility.yul\":12466:12493   */\n      add\n        /* \"#utility.yul\":12517:12594   */\n      tag_455\n        /* \"#utility.yul\":12588:12593   */\n      dup6\n        /* \"#utility.yul\":12517:12594   */\n      tag_296\n      jump\t// in\n    tag_455:\n        /* \"#utility.yul\":12617:12624   */\n      dup1\n        /* \"#utility.yul\":12648:12649   */\n      0x00\n        /* \"#utility.yul\":12633:13066   */\n    tag_456:\n        /* \"#utility.yul\":12658:12664   */\n      dup6\n        /* \"#utility.yul\":12655:12656   */\n      dup2\n        /* \"#utility.yul\":12652:12665   */\n      lt\n        /* \"#utility.yul\":12633:13066   */\n      iszero\n      tag_458\n      jumpi\n        /* \"#utility.yul\":12729:12738   */\n      dup5\n        /* \"#utility.yul\":12723:12727   */\n      dup5\n        /* \"#utility.yul\":12719:12739   */\n      sub\n        /* \"#utility.yul\":12714:12717   */\n      dup10\n        /* \"#utility.yul\":12707:12740   */\n      mstore\n        /* \"#utility.yul\":12780:12786   */\n      dup2\n        /* \"#utility.yul\":12774:12787   */\n      mload\n        /* \"#utility.yul\":12808:12918   */\n      tag_459\n        /* \"#utility.yul\":12913:12917   */\n      dup6\n        /* \"#utility.yul\":12898:12911   */\n      dup3\n        /* \"#utility.yul\":12808:12918   */\n      tag_303\n      jump\t// in\n    tag_459:\n        /* \"#utility.yul\":12800:12918   */\n      swap5\n      pop\n        /* \"#utility.yul\":12941:13022   */\n      tag_460\n        /* \"#utility.yul\":13015:13021   */\n      dup4\n        /* \"#utility.yul\":12941:13022   */\n      tag_304\n      jump\t// in\n    tag_460:\n        /* \"#utility.yul\":12931:13022   */\n      swap3\n      pop\n        /* \"#utility.yul\":13051:13055   */\n      0x20\n        /* \"#utility.yul\":13046:13049   */\n      dup11\n        /* \"#utility.yul\":13042:13056   */\n      add\n        /* \"#utility.yul\":13035:13056   */\n      swap10\n      pop\n        /* \"#utility.yul\":12693:13066   */\n      pop\n        /* \"#utility.yul\":12680:12681   */\n      0x01\n        /* \"#utility.yul\":12677:12678   */\n      dup2\n        /* \"#utility.yul\":12673:12682   */\n      add\n        /* \"#utility.yul\":12668:12682   */\n      swap1\n      pop\n        /* \"#utility.yul\":12633:13066   */\n      jump(tag_456)\n    tag_458:\n        /* \"#utility.yul\":12637:12651   */\n      pop\n        /* \"#utility.yul\":13082:13086   */\n      dup3\n        /* \"#utility.yul\":13075:13086   */\n      swap8\n      pop\n        /* \"#utility.yul\":13102:13105   */\n      dup8\n        /* \"#utility.yul\":13095:13105   */\n      swap6\n      pop\n        /* \"#utility.yul\":12194:13111   */\n      pop\n      pop\n      pop\n      pop\n      pop\n        /* \"#utility.yul\":12028:13111   */\n      swap3\n      swap2\n      pop\n      pop\n      jump\t// out\n        /* \"#utility.yul\":13117:13574   */\n    tag_52:\n        /* \"#utility.yul\":13302:13306   */\n      0x00\n        /* \"#utility.yul\":13340:13342   */\n      0x20\n        /* \"#utility.yul\":13329:13338   */\n      dup3\n        /* \"#utility.yul\":13325:13343   */\n      add\n        /* \"#utility.yul\":13317:13343   */\n      swap1\n      pop\n        /* \"#utility.yul\":13389:13398   */\n      dup2\n        /* \"#utility.yul\":13383:13387   */\n      dup2\n        /* \"#utility.yul\":13379:13399   */\n      sub\n        /* \"#utility.yul\":13375:13376   */\n      0x00\n        /* \"#utility.yul\":13364:13373   */\n      dup4\n        /* \"#utility.yul\":13360:13377   */\n      add\n        /* \"#utility.yul\":13353:13400   */\n      mstore\n        /* \"#utility.yul\":13417:13567   */\n      tag_462\n        /* \"#utility.yul\":13562:13566   */\n      dup2\n        /* \"#utility.yul\":13553:13559   */\n      dup5\n        /* \"#utility.yul\":13417:13567   */\n      tag_305\n      jump\t// in\n    tag_462:\n        /* \"#utility.yul\":13409:13567   */\n      swap1\n      pop\n        /* \"#utility.yul\":13117:13574   */\n      swap3\n      swap2\n      pop\n      pop\n      jump\t// out\n        /* \"#utility.yul\":13580:15005   */\n    tag_55:\n        /* \"#utility.yul\":13724:13730   */\n      0x00\n        /* \"#utility.yul\":13732:13738   */\n      dup1\n        /* \"#utility.yul\":13740:13746   */\n      0x00\n        /* \"#utility.yul\":13748:13754   */\n      dup1\n        /* \"#utility.yul\":13756:13762   */\n      0x00\n        /* \"#utility.yul\":13764:13770   */\n      dup1\n        /* \"#utility.yul\":13772:13778   */\n      0x00\n        /* \"#utility.yul\":13821:13824   */\n      0xe0\n        /* \"#utility.yul\":13809:13818   */\n      dup9\n        /* \"#utility.yul\":13800:13807   */\n      dup11\n        /* \"#utility.yul\":13796:13819   */\n      sub\n        /* \"#utility.yul\":13792:13825   */\n      slt\n        /* \"#utility.yul\":13789:13909   */\n      iszero\n      tag_464\n      jumpi\n        /* \"#utility.yul\":13828:13907   */\n      tag_465\n      tag_264\n      jump\t// in\n    tag_465:\n        /* \"#utility.yul\":13789:13909   */\n    tag_464:\n        /* \"#utility.yul\":13948:13949   */\n      0x00\n        /* \"#utility.yul\":13973:14026   */\n      tag_466\n        /* \"#utility.yul\":14018:14025   */\n      dup11\n        /* \"#utility.yul\":14009:14015   */\n      dup3\n        /* \"#utility.yul\":13998:14007   */\n      dup12\n        /* \"#utility.yul\":13994:14016   */\n      add\n        /* \"#utility.yul\":13973:14026   */\n      tag_282\n      jump\t// in\n    tag_466:\n        /* \"#utility.yul\":13963:14026   */\n      swap8\n      pop\n        /* \"#utility.yul\":13919:14036   */\n      pop\n        /* \"#utility.yul\":14103:14105   */\n      0x20\n        /* \"#utility.yul\":14092:14101   */\n      dup9\n        /* \"#utility.yul\":14088:14106   */\n      add\n        /* \"#utility.yul\":14075:14107   */\n      calldataload\n        /* \"#utility.yul\":14134:14152   */\n      0xffffffffffffffff\n        /* \"#utility.yul\":14126:14132   */\n      dup2\n        /* \"#utility.yul\":14123:14153   */\n      gt\n        /* \"#utility.yul\":14120:14237   */\n      iszero\n      tag_467\n      jumpi\n        /* \"#utility.yul\":14156:14235   */\n      tag_468\n      tag_265\n      jump\t// in\n    tag_468:\n        /* \"#utility.yul\":14120:14237   */\n    tag_467:\n        /* \"#utility.yul\":14261:14324   */\n      tag_469\n        /* \"#utility.yul\":14316:14323   */\n      dup11\n        /* \"#utility.yul\":14307:14313   */\n      dup3\n        /* \"#utility.yul\":14296:14305   */\n      dup12\n        /* \"#utility.yul\":14292:14314   */\n      add\n        /* \"#utility.yul\":14261:14324   */\n      tag_291\n      jump\t// in\n    tag_469:\n        /* \"#utility.yul\":14251:14324   */\n      swap7\n      pop\n        /* \"#utility.yul\":14046:14334   */\n      pop\n        /* \"#utility.yul\":14373:14375   */\n      0x40\n        /* \"#utility.yul\":14399:14452   */\n      tag_470\n        /* \"#utility.yul\":14444:14451   */\n      dup11\n        /* \"#utility.yul\":14435:14441   */\n      dup3\n        /* \"#utility.yul\":14424:14433   */\n      dup12\n        /* \"#utility.yul\":14420:14442   */\n      add\n        /* \"#utility.yul\":14399:14452   */\n      tag_282\n      jump\t// in\n    tag_470:\n        /* \"#utility.yul\":14389:14452   */\n      swap6\n      pop\n        /* \"#utility.yul\":14344:14462   */\n      pop\n        /* \"#utility.yul\":14501:14503   */\n      0x60\n        /* \"#utility.yul\":14527:14580   */\n      tag_471\n        /* \"#utility.yul\":14572:14579   */\n      dup11\n        /* \"#utility.yul\":14563:14569   */\n      dup3\n        /* \"#utility.yul\":14552:14561   */\n      dup12\n        /* \"#utility.yul\":14548:14570   */\n      add\n        /* \"#utility.yul\":14527:14580   */\n      tag_282\n      jump\t// in\n    tag_471:\n        /* \"#utility.yul\":14517:14580   */\n      swap5\n      pop\n        /* \"#utility.yul\":14472:14590   */\n      pop\n        /* \"#utility.yul\":14629:14632   */\n      0x80\n        /* \"#utility.yul\":14656:14721   */\n      tag_472\n        /* \"#utility.yul\":14713:14720   */\n      dup11\n        /* \"#utility.yul\":14704:14710   */\n      dup3\n        /* \"#utility.yul\":14693:14702   */\n      dup12\n        /* \"#utility.yul\":14689:14711   */\n      add\n        /* \"#utility.yul\":14656:14721   */\n      tag_267\n      jump\t// in\n    tag_472:\n        /* \"#utility.yul\":14646:14721   */\n      swap4\n      pop\n        /* \"#utility.yul\":14600:14731   */\n      pop\n        /* \"#utility.yul\":14770:14773   */\n      0xa0\n        /* \"#utility.yul\":14797:14859   */\n      tag_473\n        /* \"#utility.yul\":14851:14858   */\n      dup11\n        /* \"#utility.yul\":14842:14848   */\n      dup3\n        /* \"#utility.yul\":14831:14840   */\n      dup12\n        /* \"#utility.yul\":14827:14849   */\n      add\n        /* \"#utility.yul\":14797:14859   */\n      tag_293\n      jump\t// in\n    tag_473:\n        /* \"#utility.yul\":14787:14859   */\n      swap3\n      pop\n        /* \"#utility.yul\":14741:14869   */\n      pop\n        /* \"#utility.yul\":14908:14911   */\n      0xc0\n        /* \"#utility.yul\":14935:14988   */\n      tag_474\n        /* \"#utility.yul\":14980:14987   */\n      dup11\n        /* \"#utility.yul\":14971:14977   */\n      dup3\n        /* \"#utility.yul\":14960:14969   */\n      dup12\n        /* \"#utility.yul\":14956:14978   */\n      add\n        /* \"#utility.yul\":14935:14988   */\n      tag_282\n      jump\t// in\n    tag_474:\n        /* \"#utility.yul\":14925:14988   */\n      swap2\n      pop\n        /* \"#utility.yul\":14879:14998   */\n      pop\n        /* \"#utility.yul\":13580:15005   */\n      swap3\n      swap6\n      swap9\n      swap2\n      swap5\n      swap8\n      pop\n      swap3\n      swap6\n      pop\n      jump\t// out\n        /* \"#utility.yul\":15011:15191   */\n    tag_306:\n        /* \"#utility.yul\":15059:15136   */\n      0x4e487b7100000000000000000000000000000000000000000000000000000000\n        /* \"#utility.yul\":15056:15057   */\n      0x00\n        /* \"#utility.yul\":15049:15137   */\n      mstore\n        /* \"#utility.yul\":15156:15160   */\n      0x11\n        /* \"#utility.yul\":15153:15154   */\n      0x04\n        /* \"#utility.yul\":15146:15161   */\n      mstore\n        /* \"#utility.yul\":15180:15184   */\n      0x24\n        /* \"#utility.yul\":15177:15178   */\n      0x00\n        /* \"#utility.yul\":15170:15185   */\n      revert\n        /* \"#utility.yul\":15197:15430   */\n    tag_74:\n        /* \"#utility.yul\":15236:15239   */\n      0x00\n        /* \"#utility.yul\":15259:15283   */\n      tag_477\n        /* \"#utility.yul\":15277:15282   */\n      dup3\n        /* \"#utility.yul\":15259:15283   */\n      tag_261\n      jump\t// in\n    tag_477:\n        /* \"#utility.yul\":15250:15283   */\n      swap2\n      pop\n        /* \"#utility.yul\":15305:15371   */\n      0xffffffffffffffffffffffffffffffffffffffffffffffffffffffffffffffff\n        /* \"#utility.yul\":15298:15303   */\n      dup3\n        /* \"#utility.yul\":15295:15372   */\n      sub\n        /* \"#utility.yul\":15292:15395   */\n      tag_478\n      jumpi\n        /* \"#utility.yul\":15375:15393   */\n      tag_479\n      tag_306\n      jump\t// in\n    tag_479:\n        /* \"#utility.yul\":15292:15395   */\n    tag_478:\n        /* \"#utility.yul\":15422:15423   */\n      0x01\n        /* \"#utility.yul\":15415:15420   */\n      dup3\n        /* \"#utility.yul\":15411:15424   */\n      add\n        /* \"#utility.yul\":15404:15424   */\n      swap1\n      pop\n        /* \"#utility.yul\":15197:15430   */\n      swap2\n      swap1\n      pop\n      jump\t// out\n        /* \"#utility.yul\":15436:15616   */\n    tag_307:\n        /* \"#utility.yul\":15484:15561   */\n      0x4e487b7100000000000000000000000000000000000000000000000000000000\n        /* \"#utility.yul\":15481:15482   */\n      0x00\n        /* \"#utility.yul\":15474:15562   */\n      mstore\n        /* \"#utility.yul\":15581:15585   */\n      0x22\n        /* \"#utility.yul\":15578:15579   */\n      0x04\n        /* \"#utility.yul\":15571:15586   */\n      mstore\n        /* \"#utility.yul\":15605:15609   */\n      0x24\n        /* \"#utility.yul\":15602:15603   */\n      0x00\n        /* \"#utility.yul\":15595:15610   */\n      revert\n        /* \"#utility.yul\":15622:15942   */\n    tag_95:\n        /* \"#utility.yul\":15666:15672   */\n      0x00\n        /* \"#utility.yul\":15703:15704   */\n      0x02\n        /* \"#utility.yul\":15697:15701   */\n      dup3\n        /* \"#utility.yul\":15693:15705   */\n      div\n        /* \"#utility.yul\":15683:15705   */\n      swap1\n      pop\n        /* \"#utility.yul\":15750:15751   */\n      0x01\n        /* \"#utility.yul\":15744:15748   */\n      dup3\n        /* \"#utility.yul\":15740:15752   */\n      and\n        /* \"#utility.yul\":15771:15789   */\n      dup1\n        /* \"#utility.yul\":15761:15842   */\n      tag_482\n      jumpi\n        /* \"#utility.yul\":15827:15831   */\n      0x7f\n        /* \"#utility.yul\":15819:15825   */\n      dup3\n        /* \"#utility.yul\":15815:15832   */\n      and\n        /* \"#utility.yul\":15805:15832   */\n      swap2\n      pop\n        /* \"#utility.yul\":15761:15842   */\n    tag_482:\n        /* \"#utility.yul\":15889:15891   */\n      0x20\n        /* \"#utility.yul\":15881:15887   */\n      dup3\n        /* \"#utility.yul\":15878:15892   */\n      lt\n        /* \"#utility.yul\":15858:15876   */\n      dup2\n        /* \"#utility.yul\":15855:15893   */\n      sub\n        /* \"#utility.yul\":15852:15936   */\n      tag_483\n      jumpi\n        /* \"#utility.yul\":15908:15926   */\n      tag_484\n      tag_307\n      jump\t// in\n    tag_484:\n        /* \"#utility.yul\":15852:15936   */\n    tag_483:\n        /* \"#utility.yul\":15673:15942   */\n      pop\n        /* \"#utility.yul\":15622:15942   */\n      swap2\n      swap1\n      pop\n      jump\t// out\n        /* \"#utility.yul\":15948:16089   */\n    tag_308:\n        /* \"#utility.yul\":15997:16001   */\n      0x00\n        /* \"#utility.yul\":16020:16023   */\n      dup2\n        /* \"#utility.yul\":16012:16023   */\n      swap1\n      pop\n        /* \"#utility.yul\":16043:16046   */\n      dup2\n        /* \"#utility.yul\":16040:16041   */\n      0x00\n        /* \"#utility.yul\":16033:16047   */\n      mstore\n        /* \"#utility.yul\":16077:16081   */\n      0x20\n        /* \"#utility.yul\":16074:16075   */\n      0x00\n        /* \"#utility.yul\":16064:16082   */\n      keccak256\n        /* \"#utility.yul\":16056:16082   */\n      swap1\n      pop\n        /* \"#utility.yul\":15948:16089   */\n      swap2\n      swap1\n      pop\n      jump\t// out\n        /* \"#utility.yul\":16095:16188   */\n    tag_309:\n        /* \"#utility.yul\":16132:16138   */\n      0x00\n        /* \"#utility.yul\":16179:16181   */\n      0x20\n        /* \"#utility.yul\":16174:16176   */\n      0x1f\n        /* \"#utility.yul\":16167:16172   */\n      dup4\n        /* \"#utility.yul\":16163:16177   */\n      add\n        /* \"#utility.yul\":16159:16182   */\n      div\n        /* \"#utility.yul\":16149:16182   */\n      swap1\n      pop\n        /* \"#utility.yul\":16095:16188   */\n      swap2\n      swap1\n      pop\n      jump\t// out\n        /* \"#utility.yul\":16194:16301   */\n    tag_310:\n        /* \"#utility.yul\":16238:16246   */\n      0x00\n        /* \"#utility.yul\":16288:16293   */\n      dup3\n        /* \"#utility.yul\":16282:16286   */\n      dup3\n        /* \"#utility.yul\":16278:16294   */\n      shl\n        /* \"#utility.yul\":16257:16294   */\n      swap1\n      pop\n        /* \"#utility.yul\":16194:16301   */\n      swap3\n      swap2\n      pop\n      pop\n      jump\t// out\n        /* \"#utility.yul\":16307:16700   */\n    tag_311:\n        /* \"#utility.yul\":16376:16382   */\n      0x00\n        /* \"#utility.yul\":16426:16427   */\n      0x08\n        /* \"#utility.yul\":16414:16424   */\n      dup4\n        /* \"#utility.yul\":16410:16428   */\n      mul\n        /* \"#utility.yul\":16449:16546   */\n      tag_489\n        /* \"#utility.yul\":16479:16545   */\n      0xffffffffffffffffffffffffffffffffffffffffffffffffffffffffffffffff\n        /* \"#utility.yul\":16468:16477   */\n      dup3\n        /* \"#utility.yul\":16449:16546   */\n      tag_310\n      jump\t// in\n    tag_489:\n        /* \"#utility.yul\":16567:16606   */\n      tag_490\n        /* \"#utility.yul\":16597:16605   */\n      dup7\n        /* \"#utility.yul\":16586:16595   */\n      dup4\n        /* \"#utility.yul\":16567:16606   */\n      tag_310\n      jump\t// in\n    tag_490:\n        /* \"#utility.yul\":16555:16606   */\n      swap6\n      pop\n        /* \"#utility.yul\":16639:16643   */\n      dup1\n        /* \"#utility.yul\":16635:16644   */\n      not\n        /* \"#utility.yul\":16628:16633   */\n      dup5\n        /* \"#utility.yul\":16624:16645   */\n      and\n        /* \"#utility.yul\":16615:16645   */\n      swap4\n      pop\n        /* \"#utility.yul\":16688:16692   */\n      dup1\n        /* \"#utility.yul\":16678:16686   */\n      dup7\n        /* \"#utility.yul\":16674:16693   */\n      and\n        /* \"#utility.yul\":16667:16672   */\n      dup5\n        /* \"#utility.yul\":16664:16694   */\n      or\n        /* \"#utility.yul\":16654:16694   */\n      swap3\n      pop\n        /* \"#utility.yul\":16383:16700   */\n      pop\n      pop\n        /* \"#utility.yul\":16307:16700   */\n      swap4\n      swap3\n      pop\n      pop\n      pop\n      jump\t// out\n        /* \"#utility.yul\":16706:16766   */\n    tag_312:\n        /* \"#utility.yul\":16734:16737   */\n      0x00\n        /* \"#utility.yul\":16755:16760   */\n      dup2\n        /* \"#utility.yul\":16748:16760   */\n      swap1\n      pop\n        /* \"#utility.yul\":16706:16766   */\n      swap2\n      swap1\n      pop\n      jump\t// out\n        /* \"#utility.yul\":16772:16914   */\n    tag_313:\n        /* \"#utility.yul\":16822:16831   */\n      0x00\n        /* \"#utility.yul\":16855:16908   */\n      tag_493\n        /* \"#utility.yul\":16873:16907   */\n      tag_494\n        /* \"#utility.yul\":16882:16906   */\n      tag_495\n        /* \"#utility.yul\":16900:16905   */\n      dup5\n        /* \"#utility.yul\":16882:16906   */\n      tag_261\n      jump\t// in\n    tag_495:\n        /* \"#utility.yul\":16873:16907   */\n      tag_312\n      jump\t// in\n    tag_494:\n        /* \"#utility.yul\":16855:16908   */\n      tag_261\n      jump\t// in\n    tag_493:\n        /* \"#utility.yul\":16842:16908   */\n      swap1\n      pop\n        /* \"#utility.yul\":16772:16914   */\n      swap2\n      swap1\n      pop\n      jump\t// out\n        /* \"#utility.yul\":16920:16995   */\n    tag_314:\n        /* \"#utility.yul\":16963:16966   */\n      0x00\n        /* \"#utility.yul\":16984:16989   */\n      dup2\n        /* \"#utility.yul\":16977:16989   */\n      swap1\n      pop\n        /* \"#utility.yul\":16920:16995   */\n      swap2\n      swap1\n      pop\n      jump\t// out\n        /* \"#utility.yul\":17001:17270   */\n    tag_315:\n        /* \"#utility.yul\":17111:17150   */\n      tag_498\n        /* \"#utility.yul\":17142:17149   */\n      dup4\n        /* \"#utility.yul\":17111:17150   */\n      tag_313\n      jump\t// in\n    tag_498:\n        /* \"#utility.yul\":17172:17263   */\n      tag_499\n        /* \"#utility.yul\":17221:17262   */\n      tag_500\n        /* \"#utility.yul\":17245:17261   */\n      dup3\n        /* \"#utility.yul\":17221:17262   */\n      tag_314\n      jump\t// in\n    tag_500:\n        /* \"#utility.yul\":17213:17219   */\n      dup5\n        /* \"#utility.yul\":17206:17210   */\n      dup5\n        /* \"#utility.yul\":17200:17211   */\n      sload\n        /* \"#utility.yul\":17172:17263   */\n      tag_311\n      jump\t// in\n    tag_499:\n        /* \"#utility.yul\":17166:17170   */\n      dup3\n        /* \"#utility.yul\":17159:17264   */\n      sstore\n        /* \"#utility.yul\":17077:17270   */\n      pop\n        /* \"#utility.yul\":17001:17270   */\n      pop\n      pop\n      pop\n      jump\t// out\n        /* \"#utility.yul\":17276:17349   */\n    tag_316:\n        /* \"#utility.yul\":17321:17324   */\n      0x00\n        /* \"#utility.yul\":17276:17349   */\n      swap1\n      jump\t// out\n        /* \"#utility.yul\":17355:17544   */\n    tag_317:\n        /* \"#utility.yul\":17432:17464   */\n      tag_503\n      tag_316\n      jump\t// in\n    tag_503:\n        /* \"#utility.yul\":17473:17538   */\n      tag_504\n        /* \"#utility.yul\":17531:17537   */\n      dup2\n        /* \"#utility.yul\":17523:17529   */\n      dup5\n        /* \"#utility.yul\":17517:17521   */\n      dup5\n        /* \"#utility.yul\":17473:17538   */\n      tag_315\n      jump\t// in\n    tag_504:\n        /* \"#utility.yul\":17408:17544   */\n      pop\n        /* \"#utility.yul\":17355:17544   */\n      pop\n      pop\n      jump\t// out\n        /* \"#utility.yul\":17550:17736   */\n    tag_318:\n        /* \"#utility.yul\":17610:17730   */\n    tag_506:\n        /* \"#utility.yul\":17627:17630   */\n      dup2\n        /* \"#utility.yul\":17620:17625   */\n      dup2\n        /* \"#utility.yul\":17617:17631   */\n      lt\n        /* \"#utility.yul\":17610:17730   */\n      iszero\n      tag_508\n      jumpi\n        /* \"#utility.yul\":17681:17720   */\n      tag_509\n        /* \"#utility.yul\":17718:17719   */\n      0x00\n        /* \"#utility.yul\":17711:17716   */\n      dup3\n        /* \"#utility.yul\":17681:17720   */\n      tag_317\n      jump\t// in\n    tag_509:\n        /* \"#utility.yul\":17654:17655   */\n      0x01\n        /* \"#utility.yul\":17647:17652   */\n      dup2\n        /* \"#utility.yul\":17643:17656   */\n      add\n        /* \"#utility.yul\":17634:17656   */\n      swap1\n      pop\n        /* \"#utility.yul\":17610:17730   */\n      jump(tag_506)\n    tag_508:\n        /* \"#utility.yul\":17550:17736   */\n      pop\n      pop\n      jump\t// out\n        /* \"#utility.yul\":17742:18285   */\n    tag_319:\n        /* \"#utility.yul\":17843:17845   */\n      0x1f\n        /* \"#utility.yul\":17838:17841   */\n      dup3\n        /* \"#utility.yul\":17835:17846   */\n      gt\n        /* \"#utility.yul\":17832:18278   */\n      iszero\n      tag_511\n      jumpi\n        /* \"#utility.yul\":17877:17915   */\n      tag_512\n        /* \"#utility.yul\":17909:17914   */\n      dup2\n        /* \"#utility.yul\":17877:17915   */\n      tag_308\n      jump\t// in\n    tag_512:\n        /* \"#utility.yul\":17961:17990   */\n      tag_513\n        /* \"#utility.yul\":17979:17989   */\n      dup5\n        /* \"#utility.yul\":17961:17990   */\n      tag_309\n      jump\t// in\n    tag_513:\n        /* \"#utility.yul\":17951:17959   */\n      dup2\n        /* \"#utility.yul\":17947:17991   */\n      add\n        /* \"#utility.yul\":18144:18146   */\n      0x20\n        /* \"#utility.yul\":18132:18142   */\n      dup6\n        /* \"#utility.yul\":18129:18147   */\n      lt\n        /* \"#utility.yul\":18126:18175   */\n      iszero\n      tag_514\n      jumpi\n        /* \"#utility.yul\":18165:18173   */\n      dup2\n        /* \"#utility.yul\":18150:18173   */\n      swap1\n      pop\n        /* \"#utility.yul\":18126:18175   */\n    tag_514:\n        /* \"#utility.yul\":18188:18268   */\n      tag_515\n        /* \"#utility.yul\":18244:18266   */\n      tag_516\n        /* \"#utility.yul\":18262:18265   */\n      dup6\n        /* \"#utility.yul\":18244:18266   */\n      tag_309\n      jump\t// in\n    tag_516:\n        /* \"#utility.yul\":18234:18242   */\n      dup4\n        /* \"#utility.yul\":18230:18267   */\n      add\n        /* \"#utility.yul\":18217:18228   */\n      dup3\n        /* \"#utility.yul\":18188:18268   */\n      tag_318\n      jump\t// in\n    tag_515:\n        /* \"#utility.yul\":17847:18278   */\n      pop\n      pop\n        /* \"#utility.yul\":17832:18278   */\n    tag_511:\n        /* \"#utility.yul\":17742:18285   */\n      pop\n      pop\n      pop\n      jump\t// out\n        /* \"#utility.yul\":18291:18408   */\n    tag_320:\n        /* \"#utility.yul\":18345:18353   */\n      0x00\n        /* \"#utility.yul\":18395:18400   */\n      dup3\n        /* \"#utility.yul\":18389:18393   */\n      dup3\n        /* \"#utility.yul\":18385:18401   */\n      shr\n        /* \"#utility.yul\":18364:18401   */\n      swap1\n      pop\n        /* \"#utility.yul\":18291:18408   */\n      swap3\n      swap2\n      pop\n      pop\n      jump\t// out\n        /* \"#utility.yul\":18414:18583   */\n    tag_321:\n        /* \"#utility.yul\":18458:18464   */\n      0x00\n        /* \"#utility.yul\":18491:18542   */\n      tag_519\n        /* \"#utility.yul\":18539:18540   */\n      0x00\n        /* \"#utility.yul\":18535:18541   */\n      not\n        /* \"#utility.yul\":18527:18532   */\n      dup5\n        /* \"#utility.yul\":18524:18525   */\n      0x08\n        /* \"#utility.yul\":18520:18533   */\n      mul\n        /* \"#utility.yul\":18491:18542   */\n      tag_320\n      jump\t// in\n    tag_519:\n        /* \"#utility.yul\":18487:18543   */\n      not\n        /* \"#utility.yul\":18572:18576   */\n      dup1\n        /* \"#utility.yul\":18566:18570   */\n      dup4\n        /* \"#utility.yul\":18562:18577   */\n      and\n        /* \"#utility.yul\":18552:18577   */\n      swap2\n      pop\n        /* \"#utility.yul\":18465:18583   */\n      pop\n        /* \"#utility.yul\":18414:18583   */\n      swap3\n      swap2\n      pop\n      pop\n      jump\t// out\n        /* \"#utility.yul\":18588:18883   */\n    tag_322:\n        /* \"#utility.yul\":18664:18668   */\n      0x00\n        /* \"#utility.yul\":18810:18839   */\n      tag_521\n        /* \"#utility.yul\":18835:18838   */\n      dup4\n        /* \"#utility.yul\":18829:18833   */\n      dup4\n        /* \"#utility.yul\":18810:18839   */\n      tag_321\n      jump\t// in\n    tag_521:\n        /* \"#utility.yul\":18802:18839   */\n      swap2\n      pop\n        /* \"#utility.yul\":18872:18875   */\n      dup3\n        /* \"#utility.yul\":18869:18870   */\n      0x02\n        /* \"#utility.yul\":18865:18876   */\n      mul\n        /* \"#utility.yul\":18859:18863   */\n      dup3\n        /* \"#utility.yul\":18856:18877   */\n      or\n        /* \"#utility.yul\":18848:18877   */\n      swap1\n      pop\n        /* \"#utility.yul\":18588:18883   */\n      swap3\n      swap2\n      pop\n      pop\n      jump\t// out\n        /* \"#utility.yul\":18888:20283   */\n    tag_109:\n        /* \"#utility.yul\":19005:19042   */\n      tag_523\n        /* \"#utility.yul\":19038:19041   */\n      dup3\n        /* \"#utility.yul\":19005:19042   */\n      tag_268\n      jump\t// in\n    tag_523:\n        /* \"#utility.yul\":19107:19125   */\n      0xffffffffffffffff\n        /* \"#utility.yul\":19099:19105   */\n      dup2\n        /* \"#utility.yul\":19096:19126   */\n      gt\n        /* \"#utility.yul\":19093:19149   */\n      iszero\n      tag_524\n      jumpi\n        /* \"#utility.yul\":19129:19147   */\n      tag_525\n      tag_285\n      jump\t// in\n    tag_525:\n        /* \"#utility.yul\":19093:19149   */\n    tag_524:\n        /* \"#utility.yul\":19173:19211   */\n      tag_526\n        /* \"#utility.yul\":19205:19209   */\n      dup3\n        /* \"#utility.yul\":19199:19210   */\n      sload\n        /* \"#utility.yul\":19173:19211   */\n      tag_95\n      jump\t// in\n    tag_526:\n        /* \"#utility.yul\":19258:19325   */\n      tag_527\n        /* \"#utility.yul\":19318:19324   */\n      dup3\n        /* \"#utility.yul\":19310:19316   */\n      dup3\n        /* \"#utility.yul\":19304:19308   */\n      dup6\n        /* \"#utility.yul\":19258:19325   */\n      tag_319\n      jump\t// in\n    tag_527:\n        /* \"#utility.yul\":19352:19353   */\n      0x00\n        /* \"#utility.yul\":19376:19380   */\n      0x20\n        /* \"#utility.yul\":19363:19380   */\n      swap1\n      pop\n        /* \"#utility.yul\":19408:19410   */\n      0x1f\n        /* \"#utility.yul\":19400:19406   */\n      dup4\n        /* \"#utility.yul\":19397:19411   */\n      gt\n        /* \"#utility.yul\":19425:19426   */\n      0x01\n        /* \"#utility.yul\":19420:20038   */\n      dup2\n      eq\n      tag_529\n      jumpi\n        /* \"#utility.yul\":20082:20083   */\n      0x00\n        /* \"#utility.yul\":20099:20105   */\n      dup5\n        /* \"#utility.yul\":20096:20173   */\n      iszero\n      tag_530\n      jumpi\n        /* \"#utility.yul\":20148:20157   */\n      dup3\n        /* \"#utility.yul\":20143:20146   */\n      dup8\n        /* \"#utility.yul\":20139:20158   */\n      add\n        /* \"#utility.yul\":20133:20159   */\n      mload\n        /* \"#utility.yul\":20124:20159   */\n      swap1\n      pop\n        /* \"#utility.yul\":20096:20173   */\n    tag_530:\n        /* \"#utility.yul\":20199:20266   */\n      tag_531\n        /* \"#utility.yul\":20259:20265   */\n      dup6\n        /* \"#utility.yul\":20252:20257   */\n      dup3\n        /* \"#utility.yul\":20199:20266   */\n      tag_322\n      jump\t// in\n    tag_531:\n        /* \"#utility.yul\":20193:20197   */\n      dup7\n        /* \"#utility.yul\":20186:20267   */\n      sstore\n        /* \"#utility.yul\":20055:20277   */\n      pop\n        /* \"#utility.yul\":19390:20277   */\n      jump(tag_528)\n        /* \"#utility.yul\":19420:20038   */\n    tag_529:\n        /* \"#utility.yul\":19472:19476   */\n      0x1f\n        /* \"#utility.yul\":19468:19477   */\n      not\n        /* \"#utility.yul\":19460:19466   */\n      dup5\n        /* \"#utility.yul\":19456:19478   */\n      and\n        /* \"#utility.yul\":19506:19543   */\n      tag_532\n        /* \"#utility.yul\":19538:19542   */\n      dup7\n        /* \"#utility.yul\":19506:19543   */\n      tag_308\n      jump\t// in\n    tag_532:\n        /* \"#utility.yul\":19565:19566   */\n      0x00\n        /* \"#utility.yul\":19579:19787   */\n    tag_533:\n        /* \"#utility.yul\":19593:19600   */\n      dup3\n        /* \"#utility.yul\":19590:19591   */\n      dup2\n        /* \"#utility.yul\":19587:19601   */\n      lt\n        /* \"#utility.yul\":19579:19787   */\n      iszero\n      tag_535\n      jumpi\n        /* \"#utility.yul\":19672:19681   */\n      dup5\n        /* \"#utility.yul\":19667:19670   */\n      dup10\n        /* \"#utility.yul\":19663:19682   */\n      add\n        /* \"#utility.yul\":19657:19683   */\n      mload\n        /* \"#utility.yul\":19649:19655   */\n      dup3\n        /* \"#utility.yul\":19642:19684   */\n      sstore\n        /* \"#utility.yul\":19723:19724   */\n      0x01\n        /* \"#utility.yul\":19715:19721   */\n      dup3\n        /* \"#utility.yul\":19711:19725   */\n      add\n        /* \"#utility.yul\":19701:19725   */\n      swap2\n      pop\n        /* \"#utility.yul\":19770:19772   */\n      0x20\n        /* \"#utility.yul\":19759:19768   */\n      dup6\n        /* \"#utility.yul\":19755:19773   */\n      add\n        /* \"#utility.yul\":19742:19773   */\n      swap5\n      pop\n        /* \"#utility.yul\":19616:19620   */\n      0x20\n        /* \"#utility.yul\":19613:19614   */\n      dup2\n        /* \"#utility.yul\":19609:19621   */\n      add\n        /* \"#utility.yul\":19604:19621   */\n      swap1\n      pop\n        /* \"#utility.yul\":19579:19787   */\n      jump(tag_533)\n    tag_535:\n        /* \"#utility.yul\":19815:19821   */\n      dup7\n        /* \"#utility.yul\":19806:19813   */\n      dup4\n        /* \"#utility.yul\":19803:19822   */\n      lt\n        /* \"#utility.yul\":19800:19979   */\n      iszero\n      tag_536\n      jumpi\n        /* \"#utility.yul\":19873:19882   */\n      dup5\n        /* \"#utility.yul\":19868:19871   */\n      dup10\n        /* \"#utility.yul\":19864:19883   */\n      add\n        /* \"#utility.yul\":19858:19884   */\n      mload\n        /* \"#utility.yul\":19916:19964   */\n      tag_537\n        /* \"#utility.yul\":19958:19962   */\n      0x1f\n        /* \"#utility.yul\":19950:19956   */\n      dup10\n        /* \"#utility.yul\":19946:19963   */\n      and\n        /* \"#utility.yul\":19935:19944   */\n      dup3\n        /* \"#utility.yul\":19916:19964   */\n      tag_321\n      jump\t// in\n    tag_537:\n        /* \"#utility.yul\":19908:19914   */\n      dup4\n        /* \"#utility.yul\":19901:19965   */\n      sstore\n        /* \"#utility.yul\":19823:19979   */\n      pop\n        /* \"#utility.yul\":19800:19979   */\n    tag_536:\n        /* \"#utility.yul\":20025:20026   */\n      0x01\n        /* \"#utility.yul\":20021:20022   */\n      0x02\n        /* \"#utility.yul\":20013:20019   */\n      dup9\n        /* \"#utility.yul\":20009:20023   */\n      mul\n        /* \"#utility.yul\":20005:20027   */\n      add\n        /* \"#utility.yul\":19999:20003   */\n      dup9\n        /* \"#utility.yul\":19992:20028   */\n      sstore\n        /* \"#utility.yul\":19427:20038   */\n      pop\n      pop\n      pop\n        /* \"#utility.yul\":19390:20277   */\n    tag_528:\n      pop\n        /* \"#utility.yul\":18980:20283   */\n      pop\n      pop\n      pop\n        /* \"#utility.yul\":18888:20283   */\n      pop\n      pop\n      jump\t// out\n        /* \"#utility.yul\":20289:20438   */\n    tag_323:\n        /* \"#utility.yul\":20338:20344   */\n      0x00\n        /* \"#utility.yul\":20372:20377   */\n      dup2\n        /* \"#utility.yul\":20366:20378   */\n      sload\n        /* \"#utility.yul\":20356:20378   */\n      swap1\n      pop\n        /* \"#utility.yul\":20398:20431   */\n      tag_539\n        /* \"#utility.yul\":20424:20430   */\n      dup2\n        /* \"#utility.yul\":20398:20431   */\n      tag_95\n      jump\t// in\n    tag_539:\n        /* \"#utility.yul\":20388:20431   */\n      swap1\n      pop\n        /* \"#utility.yul\":20289:20438   */\n      swap2\n      swap1\n      pop\n      jump\t// out\n        /* \"#utility.yul\":20444:21895   */\n    tag_116:\n        /* \"#utility.yul\":20555:20558   */\n      dup2\n        /* \"#utility.yul\":20549:20553   */\n      dup2\n        /* \"#utility.yul\":20546:20559   */\n      sub\n        /* \"#utility.yul\":20543:20569   */\n      tag_541\n      jumpi\n        /* \"#utility.yul\":20562:20567   */\n      pop\n      pop\n      jump(tag_540)\n        /* \"#utility.yul\":20543:20569   */\n    tag_541:\n        /* \"#utility.yul\":20593:20627   */\n      tag_542\n        /* \"#utility.yul\":20623:20626   */\n      dup3\n        /* \"#utility.yul\":20593:20627   */\n      tag_323\n      jump\t// in\n    tag_542:\n        /* \"#utility.yul\":20692:20710   */\n      0xffffffffffffffff\n        /* \"#utility.yul\":20684:20690   */\n      dup2\n        /* \"#utility.yul\":20681:20711   */\n      gt\n        /* \"#utility.yul\":20678:20734   */\n      iszero\n      tag_543\n      jumpi\n        /* \"#utility.yul\":20714:20732   */\n      tag_544\n      tag_285\n      jump\t// in\n    tag_544:\n        /* \"#utility.yul\":20678:20734   */\n    tag_543:\n        /* \"#utility.yul\":20758:20796   */\n      tag_545\n        /* \"#utility.yul\":20790:20794   */\n      dup3\n        /* \"#utility.yul\":20784:20795   */\n      sload\n        /* \"#utility.yul\":20758:20796   */\n      tag_95\n      jump\t// in\n    tag_545:\n        /* \"#utility.yul\":20843:20910   */\n      tag_546\n        /* \"#utility.yul\":20903:20909   */\n      dup3\n        /* \"#utility.yul\":20895:20901   */\n      dup3\n        /* \"#utility.yul\":20889:20893   */\n      dup6\n        /* \"#utility.yul\":20843:20910   */\n      tag_319\n      jump\t// in\n    tag_546:\n        /* \"#utility.yul\":20937:20938   */\n      0x00\n        /* \"#utility.yul\":20966:20968   */\n      0x1f\n        /* \"#utility.yul\":20958:20964   */\n      dup4\n        /* \"#utility.yul\":20955:20969   */\n      gt\n        /* \"#utility.yul\":20983:20984   */\n      0x01\n        /* \"#utility.yul\":20978:21650   */\n      dup2\n      eq\n      tag_548\n      jumpi\n        /* \"#utility.yul\":21694:21695   */\n      0x00\n        /* \"#utility.yul\":21711:21717   */\n      dup5\n        /* \"#utility.yul\":21708:21785   */\n      iszero\n      tag_549\n      jumpi\n        /* \"#utility.yul\":21760:21769   */\n      dup3\n        /* \"#utility.yul\":21755:21758   */\n      dup8\n        /* \"#utility.yul\":21751:21770   */\n      add\n        /* \"#utility.yul\":21745:21771   */\n      sload\n        /* \"#utility.yul\":21736:21771   */\n      swap1\n      pop\n        /* \"#utility.yul\":21708:21785   */\n    tag_549:\n        /* \"#utility.yul\":21811:21878   */\n      tag_550\n        /* \"#utility.yul\":21871:21877   */\n      dup6\n        /* \"#utility.yul\":21864:21869   */\n      dup3\n        /* \"#utility.yul\":21811:21878   */\n      tag_322\n      jump\t// in\n    tag_550:\n        /* \"#utility.yul\":21805:21809   */\n      dup7\n        /* \"#utility.yul\":21798:21879   */\n      sstore\n        /* \"#utility.yul\":21667:21889   */\n      pop\n        /* \"#utility.yul\":20948:21889   */\n      jump(tag_547)\n        /* \"#utility.yul\":20978:21650   */\n    tag_548:\n        /* \"#utility.yul\":21030:21034   */\n      0x1f\n        /* \"#utility.yul\":21026:21035   */\n      not\n        /* \"#utility.yul\":21018:21024   */\n      dup5\n        /* \"#utility.yul\":21014:21036   */\n      and\n        /* \"#utility.yul\":21056:21092   */\n      tag_551\n        /* \"#utility.yul\":21088:21091   */\n      dup8\n        /* \"#utility.yul\":21056:21092   */\n      tag_308\n      jump\t// in\n    tag_551:\n        /* \"#utility.yul\":21049:21092   */\n      swap7\n      pop\n        /* \"#utility.yul\":21119:21156   */\n      tag_552\n        /* \"#utility.yul\":21151:21155   */\n      dup7\n        /* \"#utility.yul\":21119:21156   */\n      tag_308\n      jump\t// in\n    tag_552:\n        /* \"#utility.yul\":21178:21179   */\n      0x00\n        /* \"#utility.yul\":21192:21399   */\n    tag_553:\n        /* \"#utility.yul\":21206:21213   */\n      dup3\n        /* \"#utility.yul\":21203:21204   */\n      dup2\n        /* \"#utility.yul\":21200:21214   */\n      lt\n        /* \"#utility.yul\":21192:21399   */\n      iszero\n      tag_555\n      jumpi\n        /* \"#utility.yul\":21285:21294   */\n      dup5\n        /* \"#utility.yul\":21280:21283   */\n      dup10\n        /* \"#utility.yul\":21276:21295   */\n      add\n        /* \"#utility.yul\":21270:21296   */\n      sload\n        /* \"#utility.yul\":21262:21268   */\n      dup3\n        /* \"#utility.yul\":21255:21297   */\n      sstore\n        /* \"#utility.yul\":21336:21337   */\n      0x01\n        /* \"#utility.yul\":21328:21334   */\n      dup3\n        /* \"#utility.yul\":21324:21338   */\n      add\n        /* \"#utility.yul\":21314:21338   */\n      swap2\n      pop\n        /* \"#utility.yul\":21383:21384   */\n      0x01\n        /* \"#utility.yul\":21372:21381   */\n      dup6\n        /* \"#utility.yul\":21368:21385   */\n      add\n        /* \"#utility.yul\":21355:21385   */\n      swap5\n      pop\n        /* \"#utility.yul\":21229:21233   */\n      0x20\n        /* \"#utility.yul\":21226:21227   */\n      dup2\n        /* \"#utility.yul\":21222:21234   */\n      add\n        /* \"#utility.yul\":21217:21234   */\n      swap1\n      pop\n        /* \"#utility.yul\":21192:21399   */\n      jump(tag_553)\n    tag_555:\n        /* \"#utility.yul\":21427:21433   */\n      dup7\n        /* \"#utility.yul\":21418:21425   */\n      dup4\n        /* \"#utility.yul\":21415:21434   */\n      lt\n        /* \"#utility.yul\":21412:21591   */\n      iszero\n      tag_556\n      jumpi\n        /* \"#utility.yul\":21485:21494   */\n      dup5\n        /* \"#utility.yul\":21480:21483   */\n      dup10\n        /* \"#utility.yul\":21476:21495   */\n      add\n        /* \"#utility.yul\":21470:21496   */\n      sload\n        /* \"#utility.yul\":21528:21576   */\n      tag_557\n        /* \"#utility.yul\":21570:21574   */\n      0x1f\n        /* \"#utility.yul\":21562:21568   */\n      dup10\n        /* \"#utility.yul\":21558:21575   */\n      and\n        /* \"#utility.yul\":21547:21556   */\n      dup3\n        /* \"#utility.yul\":21528:21576   */\n      tag_321\n      jump\t// in\n    tag_557:\n        /* \"#utility.yul\":21520:21526   */\n      dup4\n        /* \"#utility.yul\":21513:21577   */\n      sstore\n        /* \"#utility.yul\":21435:21591   */\n      pop\n        /* \"#utility.yul\":21412:21591   */\n    tag_556:\n        /* \"#utility.yul\":21637:21638   */\n      0x01\n        /* \"#utility.yul\":21633:21634   */\n      0x02\n        /* \"#utility.yul\":21625:21631   */\n      dup9\n        /* \"#utility.yul\":21621:21635   */\n      mul\n        /* \"#utility.yul\":21617:21639   */\n      add\n        /* \"#utility.yul\":21611:21615   */\n      dup9\n        /* \"#utility.yul\":21604:21640   */\n      sstore\n        /* \"#utility.yul\":20985:21650   */\n      pop\n      pop\n      pop\n        /* \"#utility.yul\":20948:21889   */\n    tag_547:\n      pop\n        /* \"#utility.yul\":20533:21895   */\n      pop\n      pop\n      pop\n        /* \"#utility.yul\":20444:21895   */\n      pop\n      pop\n    tag_540:\n      jump\t// out\n        /* \"#utility.yul\":21901:22081   */\n    tag_143:\n        /* \"#utility.yul\":21949:22026   */\n      0x4e487b7100000000000000000000000000000000000000000000000000000000\n        /* \"#utility.yul\":21946:21947   */\n      0x00\n        /* \"#utility.yul\":21939:22027   */\n      mstore\n        /* \"#utility.yul\":22046:22050   */\n      0x32\n        /* \"#utility.yul\":22043:22044   */\n      0x04\n        /* \"#utility.yul\":22036:22051   */\n      mstore\n        /* \"#utility.yul\":22070:22074   */\n      0x24\n        /* \"#utility.yul\":22067:22068   */\n      0x00\n        /* \"#utility.yul\":22060:22075   */\n      revert\n\n    auxdata: 0xa264697066735822122060e10ca4a103737819155c849a90ac4a15d604751556535ae80b7b13ca280b8264736f6c63430008150033\n}\n",
				"bytecode": {
					"linkReferences": {},
					"object": "608060405234801561000f575f80fd5b50611d2f8061001d5f395ff3fe608060405234801561000f575f80fd5b50600436106100b2575f3560e01c80638f88708b1161006f5780638f88708b146101965780639205c66e146101cb578063caf76adb14610200578063cf25823a1461021e578063d836e33c1461023a578063fd75948d14610258576100b2565b8063076d6935146100b65780630d541dc6146100d4578063224e760c146100f2578063712781f51461012257806371e5ee5f14610145578063743e87011461017a575b5f80fd5b6100be610276565b6040516100cb91906111ba565b60405180910390f35b6100dc61027c565b6040516100e991906111ba565b60405180910390f35b61010c60048036038101906101079190611207565b610282565b60405161011991906111ba565b60405180910390f35b61012a6103b4565b60405161013c96959493929190611375565b60405180910390f35b61015f600480360381019061015a9190611405565b61047c565b60405161017196959493929190611375565b60405180910390f35b610194600480360381019061018f919061157f565b610562565b005b6101b060048036038101906101ab9190611405565b6106c2565b6040516101c296959493929190611375565b60405180910390f35b6101e560048036038101906101e09190611405565b6107b1565b6040516101f796959493929190611375565b60405180910390f35b610208610887565b60405161021591906117bc565b60405180910390f35b610238600480360381019061023391906117dc565b610e5a565b005b610242611114565b60405161024f91906111ba565b60405180910390f35b61026061111a565b60405161026d91906111ba565b60405180910390f35b60075481565b600a5481565b5f805f90505b600180549050811015610399575f60038111156102a8576102a76112bc565b5b8360038111156102bb576102ba6112bc565b5b036102dc5760075f8154809291906102d2906118c2565b9190505550610386565b600160038111156102f0576102ef6112bc565b5b836003811115610303576103026112bc565b5b036103245760085f81548092919061031a906118c2565b9190505550610385565b60026003811115610338576103376112bc565b5b83600381111561034b5761034a6112bc565b5b0361036c5760095f815480929190610362906118c2565b9190505550610384565b600a5f81548092919061037e906118c2565b91905055505b5b5b8080610391906118c2565b915050610288565b508160038111156103ad576103ac6112bc565b5b9050919050565b6002805f0180546103c490611936565b80601f01602080910402602001604051908101604052809291908181526020018280546103f090611936565b801561043b5780601f106104125761010080835404028352916020019161043b565b820191905f5260205f20905b81548152906001019060200180831161041e57829003601f168201915b505050505090806001015490806002015490806003015f9054906101000a900460ff16908060030160019054906101000a900460ff16908060040154905086565b6001818154811061048b575f80fd5b905f5260205f2090600502015f91509050805f0180546104aa90611936565b80601f01602080910402602001604051908101604052809291908181526020018280546104d690611936565b80156105215780601f106104f857610100808354040283529160200191610521565b820191905f5260205f20905b81548152906001019060200180831161050457829003601f168201915b505050505090806001015490806002015490806003015f9054906101000a900460ff16908060030160019054906101000a900460ff16908060040154905086565b5f805f8781526020019081526020015f20905084815f0190816105859190611b03565b5083816001018190555082816003015f6101000a81548160ff021916908360038111156105b5576105b46112bc565b5b0217905550818160030160016101000a81548160ff021916908360038111156105e1576105e06112bc565b5b0217905550600181908060018154018082558091505060019003905f5260205f2090600502015f909190919091505f8201815f0190816106219190611be7565b506001820154816001015560028201548160020155600382015f9054906101000a900460ff16816003015f6101000a81548160ff0219169083600381111561066c5761066b6112bc565b5b02179055506003820160019054906101000a900460ff168160030160016101000a81548160ff021916908360038111156106a9576106a86112bc565b5b0217905550600482015481600401555050505050505050565b60605f805f805f805f808981526020019081526020015f209050805f0181600101548260020154836003015f9054906101000a900460ff168460030160019054906101000a900460ff16856004015485805461071d90611936565b80601f016020809104026020016040519081016040528092919081815260200182805461074990611936565b80156107945780601f1061076b57610100808354040283529160200191610794565b820191905f5260205f20905b81548152906001019060200180831161077757829003601f168201915b505050505095509650965096509650965096505091939550919395565b5f602052805f5260405f205f91509050805f0180546107cf90611936565b80601f01602080910402602001604051908101604052809291908181526020018280546107fb90611936565b80156108465780601f1061081d57610100808354040283529160200191610846565b820191905f5260205f20905b81548152906001019060200180831161082957829003601f168201915b505050505090806001015490806002015490806003015f9054906101000a900460ff16908060030160019054906101000a900460ff16908060040154905086565b61088f611120565b610897611120565b5f805f805b600180549050811015610e4f57600160038111156108bd576108bc6112bc565b5b600182815481106108d1576108d0611ccc565b5b905f5260205f2090600502016003015f9054906101000a900460ff1660038111156108ff576108fe6112bc565b5b03610e3c575f6001828154811061091957610918611ccc565b5b905f5260205f20906005020160040154905084811115610b1257839250849350809450856001600381106109505761094f611ccc565b5b60200201518660026003811061096957610968611ccc565b5b6020020181905250855f6003811061098457610983611ccc565b5b60200201518660016003811061099d5761099c611ccc565b5b6020020181905250600182815481106109b9576109b8611ccc565b5b905f5260205f2090600502016040518060c00160405290815f820180546109df90611936565b80601f0160208091040260200160405190810160405280929190818152602001828054610a0b90611936565b8015610a565780601f10610a2d57610100808354040283529160200191610a56565b820191905f5260205f20905b815481529060010190602001808311610a3957829003601f168201915b505050505081526020016001820154815260200160028201548152602001600382015f9054906101000a900460ff166003811115610a9757610a966112bc565b5b6003811115610aa957610aa86112bc565b5b81526020016003820160019054906101000a900460ff166003811115610ad257610ad16112bc565b5b6003811115610ae457610ae36112bc565b5b8152602001600482015481525050865f60038110610b0557610b04611ccc565b5b6020020181905250610e3a565b83811115610cc35783925080935085600160038110610b3457610b33611ccc565b5b602002015186600260038110610b4d57610b4c611ccc565b5b602002018190525060018281548110610b6957610b68611ccc565b5b905f5260205f2090600502016040518060c00160405290815f82018054610b8f90611936565b80601f0160208091040260200160405190810160405280929190818152602001828054610bbb90611936565b8015610c065780601f10610bdd57610100808354040283529160200191610c06565b820191905f5260205f20905b815481529060010190602001808311610be957829003601f168201915b505050505081526020016001820154815260200160028201548152602001600382015f9054906101000a900460ff166003811115610c4757610c466112bc565b5b6003811115610c5957610c586112bc565b5b81526020016003820160019054906101000a900460ff166003811115610c8257610c816112bc565b5b6003811115610c9457610c936112bc565b5b815260200160048201548152505086600160038110610cb657610cb5611ccc565b5b6020020181905250610e39565b82811115610e385780925060018281548110610ce257610ce1611ccc565b5b905f5260205f2090600502016040518060c00160405290815f82018054610d0890611936565b80601f0160208091040260200160405190810160405280929190818152602001828054610d3490611936565b8015610d7f5780601f10610d5657610100808354040283529160200191610d7f565b820191905f5260205f20905b815481529060010190602001808311610d6257829003601f168201915b505050505081526020016001820154815260200160028201548152602001600382015f9054906101000a900460ff166003811115610dc057610dbf6112bc565b5b6003811115610dd257610dd16112bc565b5b81526020016003820160019054906101000a900460ff166003811115610dfb57610dfa6112bc565b5b6003811115610e0d57610e0c6112bc565b5b815260200160048201548152505086600260038110610e2f57610e2e611ccc565b5b60200201819052505b5b5b505b8080610e47906118c2565b91505061089c565b508394505050505090565b60016003811115610e6e57610e6d6112bc565b5b826003811115610e8157610e806112bc565b5b1480610eb05750600380811115610e9b57610e9a6112bc565b5b826003811115610eae57610ead6112bc565b5b145b15610eb9575f90505b5f6002905086815f019081610ece9190611b03565b5085816001018190555084816002018190555083816003015f6101000a81548160ff02191690836003811115610f0757610f066112bc565b5b0217905550828160030160016101000a81548160ff02191690836003811115610f3357610f326112bc565b5b0217905550818160040181905550600181908060018154018082558091505060019003905f5260205f2090600502015f909190919091505f8201815f019081610f7c9190611be7565b506001820154816001015560028201548160020155600382015f9054906101000a900460ff16816003015f6101000a81548160ff02191690836003811115610fc757610fc66112bc565b5b02179055506003820160019054906101000a900460ff168160030160016101000a81548160ff02191690836003811115611004576110036112bc565b5b02179055506004820154816004015550506040518060c00160405280888152602001878152602001868152602001856003811115611045576110446112bc565b5b815260200184600381111561105d5761105c6112bc565b5b8152602001838152505f808a81526020019081526020015f205f820151815f0190816110899190611b03565b5060208201518160010155604082015181600201556060820151816003015f6101000a81548160ff021916908360038111156110c8576110c76112bc565b5b021790555060808201518160030160016101000a81548160ff021916908360038111156110f8576110f76112bc565b5b021790555060a082015181600401559050505050505050505050565b60095481565b60085481565b60405180606001604052806003905b61113761114d565b81526020019060019003908161112f5790505090565b6040518060c00160405280606081526020015f81526020015f81526020015f600381111561117e5761117d6112bc565b5b81526020015f6003811115611196576111956112bc565b5b81526020015f81525090565b5f819050919050565b6111b4816111a2565b82525050565b5f6020820190506111cd5f8301846111ab565b92915050565b5f604051905090565b5f80fd5b5f80fd5b600481106111f0575f80fd5b50565b5f81359050611201816111e4565b92915050565b5f6020828403121561121c5761121b6111dc565b5b5f611229848285016111f3565b91505092915050565b5f81519050919050565b5f82825260208201905092915050565b5f5b8381101561126957808201518184015260208101905061124e565b5f8484015250505050565b5f601f19601f8301169050919050565b5f61128e82611232565b611298818561123c565b93506112a881856020860161124c565b6112b181611274565b840191505092915050565b7f4e487b71000000000000000000000000000000000000000000000000000000005f52602160045260245ffd5b600481106112fa576112f96112bc565b5b50565b5f81905061130a826112e9565b919050565b5f611319826112fd565b9050919050565b6113298161130f565b82525050565b600481106113405761133f6112bc565b5b50565b5f8190506113508261132f565b919050565b5f61135f82611343565b9050919050565b61136f81611355565b82525050565b5f60c0820190508181035f83015261138d8189611284565b905061139c60208301886111ab565b6113a960408301876111ab565b6113b66060830186611320565b6113c36080830185611366565b6113d060a08301846111ab565b979650505050505050565b6113e4816111a2565b81146113ee575f80fd5b50565b5f813590506113ff816113db565b92915050565b5f6020828403121561141a576114196111dc565b5b5f611427848285016113f1565b91505092915050565b5f80fd5b5f80fd5b7f4e487b71000000000000000000000000000000000000000000000000000000005f52604160045260245ffd5b61146e82611274565b810181811067ffffffffffffffff8211171561148d5761148c611438565b5b80604052505050565b5f61149f6111d3565b90506114ab8282611465565b919050565b5f67ffffffffffffffff8211156114ca576114c9611438565b5b6114d382611274565b9050602081019050919050565b828183375f83830152505050565b5f6115006114fb846114b0565b611496565b90508281526020810184848401111561151c5761151b611434565b5b6115278482856114e0565b509392505050565b5f82601f83011261154357611542611430565b5b81356115538482602086016114ee565b91505092915050565b60048110611568575f80fd5b50565b5f813590506115798161155c565b92915050565b5f805f805f60a08688031215611598576115976111dc565b5b5f6115a5888289016113f1565b955050602086013567ffffffffffffffff8111156115c6576115c56111e0565b5b6115d28882890161152f565b94505060406115e3888289016113f1565b93505060606115f4888289016111f3565b92505060806116058882890161156b565b9150509295509295909350565b5f60039050919050565b5f81905092915050565b5f819050919050565b5f82825260208201905092915050565b5f61164982611232565b611653818561162f565b935061166381856020860161124c565b61166c81611274565b840191505092915050565b611680816111a2565b82525050565b61168f8161130f565b82525050565b61169e81611355565b82525050565b5f60c083015f8301518482035f8601526116be828261163f565b91505060208301516116d36020860182611677565b5060408301516116e66040860182611677565b5060608301516116f96060860182611686565b50608083015161170c6080860182611695565b5060a083015161171f60a0860182611677565b508091505092915050565b5f61173583836116a4565b905092915050565b5f602082019050919050565b5f61175382611612565b61175d818561161c565b93508360208202850161176f85611626565b805f5b858110156117aa578484038952815161178b858261172a565b94506117968361173d565b925060208a01995050600181019050611772565b50829750879550505050505092915050565b5f6020820190508181035f8301526117d48184611749565b905092915050565b5f805f805f805f60e0888a0312156117f7576117f66111dc565b5b5f6118048a828b016113f1565b975050602088013567ffffffffffffffff811115611825576118246111e0565b5b6118318a828b0161152f565b96505060406118428a828b016113f1565b95505060606118538a828b016113f1565b94505060806118648a828b016111f3565b93505060a06118758a828b0161156b565b92505060c06118868a828b016113f1565b91505092959891949750929550565b7f4e487b71000000000000000000000000000000000000000000000000000000005f52601160045260245ffd5b5f6118cc826111a2565b91507fffffffffffffffffffffffffffffffffffffffffffffffffffffffffffffffff82036118fe576118fd611895565b5b600182019050919050565b7f4e487b71000000000000000000000000000000000000000000000000000000005f52602260045260245ffd5b5f600282049050600182168061194d57607f821691505b6020821081036119605761195f611909565b5b50919050565b5f819050815f5260205f209050919050565b5f6020601f8301049050919050565b5f82821b905092915050565b5f600883026119c27fffffffffffffffffffffffffffffffffffffffffffffffffffffffffffffffff82611987565b6119cc8683611987565b95508019841693508086168417925050509392505050565b5f819050919050565b5f611a07611a026119fd846111a2565b6119e4565b6111a2565b9050919050565b5f819050919050565b611a20836119ed565b611a34611a2c82611a0e565b848454611993565b825550505050565b5f90565b611a48611a3c565b611a53818484611a17565b505050565b5b81811015611a7657611a6b5f82611a40565b600181019050611a59565b5050565b601f821115611abb57611a8c81611966565b611a9584611978565b81016020851015611aa4578190505b611ab8611ab085611978565b830182611a58565b50505b505050565b5f82821c905092915050565b5f611adb5f1984600802611ac0565b1980831691505092915050565b5f611af38383611acc565b9150826002028217905092915050565b611b0c82611232565b67ffffffffffffffff811115611b2557611b24611438565b5b611b2f8254611936565b611b3a828285611a7a565b5f60209050601f831160018114611b6b575f8415611b59578287015190505b611b638582611ae8565b865550611bca565b601f198416611b7986611966565b5f5b82811015611ba057848901518255600182019150602085019450602081019050611b7b565b86831015611bbd5784890151611bb9601f891682611acc565b8355505b6001600288020188555050505b505050505050565b5f81549050611be081611936565b9050919050565b818103611bf5575050611cca565b611bfe82611bd2565b67ffffffffffffffff811115611c1757611c16611438565b5b611c218254611936565b611c2c828285611a7a565b5f601f831160018114611c59575f8415611c47578287015490505b611c518582611ae8565b865550611cc3565b601f198416611c6787611966565b9650611c7286611966565b5f5b82811015611c9957848901548255600182019150600185019450602081019050611c74565b86831015611cb65784890154611cb2601f891682611acc565b8355505b6001600288020188555050505b5050505050505b565b7f4e487b71000000000000000000000000000000000000000000000000000000005f52603260045260245ffdfea264697066735822122060e10ca4a103737819155c849a90ac4a15d604751556535ae80b7b13ca280b8264736f6c63430008150033",
					"opcodes": "PUSH1 0x80 PUSH1 0x40 MSTORE CALLVALUE DUP1 ISZERO PUSH2 0xF JUMPI PUSH0 DUP1 REVERT JUMPDEST POP PUSH2 0x1D2F DUP1 PUSH2 0x1D PUSH0 CODECOPY PUSH0 RETURN INVALID PUSH1 0x80 PUSH1 0x40 MSTORE CALLVALUE DUP1 ISZERO PUSH2 0xF JUMPI PUSH0 DUP1 REVERT JUMPDEST POP PUSH1 0x4 CALLDATASIZE LT PUSH2 0xB2 JUMPI PUSH0 CALLDATALOAD PUSH1 0xE0 SHR DUP1 PUSH4 0x8F88708B GT PUSH2 0x6F JUMPI DUP1 PUSH4 0x8F88708B EQ PUSH2 0x196 JUMPI DUP1 PUSH4 0x9205C66E EQ PUSH2 0x1CB JUMPI DUP1 PUSH4 0xCAF76ADB EQ PUSH2 0x200 JUMPI DUP1 PUSH4 0xCF25823A EQ PUSH2 0x21E JUMPI DUP1 PUSH4 0xD836E33C EQ PUSH2 0x23A JUMPI DUP1 PUSH4 0xFD75948D EQ PUSH2 0x258 JUMPI PUSH2 0xB2 JUMP JUMPDEST DUP1 PUSH4 0x76D6935 EQ PUSH2 0xB6 JUMPI DUP1 PUSH4 0xD541DC6 EQ PUSH2 0xD4 JUMPI DUP1 PUSH4 0x224E760C EQ PUSH2 0xF2 JUMPI DUP1 PUSH4 0x712781F5 EQ PUSH2 0x122 JUMPI DUP1 PUSH4 0x71E5EE5F EQ PUSH2 0x145 JUMPI DUP1 PUSH4 0x743E8701 EQ PUSH2 0x17A JUMPI JUMPDEST PUSH0 DUP1 REVERT JUMPDEST PUSH2 0xBE PUSH2 0x276 JUMP JUMPDEST PUSH1 0x40 MLOAD PUSH2 0xCB SWAP2 SWAP1 PUSH2 0x11BA JUMP JUMPDEST PUSH1 0x40 MLOAD DUP1 SWAP2 SUB SWAP1 RETURN JUMPDEST PUSH2 0xDC PUSH2 0x27C JUMP JUMPDEST PUSH1 0x40 MLOAD PUSH2 0xE9 SWAP2 SWAP1 PUSH2 0x11BA JUMP JUMPDEST PUSH1 0x40 MLOAD DUP1 SWAP2 SUB SWAP1 RETURN JUMPDEST PUSH2 0x10C PUSH1 0x4 DUP1 CALLDATASIZE SUB DUP2 ADD SWAP1 PUSH2 0x107 SWAP2 SWAP1 PUSH2 0x1207 JUMP JUMPDEST PUSH2 0x282 JUMP JUMPDEST PUSH1 0x40 MLOAD PUSH2 0x119 SWAP2 SWAP1 PUSH2 0x11BA JUMP JUMPDEST PUSH1 0x40 MLOAD DUP1 SWAP2 SUB SWAP1 RETURN JUMPDEST PUSH2 0x12A PUSH2 0x3B4 JUMP JUMPDEST PUSH1 0x40 MLOAD PUSH2 0x13C SWAP7 SWAP6 SWAP5 SWAP4 SWAP3 SWAP2 SWAP1 PUSH2 0x1375 JUMP JUMPDEST PUSH1 0x40 MLOAD DUP1 SWAP2 SUB SWAP1 RETURN JUMPDEST PUSH2 0x15F PUSH1 0x4 DUP1 CALLDATASIZE SUB DUP2 ADD SWAP1 PUSH2 0x15A SWAP2 SWAP1 PUSH2 0x1405 JUMP JUMPDEST PUSH2 0x47C JUMP JUMPDEST PUSH1 0x40 MLOAD PUSH2 0x171 SWAP7 SWAP6 SWAP5 SWAP4 SWAP3 SWAP2 SWAP1 PUSH2 0x1375 JUMP JUMPDEST PUSH1 0x40 MLOAD DUP1 SWAP2 SUB SWAP1 RETURN JUMPDEST PUSH2 0x194 PUSH1 0x4 DUP1 CALLDATASIZE SUB DUP2 ADD SWAP1 PUSH2 0x18F SWAP2 SWAP1 PUSH2 0x157F JUMP JUMPDEST PUSH2 0x562 JUMP JUMPDEST STOP JUMPDEST PUSH2 0x1B0 PUSH1 0x4 DUP1 CALLDATASIZE SUB DUP2 ADD SWAP1 PUSH2 0x1AB SWAP2 SWAP1 PUSH2 0x1405 JUMP JUMPDEST PUSH2 0x6C2 JUMP JUMPDEST PUSH1 0x40 MLOAD PUSH2 0x1C2 SWAP7 SWAP6 SWAP5 SWAP4 SWAP3 SWAP2 SWAP1 PUSH2 0x1375 JUMP JUMPDEST PUSH1 0x40 MLOAD DUP1 SWAP2 SUB SWAP1 RETURN JUMPDEST PUSH2 0x1E5 PUSH1 0x4 DUP1 CALLDATASIZE SUB DUP2 ADD SWAP1 PUSH2 0x1E0 SWAP2 SWAP1 PUSH2 0x1405 JUMP JUMPDEST PUSH2 0x7B1 JUMP JUMPDEST PUSH1 0x40 MLOAD PUSH2 0x1F7 SWAP7 SWAP6 SWAP5 SWAP4 SWAP3 SWAP2 SWAP1 PUSH2 0x1375 JUMP JUMPDEST PUSH1 0x40 MLOAD DUP1 SWAP2 SUB SWAP1 RETURN JUMPDEST PUSH2 0x208 PUSH2 0x887 JUMP JUMPDEST PUSH1 0x40 MLOAD PUSH2 0x215 SWAP2 SWAP1 PUSH2 0x17BC JUMP JUMPDEST PUSH1 0x40 MLOAD DUP1 SWAP2 SUB SWAP1 RETURN JUMPDEST PUSH2 0x238 PUSH1 0x4 DUP1 CALLDATASIZE SUB DUP2 ADD SWAP1 PUSH2 0x233 SWAP2 SWAP1 PUSH2 0x17DC JUMP JUMPDEST PUSH2 0xE5A JUMP JUMPDEST STOP JUMPDEST PUSH2 0x242 PUSH2 0x1114 JUMP JUMPDEST PUSH1 0x40 MLOAD PUSH2 0x24F SWAP2 SWAP1 PUSH2 0x11BA JUMP JUMPDEST PUSH1 0x40 MLOAD DUP1 SWAP2 SUB SWAP1 RETURN JUMPDEST PUSH2 0x260 PUSH2 0x111A JUMP JUMPDEST PUSH1 0x40 MLOAD PUSH2 0x26D SWAP2 SWAP1 PUSH2 0x11BA JUMP JUMPDEST PUSH1 0x40 MLOAD DUP1 SWAP2 SUB SWAP1 RETURN JUMPDEST PUSH1 0x7 SLOAD DUP2 JUMP JUMPDEST PUSH1 0xA SLOAD DUP2 JUMP JUMPDEST PUSH0 DUP1 PUSH0 SWAP1 POP JUMPDEST PUSH1 0x1 DUP1 SLOAD SWAP1 POP DUP2 LT ISZERO PUSH2 0x399 JUMPI PUSH0 PUSH1 0x3 DUP2 GT ISZERO PUSH2 0x2A8 JUMPI PUSH2 0x2A7 PUSH2 0x12BC JUMP JUMPDEST JUMPDEST DUP4 PUSH1 0x3 DUP2 GT ISZERO PUSH2 0x2BB JUMPI PUSH2 0x2BA PUSH2 0x12BC JUMP JUMPDEST JUMPDEST SUB PUSH2 0x2DC JUMPI PUSH1 0x7 PUSH0 DUP2 SLOAD DUP1 SWAP3 SWAP2 SWAP1 PUSH2 0x2D2 SWAP1 PUSH2 0x18C2 JUMP JUMPDEST SWAP2 SWAP1 POP SSTORE POP PUSH2 0x386 JUMP JUMPDEST PUSH1 0x1 PUSH1 0x3 DUP2 GT ISZERO PUSH2 0x2F0 JUMPI PUSH2 0x2EF PUSH2 0x12BC JUMP JUMPDEST JUMPDEST DUP4 PUSH1 0x3 DUP2 GT ISZERO PUSH2 0x303 JUMPI PUSH2 0x302 PUSH2 0x12BC JUMP JUMPDEST JUMPDEST SUB PUSH2 0x324 JUMPI PUSH1 0x8 PUSH0 DUP2 SLOAD DUP1 SWAP3 SWAP2 SWAP1 PUSH2 0x31A SWAP1 PUSH2 0x18C2 JUMP JUMPDEST SWAP2 SWAP1 POP SSTORE POP PUSH2 0x385 JUMP JUMPDEST PUSH1 0x2 PUSH1 0x3 DUP2 GT ISZERO PUSH2 0x338 JUMPI PUSH2 0x337 PUSH2 0x12BC JUMP JUMPDEST JUMPDEST DUP4 PUSH1 0x3 DUP2 GT ISZERO PUSH2 0x34B JUMPI PUSH2 0x34A PUSH2 0x12BC JUMP JUMPDEST JUMPDEST SUB PUSH2 0x36C JUMPI PUSH1 0x9 PUSH0 DUP2 SLOAD DUP1 SWAP3 SWAP2 SWAP1 PUSH2 0x362 SWAP1 PUSH2 0x18C2 JUMP JUMPDEST SWAP2 SWAP1 POP SSTORE POP PUSH2 0x384 JUMP JUMPDEST PUSH1 0xA PUSH0 DUP2 SLOAD DUP1 SWAP3 SWAP2 SWAP1 PUSH2 0x37E SWAP1 PUSH2 0x18C2 JUMP JUMPDEST SWAP2 SWAP1 POP SSTORE POP JUMPDEST JUMPDEST JUMPDEST DUP1 DUP1 PUSH2 0x391 SWAP1 PUSH2 0x18C2 JUMP JUMPDEST SWAP2 POP POP PUSH2 0x288 JUMP JUMPDEST POP DUP2 PUSH1 0x3 DUP2 GT ISZERO PUSH2 0x3AD JUMPI PUSH2 0x3AC PUSH2 0x12BC JUMP JUMPDEST JUMPDEST SWAP1 POP SWAP2 SWAP1 POP JUMP JUMPDEST PUSH1 0x2 DUP1 PUSH0 ADD DUP1 SLOAD PUSH2 0x3C4 SWAP1 PUSH2 0x1936 JUMP JUMPDEST DUP1 PUSH1 0x1F ADD PUSH1 0x20 DUP1 SWAP2 DIV MUL PUSH1 0x20 ADD PUSH1 0x40 MLOAD SWAP1 DUP2 ADD PUSH1 0x40 MSTORE DUP1 SWAP3 SWAP2 SWAP1 DUP2 DUP2 MSTORE PUSH1 0x20 ADD DUP3 DUP1 SLOAD PUSH2 0x3F0 SWAP1 PUSH2 0x1936 JUMP JUMPDEST DUP1 ISZERO PUSH2 0x43B JUMPI DUP1 PUSH1 0x1F LT PUSH2 0x412 JUMPI PUSH2 0x100 DUP1 DUP4 SLOAD DIV MUL DUP4 MSTORE SWAP2 PUSH1 0x20 ADD SWAP2 PUSH2 0x43B JUMP JUMPDEST DUP3 ADD SWAP2 SWAP1 PUSH0 MSTORE PUSH1 0x20 PUSH0 KECCAK256 SWAP1 JUMPDEST DUP2 SLOAD DUP2 MSTORE SWAP1 PUSH1 0x1 ADD SWAP1 PUSH1 0x20 ADD DUP1 DUP4 GT PUSH2 0x41E JUMPI DUP3 SWAP1 SUB PUSH1 0x1F AND DUP3 ADD SWAP2 JUMPDEST POP POP POP POP POP SWAP1 DUP1 PUSH1 0x1 ADD SLOAD SWAP1 DUP1 PUSH1 0x2 ADD SLOAD SWAP1 DUP1 PUSH1 0x3 ADD PUSH0 SWAP1 SLOAD SWAP1 PUSH2 0x100 EXP SWAP1 DIV PUSH1 0xFF AND SWAP1 DUP1 PUSH1 0x3 ADD PUSH1 0x1 SWAP1 SLOAD SWAP1 PUSH2 0x100 EXP SWAP1 DIV PUSH1 0xFF AND SWAP1 DUP1 PUSH1 0x4 ADD SLOAD SWAP1 POP DUP7 JUMP JUMPDEST PUSH1 0x1 DUP2 DUP2 SLOAD DUP2 LT PUSH2 0x48B JUMPI PUSH0 DUP1 REVERT JUMPDEST SWAP1 PUSH0 MSTORE PUSH1 0x20 PUSH0 KECCAK256 SWAP1 PUSH1 0x5 MUL ADD PUSH0 SWAP2 POP SWAP1 POP DUP1 PUSH0 ADD DUP1 SLOAD PUSH2 0x4AA SWAP1 PUSH2 0x1936 JUMP JUMPDEST DUP1 PUSH1 0x1F ADD PUSH1 0x20 DUP1 SWAP2 DIV MUL PUSH1 0x20 ADD PUSH1 0x40 MLOAD SWAP1 DUP2 ADD PUSH1 0x40 MSTORE DUP1 SWAP3 SWAP2 SWAP1 DUP2 DUP2 MSTORE PUSH1 0x20 ADD DUP3 DUP1 SLOAD PUSH2 0x4D6 SWAP1 PUSH2 0x1936 JUMP JUMPDEST DUP1 ISZERO PUSH2 0x521 JUMPI DUP1 PUSH1 0x1F LT PUSH2 0x4F8 JUMPI PUSH2 0x100 DUP1 DUP4 SLOAD DIV MUL DUP4 MSTORE SWAP2 PUSH1 0x20 ADD SWAP2 PUSH2 0x521 JUMP JUMPDEST DUP3 ADD SWAP2 SWAP1 PUSH0 MSTORE PUSH1 0x20 PUSH0 KECCAK256 SWAP1 JUMPDEST DUP2 SLOAD DUP2 MSTORE SWAP1 PUSH1 0x1 ADD SWAP1 PUSH1 0x20 ADD DUP1 DUP4 GT PUSH2 0x504 JUMPI DUP3 SWAP1 SUB PUSH1 0x1F AND DUP3 ADD SWAP2 JUMPDEST POP POP POP POP POP SWAP1 DUP1 PUSH1 0x1 ADD SLOAD SWAP1 DUP1 PUSH1 0x2 ADD SLOAD SWAP1 DUP1 PUSH1 0x3 ADD PUSH0 SWAP1 SLOAD SWAP1 PUSH2 0x100 EXP SWAP1 DIV PUSH1 0xFF AND SWAP1 DUP1 PUSH1 0x3 ADD PUSH1 0x1 SWAP1 SLOAD SWAP1 PUSH2 0x100 EXP SWAP1 DIV PUSH1 0xFF AND SWAP1 DUP1 PUSH1 0x4 ADD SLOAD SWAP1 POP DUP7 JUMP JUMPDEST PUSH0 DUP1 PUSH0 DUP8 DUP2 MSTORE PUSH1 0x20 ADD SWAP1 DUP2 MSTORE PUSH1 0x20 ADD PUSH0 KECCAK256 SWAP1 POP DUP5 DUP2 PUSH0 ADD SWAP1 DUP2 PUSH2 0x585 SWAP2 SWAP1 PUSH2 0x1B03 JUMP JUMPDEST POP DUP4 DUP2 PUSH1 0x1 ADD DUP2 SWAP1 SSTORE POP DUP3 DUP2 PUSH1 0x3 ADD PUSH0 PUSH2 0x100 EXP DUP2 SLOAD DUP2 PUSH1 0xFF MUL NOT AND SWAP1 DUP4 PUSH1 0x3 DUP2 GT ISZERO PUSH2 0x5B5 JUMPI PUSH2 0x5B4 PUSH2 0x12BC JUMP JUMPDEST JUMPDEST MUL OR SWAP1 SSTORE POP DUP2 DUP2 PUSH1 0x3 ADD PUSH1 0x1 PUSH2 0x100 EXP DUP2 SLOAD DUP2 PUSH1 0xFF MUL NOT AND SWAP1 DUP4 PUSH1 0x3 DUP2 GT ISZERO PUSH2 0x5E1 JUMPI PUSH2 0x5E0 PUSH2 0x12BC JUMP JUMPDEST JUMPDEST MUL OR SWAP1 SSTORE POP PUSH1 0x1 DUP2 SWAP1 DUP1 PUSH1 0x1 DUP2 SLOAD ADD DUP1 DUP3 SSTORE DUP1 SWAP2 POP POP PUSH1 0x1 SWAP1 SUB SWAP1 PUSH0 MSTORE PUSH1 0x20 PUSH0 KECCAK256 SWAP1 PUSH1 0x5 MUL ADD PUSH0 SWAP1 SWAP2 SWAP1 SWAP2 SWAP1 SWAP2 POP PUSH0 DUP3 ADD DUP2 PUSH0 ADD SWAP1 DUP2 PUSH2 0x621 SWAP2 SWAP1 PUSH2 0x1BE7 JUMP JUMPDEST POP PUSH1 0x1 DUP3 ADD SLOAD DUP2 PUSH1 0x1 ADD SSTORE PUSH1 0x2 DUP3 ADD SLOAD DUP2 PUSH1 0x2 ADD SSTORE PUSH1 0x3 DUP3 ADD PUSH0 SWAP1 SLOAD SWAP1 PUSH2 0x100 EXP SWAP1 DIV PUSH1 0xFF AND DUP2 PUSH1 0x3 ADD PUSH0 PUSH2 0x100 EXP DUP2 SLOAD DUP2 PUSH1 0xFF MUL NOT AND SWAP1 DUP4 PUSH1 0x3 DUP2 GT ISZERO PUSH2 0x66C JUMPI PUSH2 0x66B PUSH2 0x12BC JUMP JUMPDEST JUMPDEST MUL OR SWAP1 SSTORE POP PUSH1 0x3 DUP3 ADD PUSH1 0x1 SWAP1 SLOAD SWAP1 PUSH2 0x100 EXP SWAP1 DIV PUSH1 0xFF AND DUP2 PUSH1 0x3 ADD PUSH1 0x1 PUSH2 0x100 EXP DUP2 SLOAD DUP2 PUSH1 0xFF MUL NOT AND SWAP1 DUP4 PUSH1 0x3 DUP2 GT ISZERO PUSH2 0x6A9 JUMPI PUSH2 0x6A8 PUSH2 0x12BC JUMP JUMPDEST JUMPDEST MUL OR SWAP1 SSTORE POP PUSH1 0x4 DUP3 ADD SLOAD DUP2 PUSH1 0x4 ADD SSTORE POP POP POP POP POP POP POP POP JUMP JUMPDEST PUSH1 0x60 PUSH0 DUP1 PUSH0 DUP1 PUSH0 DUP1 PUSH0 DUP1 DUP10 DUP2 MSTORE PUSH1 0x20 ADD SWAP1 DUP2 MSTORE PUSH1 0x20 ADD PUSH0 KECCAK256 SWAP1 POP DUP1 PUSH0 ADD DUP2 PUSH1 0x1 ADD SLOAD DUP3 PUSH1 0x2 ADD SLOAD DUP4 PUSH1 0x3 ADD PUSH0 SWAP1 SLOAD SWAP1 PUSH2 0x100 EXP SWAP1 DIV PUSH1 0xFF AND DUP5 PUSH1 0x3 ADD PUSH1 0x1 SWAP1 SLOAD SWAP1 PUSH2 0x100 EXP SWAP1 DIV PUSH1 0xFF AND DUP6 PUSH1 0x4 ADD SLOAD DUP6 DUP1 SLOAD PUSH2 0x71D SWAP1 PUSH2 0x1936 JUMP JUMPDEST DUP1 PUSH1 0x1F ADD PUSH1 0x20 DUP1 SWAP2 DIV MUL PUSH1 0x20 ADD PUSH1 0x40 MLOAD SWAP1 DUP2 ADD PUSH1 0x40 MSTORE DUP1 SWAP3 SWAP2 SWAP1 DUP2 DUP2 MSTORE PUSH1 0x20 ADD DUP3 DUP1 SLOAD PUSH2 0x749 SWAP1 PUSH2 0x1936 JUMP JUMPDEST DUP1 ISZERO PUSH2 0x794 JUMPI DUP1 PUSH1 0x1F LT PUSH2 0x76B JUMPI PUSH2 0x100 DUP1 DUP4 SLOAD DIV MUL DUP4 MSTORE SWAP2 PUSH1 0x20 ADD SWAP2 PUSH2 0x794 JUMP JUMPDEST DUP3 ADD SWAP2 SWAP1 PUSH0 MSTORE PUSH1 0x20 PUSH0 KECCAK256 SWAP1 JUMPDEST DUP2 SLOAD DUP2 MSTORE SWAP1 PUSH1 0x1 ADD SWAP1 PUSH1 0x20 ADD DUP1 DUP4 GT PUSH2 0x777 JUMPI DUP3 SWAP1 SUB PUSH1 0x1F AND DUP3 ADD SWAP2 JUMPDEST POP POP POP POP POP SWAP6 POP SWAP7 POP SWAP7 POP SWAP7 POP SWAP7 POP SWAP7 POP SWAP7 POP POP SWAP2 SWAP4 SWAP6 POP SWAP2 SWAP4 SWAP6 JUMP JUMPDEST PUSH0 PUSH1 0x20 MSTORE DUP1 PUSH0 MSTORE PUSH1 0x40 PUSH0 KECCAK256 PUSH0 SWAP2 POP SWAP1 POP DUP1 PUSH0 ADD DUP1 SLOAD PUSH2 0x7CF SWAP1 PUSH2 0x1936 JUMP JUMPDEST DUP1 PUSH1 0x1F ADD PUSH1 0x20 DUP1 SWAP2 DIV MUL PUSH1 0x20 ADD PUSH1 0x40 MLOAD SWAP1 DUP2 ADD PUSH1 0x40 MSTORE DUP1 SWAP3 SWAP2 SWAP1 DUP2 DUP2 MSTORE PUSH1 0x20 ADD DUP3 DUP1 SLOAD PUSH2 0x7FB SWAP1 PUSH2 0x1936 JUMP JUMPDEST DUP1 ISZERO PUSH2 0x846 JUMPI DUP1 PUSH1 0x1F LT PUSH2 0x81D JUMPI PUSH2 0x100 DUP1 DUP4 SLOAD DIV MUL DUP4 MSTORE SWAP2 PUSH1 0x20 ADD SWAP2 PUSH2 0x846 JUMP JUMPDEST DUP3 ADD SWAP2 SWAP1 PUSH0 MSTORE PUSH1 0x20 PUSH0 KECCAK256 SWAP1 JUMPDEST DUP2 SLOAD DUP2 MSTORE SWAP1 PUSH1 0x1 ADD SWAP1 PUSH1 0x20 ADD DUP1 DUP4 GT PUSH2 0x829 JUMPI DUP3 SWAP1 SUB PUSH1 0x1F AND DUP3 ADD SWAP2 JUMPDEST POP POP POP POP POP SWAP1 DUP1 PUSH1 0x1 ADD SLOAD SWAP1 DUP1 PUSH1 0x2 ADD SLOAD SWAP1 DUP1 PUSH1 0x3 ADD PUSH0 SWAP1 SLOAD SWAP1 PUSH2 0x100 EXP SWAP1 DIV PUSH1 0xFF AND SWAP1 DUP1 PUSH1 0x3 ADD PUSH1 0x1 SWAP1 SLOAD SWAP1 PUSH2 0x100 EXP SWAP1 DIV PUSH1 0xFF AND SWAP1 DUP1 PUSH1 0x4 ADD SLOAD SWAP1 POP DUP7 JUMP JUMPDEST PUSH2 0x88F PUSH2 0x1120 JUMP JUMPDEST PUSH2 0x897 PUSH2 0x1120 JUMP JUMPDEST PUSH0 DUP1 PUSH0 DUP1 JUMPDEST PUSH1 0x1 DUP1 SLOAD SWAP1 POP DUP2 LT ISZERO PUSH2 0xE4F JUMPI PUSH1 0x1 PUSH1 0x3 DUP2 GT ISZERO PUSH2 0x8BD JUMPI PUSH2 0x8BC PUSH2 0x12BC JUMP JUMPDEST JUMPDEST PUSH1 0x1 DUP3 DUP2 SLOAD DUP2 LT PUSH2 0x8D1 JUMPI PUSH2 0x8D0 PUSH2 0x1CCC JUMP JUMPDEST JUMPDEST SWAP1 PUSH0 MSTORE PUSH1 0x20 PUSH0 KECCAK256 SWAP1 PUSH1 0x5 MUL ADD PUSH1 0x3 ADD PUSH0 SWAP1 SLOAD SWAP1 PUSH2 0x100 EXP SWAP1 DIV PUSH1 0xFF AND PUSH1 0x3 DUP2 GT ISZERO PUSH2 0x8FF JUMPI PUSH2 0x8FE PUSH2 0x12BC JUMP JUMPDEST JUMPDEST SUB PUSH2 0xE3C JUMPI PUSH0 PUSH1 0x1 DUP3 DUP2 SLOAD DUP2 LT PUSH2 0x919 JUMPI PUSH2 0x918 PUSH2 0x1CCC JUMP JUMPDEST JUMPDEST SWAP1 PUSH0 MSTORE PUSH1 0x20 PUSH0 KECCAK256 SWAP1 PUSH1 0x5 MUL ADD PUSH1 0x4 ADD SLOAD SWAP1 POP DUP5 DUP2 GT ISZERO PUSH2 0xB12 JUMPI DUP4 SWAP3 POP DUP5 SWAP4 POP DUP1 SWAP5 POP DUP6 PUSH1 0x1 PUSH1 0x3 DUP2 LT PUSH2 0x950 JUMPI PUSH2 0x94F PUSH2 0x1CCC JUMP JUMPDEST JUMPDEST PUSH1 0x20 MUL ADD MLOAD DUP7 PUSH1 0x2 PUSH1 0x3 DUP2 LT PUSH2 0x969 JUMPI PUSH2 0x968 PUSH2 0x1CCC JUMP JUMPDEST JUMPDEST PUSH1 0x20 MUL ADD DUP2 SWAP1 MSTORE POP DUP6 PUSH0 PUSH1 0x3 DUP2 LT PUSH2 0x984 JUMPI PUSH2 0x983 PUSH2 0x1CCC JUMP JUMPDEST JUMPDEST PUSH1 0x20 MUL ADD MLOAD DUP7 PUSH1 0x1 PUSH1 0x3 DUP2 LT PUSH2 0x99D JUMPI PUSH2 0x99C PUSH2 0x1CCC JUMP JUMPDEST JUMPDEST PUSH1 0x20 MUL ADD DUP2 SWAP1 MSTORE POP PUSH1 0x1 DUP3 DUP2 SLOAD DUP2 LT PUSH2 0x9B9 JUMPI PUSH2 0x9B8 PUSH2 0x1CCC JUMP JUMPDEST JUMPDEST SWAP1 PUSH0 MSTORE PUSH1 0x20 PUSH0 KECCAK256 SWAP1 PUSH1 0x5 MUL ADD PUSH1 0x40 MLOAD DUP1 PUSH1 0xC0 ADD PUSH1 0x40 MSTORE SWAP1 DUP2 PUSH0 DUP3 ADD DUP1 SLOAD PUSH2 0x9DF SWAP1 PUSH2 0x1936 JUMP JUMPDEST DUP1 PUSH1 0x1F ADD PUSH1 0x20 DUP1 SWAP2 DIV MUL PUSH1 0x20 ADD PUSH1 0x40 MLOAD SWAP1 DUP2 ADD PUSH1 0x40 MSTORE DUP1 SWAP3 SWAP2 SWAP1 DUP2 DUP2 MSTORE PUSH1 0x20 ADD DUP3 DUP1 SLOAD PUSH2 0xA0B SWAP1 PUSH2 0x1936 JUMP JUMPDEST DUP1 ISZERO PUSH2 0xA56 JUMPI DUP1 PUSH1 0x1F LT PUSH2 0xA2D JUMPI PUSH2 0x100 DUP1 DUP4 SLOAD DIV MUL DUP4 MSTORE SWAP2 PUSH1 0x20 ADD SWAP2 PUSH2 0xA56 JUMP JUMPDEST DUP3 ADD SWAP2 SWAP1 PUSH0 MSTORE PUSH1 0x20 PUSH0 KECCAK256 SWAP1 JUMPDEST DUP2 SLOAD DUP2 MSTORE SWAP1 PUSH1 0x1 ADD SWAP1 PUSH1 0x20 ADD DUP1 DUP4 GT PUSH2 0xA39 JUMPI DUP3 SWAP1 SUB PUSH1 0x1F AND DUP3 ADD SWAP2 JUMPDEST POP POP POP POP POP DUP2 MSTORE PUSH1 0x20 ADD PUSH1 0x1 DUP3 ADD SLOAD DUP2 MSTORE PUSH1 0x20 ADD PUSH1 0x2 DUP3 ADD SLOAD DUP2 MSTORE PUSH1 0x20 ADD PUSH1 0x3 DUP3 ADD PUSH0 SWAP1 SLOAD SWAP1 PUSH2 0x100 EXP SWAP1 DIV PUSH1 0xFF AND PUSH1 0x3 DUP2 GT ISZERO PUSH2 0xA97 JUMPI PUSH2 0xA96 PUSH2 0x12BC JUMP JUMPDEST JUMPDEST PUSH1 0x3 DUP2 GT ISZERO PUSH2 0xAA9 JUMPI PUSH2 0xAA8 PUSH2 0x12BC JUMP JUMPDEST JUMPDEST DUP2 MSTORE PUSH1 0x20 ADD PUSH1 0x3 DUP3 ADD PUSH1 0x1 SWAP1 SLOAD SWAP1 PUSH2 0x100 EXP SWAP1 DIV PUSH1 0xFF AND PUSH1 0x3 DUP2 GT ISZERO PUSH2 0xAD2 JUMPI PUSH2 0xAD1 PUSH2 0x12BC JUMP JUMPDEST JUMPDEST PUSH1 0x3 DUP2 GT ISZERO PUSH2 0xAE4 JUMPI PUSH2 0xAE3 PUSH2 0x12BC JUMP JUMPDEST JUMPDEST DUP2 MSTORE PUSH1 0x20 ADD PUSH1 0x4 DUP3 ADD SLOAD DUP2 MSTORE POP POP DUP7 PUSH0 PUSH1 0x3 DUP2 LT PUSH2 0xB05 JUMPI PUSH2 0xB04 PUSH2 0x1CCC JUMP JUMPDEST JUMPDEST PUSH1 0x20 MUL ADD DUP2 SWAP1 MSTORE POP PUSH2 0xE3A JUMP JUMPDEST DUP4 DUP2 GT ISZERO PUSH2 0xCC3 JUMPI DUP4 SWAP3 POP DUP1 SWAP4 POP DUP6 PUSH1 0x1 PUSH1 0x3 DUP2 LT PUSH2 0xB34 JUMPI PUSH2 0xB33 PUSH2 0x1CCC JUMP JUMPDEST JUMPDEST PUSH1 0x20 MUL ADD MLOAD DUP7 PUSH1 0x2 PUSH1 0x3 DUP2 LT PUSH2 0xB4D JUMPI PUSH2 0xB4C PUSH2 0x1CCC JUMP JUMPDEST JUMPDEST PUSH1 0x20 MUL ADD DUP2 SWAP1 MSTORE POP PUSH1 0x1 DUP3 DUP2 SLOAD DUP2 LT PUSH2 0xB69 JUMPI PUSH2 0xB68 PUSH2 0x1CCC JUMP JUMPDEST JUMPDEST SWAP1 PUSH0 MSTORE PUSH1 0x20 PUSH0 KECCAK256 SWAP1 PUSH1 0x5 MUL ADD PUSH1 0x40 MLOAD DUP1 PUSH1 0xC0 ADD PUSH1 0x40 MSTORE SWAP1 DUP2 PUSH0 DUP3 ADD DUP1 SLOAD PUSH2 0xB8F SWAP1 PUSH2 0x1936 JUMP JUMPDEST DUP1 PUSH1 0x1F ADD PUSH1 0x20 DUP1 SWAP2 DIV MUL PUSH1 0x20 ADD PUSH1 0x40 MLOAD SWAP1 DUP2 ADD PUSH1 0x40 MSTORE DUP1 SWAP3 SWAP2 SWAP1 DUP2 DUP2 MSTORE PUSH1 0x20 ADD DUP3 DUP1 SLOAD PUSH2 0xBBB SWAP1 PUSH2 0x1936 JUMP JUMPDEST DUP1 ISZERO PUSH2 0xC06 JUMPI DUP1 PUSH1 0x1F LT PUSH2 0xBDD JUMPI PUSH2 0x100 DUP1 DUP4 SLOAD DIV MUL DUP4 MSTORE SWAP2 PUSH1 0x20 ADD SWAP2 PUSH2 0xC06 JUMP JUMPDEST DUP3 ADD SWAP2 SWAP1 PUSH0 MSTORE PUSH1 0x20 PUSH0 KECCAK256 SWAP1 JUMPDEST DUP2 SLOAD DUP2 MSTORE SWAP1 PUSH1 0x1 ADD SWAP1 PUSH1 0x20 ADD DUP1 DUP4 GT PUSH2 0xBE9 JUMPI DUP3 SWAP1 SUB PUSH1 0x1F AND DUP3 ADD SWAP2 JUMPDEST POP POP POP POP POP DUP2 MSTORE PUSH1 0x20 ADD PUSH1 0x1 DUP3 ADD SLOAD DUP2 MSTORE PUSH1 0x20 ADD PUSH1 0x2 DUP3 ADD SLOAD DUP2 MSTORE PUSH1 0x20 ADD PUSH1 0x3 DUP3 ADD PUSH0 SWAP1 SLOAD SWAP1 PUSH2 0x100 EXP SWAP1 DIV PUSH1 0xFF AND PUSH1 0x3 DUP2 GT ISZERO PUSH2 0xC47 JUMPI PUSH2 0xC46 PUSH2 0x12BC JUMP JUMPDEST JUMPDEST PUSH1 0x3 DUP2 GT ISZERO PUSH2 0xC59 JUMPI PUSH2 0xC58 PUSH2 0x12BC JUMP JUMPDEST JUMPDEST DUP2 MSTORE PUSH1 0x20 ADD PUSH1 0x3 DUP3 ADD PUSH1 0x1 SWAP1 SLOAD SWAP1 PUSH2 0x100 EXP SWAP1 DIV PUSH1 0xFF AND PUSH1 0x3 DUP2 GT ISZERO PUSH2 0xC82 JUMPI PUSH2 0xC81 PUSH2 0x12BC JUMP JUMPDEST JUMPDEST PUSH1 0x3 DUP2 GT ISZERO PUSH2 0xC94 JUMPI PUSH2 0xC93 PUSH2 0x12BC JUMP JUMPDEST JUMPDEST DUP2 MSTORE PUSH1 0x20 ADD PUSH1 0x4 DUP3 ADD SLOAD DUP2 MSTORE POP POP DUP7 PUSH1 0x1 PUSH1 0x3 DUP2 LT PUSH2 0xCB6 JUMPI PUSH2 0xCB5 PUSH2 0x1CCC JUMP JUMPDEST JUMPDEST PUSH1 0x20 MUL ADD DUP2 SWAP1 MSTORE POP PUSH2 0xE39 JUMP JUMPDEST DUP3 DUP2 GT ISZERO PUSH2 0xE38 JUMPI DUP1 SWAP3 POP PUSH1 0x1 DUP3 DUP2 SLOAD DUP2 LT PUSH2 0xCE2 JUMPI PUSH2 0xCE1 PUSH2 0x1CCC JUMP JUMPDEST JUMPDEST SWAP1 PUSH0 MSTORE PUSH1 0x20 PUSH0 KECCAK256 SWAP1 PUSH1 0x5 MUL ADD PUSH1 0x40 MLOAD DUP1 PUSH1 0xC0 ADD PUSH1 0x40 MSTORE SWAP1 DUP2 PUSH0 DUP3 ADD DUP1 SLOAD PUSH2 0xD08 SWAP1 PUSH2 0x1936 JUMP JUMPDEST DUP1 PUSH1 0x1F ADD PUSH1 0x20 DUP1 SWAP2 DIV MUL PUSH1 0x20 ADD PUSH1 0x40 MLOAD SWAP1 DUP2 ADD PUSH1 0x40 MSTORE DUP1 SWAP3 SWAP2 SWAP1 DUP2 DUP2 MSTORE PUSH1 0x20 ADD DUP3 DUP1 SLOAD PUSH2 0xD34 SWAP1 PUSH2 0x1936 JUMP JUMPDEST DUP1 ISZERO PUSH2 0xD7F JUMPI DUP1 PUSH1 0x1F LT PUSH2 0xD56 JUMPI PUSH2 0x100 DUP1 DUP4 SLOAD DIV MUL DUP4 MSTORE SWAP2 PUSH1 0x20 ADD SWAP2 PUSH2 0xD7F JUMP JUMPDEST DUP3 ADD SWAP2 SWAP1 PUSH0 MSTORE PUSH1 0x20 PUSH0 KECCAK256 SWAP1 JUMPDEST DUP2 SLOAD DUP2 MSTORE SWAP1 PUSH1 0x1 ADD SWAP1 PUSH1 0x20 ADD DUP1 DUP4 GT PUSH2 0xD62 JUMPI DUP3 SWAP1 SUB PUSH1 0x1F AND DUP3 ADD SWAP2 JUMPDEST POP POP POP POP POP DUP2 MSTORE PUSH1 0x20 ADD PUSH1 0x1 DUP3 ADD SLOAD DUP2 MSTORE PUSH1 0x20 ADD PUSH1 0x2 DUP3 ADD SLOAD DUP2 MSTORE PUSH1 0x20 ADD PUSH1 0x3 DUP3 ADD PUSH0 SWAP1 SLOAD SWAP1 PUSH2 0x100 EXP SWAP1 DIV PUSH1 0xFF AND PUSH1 0x3 DUP2 GT ISZERO PUSH2 0xDC0 JUMPI PUSH2 0xDBF PUSH2 0x12BC JUMP JUMPDEST JUMPDEST PUSH1 0x3 DUP2 GT ISZERO PUSH2 0xDD2 JUMPI PUSH2 0xDD1 PUSH2 0x12BC JUMP JUMPDEST JUMPDEST DUP2 MSTORE PUSH1 0x20 ADD PUSH1 0x3 DUP3 ADD PUSH1 0x1 SWAP1 SLOAD SWAP1 PUSH2 0x100 EXP SWAP1 DIV PUSH1 0xFF AND PUSH1 0x3 DUP2 GT ISZERO PUSH2 0xDFB JUMPI PUSH2 0xDFA PUSH2 0x12BC JUMP JUMPDEST JUMPDEST PUSH1 0x3 DUP2 GT ISZERO PUSH2 0xE0D JUMPI PUSH2 0xE0C PUSH2 0x12BC JUMP JUMPDEST JUMPDEST DUP2 MSTORE PUSH1 0x20 ADD PUSH1 0x4 DUP3 ADD SLOAD DUP2 MSTORE POP POP DUP7 PUSH1 0x2 PUSH1 0x3 DUP2 LT PUSH2 0xE2F JUMPI PUSH2 0xE2E PUSH2 0x1CCC JUMP JUMPDEST JUMPDEST PUSH1 0x20 MUL ADD DUP2 SWAP1 MSTORE POP JUMPDEST JUMPDEST JUMPDEST POP JUMPDEST DUP1 DUP1 PUSH2 0xE47 SWAP1 PUSH2 0x18C2 JUMP JUMPDEST SWAP2 POP POP PUSH2 0x89C JUMP JUMPDEST POP DUP4 SWAP5 POP POP POP POP POP SWAP1 JUMP JUMPDEST PUSH1 0x1 PUSH1 0x3 DUP2 GT ISZERO PUSH2 0xE6E JUMPI PUSH2 0xE6D PUSH2 0x12BC JUMP JUMPDEST JUMPDEST DUP3 PUSH1 0x3 DUP2 GT ISZERO PUSH2 0xE81 JUMPI PUSH2 0xE80 PUSH2 0x12BC JUMP JUMPDEST JUMPDEST EQ DUP1 PUSH2 0xEB0 JUMPI POP PUSH1 0x3 DUP1 DUP2 GT ISZERO PUSH2 0xE9B JUMPI PUSH2 0xE9A PUSH2 0x12BC JUMP JUMPDEST JUMPDEST DUP3 PUSH1 0x3 DUP2 GT ISZERO PUSH2 0xEAE JUMPI PUSH2 0xEAD PUSH2 0x12BC JUMP JUMPDEST JUMPDEST EQ JUMPDEST ISZERO PUSH2 0xEB9 JUMPI PUSH0 SWAP1 POP JUMPDEST PUSH0 PUSH1 0x2 SWAP1 POP DUP7 DUP2 PUSH0 ADD SWAP1 DUP2 PUSH2 0xECE SWAP2 SWAP1 PUSH2 0x1B03 JUMP JUMPDEST POP DUP6 DUP2 PUSH1 0x1 ADD DUP2 SWAP1 SSTORE POP DUP5 DUP2 PUSH1 0x2 ADD DUP2 SWAP1 SSTORE POP DUP4 DUP2 PUSH1 0x3 ADD PUSH0 PUSH2 0x100 EXP DUP2 SLOAD DUP2 PUSH1 0xFF MUL NOT AND SWAP1 DUP4 PUSH1 0x3 DUP2 GT ISZERO PUSH2 0xF07 JUMPI PUSH2 0xF06 PUSH2 0x12BC JUMP JUMPDEST JUMPDEST MUL OR SWAP1 SSTORE POP DUP3 DUP2 PUSH1 0x3 ADD PUSH1 0x1 PUSH2 0x100 EXP DUP2 SLOAD DUP2 PUSH1 0xFF MUL NOT AND SWAP1 DUP4 PUSH1 0x3 DUP2 GT ISZERO PUSH2 0xF33 JUMPI PUSH2 0xF32 PUSH2 0x12BC JUMP JUMPDEST JUMPDEST MUL OR SWAP1 SSTORE POP DUP2 DUP2 PUSH1 0x4 ADD DUP2 SWAP1 SSTORE POP PUSH1 0x1 DUP2 SWAP1 DUP1 PUSH1 0x1 DUP2 SLOAD ADD DUP1 DUP3 SSTORE DUP1 SWAP2 POP POP PUSH1 0x1 SWAP1 SUB SWAP1 PUSH0 MSTORE PUSH1 0x20 PUSH0 KECCAK256 SWAP1 PUSH1 0x5 MUL ADD PUSH0 SWAP1 SWAP2 SWAP1 SWAP2 SWAP1 SWAP2 POP PUSH0 DUP3 ADD DUP2 PUSH0 ADD SWAP1 DUP2 PUSH2 0xF7C SWAP2 SWAP1 PUSH2 0x1BE7 JUMP JUMPDEST POP PUSH1 0x1 DUP3 ADD SLOAD DUP2 PUSH1 0x1 ADD SSTORE PUSH1 0x2 DUP3 ADD SLOAD DUP2 PUSH1 0x2 ADD SSTORE PUSH1 0x3 DUP3 ADD PUSH0 SWAP1 SLOAD SWAP1 PUSH2 0x100 EXP SWAP1 DIV PUSH1 0xFF AND DUP2 PUSH1 0x3 ADD PUSH0 PUSH2 0x100 EXP DUP2 SLOAD DUP2 PUSH1 0xFF MUL NOT AND SWAP1 DUP4 PUSH1 0x3 DUP2 GT ISZERO PUSH2 0xFC7 JUMPI PUSH2 0xFC6 PUSH2 0x12BC JUMP JUMPDEST JUMPDEST MUL OR SWAP1 SSTORE POP PUSH1 0x3 DUP3 ADD PUSH1 0x1 SWAP1 SLOAD SWAP1 PUSH2 0x100 EXP SWAP1 DIV PUSH1 0xFF AND DUP2 PUSH1 0x3 ADD PUSH1 0x1 PUSH2 0x100 EXP DUP2 SLOAD DUP2 PUSH1 0xFF MUL NOT AND SWAP1 DUP4 PUSH1 0x3 DUP2 GT ISZERO PUSH2 0x1004 JUMPI PUSH2 0x1003 PUSH2 0x12BC JUMP JUMPDEST JUMPDEST MUL OR SWAP1 SSTORE POP PUSH1 0x4 DUP3 ADD SLOAD DUP2 PUSH1 0x4 ADD SSTORE POP POP PUSH1 0x40 MLOAD DUP1 PUSH1 0xC0 ADD PUSH1 0x40 MSTORE DUP1 DUP9 DUP2 MSTORE PUSH1 0x20 ADD DUP8 DUP2 MSTORE PUSH1 0x20 ADD DUP7 DUP2 MSTORE PUSH1 0x20 ADD DUP6 PUSH1 0x3 DUP2 GT ISZERO PUSH2 0x1045 JUMPI PUSH2 0x1044 PUSH2 0x12BC JUMP JUMPDEST JUMPDEST DUP2 MSTORE PUSH1 0x20 ADD DUP5 PUSH1 0x3 DUP2 GT ISZERO PUSH2 0x105D JUMPI PUSH2 0x105C PUSH2 0x12BC JUMP JUMPDEST JUMPDEST DUP2 MSTORE PUSH1 0x20 ADD DUP4 DUP2 MSTORE POP PUSH0 DUP1 DUP11 DUP2 MSTORE PUSH1 0x20 ADD SWAP1 DUP2 MSTORE PUSH1 0x20 ADD PUSH0 KECCAK256 PUSH0 DUP3 ADD MLOAD DUP2 PUSH0 ADD SWAP1 DUP2 PUSH2 0x1089 SWAP2 SWAP1 PUSH2 0x1B03 JUMP JUMPDEST POP PUSH1 0x20 DUP3 ADD MLOAD DUP2 PUSH1 0x1 ADD SSTORE PUSH1 0x40 DUP3 ADD MLOAD DUP2 PUSH1 0x2 ADD SSTORE PUSH1 0x60 DUP3 ADD MLOAD DUP2 PUSH1 0x3 ADD PUSH0 PUSH2 0x100 EXP DUP2 SLOAD DUP2 PUSH1 0xFF MUL NOT AND SWAP1 DUP4 PUSH1 0x3 DUP2 GT ISZERO PUSH2 0x10C8 JUMPI PUSH2 0x10C7 PUSH2 0x12BC JUMP JUMPDEST JUMPDEST MUL OR SWAP1 SSTORE POP PUSH1 0x80 DUP3 ADD MLOAD DUP2 PUSH1 0x3 ADD PUSH1 0x1 PUSH2 0x100 EXP DUP2 SLOAD DUP2 PUSH1 0xFF MUL NOT AND SWAP1 DUP4 PUSH1 0x3 DUP2 GT ISZERO PUSH2 0x10F8 JUMPI PUSH2 0x10F7 PUSH2 0x12BC JUMP JUMPDEST JUMPDEST MUL OR SWAP1 SSTORE POP PUSH1 0xA0 DUP3 ADD MLOAD DUP2 PUSH1 0x4 ADD SSTORE SWAP1 POP POP POP POP POP POP POP POP POP POP JUMP JUMPDEST PUSH1 0x9 SLOAD DUP2 JUMP JUMPDEST PUSH1 0x8 SLOAD DUP2 JUMP JUMPDEST PUSH1 0x40 MLOAD DUP1 PUSH1 0x60 ADD PUSH1 0x40 MSTORE DUP1 PUSH1 0x3 SWAP1 JUMPDEST PUSH2 0x1137 PUSH2 0x114D JUMP JUMPDEST DUP2 MSTORE PUSH1 0x20 ADD SWAP1 PUSH1 0x1 SWAP1 SUB SWAP1 DUP2 PUSH2 0x112F JUMPI SWAP1 POP POP SWAP1 JUMP JUMPDEST PUSH1 0x40 MLOAD DUP1 PUSH1 0xC0 ADD PUSH1 0x40 MSTORE DUP1 PUSH1 0x60 DUP2 MSTORE PUSH1 0x20 ADD PUSH0 DUP2 MSTORE PUSH1 0x20 ADD PUSH0 DUP2 MSTORE PUSH1 0x20 ADD PUSH0 PUSH1 0x3 DUP2 GT ISZERO PUSH2 0x117E JUMPI PUSH2 0x117D PUSH2 0x12BC JUMP JUMPDEST JUMPDEST DUP2 MSTORE PUSH1 0x20 ADD PUSH0 PUSH1 0x3 DUP2 GT ISZERO PUSH2 0x1196 JUMPI PUSH2 0x1195 PUSH2 0x12BC JUMP JUMPDEST JUMPDEST DUP2 MSTORE PUSH1 0x20 ADD PUSH0 DUP2 MSTORE POP SWAP1 JUMP JUMPDEST PUSH0 DUP2 SWAP1 POP SWAP2 SWAP1 POP JUMP JUMPDEST PUSH2 0x11B4 DUP2 PUSH2 0x11A2 JUMP JUMPDEST DUP3 MSTORE POP POP JUMP JUMPDEST PUSH0 PUSH1 0x20 DUP3 ADD SWAP1 POP PUSH2 0x11CD PUSH0 DUP4 ADD DUP5 PUSH2 0x11AB JUMP JUMPDEST SWAP3 SWAP2 POP POP JUMP JUMPDEST PUSH0 PUSH1 0x40 MLOAD SWAP1 POP SWAP1 JUMP JUMPDEST PUSH0 DUP1 REVERT JUMPDEST PUSH0 DUP1 REVERT JUMPDEST PUSH1 0x4 DUP2 LT PUSH2 0x11F0 JUMPI PUSH0 DUP1 REVERT JUMPDEST POP JUMP JUMPDEST PUSH0 DUP2 CALLDATALOAD SWAP1 POP PUSH2 0x1201 DUP2 PUSH2 0x11E4 JUMP JUMPDEST SWAP3 SWAP2 POP POP JUMP JUMPDEST PUSH0 PUSH1 0x20 DUP3 DUP5 SUB SLT ISZERO PUSH2 0x121C JUMPI PUSH2 0x121B PUSH2 0x11DC JUMP JUMPDEST JUMPDEST PUSH0 PUSH2 0x1229 DUP5 DUP3 DUP6 ADD PUSH2 0x11F3 JUMP JUMPDEST SWAP2 POP POP SWAP3 SWAP2 POP POP JUMP JUMPDEST PUSH0 DUP2 MLOAD SWAP1 POP SWAP2 SWAP1 POP JUMP JUMPDEST PUSH0 DUP3 DUP3 MSTORE PUSH1 0x20 DUP3 ADD SWAP1 POP SWAP3 SWAP2 POP POP JUMP JUMPDEST PUSH0 JUMPDEST DUP4 DUP2 LT ISZERO PUSH2 0x1269 JUMPI DUP1 DUP3 ADD MLOAD DUP2 DUP5 ADD MSTORE PUSH1 0x20 DUP2 ADD SWAP1 POP PUSH2 0x124E JUMP JUMPDEST PUSH0 DUP5 DUP5 ADD MSTORE POP POP POP POP JUMP JUMPDEST PUSH0 PUSH1 0x1F NOT PUSH1 0x1F DUP4 ADD AND SWAP1 POP SWAP2 SWAP1 POP JUMP JUMPDEST PUSH0 PUSH2 0x128E DUP3 PUSH2 0x1232 JUMP JUMPDEST PUSH2 0x1298 DUP2 DUP6 PUSH2 0x123C JUMP JUMPDEST SWAP4 POP PUSH2 0x12A8 DUP2 DUP6 PUSH1 0x20 DUP7 ADD PUSH2 0x124C JUMP JUMPDEST PUSH2 0x12B1 DUP2 PUSH2 0x1274 JUMP JUMPDEST DUP5 ADD SWAP2 POP POP SWAP3 SWAP2 POP POP JUMP JUMPDEST PUSH32 0x4E487B7100000000000000000000000000000000000000000000000000000000 PUSH0 MSTORE PUSH1 0x21 PUSH1 0x4 MSTORE PUSH1 0x24 PUSH0 REVERT JUMPDEST PUSH1 0x4 DUP2 LT PUSH2 0x12FA JUMPI PUSH2 0x12F9 PUSH2 0x12BC JUMP JUMPDEST JUMPDEST POP JUMP JUMPDEST PUSH0 DUP2 SWAP1 POP PUSH2 0x130A DUP3 PUSH2 0x12E9 JUMP JUMPDEST SWAP2 SWAP1 POP JUMP JUMPDEST PUSH0 PUSH2 0x1319 DUP3 PUSH2 0x12FD JUMP JUMPDEST SWAP1 POP SWAP2 SWAP1 POP JUMP JUMPDEST PUSH2 0x1329 DUP2 PUSH2 0x130F JUMP JUMPDEST DUP3 MSTORE POP POP JUMP JUMPDEST PUSH1 0x4 DUP2 LT PUSH2 0x1340 JUMPI PUSH2 0x133F PUSH2 0x12BC JUMP JUMPDEST JUMPDEST POP JUMP JUMPDEST PUSH0 DUP2 SWAP1 POP PUSH2 0x1350 DUP3 PUSH2 0x132F JUMP JUMPDEST SWAP2 SWAP1 POP JUMP JUMPDEST PUSH0 PUSH2 0x135F DUP3 PUSH2 0x1343 JUMP JUMPDEST SWAP1 POP SWAP2 SWAP1 POP JUMP JUMPDEST PUSH2 0x136F DUP2 PUSH2 0x1355 JUMP JUMPDEST DUP3 MSTORE POP POP JUMP JUMPDEST PUSH0 PUSH1 0xC0 DUP3 ADD SWAP1 POP DUP2 DUP2 SUB PUSH0 DUP4 ADD MSTORE PUSH2 0x138D DUP2 DUP10 PUSH2 0x1284 JUMP JUMPDEST SWAP1 POP PUSH2 0x139C PUSH1 0x20 DUP4 ADD DUP9 PUSH2 0x11AB JUMP JUMPDEST PUSH2 0x13A9 PUSH1 0x40 DUP4 ADD DUP8 PUSH2 0x11AB JUMP JUMPDEST PUSH2 0x13B6 PUSH1 0x60 DUP4 ADD DUP7 PUSH2 0x1320 JUMP JUMPDEST PUSH2 0x13C3 PUSH1 0x80 DUP4 ADD DUP6 PUSH2 0x1366 JUMP JUMPDEST PUSH2 0x13D0 PUSH1 0xA0 DUP4 ADD DUP5 PUSH2 0x11AB JUMP JUMPDEST SWAP8 SWAP7 POP POP POP POP POP POP POP JUMP JUMPDEST PUSH2 0x13E4 DUP2 PUSH2 0x11A2 JUMP JUMPDEST DUP2 EQ PUSH2 0x13EE JUMPI PUSH0 DUP1 REVERT JUMPDEST POP JUMP JUMPDEST PUSH0 DUP2 CALLDATALOAD SWAP1 POP PUSH2 0x13FF DUP2 PUSH2 0x13DB JUMP JUMPDEST SWAP3 SWAP2 POP POP JUMP JUMPDEST PUSH0 PUSH1 0x20 DUP3 DUP5 SUB SLT ISZERO PUSH2 0x141A JUMPI PUSH2 0x1419 PUSH2 0x11DC JUMP JUMPDEST JUMPDEST PUSH0 PUSH2 0x1427 DUP5 DUP3 DUP6 ADD PUSH2 0x13F1 JUMP JUMPDEST SWAP2 POP POP SWAP3 SWAP2 POP POP JUMP JUMPDEST PUSH0 DUP1 REVERT JUMPDEST PUSH0 DUP1 REVERT JUMPDEST PUSH32 0x4E487B7100000000000000000000000000000000000000000000000000000000 PUSH0 MSTORE PUSH1 0x41 PUSH1 0x4 MSTORE PUSH1 0x24 PUSH0 REVERT JUMPDEST PUSH2 0x146E DUP3 PUSH2 0x1274 JUMP JUMPDEST DUP2 ADD DUP2 DUP2 LT PUSH8 0xFFFFFFFFFFFFFFFF DUP3 GT OR ISZERO PUSH2 0x148D JUMPI PUSH2 0x148C PUSH2 0x1438 JUMP JUMPDEST JUMPDEST DUP1 PUSH1 0x40 MSTORE POP POP POP JUMP JUMPDEST PUSH0 PUSH2 0x149F PUSH2 0x11D3 JUMP JUMPDEST SWAP1 POP PUSH2 0x14AB DUP3 DUP3 PUSH2 0x1465 JUMP JUMPDEST SWAP2 SWAP1 POP JUMP JUMPDEST PUSH0 PUSH8 0xFFFFFFFFFFFFFFFF DUP3 GT ISZERO PUSH2 0x14CA JUMPI PUSH2 0x14C9 PUSH2 0x1438 JUMP JUMPDEST JUMPDEST PUSH2 0x14D3 DUP3 PUSH2 0x1274 JUMP JUMPDEST SWAP1 POP PUSH1 0x20 DUP2 ADD SWAP1 POP SWAP2 SWAP1 POP JUMP JUMPDEST DUP3 DUP2 DUP4 CALLDATACOPY PUSH0 DUP4 DUP4 ADD MSTORE POP POP POP JUMP JUMPDEST PUSH0 PUSH2 0x1500 PUSH2 0x14FB DUP5 PUSH2 0x14B0 JUMP JUMPDEST PUSH2 0x1496 JUMP JUMPDEST SWAP1 POP DUP3 DUP2 MSTORE PUSH1 0x20 DUP2 ADD DUP5 DUP5 DUP5 ADD GT ISZERO PUSH2 0x151C JUMPI PUSH2 0x151B PUSH2 0x1434 JUMP JUMPDEST JUMPDEST PUSH2 0x1527 DUP5 DUP3 DUP6 PUSH2 0x14E0 JUMP JUMPDEST POP SWAP4 SWAP3 POP POP POP JUMP JUMPDEST PUSH0 DUP3 PUSH1 0x1F DUP4 ADD SLT PUSH2 0x1543 JUMPI PUSH2 0x1542 PUSH2 0x1430 JUMP JUMPDEST JUMPDEST DUP2 CALLDATALOAD PUSH2 0x1553 DUP5 DUP3 PUSH1 0x20 DUP7 ADD PUSH2 0x14EE JUMP JUMPDEST SWAP2 POP POP SWAP3 SWAP2 POP POP JUMP JUMPDEST PUSH1 0x4 DUP2 LT PUSH2 0x1568 JUMPI PUSH0 DUP1 REVERT JUMPDEST POP JUMP JUMPDEST PUSH0 DUP2 CALLDATALOAD SWAP1 POP PUSH2 0x1579 DUP2 PUSH2 0x155C JUMP JUMPDEST SWAP3 SWAP2 POP POP JUMP JUMPDEST PUSH0 DUP1 PUSH0 DUP1 PUSH0 PUSH1 0xA0 DUP7 DUP9 SUB SLT ISZERO PUSH2 0x1598 JUMPI PUSH2 0x1597 PUSH2 0x11DC JUMP JUMPDEST JUMPDEST PUSH0 PUSH2 0x15A5 DUP9 DUP3 DUP10 ADD PUSH2 0x13F1 JUMP JUMPDEST SWAP6 POP POP PUSH1 0x20 DUP7 ADD CALLDATALOAD PUSH8 0xFFFFFFFFFFFFFFFF DUP2 GT ISZERO PUSH2 0x15C6 JUMPI PUSH2 0x15C5 PUSH2 0x11E0 JUMP JUMPDEST JUMPDEST PUSH2 0x15D2 DUP9 DUP3 DUP10 ADD PUSH2 0x152F JUMP JUMPDEST SWAP5 POP POP PUSH1 0x40 PUSH2 0x15E3 DUP9 DUP3 DUP10 ADD PUSH2 0x13F1 JUMP JUMPDEST SWAP4 POP POP PUSH1 0x60 PUSH2 0x15F4 DUP9 DUP3 DUP10 ADD PUSH2 0x11F3 JUMP JUMPDEST SWAP3 POP POP PUSH1 0x80 PUSH2 0x1605 DUP9 DUP3 DUP10 ADD PUSH2 0x156B JUMP JUMPDEST SWAP2 POP POP SWAP3 SWAP6 POP SWAP3 SWAP6 SWAP1 SWAP4 POP JUMP JUMPDEST PUSH0 PUSH1 0x3 SWAP1 POP SWAP2 SWAP1 POP JUMP JUMPDEST PUSH0 DUP2 SWAP1 POP SWAP3 SWAP2 POP POP JUMP JUMPDEST PUSH0 DUP2 SWAP1 POP SWAP2 SWAP1 POP JUMP JUMPDEST PUSH0 DUP3 DUP3 MSTORE PUSH1 0x20 DUP3 ADD SWAP1 POP SWAP3 SWAP2 POP POP JUMP JUMPDEST PUSH0 PUSH2 0x1649 DUP3 PUSH2 0x1232 JUMP JUMPDEST PUSH2 0x1653 DUP2 DUP6 PUSH2 0x162F JUMP JUMPDEST SWAP4 POP PUSH2 0x1663 DUP2 DUP6 PUSH1 0x20 DUP7 ADD PUSH2 0x124C JUMP JUMPDEST PUSH2 0x166C DUP2 PUSH2 0x1274 JUMP JUMPDEST DUP5 ADD SWAP2 POP POP SWAP3 SWAP2 POP POP JUMP JUMPDEST PUSH2 0x1680 DUP2 PUSH2 0x11A2 JUMP JUMPDEST DUP3 MSTORE POP POP JUMP JUMPDEST PUSH2 0x168F DUP2 PUSH2 0x130F JUMP JUMPDEST DUP3 MSTORE POP POP JUMP JUMPDEST PUSH2 0x169E DUP2 PUSH2 0x1355 JUMP JUMPDEST DUP3 MSTORE POP POP JUMP JUMPDEST PUSH0 PUSH1 0xC0 DUP4 ADD PUSH0 DUP4 ADD MLOAD DUP5 DUP3 SUB PUSH0 DUP7 ADD MSTORE PUSH2 0x16BE DUP3 DUP3 PUSH2 0x163F JUMP JUMPDEST SWAP2 POP POP PUSH1 0x20 DUP4 ADD MLOAD PUSH2 0x16D3 PUSH1 0x20 DUP7 ADD DUP3 PUSH2 0x1677 JUMP JUMPDEST POP PUSH1 0x40 DUP4 ADD MLOAD PUSH2 0x16E6 PUSH1 0x40 DUP7 ADD DUP3 PUSH2 0x1677 JUMP JUMPDEST POP PUSH1 0x60 DUP4 ADD MLOAD PUSH2 0x16F9 PUSH1 0x60 DUP7 ADD DUP3 PUSH2 0x1686 JUMP JUMPDEST POP PUSH1 0x80 DUP4 ADD MLOAD PUSH2 0x170C PUSH1 0x80 DUP7 ADD DUP3 PUSH2 0x1695 JUMP JUMPDEST POP PUSH1 0xA0 DUP4 ADD MLOAD PUSH2 0x171F PUSH1 0xA0 DUP7 ADD DUP3 PUSH2 0x1677 JUMP JUMPDEST POP DUP1 SWAP2 POP POP SWAP3 SWAP2 POP POP JUMP JUMPDEST PUSH0 PUSH2 0x1735 DUP4 DUP4 PUSH2 0x16A4 JUMP JUMPDEST SWAP1 POP SWAP3 SWAP2 POP POP JUMP JUMPDEST PUSH0 PUSH1 0x20 DUP3 ADD SWAP1 POP SWAP2 SWAP1 POP JUMP JUMPDEST PUSH0 PUSH2 0x1753 DUP3 PUSH2 0x1612 JUMP JUMPDEST PUSH2 0x175D DUP2 DUP6 PUSH2 0x161C JUMP JUMPDEST SWAP4 POP DUP4 PUSH1 0x20 DUP3 MUL DUP6 ADD PUSH2 0x176F DUP6 PUSH2 0x1626 JUMP JUMPDEST DUP1 PUSH0 JUMPDEST DUP6 DUP2 LT ISZERO PUSH2 0x17AA JUMPI DUP5 DUP5 SUB DUP10 MSTORE DUP2 MLOAD PUSH2 0x178B DUP6 DUP3 PUSH2 0x172A JUMP JUMPDEST SWAP5 POP PUSH2 0x1796 DUP4 PUSH2 0x173D JUMP JUMPDEST SWAP3 POP PUSH1 0x20 DUP11 ADD SWAP10 POP POP PUSH1 0x1 DUP2 ADD SWAP1 POP PUSH2 0x1772 JUMP JUMPDEST POP DUP3 SWAP8 POP DUP8 SWAP6 POP POP POP POP POP POP SWAP3 SWAP2 POP POP JUMP JUMPDEST PUSH0 PUSH1 0x20 DUP3 ADD SWAP1 POP DUP2 DUP2 SUB PUSH0 DUP4 ADD MSTORE PUSH2 0x17D4 DUP2 DUP5 PUSH2 0x1749 JUMP JUMPDEST SWAP1 POP SWAP3 SWAP2 POP POP JUMP JUMPDEST PUSH0 DUP1 PUSH0 DUP1 PUSH0 DUP1 PUSH0 PUSH1 0xE0 DUP9 DUP11 SUB SLT ISZERO PUSH2 0x17F7 JUMPI PUSH2 0x17F6 PUSH2 0x11DC JUMP JUMPDEST JUMPDEST PUSH0 PUSH2 0x1804 DUP11 DUP3 DUP12 ADD PUSH2 0x13F1 JUMP JUMPDEST SWAP8 POP POP PUSH1 0x20 DUP9 ADD CALLDATALOAD PUSH8 0xFFFFFFFFFFFFFFFF DUP2 GT ISZERO PUSH2 0x1825 JUMPI PUSH2 0x1824 PUSH2 0x11E0 JUMP JUMPDEST JUMPDEST PUSH2 0x1831 DUP11 DUP3 DUP12 ADD PUSH2 0x152F JUMP JUMPDEST SWAP7 POP POP PUSH1 0x40 PUSH2 0x1842 DUP11 DUP3 DUP12 ADD PUSH2 0x13F1 JUMP JUMPDEST SWAP6 POP POP PUSH1 0x60 PUSH2 0x1853 DUP11 DUP3 DUP12 ADD PUSH2 0x13F1 JUMP JUMPDEST SWAP5 POP POP PUSH1 0x80 PUSH2 0x1864 DUP11 DUP3 DUP12 ADD PUSH2 0x11F3 JUMP JUMPDEST SWAP4 POP POP PUSH1 0xA0 PUSH2 0x1875 DUP11 DUP3 DUP12 ADD PUSH2 0x156B JUMP JUMPDEST SWAP3 POP POP PUSH1 0xC0 PUSH2 0x1886 DUP11 DUP3 DUP12 ADD PUSH2 0x13F1 JUMP JUMPDEST SWAP2 POP POP SWAP3 SWAP6 SWAP9 SWAP2 SWAP5 SWAP8 POP SWAP3 SWAP6 POP JUMP JUMPDEST PUSH32 0x4E487B7100000000000000000000000000000000000000000000000000000000 PUSH0 MSTORE PUSH1 0x11 PUSH1 0x4 MSTORE PUSH1 0x24 PUSH0 REVERT JUMPDEST PUSH0 PUSH2 0x18CC DUP3 PUSH2 0x11A2 JUMP JUMPDEST SWAP2 POP PUSH32 0xFFFFFFFFFFFFFFFFFFFFFFFFFFFFFFFFFFFFFFFFFFFFFFFFFFFFFFFFFFFFFFFF DUP3 SUB PUSH2 0x18FE JUMPI PUSH2 0x18FD PUSH2 0x1895 JUMP JUMPDEST JUMPDEST PUSH1 0x1 DUP3 ADD SWAP1 POP SWAP2 SWAP1 POP JUMP JUMPDEST PUSH32 0x4E487B7100000000000000000000000000000000000000000000000000000000 PUSH0 MSTORE PUSH1 0x22 PUSH1 0x4 MSTORE PUSH1 0x24 PUSH0 REVERT JUMPDEST PUSH0 PUSH1 0x2 DUP3 DIV SWAP1 POP PUSH1 0x1 DUP3 AND DUP1 PUSH2 0x194D JUMPI PUSH1 0x7F DUP3 AND SWAP2 POP JUMPDEST PUSH1 0x20 DUP3 LT DUP2 SUB PUSH2 0x1960 JUMPI PUSH2 0x195F PUSH2 0x1909 JUMP JUMPDEST JUMPDEST POP SWAP2 SWAP1 POP JUMP JUMPDEST PUSH0 DUP2 SWAP1 POP DUP2 PUSH0 MSTORE PUSH1 0x20 PUSH0 KECCAK256 SWAP1 POP SWAP2 SWAP1 POP JUMP JUMPDEST PUSH0 PUSH1 0x20 PUSH1 0x1F DUP4 ADD DIV SWAP1 POP SWAP2 SWAP1 POP JUMP JUMPDEST PUSH0 DUP3 DUP3 SHL SWAP1 POP SWAP3 SWAP2 POP POP JUMP JUMPDEST PUSH0 PUSH1 0x8 DUP4 MUL PUSH2 0x19C2 PUSH32 0xFFFFFFFFFFFFFFFFFFFFFFFFFFFFFFFFFFFFFFFFFFFFFFFFFFFFFFFFFFFFFFFF DUP3 PUSH2 0x1987 JUMP JUMPDEST PUSH2 0x19CC DUP7 DUP4 PUSH2 0x1987 JUMP JUMPDEST SWAP6 POP DUP1 NOT DUP5 AND SWAP4 POP DUP1 DUP7 AND DUP5 OR SWAP3 POP POP POP SWAP4 SWAP3 POP POP POP JUMP JUMPDEST PUSH0 DUP2 SWAP1 POP SWAP2 SWAP1 POP JUMP JUMPDEST PUSH0 PUSH2 0x1A07 PUSH2 0x1A02 PUSH2 0x19FD DUP5 PUSH2 0x11A2 JUMP JUMPDEST PUSH2 0x19E4 JUMP JUMPDEST PUSH2 0x11A2 JUMP JUMPDEST SWAP1 POP SWAP2 SWAP1 POP JUMP JUMPDEST PUSH0 DUP2 SWAP1 POP SWAP2 SWAP1 POP JUMP JUMPDEST PUSH2 0x1A20 DUP4 PUSH2 0x19ED JUMP JUMPDEST PUSH2 0x1A34 PUSH2 0x1A2C DUP3 PUSH2 0x1A0E JUMP JUMPDEST DUP5 DUP5 SLOAD PUSH2 0x1993 JUMP JUMPDEST DUP3 SSTORE POP POP POP POP JUMP JUMPDEST PUSH0 SWAP1 JUMP JUMPDEST PUSH2 0x1A48 PUSH2 0x1A3C JUMP JUMPDEST PUSH2 0x1A53 DUP2 DUP5 DUP5 PUSH2 0x1A17 JUMP JUMPDEST POP POP POP JUMP JUMPDEST JUMPDEST DUP2 DUP2 LT ISZERO PUSH2 0x1A76 JUMPI PUSH2 0x1A6B PUSH0 DUP3 PUSH2 0x1A40 JUMP JUMPDEST PUSH1 0x1 DUP2 ADD SWAP1 POP PUSH2 0x1A59 JUMP JUMPDEST POP POP JUMP JUMPDEST PUSH1 0x1F DUP3 GT ISZERO PUSH2 0x1ABB JUMPI PUSH2 0x1A8C DUP2 PUSH2 0x1966 JUMP JUMPDEST PUSH2 0x1A95 DUP5 PUSH2 0x1978 JUMP JUMPDEST DUP2 ADD PUSH1 0x20 DUP6 LT ISZERO PUSH2 0x1AA4 JUMPI DUP2 SWAP1 POP JUMPDEST PUSH2 0x1AB8 PUSH2 0x1AB0 DUP6 PUSH2 0x1978 JUMP JUMPDEST DUP4 ADD DUP3 PUSH2 0x1A58 JUMP JUMPDEST POP POP JUMPDEST POP POP POP JUMP JUMPDEST PUSH0 DUP3 DUP3 SHR SWAP1 POP SWAP3 SWAP2 POP POP JUMP JUMPDEST PUSH0 PUSH2 0x1ADB PUSH0 NOT DUP5 PUSH1 0x8 MUL PUSH2 0x1AC0 JUMP JUMPDEST NOT DUP1 DUP4 AND SWAP2 POP POP SWAP3 SWAP2 POP POP JUMP JUMPDEST PUSH0 PUSH2 0x1AF3 DUP4 DUP4 PUSH2 0x1ACC JUMP JUMPDEST SWAP2 POP DUP3 PUSH1 0x2 MUL DUP3 OR SWAP1 POP SWAP3 SWAP2 POP POP JUMP JUMPDEST PUSH2 0x1B0C DUP3 PUSH2 0x1232 JUMP JUMPDEST PUSH8 0xFFFFFFFFFFFFFFFF DUP2 GT ISZERO PUSH2 0x1B25 JUMPI PUSH2 0x1B24 PUSH2 0x1438 JUMP JUMPDEST JUMPDEST PUSH2 0x1B2F DUP3 SLOAD PUSH2 0x1936 JUMP JUMPDEST PUSH2 0x1B3A DUP3 DUP3 DUP6 PUSH2 0x1A7A JUMP JUMPDEST PUSH0 PUSH1 0x20 SWAP1 POP PUSH1 0x1F DUP4 GT PUSH1 0x1 DUP2 EQ PUSH2 0x1B6B JUMPI PUSH0 DUP5 ISZERO PUSH2 0x1B59 JUMPI DUP3 DUP8 ADD MLOAD SWAP1 POP JUMPDEST PUSH2 0x1B63 DUP6 DUP3 PUSH2 0x1AE8 JUMP JUMPDEST DUP7 SSTORE POP PUSH2 0x1BCA JUMP JUMPDEST PUSH1 0x1F NOT DUP5 AND PUSH2 0x1B79 DUP7 PUSH2 0x1966 JUMP JUMPDEST PUSH0 JUMPDEST DUP3 DUP2 LT ISZERO PUSH2 0x1BA0 JUMPI DUP5 DUP10 ADD MLOAD DUP3 SSTORE PUSH1 0x1 DUP3 ADD SWAP2 POP PUSH1 0x20 DUP6 ADD SWAP5 POP PUSH1 0x20 DUP2 ADD SWAP1 POP PUSH2 0x1B7B JUMP JUMPDEST DUP7 DUP4 LT ISZERO PUSH2 0x1BBD JUMPI DUP5 DUP10 ADD MLOAD PUSH2 0x1BB9 PUSH1 0x1F DUP10 AND DUP3 PUSH2 0x1ACC JUMP JUMPDEST DUP4 SSTORE POP JUMPDEST PUSH1 0x1 PUSH1 0x2 DUP9 MUL ADD DUP9 SSTORE POP POP POP JUMPDEST POP POP POP POP POP POP JUMP JUMPDEST PUSH0 DUP2 SLOAD SWAP1 POP PUSH2 0x1BE0 DUP2 PUSH2 0x1936 JUMP JUMPDEST SWAP1 POP SWAP2 SWAP1 POP JUMP JUMPDEST DUP2 DUP2 SUB PUSH2 0x1BF5 JUMPI POP POP PUSH2 0x1CCA JUMP JUMPDEST PUSH2 0x1BFE DUP3 PUSH2 0x1BD2 JUMP JUMPDEST PUSH8 0xFFFFFFFFFFFFFFFF DUP2 GT ISZERO PUSH2 0x1C17 JUMPI PUSH2 0x1C16 PUSH2 0x1438 JUMP JUMPDEST JUMPDEST PUSH2 0x1C21 DUP3 SLOAD PUSH2 0x1936 JUMP JUMPDEST PUSH2 0x1C2C DUP3 DUP3 DUP6 PUSH2 0x1A7A JUMP JUMPDEST PUSH0 PUSH1 0x1F DUP4 GT PUSH1 0x1 DUP2 EQ PUSH2 0x1C59 JUMPI PUSH0 DUP5 ISZERO PUSH2 0x1C47 JUMPI DUP3 DUP8 ADD SLOAD SWAP1 POP JUMPDEST PUSH2 0x1C51 DUP6 DUP3 PUSH2 0x1AE8 JUMP JUMPDEST DUP7 SSTORE POP PUSH2 0x1CC3 JUMP JUMPDEST PUSH1 0x1F NOT DUP5 AND PUSH2 0x1C67 DUP8 PUSH2 0x1966 JUMP JUMPDEST SWAP7 POP PUSH2 0x1C72 DUP7 PUSH2 0x1966 JUMP JUMPDEST PUSH0 JUMPDEST DUP3 DUP2 LT ISZERO PUSH2 0x1C99 JUMPI DUP5 DUP10 ADD SLOAD DUP3 SSTORE PUSH1 0x1 DUP3 ADD SWAP2 POP PUSH1 0x1 DUP6 ADD SWAP5 POP PUSH1 0x20 DUP2 ADD SWAP1 POP PUSH2 0x1C74 JUMP JUMPDEST DUP7 DUP4 LT ISZERO PUSH2 0x1CB6 JUMPI DUP5 DUP10 ADD SLOAD PUSH2 0x1CB2 PUSH1 0x1F DUP10 AND DUP3 PUSH2 0x1ACC JUMP JUMPDEST DUP4 SSTORE POP JUMPDEST PUSH1 0x1 PUSH1 0x2 DUP9 MUL ADD DUP9 SSTORE POP POP POP JUMPDEST POP POP POP POP POP POP JUMPDEST JUMP JUMPDEST PUSH32 0x4E487B7100000000000000000000000000000000000000000000000000000000 PUSH0 MSTORE PUSH1 0x32 PUSH1 0x4 MSTORE PUSH1 0x24 PUSH0 REVERT INVALID LOG2 PUSH5 0x6970667358 0x22 SLT KECCAK256 PUSH1 0xE1 0xC LOG4 LOG1 SUB PUSH20 0x7819155C849A90AC4A15D604751556535AE80B7B SGT 0xCA 0x28 SIGNEXTEND DUP3 PUSH5 0x736F6C6343 STOP ADDMOD ISZERO STOP CALLER "
				},
				"gasEstimates": {
					"creation": {
						"codeDepositCost": "1494200",
						"executionCost": "1559",
						"totalCost": "1495759"
					},
					"external": {
						"_localvar()": "infinite",
						"arr(uint256)": "infinite",
						"dept(uint8)": "infinite",
						"dept1()": "2426",
						"dept2()": "2535",
						"dept3()": "2513",
						"dept4()": "2448",
						"getTopThreeBlockchainAchievers()": "infinite",
						"registration(uint256,string,uint256,uint256,uint8,uint8,uint256)": "infinite",
						"retrieve(uint256)": "infinite",
						"stdinfo(uint256)": "infinite",
						"update(uint256,string,uint256,uint8,uint8)": "infinite"
					}
				},
				"methodIdentifiers": {
					"_localvar()": "712781f5",
					"arr(uint256)": "71e5ee5f",
					"dept(uint8)": "224e760c",
					"dept1()": "076d6935",
					"dept2()": "fd75948d",
					"dept3()": "d836e33c",
					"dept4()": "0d541dc6",
					"getTopThreeBlockchainAchievers()": "caf76adb",
					"registration(uint256,string,uint256,uint256,uint8,uint8,uint256)": "cf25823a",
					"retrieve(uint256)": "8f88708b",
					"stdinfo(uint256)": "9205c66e",
					"update(uint256,string,uint256,uint8,uint8)": "743e8701"
				}
			},
			"storageLayout": {
				"storage": [
					{
						"astId": 31,
						"contract": "contracts/8thaug.sol:StudentRegistration",
						"label": "stdinfo",
						"offset": 0,
						"slot": "0",
						"type": "t_mapping(t_uint256,t_struct(Student)26_storage)"
					},
					{
						"astId": 35,
						"contract": "contracts/8thaug.sol:StudentRegistration",
						"label": "arr",
						"offset": 0,
						"slot": "1",
						"type": "t_array(t_struct(Student)26_storage)dyn_storage"
					},
					{
						"astId": 38,
						"contract": "contracts/8thaug.sol:StudentRegistration",
						"label": "_localvar",
						"offset": 0,
						"slot": "2",
						"type": "t_struct(Student)26_storage"
					},
					{
						"astId": 229,
						"contract": "contracts/8thaug.sol:StudentRegistration",
						"label": "dept1",
						"offset": 0,
						"slot": "7",
						"type": "t_uint256"
					},
					{
						"astId": 231,
						"contract": "contracts/8thaug.sol:StudentRegistration",
						"label": "dept2",
						"offset": 0,
						"slot": "8",
						"type": "t_uint256"
					},
					{
						"astId": 233,
						"contract": "contracts/8thaug.sol:StudentRegistration",
						"label": "dept3",
						"offset": 0,
						"slot": "9",
						"type": "t_uint256"
					},
					{
						"astId": 235,
						"contract": "contracts/8thaug.sol:StudentRegistration",
						"label": "dept4",
						"offset": 0,
						"slot": "10",
						"type": "t_uint256"
					}
				],
				"types": {
					"t_array(t_struct(Student)26_storage)dyn_storage": {
						"base": "t_struct(Student)26_storage",
						"encoding": "dynamic_array",
						"label": "struct StudentRegistration.Student[]",
						"numberOfBytes": "32"
					},
					"t_enum(Department)6": {
						"encoding": "inplace",
						"label": "enum StudentRegistration.Department",
						"numberOfBytes": "1"
					},
					"t_enum(Status)11": {
						"encoding": "inplace",
						"label": "enum StudentRegistration.Status",
						"numberOfBytes": "1"
					},
					"t_mapping(t_uint256,t_struct(Student)26_storage)": {
						"encoding": "mapping",
						"key": "t_uint256",
						"label": "mapping(uint256 => struct StudentRegistration.Student)",
						"numberOfBytes": "32",
						"value": "t_struct(Student)26_storage"
					},
					"t_string_storage": {
						"encoding": "bytes",
						"label": "string",
						"numberOfBytes": "32"
					},
					"t_struct(Student)26_storage": {
						"encoding": "inplace",
						"label": "struct StudentRegistration.Student",
						"members": [
							{
								"astId": 13,
								"contract": "contracts/8thaug.sol:StudentRegistration",
								"label": "name",
								"offset": 0,
								"slot": "0",
								"type": "t_string_storage"
							},
							{
								"astId": 15,
								"contract": "contracts/8thaug.sol:StudentRegistration",
								"label": "age",
								"offset": 0,
								"slot": "1",
								"type": "t_uint256"
							},
							{
								"astId": 17,
								"contract": "contracts/8thaug.sol:StudentRegistration",
								"label": "registrationDate",
								"offset": 0,
								"slot": "2",
								"type": "t_uint256"
							},
							{
								"astId": 20,
								"contract": "contracts/8thaug.sol:StudentRegistration",
								"label": "department",
								"offset": 0,
								"slot": "3",
								"type": "t_enum(Department)6"
							},
							{
								"astId": 23,
								"contract": "contracts/8thaug.sol:StudentRegistration",
								"label": "status",
								"offset": 1,
								"slot": "3",
								"type": "t_enum(Status)11"
							},
							{
								"astId": 25,
								"contract": "contracts/8thaug.sol:StudentRegistration",
								"label": "obtainedMarks",
								"offset": 0,
								"slot": "4",
								"type": "t_uint256"
							}
						],
						"numberOfBytes": "160"
					},
					"t_uint256": {
						"encoding": "inplace",
						"label": "uint256",
						"numberOfBytes": "32"
					}
				}
			},
			"userdoc": {
				"kind": "user",
				"methods": {},
				"version": 1
			}
		}
	}
}