{
	"contracts/31stjuly.sol": {
		"EncapFuncCalls": {
			"abi": [
				{
					"inputs": [],
					"name": "callFunc",
					"outputs": [
						{
							"internalType": "uint256",
							"name": "_x",
							"type": "uint256"
						},
						{
							"internalType": "uint256",
							"name": "_y",
							"type": "uint256"
						},
						{
							"internalType": "uint256",
							"name": "_z",
							"type": "uint256"
						},
						{
							"internalType": "address",
							"name": "_a",
							"type": "address"
						},
						{
							"internalType": "bool",
							"name": "_b",
							"type": "bool"
						},
						{
							"internalType": "string",
							"name": "_c",
							"type": "string"
						}
					],
					"stateMutability": "pure",
					"type": "function"
				},
				{
					"inputs": [],
					"name": "callFuncWithKeyValue",
					"outputs": [
						{
							"internalType": "uint256",
							"name": "_x",
							"type": "uint256"
						},
						{
							"internalType": "uint256",
							"name": "_y",
							"type": "uint256"
						},
						{
							"internalType": "uint256",
							"name": "_z",
							"type": "uint256"
						},
						{
							"internalType": "address",
							"name": "_a",
							"type": "address"
						},
						{
							"internalType": "bool",
							"name": "_b",
							"type": "bool"
						},
						{
							"internalType": "string",
							"name": "_c",
							"type": "string"
						}
					],
					"stateMutability": "pure",
					"type": "function"
				},
				{
					"inputs": [
						{
							"internalType": "uint256",
							"name": "x",
							"type": "uint256"
						},
						{
							"internalType": "uint256",
							"name": "y",
							"type": "uint256"
						},
						{
							"internalType": "uint256",
							"name": "z",
							"type": "uint256"
						},
						{
							"internalType": "address",
							"name": "a",
							"type": "address"
						},
						{
							"internalType": "bool",
							"name": "b",
							"type": "bool"
						},
						{
							"internalType": "string",
							"name": "c",
							"type": "string"
						}
					],
					"name": "someFuncWithManyInputs",
					"outputs": [
						{
							"internalType": "uint256",
							"name": "_x",
							"type": "uint256"
						},
						{
							"internalType": "uint256",
							"name": "_y",
							"type": "uint256"
						},
						{
							"internalType": "uint256",
							"name": "_z",
							"type": "uint256"
						},
						{
							"internalType": "address",
							"name": "_a",
							"type": "address"
						},
						{
							"internalType": "bool",
							"name": "_b",
							"type": "bool"
						},
						{
							"internalType": "string",
							"name": "_c",
							"type": "string"
						}
					],
					"stateMutability": "pure",
					"type": "function"
				}
			],
			"devdoc": {
				"kind": "dev",
				"methods": {},
				"version": 1
			},
			"evm": {
				"assembly": "    /* \"contracts/31stjuly.sol\":59:750  contract EncapFuncCalls {... */\n  mstore(0x40, 0x80)\n  callvalue\n  dup1\n  iszero\n  tag_1\n  jumpi\n  0x00\n  dup1\n  revert\ntag_1:\n  pop\n  dataSize(sub_0)\n  dup1\n  dataOffset(sub_0)\n  0x00\n  codecopy\n  0x00\n  return\nstop\n\nsub_0: assembly {\n        /* \"contracts/31stjuly.sol\":59:750  contract EncapFuncCalls {... */\n      mstore(0x40, 0x80)\n      callvalue\n      dup1\n      iszero\n      tag_1\n      jumpi\n      0x00\n      dup1\n      revert\n    tag_1:\n      pop\n      jumpi(tag_2, lt(calldatasize, 0x04))\n      shr(0xe0, calldataload(0x00))\n      dup1\n      0x127b4e08\n      eq\n      tag_3\n      jumpi\n      dup1\n      0x72057987\n      eq\n      tag_4\n      jumpi\n      dup1\n      0x9a7846b9\n      eq\n      tag_5\n      jumpi\n    tag_2:\n      0x00\n      dup1\n      revert\n        /* \"contracts/31stjuly.sol\":86:314  function someFuncWithManyInputs(uint x,uint y,uint z,address a,bool b,string memory c) public pure returns (uint _x,uint _y,uint _z,address _a,bool _b,string memory _c ) {... */\n    tag_3:\n      tag_6\n      0x04\n      dup1\n      calldatasize\n      sub\n      dup2\n      add\n      swap1\n      tag_7\n      swap2\n      swap1\n      tag_8\n      jump\t// in\n    tag_7:\n      tag_9\n      jump\t// in\n    tag_6:\n      mload(0x40)\n      tag_10\n      swap7\n      swap6\n      swap5\n      swap4\n      swap3\n      swap2\n      swap1\n      tag_11\n      jump\t// in\n    tag_10:\n      mload(0x40)\n      dup1\n      swap2\n      sub\n      swap1\n      return\n        /* \"contracts/31stjuly.sol\":514:747  function callFuncWithKeyValue() external pure returns (uint _x,uint _y,uint _z,address _a,bool _b,string memory _c ) {... */\n    tag_4:\n      tag_12\n      tag_13\n      jump\t// in\n    tag_12:\n      mload(0x40)\n      tag_14\n      swap7\n      swap6\n      swap5\n      swap4\n      swap3\n      swap2\n      swap1\n      tag_11\n      jump\t// in\n    tag_14:\n      mload(0x40)\n      dup1\n      swap2\n      sub\n      swap1\n      return\n        /* \"contracts/31stjuly.sol\":316:512  function callFunc() external pure returns (uint _x,uint _y,uint _z,address _a,bool _b,string memory _c ) {... */\n    tag_5:\n      tag_15\n      tag_16\n      jump\t// in\n    tag_15:\n      mload(0x40)\n      tag_17\n      swap7\n      swap6\n      swap5\n      swap4\n      swap3\n      swap2\n      swap1\n      tag_11\n      jump\t// in\n    tag_17:\n      mload(0x40)\n      dup1\n      swap2\n      sub\n      swap1\n      return\n        /* \"contracts/31stjuly.sol\":86:314  function someFuncWithManyInputs(uint x,uint y,uint z,address a,bool b,string memory c) public pure returns (uint _x,uint _y,uint _z,address _a,bool _b,string memory _c ) {... */\n    tag_9:\n        /* \"contracts/31stjuly.sol\":194:201  uint _x */\n      0x00\n        /* \"contracts/31stjuly.sol\":202:209  uint _y */\n      dup1\n        /* \"contracts/31stjuly.sol\":210:217  uint _z */\n      0x00\n        /* \"contracts/31stjuly.sol\":218:228  address _a */\n      dup1\n        /* \"contracts/31stjuly.sol\":229:236  bool _b */\n      0x00\n        /* \"contracts/31stjuly.sol\":237:253  string memory _c */\n      0x60\n        /* \"contracts/31stjuly.sol\":264:265  x */\n      dup12\n        /* \"contracts/31stjuly.sol\":259:265  _x = x */\n      swap6\n      pop\n        /* \"contracts/31stjuly.sol\":273:274  y */\n      dup11\n        /* \"contracts/31stjuly.sol\":268:274  _y = y */\n      swap5\n      pop\n        /* \"contracts/31stjuly.sol\":282:283  z */\n      dup10\n        /* \"contracts/31stjuly.sol\":277:283  _z = z */\n      swap4\n      pop\n        /* \"contracts/31stjuly.sol\":291:292  a */\n      dup9\n        /* \"contracts/31stjuly.sol\":286:292  _a = a */\n      swap3\n      pop\n        /* \"contracts/31stjuly.sol\":300:301  b */\n      dup8\n        /* \"contracts/31stjuly.sol\":295:301  _b = b */\n      swap2\n      pop\n        /* \"contracts/31stjuly.sol\":309:310  c */\n      dup7\n        /* \"contracts/31stjuly.sol\":304:310  _c = c */\n      swap1\n      pop\n        /* \"contracts/31stjuly.sol\":86:314  function someFuncWithManyInputs(uint x,uint y,uint z,address a,bool b,string memory c) public pure returns (uint _x,uint _y,uint _z,address _a,bool _b,string memory _c ) {... */\n      swap7\n      pop\n      swap7\n      pop\n      swap7\n      pop\n      swap7\n      pop\n      swap7\n      pop\n      swap7\n      swap1\n      pop\n      jump\t// out\n        /* \"contracts/31stjuly.sol\":514:747  function callFuncWithKeyValue() external pure returns (uint _x,uint _y,uint _z,address _a,bool _b,string memory _c ) {... */\n    tag_13:\n        /* \"contracts/31stjuly.sol\":569:576  uint _x */\n      0x00\n        /* \"contracts/31stjuly.sol\":577:584  uint _y */\n      dup1\n        /* \"contracts/31stjuly.sol\":585:592  uint _z */\n      0x00\n        /* \"contracts/31stjuly.sol\":593:603  address _a */\n      dup1\n        /* \"contracts/31stjuly.sol\":604:611  bool _b */\n      0x00\n        /* \"contracts/31stjuly.sol\":612:628  string memory _c */\n      0x60\n        /* \"contracts/31stjuly.sol\":642:743  someFuncWithManyInputs({a: address(0), b: true, c: \"Function Call with Key Value\", x: 1, y: 2, z: 3}) */\n      tag_20\n        /* \"contracts/31stjuly.sol\":728:729  1 */\n      0x01\n        /* \"contracts/31stjuly.sol\":734:735  2 */\n      0x02\n        /* \"contracts/31stjuly.sol\":740:741  3 */\n      0x03\n        /* \"contracts/31stjuly.sol\":677:678  0 */\n      0x00\n        /* \"contracts/31stjuly.sol\":684:688  true */\n      0x01\n        /* \"contracts/31stjuly.sol\":642:743  someFuncWithManyInputs({a: address(0), b: true, c: \"Function Call with Key Value\", x: 1, y: 2, z: 3}) */\n      mload(0x40)\n      dup1\n      0x40\n      add\n      0x40\n      mstore\n      dup1\n      0x1c\n      dup2\n      mstore\n      0x20\n      add\n      0x46756e6374696f6e2043616c6c2077697468204b65792056616c756500000000\n      dup2\n      mstore\n      pop\n        /* \"contracts/31stjuly.sol\":642:664  someFuncWithManyInputs */\n      tag_9\n        /* \"contracts/31stjuly.sol\":642:743  someFuncWithManyInputs({a: address(0), b: true, c: \"Function Call with Key Value\", x: 1, y: 2, z: 3}) */\n      jump\t// in\n    tag_20:\n        /* \"contracts/31stjuly.sol\":634:743  return... */\n      swap6\n      pop\n      swap6\n      pop\n      swap6\n      pop\n      swap6\n      pop\n      swap6\n      pop\n      swap6\n      pop\n        /* \"contracts/31stjuly.sol\":514:747  function callFuncWithKeyValue() external pure returns (uint _x,uint _y,uint _z,address _a,bool _b,string memory _c ) {... */\n      swap1\n      swap2\n      swap3\n      swap4\n      swap5\n      swap6\n      jump\t// out\n        /* \"contracts/31stjuly.sol\":316:512  function callFunc() external pure returns (uint _x,uint _y,uint _z,address _a,bool _b,string memory _c ) {... */\n    tag_16:\n        /* \"contracts/31stjuly.sol\":359:366  uint _x */\n      0x00\n        /* \"contracts/31stjuly.sol\":367:374  uint _y */\n      dup1\n        /* \"contracts/31stjuly.sol\":375:382  uint _z */\n      0x00\n        /* \"contracts/31stjuly.sol\":383:393  address _a */\n      dup1\n        /* \"contracts/31stjuly.sol\":394:401  bool _b */\n      0x00\n        /* \"contracts/31stjuly.sol\":402:418  string memory _c */\n      0x60\n        /* \"contracts/31stjuly.sol\":435:508  someFuncWithManyInputs(1, 2, 3, address(0), true, \"Simple Function Call\") */\n      tag_22\n        /* \"contracts/31stjuly.sol\":458:459  1 */\n      0x01\n        /* \"contracts/31stjuly.sol\":461:462  2 */\n      0x02\n        /* \"contracts/31stjuly.sol\":464:465  3 */\n      0x03\n        /* \"contracts/31stjuly.sol\":475:476  0 */\n      0x00\n        /* \"contracts/31stjuly.sol\":479:483  true */\n      0x01\n        /* \"contracts/31stjuly.sol\":435:508  someFuncWithManyInputs(1, 2, 3, address(0), true, \"Simple Function Call\") */\n      mload(0x40)\n      dup1\n      0x40\n      add\n      0x40\n      mstore\n      dup1\n      0x14\n      dup2\n      mstore\n      0x20\n      add\n      0x53696d706c652046756e6374696f6e2043616c6c000000000000000000000000\n      dup2\n      mstore\n      pop\n        /* \"contracts/31stjuly.sol\":435:457  someFuncWithManyInputs */\n      tag_9\n        /* \"contracts/31stjuly.sol\":435:508  someFuncWithManyInputs(1, 2, 3, address(0), true, \"Simple Function Call\") */\n      jump\t// in\n    tag_22:\n        /* \"contracts/31stjuly.sol\":428:508  return someFuncWithManyInputs(1, 2, 3, address(0), true, \"Simple Function Call\") */\n      swap6\n      pop\n      swap6\n      pop\n      swap6\n      pop\n      swap6\n      pop\n      swap6\n      pop\n      swap6\n      pop\n        /* \"contracts/31stjuly.sol\":316:512  function callFunc() external pure returns (uint _x,uint _y,uint _z,address _a,bool _b,string memory _c ) {... */\n      swap1\n      swap2\n      swap3\n      swap4\n      swap5\n      swap6\n      jump\t// out\n        /* \"#utility.yul\":7:82   */\n    tag_23:\n        /* \"#utility.yul\":40:46   */\n      0x00\n        /* \"#utility.yul\":73:75   */\n      0x40\n        /* \"#utility.yul\":67:76   */\n      mload\n        /* \"#utility.yul\":57:76   */\n      swap1\n      pop\n        /* \"#utility.yul\":7:82   */\n      swap1\n      jump\t// out\n        /* \"#utility.yul\":88:205   */\n    tag_24:\n        /* \"#utility.yul\":197:198   */\n      0x00\n        /* \"#utility.yul\":194:195   */\n      dup1\n        /* \"#utility.yul\":187:199   */\n      revert\n        /* \"#utility.yul\":211:328   */\n    tag_25:\n        /* \"#utility.yul\":320:321   */\n      0x00\n        /* \"#utility.yul\":317:318   */\n      dup1\n        /* \"#utility.yul\":310:322   */\n      revert\n        /* \"#utility.yul\":334:411   */\n    tag_26:\n        /* \"#utility.yul\":371:378   */\n      0x00\n        /* \"#utility.yul\":400:405   */\n      dup2\n        /* \"#utility.yul\":389:405   */\n      swap1\n      pop\n        /* \"#utility.yul\":334:411   */\n      swap2\n      swap1\n      pop\n      jump\t// out\n        /* \"#utility.yul\":417:539   */\n    tag_27:\n        /* \"#utility.yul\":490:514   */\n      tag_59\n        /* \"#utility.yul\":508:513   */\n      dup2\n        /* \"#utility.yul\":490:514   */\n      tag_26\n      jump\t// in\n    tag_59:\n        /* \"#utility.yul\":483:488   */\n      dup2\n        /* \"#utility.yul\":480:515   */\n      eq\n        /* \"#utility.yul\":470:533   */\n      tag_60\n      jumpi\n        /* \"#utility.yul\":529:530   */\n      0x00\n        /* \"#utility.yul\":526:527   */\n      dup1\n        /* \"#utility.yul\":519:531   */\n      revert\n        /* \"#utility.yul\":470:533   */\n    tag_60:\n        /* \"#utility.yul\":417:539   */\n      pop\n      jump\t// out\n        /* \"#utility.yul\":545:684   */\n    tag_28:\n        /* \"#utility.yul\":591:596   */\n      0x00\n        /* \"#utility.yul\":629:635   */\n      dup2\n        /* \"#utility.yul\":616:636   */\n      calldataload\n        /* \"#utility.yul\":607:636   */\n      swap1\n      pop\n        /* \"#utility.yul\":645:678   */\n      tag_62\n        /* \"#utility.yul\":672:677   */\n      dup2\n        /* \"#utility.yul\":645:678   */\n      tag_27\n      jump\t// in\n    tag_62:\n        /* \"#utility.yul\":545:684   */\n      swap3\n      swap2\n      pop\n      pop\n      jump\t// out\n        /* \"#utility.yul\":690:816   */\n    tag_29:\n        /* \"#utility.yul\":727:734   */\n      0x00\n        /* \"#utility.yul\":767:809   */\n      0xffffffffffffffffffffffffffffffffffffffff\n        /* \"#utility.yul\":760:765   */\n      dup3\n        /* \"#utility.yul\":756:810   */\n      and\n        /* \"#utility.yul\":745:810   */\n      swap1\n      pop\n        /* \"#utility.yul\":690:816   */\n      swap2\n      swap1\n      pop\n      jump\t// out\n        /* \"#utility.yul\":822:918   */\n    tag_30:\n        /* \"#utility.yul\":859:866   */\n      0x00\n        /* \"#utility.yul\":888:912   */\n      tag_65\n        /* \"#utility.yul\":906:911   */\n      dup3\n        /* \"#utility.yul\":888:912   */\n      tag_29\n      jump\t// in\n    tag_65:\n        /* \"#utility.yul\":877:912   */\n      swap1\n      pop\n        /* \"#utility.yul\":822:918   */\n      swap2\n      swap1\n      pop\n      jump\t// out\n        /* \"#utility.yul\":924:1046   */\n    tag_31:\n        /* \"#utility.yul\":997:1021   */\n      tag_67\n        /* \"#utility.yul\":1015:1020   */\n      dup2\n        /* \"#utility.yul\":997:1021   */\n      tag_30\n      jump\t// in\n    tag_67:\n        /* \"#utility.yul\":990:995   */\n      dup2\n        /* \"#utility.yul\":987:1022   */\n      eq\n        /* \"#utility.yul\":977:1040   */\n      tag_68\n      jumpi\n        /* \"#utility.yul\":1036:1037   */\n      0x00\n        /* \"#utility.yul\":1033:1034   */\n      dup1\n        /* \"#utility.yul\":1026:1038   */\n      revert\n        /* \"#utility.yul\":977:1040   */\n    tag_68:\n        /* \"#utility.yul\":924:1046   */\n      pop\n      jump\t// out\n        /* \"#utility.yul\":1052:1191   */\n    tag_32:\n        /* \"#utility.yul\":1098:1103   */\n      0x00\n        /* \"#utility.yul\":1136:1142   */\n      dup2\n        /* \"#utility.yul\":1123:1143   */\n      calldataload\n        /* \"#utility.yul\":1114:1143   */\n      swap1\n      pop\n        /* \"#utility.yul\":1152:1185   */\n      tag_70\n        /* \"#utility.yul\":1179:1184   */\n      dup2\n        /* \"#utility.yul\":1152:1185   */\n      tag_31\n      jump\t// in\n    tag_70:\n        /* \"#utility.yul\":1052:1191   */\n      swap3\n      swap2\n      pop\n      pop\n      jump\t// out\n        /* \"#utility.yul\":1197:1287   */\n    tag_33:\n        /* \"#utility.yul\":1231:1238   */\n      0x00\n        /* \"#utility.yul\":1274:1279   */\n      dup2\n        /* \"#utility.yul\":1267:1280   */\n      iszero\n        /* \"#utility.yul\":1260:1281   */\n      iszero\n        /* \"#utility.yul\":1249:1281   */\n      swap1\n      pop\n        /* \"#utility.yul\":1197:1287   */\n      swap2\n      swap1\n      pop\n      jump\t// out\n        /* \"#utility.yul\":1293:1409   */\n    tag_34:\n        /* \"#utility.yul\":1363:1384   */\n      tag_73\n        /* \"#utility.yul\":1378:1383   */\n      dup2\n        /* \"#utility.yul\":1363:1384   */\n      tag_33\n      jump\t// in\n    tag_73:\n        /* \"#utility.yul\":1356:1361   */\n      dup2\n        /* \"#utility.yul\":1353:1385   */\n      eq\n        /* \"#utility.yul\":1343:1403   */\n      tag_74\n      jumpi\n        /* \"#utility.yul\":1399:1400   */\n      0x00\n        /* \"#utility.yul\":1396:1397   */\n      dup1\n        /* \"#utility.yul\":1389:1401   */\n      revert\n        /* \"#utility.yul\":1343:1403   */\n    tag_74:\n        /* \"#utility.yul\":1293:1409   */\n      pop\n      jump\t// out\n        /* \"#utility.yul\":1415:1548   */\n    tag_35:\n        /* \"#utility.yul\":1458:1463   */\n      0x00\n        /* \"#utility.yul\":1496:1502   */\n      dup2\n        /* \"#utility.yul\":1483:1503   */\n      calldataload\n        /* \"#utility.yul\":1474:1503   */\n      swap1\n      pop\n        /* \"#utility.yul\":1512:1542   */\n      tag_76\n        /* \"#utility.yul\":1536:1541   */\n      dup2\n        /* \"#utility.yul\":1512:1542   */\n      tag_34\n      jump\t// in\n    tag_76:\n        /* \"#utility.yul\":1415:1548   */\n      swap3\n      swap2\n      pop\n      pop\n      jump\t// out\n        /* \"#utility.yul\":1554:1671   */\n    tag_36:\n        /* \"#utility.yul\":1663:1664   */\n      0x00\n        /* \"#utility.yul\":1660:1661   */\n      dup1\n        /* \"#utility.yul\":1653:1665   */\n      revert\n        /* \"#utility.yul\":1677:1794   */\n    tag_37:\n        /* \"#utility.yul\":1786:1787   */\n      0x00\n        /* \"#utility.yul\":1783:1784   */\n      dup1\n        /* \"#utility.yul\":1776:1788   */\n      revert\n        /* \"#utility.yul\":1800:1902   */\n    tag_38:\n        /* \"#utility.yul\":1841:1847   */\n      0x00\n        /* \"#utility.yul\":1892:1894   */\n      0x1f\n        /* \"#utility.yul\":1888:1895   */\n      not\n        /* \"#utility.yul\":1883:1885   */\n      0x1f\n        /* \"#utility.yul\":1876:1881   */\n      dup4\n        /* \"#utility.yul\":1872:1886   */\n      add\n        /* \"#utility.yul\":1868:1896   */\n      and\n        /* \"#utility.yul\":1858:1896   */\n      swap1\n      pop\n        /* \"#utility.yul\":1800:1902   */\n      swap2\n      swap1\n      pop\n      jump\t// out\n        /* \"#utility.yul\":1908:2088   */\n    tag_39:\n        /* \"#utility.yul\":1956:2033   */\n      0x4e487b7100000000000000000000000000000000000000000000000000000000\n        /* \"#utility.yul\":1953:1954   */\n      0x00\n        /* \"#utility.yul\":1946:2034   */\n      mstore\n        /* \"#utility.yul\":2053:2057   */\n      0x41\n        /* \"#utility.yul\":2050:2051   */\n      0x04\n        /* \"#utility.yul\":2043:2058   */\n      mstore\n        /* \"#utility.yul\":2077:2081   */\n      0x24\n        /* \"#utility.yul\":2074:2075   */\n      0x00\n        /* \"#utility.yul\":2067:2082   */\n      revert\n        /* \"#utility.yul\":2094:2375   */\n    tag_40:\n        /* \"#utility.yul\":2177:2204   */\n      tag_82\n        /* \"#utility.yul\":2199:2203   */\n      dup3\n        /* \"#utility.yul\":2177:2204   */\n      tag_38\n      jump\t// in\n    tag_82:\n        /* \"#utility.yul\":2169:2175   */\n      dup2\n        /* \"#utility.yul\":2165:2205   */\n      add\n        /* \"#utility.yul\":2307:2313   */\n      dup2\n        /* \"#utility.yul\":2295:2305   */\n      dup2\n        /* \"#utility.yul\":2292:2314   */\n      lt\n        /* \"#utility.yul\":2271:2289   */\n      0xffffffffffffffff\n        /* \"#utility.yul\":2259:2269   */\n      dup3\n        /* \"#utility.yul\":2256:2290   */\n      gt\n        /* \"#utility.yul\":2253:2315   */\n      or\n        /* \"#utility.yul\":2250:2338   */\n      iszero\n      tag_83\n      jumpi\n        /* \"#utility.yul\":2318:2336   */\n      tag_84\n      tag_39\n      jump\t// in\n    tag_84:\n        /* \"#utility.yul\":2250:2338   */\n    tag_83:\n        /* \"#utility.yul\":2358:2368   */\n      dup1\n        /* \"#utility.yul\":2354:2356   */\n      0x40\n        /* \"#utility.yul\":2347:2369   */\n      mstore\n        /* \"#utility.yul\":2137:2375   */\n      pop\n        /* \"#utility.yul\":2094:2375   */\n      pop\n      pop\n      jump\t// out\n        /* \"#utility.yul\":2381:2510   */\n    tag_41:\n        /* \"#utility.yul\":2415:2421   */\n      0x00\n        /* \"#utility.yul\":2442:2462   */\n      tag_86\n      tag_23\n      jump\t// in\n    tag_86:\n        /* \"#utility.yul\":2432:2462   */\n      swap1\n      pop\n        /* \"#utility.yul\":2471:2504   */\n      tag_87\n        /* \"#utility.yul\":2499:2503   */\n      dup3\n        /* \"#utility.yul\":2491:2497   */\n      dup3\n        /* \"#utility.yul\":2471:2504   */\n      tag_40\n      jump\t// in\n    tag_87:\n        /* \"#utility.yul\":2381:2510   */\n      swap2\n      swap1\n      pop\n      jump\t// out\n        /* \"#utility.yul\":2516:2824   */\n    tag_42:\n        /* \"#utility.yul\":2578:2582   */\n      0x00\n        /* \"#utility.yul\":2668:2686   */\n      0xffffffffffffffff\n        /* \"#utility.yul\":2660:2666   */\n      dup3\n        /* \"#utility.yul\":2657:2687   */\n      gt\n        /* \"#utility.yul\":2654:2710   */\n      iszero\n      tag_89\n      jumpi\n        /* \"#utility.yul\":2690:2708   */\n      tag_90\n      tag_39\n      jump\t// in\n    tag_90:\n        /* \"#utility.yul\":2654:2710   */\n    tag_89:\n        /* \"#utility.yul\":2728:2757   */\n      tag_91\n        /* \"#utility.yul\":2750:2756   */\n      dup3\n        /* \"#utility.yul\":2728:2757   */\n      tag_38\n      jump\t// in\n    tag_91:\n        /* \"#utility.yul\":2720:2757   */\n      swap1\n      pop\n        /* \"#utility.yul\":2812:2816   */\n      0x20\n        /* \"#utility.yul\":2806:2810   */\n      dup2\n        /* \"#utility.yul\":2802:2817   */\n      add\n        /* \"#utility.yul\":2794:2817   */\n      swap1\n      pop\n        /* \"#utility.yul\":2516:2824   */\n      swap2\n      swap1\n      pop\n      jump\t// out\n        /* \"#utility.yul\":2830:2976   */\n    tag_43:\n        /* \"#utility.yul\":2927:2933   */\n      dup3\n        /* \"#utility.yul\":2922:2925   */\n      dup2\n        /* \"#utility.yul\":2917:2920   */\n      dup4\n        /* \"#utility.yul\":2904:2934   */\n      calldatacopy\n        /* \"#utility.yul\":2968:2969   */\n      0x00\n        /* \"#utility.yul\":2959:2965   */\n      dup4\n        /* \"#utility.yul\":2954:2957   */\n      dup4\n        /* \"#utility.yul\":2950:2966   */\n      add\n        /* \"#utility.yul\":2943:2970   */\n      mstore\n        /* \"#utility.yul\":2830:2976   */\n      pop\n      pop\n      pop\n      jump\t// out\n        /* \"#utility.yul\":2982:3407   */\n    tag_44:\n        /* \"#utility.yul\":3060:3065   */\n      0x00\n        /* \"#utility.yul\":3085:3151   */\n      tag_94\n        /* \"#utility.yul\":3101:3150   */\n      tag_95\n        /* \"#utility.yul\":3143:3149   */\n      dup5\n        /* \"#utility.yul\":3101:3150   */\n      tag_42\n      jump\t// in\n    tag_95:\n        /* \"#utility.yul\":3085:3151   */\n      tag_41\n      jump\t// in\n    tag_94:\n        /* \"#utility.yul\":3076:3151   */\n      swap1\n      pop\n        /* \"#utility.yul\":3174:3180   */\n      dup3\n        /* \"#utility.yul\":3167:3172   */\n      dup2\n        /* \"#utility.yul\":3160:3181   */\n      mstore\n        /* \"#utility.yul\":3212:3216   */\n      0x20\n        /* \"#utility.yul\":3205:3210   */\n      dup2\n        /* \"#utility.yul\":3201:3217   */\n      add\n        /* \"#utility.yul\":3250:3253   */\n      dup5\n        /* \"#utility.yul\":3241:3247   */\n      dup5\n        /* \"#utility.yul\":3236:3239   */\n      dup5\n        /* \"#utility.yul\":3232:3248   */\n      add\n        /* \"#utility.yul\":3229:3254   */\n      gt\n        /* \"#utility.yul\":3226:3338   */\n      iszero\n      tag_96\n      jumpi\n        /* \"#utility.yul\":3257:3336   */\n      tag_97\n      tag_37\n      jump\t// in\n    tag_97:\n        /* \"#utility.yul\":3226:3338   */\n    tag_96:\n        /* \"#utility.yul\":3347:3401   */\n      tag_98\n        /* \"#utility.yul\":3394:3400   */\n      dup5\n        /* \"#utility.yul\":3389:3392   */\n      dup3\n        /* \"#utility.yul\":3384:3387   */\n      dup6\n        /* \"#utility.yul\":3347:3401   */\n      tag_43\n      jump\t// in\n    tag_98:\n        /* \"#utility.yul\":3066:3407   */\n      pop\n        /* \"#utility.yul\":2982:3407   */\n      swap4\n      swap3\n      pop\n      pop\n      pop\n      jump\t// out\n        /* \"#utility.yul\":3427:3767   */\n    tag_45:\n        /* \"#utility.yul\":3483:3488   */\n      0x00\n        /* \"#utility.yul\":3532:3535   */\n      dup3\n        /* \"#utility.yul\":3525:3529   */\n      0x1f\n        /* \"#utility.yul\":3517:3523   */\n      dup4\n        /* \"#utility.yul\":3513:3530   */\n      add\n        /* \"#utility.yul\":3509:3536   */\n      slt\n        /* \"#utility.yul\":3499:3621   */\n      tag_100\n      jumpi\n        /* \"#utility.yul\":3540:3619   */\n      tag_101\n      tag_36\n      jump\t// in\n    tag_101:\n        /* \"#utility.yul\":3499:3621   */\n    tag_100:\n        /* \"#utility.yul\":3657:3663   */\n      dup2\n        /* \"#utility.yul\":3644:3664   */\n      calldataload\n        /* \"#utility.yul\":3682:3761   */\n      tag_102\n        /* \"#utility.yul\":3757:3760   */\n      dup5\n        /* \"#utility.yul\":3749:3755   */\n      dup3\n        /* \"#utility.yul\":3742:3746   */\n      0x20\n        /* \"#utility.yul\":3734:3740   */\n      dup7\n        /* \"#utility.yul\":3730:3747   */\n      add\n        /* \"#utility.yul\":3682:3761   */\n      tag_44\n      jump\t// in\n    tag_102:\n        /* \"#utility.yul\":3673:3761   */\n      swap2\n      pop\n        /* \"#utility.yul\":3489:3767   */\n      pop\n        /* \"#utility.yul\":3427:3767   */\n      swap3\n      swap2\n      pop\n      pop\n      jump\t// out\n        /* \"#utility.yul\":3773:5004   */\n    tag_8:\n        /* \"#utility.yul\":3884:3890   */\n      0x00\n        /* \"#utility.yul\":3892:3898   */\n      dup1\n        /* \"#utility.yul\":3900:3906   */\n      0x00\n        /* \"#utility.yul\":3908:3914   */\n      dup1\n        /* \"#utility.yul\":3916:3922   */\n      0x00\n        /* \"#utility.yul\":3924:3930   */\n      dup1\n        /* \"#utility.yul\":3973:3976   */\n      0xc0\n        /* \"#utility.yul\":3961:3970   */\n      dup8\n        /* \"#utility.yul\":3952:3959   */\n      dup10\n        /* \"#utility.yul\":3948:3971   */\n      sub\n        /* \"#utility.yul\":3944:3977   */\n      slt\n        /* \"#utility.yul\":3941:4061   */\n      iszero\n      tag_104\n      jumpi\n        /* \"#utility.yul\":3980:4059   */\n      tag_105\n      tag_24\n      jump\t// in\n    tag_105:\n        /* \"#utility.yul\":3941:4061   */\n    tag_104:\n        /* \"#utility.yul\":4100:4101   */\n      0x00\n        /* \"#utility.yul\":4125:4178   */\n      tag_106\n        /* \"#utility.yul\":4170:4177   */\n      dup10\n        /* \"#utility.yul\":4161:4167   */\n      dup3\n        /* \"#utility.yul\":4150:4159   */\n      dup11\n        /* \"#utility.yul\":4146:4168   */\n      add\n        /* \"#utility.yul\":4125:4178   */\n      tag_28\n      jump\t// in\n    tag_106:\n        /* \"#utility.yul\":4115:4178   */\n      swap7\n      pop\n        /* \"#utility.yul\":4071:4188   */\n      pop\n        /* \"#utility.yul\":4227:4229   */\n      0x20\n        /* \"#utility.yul\":4253:4306   */\n      tag_107\n        /* \"#utility.yul\":4298:4305   */\n      dup10\n        /* \"#utility.yul\":4289:4295   */\n      dup3\n        /* \"#utility.yul\":4278:4287   */\n      dup11\n        /* \"#utility.yul\":4274:4296   */\n      add\n        /* \"#utility.yul\":4253:4306   */\n      tag_28\n      jump\t// in\n    tag_107:\n        /* \"#utility.yul\":4243:4306   */\n      swap6\n      pop\n        /* \"#utility.yul\":4198:4316   */\n      pop\n        /* \"#utility.yul\":4355:4357   */\n      0x40\n        /* \"#utility.yul\":4381:4434   */\n      tag_108\n        /* \"#utility.yul\":4426:4433   */\n      dup10\n        /* \"#utility.yul\":4417:4423   */\n      dup3\n        /* \"#utility.yul\":4406:4415   */\n      dup11\n        /* \"#utility.yul\":4402:4424   */\n      add\n        /* \"#utility.yul\":4381:4434   */\n      tag_28\n      jump\t// in\n    tag_108:\n        /* \"#utility.yul\":4371:4434   */\n      swap5\n      pop\n        /* \"#utility.yul\":4326:4444   */\n      pop\n        /* \"#utility.yul\":4483:4485   */\n      0x60\n        /* \"#utility.yul\":4509:4562   */\n      tag_109\n        /* \"#utility.yul\":4554:4561   */\n      dup10\n        /* \"#utility.yul\":4545:4551   */\n      dup3\n        /* \"#utility.yul\":4534:4543   */\n      dup11\n        /* \"#utility.yul\":4530:4552   */\n      add\n        /* \"#utility.yul\":4509:4562   */\n      tag_32\n      jump\t// in\n    tag_109:\n        /* \"#utility.yul\":4499:4562   */\n      swap4\n      pop\n        /* \"#utility.yul\":4454:4572   */\n      pop\n        /* \"#utility.yul\":4611:4614   */\n      0x80\n        /* \"#utility.yul\":4638:4688   */\n      tag_110\n        /* \"#utility.yul\":4680:4687   */\n      dup10\n        /* \"#utility.yul\":4671:4677   */\n      dup3\n        /* \"#utility.yul\":4660:4669   */\n      dup11\n        /* \"#utility.yul\":4656:4678   */\n      add\n        /* \"#utility.yul\":4638:4688   */\n      tag_35\n      jump\t// in\n    tag_110:\n        /* \"#utility.yul\":4628:4688   */\n      swap3\n      pop\n        /* \"#utility.yul\":4582:4698   */\n      pop\n        /* \"#utility.yul\":4765:4768   */\n      0xa0\n        /* \"#utility.yul\":4754:4763   */\n      dup8\n        /* \"#utility.yul\":4750:4769   */\n      add\n        /* \"#utility.yul\":4737:4770   */\n      calldataload\n        /* \"#utility.yul\":4797:4815   */\n      0xffffffffffffffff\n        /* \"#utility.yul\":4789:4795   */\n      dup2\n        /* \"#utility.yul\":4786:4816   */\n      gt\n        /* \"#utility.yul\":4783:4900   */\n      iszero\n      tag_111\n      jumpi\n        /* \"#utility.yul\":4819:4898   */\n      tag_112\n      tag_25\n      jump\t// in\n    tag_112:\n        /* \"#utility.yul\":4783:4900   */\n    tag_111:\n        /* \"#utility.yul\":4924:4987   */\n      tag_113\n        /* \"#utility.yul\":4979:4986   */\n      dup10\n        /* \"#utility.yul\":4970:4976   */\n      dup3\n        /* \"#utility.yul\":4959:4968   */\n      dup11\n        /* \"#utility.yul\":4955:4977   */\n      add\n        /* \"#utility.yul\":4924:4987   */\n      tag_45\n      jump\t// in\n    tag_113:\n        /* \"#utility.yul\":4914:4987   */\n      swap2\n      pop\n        /* \"#utility.yul\":4708:4997   */\n      pop\n        /* \"#utility.yul\":3773:5004   */\n      swap3\n      swap6\n      pop\n      swap3\n      swap6\n      pop\n      swap3\n      swap6\n      jump\t// out\n        /* \"#utility.yul\":5010:5128   */\n    tag_46:\n        /* \"#utility.yul\":5097:5121   */\n      tag_115\n        /* \"#utility.yul\":5115:5120   */\n      dup2\n        /* \"#utility.yul\":5097:5121   */\n      tag_26\n      jump\t// in\n    tag_115:\n        /* \"#utility.yul\":5092:5095   */\n      dup3\n        /* \"#utility.yul\":5085:5122   */\n      mstore\n        /* \"#utility.yul\":5010:5128   */\n      pop\n      pop\n      jump\t// out\n        /* \"#utility.yul\":5134:5252   */\n    tag_47:\n        /* \"#utility.yul\":5221:5245   */\n      tag_117\n        /* \"#utility.yul\":5239:5244   */\n      dup2\n        /* \"#utility.yul\":5221:5245   */\n      tag_30\n      jump\t// in\n    tag_117:\n        /* \"#utility.yul\":5216:5219   */\n      dup3\n        /* \"#utility.yul\":5209:5246   */\n      mstore\n        /* \"#utility.yul\":5134:5252   */\n      pop\n      pop\n      jump\t// out\n        /* \"#utility.yul\":5258:5367   */\n    tag_48:\n        /* \"#utility.yul\":5339:5360   */\n      tag_119\n        /* \"#utility.yul\":5354:5359   */\n      dup2\n        /* \"#utility.yul\":5339:5360   */\n      tag_33\n      jump\t// in\n    tag_119:\n        /* \"#utility.yul\":5334:5337   */\n      dup3\n        /* \"#utility.yul\":5327:5361   */\n      mstore\n        /* \"#utility.yul\":5258:5367   */\n      pop\n      pop\n      jump\t// out\n        /* \"#utility.yul\":5373:5472   */\n    tag_49:\n        /* \"#utility.yul\":5425:5431   */\n      0x00\n        /* \"#utility.yul\":5459:5464   */\n      dup2\n        /* \"#utility.yul\":5453:5465   */\n      mload\n        /* \"#utility.yul\":5443:5465   */\n      swap1\n      pop\n        /* \"#utility.yul\":5373:5472   */\n      swap2\n      swap1\n      pop\n      jump\t// out\n        /* \"#utility.yul\":5478:5647   */\n    tag_50:\n        /* \"#utility.yul\":5562:5573   */\n      0x00\n        /* \"#utility.yul\":5596:5602   */\n      dup3\n        /* \"#utility.yul\":5591:5594   */\n      dup3\n        /* \"#utility.yul\":5584:5603   */\n      mstore\n        /* \"#utility.yul\":5636:5640   */\n      0x20\n        /* \"#utility.yul\":5631:5634   */\n      dup3\n        /* \"#utility.yul\":5627:5641   */\n      add\n        /* \"#utility.yul\":5612:5641   */\n      swap1\n      pop\n        /* \"#utility.yul\":5478:5647   */\n      swap3\n      swap2\n      pop\n      pop\n      jump\t// out\n        /* \"#utility.yul\":5653:5899   */\n    tag_51:\n        /* \"#utility.yul\":5734:5735   */\n      0x00\n        /* \"#utility.yul\":5744:5857   */\n    tag_123:\n        /* \"#utility.yul\":5758:5764   */\n      dup4\n        /* \"#utility.yul\":5755:5756   */\n      dup2\n        /* \"#utility.yul\":5752:5765   */\n      lt\n        /* \"#utility.yul\":5744:5857   */\n      iszero\n      tag_125\n      jumpi\n        /* \"#utility.yul\":5843:5844   */\n      dup1\n        /* \"#utility.yul\":5838:5841   */\n      dup3\n        /* \"#utility.yul\":5834:5845   */\n      add\n        /* \"#utility.yul\":5828:5846   */\n      mload\n        /* \"#utility.yul\":5824:5825   */\n      dup2\n        /* \"#utility.yul\":5819:5822   */\n      dup5\n        /* \"#utility.yul\":5815:5826   */\n      add\n        /* \"#utility.yul\":5808:5847   */\n      mstore\n        /* \"#utility.yul\":5780:5782   */\n      0x20\n        /* \"#utility.yul\":5777:5778   */\n      dup2\n        /* \"#utility.yul\":5773:5783   */\n      add\n        /* \"#utility.yul\":5768:5783   */\n      swap1\n      pop\n        /* \"#utility.yul\":5744:5857   */\n      jump(tag_123)\n    tag_125:\n        /* \"#utility.yul\":5891:5892   */\n      0x00\n        /* \"#utility.yul\":5882:5888   */\n      dup5\n        /* \"#utility.yul\":5877:5880   */\n      dup5\n        /* \"#utility.yul\":5873:5889   */\n      add\n        /* \"#utility.yul\":5866:5893   */\n      mstore\n        /* \"#utility.yul\":5715:5899   */\n      pop\n        /* \"#utility.yul\":5653:5899   */\n      pop\n      pop\n      pop\n      jump\t// out\n        /* \"#utility.yul\":5905:6282   */\n    tag_52:\n        /* \"#utility.yul\":5993:5996   */\n      0x00\n        /* \"#utility.yul\":6021:6060   */\n      tag_127\n        /* \"#utility.yul\":6054:6059   */\n      dup3\n        /* \"#utility.yul\":6021:6060   */\n      tag_49\n      jump\t// in\n    tag_127:\n        /* \"#utility.yul\":6076:6147   */\n      tag_128\n        /* \"#utility.yul\":6140:6146   */\n      dup2\n        /* \"#utility.yul\":6135:6138   */\n      dup6\n        /* \"#utility.yul\":6076:6147   */\n      tag_50\n      jump\t// in\n    tag_128:\n        /* \"#utility.yul\":6069:6147   */\n      swap4\n      pop\n        /* \"#utility.yul\":6156:6221   */\n      tag_129\n        /* \"#utility.yul\":6214:6220   */\n      dup2\n        /* \"#utility.yul\":6209:6212   */\n      dup6\n        /* \"#utility.yul\":6202:6206   */\n      0x20\n        /* \"#utility.yul\":6195:6200   */\n      dup7\n        /* \"#utility.yul\":6191:6207   */\n      add\n        /* \"#utility.yul\":6156:6221   */\n      tag_51\n      jump\t// in\n    tag_129:\n        /* \"#utility.yul\":6246:6275   */\n      tag_130\n        /* \"#utility.yul\":6268:6274   */\n      dup2\n        /* \"#utility.yul\":6246:6275   */\n      tag_38\n      jump\t// in\n    tag_130:\n        /* \"#utility.yul\":6241:6244   */\n      dup5\n        /* \"#utility.yul\":6237:6276   */\n      add\n        /* \"#utility.yul\":6230:6276   */\n      swap2\n      pop\n        /* \"#utility.yul\":5997:6282   */\n      pop\n        /* \"#utility.yul\":5905:6282   */\n      swap3\n      swap2\n      pop\n      pop\n      jump\t// out\n        /* \"#utility.yul\":6288:7142   */\n    tag_11:\n        /* \"#utility.yul\":6535:6539   */\n      0x00\n        /* \"#utility.yul\":6573:6576   */\n      0xc0\n        /* \"#utility.yul\":6562:6571   */\n      dup3\n        /* \"#utility.yul\":6558:6577   */\n      add\n        /* \"#utility.yul\":6550:6577   */\n      swap1\n      pop\n        /* \"#utility.yul\":6587:6658   */\n      tag_132\n        /* \"#utility.yul\":6655:6656   */\n      0x00\n        /* \"#utility.yul\":6644:6653   */\n      dup4\n        /* \"#utility.yul\":6640:6657   */\n      add\n        /* \"#utility.yul\":6631:6637   */\n      dup10\n        /* \"#utility.yul\":6587:6658   */\n      tag_46\n      jump\t// in\n    tag_132:\n        /* \"#utility.yul\":6668:6740   */\n      tag_133\n        /* \"#utility.yul\":6736:6738   */\n      0x20\n        /* \"#utility.yul\":6725:6734   */\n      dup4\n        /* \"#utility.yul\":6721:6739   */\n      add\n        /* \"#utility.yul\":6712:6718   */\n      dup9\n        /* \"#utility.yul\":6668:6740   */\n      tag_46\n      jump\t// in\n    tag_133:\n        /* \"#utility.yul\":6750:6822   */\n      tag_134\n        /* \"#utility.yul\":6818:6820   */\n      0x40\n        /* \"#utility.yul\":6807:6816   */\n      dup4\n        /* \"#utility.yul\":6803:6821   */\n      add\n        /* \"#utility.yul\":6794:6800   */\n      dup8\n        /* \"#utility.yul\":6750:6822   */\n      tag_46\n      jump\t// in\n    tag_134:\n        /* \"#utility.yul\":6832:6904   */\n      tag_135\n        /* \"#utility.yul\":6900:6902   */\n      0x60\n        /* \"#utility.yul\":6889:6898   */\n      dup4\n        /* \"#utility.yul\":6885:6903   */\n      add\n        /* \"#utility.yul\":6876:6882   */\n      dup7\n        /* \"#utility.yul\":6832:6904   */\n      tag_47\n      jump\t// in\n    tag_135:\n        /* \"#utility.yul\":6914:6981   */\n      tag_136\n        /* \"#utility.yul\":6976:6979   */\n      0x80\n        /* \"#utility.yul\":6965:6974   */\n      dup4\n        /* \"#utility.yul\":6961:6980   */\n      add\n        /* \"#utility.yul\":6952:6958   */\n      dup6\n        /* \"#utility.yul\":6914:6981   */\n      tag_48\n      jump\t// in\n    tag_136:\n        /* \"#utility.yul\":7029:7038   */\n      dup2\n        /* \"#utility.yul\":7023:7027   */\n      dup2\n        /* \"#utility.yul\":7019:7039   */\n      sub\n        /* \"#utility.yul\":7013:7016   */\n      0xa0\n        /* \"#utility.yul\":7002:7011   */\n      dup4\n        /* \"#utility.yul\":6998:7017   */\n      add\n        /* \"#utility.yul\":6991:7040   */\n      mstore\n        /* \"#utility.yul\":7057:7135   */\n      tag_137\n        /* \"#utility.yul\":7130:7134   */\n      dup2\n        /* \"#utility.yul\":7121:7127   */\n      dup5\n        /* \"#utility.yul\":7057:7135   */\n      tag_52\n      jump\t// in\n    tag_137:\n        /* \"#utility.yul\":7049:7135   */\n      swap1\n      pop\n        /* \"#utility.yul\":6288:7142   */\n      swap8\n      swap7\n      pop\n      pop\n      pop\n      pop\n      pop\n      pop\n      pop\n      jump\t// out\n\n    auxdata: 0xa26469706673582212202d5f8d78fdf20d0864d3795c10c416d5e4e4e5b9f7caf2ab71fb3be4d3b16f2364736f6c63430008120033\n}\n",
				"bytecode": {
					"linkReferences": {},
					"object": "608060405234801561001057600080fd5b506105d1806100206000396000f3fe608060405234801561001057600080fd5b50600436106100415760003560e01c8063127b4e0814610046578063720579871461007b5780639a7846b91461009e575b600080fd5b610060600480360381019061005b91906103de565b6100c1565b60405161007296959493929190610533565b60405180910390f35b6100836100ec565b60405161009596959493929190610533565b60405180910390f35b6100a6610152565b6040516100b896959493929190610533565b60405180910390f35b600080600080600060608b95508a945089935088925087915086905096509650965096509650969050565b6000806000806000606061013e600160026003600060016040518060400160405280601c81526020017f46756e6374696f6e2043616c6c2077697468204b65792056616c7565000000008152506100c1565b955095509550955095509550909192939495565b600080600080600060606101a4600160026003600060016040518060400160405280601481526020017f53696d706c652046756e6374696f6e2043616c6c0000000000000000000000008152506100c1565b955095509550955095509550909192939495565b6000604051905090565b600080fd5b600080fd5b6000819050919050565b6101df816101cc565b81146101ea57600080fd5b50565b6000813590506101fc816101d6565b92915050565b600073ffffffffffffffffffffffffffffffffffffffff82169050919050565b600061022d82610202565b9050919050565b61023d81610222565b811461024857600080fd5b50565b60008135905061025a81610234565b92915050565b60008115159050919050565b61027581610260565b811461028057600080fd5b50565b6000813590506102928161026c565b92915050565b600080fd5b600080fd5b6000601f19601f8301169050919050565b7f4e487b7100000000000000000000000000000000000000000000000000000000600052604160045260246000fd5b6102eb826102a2565b810181811067ffffffffffffffff8211171561030a576103096102b3565b5b80604052505050565b600061031d6101b8565b905061032982826102e2565b919050565b600067ffffffffffffffff821115610349576103486102b3565b5b610352826102a2565b9050602081019050919050565b82818337600083830152505050565b600061038161037c8461032e565b610313565b90508281526020810184848401111561039d5761039c61029d565b5b6103a884828561035f565b509392505050565b600082601f8301126103c5576103c4610298565b5b81356103d584826020860161036e565b91505092915050565b60008060008060008060c087890312156103fb576103fa6101c2565b5b600061040989828a016101ed565b965050602061041a89828a016101ed565b955050604061042b89828a016101ed565b945050606061043c89828a0161024b565b935050608061044d89828a01610283565b92505060a087013567ffffffffffffffff81111561046e5761046d6101c7565b5b61047a89828a016103b0565b9150509295509295509295565b610490816101cc565b82525050565b61049f81610222565b82525050565b6104ae81610260565b82525050565b600081519050919050565b600082825260208201905092915050565b60005b838110156104ee5780820151818401526020810190506104d3565b60008484015250505050565b6000610505826104b4565b61050f81856104bf565b935061051f8185602086016104d0565b610528816102a2565b840191505092915050565b600060c0820190506105486000830189610487565b6105556020830188610487565b6105626040830187610487565b61056f6060830186610496565b61057c60808301856104a5565b81810360a083015261058e81846104fa565b905097965050505050505056fea26469706673582212202d5f8d78fdf20d0864d3795c10c416d5e4e4e5b9f7caf2ab71fb3be4d3b16f2364736f6c63430008120033",
					"opcodes": "PUSH1 0x80 PUSH1 0x40 MSTORE CALLVALUE DUP1 ISZERO PUSH2 0x10 JUMPI PUSH1 0x0 DUP1 REVERT JUMPDEST POP PUSH2 0x5D1 DUP1 PUSH2 0x20 PUSH1 0x0 CODECOPY PUSH1 0x0 RETURN INVALID PUSH1 0x80 PUSH1 0x40 MSTORE CALLVALUE DUP1 ISZERO PUSH2 0x10 JUMPI PUSH1 0x0 DUP1 REVERT JUMPDEST POP PUSH1 0x4 CALLDATASIZE LT PUSH2 0x41 JUMPI PUSH1 0x0 CALLDATALOAD PUSH1 0xE0 SHR DUP1 PUSH4 0x127B4E08 EQ PUSH2 0x46 JUMPI DUP1 PUSH4 0x72057987 EQ PUSH2 0x7B JUMPI DUP1 PUSH4 0x9A7846B9 EQ PUSH2 0x9E JUMPI JUMPDEST PUSH1 0x0 DUP1 REVERT JUMPDEST PUSH2 0x60 PUSH1 0x4 DUP1 CALLDATASIZE SUB DUP2 ADD SWAP1 PUSH2 0x5B SWAP2 SWAP1 PUSH2 0x3DE JUMP JUMPDEST PUSH2 0xC1 JUMP JUMPDEST PUSH1 0x40 MLOAD PUSH2 0x72 SWAP7 SWAP6 SWAP5 SWAP4 SWAP3 SWAP2 SWAP1 PUSH2 0x533 JUMP JUMPDEST PUSH1 0x40 MLOAD DUP1 SWAP2 SUB SWAP1 RETURN JUMPDEST PUSH2 0x83 PUSH2 0xEC JUMP JUMPDEST PUSH1 0x40 MLOAD PUSH2 0x95 SWAP7 SWAP6 SWAP5 SWAP4 SWAP3 SWAP2 SWAP1 PUSH2 0x533 JUMP JUMPDEST PUSH1 0x40 MLOAD DUP1 SWAP2 SUB SWAP1 RETURN JUMPDEST PUSH2 0xA6 PUSH2 0x152 JUMP JUMPDEST PUSH1 0x40 MLOAD PUSH2 0xB8 SWAP7 SWAP6 SWAP5 SWAP4 SWAP3 SWAP2 SWAP1 PUSH2 0x533 JUMP JUMPDEST PUSH1 0x40 MLOAD DUP1 SWAP2 SUB SWAP1 RETURN JUMPDEST PUSH1 0x0 DUP1 PUSH1 0x0 DUP1 PUSH1 0x0 PUSH1 0x60 DUP12 SWAP6 POP DUP11 SWAP5 POP DUP10 SWAP4 POP DUP9 SWAP3 POP DUP8 SWAP2 POP DUP7 SWAP1 POP SWAP7 POP SWAP7 POP SWAP7 POP SWAP7 POP SWAP7 POP SWAP7 SWAP1 POP JUMP JUMPDEST PUSH1 0x0 DUP1 PUSH1 0x0 DUP1 PUSH1 0x0 PUSH1 0x60 PUSH2 0x13E PUSH1 0x1 PUSH1 0x2 PUSH1 0x3 PUSH1 0x0 PUSH1 0x1 PUSH1 0x40 MLOAD DUP1 PUSH1 0x40 ADD PUSH1 0x40 MSTORE DUP1 PUSH1 0x1C DUP2 MSTORE PUSH1 0x20 ADD PUSH32 0x46756E6374696F6E2043616C6C2077697468204B65792056616C756500000000 DUP2 MSTORE POP PUSH2 0xC1 JUMP JUMPDEST SWAP6 POP SWAP6 POP SWAP6 POP SWAP6 POP SWAP6 POP SWAP6 POP SWAP1 SWAP2 SWAP3 SWAP4 SWAP5 SWAP6 JUMP JUMPDEST PUSH1 0x0 DUP1 PUSH1 0x0 DUP1 PUSH1 0x0 PUSH1 0x60 PUSH2 0x1A4 PUSH1 0x1 PUSH1 0x2 PUSH1 0x3 PUSH1 0x0 PUSH1 0x1 PUSH1 0x40 MLOAD DUP1 PUSH1 0x40 ADD PUSH1 0x40 MSTORE DUP1 PUSH1 0x14 DUP2 MSTORE PUSH1 0x20 ADD PUSH32 0x53696D706C652046756E6374696F6E2043616C6C000000000000000000000000 DUP2 MSTORE POP PUSH2 0xC1 JUMP JUMPDEST SWAP6 POP SWAP6 POP SWAP6 POP SWAP6 POP SWAP6 POP SWAP6 POP SWAP1 SWAP2 SWAP3 SWAP4 SWAP5 SWAP6 JUMP JUMPDEST PUSH1 0x0 PUSH1 0x40 MLOAD SWAP1 POP SWAP1 JUMP JUMPDEST PUSH1 0x0 DUP1 REVERT JUMPDEST PUSH1 0x0 DUP1 REVERT JUMPDEST PUSH1 0x0 DUP2 SWAP1 POP SWAP2 SWAP1 POP JUMP JUMPDEST PUSH2 0x1DF DUP2 PUSH2 0x1CC JUMP JUMPDEST DUP2 EQ PUSH2 0x1EA JUMPI PUSH1 0x0 DUP1 REVERT JUMPDEST POP JUMP JUMPDEST PUSH1 0x0 DUP2 CALLDATALOAD SWAP1 POP PUSH2 0x1FC DUP2 PUSH2 0x1D6 JUMP JUMPDEST SWAP3 SWAP2 POP POP JUMP JUMPDEST PUSH1 0x0 PUSH20 0xFFFFFFFFFFFFFFFFFFFFFFFFFFFFFFFFFFFFFFFF DUP3 AND SWAP1 POP SWAP2 SWAP1 POP JUMP JUMPDEST PUSH1 0x0 PUSH2 0x22D DUP3 PUSH2 0x202 JUMP JUMPDEST SWAP1 POP SWAP2 SWAP1 POP JUMP JUMPDEST PUSH2 0x23D DUP2 PUSH2 0x222 JUMP JUMPDEST DUP2 EQ PUSH2 0x248 JUMPI PUSH1 0x0 DUP1 REVERT JUMPDEST POP JUMP JUMPDEST PUSH1 0x0 DUP2 CALLDATALOAD SWAP1 POP PUSH2 0x25A DUP2 PUSH2 0x234 JUMP JUMPDEST SWAP3 SWAP2 POP POP JUMP JUMPDEST PUSH1 0x0 DUP2 ISZERO ISZERO SWAP1 POP SWAP2 SWAP1 POP JUMP JUMPDEST PUSH2 0x275 DUP2 PUSH2 0x260 JUMP JUMPDEST DUP2 EQ PUSH2 0x280 JUMPI PUSH1 0x0 DUP1 REVERT JUMPDEST POP JUMP JUMPDEST PUSH1 0x0 DUP2 CALLDATALOAD SWAP1 POP PUSH2 0x292 DUP2 PUSH2 0x26C JUMP JUMPDEST SWAP3 SWAP2 POP POP JUMP JUMPDEST PUSH1 0x0 DUP1 REVERT JUMPDEST PUSH1 0x0 DUP1 REVERT JUMPDEST PUSH1 0x0 PUSH1 0x1F NOT PUSH1 0x1F DUP4 ADD AND SWAP1 POP SWAP2 SWAP1 POP JUMP JUMPDEST PUSH32 0x4E487B7100000000000000000000000000000000000000000000000000000000 PUSH1 0x0 MSTORE PUSH1 0x41 PUSH1 0x4 MSTORE PUSH1 0x24 PUSH1 0x0 REVERT JUMPDEST PUSH2 0x2EB DUP3 PUSH2 0x2A2 JUMP JUMPDEST DUP2 ADD DUP2 DUP2 LT PUSH8 0xFFFFFFFFFFFFFFFF DUP3 GT OR ISZERO PUSH2 0x30A JUMPI PUSH2 0x309 PUSH2 0x2B3 JUMP JUMPDEST JUMPDEST DUP1 PUSH1 0x40 MSTORE POP POP POP JUMP JUMPDEST PUSH1 0x0 PUSH2 0x31D PUSH2 0x1B8 JUMP JUMPDEST SWAP1 POP PUSH2 0x329 DUP3 DUP3 PUSH2 0x2E2 JUMP JUMPDEST SWAP2 SWAP1 POP JUMP JUMPDEST PUSH1 0x0 PUSH8 0xFFFFFFFFFFFFFFFF DUP3 GT ISZERO PUSH2 0x349 JUMPI PUSH2 0x348 PUSH2 0x2B3 JUMP JUMPDEST JUMPDEST PUSH2 0x352 DUP3 PUSH2 0x2A2 JUMP JUMPDEST SWAP1 POP PUSH1 0x20 DUP2 ADD SWAP1 POP SWAP2 SWAP1 POP JUMP JUMPDEST DUP3 DUP2 DUP4 CALLDATACOPY PUSH1 0x0 DUP4 DUP4 ADD MSTORE POP POP POP JUMP JUMPDEST PUSH1 0x0 PUSH2 0x381 PUSH2 0x37C DUP5 PUSH2 0x32E JUMP JUMPDEST PUSH2 0x313 JUMP JUMPDEST SWAP1 POP DUP3 DUP2 MSTORE PUSH1 0x20 DUP2 ADD DUP5 DUP5 DUP5 ADD GT ISZERO PUSH2 0x39D JUMPI PUSH2 0x39C PUSH2 0x29D JUMP JUMPDEST JUMPDEST PUSH2 0x3A8 DUP5 DUP3 DUP6 PUSH2 0x35F JUMP JUMPDEST POP SWAP4 SWAP3 POP POP POP JUMP JUMPDEST PUSH1 0x0 DUP3 PUSH1 0x1F DUP4 ADD SLT PUSH2 0x3C5 JUMPI PUSH2 0x3C4 PUSH2 0x298 JUMP JUMPDEST JUMPDEST DUP2 CALLDATALOAD PUSH2 0x3D5 DUP5 DUP3 PUSH1 0x20 DUP7 ADD PUSH2 0x36E JUMP JUMPDEST SWAP2 POP POP SWAP3 SWAP2 POP POP JUMP JUMPDEST PUSH1 0x0 DUP1 PUSH1 0x0 DUP1 PUSH1 0x0 DUP1 PUSH1 0xC0 DUP8 DUP10 SUB SLT ISZERO PUSH2 0x3FB JUMPI PUSH2 0x3FA PUSH2 0x1C2 JUMP JUMPDEST JUMPDEST PUSH1 0x0 PUSH2 0x409 DUP10 DUP3 DUP11 ADD PUSH2 0x1ED JUMP JUMPDEST SWAP7 POP POP PUSH1 0x20 PUSH2 0x41A DUP10 DUP3 DUP11 ADD PUSH2 0x1ED JUMP JUMPDEST SWAP6 POP POP PUSH1 0x40 PUSH2 0x42B DUP10 DUP3 DUP11 ADD PUSH2 0x1ED JUMP JUMPDEST SWAP5 POP POP PUSH1 0x60 PUSH2 0x43C DUP10 DUP3 DUP11 ADD PUSH2 0x24B JUMP JUMPDEST SWAP4 POP POP PUSH1 0x80 PUSH2 0x44D DUP10 DUP3 DUP11 ADD PUSH2 0x283 JUMP JUMPDEST SWAP3 POP POP PUSH1 0xA0 DUP8 ADD CALLDATALOAD PUSH8 0xFFFFFFFFFFFFFFFF DUP2 GT ISZERO PUSH2 0x46E JUMPI PUSH2 0x46D PUSH2 0x1C7 JUMP JUMPDEST JUMPDEST PUSH2 0x47A DUP10 DUP3 DUP11 ADD PUSH2 0x3B0 JUMP JUMPDEST SWAP2 POP POP SWAP3 SWAP6 POP SWAP3 SWAP6 POP SWAP3 SWAP6 JUMP JUMPDEST PUSH2 0x490 DUP2 PUSH2 0x1CC JUMP JUMPDEST DUP3 MSTORE POP POP JUMP JUMPDEST PUSH2 0x49F DUP2 PUSH2 0x222 JUMP JUMPDEST DUP3 MSTORE POP POP JUMP JUMPDEST PUSH2 0x4AE DUP2 PUSH2 0x260 JUMP JUMPDEST DUP3 MSTORE POP POP JUMP JUMPDEST PUSH1 0x0 DUP2 MLOAD SWAP1 POP SWAP2 SWAP1 POP JUMP JUMPDEST PUSH1 0x0 DUP3 DUP3 MSTORE PUSH1 0x20 DUP3 ADD SWAP1 POP SWAP3 SWAP2 POP POP JUMP JUMPDEST PUSH1 0x0 JUMPDEST DUP4 DUP2 LT ISZERO PUSH2 0x4EE JUMPI DUP1 DUP3 ADD MLOAD DUP2 DUP5 ADD MSTORE PUSH1 0x20 DUP2 ADD SWAP1 POP PUSH2 0x4D3 JUMP JUMPDEST PUSH1 0x0 DUP5 DUP5 ADD MSTORE POP POP POP POP JUMP JUMPDEST PUSH1 0x0 PUSH2 0x505 DUP3 PUSH2 0x4B4 JUMP JUMPDEST PUSH2 0x50F DUP2 DUP6 PUSH2 0x4BF JUMP JUMPDEST SWAP4 POP PUSH2 0x51F DUP2 DUP6 PUSH1 0x20 DUP7 ADD PUSH2 0x4D0 JUMP JUMPDEST PUSH2 0x528 DUP2 PUSH2 0x2A2 JUMP JUMPDEST DUP5 ADD SWAP2 POP POP SWAP3 SWAP2 POP POP JUMP JUMPDEST PUSH1 0x0 PUSH1 0xC0 DUP3 ADD SWAP1 POP PUSH2 0x548 PUSH1 0x0 DUP4 ADD DUP10 PUSH2 0x487 JUMP JUMPDEST PUSH2 0x555 PUSH1 0x20 DUP4 ADD DUP9 PUSH2 0x487 JUMP JUMPDEST PUSH2 0x562 PUSH1 0x40 DUP4 ADD DUP8 PUSH2 0x487 JUMP JUMPDEST PUSH2 0x56F PUSH1 0x60 DUP4 ADD DUP7 PUSH2 0x496 JUMP JUMPDEST PUSH2 0x57C PUSH1 0x80 DUP4 ADD DUP6 PUSH2 0x4A5 JUMP JUMPDEST DUP2 DUP2 SUB PUSH1 0xA0 DUP4 ADD MSTORE PUSH2 0x58E DUP2 DUP5 PUSH2 0x4FA JUMP JUMPDEST SWAP1 POP SWAP8 SWAP7 POP POP POP POP POP POP POP JUMP INVALID LOG2 PUSH5 0x6970667358 0x22 SLT KECCAK256 0x2D 0x5F DUP14 PUSH25 0xFDF20D0864D3795C10C416D5E4E4E5B9F7CAF2AB71FB3BE4D3 0xB1 PUSH16 0x2364736F6C6343000812003300000000 "
				},
				"gasEstimates": {
					"creation": {
						"codeDepositCost": "297800",
						"executionCost": "337",
						"totalCost": "298137"
					},
					"external": {
						"callFunc()": "infinite",
						"callFuncWithKeyValue()": "infinite",
						"someFuncWithManyInputs(uint256,uint256,uint256,address,bool,string)": "infinite"
					}
				},
				"methodIdentifiers": {
					"callFunc()": "9a7846b9",
					"callFuncWithKeyValue()": "72057987",
					"someFuncWithManyInputs(uint256,uint256,uint256,address,bool,string)": "127b4e08"
				}
			},
			"storageLayout": {
				"storage": [],
				"types": null
			},
			"userdoc": {
				"kind": "user",
				"methods": {},
				"version": 1
			}
		}
	}
}