{
	"contracts/31stjuly.sol": {
		"dynamicSizedArray": {
			"abi": [
				{
					"inputs": [
						{
							"internalType": "uint256",
							"name": "",
							"type": "uint256"
						}
					],
					"name": "arr2",
					"outputs": [
						{
							"internalType": "string",
							"name": "",
							"type": "string"
						}
					],
					"stateMutability": "view",
					"type": "function"
				},
				{
					"inputs": [],
					"name": "get",
					"outputs": [
						{
							"internalType": "string[]",
							"name": "",
							"type": "string[]"
						}
					],
					"stateMutability": "view",
					"type": "function"
				},
				{
					"inputs": [],
					"name": "pop",
					"outputs": [],
					"stateMutability": "nonpayable",
					"type": "function"
				},
				{
					"inputs": [
						{
							"internalType": "string",
							"name": "_name",
							"type": "string"
						}
					],
					"name": "push",
					"outputs": [
						{
							"internalType": "uint256",
							"name": "",
							"type": "uint256"
						}
					],
					"stateMutability": "nonpayable",
					"type": "function"
				}
			],
			"devdoc": {
				"kind": "dev",
				"methods": {},
				"version": 1
			},
			"evm": {
				"assembly": "    /* \"contracts/31stjuly.sol\":2084:2422  contract dynamicSizedArray{... */\n  mstore(0x40, 0x80)\n  callvalue\n  dup1\n  iszero\n  tag_1\n  jumpi\n  0x00\n  dup1\n  revert\ntag_1:\n  pop\n  dataSize(sub_0)\n  dup1\n  dataOffset(sub_0)\n  0x00\n  codecopy\n  0x00\n  return\nstop\n\nsub_0: assembly {\n        /* \"contracts/31stjuly.sol\":2084:2422  contract dynamicSizedArray{... */\n      mstore(0x40, 0x80)\n      callvalue\n      dup1\n      iszero\n      tag_1\n      jumpi\n      0x00\n      dup1\n      revert\n    tag_1:\n      pop\n      jumpi(tag_2, lt(calldatasize, 0x04))\n      shr(0xe0, calldataload(0x00))\n      dup1\n      0x4f3d057a\n      eq\n      tag_3\n      jumpi\n      dup1\n      0x6d4ce63c\n      eq\n      tag_4\n      jumpi\n      dup1\n      0xa4ece52c\n      eq\n      tag_5\n      jumpi\n      dup1\n      0xedf0099b\n      eq\n      tag_6\n      jumpi\n    tag_2:\n      0x00\n      dup1\n      revert\n        /* \"contracts/31stjuly.sol\":2144:2263  function push(string memory _name) public returns(uint){... */\n    tag_3:\n      tag_7\n      0x04\n      dup1\n      calldatasize\n      sub\n      dup2\n      add\n      swap1\n      tag_8\n      swap2\n      swap1\n      tag_9\n      jump\t// in\n    tag_8:\n      tag_10\n      jump\t// in\n    tag_7:\n      mload(0x40)\n      tag_11\n      swap2\n      swap1\n      tag_12\n      jump\t// in\n    tag_11:\n      mload(0x40)\n      dup1\n      swap2\n      sub\n      swap1\n      return\n        /* \"contracts/31stjuly.sol\":2325:2415  function get()public view returns(string[] memory){... */\n    tag_4:\n      tag_13\n      tag_14\n      jump\t// in\n    tag_13:\n      mload(0x40)\n      tag_15\n      swap2\n      swap1\n      tag_16\n      jump\t// in\n    tag_15:\n      mload(0x40)\n      dup1\n      swap2\n      sub\n      swap1\n      return\n        /* \"contracts/31stjuly.sol\":2269:2319  function pop() public{... */\n    tag_5:\n      tag_17\n      tag_18\n      jump\t// in\n    tag_17:\n      stop\n        /* \"contracts/31stjuly.sol\":2117:2137  string[] public arr2 */\n    tag_6:\n      tag_19\n      0x04\n      dup1\n      calldatasize\n      sub\n      dup2\n      add\n      swap1\n      tag_20\n      swap2\n      swap1\n      tag_21\n      jump\t// in\n    tag_20:\n      tag_22\n      jump\t// in\n    tag_19:\n      mload(0x40)\n      tag_23\n      swap2\n      swap1\n      tag_24\n      jump\t// in\n    tag_23:\n      mload(0x40)\n      dup1\n      swap2\n      sub\n      swap1\n      return\n        /* \"contracts/31stjuly.sol\":2144:2263  function push(string memory _name) public returns(uint){... */\n    tag_10:\n        /* \"contracts/31stjuly.sol\":2194:2198  uint */\n      0x00\n        /* \"contracts/31stjuly.sol\":2210:2214  arr2 */\n      dup1\n        /* \"contracts/31stjuly.sol\":2220:2225  _name */\n      dup3\n        /* \"contracts/31stjuly.sol\":2210:2226  arr2.push(_name) */\n      swap1\n      dup1\n      0x01\n      dup2\n      sload\n      add\n      dup1\n      dup3\n      sstore\n      dup1\n      swap2\n      pop\n      pop\n      0x01\n      swap1\n      sub\n      swap1\n      0x00\n      mstore\n      keccak256(0x00, 0x20)\n      add\n      0x00\n      swap1\n      swap2\n      swap1\n      swap2\n      swap1\n      swap2\n      pop\n      swap1\n      dup2\n      tag_27\n      swap2\n      swap1\n      tag_28\n      jump\t// in\n    tag_27:\n      pop\n        /* \"contracts/31stjuly.sol\":2244:2248  arr2 */\n      0x00\n        /* \"contracts/31stjuly.sol\":2244:2255  arr2.length */\n      dup1\n      sload\n      swap1\n      pop\n        /* \"contracts/31stjuly.sol\":2237:2255  return arr2.length */\n      swap1\n      pop\n        /* \"contracts/31stjuly.sol\":2144:2263  function push(string memory _name) public returns(uint){... */\n      swap2\n      swap1\n      pop\n      jump\t// out\n        /* \"contracts/31stjuly.sol\":2325:2415  function get()public view returns(string[] memory){... */\n    tag_14:\n        /* \"contracts/31stjuly.sol\":2359:2374  string[] memory */\n      0x60\n        /* \"contracts/31stjuly.sol\":2393:2397  arr2 */\n      0x00\n        /* \"contracts/31stjuly.sol\":2386:2397  return arr2 */\n      dup1\n      sload\n      dup1\n      0x20\n      mul\n      0x20\n      add\n      mload(0x40)\n      swap1\n      dup2\n      add\n      0x40\n      mstore\n      dup1\n      swap3\n      swap2\n      swap1\n      dup2\n      dup2\n      mstore\n      0x20\n      add\n      0x00\n      swap1\n    tag_30:\n      dup3\n      dup3\n      lt\n      iszero\n      tag_31\n      jumpi\n      dup4\n      dup3\n      swap1\n      0x00\n      mstore\n      keccak256(0x00, 0x20)\n      add\n      dup1\n      sload\n      tag_33\n      swap1\n      tag_34\n      jump\t// in\n    tag_33:\n      dup1\n      0x1f\n      add\n      0x20\n      dup1\n      swap2\n      div\n      mul\n      0x20\n      add\n      mload(0x40)\n      swap1\n      dup2\n      add\n      0x40\n      mstore\n      dup1\n      swap3\n      swap2\n      swap1\n      dup2\n      dup2\n      mstore\n      0x20\n      add\n      dup3\n      dup1\n      sload\n      tag_35\n      swap1\n      tag_34\n      jump\t// in\n    tag_35:\n      dup1\n      iszero\n      tag_36\n      jumpi\n      dup1\n      0x1f\n      lt\n      tag_37\n      jumpi\n      0x0100\n      dup1\n      dup4\n      sload\n      div\n      mul\n      dup4\n      mstore\n      swap2\n      0x20\n      add\n      swap2\n      jump(tag_36)\n    tag_37:\n      dup3\n      add\n      swap2\n      swap1\n      0x00\n      mstore\n      keccak256(0x00, 0x20)\n      swap1\n    tag_38:\n      dup2\n      sload\n      dup2\n      mstore\n      swap1\n      0x01\n      add\n      swap1\n      0x20\n      add\n      dup1\n      dup4\n      gt\n      tag_38\n      jumpi\n      dup3\n      swap1\n      sub\n      0x1f\n      and\n      dup3\n      add\n      swap2\n    tag_36:\n      pop\n      pop\n      pop\n      pop\n      pop\n      dup2\n      mstore\n      0x20\n      add\n      swap1\n      0x01\n      add\n      swap1\n      jump(tag_30)\n    tag_31:\n      pop\n      pop\n      pop\n      pop\n      swap1\n      pop\n        /* \"contracts/31stjuly.sol\":2325:2415  function get()public view returns(string[] memory){... */\n      swap1\n      jump\t// out\n        /* \"contracts/31stjuly.sol\":2269:2319  function pop() public{... */\n    tag_18:\n        /* \"contracts/31stjuly.sol\":2301:2305  arr2 */\n      0x00\n        /* \"contracts/31stjuly.sol\":2301:2311  arr2.pop() */\n      dup1\n      sload\n      dup1\n      tag_40\n      jumpi\n      tag_41\n      tag_42\n      jump\t// in\n    tag_41:\n    tag_40:\n      0x01\n      swap1\n      sub\n      dup2\n      dup2\n      swap1\n      0x00\n      mstore\n      keccak256(0x00, 0x20)\n      add\n      0x00\n      tag_44\n      swap2\n      swap1\n      tag_45\n      jump\t// in\n    tag_44:\n      swap1\n      sstore\n        /* \"contracts/31stjuly.sol\":2269:2319  function pop() public{... */\n      jump\t// out\n        /* \"contracts/31stjuly.sol\":2117:2137  string[] public arr2 */\n    tag_22:\n      0x00\n      dup2\n      dup2\n      sload\n      dup2\n      lt\n      tag_46\n      jumpi\n      0x00\n      dup1\n      revert\n    tag_46:\n      swap1\n      0x00\n      mstore\n      keccak256(0x00, 0x20)\n      add\n      0x00\n      swap2\n      pop\n      swap1\n      pop\n      dup1\n      sload\n      tag_48\n      swap1\n      tag_34\n      jump\t// in\n    tag_48:\n      dup1\n      0x1f\n      add\n      0x20\n      dup1\n      swap2\n      div\n      mul\n      0x20\n      add\n      mload(0x40)\n      swap1\n      dup2\n      add\n      0x40\n      mstore\n      dup1\n      swap3\n      swap2\n      swap1\n      dup2\n      dup2\n      mstore\n      0x20\n      add\n      dup3\n      dup1\n      sload\n      tag_49\n      swap1\n      tag_34\n      jump\t// in\n    tag_49:\n      dup1\n      iszero\n      tag_50\n      jumpi\n      dup1\n      0x1f\n      lt\n      tag_51\n      jumpi\n      0x0100\n      dup1\n      dup4\n      sload\n      div\n      mul\n      dup4\n      mstore\n      swap2\n      0x20\n      add\n      swap2\n      jump(tag_50)\n    tag_51:\n      dup3\n      add\n      swap2\n      swap1\n      0x00\n      mstore\n      keccak256(0x00, 0x20)\n      swap1\n    tag_52:\n      dup2\n      sload\n      dup2\n      mstore\n      swap1\n      0x01\n      add\n      swap1\n      0x20\n      add\n      dup1\n      dup4\n      gt\n      tag_52\n      jumpi\n      dup3\n      swap1\n      sub\n      0x1f\n      and\n      dup3\n      add\n      swap2\n    tag_50:\n      pop\n      pop\n      pop\n      pop\n      pop\n      dup2\n      jump\t// out\n    tag_45:\n      pop\n      dup1\n      sload\n      tag_53\n      swap1\n      tag_34\n      jump\t// in\n    tag_53:\n      0x00\n      dup3\n      sstore\n      dup1\n      0x1f\n      lt\n      tag_55\n      jumpi\n      pop\n      jump(tag_54)\n    tag_55:\n      0x1f\n      add\n      0x20\n      swap1\n      div\n      swap1\n      0x00\n      mstore\n      keccak256(0x00, 0x20)\n      swap1\n      dup2\n      add\n      swap1\n      tag_56\n      swap2\n      swap1\n      tag_57\n      jump\t// in\n    tag_56:\n    tag_54:\n      pop\n      jump\t// out\n    tag_57:\n    tag_58:\n      dup1\n      dup3\n      gt\n      iszero\n      tag_59\n      jumpi\n      0x00\n      dup2\n      0x00\n      swap1\n      sstore\n      pop\n      0x01\n      add\n      jump(tag_58)\n    tag_59:\n      pop\n      swap1\n      jump\t// out\n        /* \"#utility.yul\":7:82   */\n    tag_60:\n        /* \"#utility.yul\":40:46   */\n      0x00\n        /* \"#utility.yul\":73:75   */\n      0x40\n        /* \"#utility.yul\":67:76   */\n      mload\n        /* \"#utility.yul\":57:76   */\n      swap1\n      pop\n        /* \"#utility.yul\":7:82   */\n      swap1\n      jump\t// out\n        /* \"#utility.yul\":88:205   */\n    tag_61:\n        /* \"#utility.yul\":197:198   */\n      0x00\n        /* \"#utility.yul\":194:195   */\n      dup1\n        /* \"#utility.yul\":187:199   */\n      revert\n        /* \"#utility.yul\":211:328   */\n    tag_62:\n        /* \"#utility.yul\":320:321   */\n      0x00\n        /* \"#utility.yul\":317:318   */\n      dup1\n        /* \"#utility.yul\":310:322   */\n      revert\n        /* \"#utility.yul\":334:451   */\n    tag_63:\n        /* \"#utility.yul\":443:444   */\n      0x00\n        /* \"#utility.yul\":440:441   */\n      dup1\n        /* \"#utility.yul\":433:445   */\n      revert\n        /* \"#utility.yul\":457:574   */\n    tag_64:\n        /* \"#utility.yul\":566:567   */\n      0x00\n        /* \"#utility.yul\":563:564   */\n      dup1\n        /* \"#utility.yul\":556:568   */\n      revert\n        /* \"#utility.yul\":580:682   */\n    tag_65:\n        /* \"#utility.yul\":621:627   */\n      0x00\n        /* \"#utility.yul\":672:674   */\n      0x1f\n        /* \"#utility.yul\":668:675   */\n      not\n        /* \"#utility.yul\":663:665   */\n      0x1f\n        /* \"#utility.yul\":656:661   */\n      dup4\n        /* \"#utility.yul\":652:666   */\n      add\n        /* \"#utility.yul\":648:676   */\n      and\n        /* \"#utility.yul\":638:676   */\n      swap1\n      pop\n        /* \"#utility.yul\":580:682   */\n      swap2\n      swap1\n      pop\n      jump\t// out\n        /* \"#utility.yul\":688:868   */\n    tag_66:\n        /* \"#utility.yul\":736:813   */\n      0x4e487b7100000000000000000000000000000000000000000000000000000000\n        /* \"#utility.yul\":733:734   */\n      0x00\n        /* \"#utility.yul\":726:814   */\n      mstore\n        /* \"#utility.yul\":833:837   */\n      0x41\n        /* \"#utility.yul\":830:831   */\n      0x04\n        /* \"#utility.yul\":823:838   */\n      mstore\n        /* \"#utility.yul\":857:861   */\n      0x24\n        /* \"#utility.yul\":854:855   */\n      0x00\n        /* \"#utility.yul\":847:862   */\n      revert\n        /* \"#utility.yul\":874:1155   */\n    tag_67:\n        /* \"#utility.yul\":957:984   */\n      tag_114\n        /* \"#utility.yul\":979:983   */\n      dup3\n        /* \"#utility.yul\":957:984   */\n      tag_65\n      jump\t// in\n    tag_114:\n        /* \"#utility.yul\":949:955   */\n      dup2\n        /* \"#utility.yul\":945:985   */\n      add\n        /* \"#utility.yul\":1087:1093   */\n      dup2\n        /* \"#utility.yul\":1075:1085   */\n      dup2\n        /* \"#utility.yul\":1072:1094   */\n      lt\n        /* \"#utility.yul\":1051:1069   */\n      0xffffffffffffffff\n        /* \"#utility.yul\":1039:1049   */\n      dup3\n        /* \"#utility.yul\":1036:1070   */\n      gt\n        /* \"#utility.yul\":1033:1095   */\n      or\n        /* \"#utility.yul\":1030:1118   */\n      iszero\n      tag_115\n      jumpi\n        /* \"#utility.yul\":1098:1116   */\n      tag_116\n      tag_66\n      jump\t// in\n    tag_116:\n        /* \"#utility.yul\":1030:1118   */\n    tag_115:\n        /* \"#utility.yul\":1138:1148   */\n      dup1\n        /* \"#utility.yul\":1134:1136   */\n      0x40\n        /* \"#utility.yul\":1127:1149   */\n      mstore\n        /* \"#utility.yul\":917:1155   */\n      pop\n        /* \"#utility.yul\":874:1155   */\n      pop\n      pop\n      jump\t// out\n        /* \"#utility.yul\":1161:1290   */\n    tag_68:\n        /* \"#utility.yul\":1195:1201   */\n      0x00\n        /* \"#utility.yul\":1222:1242   */\n      tag_118\n      tag_60\n      jump\t// in\n    tag_118:\n        /* \"#utility.yul\":1212:1242   */\n      swap1\n      pop\n        /* \"#utility.yul\":1251:1284   */\n      tag_119\n        /* \"#utility.yul\":1279:1283   */\n      dup3\n        /* \"#utility.yul\":1271:1277   */\n      dup3\n        /* \"#utility.yul\":1251:1284   */\n      tag_67\n      jump\t// in\n    tag_119:\n        /* \"#utility.yul\":1161:1290   */\n      swap2\n      swap1\n      pop\n      jump\t// out\n        /* \"#utility.yul\":1296:1604   */\n    tag_69:\n        /* \"#utility.yul\":1358:1362   */\n      0x00\n        /* \"#utility.yul\":1448:1466   */\n      0xffffffffffffffff\n        /* \"#utility.yul\":1440:1446   */\n      dup3\n        /* \"#utility.yul\":1437:1467   */\n      gt\n        /* \"#utility.yul\":1434:1490   */\n      iszero\n      tag_121\n      jumpi\n        /* \"#utility.yul\":1470:1488   */\n      tag_122\n      tag_66\n      jump\t// in\n    tag_122:\n        /* \"#utility.yul\":1434:1490   */\n    tag_121:\n        /* \"#utility.yul\":1508:1537   */\n      tag_123\n        /* \"#utility.yul\":1530:1536   */\n      dup3\n        /* \"#utility.yul\":1508:1537   */\n      tag_65\n      jump\t// in\n    tag_123:\n        /* \"#utility.yul\":1500:1537   */\n      swap1\n      pop\n        /* \"#utility.yul\":1592:1596   */\n      0x20\n        /* \"#utility.yul\":1586:1590   */\n      dup2\n        /* \"#utility.yul\":1582:1597   */\n      add\n        /* \"#utility.yul\":1574:1597   */\n      swap1\n      pop\n        /* \"#utility.yul\":1296:1604   */\n      swap2\n      swap1\n      pop\n      jump\t// out\n        /* \"#utility.yul\":1610:1756   */\n    tag_70:\n        /* \"#utility.yul\":1707:1713   */\n      dup3\n        /* \"#utility.yul\":1702:1705   */\n      dup2\n        /* \"#utility.yul\":1697:1700   */\n      dup4\n        /* \"#utility.yul\":1684:1714   */\n      calldatacopy\n        /* \"#utility.yul\":1748:1749   */\n      0x00\n        /* \"#utility.yul\":1739:1745   */\n      dup4\n        /* \"#utility.yul\":1734:1737   */\n      dup4\n        /* \"#utility.yul\":1730:1746   */\n      add\n        /* \"#utility.yul\":1723:1750   */\n      mstore\n        /* \"#utility.yul\":1610:1756   */\n      pop\n      pop\n      pop\n      jump\t// out\n        /* \"#utility.yul\":1762:2187   */\n    tag_71:\n        /* \"#utility.yul\":1840:1845   */\n      0x00\n        /* \"#utility.yul\":1865:1931   */\n      tag_126\n        /* \"#utility.yul\":1881:1930   */\n      tag_127\n        /* \"#utility.yul\":1923:1929   */\n      dup5\n        /* \"#utility.yul\":1881:1930   */\n      tag_69\n      jump\t// in\n    tag_127:\n        /* \"#utility.yul\":1865:1931   */\n      tag_68\n      jump\t// in\n    tag_126:\n        /* \"#utility.yul\":1856:1931   */\n      swap1\n      pop\n        /* \"#utility.yul\":1954:1960   */\n      dup3\n        /* \"#utility.yul\":1947:1952   */\n      dup2\n        /* \"#utility.yul\":1940:1961   */\n      mstore\n        /* \"#utility.yul\":1992:1996   */\n      0x20\n        /* \"#utility.yul\":1985:1990   */\n      dup2\n        /* \"#utility.yul\":1981:1997   */\n      add\n        /* \"#utility.yul\":2030:2033   */\n      dup5\n        /* \"#utility.yul\":2021:2027   */\n      dup5\n        /* \"#utility.yul\":2016:2019   */\n      dup5\n        /* \"#utility.yul\":2012:2028   */\n      add\n        /* \"#utility.yul\":2009:2034   */\n      gt\n        /* \"#utility.yul\":2006:2118   */\n      iszero\n      tag_128\n      jumpi\n        /* \"#utility.yul\":2037:2116   */\n      tag_129\n      tag_64\n      jump\t// in\n    tag_129:\n        /* \"#utility.yul\":2006:2118   */\n    tag_128:\n        /* \"#utility.yul\":2127:2181   */\n      tag_130\n        /* \"#utility.yul\":2174:2180   */\n      dup5\n        /* \"#utility.yul\":2169:2172   */\n      dup3\n        /* \"#utility.yul\":2164:2167   */\n      dup6\n        /* \"#utility.yul\":2127:2181   */\n      tag_70\n      jump\t// in\n    tag_130:\n        /* \"#utility.yul\":1846:2187   */\n      pop\n        /* \"#utility.yul\":1762:2187   */\n      swap4\n      swap3\n      pop\n      pop\n      pop\n      jump\t// out\n        /* \"#utility.yul\":2207:2547   */\n    tag_72:\n        /* \"#utility.yul\":2263:2268   */\n      0x00\n        /* \"#utility.yul\":2312:2315   */\n      dup3\n        /* \"#utility.yul\":2305:2309   */\n      0x1f\n        /* \"#utility.yul\":2297:2303   */\n      dup4\n        /* \"#utility.yul\":2293:2310   */\n      add\n        /* \"#utility.yul\":2289:2316   */\n      slt\n        /* \"#utility.yul\":2279:2401   */\n      tag_132\n      jumpi\n        /* \"#utility.yul\":2320:2399   */\n      tag_133\n      tag_63\n      jump\t// in\n    tag_133:\n        /* \"#utility.yul\":2279:2401   */\n    tag_132:\n        /* \"#utility.yul\":2437:2443   */\n      dup2\n        /* \"#utility.yul\":2424:2444   */\n      calldataload\n        /* \"#utility.yul\":2462:2541   */\n      tag_134\n        /* \"#utility.yul\":2537:2540   */\n      dup5\n        /* \"#utility.yul\":2529:2535   */\n      dup3\n        /* \"#utility.yul\":2522:2526   */\n      0x20\n        /* \"#utility.yul\":2514:2520   */\n      dup7\n        /* \"#utility.yul\":2510:2527   */\n      add\n        /* \"#utility.yul\":2462:2541   */\n      tag_71\n      jump\t// in\n    tag_134:\n        /* \"#utility.yul\":2453:2541   */\n      swap2\n      pop\n        /* \"#utility.yul\":2269:2547   */\n      pop\n        /* \"#utility.yul\":2207:2547   */\n      swap3\n      swap2\n      pop\n      pop\n      jump\t// out\n        /* \"#utility.yul\":2553:3062   */\n    tag_9:\n        /* \"#utility.yul\":2622:2628   */\n      0x00\n        /* \"#utility.yul\":2671:2673   */\n      0x20\n        /* \"#utility.yul\":2659:2668   */\n      dup3\n        /* \"#utility.yul\":2650:2657   */\n      dup5\n        /* \"#utility.yul\":2646:2669   */\n      sub\n        /* \"#utility.yul\":2642:2674   */\n      slt\n        /* \"#utility.yul\":2639:2758   */\n      iszero\n      tag_136\n      jumpi\n        /* \"#utility.yul\":2677:2756   */\n      tag_137\n      tag_61\n      jump\t// in\n    tag_137:\n        /* \"#utility.yul\":2639:2758   */\n    tag_136:\n        /* \"#utility.yul\":2825:2826   */\n      0x00\n        /* \"#utility.yul\":2814:2823   */\n      dup3\n        /* \"#utility.yul\":2810:2827   */\n      add\n        /* \"#utility.yul\":2797:2828   */\n      calldataload\n        /* \"#utility.yul\":2855:2873   */\n      0xffffffffffffffff\n        /* \"#utility.yul\":2847:2853   */\n      dup2\n        /* \"#utility.yul\":2844:2874   */\n      gt\n        /* \"#utility.yul\":2841:2958   */\n      iszero\n      tag_138\n      jumpi\n        /* \"#utility.yul\":2877:2956   */\n      tag_139\n      tag_62\n      jump\t// in\n    tag_139:\n        /* \"#utility.yul\":2841:2958   */\n    tag_138:\n        /* \"#utility.yul\":2982:3045   */\n      tag_140\n        /* \"#utility.yul\":3037:3044   */\n      dup5\n        /* \"#utility.yul\":3028:3034   */\n      dup3\n        /* \"#utility.yul\":3017:3026   */\n      dup6\n        /* \"#utility.yul\":3013:3035   */\n      add\n        /* \"#utility.yul\":2982:3045   */\n      tag_72\n      jump\t// in\n    tag_140:\n        /* \"#utility.yul\":2972:3045   */\n      swap2\n      pop\n        /* \"#utility.yul\":2768:3055   */\n      pop\n        /* \"#utility.yul\":2553:3062   */\n      swap3\n      swap2\n      pop\n      pop\n      jump\t// out\n        /* \"#utility.yul\":3068:3145   */\n    tag_73:\n        /* \"#utility.yul\":3105:3112   */\n      0x00\n        /* \"#utility.yul\":3134:3139   */\n      dup2\n        /* \"#utility.yul\":3123:3139   */\n      swap1\n      pop\n        /* \"#utility.yul\":3068:3145   */\n      swap2\n      swap1\n      pop\n      jump\t// out\n        /* \"#utility.yul\":3151:3269   */\n    tag_74:\n        /* \"#utility.yul\":3238:3262   */\n      tag_143\n        /* \"#utility.yul\":3256:3261   */\n      dup2\n        /* \"#utility.yul\":3238:3262   */\n      tag_73\n      jump\t// in\n    tag_143:\n        /* \"#utility.yul\":3233:3236   */\n      dup3\n        /* \"#utility.yul\":3226:3263   */\n      mstore\n        /* \"#utility.yul\":3151:3269   */\n      pop\n      pop\n      jump\t// out\n        /* \"#utility.yul\":3275:3497   */\n    tag_12:\n        /* \"#utility.yul\":3368:3372   */\n      0x00\n        /* \"#utility.yul\":3406:3408   */\n      0x20\n        /* \"#utility.yul\":3395:3404   */\n      dup3\n        /* \"#utility.yul\":3391:3409   */\n      add\n        /* \"#utility.yul\":3383:3409   */\n      swap1\n      pop\n        /* \"#utility.yul\":3419:3490   */\n      tag_145\n        /* \"#utility.yul\":3487:3488   */\n      0x00\n        /* \"#utility.yul\":3476:3485   */\n      dup4\n        /* \"#utility.yul\":3472:3489   */\n      add\n        /* \"#utility.yul\":3463:3469   */\n      dup5\n        /* \"#utility.yul\":3419:3490   */\n      tag_74\n      jump\t// in\n    tag_145:\n        /* \"#utility.yul\":3275:3497   */\n      swap3\n      swap2\n      pop\n      pop\n      jump\t// out\n        /* \"#utility.yul\":3503:3627   */\n    tag_75:\n        /* \"#utility.yul\":3580:3586   */\n      0x00\n        /* \"#utility.yul\":3614:3619   */\n      dup2\n        /* \"#utility.yul\":3608:3620   */\n      mload\n        /* \"#utility.yul\":3598:3620   */\n      swap1\n      pop\n        /* \"#utility.yul\":3503:3627   */\n      swap2\n      swap1\n      pop\n      jump\t// out\n        /* \"#utility.yul\":3633:3827   */\n    tag_76:\n        /* \"#utility.yul\":3742:3753   */\n      0x00\n        /* \"#utility.yul\":3776:3782   */\n      dup3\n        /* \"#utility.yul\":3771:3774   */\n      dup3\n        /* \"#utility.yul\":3764:3783   */\n      mstore\n        /* \"#utility.yul\":3816:3820   */\n      0x20\n        /* \"#utility.yul\":3811:3814   */\n      dup3\n        /* \"#utility.yul\":3807:3821   */\n      add\n        /* \"#utility.yul\":3792:3821   */\n      swap1\n      pop\n        /* \"#utility.yul\":3633:3827   */\n      swap3\n      swap2\n      pop\n      pop\n      jump\t// out\n        /* \"#utility.yul\":3833:3975   */\n    tag_77:\n        /* \"#utility.yul\":3910:3914   */\n      0x00\n        /* \"#utility.yul\":3933:3936   */\n      dup2\n        /* \"#utility.yul\":3925:3936   */\n      swap1\n      pop\n        /* \"#utility.yul\":3963:3967   */\n      0x20\n        /* \"#utility.yul\":3958:3961   */\n      dup3\n        /* \"#utility.yul\":3954:3968   */\n      add\n        /* \"#utility.yul\":3946:3968   */\n      swap1\n      pop\n        /* \"#utility.yul\":3833:3975   */\n      swap2\n      swap1\n      pop\n      jump\t// out\n        /* \"#utility.yul\":3981:4080   */\n    tag_78:\n        /* \"#utility.yul\":4033:4039   */\n      0x00\n        /* \"#utility.yul\":4067:4072   */\n      dup2\n        /* \"#utility.yul\":4061:4073   */\n      mload\n        /* \"#utility.yul\":4051:4073   */\n      swap1\n      pop\n        /* \"#utility.yul\":3981:4080   */\n      swap2\n      swap1\n      pop\n      jump\t// out\n        /* \"#utility.yul\":4086:4245   */\n    tag_79:\n        /* \"#utility.yul\":4160:4171   */\n      0x00\n        /* \"#utility.yul\":4194:4200   */\n      dup3\n        /* \"#utility.yul\":4189:4192   */\n      dup3\n        /* \"#utility.yul\":4182:4201   */\n      mstore\n        /* \"#utility.yul\":4234:4238   */\n      0x20\n        /* \"#utility.yul\":4229:4232   */\n      dup3\n        /* \"#utility.yul\":4225:4239   */\n      add\n        /* \"#utility.yul\":4210:4239   */\n      swap1\n      pop\n        /* \"#utility.yul\":4086:4245   */\n      swap3\n      swap2\n      pop\n      pop\n      jump\t// out\n        /* \"#utility.yul\":4251:4497   */\n    tag_80:\n        /* \"#utility.yul\":4332:4333   */\n      0x00\n        /* \"#utility.yul\":4342:4455   */\n    tag_152:\n        /* \"#utility.yul\":4356:4362   */\n      dup4\n        /* \"#utility.yul\":4353:4354   */\n      dup2\n        /* \"#utility.yul\":4350:4363   */\n      lt\n        /* \"#utility.yul\":4342:4455   */\n      iszero\n      tag_154\n      jumpi\n        /* \"#utility.yul\":4441:4442   */\n      dup1\n        /* \"#utility.yul\":4436:4439   */\n      dup3\n        /* \"#utility.yul\":4432:4443   */\n      add\n        /* \"#utility.yul\":4426:4444   */\n      mload\n        /* \"#utility.yul\":4422:4423   */\n      dup2\n        /* \"#utility.yul\":4417:4420   */\n      dup5\n        /* \"#utility.yul\":4413:4424   */\n      add\n        /* \"#utility.yul\":4406:4445   */\n      mstore\n        /* \"#utility.yul\":4378:4380   */\n      0x20\n        /* \"#utility.yul\":4375:4376   */\n      dup2\n        /* \"#utility.yul\":4371:4381   */\n      add\n        /* \"#utility.yul\":4366:4381   */\n      swap1\n      pop\n        /* \"#utility.yul\":4342:4455   */\n      jump(tag_152)\n    tag_154:\n        /* \"#utility.yul\":4489:4490   */\n      0x00\n        /* \"#utility.yul\":4480:4486   */\n      dup5\n        /* \"#utility.yul\":4475:4478   */\n      dup5\n        /* \"#utility.yul\":4471:4487   */\n      add\n        /* \"#utility.yul\":4464:4491   */\n      mstore\n        /* \"#utility.yul\":4313:4497   */\n      pop\n        /* \"#utility.yul\":4251:4497   */\n      pop\n      pop\n      pop\n      jump\t// out\n        /* \"#utility.yul\":4503:4860   */\n    tag_81:\n        /* \"#utility.yul\":4581:4584   */\n      0x00\n        /* \"#utility.yul\":4609:4648   */\n      tag_156\n        /* \"#utility.yul\":4642:4647   */\n      dup3\n        /* \"#utility.yul\":4609:4648   */\n      tag_78\n      jump\t// in\n    tag_156:\n        /* \"#utility.yul\":4664:4725   */\n      tag_157\n        /* \"#utility.yul\":4718:4724   */\n      dup2\n        /* \"#utility.yul\":4713:4716   */\n      dup6\n        /* \"#utility.yul\":4664:4725   */\n      tag_79\n      jump\t// in\n    tag_157:\n        /* \"#utility.yul\":4657:4725   */\n      swap4\n      pop\n        /* \"#utility.yul\":4734:4799   */\n      tag_158\n        /* \"#utility.yul\":4792:4798   */\n      dup2\n        /* \"#utility.yul\":4787:4790   */\n      dup6\n        /* \"#utility.yul\":4780:4784   */\n      0x20\n        /* \"#utility.yul\":4773:4778   */\n      dup7\n        /* \"#utility.yul\":4769:4785   */\n      add\n        /* \"#utility.yul\":4734:4799   */\n      tag_80\n      jump\t// in\n    tag_158:\n        /* \"#utility.yul\":4824:4853   */\n      tag_159\n        /* \"#utility.yul\":4846:4852   */\n      dup2\n        /* \"#utility.yul\":4824:4853   */\n      tag_65\n      jump\t// in\n    tag_159:\n        /* \"#utility.yul\":4819:4822   */\n      dup5\n        /* \"#utility.yul\":4815:4854   */\n      add\n        /* \"#utility.yul\":4808:4854   */\n      swap2\n      pop\n        /* \"#utility.yul\":4585:4860   */\n      pop\n        /* \"#utility.yul\":4503:4860   */\n      swap3\n      swap2\n      pop\n      pop\n      jump\t// out\n        /* \"#utility.yul\":4866:5062   */\n    tag_82:\n        /* \"#utility.yul\":4955:4965   */\n      0x00\n        /* \"#utility.yul\":4990:5056   */\n      tag_161\n        /* \"#utility.yul\":5052:5055   */\n      dup4\n        /* \"#utility.yul\":5044:5050   */\n      dup4\n        /* \"#utility.yul\":4990:5056   */\n      tag_81\n      jump\t// in\n    tag_161:\n        /* \"#utility.yul\":4976:5056   */\n      swap1\n      pop\n        /* \"#utility.yul\":4866:5062   */\n      swap3\n      swap2\n      pop\n      pop\n      jump\t// out\n        /* \"#utility.yul\":5068:5191   */\n    tag_83:\n        /* \"#utility.yul\":5148:5152   */\n      0x00\n        /* \"#utility.yul\":5180:5184   */\n      0x20\n        /* \"#utility.yul\":5175:5178   */\n      dup3\n        /* \"#utility.yul\":5171:5185   */\n      add\n        /* \"#utility.yul\":5163:5185   */\n      swap1\n      pop\n        /* \"#utility.yul\":5068:5191   */\n      swap2\n      swap1\n      pop\n      jump\t// out\n        /* \"#utility.yul\":5225:6216   */\n    tag_84:\n        /* \"#utility.yul\":5364:5367   */\n      0x00\n        /* \"#utility.yul\":5393:5457   */\n      tag_164\n        /* \"#utility.yul\":5451:5456   */\n      dup3\n        /* \"#utility.yul\":5393:5457   */\n      tag_75\n      jump\t// in\n    tag_164:\n        /* \"#utility.yul\":5473:5569   */\n      tag_165\n        /* \"#utility.yul\":5562:5568   */\n      dup2\n        /* \"#utility.yul\":5557:5560   */\n      dup6\n        /* \"#utility.yul\":5473:5569   */\n      tag_76\n      jump\t// in\n    tag_165:\n        /* \"#utility.yul\":5466:5569   */\n      swap4\n      pop\n        /* \"#utility.yul\":5595:5598   */\n      dup4\n        /* \"#utility.yul\":5640:5644   */\n      0x20\n        /* \"#utility.yul\":5632:5638   */\n      dup3\n        /* \"#utility.yul\":5628:5645   */\n      mul\n        /* \"#utility.yul\":5623:5626   */\n      dup6\n        /* \"#utility.yul\":5619:5646   */\n      add\n        /* \"#utility.yul\":5670:5736   */\n      tag_166\n        /* \"#utility.yul\":5730:5735   */\n      dup6\n        /* \"#utility.yul\":5670:5736   */\n      tag_77\n      jump\t// in\n    tag_166:\n        /* \"#utility.yul\":5759:5766   */\n      dup1\n        /* \"#utility.yul\":5790:5791   */\n      0x00\n        /* \"#utility.yul\":5775:6171   */\n    tag_167:\n        /* \"#utility.yul\":5800:5806   */\n      dup6\n        /* \"#utility.yul\":5797:5798   */\n      dup2\n        /* \"#utility.yul\":5794:5807   */\n      lt\n        /* \"#utility.yul\":5775:6171   */\n      iszero\n      tag_169\n      jumpi\n        /* \"#utility.yul\":5871:5880   */\n      dup5\n        /* \"#utility.yul\":5865:5869   */\n      dup5\n        /* \"#utility.yul\":5861:5881   */\n      sub\n        /* \"#utility.yul\":5856:5859   */\n      dup10\n        /* \"#utility.yul\":5849:5882   */\n      mstore\n        /* \"#utility.yul\":5922:5928   */\n      dup2\n        /* \"#utility.yul\":5916:5929   */\n      mload\n        /* \"#utility.yul\":5950:6034   */\n      tag_170\n        /* \"#utility.yul\":6029:6033   */\n      dup6\n        /* \"#utility.yul\":6014:6027   */\n      dup3\n        /* \"#utility.yul\":5950:6034   */\n      tag_82\n      jump\t// in\n    tag_170:\n        /* \"#utility.yul\":5942:6034   */\n      swap5\n      pop\n        /* \"#utility.yul\":6057:6127   */\n      tag_171\n        /* \"#utility.yul\":6120:6126   */\n      dup4\n        /* \"#utility.yul\":6057:6127   */\n      tag_83\n      jump\t// in\n    tag_171:\n        /* \"#utility.yul\":6047:6127   */\n      swap3\n      pop\n        /* \"#utility.yul\":6156:6160   */\n      0x20\n        /* \"#utility.yul\":6151:6154   */\n      dup11\n        /* \"#utility.yul\":6147:6161   */\n      add\n        /* \"#utility.yul\":6140:6161   */\n      swap10\n      pop\n        /* \"#utility.yul\":5835:6171   */\n      pop\n        /* \"#utility.yul\":5822:5823   */\n      0x01\n        /* \"#utility.yul\":5819:5820   */\n      dup2\n        /* \"#utility.yul\":5815:5824   */\n      add\n        /* \"#utility.yul\":5810:5824   */\n      swap1\n      pop\n        /* \"#utility.yul\":5775:6171   */\n      jump(tag_167)\n    tag_169:\n        /* \"#utility.yul\":5779:5793   */\n      pop\n        /* \"#utility.yul\":6187:6191   */\n      dup3\n        /* \"#utility.yul\":6180:6191   */\n      swap8\n      pop\n        /* \"#utility.yul\":6207:6210   */\n      dup8\n        /* \"#utility.yul\":6200:6210   */\n      swap6\n      pop\n        /* \"#utility.yul\":5369:6216   */\n      pop\n      pop\n      pop\n      pop\n      pop\n        /* \"#utility.yul\":5225:6216   */\n      swap3\n      swap2\n      pop\n      pop\n      jump\t// out\n        /* \"#utility.yul\":6222:6635   */\n    tag_16:\n        /* \"#utility.yul\":6385:6389   */\n      0x00\n        /* \"#utility.yul\":6423:6425   */\n      0x20\n        /* \"#utility.yul\":6412:6421   */\n      dup3\n        /* \"#utility.yul\":6408:6426   */\n      add\n        /* \"#utility.yul\":6400:6426   */\n      swap1\n      pop\n        /* \"#utility.yul\":6472:6481   */\n      dup2\n        /* \"#utility.yul\":6466:6470   */\n      dup2\n        /* \"#utility.yul\":6462:6482   */\n      sub\n        /* \"#utility.yul\":6458:6459   */\n      0x00\n        /* \"#utility.yul\":6447:6456   */\n      dup4\n        /* \"#utility.yul\":6443:6460   */\n      add\n        /* \"#utility.yul\":6436:6483   */\n      mstore\n        /* \"#utility.yul\":6500:6628   */\n      tag_173\n        /* \"#utility.yul\":6623:6627   */\n      dup2\n        /* \"#utility.yul\":6614:6620   */\n      dup5\n        /* \"#utility.yul\":6500:6628   */\n      tag_84\n      jump\t// in\n    tag_173:\n        /* \"#utility.yul\":6492:6628   */\n      swap1\n      pop\n        /* \"#utility.yul\":6222:6635   */\n      swap3\n      swap2\n      pop\n      pop\n      jump\t// out\n        /* \"#utility.yul\":6641:6763   */\n    tag_85:\n        /* \"#utility.yul\":6714:6738   */\n      tag_175\n        /* \"#utility.yul\":6732:6737   */\n      dup2\n        /* \"#utility.yul\":6714:6738   */\n      tag_73\n      jump\t// in\n    tag_175:\n        /* \"#utility.yul\":6707:6712   */\n      dup2\n        /* \"#utility.yul\":6704:6739   */\n      eq\n        /* \"#utility.yul\":6694:6757   */\n      tag_176\n      jumpi\n        /* \"#utility.yul\":6753:6754   */\n      0x00\n        /* \"#utility.yul\":6750:6751   */\n      dup1\n        /* \"#utility.yul\":6743:6755   */\n      revert\n        /* \"#utility.yul\":6694:6757   */\n    tag_176:\n        /* \"#utility.yul\":6641:6763   */\n      pop\n      jump\t// out\n        /* \"#utility.yul\":6769:6908   */\n    tag_86:\n        /* \"#utility.yul\":6815:6820   */\n      0x00\n        /* \"#utility.yul\":6853:6859   */\n      dup2\n        /* \"#utility.yul\":6840:6860   */\n      calldataload\n        /* \"#utility.yul\":6831:6860   */\n      swap1\n      pop\n        /* \"#utility.yul\":6869:6902   */\n      tag_178\n        /* \"#utility.yul\":6896:6901   */\n      dup2\n        /* \"#utility.yul\":6869:6902   */\n      tag_85\n      jump\t// in\n    tag_178:\n        /* \"#utility.yul\":6769:6908   */\n      swap3\n      swap2\n      pop\n      pop\n      jump\t// out\n        /* \"#utility.yul\":6914:7243   */\n    tag_21:\n        /* \"#utility.yul\":6973:6979   */\n      0x00\n        /* \"#utility.yul\":7022:7024   */\n      0x20\n        /* \"#utility.yul\":7010:7019   */\n      dup3\n        /* \"#utility.yul\":7001:7008   */\n      dup5\n        /* \"#utility.yul\":6997:7020   */\n      sub\n        /* \"#utility.yul\":6993:7025   */\n      slt\n        /* \"#utility.yul\":6990:7109   */\n      iszero\n      tag_180\n      jumpi\n        /* \"#utility.yul\":7028:7107   */\n      tag_181\n      tag_61\n      jump\t// in\n    tag_181:\n        /* \"#utility.yul\":6990:7109   */\n    tag_180:\n        /* \"#utility.yul\":7148:7149   */\n      0x00\n        /* \"#utility.yul\":7173:7226   */\n      tag_182\n        /* \"#utility.yul\":7218:7225   */\n      dup5\n        /* \"#utility.yul\":7209:7215   */\n      dup3\n        /* \"#utility.yul\":7198:7207   */\n      dup6\n        /* \"#utility.yul\":7194:7216   */\n      add\n        /* \"#utility.yul\":7173:7226   */\n      tag_86\n      jump\t// in\n    tag_182:\n        /* \"#utility.yul\":7163:7226   */\n      swap2\n      pop\n        /* \"#utility.yul\":7119:7236   */\n      pop\n        /* \"#utility.yul\":6914:7243   */\n      swap3\n      swap2\n      pop\n      pop\n      jump\t// out\n        /* \"#utility.yul\":7249:7418   */\n    tag_87:\n        /* \"#utility.yul\":7333:7344   */\n      0x00\n        /* \"#utility.yul\":7367:7373   */\n      dup3\n        /* \"#utility.yul\":7362:7365   */\n      dup3\n        /* \"#utility.yul\":7355:7374   */\n      mstore\n        /* \"#utility.yul\":7407:7411   */\n      0x20\n        /* \"#utility.yul\":7402:7405   */\n      dup3\n        /* \"#utility.yul\":7398:7412   */\n      add\n        /* \"#utility.yul\":7383:7412   */\n      swap1\n      pop\n        /* \"#utility.yul\":7249:7418   */\n      swap3\n      swap2\n      pop\n      pop\n      jump\t// out\n        /* \"#utility.yul\":7424:7801   */\n    tag_88:\n        /* \"#utility.yul\":7512:7515   */\n      0x00\n        /* \"#utility.yul\":7540:7579   */\n      tag_185\n        /* \"#utility.yul\":7573:7578   */\n      dup3\n        /* \"#utility.yul\":7540:7579   */\n      tag_78\n      jump\t// in\n    tag_185:\n        /* \"#utility.yul\":7595:7666   */\n      tag_186\n        /* \"#utility.yul\":7659:7665   */\n      dup2\n        /* \"#utility.yul\":7654:7657   */\n      dup6\n        /* \"#utility.yul\":7595:7666   */\n      tag_87\n      jump\t// in\n    tag_186:\n        /* \"#utility.yul\":7588:7666   */\n      swap4\n      pop\n        /* \"#utility.yul\":7675:7740   */\n      tag_187\n        /* \"#utility.yul\":7733:7739   */\n      dup2\n        /* \"#utility.yul\":7728:7731   */\n      dup6\n        /* \"#utility.yul\":7721:7725   */\n      0x20\n        /* \"#utility.yul\":7714:7719   */\n      dup7\n        /* \"#utility.yul\":7710:7726   */\n      add\n        /* \"#utility.yul\":7675:7740   */\n      tag_80\n      jump\t// in\n    tag_187:\n        /* \"#utility.yul\":7765:7794   */\n      tag_188\n        /* \"#utility.yul\":7787:7793   */\n      dup2\n        /* \"#utility.yul\":7765:7794   */\n      tag_65\n      jump\t// in\n    tag_188:\n        /* \"#utility.yul\":7760:7763   */\n      dup5\n        /* \"#utility.yul\":7756:7795   */\n      add\n        /* \"#utility.yul\":7749:7795   */\n      swap2\n      pop\n        /* \"#utility.yul\":7516:7801   */\n      pop\n        /* \"#utility.yul\":7424:7801   */\n      swap3\n      swap2\n      pop\n      pop\n      jump\t// out\n        /* \"#utility.yul\":7807:8120   */\n    tag_24:\n        /* \"#utility.yul\":7920:7924   */\n      0x00\n        /* \"#utility.yul\":7958:7960   */\n      0x20\n        /* \"#utility.yul\":7947:7956   */\n      dup3\n        /* \"#utility.yul\":7943:7961   */\n      add\n        /* \"#utility.yul\":7935:7961   */\n      swap1\n      pop\n        /* \"#utility.yul\":8007:8016   */\n      dup2\n        /* \"#utility.yul\":8001:8005   */\n      dup2\n        /* \"#utility.yul\":7997:8017   */\n      sub\n        /* \"#utility.yul\":7993:7994   */\n      0x00\n        /* \"#utility.yul\":7982:7991   */\n      dup4\n        /* \"#utility.yul\":7978:7995   */\n      add\n        /* \"#utility.yul\":7971:8018   */\n      mstore\n        /* \"#utility.yul\":8035:8113   */\n      tag_190\n        /* \"#utility.yul\":8108:8112   */\n      dup2\n        /* \"#utility.yul\":8099:8105   */\n      dup5\n        /* \"#utility.yul\":8035:8113   */\n      tag_88\n      jump\t// in\n    tag_190:\n        /* \"#utility.yul\":8027:8113   */\n      swap1\n      pop\n        /* \"#utility.yul\":7807:8120   */\n      swap3\n      swap2\n      pop\n      pop\n      jump\t// out\n        /* \"#utility.yul\":8126:8306   */\n    tag_89:\n        /* \"#utility.yul\":8174:8251   */\n      0x4e487b7100000000000000000000000000000000000000000000000000000000\n        /* \"#utility.yul\":8171:8172   */\n      0x00\n        /* \"#utility.yul\":8164:8252   */\n      mstore\n        /* \"#utility.yul\":8271:8275   */\n      0x22\n        /* \"#utility.yul\":8268:8269   */\n      0x04\n        /* \"#utility.yul\":8261:8276   */\n      mstore\n        /* \"#utility.yul\":8295:8299   */\n      0x24\n        /* \"#utility.yul\":8292:8293   */\n      0x00\n        /* \"#utility.yul\":8285:8300   */\n      revert\n        /* \"#utility.yul\":8312:8632   */\n    tag_34:\n        /* \"#utility.yul\":8356:8362   */\n      0x00\n        /* \"#utility.yul\":8393:8394   */\n      0x02\n        /* \"#utility.yul\":8387:8391   */\n      dup3\n        /* \"#utility.yul\":8383:8395   */\n      div\n        /* \"#utility.yul\":8373:8395   */\n      swap1\n      pop\n        /* \"#utility.yul\":8440:8441   */\n      0x01\n        /* \"#utility.yul\":8434:8438   */\n      dup3\n        /* \"#utility.yul\":8430:8442   */\n      and\n        /* \"#utility.yul\":8461:8479   */\n      dup1\n        /* \"#utility.yul\":8451:8532   */\n      tag_193\n      jumpi\n        /* \"#utility.yul\":8517:8521   */\n      0x7f\n        /* \"#utility.yul\":8509:8515   */\n      dup3\n        /* \"#utility.yul\":8505:8522   */\n      and\n        /* \"#utility.yul\":8495:8522   */\n      swap2\n      pop\n        /* \"#utility.yul\":8451:8532   */\n    tag_193:\n        /* \"#utility.yul\":8579:8581   */\n      0x20\n        /* \"#utility.yul\":8571:8577   */\n      dup3\n        /* \"#utility.yul\":8568:8582   */\n      lt\n        /* \"#utility.yul\":8548:8566   */\n      dup2\n        /* \"#utility.yul\":8545:8583   */\n      sub\n        /* \"#utility.yul\":8542:8626   */\n      tag_194\n      jumpi\n        /* \"#utility.yul\":8598:8616   */\n      tag_195\n      tag_89\n      jump\t// in\n    tag_195:\n        /* \"#utility.yul\":8542:8626   */\n    tag_194:\n        /* \"#utility.yul\":8363:8632   */\n      pop\n        /* \"#utility.yul\":8312:8632   */\n      swap2\n      swap1\n      pop\n      jump\t// out\n        /* \"#utility.yul\":8638:8779   */\n    tag_90:\n        /* \"#utility.yul\":8687:8691   */\n      0x00\n        /* \"#utility.yul\":8710:8713   */\n      dup2\n        /* \"#utility.yul\":8702:8713   */\n      swap1\n      pop\n        /* \"#utility.yul\":8733:8736   */\n      dup2\n        /* \"#utility.yul\":8730:8731   */\n      0x00\n        /* \"#utility.yul\":8723:8737   */\n      mstore\n        /* \"#utility.yul\":8767:8771   */\n      0x20\n        /* \"#utility.yul\":8764:8765   */\n      0x00\n        /* \"#utility.yul\":8754:8772   */\n      keccak256\n        /* \"#utility.yul\":8746:8772   */\n      swap1\n      pop\n        /* \"#utility.yul\":8638:8779   */\n      swap2\n      swap1\n      pop\n      jump\t// out\n        /* \"#utility.yul\":8785:8878   */\n    tag_91:\n        /* \"#utility.yul\":8822:8828   */\n      0x00\n        /* \"#utility.yul\":8869:8871   */\n      0x20\n        /* \"#utility.yul\":8864:8866   */\n      0x1f\n        /* \"#utility.yul\":8857:8862   */\n      dup4\n        /* \"#utility.yul\":8853:8867   */\n      add\n        /* \"#utility.yul\":8849:8872   */\n      div\n        /* \"#utility.yul\":8839:8872   */\n      swap1\n      pop\n        /* \"#utility.yul\":8785:8878   */\n      swap2\n      swap1\n      pop\n      jump\t// out\n        /* \"#utility.yul\":8884:8991   */\n    tag_92:\n        /* \"#utility.yul\":8928:8936   */\n      0x00\n        /* \"#utility.yul\":8978:8983   */\n      dup3\n        /* \"#utility.yul\":8972:8976   */\n      dup3\n        /* \"#utility.yul\":8968:8984   */\n      shl\n        /* \"#utility.yul\":8947:8984   */\n      swap1\n      pop\n        /* \"#utility.yul\":8884:8991   */\n      swap3\n      swap2\n      pop\n      pop\n      jump\t// out\n        /* \"#utility.yul\":8997:9390   */\n    tag_93:\n        /* \"#utility.yul\":9066:9072   */\n      0x00\n        /* \"#utility.yul\":9116:9117   */\n      0x08\n        /* \"#utility.yul\":9104:9114   */\n      dup4\n        /* \"#utility.yul\":9100:9118   */\n      mul\n        /* \"#utility.yul\":9139:9236   */\n      tag_200\n        /* \"#utility.yul\":9169:9235   */\n      0xffffffffffffffffffffffffffffffffffffffffffffffffffffffffffffffff\n        /* \"#utility.yul\":9158:9167   */\n      dup3\n        /* \"#utility.yul\":9139:9236   */\n      tag_92\n      jump\t// in\n    tag_200:\n        /* \"#utility.yul\":9257:9296   */\n      tag_201\n        /* \"#utility.yul\":9287:9295   */\n      dup7\n        /* \"#utility.yul\":9276:9285   */\n      dup4\n        /* \"#utility.yul\":9257:9296   */\n      tag_92\n      jump\t// in\n    tag_201:\n        /* \"#utility.yul\":9245:9296   */\n      swap6\n      pop\n        /* \"#utility.yul\":9329:9333   */\n      dup1\n        /* \"#utility.yul\":9325:9334   */\n      not\n        /* \"#utility.yul\":9318:9323   */\n      dup5\n        /* \"#utility.yul\":9314:9335   */\n      and\n        /* \"#utility.yul\":9305:9335   */\n      swap4\n      pop\n        /* \"#utility.yul\":9378:9382   */\n      dup1\n        /* \"#utility.yul\":9368:9376   */\n      dup7\n        /* \"#utility.yul\":9364:9383   */\n      and\n        /* \"#utility.yul\":9357:9362   */\n      dup5\n        /* \"#utility.yul\":9354:9384   */\n      or\n        /* \"#utility.yul\":9344:9384   */\n      swap3\n      pop\n        /* \"#utility.yul\":9073:9390   */\n      pop\n      pop\n        /* \"#utility.yul\":8997:9390   */\n      swap4\n      swap3\n      pop\n      pop\n      pop\n      jump\t// out\n        /* \"#utility.yul\":9396:9456   */\n    tag_94:\n        /* \"#utility.yul\":9424:9427   */\n      0x00\n        /* \"#utility.yul\":9445:9450   */\n      dup2\n        /* \"#utility.yul\":9438:9450   */\n      swap1\n      pop\n        /* \"#utility.yul\":9396:9456   */\n      swap2\n      swap1\n      pop\n      jump\t// out\n        /* \"#utility.yul\":9462:9604   */\n    tag_95:\n        /* \"#utility.yul\":9512:9521   */\n      0x00\n        /* \"#utility.yul\":9545:9598   */\n      tag_204\n        /* \"#utility.yul\":9563:9597   */\n      tag_205\n        /* \"#utility.yul\":9572:9596   */\n      tag_206\n        /* \"#utility.yul\":9590:9595   */\n      dup5\n        /* \"#utility.yul\":9572:9596   */\n      tag_73\n      jump\t// in\n    tag_206:\n        /* \"#utility.yul\":9563:9597   */\n      tag_94\n      jump\t// in\n    tag_205:\n        /* \"#utility.yul\":9545:9598   */\n      tag_73\n      jump\t// in\n    tag_204:\n        /* \"#utility.yul\":9532:9598   */\n      swap1\n      pop\n        /* \"#utility.yul\":9462:9604   */\n      swap2\n      swap1\n      pop\n      jump\t// out\n        /* \"#utility.yul\":9610:9685   */\n    tag_96:\n        /* \"#utility.yul\":9653:9656   */\n      0x00\n        /* \"#utility.yul\":9674:9679   */\n      dup2\n        /* \"#utility.yul\":9667:9679   */\n      swap1\n      pop\n        /* \"#utility.yul\":9610:9685   */\n      swap2\n      swap1\n      pop\n      jump\t// out\n        /* \"#utility.yul\":9691:9960   */\n    tag_97:\n        /* \"#utility.yul\":9801:9840   */\n      tag_209\n        /* \"#utility.yul\":9832:9839   */\n      dup4\n        /* \"#utility.yul\":9801:9840   */\n      tag_95\n      jump\t// in\n    tag_209:\n        /* \"#utility.yul\":9862:9953   */\n      tag_210\n        /* \"#utility.yul\":9911:9952   */\n      tag_211\n        /* \"#utility.yul\":9935:9951   */\n      dup3\n        /* \"#utility.yul\":9911:9952   */\n      tag_96\n      jump\t// in\n    tag_211:\n        /* \"#utility.yul\":9903:9909   */\n      dup5\n        /* \"#utility.yul\":9896:9900   */\n      dup5\n        /* \"#utility.yul\":9890:9901   */\n      sload\n        /* \"#utility.yul\":9862:9953   */\n      tag_93\n      jump\t// in\n    tag_210:\n        /* \"#utility.yul\":9856:9860   */\n      dup3\n        /* \"#utility.yul\":9849:9954   */\n      sstore\n        /* \"#utility.yul\":9767:9960   */\n      pop\n        /* \"#utility.yul\":9691:9960   */\n      pop\n      pop\n      pop\n      jump\t// out\n        /* \"#utility.yul\":9966:10039   */\n    tag_98:\n        /* \"#utility.yul\":10011:10014   */\n      0x00\n        /* \"#utility.yul\":9966:10039   */\n      swap1\n      jump\t// out\n        /* \"#utility.yul\":10045:10234   */\n    tag_99:\n        /* \"#utility.yul\":10122:10154   */\n      tag_214\n      tag_98\n      jump\t// in\n    tag_214:\n        /* \"#utility.yul\":10163:10228   */\n      tag_215\n        /* \"#utility.yul\":10221:10227   */\n      dup2\n        /* \"#utility.yul\":10213:10219   */\n      dup5\n        /* \"#utility.yul\":10207:10211   */\n      dup5\n        /* \"#utility.yul\":10163:10228   */\n      tag_97\n      jump\t// in\n    tag_215:\n        /* \"#utility.yul\":10098:10234   */\n      pop\n        /* \"#utility.yul\":10045:10234   */\n      pop\n      pop\n      jump\t// out\n        /* \"#utility.yul\":10240:10426   */\n    tag_100:\n        /* \"#utility.yul\":10300:10420   */\n    tag_217:\n        /* \"#utility.yul\":10317:10320   */\n      dup2\n        /* \"#utility.yul\":10310:10315   */\n      dup2\n        /* \"#utility.yul\":10307:10321   */\n      lt\n        /* \"#utility.yul\":10300:10420   */\n      iszero\n      tag_219\n      jumpi\n        /* \"#utility.yul\":10371:10410   */\n      tag_220\n        /* \"#utility.yul\":10408:10409   */\n      0x00\n        /* \"#utility.yul\":10401:10406   */\n      dup3\n        /* \"#utility.yul\":10371:10410   */\n      tag_99\n      jump\t// in\n    tag_220:\n        /* \"#utility.yul\":10344:10345   */\n      0x01\n        /* \"#utility.yul\":10337:10342   */\n      dup2\n        /* \"#utility.yul\":10333:10346   */\n      add\n        /* \"#utility.yul\":10324:10346   */\n      swap1\n      pop\n        /* \"#utility.yul\":10300:10420   */\n      jump(tag_217)\n    tag_219:\n        /* \"#utility.yul\":10240:10426   */\n      pop\n      pop\n      jump\t// out\n        /* \"#utility.yul\":10432:10975   */\n    tag_101:\n        /* \"#utility.yul\":10533:10535   */\n      0x1f\n        /* \"#utility.yul\":10528:10531   */\n      dup3\n        /* \"#utility.yul\":10525:10536   */\n      gt\n        /* \"#utility.yul\":10522:10968   */\n      iszero\n      tag_222\n      jumpi\n        /* \"#utility.yul\":10567:10605   */\n      tag_223\n        /* \"#utility.yul\":10599:10604   */\n      dup2\n        /* \"#utility.yul\":10567:10605   */\n      tag_90\n      jump\t// in\n    tag_223:\n        /* \"#utility.yul\":10651:10680   */\n      tag_224\n        /* \"#utility.yul\":10669:10679   */\n      dup5\n        /* \"#utility.yul\":10651:10680   */\n      tag_91\n      jump\t// in\n    tag_224:\n        /* \"#utility.yul\":10641:10649   */\n      dup2\n        /* \"#utility.yul\":10637:10681   */\n      add\n        /* \"#utility.yul\":10834:10836   */\n      0x20\n        /* \"#utility.yul\":10822:10832   */\n      dup6\n        /* \"#utility.yul\":10819:10837   */\n      lt\n        /* \"#utility.yul\":10816:10865   */\n      iszero\n      tag_225\n      jumpi\n        /* \"#utility.yul\":10855:10863   */\n      dup2\n        /* \"#utility.yul\":10840:10863   */\n      swap1\n      pop\n        /* \"#utility.yul\":10816:10865   */\n    tag_225:\n        /* \"#utility.yul\":10878:10958   */\n      tag_226\n        /* \"#utility.yul\":10934:10956   */\n      tag_227\n        /* \"#utility.yul\":10952:10955   */\n      dup6\n        /* \"#utility.yul\":10934:10956   */\n      tag_91\n      jump\t// in\n    tag_227:\n        /* \"#utility.yul\":10924:10932   */\n      dup4\n        /* \"#utility.yul\":10920:10957   */\n      add\n        /* \"#utility.yul\":10907:10918   */\n      dup3\n        /* \"#utility.yul\":10878:10958   */\n      tag_100\n      jump\t// in\n    tag_226:\n        /* \"#utility.yul\":10537:10968   */\n      pop\n      pop\n        /* \"#utility.yul\":10522:10968   */\n    tag_222:\n        /* \"#utility.yul\":10432:10975   */\n      pop\n      pop\n      pop\n      jump\t// out\n        /* \"#utility.yul\":10981:11098   */\n    tag_102:\n        /* \"#utility.yul\":11035:11043   */\n      0x00\n        /* \"#utility.yul\":11085:11090   */\n      dup3\n        /* \"#utility.yul\":11079:11083   */\n      dup3\n        /* \"#utility.yul\":11075:11091   */\n      shr\n        /* \"#utility.yul\":11054:11091   */\n      swap1\n      pop\n        /* \"#utility.yul\":10981:11098   */\n      swap3\n      swap2\n      pop\n      pop\n      jump\t// out\n        /* \"#utility.yul\":11104:11273   */\n    tag_103:\n        /* \"#utility.yul\":11148:11154   */\n      0x00\n        /* \"#utility.yul\":11181:11232   */\n      tag_230\n        /* \"#utility.yul\":11229:11230   */\n      0x00\n        /* \"#utility.yul\":11225:11231   */\n      not\n        /* \"#utility.yul\":11217:11222   */\n      dup5\n        /* \"#utility.yul\":11214:11215   */\n      0x08\n        /* \"#utility.yul\":11210:11223   */\n      mul\n        /* \"#utility.yul\":11181:11232   */\n      tag_102\n      jump\t// in\n    tag_230:\n        /* \"#utility.yul\":11177:11233   */\n      not\n        /* \"#utility.yul\":11262:11266   */\n      dup1\n        /* \"#utility.yul\":11256:11260   */\n      dup4\n        /* \"#utility.yul\":11252:11267   */\n      and\n        /* \"#utility.yul\":11242:11267   */\n      swap2\n      pop\n        /* \"#utility.yul\":11155:11273   */\n      pop\n        /* \"#utility.yul\":11104:11273   */\n      swap3\n      swap2\n      pop\n      pop\n      jump\t// out\n        /* \"#utility.yul\":11278:11573   */\n    tag_104:\n        /* \"#utility.yul\":11354:11358   */\n      0x00\n        /* \"#utility.yul\":11500:11529   */\n      tag_232\n        /* \"#utility.yul\":11525:11528   */\n      dup4\n        /* \"#utility.yul\":11519:11523   */\n      dup4\n        /* \"#utility.yul\":11500:11529   */\n      tag_103\n      jump\t// in\n    tag_232:\n        /* \"#utility.yul\":11492:11529   */\n      swap2\n      pop\n        /* \"#utility.yul\":11562:11565   */\n      dup3\n        /* \"#utility.yul\":11559:11560   */\n      0x02\n        /* \"#utility.yul\":11555:11566   */\n      mul\n        /* \"#utility.yul\":11549:11553   */\n      dup3\n        /* \"#utility.yul\":11546:11567   */\n      or\n        /* \"#utility.yul\":11538:11567   */\n      swap1\n      pop\n        /* \"#utility.yul\":11278:11573   */\n      swap3\n      swap2\n      pop\n      pop\n      jump\t// out\n        /* \"#utility.yul\":11578:12973   */\n    tag_28:\n        /* \"#utility.yul\":11695:11732   */\n      tag_234\n        /* \"#utility.yul\":11728:11731   */\n      dup3\n        /* \"#utility.yul\":11695:11732   */\n      tag_78\n      jump\t// in\n    tag_234:\n        /* \"#utility.yul\":11797:11815   */\n      0xffffffffffffffff\n        /* \"#utility.yul\":11789:11795   */\n      dup2\n        /* \"#utility.yul\":11786:11816   */\n      gt\n        /* \"#utility.yul\":11783:11839   */\n      iszero\n      tag_235\n      jumpi\n        /* \"#utility.yul\":11819:11837   */\n      tag_236\n      tag_66\n      jump\t// in\n    tag_236:\n        /* \"#utility.yul\":11783:11839   */\n    tag_235:\n        /* \"#utility.yul\":11863:11901   */\n      tag_237\n        /* \"#utility.yul\":11895:11899   */\n      dup3\n        /* \"#utility.yul\":11889:11900   */\n      sload\n        /* \"#utility.yul\":11863:11901   */\n      tag_34\n      jump\t// in\n    tag_237:\n        /* \"#utility.yul\":11948:12015   */\n      tag_238\n        /* \"#utility.yul\":12008:12014   */\n      dup3\n        /* \"#utility.yul\":12000:12006   */\n      dup3\n        /* \"#utility.yul\":11994:11998   */\n      dup6\n        /* \"#utility.yul\":11948:12015   */\n      tag_101\n      jump\t// in\n    tag_238:\n        /* \"#utility.yul\":12042:12043   */\n      0x00\n        /* \"#utility.yul\":12066:12070   */\n      0x20\n        /* \"#utility.yul\":12053:12070   */\n      swap1\n      pop\n        /* \"#utility.yul\":12098:12100   */\n      0x1f\n        /* \"#utility.yul\":12090:12096   */\n      dup4\n        /* \"#utility.yul\":12087:12101   */\n      gt\n        /* \"#utility.yul\":12115:12116   */\n      0x01\n        /* \"#utility.yul\":12110:12728   */\n      dup2\n      eq\n      tag_240\n      jumpi\n        /* \"#utility.yul\":12772:12773   */\n      0x00\n        /* \"#utility.yul\":12789:12795   */\n      dup5\n        /* \"#utility.yul\":12786:12863   */\n      iszero\n      tag_241\n      jumpi\n        /* \"#utility.yul\":12838:12847   */\n      dup3\n        /* \"#utility.yul\":12833:12836   */\n      dup8\n        /* \"#utility.yul\":12829:12848   */\n      add\n        /* \"#utility.yul\":12823:12849   */\n      mload\n        /* \"#utility.yul\":12814:12849   */\n      swap1\n      pop\n        /* \"#utility.yul\":12786:12863   */\n    tag_241:\n        /* \"#utility.yul\":12889:12956   */\n      tag_242\n        /* \"#utility.yul\":12949:12955   */\n      dup6\n        /* \"#utility.yul\":12942:12947   */\n      dup3\n        /* \"#utility.yul\":12889:12956   */\n      tag_104\n      jump\t// in\n    tag_242:\n        /* \"#utility.yul\":12883:12887   */\n      dup7\n        /* \"#utility.yul\":12876:12957   */\n      sstore\n        /* \"#utility.yul\":12745:12967   */\n      pop\n        /* \"#utility.yul\":12080:12967   */\n      jump(tag_239)\n        /* \"#utility.yul\":12110:12728   */\n    tag_240:\n        /* \"#utility.yul\":12162:12166   */\n      0x1f\n        /* \"#utility.yul\":12158:12167   */\n      not\n        /* \"#utility.yul\":12150:12156   */\n      dup5\n        /* \"#utility.yul\":12146:12168   */\n      and\n        /* \"#utility.yul\":12196:12233   */\n      tag_243\n        /* \"#utility.yul\":12228:12232   */\n      dup7\n        /* \"#utility.yul\":12196:12233   */\n      tag_90\n      jump\t// in\n    tag_243:\n        /* \"#utility.yul\":12255:12256   */\n      0x00\n        /* \"#utility.yul\":12269:12477   */\n    tag_244:\n        /* \"#utility.yul\":12283:12290   */\n      dup3\n        /* \"#utility.yul\":12280:12281   */\n      dup2\n        /* \"#utility.yul\":12277:12291   */\n      lt\n        /* \"#utility.yul\":12269:12477   */\n      iszero\n      tag_246\n      jumpi\n        /* \"#utility.yul\":12362:12371   */\n      dup5\n        /* \"#utility.yul\":12357:12360   */\n      dup10\n        /* \"#utility.yul\":12353:12372   */\n      add\n        /* \"#utility.yul\":12347:12373   */\n      mload\n        /* \"#utility.yul\":12339:12345   */\n      dup3\n        /* \"#utility.yul\":12332:12374   */\n      sstore\n        /* \"#utility.yul\":12413:12414   */\n      0x01\n        /* \"#utility.yul\":12405:12411   */\n      dup3\n        /* \"#utility.yul\":12401:12415   */\n      add\n        /* \"#utility.yul\":12391:12415   */\n      swap2\n      pop\n        /* \"#utility.yul\":12460:12462   */\n      0x20\n        /* \"#utility.yul\":12449:12458   */\n      dup6\n        /* \"#utility.yul\":12445:12463   */\n      add\n        /* \"#utility.yul\":12432:12463   */\n      swap5\n      pop\n        /* \"#utility.yul\":12306:12310   */\n      0x20\n        /* \"#utility.yul\":12303:12304   */\n      dup2\n        /* \"#utility.yul\":12299:12311   */\n      add\n        /* \"#utility.yul\":12294:12311   */\n      swap1\n      pop\n        /* \"#utility.yul\":12269:12477   */\n      jump(tag_244)\n    tag_246:\n        /* \"#utility.yul\":12505:12511   */\n      dup7\n        /* \"#utility.yul\":12496:12503   */\n      dup4\n        /* \"#utility.yul\":12493:12512   */\n      lt\n        /* \"#utility.yul\":12490:12669   */\n      iszero\n      tag_247\n      jumpi\n        /* \"#utility.yul\":12563:12572   */\n      dup5\n        /* \"#utility.yul\":12558:12561   */\n      dup10\n        /* \"#utility.yul\":12554:12573   */\n      add\n        /* \"#utility.yul\":12548:12574   */\n      mload\n        /* \"#utility.yul\":12606:12654   */\n      tag_248\n        /* \"#utility.yul\":12648:12652   */\n      0x1f\n        /* \"#utility.yul\":12640:12646   */\n      dup10\n        /* \"#utility.yul\":12636:12653   */\n      and\n        /* \"#utility.yul\":12625:12634   */\n      dup3\n        /* \"#utility.yul\":12606:12654   */\n      tag_103\n      jump\t// in\n    tag_248:\n        /* \"#utility.yul\":12598:12604   */\n      dup4\n        /* \"#utility.yul\":12591:12655   */\n      sstore\n        /* \"#utility.yul\":12513:12669   */\n      pop\n        /* \"#utility.yul\":12490:12669   */\n    tag_247:\n        /* \"#utility.yul\":12715:12716   */\n      0x01\n        /* \"#utility.yul\":12711:12712   */\n      0x02\n        /* \"#utility.yul\":12703:12709   */\n      dup9\n        /* \"#utility.yul\":12699:12713   */\n      mul\n        /* \"#utility.yul\":12695:12717   */\n      add\n        /* \"#utility.yul\":12689:12693   */\n      dup9\n        /* \"#utility.yul\":12682:12718   */\n      sstore\n        /* \"#utility.yul\":12117:12728   */\n      pop\n      pop\n      pop\n        /* \"#utility.yul\":12080:12967   */\n    tag_239:\n      pop\n        /* \"#utility.yul\":11670:12973   */\n      pop\n      pop\n      pop\n        /* \"#utility.yul\":11578:12973   */\n      pop\n      pop\n      jump\t// out\n        /* \"#utility.yul\":12979:13159   */\n    tag_42:\n        /* \"#utility.yul\":13027:13104   */\n      0x4e487b7100000000000000000000000000000000000000000000000000000000\n        /* \"#utility.yul\":13024:13025   */\n      0x00\n        /* \"#utility.yul\":13017:13105   */\n      mstore\n        /* \"#utility.yul\":13124:13128   */\n      0x31\n        /* \"#utility.yul\":13121:13122   */\n      0x04\n        /* \"#utility.yul\":13114:13129   */\n      mstore\n        /* \"#utility.yul\":13148:13152   */\n      0x24\n        /* \"#utility.yul\":13145:13146   */\n      0x00\n        /* \"#utility.yul\":13138:13153   */\n      revert\n\n    auxdata: 0xa2646970667358221220b24a9c80e9e72bb184ad5e6fdac5b14497493b8108f2cc96bd4882726a0767eb64736f6c63430008120033\n}\n",
				"bytecode": {
					"linkReferences": {},
					"object": "608060405234801561001057600080fd5b50610a72806100206000396000f3fe608060405234801561001057600080fd5b506004361061004c5760003560e01c80634f3d057a146100515780636d4ce63c14610081578063a4ece52c1461009f578063edf0099b146100a9575b600080fd5b61006b6004803603810190610066919061048a565b6100d9565b60405161007891906104ec565b60405180910390f35b61008961011c565b6040516100969190610648565b60405180910390f35b6100a76101f5565b005b6100c360048036038101906100be9190610696565b610227565b6040516100d0919061070d565b60405180910390f35b6000808290806001815401808255809150506001900390600052602060002001600090919091909150908161010e919061093b565b506000805490509050919050565b60606000805480602002602001604051908101604052809291908181526020016000905b828210156101ec57838290600052602060002001805461015f9061075e565b80601f016020809104026020016040519081016040528092919081815260200182805461018b9061075e565b80156101d85780601f106101ad576101008083540402835291602001916101d8565b820191906000526020600020905b8154815290600101906020018083116101bb57829003601f168201915b505050505081526020019060010190610140565b50505050905090565b600080548061020757610206610a0d565b5b60019003818190600052602060002001600061022391906102d3565b9055565b6000818154811061023757600080fd5b9060005260206000200160009150905080546102529061075e565b80601f016020809104026020016040519081016040528092919081815260200182805461027e9061075e565b80156102cb5780601f106102a0576101008083540402835291602001916102cb565b820191906000526020600020905b8154815290600101906020018083116102ae57829003601f168201915b505050505081565b5080546102df9061075e565b6000825580601f106102f15750610310565b601f01602090049060005260206000209081019061030f9190610313565b5b50565b5b8082111561032c576000816000905550600101610314565b5090565b6000604051905090565b600080fd5b600080fd5b600080fd5b600080fd5b6000601f19601f8301169050919050565b7f4e487b7100000000000000000000000000000000000000000000000000000000600052604160045260246000fd5b6103978261034e565b810181811067ffffffffffffffff821117156103b6576103b561035f565b5b80604052505050565b60006103c9610330565b90506103d5828261038e565b919050565b600067ffffffffffffffff8211156103f5576103f461035f565b5b6103fe8261034e565b9050602081019050919050565b82818337600083830152505050565b600061042d610428846103da565b6103bf565b90508281526020810184848401111561044957610448610349565b5b61045484828561040b565b509392505050565b600082601f83011261047157610470610344565b5b813561048184826020860161041a565b91505092915050565b6000602082840312156104a05761049f61033a565b5b600082013567ffffffffffffffff8111156104be576104bd61033f565b5b6104ca8482850161045c565b91505092915050565b6000819050919050565b6104e6816104d3565b82525050565b600060208201905061050160008301846104dd565b92915050565b600081519050919050565b600082825260208201905092915050565b6000819050602082019050919050565b600081519050919050565b600082825260208201905092915050565b60005b8381101561056d578082015181840152602081019050610552565b60008484015250505050565b600061058482610533565b61058e818561053e565b935061059e81856020860161054f565b6105a78161034e565b840191505092915050565b60006105be8383610579565b905092915050565b6000602082019050919050565b60006105de82610507565b6105e88185610512565b9350836020820285016105fa85610523565b8060005b85811015610636578484038952815161061785826105b2565b9450610622836105c6565b925060208a019950506001810190506105fe565b50829750879550505050505092915050565b6000602082019050818103600083015261066281846105d3565b905092915050565b610673816104d3565b811461067e57600080fd5b50565b6000813590506106908161066a565b92915050565b6000602082840312156106ac576106ab61033a565b5b60006106ba84828501610681565b91505092915050565b600082825260208201905092915050565b60006106df82610533565b6106e981856106c3565b93506106f981856020860161054f565b6107028161034e565b840191505092915050565b6000602082019050818103600083015261072781846106d4565b905092915050565b7f4e487b7100000000000000000000000000000000000000000000000000000000600052602260045260246000fd5b6000600282049050600182168061077657607f821691505b6020821081036107895761078861072f565b5b50919050565b60008190508160005260206000209050919050565b60006020601f8301049050919050565b600082821b905092915050565b6000600883026107f17fffffffffffffffffffffffffffffffffffffffffffffffffffffffffffffffff826107b4565b6107fb86836107b4565b95508019841693508086168417925050509392505050565b6000819050919050565b600061083861083361082e846104d3565b610813565b6104d3565b9050919050565b6000819050919050565b6108528361081d565b61086661085e8261083f565b8484546107c1565b825550505050565b600090565b61087b61086e565b610886818484610849565b505050565b5b818110156108aa5761089f600082610873565b60018101905061088c565b5050565b601f8211156108ef576108c08161078f565b6108c9846107a4565b810160208510156108d8578190505b6108ec6108e4856107a4565b83018261088b565b50505b505050565b600082821c905092915050565b6000610912600019846008026108f4565b1980831691505092915050565b600061092b8383610901565b9150826002028217905092915050565b61094482610533565b67ffffffffffffffff81111561095d5761095c61035f565b5b610967825461075e565b6109728282856108ae565b600060209050601f8311600181146109a55760008415610993578287015190505b61099d858261091f565b865550610a05565b601f1984166109b38661078f565b60005b828110156109db578489015182556001820191506020850194506020810190506109b6565b868310156109f857848901516109f4601f891682610901565b8355505b6001600288020188555050505b505050505050565b7f4e487b7100000000000000000000000000000000000000000000000000000000600052603160045260246000fdfea2646970667358221220b24a9c80e9e72bb184ad5e6fdac5b14497493b8108f2cc96bd4882726a0767eb64736f6c63430008120033",
					"opcodes": "PUSH1 0x80 PUSH1 0x40 MSTORE CALLVALUE DUP1 ISZERO PUSH2 0x10 JUMPI PUSH1 0x0 DUP1 REVERT JUMPDEST POP PUSH2 0xA72 DUP1 PUSH2 0x20 PUSH1 0x0 CODECOPY PUSH1 0x0 RETURN INVALID PUSH1 0x80 PUSH1 0x40 MSTORE CALLVALUE DUP1 ISZERO PUSH2 0x10 JUMPI PUSH1 0x0 DUP1 REVERT JUMPDEST POP PUSH1 0x4 CALLDATASIZE LT PUSH2 0x4C JUMPI PUSH1 0x0 CALLDATALOAD PUSH1 0xE0 SHR DUP1 PUSH4 0x4F3D057A EQ PUSH2 0x51 JUMPI DUP1 PUSH4 0x6D4CE63C EQ PUSH2 0x81 JUMPI DUP1 PUSH4 0xA4ECE52C EQ PUSH2 0x9F JUMPI DUP1 PUSH4 0xEDF0099B EQ PUSH2 0xA9 JUMPI JUMPDEST PUSH1 0x0 DUP1 REVERT JUMPDEST PUSH2 0x6B PUSH1 0x4 DUP1 CALLDATASIZE SUB DUP2 ADD SWAP1 PUSH2 0x66 SWAP2 SWAP1 PUSH2 0x48A JUMP JUMPDEST PUSH2 0xD9 JUMP JUMPDEST PUSH1 0x40 MLOAD PUSH2 0x78 SWAP2 SWAP1 PUSH2 0x4EC JUMP JUMPDEST PUSH1 0x40 MLOAD DUP1 SWAP2 SUB SWAP1 RETURN JUMPDEST PUSH2 0x89 PUSH2 0x11C JUMP JUMPDEST PUSH1 0x40 MLOAD PUSH2 0x96 SWAP2 SWAP1 PUSH2 0x648 JUMP JUMPDEST PUSH1 0x40 MLOAD DUP1 SWAP2 SUB SWAP1 RETURN JUMPDEST PUSH2 0xA7 PUSH2 0x1F5 JUMP JUMPDEST STOP JUMPDEST PUSH2 0xC3 PUSH1 0x4 DUP1 CALLDATASIZE SUB DUP2 ADD SWAP1 PUSH2 0xBE SWAP2 SWAP1 PUSH2 0x696 JUMP JUMPDEST PUSH2 0x227 JUMP JUMPDEST PUSH1 0x40 MLOAD PUSH2 0xD0 SWAP2 SWAP1 PUSH2 0x70D JUMP JUMPDEST PUSH1 0x40 MLOAD DUP1 SWAP2 SUB SWAP1 RETURN JUMPDEST PUSH1 0x0 DUP1 DUP3 SWAP1 DUP1 PUSH1 0x1 DUP2 SLOAD ADD DUP1 DUP3 SSTORE DUP1 SWAP2 POP POP PUSH1 0x1 SWAP1 SUB SWAP1 PUSH1 0x0 MSTORE PUSH1 0x20 PUSH1 0x0 KECCAK256 ADD PUSH1 0x0 SWAP1 SWAP2 SWAP1 SWAP2 SWAP1 SWAP2 POP SWAP1 DUP2 PUSH2 0x10E SWAP2 SWAP1 PUSH2 0x93B JUMP JUMPDEST POP PUSH1 0x0 DUP1 SLOAD SWAP1 POP SWAP1 POP SWAP2 SWAP1 POP JUMP JUMPDEST PUSH1 0x60 PUSH1 0x0 DUP1 SLOAD DUP1 PUSH1 0x20 MUL PUSH1 0x20 ADD PUSH1 0x40 MLOAD SWAP1 DUP2 ADD PUSH1 0x40 MSTORE DUP1 SWAP3 SWAP2 SWAP1 DUP2 DUP2 MSTORE PUSH1 0x20 ADD PUSH1 0x0 SWAP1 JUMPDEST DUP3 DUP3 LT ISZERO PUSH2 0x1EC JUMPI DUP4 DUP3 SWAP1 PUSH1 0x0 MSTORE PUSH1 0x20 PUSH1 0x0 KECCAK256 ADD DUP1 SLOAD PUSH2 0x15F SWAP1 PUSH2 0x75E JUMP JUMPDEST DUP1 PUSH1 0x1F ADD PUSH1 0x20 DUP1 SWAP2 DIV MUL PUSH1 0x20 ADD PUSH1 0x40 MLOAD SWAP1 DUP2 ADD PUSH1 0x40 MSTORE DUP1 SWAP3 SWAP2 SWAP1 DUP2 DUP2 MSTORE PUSH1 0x20 ADD DUP3 DUP1 SLOAD PUSH2 0x18B SWAP1 PUSH2 0x75E JUMP JUMPDEST DUP1 ISZERO PUSH2 0x1D8 JUMPI DUP1 PUSH1 0x1F LT PUSH2 0x1AD JUMPI PUSH2 0x100 DUP1 DUP4 SLOAD DIV MUL DUP4 MSTORE SWAP2 PUSH1 0x20 ADD SWAP2 PUSH2 0x1D8 JUMP JUMPDEST DUP3 ADD SWAP2 SWAP1 PUSH1 0x0 MSTORE PUSH1 0x20 PUSH1 0x0 KECCAK256 SWAP1 JUMPDEST DUP2 SLOAD DUP2 MSTORE SWAP1 PUSH1 0x1 ADD SWAP1 PUSH1 0x20 ADD DUP1 DUP4 GT PUSH2 0x1BB JUMPI DUP3 SWAP1 SUB PUSH1 0x1F AND DUP3 ADD SWAP2 JUMPDEST POP POP POP POP POP DUP2 MSTORE PUSH1 0x20 ADD SWAP1 PUSH1 0x1 ADD SWAP1 PUSH2 0x140 JUMP JUMPDEST POP POP POP POP SWAP1 POP SWAP1 JUMP JUMPDEST PUSH1 0x0 DUP1 SLOAD DUP1 PUSH2 0x207 JUMPI PUSH2 0x206 PUSH2 0xA0D JUMP JUMPDEST JUMPDEST PUSH1 0x1 SWAP1 SUB DUP2 DUP2 SWAP1 PUSH1 0x0 MSTORE PUSH1 0x20 PUSH1 0x0 KECCAK256 ADD PUSH1 0x0 PUSH2 0x223 SWAP2 SWAP1 PUSH2 0x2D3 JUMP JUMPDEST SWAP1 SSTORE JUMP JUMPDEST PUSH1 0x0 DUP2 DUP2 SLOAD DUP2 LT PUSH2 0x237 JUMPI PUSH1 0x0 DUP1 REVERT JUMPDEST SWAP1 PUSH1 0x0 MSTORE PUSH1 0x20 PUSH1 0x0 KECCAK256 ADD PUSH1 0x0 SWAP2 POP SWAP1 POP DUP1 SLOAD PUSH2 0x252 SWAP1 PUSH2 0x75E JUMP JUMPDEST DUP1 PUSH1 0x1F ADD PUSH1 0x20 DUP1 SWAP2 DIV MUL PUSH1 0x20 ADD PUSH1 0x40 MLOAD SWAP1 DUP2 ADD PUSH1 0x40 MSTORE DUP1 SWAP3 SWAP2 SWAP1 DUP2 DUP2 MSTORE PUSH1 0x20 ADD DUP3 DUP1 SLOAD PUSH2 0x27E SWAP1 PUSH2 0x75E JUMP JUMPDEST DUP1 ISZERO PUSH2 0x2CB JUMPI DUP1 PUSH1 0x1F LT PUSH2 0x2A0 JUMPI PUSH2 0x100 DUP1 DUP4 SLOAD DIV MUL DUP4 MSTORE SWAP2 PUSH1 0x20 ADD SWAP2 PUSH2 0x2CB JUMP JUMPDEST DUP3 ADD SWAP2 SWAP1 PUSH1 0x0 MSTORE PUSH1 0x20 PUSH1 0x0 KECCAK256 SWAP1 JUMPDEST DUP2 SLOAD DUP2 MSTORE SWAP1 PUSH1 0x1 ADD SWAP1 PUSH1 0x20 ADD DUP1 DUP4 GT PUSH2 0x2AE JUMPI DUP3 SWAP1 SUB PUSH1 0x1F AND DUP3 ADD SWAP2 JUMPDEST POP POP POP POP POP DUP2 JUMP JUMPDEST POP DUP1 SLOAD PUSH2 0x2DF SWAP1 PUSH2 0x75E JUMP JUMPDEST PUSH1 0x0 DUP3 SSTORE DUP1 PUSH1 0x1F LT PUSH2 0x2F1 JUMPI POP PUSH2 0x310 JUMP JUMPDEST PUSH1 0x1F ADD PUSH1 0x20 SWAP1 DIV SWAP1 PUSH1 0x0 MSTORE PUSH1 0x20 PUSH1 0x0 KECCAK256 SWAP1 DUP2 ADD SWAP1 PUSH2 0x30F SWAP2 SWAP1 PUSH2 0x313 JUMP JUMPDEST JUMPDEST POP JUMP JUMPDEST JUMPDEST DUP1 DUP3 GT ISZERO PUSH2 0x32C JUMPI PUSH1 0x0 DUP2 PUSH1 0x0 SWAP1 SSTORE POP PUSH1 0x1 ADD PUSH2 0x314 JUMP JUMPDEST POP SWAP1 JUMP JUMPDEST PUSH1 0x0 PUSH1 0x40 MLOAD SWAP1 POP SWAP1 JUMP JUMPDEST PUSH1 0x0 DUP1 REVERT JUMPDEST PUSH1 0x0 DUP1 REVERT JUMPDEST PUSH1 0x0 DUP1 REVERT JUMPDEST PUSH1 0x0 DUP1 REVERT JUMPDEST PUSH1 0x0 PUSH1 0x1F NOT PUSH1 0x1F DUP4 ADD AND SWAP1 POP SWAP2 SWAP1 POP JUMP JUMPDEST PUSH32 0x4E487B7100000000000000000000000000000000000000000000000000000000 PUSH1 0x0 MSTORE PUSH1 0x41 PUSH1 0x4 MSTORE PUSH1 0x24 PUSH1 0x0 REVERT JUMPDEST PUSH2 0x397 DUP3 PUSH2 0x34E JUMP JUMPDEST DUP2 ADD DUP2 DUP2 LT PUSH8 0xFFFFFFFFFFFFFFFF DUP3 GT OR ISZERO PUSH2 0x3B6 JUMPI PUSH2 0x3B5 PUSH2 0x35F JUMP JUMPDEST JUMPDEST DUP1 PUSH1 0x40 MSTORE POP POP POP JUMP JUMPDEST PUSH1 0x0 PUSH2 0x3C9 PUSH2 0x330 JUMP JUMPDEST SWAP1 POP PUSH2 0x3D5 DUP3 DUP3 PUSH2 0x38E JUMP JUMPDEST SWAP2 SWAP1 POP JUMP JUMPDEST PUSH1 0x0 PUSH8 0xFFFFFFFFFFFFFFFF DUP3 GT ISZERO PUSH2 0x3F5 JUMPI PUSH2 0x3F4 PUSH2 0x35F JUMP JUMPDEST JUMPDEST PUSH2 0x3FE DUP3 PUSH2 0x34E JUMP JUMPDEST SWAP1 POP PUSH1 0x20 DUP2 ADD SWAP1 POP SWAP2 SWAP1 POP JUMP JUMPDEST DUP3 DUP2 DUP4 CALLDATACOPY PUSH1 0x0 DUP4 DUP4 ADD MSTORE POP POP POP JUMP JUMPDEST PUSH1 0x0 PUSH2 0x42D PUSH2 0x428 DUP5 PUSH2 0x3DA JUMP JUMPDEST PUSH2 0x3BF JUMP JUMPDEST SWAP1 POP DUP3 DUP2 MSTORE PUSH1 0x20 DUP2 ADD DUP5 DUP5 DUP5 ADD GT ISZERO PUSH2 0x449 JUMPI PUSH2 0x448 PUSH2 0x349 JUMP JUMPDEST JUMPDEST PUSH2 0x454 DUP5 DUP3 DUP6 PUSH2 0x40B JUMP JUMPDEST POP SWAP4 SWAP3 POP POP POP JUMP JUMPDEST PUSH1 0x0 DUP3 PUSH1 0x1F DUP4 ADD SLT PUSH2 0x471 JUMPI PUSH2 0x470 PUSH2 0x344 JUMP JUMPDEST JUMPDEST DUP2 CALLDATALOAD PUSH2 0x481 DUP5 DUP3 PUSH1 0x20 DUP7 ADD PUSH2 0x41A JUMP JUMPDEST SWAP2 POP POP SWAP3 SWAP2 POP POP JUMP JUMPDEST PUSH1 0x0 PUSH1 0x20 DUP3 DUP5 SUB SLT ISZERO PUSH2 0x4A0 JUMPI PUSH2 0x49F PUSH2 0x33A JUMP JUMPDEST JUMPDEST PUSH1 0x0 DUP3 ADD CALLDATALOAD PUSH8 0xFFFFFFFFFFFFFFFF DUP2 GT ISZERO PUSH2 0x4BE JUMPI PUSH2 0x4BD PUSH2 0x33F JUMP JUMPDEST JUMPDEST PUSH2 0x4CA DUP5 DUP3 DUP6 ADD PUSH2 0x45C JUMP JUMPDEST SWAP2 POP POP SWAP3 SWAP2 POP POP JUMP JUMPDEST PUSH1 0x0 DUP2 SWAP1 POP SWAP2 SWAP1 POP JUMP JUMPDEST PUSH2 0x4E6 DUP2 PUSH2 0x4D3 JUMP JUMPDEST DUP3 MSTORE POP POP JUMP JUMPDEST PUSH1 0x0 PUSH1 0x20 DUP3 ADD SWAP1 POP PUSH2 0x501 PUSH1 0x0 DUP4 ADD DUP5 PUSH2 0x4DD JUMP JUMPDEST SWAP3 SWAP2 POP POP JUMP JUMPDEST PUSH1 0x0 DUP2 MLOAD SWAP1 POP SWAP2 SWAP1 POP JUMP JUMPDEST PUSH1 0x0 DUP3 DUP3 MSTORE PUSH1 0x20 DUP3 ADD SWAP1 POP SWAP3 SWAP2 POP POP JUMP JUMPDEST PUSH1 0x0 DUP2 SWAP1 POP PUSH1 0x20 DUP3 ADD SWAP1 POP SWAP2 SWAP1 POP JUMP JUMPDEST PUSH1 0x0 DUP2 MLOAD SWAP1 POP SWAP2 SWAP1 POP JUMP JUMPDEST PUSH1 0x0 DUP3 DUP3 MSTORE PUSH1 0x20 DUP3 ADD SWAP1 POP SWAP3 SWAP2 POP POP JUMP JUMPDEST PUSH1 0x0 JUMPDEST DUP4 DUP2 LT ISZERO PUSH2 0x56D JUMPI DUP1 DUP3 ADD MLOAD DUP2 DUP5 ADD MSTORE PUSH1 0x20 DUP2 ADD SWAP1 POP PUSH2 0x552 JUMP JUMPDEST PUSH1 0x0 DUP5 DUP5 ADD MSTORE POP POP POP POP JUMP JUMPDEST PUSH1 0x0 PUSH2 0x584 DUP3 PUSH2 0x533 JUMP JUMPDEST PUSH2 0x58E DUP2 DUP6 PUSH2 0x53E JUMP JUMPDEST SWAP4 POP PUSH2 0x59E DUP2 DUP6 PUSH1 0x20 DUP7 ADD PUSH2 0x54F JUMP JUMPDEST PUSH2 0x5A7 DUP2 PUSH2 0x34E JUMP JUMPDEST DUP5 ADD SWAP2 POP POP SWAP3 SWAP2 POP POP JUMP JUMPDEST PUSH1 0x0 PUSH2 0x5BE DUP4 DUP4 PUSH2 0x579 JUMP JUMPDEST SWAP1 POP SWAP3 SWAP2 POP POP JUMP JUMPDEST PUSH1 0x0 PUSH1 0x20 DUP3 ADD SWAP1 POP SWAP2 SWAP1 POP JUMP JUMPDEST PUSH1 0x0 PUSH2 0x5DE DUP3 PUSH2 0x507 JUMP JUMPDEST PUSH2 0x5E8 DUP2 DUP6 PUSH2 0x512 JUMP JUMPDEST SWAP4 POP DUP4 PUSH1 0x20 DUP3 MUL DUP6 ADD PUSH2 0x5FA DUP6 PUSH2 0x523 JUMP JUMPDEST DUP1 PUSH1 0x0 JUMPDEST DUP6 DUP2 LT ISZERO PUSH2 0x636 JUMPI DUP5 DUP5 SUB DUP10 MSTORE DUP2 MLOAD PUSH2 0x617 DUP6 DUP3 PUSH2 0x5B2 JUMP JUMPDEST SWAP5 POP PUSH2 0x622 DUP4 PUSH2 0x5C6 JUMP JUMPDEST SWAP3 POP PUSH1 0x20 DUP11 ADD SWAP10 POP POP PUSH1 0x1 DUP2 ADD SWAP1 POP PUSH2 0x5FE JUMP JUMPDEST POP DUP3 SWAP8 POP DUP8 SWAP6 POP POP POP POP POP POP SWAP3 SWAP2 POP POP JUMP JUMPDEST PUSH1 0x0 PUSH1 0x20 DUP3 ADD SWAP1 POP DUP2 DUP2 SUB PUSH1 0x0 DUP4 ADD MSTORE PUSH2 0x662 DUP2 DUP5 PUSH2 0x5D3 JUMP JUMPDEST SWAP1 POP SWAP3 SWAP2 POP POP JUMP JUMPDEST PUSH2 0x673 DUP2 PUSH2 0x4D3 JUMP JUMPDEST DUP2 EQ PUSH2 0x67E JUMPI PUSH1 0x0 DUP1 REVERT JUMPDEST POP JUMP JUMPDEST PUSH1 0x0 DUP2 CALLDATALOAD SWAP1 POP PUSH2 0x690 DUP2 PUSH2 0x66A JUMP JUMPDEST SWAP3 SWAP2 POP POP JUMP JUMPDEST PUSH1 0x0 PUSH1 0x20 DUP3 DUP5 SUB SLT ISZERO PUSH2 0x6AC JUMPI PUSH2 0x6AB PUSH2 0x33A JUMP JUMPDEST JUMPDEST PUSH1 0x0 PUSH2 0x6BA DUP5 DUP3 DUP6 ADD PUSH2 0x681 JUMP JUMPDEST SWAP2 POP POP SWAP3 SWAP2 POP POP JUMP JUMPDEST PUSH1 0x0 DUP3 DUP3 MSTORE PUSH1 0x20 DUP3 ADD SWAP1 POP SWAP3 SWAP2 POP POP JUMP JUMPDEST PUSH1 0x0 PUSH2 0x6DF DUP3 PUSH2 0x533 JUMP JUMPDEST PUSH2 0x6E9 DUP2 DUP6 PUSH2 0x6C3 JUMP JUMPDEST SWAP4 POP PUSH2 0x6F9 DUP2 DUP6 PUSH1 0x20 DUP7 ADD PUSH2 0x54F JUMP JUMPDEST PUSH2 0x702 DUP2 PUSH2 0x34E JUMP JUMPDEST DUP5 ADD SWAP2 POP POP SWAP3 SWAP2 POP POP JUMP JUMPDEST PUSH1 0x0 PUSH1 0x20 DUP3 ADD SWAP1 POP DUP2 DUP2 SUB PUSH1 0x0 DUP4 ADD MSTORE PUSH2 0x727 DUP2 DUP5 PUSH2 0x6D4 JUMP JUMPDEST SWAP1 POP SWAP3 SWAP2 POP POP JUMP JUMPDEST PUSH32 0x4E487B7100000000000000000000000000000000000000000000000000000000 PUSH1 0x0 MSTORE PUSH1 0x22 PUSH1 0x4 MSTORE PUSH1 0x24 PUSH1 0x0 REVERT JUMPDEST PUSH1 0x0 PUSH1 0x2 DUP3 DIV SWAP1 POP PUSH1 0x1 DUP3 AND DUP1 PUSH2 0x776 JUMPI PUSH1 0x7F DUP3 AND SWAP2 POP JUMPDEST PUSH1 0x20 DUP3 LT DUP2 SUB PUSH2 0x789 JUMPI PUSH2 0x788 PUSH2 0x72F JUMP JUMPDEST JUMPDEST POP SWAP2 SWAP1 POP JUMP JUMPDEST PUSH1 0x0 DUP2 SWAP1 POP DUP2 PUSH1 0x0 MSTORE PUSH1 0x20 PUSH1 0x0 KECCAK256 SWAP1 POP SWAP2 SWAP1 POP JUMP JUMPDEST PUSH1 0x0 PUSH1 0x20 PUSH1 0x1F DUP4 ADD DIV SWAP1 POP SWAP2 SWAP1 POP JUMP JUMPDEST PUSH1 0x0 DUP3 DUP3 SHL SWAP1 POP SWAP3 SWAP2 POP POP JUMP JUMPDEST PUSH1 0x0 PUSH1 0x8 DUP4 MUL PUSH2 0x7F1 PUSH32 0xFFFFFFFFFFFFFFFFFFFFFFFFFFFFFFFFFFFFFFFFFFFFFFFFFFFFFFFFFFFFFFFF DUP3 PUSH2 0x7B4 JUMP JUMPDEST PUSH2 0x7FB DUP7 DUP4 PUSH2 0x7B4 JUMP JUMPDEST SWAP6 POP DUP1 NOT DUP5 AND SWAP4 POP DUP1 DUP7 AND DUP5 OR SWAP3 POP POP POP SWAP4 SWAP3 POP POP POP JUMP JUMPDEST PUSH1 0x0 DUP2 SWAP1 POP SWAP2 SWAP1 POP JUMP JUMPDEST PUSH1 0x0 PUSH2 0x838 PUSH2 0x833 PUSH2 0x82E DUP5 PUSH2 0x4D3 JUMP JUMPDEST PUSH2 0x813 JUMP JUMPDEST PUSH2 0x4D3 JUMP JUMPDEST SWAP1 POP SWAP2 SWAP1 POP JUMP JUMPDEST PUSH1 0x0 DUP2 SWAP1 POP SWAP2 SWAP1 POP JUMP JUMPDEST PUSH2 0x852 DUP4 PUSH2 0x81D JUMP JUMPDEST PUSH2 0x866 PUSH2 0x85E DUP3 PUSH2 0x83F JUMP JUMPDEST DUP5 DUP5 SLOAD PUSH2 0x7C1 JUMP JUMPDEST DUP3 SSTORE POP POP POP POP JUMP JUMPDEST PUSH1 0x0 SWAP1 JUMP JUMPDEST PUSH2 0x87B PUSH2 0x86E JUMP JUMPDEST PUSH2 0x886 DUP2 DUP5 DUP5 PUSH2 0x849 JUMP JUMPDEST POP POP POP JUMP JUMPDEST JUMPDEST DUP2 DUP2 LT ISZERO PUSH2 0x8AA JUMPI PUSH2 0x89F PUSH1 0x0 DUP3 PUSH2 0x873 JUMP JUMPDEST PUSH1 0x1 DUP2 ADD SWAP1 POP PUSH2 0x88C JUMP JUMPDEST POP POP JUMP JUMPDEST PUSH1 0x1F DUP3 GT ISZERO PUSH2 0x8EF JUMPI PUSH2 0x8C0 DUP2 PUSH2 0x78F JUMP JUMPDEST PUSH2 0x8C9 DUP5 PUSH2 0x7A4 JUMP JUMPDEST DUP2 ADD PUSH1 0x20 DUP6 LT ISZERO PUSH2 0x8D8 JUMPI DUP2 SWAP1 POP JUMPDEST PUSH2 0x8EC PUSH2 0x8E4 DUP6 PUSH2 0x7A4 JUMP JUMPDEST DUP4 ADD DUP3 PUSH2 0x88B JUMP JUMPDEST POP POP JUMPDEST POP POP POP JUMP JUMPDEST PUSH1 0x0 DUP3 DUP3 SHR SWAP1 POP SWAP3 SWAP2 POP POP JUMP JUMPDEST PUSH1 0x0 PUSH2 0x912 PUSH1 0x0 NOT DUP5 PUSH1 0x8 MUL PUSH2 0x8F4 JUMP JUMPDEST NOT DUP1 DUP4 AND SWAP2 POP POP SWAP3 SWAP2 POP POP JUMP JUMPDEST PUSH1 0x0 PUSH2 0x92B DUP4 DUP4 PUSH2 0x901 JUMP JUMPDEST SWAP2 POP DUP3 PUSH1 0x2 MUL DUP3 OR SWAP1 POP SWAP3 SWAP2 POP POP JUMP JUMPDEST PUSH2 0x944 DUP3 PUSH2 0x533 JUMP JUMPDEST PUSH8 0xFFFFFFFFFFFFFFFF DUP2 GT ISZERO PUSH2 0x95D JUMPI PUSH2 0x95C PUSH2 0x35F JUMP JUMPDEST JUMPDEST PUSH2 0x967 DUP3 SLOAD PUSH2 0x75E JUMP JUMPDEST PUSH2 0x972 DUP3 DUP3 DUP6 PUSH2 0x8AE JUMP JUMPDEST PUSH1 0x0 PUSH1 0x20 SWAP1 POP PUSH1 0x1F DUP4 GT PUSH1 0x1 DUP2 EQ PUSH2 0x9A5 JUMPI PUSH1 0x0 DUP5 ISZERO PUSH2 0x993 JUMPI DUP3 DUP8 ADD MLOAD SWAP1 POP JUMPDEST PUSH2 0x99D DUP6 DUP3 PUSH2 0x91F JUMP JUMPDEST DUP7 SSTORE POP PUSH2 0xA05 JUMP JUMPDEST PUSH1 0x1F NOT DUP5 AND PUSH2 0x9B3 DUP7 PUSH2 0x78F JUMP JUMPDEST PUSH1 0x0 JUMPDEST DUP3 DUP2 LT ISZERO PUSH2 0x9DB JUMPI DUP5 DUP10 ADD MLOAD DUP3 SSTORE PUSH1 0x1 DUP3 ADD SWAP2 POP PUSH1 0x20 DUP6 ADD SWAP5 POP PUSH1 0x20 DUP2 ADD SWAP1 POP PUSH2 0x9B6 JUMP JUMPDEST DUP7 DUP4 LT ISZERO PUSH2 0x9F8 JUMPI DUP5 DUP10 ADD MLOAD PUSH2 0x9F4 PUSH1 0x1F DUP10 AND DUP3 PUSH2 0x901 JUMP JUMPDEST DUP4 SSTORE POP JUMPDEST PUSH1 0x1 PUSH1 0x2 DUP9 MUL ADD DUP9 SSTORE POP POP POP JUMPDEST POP POP POP POP POP POP JUMP JUMPDEST PUSH32 0x4E487B7100000000000000000000000000000000000000000000000000000000 PUSH1 0x0 MSTORE PUSH1 0x31 PUSH1 0x4 MSTORE PUSH1 0x24 PUSH1 0x0 REVERT INVALID LOG2 PUSH5 0x6970667358 0x22 SLT KECCAK256 0xB2 0x4A SWAP13 DUP1 0xE9 0xE7 0x2B 0xB1 DUP5 0xAD 0x5E PUSH16 0xDAC5B14497493B8108F2CC96BD488272 PUSH11 0x767EB64736F6C63430008 SLT STOP CALLER "
				},
				"gasEstimates": {
					"creation": {
						"codeDepositCost": "534800",
						"executionCost": "568",
						"totalCost": "535368"
					},
					"external": {
						"arr2(uint256)": "infinite",
						"get()": "infinite",
						"pop()": "infinite",
						"push(string)": "infinite"
					}
				},
				"methodIdentifiers": {
					"arr2(uint256)": "edf0099b",
					"get()": "6d4ce63c",
					"pop()": "a4ece52c",
					"push(string)": "4f3d057a"
				}
			},
			"storageLayout": {
				"storage": [
					{
						"astId": 262,
						"contract": "contracts/31stjuly.sol:dynamicSizedArray",
						"label": "arr2",
						"offset": 0,
						"slot": "0",
						"type": "t_array(t_string_storage)dyn_storage"
					}
				],
				"types": {
					"t_array(t_string_storage)dyn_storage": {
						"base": "t_string_storage",
						"encoding": "dynamic_array",
						"label": "string[]",
						"numberOfBytes": "32"
					},
					"t_string_storage": {
						"encoding": "bytes",
						"label": "string",
						"numberOfBytes": "32"
					}
				}
			},
			"userdoc": {
				"kind": "user",
				"methods": {},
				"version": 1
			}
		}
	}
}