{
	"contracts/31stjuly.sol": {
		"func": {
			"abi": [
				{
					"inputs": [
						{
							"internalType": "uint256",
							"name": "_radius",
							"type": "uint256"
						}
					],
					"name": "circumference",
					"outputs": [
						{
							"internalType": "uint256",
							"name": "result",
							"type": "uint256"
						}
					],
					"stateMutability": "pure",
					"type": "function"
				},
				{
					"inputs": [
						{
							"internalType": "string",
							"name": "_name",
							"type": "string"
						},
						{
							"internalType": "string",
							"name": "_gender",
							"type": "string"
						},
						{
							"internalType": "address",
							"name": "_address",
							"type": "address"
						}
					],
					"name": "create1",
					"outputs": [
						{
							"internalType": "string",
							"name": "name",
							"type": "string"
						},
						{
							"internalType": "string",
							"name": "gender",
							"type": "string"
						},
						{
							"internalType": "address",
							"name": "Address",
							"type": "address"
						}
					],
					"stateMutability": "pure",
					"type": "function"
				},
				{
					"inputs": [],
					"name": "create2",
					"outputs": [
						{
							"internalType": "string",
							"name": "name",
							"type": "string"
						},
						{
							"internalType": "string",
							"name": "gender",
							"type": "string"
						},
						{
							"internalType": "address",
							"name": "Address",
							"type": "address"
						}
					],
					"stateMutability": "pure",
					"type": "function"
				},
				{
					"inputs": [],
					"name": "create3",
					"outputs": [
						{
							"internalType": "string",
							"name": "name",
							"type": "string"
						},
						{
							"internalType": "string",
							"name": "gender",
							"type": "string"
						},
						{
							"internalType": "address",
							"name": "Address",
							"type": "address"
						}
					],
					"stateMutability": "pure",
					"type": "function"
				},
				{
					"inputs": [],
					"name": "pi",
					"outputs": [
						{
							"internalType": "uint256",
							"name": "",
							"type": "uint256"
						}
					],
					"stateMutability": "view",
					"type": "function"
				}
			],
			"devdoc": {
				"kind": "dev",
				"methods": {},
				"version": 1
			},
			"evm": {
				"assembly": "    /* \"contracts/31stjuly.sol\":756:1621  contract func{... */\n  mstore(0x40, 0x80)\n  callvalue\n  dup1\n  iszero\n  tag_1\n  jumpi\n  0x00\n  dup1\n  revert\ntag_1:\n  pop\n  dataSize(sub_0)\n  dup1\n  dataOffset(sub_0)\n  0x00\n  codecopy\n  0x00\n  return\nstop\n\nsub_0: assembly {\n        /* \"contracts/31stjuly.sol\":756:1621  contract func{... */\n      mstore(0x40, 0x80)\n      callvalue\n      dup1\n      iszero\n      tag_1\n      jumpi\n      0x00\n      dup1\n      revert\n    tag_1:\n      pop\n      jumpi(tag_2, lt(calldatasize, 0x04))\n      shr(0xe0, calldataload(0x00))\n      dup1\n      0x16ff6540\n      eq\n      tag_3\n      jumpi\n      dup1\n      0x2dd9868d\n      eq\n      tag_4\n      jumpi\n      dup1\n      0xaaa7d0f5\n      eq\n      tag_5\n      jumpi\n      dup1\n      0xbae4b95f\n      eq\n      tag_6\n      jumpi\n      dup1\n      0xf5eacece\n      eq\n      tag_7\n      jumpi\n    tag_2:\n      0x00\n      dup1\n      revert\n        /* \"contracts/31stjuly.sol\":1512:1618  function circumference(uint _radius) public pure returns (uint result){... */\n    tag_3:\n      tag_8\n      0x04\n      dup1\n      calldatasize\n      sub\n      dup2\n      add\n      swap1\n      tag_9\n      swap2\n      swap1\n      tag_10\n      jump\t// in\n    tag_9:\n      tag_11\n      jump\t// in\n    tag_8:\n      mload(0x40)\n      tag_12\n      swap2\n      swap1\n      tag_13\n      jump\t// in\n    tag_12:\n      mload(0x40)\n      dup1\n      swap2\n      sub\n      swap1\n      return\n        /* \"contracts/31stjuly.sol\":1462:1509  uint public  constant  pi = 3141592653589793238 */\n    tag_4:\n      tag_14\n      tag_15\n      jump\t// in\n    tag_14:\n      mload(0x40)\n      tag_16\n      swap2\n      swap1\n      tag_13\n      jump\t// in\n    tag_16:\n      mload(0x40)\n      dup1\n      swap2\n      sub\n      swap1\n      return\n        /* \"contracts/31stjuly.sol\":772:1042  function create1(string memory _name , string memory _gender, address _address ) public pure returns (string  memory name,string memory gender ,address Address){... */\n    tag_5:\n      tag_17\n      0x04\n      dup1\n      calldatasize\n      sub\n      dup2\n      add\n      swap1\n      tag_18\n      swap2\n      swap1\n      tag_19\n      jump\t// in\n    tag_18:\n      tag_20\n      jump\t// in\n    tag_17:\n      mload(0x40)\n      tag_21\n      swap4\n      swap3\n      swap2\n      swap1\n      tag_22\n      jump\t// in\n    tag_21:\n      mload(0x40)\n      dup1\n      swap2\n      sub\n      swap1\n      return\n        /* \"contracts/31stjuly.sol\":1237:1456  function create3() external pure returns (string memory name , string memory gender ,address Address){... */\n    tag_6:\n      tag_23\n      tag_24\n      jump\t// in\n    tag_23:\n      mload(0x40)\n      tag_25\n      swap4\n      swap3\n      swap2\n      swap1\n      tag_22\n      jump\t// in\n    tag_25:\n      mload(0x40)\n      dup1\n      swap2\n      sub\n      swap1\n      return\n        /* \"contracts/31stjuly.sol\":1044:1235  function create2() external pure returns(string  memory name,string memory gender ,address Address){... */\n    tag_7:\n      tag_26\n      tag_27\n      jump\t// in\n    tag_26:\n      mload(0x40)\n      tag_28\n      swap4\n      swap3\n      swap2\n      swap1\n      tag_22\n      jump\t// in\n    tag_28:\n      mload(0x40)\n      dup1\n      swap2\n      sub\n      swap1\n      return\n        /* \"contracts/31stjuly.sol\":1512:1618  function circumference(uint _radius) public pure returns (uint result){... */\n    tag_11:\n        /* \"contracts/31stjuly.sol\":1570:1581  uint result */\n      0x00\n        /* \"contracts/31stjuly.sol\":1607:1614  _radius */\n      dup2\n        /* \"contracts/31stjuly.sol\":1490:1509  3141592653589793238 */\n      0x2b992ddfa23249d6\n        /* \"contracts/31stjuly.sol\":1598:1599  2 */\n      0x02\n        /* \"contracts/31stjuly.sol\":1598:1604  2 * pi */\n      tag_30\n      swap2\n      swap1\n      tag_31\n      jump\t// in\n    tag_30:\n        /* \"contracts/31stjuly.sol\":1598:1614  2 * pi * _radius */\n      tag_32\n      swap2\n      swap1\n      tag_31\n      jump\t// in\n    tag_32:\n        /* \"contracts/31stjuly.sol\":1589:1614  result = 2 * pi * _radius */\n      swap1\n      pop\n        /* \"contracts/31stjuly.sol\":1512:1618  function circumference(uint _radius) public pure returns (uint result){... */\n      swap2\n      swap1\n      pop\n      jump\t// out\n        /* \"contracts/31stjuly.sol\":1462:1509  uint public  constant  pi = 3141592653589793238 */\n    tag_15:\n        /* \"contracts/31stjuly.sol\":1490:1509  3141592653589793238 */\n      0x2b992ddfa23249d6\n        /* \"contracts/31stjuly.sol\":1462:1509  uint public  constant  pi = 3141592653589793238 */\n      dup2\n      jump\t// out\n        /* \"contracts/31stjuly.sol\":772:1042  function create1(string memory _name , string memory _gender, address _address ) public pure returns (string  memory name,string memory gender ,address Address){... */\n    tag_20:\n        /* \"contracts/31stjuly.sol\":874:893  string  memory name */\n      0x60\n        /* \"contracts/31stjuly.sol\":894:914  string memory gender */\n      dup1\n        /* \"contracts/31stjuly.sol\":916:931  address Address */\n      0x00\n        /* \"contracts/31stjuly.sol\":946:951  _name */\n      dup6\n        /* \"contracts/31stjuly.sol\":939:951  name = _name */\n      swap3\n      pop\n        /* \"contracts/31stjuly.sol\":967:974  _gender */\n      dup5\n        /* \"contracts/31stjuly.sol\":958:974  gender = _gender */\n      swap2\n      pop\n        /* \"contracts/31stjuly.sol\":991:999  _address */\n      dup4\n        /* \"contracts/31stjuly.sol\":981:999  Address = _address */\n      swap1\n      pop\n        /* \"contracts/31stjuly.sol\":772:1042  function create1(string memory _name , string memory _gender, address _address ) public pure returns (string  memory name,string memory gender ,address Address){... */\n      swap4\n      pop\n      swap4\n      pop\n      swap4\n      swap1\n      pop\n      jump\t// out\n        /* \"contracts/31stjuly.sol\":1237:1456  function create3() external pure returns (string memory name , string memory gender ,address Address){... */\n    tag_24:\n        /* \"contracts/31stjuly.sol\":1279:1297  string memory name */\n      0x60\n        /* \"contracts/31stjuly.sol\":1300:1320  string memory gender */\n      dup1\n        /* \"contracts/31stjuly.sol\":1322:1337  address Address */\n      0x00\n        /* \"contracts/31stjuly.sol\":1352:1452  create1({_name: 'ayesha', _gender : 'female',_address  :0x5B38Da6a701c568545dCfcB03FcB875f56beddC4}) */\n      tag_35\n      mload(0x40)\n      dup1\n      0x40\n      add\n      0x40\n      mstore\n      dup1\n      0x06\n      dup2\n      mstore\n      0x20\n      add\n      0x6179657368610000000000000000000000000000000000000000000000000000\n      dup2\n      mstore\n      pop\n      mload(0x40)\n      dup1\n      0x40\n      add\n      0x40\n      mstore\n      dup1\n      0x06\n      dup2\n      mstore\n      0x20\n      add\n      0x66656d616c650000000000000000000000000000000000000000000000000000\n      dup2\n      mstore\n      pop\n        /* \"contracts/31stjuly.sol\":1408:1450  0x5B38Da6a701c568545dCfcB03FcB875f56beddC4 */\n      0x5b38da6a701c568545dcfcb03fcb875f56beddc4\n        /* \"contracts/31stjuly.sol\":1352:1359  create1 */\n      tag_20\n        /* \"contracts/31stjuly.sol\":1352:1452  create1({_name: 'ayesha', _gender : 'female',_address  :0x5B38Da6a701c568545dCfcB03FcB875f56beddC4}) */\n      jump\t// in\n    tag_35:\n        /* \"contracts/31stjuly.sol\":1345:1452  return create1({_name: 'ayesha', _gender : 'female',_address  :0x5B38Da6a701c568545dCfcB03FcB875f56beddC4}) */\n      swap3\n      pop\n      swap3\n      pop\n      swap3\n      pop\n        /* \"contracts/31stjuly.sol\":1237:1456  function create3() external pure returns (string memory name , string memory gender ,address Address){... */\n      swap1\n      swap2\n      swap3\n      jump\t// out\n        /* \"contracts/31stjuly.sol\":1044:1235  function create2() external pure returns(string  memory name,string memory gender ,address Address){... */\n    tag_27:\n        /* \"contracts/31stjuly.sol\":1085:1104  string  memory name */\n      0x60\n        /* \"contracts/31stjuly.sol\":1105:1125  string memory gender */\n      dup1\n        /* \"contracts/31stjuly.sol\":1127:1142  address Address */\n      0x00\n        /* \"contracts/31stjuly.sol\":1158:1231  create1('ayesha' , 'female' ,0x5B38Da6a701c568545dCfcB03FcB875f56beddC4 ) */\n      tag_37\n      mload(0x40)\n      dup1\n      0x40\n      add\n      0x40\n      mstore\n      dup1\n      0x06\n      dup2\n      mstore\n      0x20\n      add\n      0x6179657368610000000000000000000000000000000000000000000000000000\n      dup2\n      mstore\n      pop\n      mload(0x40)\n      dup1\n      0x40\n      add\n      0x40\n      mstore\n      dup1\n      0x06\n      dup2\n      mstore\n      0x20\n      add\n      0x66656d616c650000000000000000000000000000000000000000000000000000\n      dup2\n      mstore\n      pop\n        /* \"contracts/31stjuly.sol\":1187:1229  0x5B38Da6a701c568545dCfcB03FcB875f56beddC4 */\n      0x5b38da6a701c568545dcfcb03fcb875f56beddc4\n        /* \"contracts/31stjuly.sol\":1158:1165  create1 */\n      tag_20\n        /* \"contracts/31stjuly.sol\":1158:1231  create1('ayesha' , 'female' ,0x5B38Da6a701c568545dCfcB03FcB875f56beddC4 ) */\n      jump\t// in\n    tag_37:\n        /* \"contracts/31stjuly.sol\":1150:1231  return  create1('ayesha' , 'female' ,0x5B38Da6a701c568545dCfcB03FcB875f56beddC4 ) */\n      swap3\n      pop\n      swap3\n      pop\n      swap3\n      pop\n        /* \"contracts/31stjuly.sol\":1044:1235  function create2() external pure returns(string  memory name,string memory gender ,address Address){... */\n      swap1\n      swap2\n      swap3\n      jump\t// out\n        /* \"#utility.yul\":7:82   */\n    tag_38:\n        /* \"#utility.yul\":40:46   */\n      0x00\n        /* \"#utility.yul\":73:75   */\n      0x40\n        /* \"#utility.yul\":67:76   */\n      mload\n        /* \"#utility.yul\":57:76   */\n      swap1\n      pop\n        /* \"#utility.yul\":7:82   */\n      swap1\n      jump\t// out\n        /* \"#utility.yul\":88:205   */\n    tag_39:\n        /* \"#utility.yul\":197:198   */\n      0x00\n        /* \"#utility.yul\":194:195   */\n      dup1\n        /* \"#utility.yul\":187:199   */\n      revert\n        /* \"#utility.yul\":211:328   */\n    tag_40:\n        /* \"#utility.yul\":320:321   */\n      0x00\n        /* \"#utility.yul\":317:318   */\n      dup1\n        /* \"#utility.yul\":310:322   */\n      revert\n        /* \"#utility.yul\":334:411   */\n    tag_41:\n        /* \"#utility.yul\":371:378   */\n      0x00\n        /* \"#utility.yul\":400:405   */\n      dup2\n        /* \"#utility.yul\":389:405   */\n      swap1\n      pop\n        /* \"#utility.yul\":334:411   */\n      swap2\n      swap1\n      pop\n      jump\t// out\n        /* \"#utility.yul\":417:539   */\n    tag_42:\n        /* \"#utility.yul\":490:514   */\n      tag_71\n        /* \"#utility.yul\":508:513   */\n      dup2\n        /* \"#utility.yul\":490:514   */\n      tag_41\n      jump\t// in\n    tag_71:\n        /* \"#utility.yul\":483:488   */\n      dup2\n        /* \"#utility.yul\":480:515   */\n      eq\n        /* \"#utility.yul\":470:533   */\n      tag_72\n      jumpi\n        /* \"#utility.yul\":529:530   */\n      0x00\n        /* \"#utility.yul\":526:527   */\n      dup1\n        /* \"#utility.yul\":519:531   */\n      revert\n        /* \"#utility.yul\":470:533   */\n    tag_72:\n        /* \"#utility.yul\":417:539   */\n      pop\n      jump\t// out\n        /* \"#utility.yul\":545:684   */\n    tag_43:\n        /* \"#utility.yul\":591:596   */\n      0x00\n        /* \"#utility.yul\":629:635   */\n      dup2\n        /* \"#utility.yul\":616:636   */\n      calldataload\n        /* \"#utility.yul\":607:636   */\n      swap1\n      pop\n        /* \"#utility.yul\":645:678   */\n      tag_74\n        /* \"#utility.yul\":672:677   */\n      dup2\n        /* \"#utility.yul\":645:678   */\n      tag_42\n      jump\t// in\n    tag_74:\n        /* \"#utility.yul\":545:684   */\n      swap3\n      swap2\n      pop\n      pop\n      jump\t// out\n        /* \"#utility.yul\":690:1019   */\n    tag_10:\n        /* \"#utility.yul\":749:755   */\n      0x00\n        /* \"#utility.yul\":798:800   */\n      0x20\n        /* \"#utility.yul\":786:795   */\n      dup3\n        /* \"#utility.yul\":777:784   */\n      dup5\n        /* \"#utility.yul\":773:796   */\n      sub\n        /* \"#utility.yul\":769:801   */\n      slt\n        /* \"#utility.yul\":766:885   */\n      iszero\n      tag_76\n      jumpi\n        /* \"#utility.yul\":804:883   */\n      tag_77\n      tag_39\n      jump\t// in\n    tag_77:\n        /* \"#utility.yul\":766:885   */\n    tag_76:\n        /* \"#utility.yul\":924:925   */\n      0x00\n        /* \"#utility.yul\":949:1002   */\n      tag_78\n        /* \"#utility.yul\":994:1001   */\n      dup5\n        /* \"#utility.yul\":985:991   */\n      dup3\n        /* \"#utility.yul\":974:983   */\n      dup6\n        /* \"#utility.yul\":970:992   */\n      add\n        /* \"#utility.yul\":949:1002   */\n      tag_43\n      jump\t// in\n    tag_78:\n        /* \"#utility.yul\":939:1002   */\n      swap2\n      pop\n        /* \"#utility.yul\":895:1012   */\n      pop\n        /* \"#utility.yul\":690:1019   */\n      swap3\n      swap2\n      pop\n      pop\n      jump\t// out\n        /* \"#utility.yul\":1025:1143   */\n    tag_44:\n        /* \"#utility.yul\":1112:1136   */\n      tag_80\n        /* \"#utility.yul\":1130:1135   */\n      dup2\n        /* \"#utility.yul\":1112:1136   */\n      tag_41\n      jump\t// in\n    tag_80:\n        /* \"#utility.yul\":1107:1110   */\n      dup3\n        /* \"#utility.yul\":1100:1137   */\n      mstore\n        /* \"#utility.yul\":1025:1143   */\n      pop\n      pop\n      jump\t// out\n        /* \"#utility.yul\":1149:1371   */\n    tag_13:\n        /* \"#utility.yul\":1242:1246   */\n      0x00\n        /* \"#utility.yul\":1280:1282   */\n      0x20\n        /* \"#utility.yul\":1269:1278   */\n      dup3\n        /* \"#utility.yul\":1265:1283   */\n      add\n        /* \"#utility.yul\":1257:1283   */\n      swap1\n      pop\n        /* \"#utility.yul\":1293:1364   */\n      tag_82\n        /* \"#utility.yul\":1361:1362   */\n      0x00\n        /* \"#utility.yul\":1350:1359   */\n      dup4\n        /* \"#utility.yul\":1346:1363   */\n      add\n        /* \"#utility.yul\":1337:1343   */\n      dup5\n        /* \"#utility.yul\":1293:1364   */\n      tag_44\n      jump\t// in\n    tag_82:\n        /* \"#utility.yul\":1149:1371   */\n      swap3\n      swap2\n      pop\n      pop\n      jump\t// out\n        /* \"#utility.yul\":1377:1494   */\n    tag_45:\n        /* \"#utility.yul\":1486:1487   */\n      0x00\n        /* \"#utility.yul\":1483:1484   */\n      dup1\n        /* \"#utility.yul\":1476:1488   */\n      revert\n        /* \"#utility.yul\":1500:1617   */\n    tag_46:\n        /* \"#utility.yul\":1609:1610   */\n      0x00\n        /* \"#utility.yul\":1606:1607   */\n      dup1\n        /* \"#utility.yul\":1599:1611   */\n      revert\n        /* \"#utility.yul\":1623:1725   */\n    tag_47:\n        /* \"#utility.yul\":1664:1670   */\n      0x00\n        /* \"#utility.yul\":1715:1717   */\n      0x1f\n        /* \"#utility.yul\":1711:1718   */\n      not\n        /* \"#utility.yul\":1706:1708   */\n      0x1f\n        /* \"#utility.yul\":1699:1704   */\n      dup4\n        /* \"#utility.yul\":1695:1709   */\n      add\n        /* \"#utility.yul\":1691:1719   */\n      and\n        /* \"#utility.yul\":1681:1719   */\n      swap1\n      pop\n        /* \"#utility.yul\":1623:1725   */\n      swap2\n      swap1\n      pop\n      jump\t// out\n        /* \"#utility.yul\":1731:1911   */\n    tag_48:\n        /* \"#utility.yul\":1779:1856   */\n      0x4e487b7100000000000000000000000000000000000000000000000000000000\n        /* \"#utility.yul\":1776:1777   */\n      0x00\n        /* \"#utility.yul\":1769:1857   */\n      mstore\n        /* \"#utility.yul\":1876:1880   */\n      0x41\n        /* \"#utility.yul\":1873:1874   */\n      0x04\n        /* \"#utility.yul\":1866:1881   */\n      mstore\n        /* \"#utility.yul\":1900:1904   */\n      0x24\n        /* \"#utility.yul\":1897:1898   */\n      0x00\n        /* \"#utility.yul\":1890:1905   */\n      revert\n        /* \"#utility.yul\":1917:2198   */\n    tag_49:\n        /* \"#utility.yul\":2000:2027   */\n      tag_88\n        /* \"#utility.yul\":2022:2026   */\n      dup3\n        /* \"#utility.yul\":2000:2027   */\n      tag_47\n      jump\t// in\n    tag_88:\n        /* \"#utility.yul\":1992:1998   */\n      dup2\n        /* \"#utility.yul\":1988:2028   */\n      add\n        /* \"#utility.yul\":2130:2136   */\n      dup2\n        /* \"#utility.yul\":2118:2128   */\n      dup2\n        /* \"#utility.yul\":2115:2137   */\n      lt\n        /* \"#utility.yul\":2094:2112   */\n      0xffffffffffffffff\n        /* \"#utility.yul\":2082:2092   */\n      dup3\n        /* \"#utility.yul\":2079:2113   */\n      gt\n        /* \"#utility.yul\":2076:2138   */\n      or\n        /* \"#utility.yul\":2073:2161   */\n      iszero\n      tag_89\n      jumpi\n        /* \"#utility.yul\":2141:2159   */\n      tag_90\n      tag_48\n      jump\t// in\n    tag_90:\n        /* \"#utility.yul\":2073:2161   */\n    tag_89:\n        /* \"#utility.yul\":2181:2191   */\n      dup1\n        /* \"#utility.yul\":2177:2179   */\n      0x40\n        /* \"#utility.yul\":2170:2192   */\n      mstore\n        /* \"#utility.yul\":1960:2198   */\n      pop\n        /* \"#utility.yul\":1917:2198   */\n      pop\n      pop\n      jump\t// out\n        /* \"#utility.yul\":2204:2333   */\n    tag_50:\n        /* \"#utility.yul\":2238:2244   */\n      0x00\n        /* \"#utility.yul\":2265:2285   */\n      tag_92\n      tag_38\n      jump\t// in\n    tag_92:\n        /* \"#utility.yul\":2255:2285   */\n      swap1\n      pop\n        /* \"#utility.yul\":2294:2327   */\n      tag_93\n        /* \"#utility.yul\":2322:2326   */\n      dup3\n        /* \"#utility.yul\":2314:2320   */\n      dup3\n        /* \"#utility.yul\":2294:2327   */\n      tag_49\n      jump\t// in\n    tag_93:\n        /* \"#utility.yul\":2204:2333   */\n      swap2\n      swap1\n      pop\n      jump\t// out\n        /* \"#utility.yul\":2339:2647   */\n    tag_51:\n        /* \"#utility.yul\":2401:2405   */\n      0x00\n        /* \"#utility.yul\":2491:2509   */\n      0xffffffffffffffff\n        /* \"#utility.yul\":2483:2489   */\n      dup3\n        /* \"#utility.yul\":2480:2510   */\n      gt\n        /* \"#utility.yul\":2477:2533   */\n      iszero\n      tag_95\n      jumpi\n        /* \"#utility.yul\":2513:2531   */\n      tag_96\n      tag_48\n      jump\t// in\n    tag_96:\n        /* \"#utility.yul\":2477:2533   */\n    tag_95:\n        /* \"#utility.yul\":2551:2580   */\n      tag_97\n        /* \"#utility.yul\":2573:2579   */\n      dup3\n        /* \"#utility.yul\":2551:2580   */\n      tag_47\n      jump\t// in\n    tag_97:\n        /* \"#utility.yul\":2543:2580   */\n      swap1\n      pop\n        /* \"#utility.yul\":2635:2639   */\n      0x20\n        /* \"#utility.yul\":2629:2633   */\n      dup2\n        /* \"#utility.yul\":2625:2640   */\n      add\n        /* \"#utility.yul\":2617:2640   */\n      swap1\n      pop\n        /* \"#utility.yul\":2339:2647   */\n      swap2\n      swap1\n      pop\n      jump\t// out\n        /* \"#utility.yul\":2653:2799   */\n    tag_52:\n        /* \"#utility.yul\":2750:2756   */\n      dup3\n        /* \"#utility.yul\":2745:2748   */\n      dup2\n        /* \"#utility.yul\":2740:2743   */\n      dup4\n        /* \"#utility.yul\":2727:2757   */\n      calldatacopy\n        /* \"#utility.yul\":2791:2792   */\n      0x00\n        /* \"#utility.yul\":2782:2788   */\n      dup4\n        /* \"#utility.yul\":2777:2780   */\n      dup4\n        /* \"#utility.yul\":2773:2789   */\n      add\n        /* \"#utility.yul\":2766:2793   */\n      mstore\n        /* \"#utility.yul\":2653:2799   */\n      pop\n      pop\n      pop\n      jump\t// out\n        /* \"#utility.yul\":2805:3230   */\n    tag_53:\n        /* \"#utility.yul\":2883:2888   */\n      0x00\n        /* \"#utility.yul\":2908:2974   */\n      tag_100\n        /* \"#utility.yul\":2924:2973   */\n      tag_101\n        /* \"#utility.yul\":2966:2972   */\n      dup5\n        /* \"#utility.yul\":2924:2973   */\n      tag_51\n      jump\t// in\n    tag_101:\n        /* \"#utility.yul\":2908:2974   */\n      tag_50\n      jump\t// in\n    tag_100:\n        /* \"#utility.yul\":2899:2974   */\n      swap1\n      pop\n        /* \"#utility.yul\":2997:3003   */\n      dup3\n        /* \"#utility.yul\":2990:2995   */\n      dup2\n        /* \"#utility.yul\":2983:3004   */\n      mstore\n        /* \"#utility.yul\":3035:3039   */\n      0x20\n        /* \"#utility.yul\":3028:3033   */\n      dup2\n        /* \"#utility.yul\":3024:3040   */\n      add\n        /* \"#utility.yul\":3073:3076   */\n      dup5\n        /* \"#utility.yul\":3064:3070   */\n      dup5\n        /* \"#utility.yul\":3059:3062   */\n      dup5\n        /* \"#utility.yul\":3055:3071   */\n      add\n        /* \"#utility.yul\":3052:3077   */\n      gt\n        /* \"#utility.yul\":3049:3161   */\n      iszero\n      tag_102\n      jumpi\n        /* \"#utility.yul\":3080:3159   */\n      tag_103\n      tag_46\n      jump\t// in\n    tag_103:\n        /* \"#utility.yul\":3049:3161   */\n    tag_102:\n        /* \"#utility.yul\":3170:3224   */\n      tag_104\n        /* \"#utility.yul\":3217:3223   */\n      dup5\n        /* \"#utility.yul\":3212:3215   */\n      dup3\n        /* \"#utility.yul\":3207:3210   */\n      dup6\n        /* \"#utility.yul\":3170:3224   */\n      tag_52\n      jump\t// in\n    tag_104:\n        /* \"#utility.yul\":2889:3230   */\n      pop\n        /* \"#utility.yul\":2805:3230   */\n      swap4\n      swap3\n      pop\n      pop\n      pop\n      jump\t// out\n        /* \"#utility.yul\":3250:3590   */\n    tag_54:\n        /* \"#utility.yul\":3306:3311   */\n      0x00\n        /* \"#utility.yul\":3355:3358   */\n      dup3\n        /* \"#utility.yul\":3348:3352   */\n      0x1f\n        /* \"#utility.yul\":3340:3346   */\n      dup4\n        /* \"#utility.yul\":3336:3353   */\n      add\n        /* \"#utility.yul\":3332:3359   */\n      slt\n        /* \"#utility.yul\":3322:3444   */\n      tag_106\n      jumpi\n        /* \"#utility.yul\":3363:3442   */\n      tag_107\n      tag_45\n      jump\t// in\n    tag_107:\n        /* \"#utility.yul\":3322:3444   */\n    tag_106:\n        /* \"#utility.yul\":3480:3486   */\n      dup2\n        /* \"#utility.yul\":3467:3487   */\n      calldataload\n        /* \"#utility.yul\":3505:3584   */\n      tag_108\n        /* \"#utility.yul\":3580:3583   */\n      dup5\n        /* \"#utility.yul\":3572:3578   */\n      dup3\n        /* \"#utility.yul\":3565:3569   */\n      0x20\n        /* \"#utility.yul\":3557:3563   */\n      dup7\n        /* \"#utility.yul\":3553:3570   */\n      add\n        /* \"#utility.yul\":3505:3584   */\n      tag_53\n      jump\t// in\n    tag_108:\n        /* \"#utility.yul\":3496:3584   */\n      swap2\n      pop\n        /* \"#utility.yul\":3312:3590   */\n      pop\n        /* \"#utility.yul\":3250:3590   */\n      swap3\n      swap2\n      pop\n      pop\n      jump\t// out\n        /* \"#utility.yul\":3596:3722   */\n    tag_55:\n        /* \"#utility.yul\":3633:3640   */\n      0x00\n        /* \"#utility.yul\":3673:3715   */\n      0xffffffffffffffffffffffffffffffffffffffff\n        /* \"#utility.yul\":3666:3671   */\n      dup3\n        /* \"#utility.yul\":3662:3716   */\n      and\n        /* \"#utility.yul\":3651:3716   */\n      swap1\n      pop\n        /* \"#utility.yul\":3596:3722   */\n      swap2\n      swap1\n      pop\n      jump\t// out\n        /* \"#utility.yul\":3728:3824   */\n    tag_56:\n        /* \"#utility.yul\":3765:3772   */\n      0x00\n        /* \"#utility.yul\":3794:3818   */\n      tag_111\n        /* \"#utility.yul\":3812:3817   */\n      dup3\n        /* \"#utility.yul\":3794:3818   */\n      tag_55\n      jump\t// in\n    tag_111:\n        /* \"#utility.yul\":3783:3818   */\n      swap1\n      pop\n        /* \"#utility.yul\":3728:3824   */\n      swap2\n      swap1\n      pop\n      jump\t// out\n        /* \"#utility.yul\":3830:3952   */\n    tag_57:\n        /* \"#utility.yul\":3903:3927   */\n      tag_113\n        /* \"#utility.yul\":3921:3926   */\n      dup2\n        /* \"#utility.yul\":3903:3927   */\n      tag_56\n      jump\t// in\n    tag_113:\n        /* \"#utility.yul\":3896:3901   */\n      dup2\n        /* \"#utility.yul\":3893:3928   */\n      eq\n        /* \"#utility.yul\":3883:3946   */\n      tag_114\n      jumpi\n        /* \"#utility.yul\":3942:3943   */\n      0x00\n        /* \"#utility.yul\":3939:3940   */\n      dup1\n        /* \"#utility.yul\":3932:3944   */\n      revert\n        /* \"#utility.yul\":3883:3946   */\n    tag_114:\n        /* \"#utility.yul\":3830:3952   */\n      pop\n      jump\t// out\n        /* \"#utility.yul\":3958:4097   */\n    tag_58:\n        /* \"#utility.yul\":4004:4009   */\n      0x00\n        /* \"#utility.yul\":4042:4048   */\n      dup2\n        /* \"#utility.yul\":4029:4049   */\n      calldataload\n        /* \"#utility.yul\":4020:4049   */\n      swap1\n      pop\n        /* \"#utility.yul\":4058:4091   */\n      tag_116\n        /* \"#utility.yul\":4085:4090   */\n      dup2\n        /* \"#utility.yul\":4058:4091   */\n      tag_57\n      jump\t// in\n    tag_116:\n        /* \"#utility.yul\":3958:4097   */\n      swap3\n      swap2\n      pop\n      pop\n      jump\t// out\n        /* \"#utility.yul\":4103:5082   */\n    tag_19:\n        /* \"#utility.yul\":4200:4206   */\n      0x00\n        /* \"#utility.yul\":4208:4214   */\n      dup1\n        /* \"#utility.yul\":4216:4222   */\n      0x00\n        /* \"#utility.yul\":4265:4267   */\n      0x60\n        /* \"#utility.yul\":4253:4262   */\n      dup5\n        /* \"#utility.yul\":4244:4251   */\n      dup7\n        /* \"#utility.yul\":4240:4263   */\n      sub\n        /* \"#utility.yul\":4236:4268   */\n      slt\n        /* \"#utility.yul\":4233:4352   */\n      iszero\n      tag_118\n      jumpi\n        /* \"#utility.yul\":4271:4350   */\n      tag_119\n      tag_39\n      jump\t// in\n    tag_119:\n        /* \"#utility.yul\":4233:4352   */\n    tag_118:\n        /* \"#utility.yul\":4419:4420   */\n      0x00\n        /* \"#utility.yul\":4408:4417   */\n      dup5\n        /* \"#utility.yul\":4404:4421   */\n      add\n        /* \"#utility.yul\":4391:4422   */\n      calldataload\n        /* \"#utility.yul\":4449:4467   */\n      0xffffffffffffffff\n        /* \"#utility.yul\":4441:4447   */\n      dup2\n        /* \"#utility.yul\":4438:4468   */\n      gt\n        /* \"#utility.yul\":4435:4552   */\n      iszero\n      tag_120\n      jumpi\n        /* \"#utility.yul\":4471:4550   */\n      tag_121\n      tag_40\n      jump\t// in\n    tag_121:\n        /* \"#utility.yul\":4435:4552   */\n    tag_120:\n        /* \"#utility.yul\":4576:4639   */\n      tag_122\n        /* \"#utility.yul\":4631:4638   */\n      dup7\n        /* \"#utility.yul\":4622:4628   */\n      dup3\n        /* \"#utility.yul\":4611:4620   */\n      dup8\n        /* \"#utility.yul\":4607:4629   */\n      add\n        /* \"#utility.yul\":4576:4639   */\n      tag_54\n      jump\t// in\n    tag_122:\n        /* \"#utility.yul\":4566:4639   */\n      swap4\n      pop\n        /* \"#utility.yul\":4362:4649   */\n      pop\n        /* \"#utility.yul\":4716:4718   */\n      0x20\n        /* \"#utility.yul\":4705:4714   */\n      dup5\n        /* \"#utility.yul\":4701:4719   */\n      add\n        /* \"#utility.yul\":4688:4720   */\n      calldataload\n        /* \"#utility.yul\":4747:4765   */\n      0xffffffffffffffff\n        /* \"#utility.yul\":4739:4745   */\n      dup2\n        /* \"#utility.yul\":4736:4766   */\n      gt\n        /* \"#utility.yul\":4733:4850   */\n      iszero\n      tag_123\n      jumpi\n        /* \"#utility.yul\":4769:4848   */\n      tag_124\n      tag_40\n      jump\t// in\n    tag_124:\n        /* \"#utility.yul\":4733:4850   */\n    tag_123:\n        /* \"#utility.yul\":4874:4937   */\n      tag_125\n        /* \"#utility.yul\":4929:4936   */\n      dup7\n        /* \"#utility.yul\":4920:4926   */\n      dup3\n        /* \"#utility.yul\":4909:4918   */\n      dup8\n        /* \"#utility.yul\":4905:4927   */\n      add\n        /* \"#utility.yul\":4874:4937   */\n      tag_54\n      jump\t// in\n    tag_125:\n        /* \"#utility.yul\":4864:4937   */\n      swap3\n      pop\n        /* \"#utility.yul\":4659:4947   */\n      pop\n        /* \"#utility.yul\":4986:4988   */\n      0x40\n        /* \"#utility.yul\":5012:5065   */\n      tag_126\n        /* \"#utility.yul\":5057:5064   */\n      dup7\n        /* \"#utility.yul\":5048:5054   */\n      dup3\n        /* \"#utility.yul\":5037:5046   */\n      dup8\n        /* \"#utility.yul\":5033:5055   */\n      add\n        /* \"#utility.yul\":5012:5065   */\n      tag_58\n      jump\t// in\n    tag_126:\n        /* \"#utility.yul\":5002:5065   */\n      swap2\n      pop\n        /* \"#utility.yul\":4957:5075   */\n      pop\n        /* \"#utility.yul\":4103:5082   */\n      swap3\n      pop\n      swap3\n      pop\n      swap3\n      jump\t// out\n        /* \"#utility.yul\":5088:5187   */\n    tag_59:\n        /* \"#utility.yul\":5140:5146   */\n      0x00\n        /* \"#utility.yul\":5174:5179   */\n      dup2\n        /* \"#utility.yul\":5168:5180   */\n      mload\n        /* \"#utility.yul\":5158:5180   */\n      swap1\n      pop\n        /* \"#utility.yul\":5088:5187   */\n      swap2\n      swap1\n      pop\n      jump\t// out\n        /* \"#utility.yul\":5193:5362   */\n    tag_60:\n        /* \"#utility.yul\":5277:5288   */\n      0x00\n        /* \"#utility.yul\":5311:5317   */\n      dup3\n        /* \"#utility.yul\":5306:5309   */\n      dup3\n        /* \"#utility.yul\":5299:5318   */\n      mstore\n        /* \"#utility.yul\":5351:5355   */\n      0x20\n        /* \"#utility.yul\":5346:5349   */\n      dup3\n        /* \"#utility.yul\":5342:5356   */\n      add\n        /* \"#utility.yul\":5327:5356   */\n      swap1\n      pop\n        /* \"#utility.yul\":5193:5362   */\n      swap3\n      swap2\n      pop\n      pop\n      jump\t// out\n        /* \"#utility.yul\":5368:5614   */\n    tag_61:\n        /* \"#utility.yul\":5449:5450   */\n      0x00\n        /* \"#utility.yul\":5459:5572   */\n    tag_130:\n        /* \"#utility.yul\":5473:5479   */\n      dup4\n        /* \"#utility.yul\":5470:5471   */\n      dup2\n        /* \"#utility.yul\":5467:5480   */\n      lt\n        /* \"#utility.yul\":5459:5572   */\n      iszero\n      tag_132\n      jumpi\n        /* \"#utility.yul\":5558:5559   */\n      dup1\n        /* \"#utility.yul\":5553:5556   */\n      dup3\n        /* \"#utility.yul\":5549:5560   */\n      add\n        /* \"#utility.yul\":5543:5561   */\n      mload\n        /* \"#utility.yul\":5539:5540   */\n      dup2\n        /* \"#utility.yul\":5534:5537   */\n      dup5\n        /* \"#utility.yul\":5530:5541   */\n      add\n        /* \"#utility.yul\":5523:5562   */\n      mstore\n        /* \"#utility.yul\":5495:5497   */\n      0x20\n        /* \"#utility.yul\":5492:5493   */\n      dup2\n        /* \"#utility.yul\":5488:5498   */\n      add\n        /* \"#utility.yul\":5483:5498   */\n      swap1\n      pop\n        /* \"#utility.yul\":5459:5572   */\n      jump(tag_130)\n    tag_132:\n        /* \"#utility.yul\":5606:5607   */\n      0x00\n        /* \"#utility.yul\":5597:5603   */\n      dup5\n        /* \"#utility.yul\":5592:5595   */\n      dup5\n        /* \"#utility.yul\":5588:5604   */\n      add\n        /* \"#utility.yul\":5581:5608   */\n      mstore\n        /* \"#utility.yul\":5430:5614   */\n      pop\n        /* \"#utility.yul\":5368:5614   */\n      pop\n      pop\n      pop\n      jump\t// out\n        /* \"#utility.yul\":5620:5997   */\n    tag_62:\n        /* \"#utility.yul\":5708:5711   */\n      0x00\n        /* \"#utility.yul\":5736:5775   */\n      tag_134\n        /* \"#utility.yul\":5769:5774   */\n      dup3\n        /* \"#utility.yul\":5736:5775   */\n      tag_59\n      jump\t// in\n    tag_134:\n        /* \"#utility.yul\":5791:5862   */\n      tag_135\n        /* \"#utility.yul\":5855:5861   */\n      dup2\n        /* \"#utility.yul\":5850:5853   */\n      dup6\n        /* \"#utility.yul\":5791:5862   */\n      tag_60\n      jump\t// in\n    tag_135:\n        /* \"#utility.yul\":5784:5862   */\n      swap4\n      pop\n        /* \"#utility.yul\":5871:5936   */\n      tag_136\n        /* \"#utility.yul\":5929:5935   */\n      dup2\n        /* \"#utility.yul\":5924:5927   */\n      dup6\n        /* \"#utility.yul\":5917:5921   */\n      0x20\n        /* \"#utility.yul\":5910:5915   */\n      dup7\n        /* \"#utility.yul\":5906:5922   */\n      add\n        /* \"#utility.yul\":5871:5936   */\n      tag_61\n      jump\t// in\n    tag_136:\n        /* \"#utility.yul\":5961:5990   */\n      tag_137\n        /* \"#utility.yul\":5983:5989   */\n      dup2\n        /* \"#utility.yul\":5961:5990   */\n      tag_47\n      jump\t// in\n    tag_137:\n        /* \"#utility.yul\":5956:5959   */\n      dup5\n        /* \"#utility.yul\":5952:5991   */\n      add\n        /* \"#utility.yul\":5945:5991   */\n      swap2\n      pop\n        /* \"#utility.yul\":5712:5997   */\n      pop\n        /* \"#utility.yul\":5620:5997   */\n      swap3\n      swap2\n      pop\n      pop\n      jump\t// out\n        /* \"#utility.yul\":6003:6121   */\n    tag_63:\n        /* \"#utility.yul\":6090:6114   */\n      tag_139\n        /* \"#utility.yul\":6108:6113   */\n      dup2\n        /* \"#utility.yul\":6090:6114   */\n      tag_56\n      jump\t// in\n    tag_139:\n        /* \"#utility.yul\":6085:6088   */\n      dup3\n        /* \"#utility.yul\":6078:6115   */\n      mstore\n        /* \"#utility.yul\":6003:6121   */\n      pop\n      pop\n      jump\t// out\n        /* \"#utility.yul\":6127:6751   */\n    tag_22:\n        /* \"#utility.yul\":6316:6320   */\n      0x00\n        /* \"#utility.yul\":6354:6356   */\n      0x60\n        /* \"#utility.yul\":6343:6352   */\n      dup3\n        /* \"#utility.yul\":6339:6357   */\n      add\n        /* \"#utility.yul\":6331:6357   */\n      swap1\n      pop\n        /* \"#utility.yul\":6403:6412   */\n      dup2\n        /* \"#utility.yul\":6397:6401   */\n      dup2\n        /* \"#utility.yul\":6393:6413   */\n      sub\n        /* \"#utility.yul\":6389:6390   */\n      0x00\n        /* \"#utility.yul\":6378:6387   */\n      dup4\n        /* \"#utility.yul\":6374:6391   */\n      add\n        /* \"#utility.yul\":6367:6414   */\n      mstore\n        /* \"#utility.yul\":6431:6509   */\n      tag_141\n        /* \"#utility.yul\":6504:6508   */\n      dup2\n        /* \"#utility.yul\":6495:6501   */\n      dup7\n        /* \"#utility.yul\":6431:6509   */\n      tag_62\n      jump\t// in\n    tag_141:\n        /* \"#utility.yul\":6423:6509   */\n      swap1\n      pop\n        /* \"#utility.yul\":6556:6565   */\n      dup2\n        /* \"#utility.yul\":6550:6554   */\n      dup2\n        /* \"#utility.yul\":6546:6566   */\n      sub\n        /* \"#utility.yul\":6541:6543   */\n      0x20\n        /* \"#utility.yul\":6530:6539   */\n      dup4\n        /* \"#utility.yul\":6526:6544   */\n      add\n        /* \"#utility.yul\":6519:6567   */\n      mstore\n        /* \"#utility.yul\":6584:6662   */\n      tag_142\n        /* \"#utility.yul\":6657:6661   */\n      dup2\n        /* \"#utility.yul\":6648:6654   */\n      dup6\n        /* \"#utility.yul\":6584:6662   */\n      tag_62\n      jump\t// in\n    tag_142:\n        /* \"#utility.yul\":6576:6662   */\n      swap1\n      pop\n        /* \"#utility.yul\":6672:6744   */\n      tag_143\n        /* \"#utility.yul\":6740:6742   */\n      0x40\n        /* \"#utility.yul\":6729:6738   */\n      dup4\n        /* \"#utility.yul\":6725:6743   */\n      add\n        /* \"#utility.yul\":6716:6722   */\n      dup5\n        /* \"#utility.yul\":6672:6744   */\n      tag_63\n      jump\t// in\n    tag_143:\n        /* \"#utility.yul\":6127:6751   */\n      swap5\n      swap4\n      pop\n      pop\n      pop\n      pop\n      jump\t// out\n        /* \"#utility.yul\":6757:6937   */\n    tag_64:\n        /* \"#utility.yul\":6805:6882   */\n      0x4e487b7100000000000000000000000000000000000000000000000000000000\n        /* \"#utility.yul\":6802:6803   */\n      0x00\n        /* \"#utility.yul\":6795:6883   */\n      mstore\n        /* \"#utility.yul\":6902:6906   */\n      0x11\n        /* \"#utility.yul\":6899:6900   */\n      0x04\n        /* \"#utility.yul\":6892:6907   */\n      mstore\n        /* \"#utility.yul\":6926:6930   */\n      0x24\n        /* \"#utility.yul\":6923:6924   */\n      0x00\n        /* \"#utility.yul\":6916:6931   */\n      revert\n        /* \"#utility.yul\":6943:7353   */\n    tag_31:\n        /* \"#utility.yul\":6983:6990   */\n      0x00\n        /* \"#utility.yul\":7006:7026   */\n      tag_146\n        /* \"#utility.yul\":7024:7025   */\n      dup3\n        /* \"#utility.yul\":7006:7026   */\n      tag_41\n      jump\t// in\n    tag_146:\n        /* \"#utility.yul\":7001:7026   */\n      swap2\n      pop\n        /* \"#utility.yul\":7040:7060   */\n      tag_147\n        /* \"#utility.yul\":7058:7059   */\n      dup4\n        /* \"#utility.yul\":7040:7060   */\n      tag_41\n      jump\t// in\n    tag_147:\n        /* \"#utility.yul\":7035:7060   */\n      swap3\n      pop\n        /* \"#utility.yul\":7095:7096   */\n      dup3\n        /* \"#utility.yul\":7092:7093   */\n      dup3\n        /* \"#utility.yul\":7088:7097   */\n      mul\n        /* \"#utility.yul\":7117:7147   */\n      tag_148\n        /* \"#utility.yul\":7135:7146   */\n      dup2\n        /* \"#utility.yul\":7117:7147   */\n      tag_41\n      jump\t// in\n    tag_148:\n        /* \"#utility.yul\":7106:7147   */\n      swap2\n      pop\n        /* \"#utility.yul\":7296:7297   */\n      dup3\n        /* \"#utility.yul\":7287:7294   */\n      dup3\n        /* \"#utility.yul\":7283:7298   */\n      div\n        /* \"#utility.yul\":7280:7281   */\n      dup5\n        /* \"#utility.yul\":7277:7299   */\n      eq\n        /* \"#utility.yul\":7257:7258   */\n      dup4\n        /* \"#utility.yul\":7250:7259   */\n      iszero\n        /* \"#utility.yul\":7230:7313   */\n      or\n        /* \"#utility.yul\":7207:7346   */\n      tag_149\n      jumpi\n        /* \"#utility.yul\":7326:7344   */\n      tag_150\n      tag_64\n      jump\t// in\n    tag_150:\n        /* \"#utility.yul\":7207:7346   */\n    tag_149:\n        /* \"#utility.yul\":6991:7353   */\n      pop\n        /* \"#utility.yul\":6943:7353   */\n      swap3\n      swap2\n      pop\n      pop\n      jump\t// out\n\n    auxdata: 0xa2646970667358221220b0fd8e501575b56646666ca3bd1f88834fa81d922fb50d42ead9325d921e539e64736f6c63430008120033\n}\n",
				"bytecode": {
					"linkReferences": {},
					"object": "608060405234801561001057600080fd5b506106e4806100206000396000f3fe608060405234801561001057600080fd5b50600436106100575760003560e01c806316ff65401461005c5780632dd9868d1461008c578063aaa7d0f5146100aa578063bae4b95f146100dc578063f5eacece146100fc575b600080fd5b610076600480360381019061007191906102e4565b61011c565b6040516100839190610320565b60405180910390f35b610094610145565b6040516100a19190610320565b60405180910390f35b6100c460048036038101906100bf91906104df565b610151565b6040516100d3939291906105f8565b60405180910390f35b6100e4610168565b6040516100f3939291906105f8565b60405180910390f35b610104610201565b604051610113939291906105f8565b60405180910390f35b600081672b992ddfa23249d66002610134919061066c565b61013e919061066c565b9050919050565b672b992ddfa23249d681565b606080600085925084915083905093509350939050565b60608060006101f66040518060400160405280600681526020017f61796573686100000000000000000000000000000000000000000000000000008152506040518060400160405280600681526020017f66656d616c650000000000000000000000000000000000000000000000000000815250735b38da6a701c568545dcfcb03fcb875f56beddc4610151565b925092509250909192565b606080600061028f6040518060400160405280600681526020017f61796573686100000000000000000000000000000000000000000000000000008152506040518060400160405280600681526020017f66656d616c650000000000000000000000000000000000000000000000000000815250735b38da6a701c568545dcfcb03fcb875f56beddc4610151565b925092509250909192565b6000604051905090565b600080fd5b600080fd5b6000819050919050565b6102c1816102ae565b81146102cc57600080fd5b50565b6000813590506102de816102b8565b92915050565b6000602082840312156102fa576102f96102a4565b5b6000610308848285016102cf565b91505092915050565b61031a816102ae565b82525050565b60006020820190506103356000830184610311565b92915050565b600080fd5b600080fd5b6000601f19601f8301169050919050565b7f4e487b7100000000000000000000000000000000000000000000000000000000600052604160045260246000fd5b61038e82610345565b810181811067ffffffffffffffff821117156103ad576103ac610356565b5b80604052505050565b60006103c061029a565b90506103cc8282610385565b919050565b600067ffffffffffffffff8211156103ec576103eb610356565b5b6103f582610345565b9050602081019050919050565b82818337600083830152505050565b600061042461041f846103d1565b6103b6565b9050828152602081018484840111156104405761043f610340565b5b61044b848285610402565b509392505050565b600082601f8301126104685761046761033b565b5b8135610478848260208601610411565b91505092915050565b600073ffffffffffffffffffffffffffffffffffffffff82169050919050565b60006104ac82610481565b9050919050565b6104bc816104a1565b81146104c757600080fd5b50565b6000813590506104d9816104b3565b92915050565b6000806000606084860312156104f8576104f76102a4565b5b600084013567ffffffffffffffff811115610516576105156102a9565b5b61052286828701610453565b935050602084013567ffffffffffffffff811115610543576105426102a9565b5b61054f86828701610453565b9250506040610560868287016104ca565b9150509250925092565b600081519050919050565b600082825260208201905092915050565b60005b838110156105a4578082015181840152602081019050610589565b60008484015250505050565b60006105bb8261056a565b6105c58185610575565b93506105d5818560208601610586565b6105de81610345565b840191505092915050565b6105f2816104a1565b82525050565b6000606082019050818103600083015261061281866105b0565b9050818103602083015261062681856105b0565b905061063560408301846105e9565b949350505050565b7f4e487b7100000000000000000000000000000000000000000000000000000000600052601160045260246000fd5b6000610677826102ae565b9150610682836102ae565b9250828202610690816102ae565b915082820484148315176106a7576106a661063d565b5b509291505056fea2646970667358221220b0fd8e501575b56646666ca3bd1f88834fa81d922fb50d42ead9325d921e539e64736f6c63430008120033",
					"opcodes": "PUSH1 0x80 PUSH1 0x40 MSTORE CALLVALUE DUP1 ISZERO PUSH2 0x10 JUMPI PUSH1 0x0 DUP1 REVERT JUMPDEST POP PUSH2 0x6E4 DUP1 PUSH2 0x20 PUSH1 0x0 CODECOPY PUSH1 0x0 RETURN INVALID PUSH1 0x80 PUSH1 0x40 MSTORE CALLVALUE DUP1 ISZERO PUSH2 0x10 JUMPI PUSH1 0x0 DUP1 REVERT JUMPDEST POP PUSH1 0x4 CALLDATASIZE LT PUSH2 0x57 JUMPI PUSH1 0x0 CALLDATALOAD PUSH1 0xE0 SHR DUP1 PUSH4 0x16FF6540 EQ PUSH2 0x5C JUMPI DUP1 PUSH4 0x2DD9868D EQ PUSH2 0x8C JUMPI DUP1 PUSH4 0xAAA7D0F5 EQ PUSH2 0xAA JUMPI DUP1 PUSH4 0xBAE4B95F EQ PUSH2 0xDC JUMPI DUP1 PUSH4 0xF5EACECE EQ PUSH2 0xFC JUMPI JUMPDEST PUSH1 0x0 DUP1 REVERT JUMPDEST PUSH2 0x76 PUSH1 0x4 DUP1 CALLDATASIZE SUB DUP2 ADD SWAP1 PUSH2 0x71 SWAP2 SWAP1 PUSH2 0x2E4 JUMP JUMPDEST PUSH2 0x11C JUMP JUMPDEST PUSH1 0x40 MLOAD PUSH2 0x83 SWAP2 SWAP1 PUSH2 0x320 JUMP JUMPDEST PUSH1 0x40 MLOAD DUP1 SWAP2 SUB SWAP1 RETURN JUMPDEST PUSH2 0x94 PUSH2 0x145 JUMP JUMPDEST PUSH1 0x40 MLOAD PUSH2 0xA1 SWAP2 SWAP1 PUSH2 0x320 JUMP JUMPDEST PUSH1 0x40 MLOAD DUP1 SWAP2 SUB SWAP1 RETURN JUMPDEST PUSH2 0xC4 PUSH1 0x4 DUP1 CALLDATASIZE SUB DUP2 ADD SWAP1 PUSH2 0xBF SWAP2 SWAP1 PUSH2 0x4DF JUMP JUMPDEST PUSH2 0x151 JUMP JUMPDEST PUSH1 0x40 MLOAD PUSH2 0xD3 SWAP4 SWAP3 SWAP2 SWAP1 PUSH2 0x5F8 JUMP JUMPDEST PUSH1 0x40 MLOAD DUP1 SWAP2 SUB SWAP1 RETURN JUMPDEST PUSH2 0xE4 PUSH2 0x168 JUMP JUMPDEST PUSH1 0x40 MLOAD PUSH2 0xF3 SWAP4 SWAP3 SWAP2 SWAP1 PUSH2 0x5F8 JUMP JUMPDEST PUSH1 0x40 MLOAD DUP1 SWAP2 SUB SWAP1 RETURN JUMPDEST PUSH2 0x104 PUSH2 0x201 JUMP JUMPDEST PUSH1 0x40 MLOAD PUSH2 0x113 SWAP4 SWAP3 SWAP2 SWAP1 PUSH2 0x5F8 JUMP JUMPDEST PUSH1 0x40 MLOAD DUP1 SWAP2 SUB SWAP1 RETURN JUMPDEST PUSH1 0x0 DUP2 PUSH8 0x2B992DDFA23249D6 PUSH1 0x2 PUSH2 0x134 SWAP2 SWAP1 PUSH2 0x66C JUMP JUMPDEST PUSH2 0x13E SWAP2 SWAP1 PUSH2 0x66C JUMP JUMPDEST SWAP1 POP SWAP2 SWAP1 POP JUMP JUMPDEST PUSH8 0x2B992DDFA23249D6 DUP2 JUMP JUMPDEST PUSH1 0x60 DUP1 PUSH1 0x0 DUP6 SWAP3 POP DUP5 SWAP2 POP DUP4 SWAP1 POP SWAP4 POP SWAP4 POP SWAP4 SWAP1 POP JUMP JUMPDEST PUSH1 0x60 DUP1 PUSH1 0x0 PUSH2 0x1F6 PUSH1 0x40 MLOAD DUP1 PUSH1 0x40 ADD PUSH1 0x40 MSTORE DUP1 PUSH1 0x6 DUP2 MSTORE PUSH1 0x20 ADD PUSH32 0x6179657368610000000000000000000000000000000000000000000000000000 DUP2 MSTORE POP PUSH1 0x40 MLOAD DUP1 PUSH1 0x40 ADD PUSH1 0x40 MSTORE DUP1 PUSH1 0x6 DUP2 MSTORE PUSH1 0x20 ADD PUSH32 0x66656D616C650000000000000000000000000000000000000000000000000000 DUP2 MSTORE POP PUSH20 0x5B38DA6A701C568545DCFCB03FCB875F56BEDDC4 PUSH2 0x151 JUMP JUMPDEST SWAP3 POP SWAP3 POP SWAP3 POP SWAP1 SWAP2 SWAP3 JUMP JUMPDEST PUSH1 0x60 DUP1 PUSH1 0x0 PUSH2 0x28F PUSH1 0x40 MLOAD DUP1 PUSH1 0x40 ADD PUSH1 0x40 MSTORE DUP1 PUSH1 0x6 DUP2 MSTORE PUSH1 0x20 ADD PUSH32 0x6179657368610000000000000000000000000000000000000000000000000000 DUP2 MSTORE POP PUSH1 0x40 MLOAD DUP1 PUSH1 0x40 ADD PUSH1 0x40 MSTORE DUP1 PUSH1 0x6 DUP2 MSTORE PUSH1 0x20 ADD PUSH32 0x66656D616C650000000000000000000000000000000000000000000000000000 DUP2 MSTORE POP PUSH20 0x5B38DA6A701C568545DCFCB03FCB875F56BEDDC4 PUSH2 0x151 JUMP JUMPDEST SWAP3 POP SWAP3 POP SWAP3 POP SWAP1 SWAP2 SWAP3 JUMP JUMPDEST PUSH1 0x0 PUSH1 0x40 MLOAD SWAP1 POP SWAP1 JUMP JUMPDEST PUSH1 0x0 DUP1 REVERT JUMPDEST PUSH1 0x0 DUP1 REVERT JUMPDEST PUSH1 0x0 DUP2 SWAP1 POP SWAP2 SWAP1 POP JUMP JUMPDEST PUSH2 0x2C1 DUP2 PUSH2 0x2AE JUMP JUMPDEST DUP2 EQ PUSH2 0x2CC JUMPI PUSH1 0x0 DUP1 REVERT JUMPDEST POP JUMP JUMPDEST PUSH1 0x0 DUP2 CALLDATALOAD SWAP1 POP PUSH2 0x2DE DUP2 PUSH2 0x2B8 JUMP JUMPDEST SWAP3 SWAP2 POP POP JUMP JUMPDEST PUSH1 0x0 PUSH1 0x20 DUP3 DUP5 SUB SLT ISZERO PUSH2 0x2FA JUMPI PUSH2 0x2F9 PUSH2 0x2A4 JUMP JUMPDEST JUMPDEST PUSH1 0x0 PUSH2 0x308 DUP5 DUP3 DUP6 ADD PUSH2 0x2CF JUMP JUMPDEST SWAP2 POP POP SWAP3 SWAP2 POP POP JUMP JUMPDEST PUSH2 0x31A DUP2 PUSH2 0x2AE JUMP JUMPDEST DUP3 MSTORE POP POP JUMP JUMPDEST PUSH1 0x0 PUSH1 0x20 DUP3 ADD SWAP1 POP PUSH2 0x335 PUSH1 0x0 DUP4 ADD DUP5 PUSH2 0x311 JUMP JUMPDEST SWAP3 SWAP2 POP POP JUMP JUMPDEST PUSH1 0x0 DUP1 REVERT JUMPDEST PUSH1 0x0 DUP1 REVERT JUMPDEST PUSH1 0x0 PUSH1 0x1F NOT PUSH1 0x1F DUP4 ADD AND SWAP1 POP SWAP2 SWAP1 POP JUMP JUMPDEST PUSH32 0x4E487B7100000000000000000000000000000000000000000000000000000000 PUSH1 0x0 MSTORE PUSH1 0x41 PUSH1 0x4 MSTORE PUSH1 0x24 PUSH1 0x0 REVERT JUMPDEST PUSH2 0x38E DUP3 PUSH2 0x345 JUMP JUMPDEST DUP2 ADD DUP2 DUP2 LT PUSH8 0xFFFFFFFFFFFFFFFF DUP3 GT OR ISZERO PUSH2 0x3AD JUMPI PUSH2 0x3AC PUSH2 0x356 JUMP JUMPDEST JUMPDEST DUP1 PUSH1 0x40 MSTORE POP POP POP JUMP JUMPDEST PUSH1 0x0 PUSH2 0x3C0 PUSH2 0x29A JUMP JUMPDEST SWAP1 POP PUSH2 0x3CC DUP3 DUP3 PUSH2 0x385 JUMP JUMPDEST SWAP2 SWAP1 POP JUMP JUMPDEST PUSH1 0x0 PUSH8 0xFFFFFFFFFFFFFFFF DUP3 GT ISZERO PUSH2 0x3EC JUMPI PUSH2 0x3EB PUSH2 0x356 JUMP JUMPDEST JUMPDEST PUSH2 0x3F5 DUP3 PUSH2 0x345 JUMP JUMPDEST SWAP1 POP PUSH1 0x20 DUP2 ADD SWAP1 POP SWAP2 SWAP1 POP JUMP JUMPDEST DUP3 DUP2 DUP4 CALLDATACOPY PUSH1 0x0 DUP4 DUP4 ADD MSTORE POP POP POP JUMP JUMPDEST PUSH1 0x0 PUSH2 0x424 PUSH2 0x41F DUP5 PUSH2 0x3D1 JUMP JUMPDEST PUSH2 0x3B6 JUMP JUMPDEST SWAP1 POP DUP3 DUP2 MSTORE PUSH1 0x20 DUP2 ADD DUP5 DUP5 DUP5 ADD GT ISZERO PUSH2 0x440 JUMPI PUSH2 0x43F PUSH2 0x340 JUMP JUMPDEST JUMPDEST PUSH2 0x44B DUP5 DUP3 DUP6 PUSH2 0x402 JUMP JUMPDEST POP SWAP4 SWAP3 POP POP POP JUMP JUMPDEST PUSH1 0x0 DUP3 PUSH1 0x1F DUP4 ADD SLT PUSH2 0x468 JUMPI PUSH2 0x467 PUSH2 0x33B JUMP JUMPDEST JUMPDEST DUP2 CALLDATALOAD PUSH2 0x478 DUP5 DUP3 PUSH1 0x20 DUP7 ADD PUSH2 0x411 JUMP JUMPDEST SWAP2 POP POP SWAP3 SWAP2 POP POP JUMP JUMPDEST PUSH1 0x0 PUSH20 0xFFFFFFFFFFFFFFFFFFFFFFFFFFFFFFFFFFFFFFFF DUP3 AND SWAP1 POP SWAP2 SWAP1 POP JUMP JUMPDEST PUSH1 0x0 PUSH2 0x4AC DUP3 PUSH2 0x481 JUMP JUMPDEST SWAP1 POP SWAP2 SWAP1 POP JUMP JUMPDEST PUSH2 0x4BC DUP2 PUSH2 0x4A1 JUMP JUMPDEST DUP2 EQ PUSH2 0x4C7 JUMPI PUSH1 0x0 DUP1 REVERT JUMPDEST POP JUMP JUMPDEST PUSH1 0x0 DUP2 CALLDATALOAD SWAP1 POP PUSH2 0x4D9 DUP2 PUSH2 0x4B3 JUMP JUMPDEST SWAP3 SWAP2 POP POP JUMP JUMPDEST PUSH1 0x0 DUP1 PUSH1 0x0 PUSH1 0x60 DUP5 DUP7 SUB SLT ISZERO PUSH2 0x4F8 JUMPI PUSH2 0x4F7 PUSH2 0x2A4 JUMP JUMPDEST JUMPDEST PUSH1 0x0 DUP5 ADD CALLDATALOAD PUSH8 0xFFFFFFFFFFFFFFFF DUP2 GT ISZERO PUSH2 0x516 JUMPI PUSH2 0x515 PUSH2 0x2A9 JUMP JUMPDEST JUMPDEST PUSH2 0x522 DUP7 DUP3 DUP8 ADD PUSH2 0x453 JUMP JUMPDEST SWAP4 POP POP PUSH1 0x20 DUP5 ADD CALLDATALOAD PUSH8 0xFFFFFFFFFFFFFFFF DUP2 GT ISZERO PUSH2 0x543 JUMPI PUSH2 0x542 PUSH2 0x2A9 JUMP JUMPDEST JUMPDEST PUSH2 0x54F DUP7 DUP3 DUP8 ADD PUSH2 0x453 JUMP JUMPDEST SWAP3 POP POP PUSH1 0x40 PUSH2 0x560 DUP7 DUP3 DUP8 ADD PUSH2 0x4CA JUMP JUMPDEST SWAP2 POP POP SWAP3 POP SWAP3 POP SWAP3 JUMP JUMPDEST PUSH1 0x0 DUP2 MLOAD SWAP1 POP SWAP2 SWAP1 POP JUMP JUMPDEST PUSH1 0x0 DUP3 DUP3 MSTORE PUSH1 0x20 DUP3 ADD SWAP1 POP SWAP3 SWAP2 POP POP JUMP JUMPDEST PUSH1 0x0 JUMPDEST DUP4 DUP2 LT ISZERO PUSH2 0x5A4 JUMPI DUP1 DUP3 ADD MLOAD DUP2 DUP5 ADD MSTORE PUSH1 0x20 DUP2 ADD SWAP1 POP PUSH2 0x589 JUMP JUMPDEST PUSH1 0x0 DUP5 DUP5 ADD MSTORE POP POP POP POP JUMP JUMPDEST PUSH1 0x0 PUSH2 0x5BB DUP3 PUSH2 0x56A JUMP JUMPDEST PUSH2 0x5C5 DUP2 DUP6 PUSH2 0x575 JUMP JUMPDEST SWAP4 POP PUSH2 0x5D5 DUP2 DUP6 PUSH1 0x20 DUP7 ADD PUSH2 0x586 JUMP JUMPDEST PUSH2 0x5DE DUP2 PUSH2 0x345 JUMP JUMPDEST DUP5 ADD SWAP2 POP POP SWAP3 SWAP2 POP POP JUMP JUMPDEST PUSH2 0x5F2 DUP2 PUSH2 0x4A1 JUMP JUMPDEST DUP3 MSTORE POP POP JUMP JUMPDEST PUSH1 0x0 PUSH1 0x60 DUP3 ADD SWAP1 POP DUP2 DUP2 SUB PUSH1 0x0 DUP4 ADD MSTORE PUSH2 0x612 DUP2 DUP7 PUSH2 0x5B0 JUMP JUMPDEST SWAP1 POP DUP2 DUP2 SUB PUSH1 0x20 DUP4 ADD MSTORE PUSH2 0x626 DUP2 DUP6 PUSH2 0x5B0 JUMP JUMPDEST SWAP1 POP PUSH2 0x635 PUSH1 0x40 DUP4 ADD DUP5 PUSH2 0x5E9 JUMP JUMPDEST SWAP5 SWAP4 POP POP POP POP JUMP JUMPDEST PUSH32 0x4E487B7100000000000000000000000000000000000000000000000000000000 PUSH1 0x0 MSTORE PUSH1 0x11 PUSH1 0x4 MSTORE PUSH1 0x24 PUSH1 0x0 REVERT JUMPDEST PUSH1 0x0 PUSH2 0x677 DUP3 PUSH2 0x2AE JUMP JUMPDEST SWAP2 POP PUSH2 0x682 DUP4 PUSH2 0x2AE JUMP JUMPDEST SWAP3 POP DUP3 DUP3 MUL PUSH2 0x690 DUP2 PUSH2 0x2AE JUMP JUMPDEST SWAP2 POP DUP3 DUP3 DIV DUP5 EQ DUP4 ISZERO OR PUSH2 0x6A7 JUMPI PUSH2 0x6A6 PUSH2 0x63D JUMP JUMPDEST JUMPDEST POP SWAP3 SWAP2 POP POP JUMP INVALID LOG2 PUSH5 0x6970667358 0x22 SLT KECCAK256 0xB0 REVERT DUP15 POP ISZERO PUSH22 0xB56646666CA3BD1F88834FA81D922FB50D42EAD9325D SWAP3 0x1E MSTORE8 SWAP15 PUSH5 0x736F6C6343 STOP ADDMOD SLT STOP CALLER "
				},
				"gasEstimates": {
					"creation": {
						"codeDepositCost": "352800",
						"executionCost": "393",
						"totalCost": "353193"
					},
					"external": {
						"circumference(uint256)": "infinite",
						"create1(string,string,address)": "infinite",
						"create2()": "infinite",
						"create3()": "infinite",
						"pi()": "329"
					}
				},
				"methodIdentifiers": {
					"circumference(uint256)": "16ff6540",
					"create1(string,string,address)": "aaa7d0f5",
					"create2()": "f5eacece",
					"create3()": "bae4b95f",
					"pi()": "2dd9868d"
				}
			},
			"storageLayout": {
				"storage": [],
				"types": null
			},
			"userdoc": {
				"kind": "user",
				"methods": {},
				"version": 1
			}
		}
	}
}