{
	"contracts/11thaug.sol": {
		"Events2": {
			"abi": [
				{
					"anonymous": false,
					"inputs": [
						{
							"components": [
								{
									"internalType": "string",
									"name": "name",
									"type": "string"
								},
								{
									"internalType": "uint256",
									"name": "age",
									"type": "uint256"
								},
								{
									"internalType": "string",
									"name": "department",
									"type": "string"
								}
							],
							"indexed": false,
							"internalType": "struct Events2.PersonInfo",
							"name": "oldValue",
							"type": "tuple"
						},
						{
							"components": [
								{
									"internalType": "string",
									"name": "name",
									"type": "string"
								},
								{
									"internalType": "uint256",
									"name": "age",
									"type": "uint256"
								},
								{
									"internalType": "string",
									"name": "department",
									"type": "string"
								}
							],
							"indexed": false,
							"internalType": "struct Events2.PersonInfo",
							"name": "newValue",
							"type": "tuple"
						},
						{
							"indexed": false,
							"internalType": "uint256",
							"name": "timestamp",
							"type": "uint256"
						},
						{
							"indexed": false,
							"internalType": "uint256",
							"name": "blockNumber",
							"type": "uint256"
						}
					],
					"name": "Update",
					"type": "event"
				},
				{
					"inputs": [],
					"name": "p1",
					"outputs": [
						{
							"internalType": "string",
							"name": "name",
							"type": "string"
						},
						{
							"internalType": "uint256",
							"name": "age",
							"type": "uint256"
						},
						{
							"internalType": "string",
							"name": "department",
							"type": "string"
						}
					],
					"stateMutability": "view",
					"type": "function"
				},
				{
					"inputs": [
						{
							"internalType": "string",
							"name": "_name",
							"type": "string"
						},
						{
							"internalType": "uint256",
							"name": "_age",
							"type": "uint256"
						},
						{
							"internalType": "string",
							"name": "_dept",
							"type": "string"
						}
					],
					"name": "set",
					"outputs": [],
					"stateMutability": "nonpayable",
					"type": "function"
				}
			],
			"devdoc": {
				"kind": "dev",
				"methods": {},
				"version": 1
			},
			"evm": {
				"assembly": "    /* \"contracts/11thaug.sol\":1019:1537  contract Events2{... */\n  mstore(0x40, 0x80)\n  callvalue\n  dup1\n  iszero\n  tag_1\n  jumpi\n  0x00\n  dup1\n  revert\ntag_1:\n  pop\n  dataSize(sub_0)\n  dup1\n  dataOffset(sub_0)\n  0x00\n  codecopy\n  0x00\n  return\nstop\n\nsub_0: assembly {\n        /* \"contracts/11thaug.sol\":1019:1537  contract Events2{... */\n      mstore(0x40, 0x80)\n      callvalue\n      dup1\n      iszero\n      tag_1\n      jumpi\n      0x00\n      dup1\n      revert\n    tag_1:\n      pop\n      jumpi(tag_2, lt(calldatasize, 0x04))\n      shr(0xe0, calldataload(0x00))\n      dup1\n      0xc2a2747b\n      eq\n      tag_3\n      jumpi\n      dup1\n      0xdab8e133\n      eq\n      tag_4\n      jumpi\n    tag_2:\n      0x00\n      dup1\n      revert\n        /* \"contracts/11thaug.sol\":1142:1162  PersonInfo public p1 */\n    tag_3:\n      tag_5\n      tag_6\n      jump\t// in\n    tag_5:\n      mload(0x40)\n      tag_7\n      swap4\n      swap3\n      swap2\n      swap1\n      tag_8\n      jump\t// in\n    tag_7:\n      mload(0x40)\n      dup1\n      swap2\n      sub\n      swap1\n      return\n        /* \"contracts/11thaug.sol\":1261:1534  function set(string memory _name, uint _age, string memory _dept) public{... */\n    tag_4:\n      tag_9\n      0x04\n      dup1\n      calldatasize\n      sub\n      dup2\n      add\n      swap1\n      tag_10\n      swap2\n      swap1\n      tag_11\n      jump\t// in\n    tag_10:\n      tag_12\n      jump\t// in\n    tag_9:\n      stop\n        /* \"contracts/11thaug.sol\":1142:1162  PersonInfo public p1 */\n    tag_6:\n      0x00\n      dup1\n      0x00\n      add\n      dup1\n      sload\n      tag_13\n      swap1\n      tag_14\n      jump\t// in\n    tag_13:\n      dup1\n      0x1f\n      add\n      0x20\n      dup1\n      swap2\n      div\n      mul\n      0x20\n      add\n      mload(0x40)\n      swap1\n      dup2\n      add\n      0x40\n      mstore\n      dup1\n      swap3\n      swap2\n      swap1\n      dup2\n      dup2\n      mstore\n      0x20\n      add\n      dup3\n      dup1\n      sload\n      tag_15\n      swap1\n      tag_14\n      jump\t// in\n    tag_15:\n      dup1\n      iszero\n      tag_16\n      jumpi\n      dup1\n      0x1f\n      lt\n      tag_17\n      jumpi\n      0x0100\n      dup1\n      dup4\n      sload\n      div\n      mul\n      dup4\n      mstore\n      swap2\n      0x20\n      add\n      swap2\n      jump(tag_16)\n    tag_17:\n      dup3\n      add\n      swap2\n      swap1\n      0x00\n      mstore\n      keccak256(0x00, 0x20)\n      swap1\n    tag_18:\n      dup2\n      sload\n      dup2\n      mstore\n      swap1\n      0x01\n      add\n      swap1\n      0x20\n      add\n      dup1\n      dup4\n      gt\n      tag_18\n      jumpi\n      dup3\n      swap1\n      sub\n      0x1f\n      and\n      dup3\n      add\n      swap2\n    tag_16:\n      pop\n      pop\n      pop\n      pop\n      pop\n      swap1\n      dup1\n      0x01\n      add\n      sload\n      swap1\n      dup1\n      0x02\n      add\n      dup1\n      sload\n      tag_19\n      swap1\n      tag_14\n      jump\t// in\n    tag_19:\n      dup1\n      0x1f\n      add\n      0x20\n      dup1\n      swap2\n      div\n      mul\n      0x20\n      add\n      mload(0x40)\n      swap1\n      dup2\n      add\n      0x40\n      mstore\n      dup1\n      swap3\n      swap2\n      swap1\n      dup2\n      dup2\n      mstore\n      0x20\n      add\n      dup3\n      dup1\n      sload\n      tag_20\n      swap1\n      tag_14\n      jump\t// in\n    tag_20:\n      dup1\n      iszero\n      tag_21\n      jumpi\n      dup1\n      0x1f\n      lt\n      tag_22\n      jumpi\n      0x0100\n      dup1\n      dup4\n      sload\n      div\n      mul\n      dup4\n      mstore\n      swap2\n      0x20\n      add\n      swap2\n      jump(tag_21)\n    tag_22:\n      dup3\n      add\n      swap2\n      swap1\n      0x00\n      mstore\n      keccak256(0x00, 0x20)\n      swap1\n    tag_23:\n      dup2\n      sload\n      dup2\n      mstore\n      swap1\n      0x01\n      add\n      swap1\n      0x20\n      add\n      dup1\n      dup4\n      gt\n      tag_23\n      jumpi\n      dup3\n      swap1\n      sub\n      0x1f\n      and\n      dup3\n      add\n      swap2\n    tag_21:\n      pop\n      pop\n      pop\n      pop\n      pop\n      swap1\n      pop\n      dup4\n      jump\t// out\n        /* \"contracts/11thaug.sol\":1261:1534  function set(string memory _name, uint _age, string memory _dept) public{... */\n    tag_12:\n        /* \"contracts/11thaug.sol\":1344:1370  PersonInfo memory oldValue */\n      0x00\n        /* \"contracts/11thaug.sol\":1373:1375  p1 */\n      dup1\n        /* \"contracts/11thaug.sol\":1344:1375  PersonInfo memory oldValue = p1 */\n      mload(0x40)\n      dup1\n      0x60\n      add\n      0x40\n      mstore\n      swap1\n      dup2\n      0x00\n      dup3\n      add\n      dup1\n      sload\n      tag_25\n      swap1\n      tag_14\n      jump\t// in\n    tag_25:\n      dup1\n      0x1f\n      add\n      0x20\n      dup1\n      swap2\n      div\n      mul\n      0x20\n      add\n      mload(0x40)\n      swap1\n      dup2\n      add\n      0x40\n      mstore\n      dup1\n      swap3\n      swap2\n      swap1\n      dup2\n      dup2\n      mstore\n      0x20\n      add\n      dup3\n      dup1\n      sload\n      tag_26\n      swap1\n      tag_14\n      jump\t// in\n    tag_26:\n      dup1\n      iszero\n      tag_27\n      jumpi\n      dup1\n      0x1f\n      lt\n      tag_28\n      jumpi\n      0x0100\n      dup1\n      dup4\n      sload\n      div\n      mul\n      dup4\n      mstore\n      swap2\n      0x20\n      add\n      swap2\n      jump(tag_27)\n    tag_28:\n      dup3\n      add\n      swap2\n      swap1\n      0x00\n      mstore\n      keccak256(0x00, 0x20)\n      swap1\n    tag_29:\n      dup2\n      sload\n      dup2\n      mstore\n      swap1\n      0x01\n      add\n      swap1\n      0x20\n      add\n      dup1\n      dup4\n      gt\n      tag_29\n      jumpi\n      dup3\n      swap1\n      sub\n      0x1f\n      and\n      dup3\n      add\n      swap2\n    tag_27:\n      pop\n      pop\n      pop\n      pop\n      pop\n      dup2\n      mstore\n      0x20\n      add\n      0x01\n      dup3\n      add\n      sload\n      dup2\n      mstore\n      0x20\n      add\n      0x02\n      dup3\n      add\n      dup1\n      sload\n      tag_30\n      swap1\n      tag_14\n      jump\t// in\n    tag_30:\n      dup1\n      0x1f\n      add\n      0x20\n      dup1\n      swap2\n      div\n      mul\n      0x20\n      add\n      mload(0x40)\n      swap1\n      dup2\n      add\n      0x40\n      mstore\n      dup1\n      swap3\n      swap2\n      swap1\n      dup2\n      dup2\n      mstore\n      0x20\n      add\n      dup3\n      dup1\n      sload\n      tag_31\n      swap1\n      tag_14\n      jump\t// in\n    tag_31:\n      dup1\n      iszero\n      tag_32\n      jumpi\n      dup1\n      0x1f\n      lt\n      tag_33\n      jumpi\n      0x0100\n      dup1\n      dup4\n      sload\n      div\n      mul\n      dup4\n      mstore\n      swap2\n      0x20\n      add\n      swap2\n      jump(tag_32)\n    tag_33:\n      dup3\n      add\n      swap2\n      swap1\n      0x00\n      mstore\n      keccak256(0x00, 0x20)\n      swap1\n    tag_34:\n      dup2\n      sload\n      dup2\n      mstore\n      swap1\n      0x01\n      add\n      swap1\n      0x20\n      add\n      dup1\n      dup4\n      gt\n      tag_34\n      jumpi\n      dup3\n      swap1\n      sub\n      0x1f\n      and\n      dup3\n      add\n      swap2\n    tag_32:\n      pop\n      pop\n      pop\n      pop\n      pop\n      dup2\n      mstore\n      pop\n      pop\n      swap1\n      pop\n        /* \"contracts/11thaug.sol\":1396:1401  _name */\n      dup4\n        /* \"contracts/11thaug.sol\":1386:1388  p1 */\n      0x00\n        /* \"contracts/11thaug.sol\":1386:1393  p1.name */\n      dup1\n      add\n        /* \"contracts/11thaug.sol\":1386:1401  p1.name = _name */\n      swap1\n      dup2\n      tag_35\n      swap2\n      swap1\n      tag_36\n      jump\t// in\n    tag_35:\n      pop\n        /* \"contracts/11thaug.sol\":1421:1425  _age */\n      dup3\n        /* \"contracts/11thaug.sol\":1412:1414  p1 */\n      0x00\n        /* \"contracts/11thaug.sol\":1412:1418  p1.age */\n      0x01\n      add\n        /* \"contracts/11thaug.sol\":1412:1425  p1.age = _age */\n      dup2\n      swap1\n      sstore\n      pop\n        /* \"contracts/11thaug.sol\":1452:1457  _dept */\n      dup2\n        /* \"contracts/11thaug.sol\":1436:1438  p1 */\n      0x00\n        /* \"contracts/11thaug.sol\":1436:1449  p1.department */\n      0x02\n      add\n        /* \"contracts/11thaug.sol\":1436:1457  p1.department = _dept */\n      swap1\n      dup2\n      tag_37\n      swap2\n      swap1\n      tag_36\n      jump\t// in\n    tag_37:\n      pop\n        /* \"contracts/11thaug.sol\":1473:1524  Update(oldValue, p1, block.timestamp, block.number) */\n      0x42f2e4fbf18d4ed62a7c65a5cc9d424dc667a788be5da00dd74ee470c3efda2e\n        /* \"contracts/11thaug.sol\":1480:1488  oldValue */\n      dup2\n        /* \"contracts/11thaug.sol\":1490:1492  p1 */\n      0x00\n        /* \"contracts/11thaug.sol\":1494:1509  block.timestamp */\n      timestamp\n        /* \"contracts/11thaug.sol\":1511:1523  block.number */\n      number\n        /* \"contracts/11thaug.sol\":1473:1524  Update(oldValue, p1, block.timestamp, block.number) */\n      mload(0x40)\n      tag_38\n      swap5\n      swap4\n      swap3\n      swap2\n      swap1\n      tag_39\n      jump\t// in\n    tag_38:\n      mload(0x40)\n      dup1\n      swap2\n      sub\n      swap1\n      log1\n        /* \"contracts/11thaug.sol\":1333:1534  {... */\n      pop\n        /* \"contracts/11thaug.sol\":1261:1534  function set(string memory _name, uint _age, string memory _dept) public{... */\n      pop\n      pop\n      pop\n      jump\t// out\n        /* \"#utility.yul\":7:106   */\n    tag_40:\n        /* \"#utility.yul\":59:65   */\n      0x00\n        /* \"#utility.yul\":93:98   */\n      dup2\n        /* \"#utility.yul\":87:99   */\n      mload\n        /* \"#utility.yul\":77:99   */\n      swap1\n      pop\n        /* \"#utility.yul\":7:106   */\n      swap2\n      swap1\n      pop\n      jump\t// out\n        /* \"#utility.yul\":112:281   */\n    tag_41:\n        /* \"#utility.yul\":196:207   */\n      0x00\n        /* \"#utility.yul\":230:236   */\n      dup3\n        /* \"#utility.yul\":225:228   */\n      dup3\n        /* \"#utility.yul\":218:237   */\n      mstore\n        /* \"#utility.yul\":270:274   */\n      0x20\n        /* \"#utility.yul\":265:268   */\n      dup3\n        /* \"#utility.yul\":261:275   */\n      add\n        /* \"#utility.yul\":246:275   */\n      swap1\n      pop\n        /* \"#utility.yul\":112:281   */\n      swap3\n      swap2\n      pop\n      pop\n      jump\t// out\n        /* \"#utility.yul\":287:533   */\n    tag_42:\n        /* \"#utility.yul\":368:369   */\n      0x00\n        /* \"#utility.yul\":378:491   */\n    tag_90:\n        /* \"#utility.yul\":392:398   */\n      dup4\n        /* \"#utility.yul\":389:390   */\n      dup2\n        /* \"#utility.yul\":386:399   */\n      lt\n        /* \"#utility.yul\":378:491   */\n      iszero\n      tag_92\n      jumpi\n        /* \"#utility.yul\":477:478   */\n      dup1\n        /* \"#utility.yul\":472:475   */\n      dup3\n        /* \"#utility.yul\":468:479   */\n      add\n        /* \"#utility.yul\":462:480   */\n      mload\n        /* \"#utility.yul\":458:459   */\n      dup2\n        /* \"#utility.yul\":453:456   */\n      dup5\n        /* \"#utility.yul\":449:460   */\n      add\n        /* \"#utility.yul\":442:481   */\n      mstore\n        /* \"#utility.yul\":414:416   */\n      0x20\n        /* \"#utility.yul\":411:412   */\n      dup2\n        /* \"#utility.yul\":407:417   */\n      add\n        /* \"#utility.yul\":402:417   */\n      swap1\n      pop\n        /* \"#utility.yul\":378:491   */\n      jump(tag_90)\n    tag_92:\n        /* \"#utility.yul\":525:526   */\n      0x00\n        /* \"#utility.yul\":516:522   */\n      dup5\n        /* \"#utility.yul\":511:514   */\n      dup5\n        /* \"#utility.yul\":507:523   */\n      add\n        /* \"#utility.yul\":500:527   */\n      mstore\n        /* \"#utility.yul\":349:533   */\n      pop\n        /* \"#utility.yul\":287:533   */\n      pop\n      pop\n      pop\n      jump\t// out\n        /* \"#utility.yul\":539:641   */\n    tag_43:\n        /* \"#utility.yul\":580:586   */\n      0x00\n        /* \"#utility.yul\":631:633   */\n      0x1f\n        /* \"#utility.yul\":627:634   */\n      not\n        /* \"#utility.yul\":622:624   */\n      0x1f\n        /* \"#utility.yul\":615:620   */\n      dup4\n        /* \"#utility.yul\":611:625   */\n      add\n        /* \"#utility.yul\":607:635   */\n      and\n        /* \"#utility.yul\":597:635   */\n      swap1\n      pop\n        /* \"#utility.yul\":539:641   */\n      swap2\n      swap1\n      pop\n      jump\t// out\n        /* \"#utility.yul\":647:1024   */\n    tag_44:\n        /* \"#utility.yul\":735:738   */\n      0x00\n        /* \"#utility.yul\":763:802   */\n      tag_95\n        /* \"#utility.yul\":796:801   */\n      dup3\n        /* \"#utility.yul\":763:802   */\n      tag_40\n      jump\t// in\n    tag_95:\n        /* \"#utility.yul\":818:889   */\n      tag_96\n        /* \"#utility.yul\":882:888   */\n      dup2\n        /* \"#utility.yul\":877:880   */\n      dup6\n        /* \"#utility.yul\":818:889   */\n      tag_41\n      jump\t// in\n    tag_96:\n        /* \"#utility.yul\":811:889   */\n      swap4\n      pop\n        /* \"#utility.yul\":898:963   */\n      tag_97\n        /* \"#utility.yul\":956:962   */\n      dup2\n        /* \"#utility.yul\":951:954   */\n      dup6\n        /* \"#utility.yul\":944:948   */\n      0x20\n        /* \"#utility.yul\":937:942   */\n      dup7\n        /* \"#utility.yul\":933:949   */\n      add\n        /* \"#utility.yul\":898:963   */\n      tag_42\n      jump\t// in\n    tag_97:\n        /* \"#utility.yul\":988:1017   */\n      tag_98\n        /* \"#utility.yul\":1010:1016   */\n      dup2\n        /* \"#utility.yul\":988:1017   */\n      tag_43\n      jump\t// in\n    tag_98:\n        /* \"#utility.yul\":983:986   */\n      dup5\n        /* \"#utility.yul\":979:1018   */\n      add\n        /* \"#utility.yul\":972:1018   */\n      swap2\n      pop\n        /* \"#utility.yul\":739:1024   */\n      pop\n        /* \"#utility.yul\":647:1024   */\n      swap3\n      swap2\n      pop\n      pop\n      jump\t// out\n        /* \"#utility.yul\":1030:1107   */\n    tag_45:\n        /* \"#utility.yul\":1067:1074   */\n      0x00\n        /* \"#utility.yul\":1096:1101   */\n      dup2\n        /* \"#utility.yul\":1085:1101   */\n      swap1\n      pop\n        /* \"#utility.yul\":1030:1107   */\n      swap2\n      swap1\n      pop\n      jump\t// out\n        /* \"#utility.yul\":1113:1231   */\n    tag_46:\n        /* \"#utility.yul\":1200:1224   */\n      tag_101\n        /* \"#utility.yul\":1218:1223   */\n      dup2\n        /* \"#utility.yul\":1200:1224   */\n      tag_45\n      jump\t// in\n    tag_101:\n        /* \"#utility.yul\":1195:1198   */\n      dup3\n        /* \"#utility.yul\":1188:1225   */\n      mstore\n        /* \"#utility.yul\":1113:1231   */\n      pop\n      pop\n      jump\t// out\n        /* \"#utility.yul\":1237:1861   */\n    tag_8:\n        /* \"#utility.yul\":1426:1430   */\n      0x00\n        /* \"#utility.yul\":1464:1466   */\n      0x60\n        /* \"#utility.yul\":1453:1462   */\n      dup3\n        /* \"#utility.yul\":1449:1467   */\n      add\n        /* \"#utility.yul\":1441:1467   */\n      swap1\n      pop\n        /* \"#utility.yul\":1513:1522   */\n      dup2\n        /* \"#utility.yul\":1507:1511   */\n      dup2\n        /* \"#utility.yul\":1503:1523   */\n      sub\n        /* \"#utility.yul\":1499:1500   */\n      0x00\n        /* \"#utility.yul\":1488:1497   */\n      dup4\n        /* \"#utility.yul\":1484:1501   */\n      add\n        /* \"#utility.yul\":1477:1524   */\n      mstore\n        /* \"#utility.yul\":1541:1619   */\n      tag_103\n        /* \"#utility.yul\":1614:1618   */\n      dup2\n        /* \"#utility.yul\":1605:1611   */\n      dup7\n        /* \"#utility.yul\":1541:1619   */\n      tag_44\n      jump\t// in\n    tag_103:\n        /* \"#utility.yul\":1533:1619   */\n      swap1\n      pop\n        /* \"#utility.yul\":1629:1701   */\n      tag_104\n        /* \"#utility.yul\":1697:1699   */\n      0x20\n        /* \"#utility.yul\":1686:1695   */\n      dup4\n        /* \"#utility.yul\":1682:1700   */\n      add\n        /* \"#utility.yul\":1673:1679   */\n      dup6\n        /* \"#utility.yul\":1629:1701   */\n      tag_46\n      jump\t// in\n    tag_104:\n        /* \"#utility.yul\":1748:1757   */\n      dup2\n        /* \"#utility.yul\":1742:1746   */\n      dup2\n        /* \"#utility.yul\":1738:1758   */\n      sub\n        /* \"#utility.yul\":1733:1735   */\n      0x40\n        /* \"#utility.yul\":1722:1731   */\n      dup4\n        /* \"#utility.yul\":1718:1736   */\n      add\n        /* \"#utility.yul\":1711:1759   */\n      mstore\n        /* \"#utility.yul\":1776:1854   */\n      tag_105\n        /* \"#utility.yul\":1849:1853   */\n      dup2\n        /* \"#utility.yul\":1840:1846   */\n      dup5\n        /* \"#utility.yul\":1776:1854   */\n      tag_44\n      jump\t// in\n    tag_105:\n        /* \"#utility.yul\":1768:1854   */\n      swap1\n      pop\n        /* \"#utility.yul\":1237:1861   */\n      swap5\n      swap4\n      pop\n      pop\n      pop\n      pop\n      jump\t// out\n        /* \"#utility.yul\":1867:1942   */\n    tag_47:\n        /* \"#utility.yul\":1900:1906   */\n      0x00\n        /* \"#utility.yul\":1933:1935   */\n      0x40\n        /* \"#utility.yul\":1927:1936   */\n      mload\n        /* \"#utility.yul\":1917:1936   */\n      swap1\n      pop\n        /* \"#utility.yul\":1867:1942   */\n      swap1\n      jump\t// out\n        /* \"#utility.yul\":1948:2065   */\n    tag_48:\n        /* \"#utility.yul\":2057:2058   */\n      0x00\n        /* \"#utility.yul\":2054:2055   */\n      dup1\n        /* \"#utility.yul\":2047:2059   */\n      revert\n        /* \"#utility.yul\":2071:2188   */\n    tag_49:\n        /* \"#utility.yul\":2180:2181   */\n      0x00\n        /* \"#utility.yul\":2177:2178   */\n      dup1\n        /* \"#utility.yul\":2170:2182   */\n      revert\n        /* \"#utility.yul\":2194:2311   */\n    tag_50:\n        /* \"#utility.yul\":2303:2304   */\n      0x00\n        /* \"#utility.yul\":2300:2301   */\n      dup1\n        /* \"#utility.yul\":2293:2305   */\n      revert\n        /* \"#utility.yul\":2317:2434   */\n    tag_51:\n        /* \"#utility.yul\":2426:2427   */\n      0x00\n        /* \"#utility.yul\":2423:2424   */\n      dup1\n        /* \"#utility.yul\":2416:2428   */\n      revert\n        /* \"#utility.yul\":2440:2620   */\n    tag_52:\n        /* \"#utility.yul\":2488:2565   */\n      0x4e487b7100000000000000000000000000000000000000000000000000000000\n        /* \"#utility.yul\":2485:2486   */\n      0x00\n        /* \"#utility.yul\":2478:2566   */\n      mstore\n        /* \"#utility.yul\":2585:2589   */\n      0x41\n        /* \"#utility.yul\":2582:2583   */\n      0x04\n        /* \"#utility.yul\":2575:2590   */\n      mstore\n        /* \"#utility.yul\":2609:2613   */\n      0x24\n        /* \"#utility.yul\":2606:2607   */\n      0x00\n        /* \"#utility.yul\":2599:2614   */\n      revert\n        /* \"#utility.yul\":2626:2907   */\n    tag_53:\n        /* \"#utility.yul\":2709:2736   */\n      tag_113\n        /* \"#utility.yul\":2731:2735   */\n      dup3\n        /* \"#utility.yul\":2709:2736   */\n      tag_43\n      jump\t// in\n    tag_113:\n        /* \"#utility.yul\":2701:2707   */\n      dup2\n        /* \"#utility.yul\":2697:2737   */\n      add\n        /* \"#utility.yul\":2839:2845   */\n      dup2\n        /* \"#utility.yul\":2827:2837   */\n      dup2\n        /* \"#utility.yul\":2824:2846   */\n      lt\n        /* \"#utility.yul\":2803:2821   */\n      0xffffffffffffffff\n        /* \"#utility.yul\":2791:2801   */\n      dup3\n        /* \"#utility.yul\":2788:2822   */\n      gt\n        /* \"#utility.yul\":2785:2847   */\n      or\n        /* \"#utility.yul\":2782:2870   */\n      iszero\n      tag_114\n      jumpi\n        /* \"#utility.yul\":2850:2868   */\n      tag_115\n      tag_52\n      jump\t// in\n    tag_115:\n        /* \"#utility.yul\":2782:2870   */\n    tag_114:\n        /* \"#utility.yul\":2890:2900   */\n      dup1\n        /* \"#utility.yul\":2886:2888   */\n      0x40\n        /* \"#utility.yul\":2879:2901   */\n      mstore\n        /* \"#utility.yul\":2669:2907   */\n      pop\n        /* \"#utility.yul\":2626:2907   */\n      pop\n      pop\n      jump\t// out\n        /* \"#utility.yul\":2913:3042   */\n    tag_54:\n        /* \"#utility.yul\":2947:2953   */\n      0x00\n        /* \"#utility.yul\":2974:2994   */\n      tag_117\n      tag_47\n      jump\t// in\n    tag_117:\n        /* \"#utility.yul\":2964:2994   */\n      swap1\n      pop\n        /* \"#utility.yul\":3003:3036   */\n      tag_118\n        /* \"#utility.yul\":3031:3035   */\n      dup3\n        /* \"#utility.yul\":3023:3029   */\n      dup3\n        /* \"#utility.yul\":3003:3036   */\n      tag_53\n      jump\t// in\n    tag_118:\n        /* \"#utility.yul\":2913:3042   */\n      swap2\n      swap1\n      pop\n      jump\t// out\n        /* \"#utility.yul\":3048:3356   */\n    tag_55:\n        /* \"#utility.yul\":3110:3114   */\n      0x00\n        /* \"#utility.yul\":3200:3218   */\n      0xffffffffffffffff\n        /* \"#utility.yul\":3192:3198   */\n      dup3\n        /* \"#utility.yul\":3189:3219   */\n      gt\n        /* \"#utility.yul\":3186:3242   */\n      iszero\n      tag_120\n      jumpi\n        /* \"#utility.yul\":3222:3240   */\n      tag_121\n      tag_52\n      jump\t// in\n    tag_121:\n        /* \"#utility.yul\":3186:3242   */\n    tag_120:\n        /* \"#utility.yul\":3260:3289   */\n      tag_122\n        /* \"#utility.yul\":3282:3288   */\n      dup3\n        /* \"#utility.yul\":3260:3289   */\n      tag_43\n      jump\t// in\n    tag_122:\n        /* \"#utility.yul\":3252:3289   */\n      swap1\n      pop\n        /* \"#utility.yul\":3344:3348   */\n      0x20\n        /* \"#utility.yul\":3338:3342   */\n      dup2\n        /* \"#utility.yul\":3334:3349   */\n      add\n        /* \"#utility.yul\":3326:3349   */\n      swap1\n      pop\n        /* \"#utility.yul\":3048:3356   */\n      swap2\n      swap1\n      pop\n      jump\t// out\n        /* \"#utility.yul\":3362:3508   */\n    tag_56:\n        /* \"#utility.yul\":3459:3465   */\n      dup3\n        /* \"#utility.yul\":3454:3457   */\n      dup2\n        /* \"#utility.yul\":3449:3452   */\n      dup4\n        /* \"#utility.yul\":3436:3466   */\n      calldatacopy\n        /* \"#utility.yul\":3500:3501   */\n      0x00\n        /* \"#utility.yul\":3491:3497   */\n      dup4\n        /* \"#utility.yul\":3486:3489   */\n      dup4\n        /* \"#utility.yul\":3482:3498   */\n      add\n        /* \"#utility.yul\":3475:3502   */\n      mstore\n        /* \"#utility.yul\":3362:3508   */\n      pop\n      pop\n      pop\n      jump\t// out\n        /* \"#utility.yul\":3514:3939   */\n    tag_57:\n        /* \"#utility.yul\":3592:3597   */\n      0x00\n        /* \"#utility.yul\":3617:3683   */\n      tag_125\n        /* \"#utility.yul\":3633:3682   */\n      tag_126\n        /* \"#utility.yul\":3675:3681   */\n      dup5\n        /* \"#utility.yul\":3633:3682   */\n      tag_55\n      jump\t// in\n    tag_126:\n        /* \"#utility.yul\":3617:3683   */\n      tag_54\n      jump\t// in\n    tag_125:\n        /* \"#utility.yul\":3608:3683   */\n      swap1\n      pop\n        /* \"#utility.yul\":3706:3712   */\n      dup3\n        /* \"#utility.yul\":3699:3704   */\n      dup2\n        /* \"#utility.yul\":3692:3713   */\n      mstore\n        /* \"#utility.yul\":3744:3748   */\n      0x20\n        /* \"#utility.yul\":3737:3742   */\n      dup2\n        /* \"#utility.yul\":3733:3749   */\n      add\n        /* \"#utility.yul\":3782:3785   */\n      dup5\n        /* \"#utility.yul\":3773:3779   */\n      dup5\n        /* \"#utility.yul\":3768:3771   */\n      dup5\n        /* \"#utility.yul\":3764:3780   */\n      add\n        /* \"#utility.yul\":3761:3786   */\n      gt\n        /* \"#utility.yul\":3758:3870   */\n      iszero\n      tag_127\n      jumpi\n        /* \"#utility.yul\":3789:3868   */\n      tag_128\n      tag_51\n      jump\t// in\n    tag_128:\n        /* \"#utility.yul\":3758:3870   */\n    tag_127:\n        /* \"#utility.yul\":3879:3933   */\n      tag_129\n        /* \"#utility.yul\":3926:3932   */\n      dup5\n        /* \"#utility.yul\":3921:3924   */\n      dup3\n        /* \"#utility.yul\":3916:3919   */\n      dup6\n        /* \"#utility.yul\":3879:3933   */\n      tag_56\n      jump\t// in\n    tag_129:\n        /* \"#utility.yul\":3598:3939   */\n      pop\n        /* \"#utility.yul\":3514:3939   */\n      swap4\n      swap3\n      pop\n      pop\n      pop\n      jump\t// out\n        /* \"#utility.yul\":3959:4299   */\n    tag_58:\n        /* \"#utility.yul\":4015:4020   */\n      0x00\n        /* \"#utility.yul\":4064:4067   */\n      dup3\n        /* \"#utility.yul\":4057:4061   */\n      0x1f\n        /* \"#utility.yul\":4049:4055   */\n      dup4\n        /* \"#utility.yul\":4045:4062   */\n      add\n        /* \"#utility.yul\":4041:4068   */\n      slt\n        /* \"#utility.yul\":4031:4153   */\n      tag_131\n      jumpi\n        /* \"#utility.yul\":4072:4151   */\n      tag_132\n      tag_50\n      jump\t// in\n    tag_132:\n        /* \"#utility.yul\":4031:4153   */\n    tag_131:\n        /* \"#utility.yul\":4189:4195   */\n      dup2\n        /* \"#utility.yul\":4176:4196   */\n      calldataload\n        /* \"#utility.yul\":4214:4293   */\n      tag_133\n        /* \"#utility.yul\":4289:4292   */\n      dup5\n        /* \"#utility.yul\":4281:4287   */\n      dup3\n        /* \"#utility.yul\":4274:4278   */\n      0x20\n        /* \"#utility.yul\":4266:4272   */\n      dup7\n        /* \"#utility.yul\":4262:4279   */\n      add\n        /* \"#utility.yul\":4214:4293   */\n      tag_57\n      jump\t// in\n    tag_133:\n        /* \"#utility.yul\":4205:4293   */\n      swap2\n      pop\n        /* \"#utility.yul\":4021:4299   */\n      pop\n        /* \"#utility.yul\":3959:4299   */\n      swap3\n      swap2\n      pop\n      pop\n      jump\t// out\n        /* \"#utility.yul\":4305:4427   */\n    tag_59:\n        /* \"#utility.yul\":4378:4402   */\n      tag_135\n        /* \"#utility.yul\":4396:4401   */\n      dup2\n        /* \"#utility.yul\":4378:4402   */\n      tag_45\n      jump\t// in\n    tag_135:\n        /* \"#utility.yul\":4371:4376   */\n      dup2\n        /* \"#utility.yul\":4368:4403   */\n      eq\n        /* \"#utility.yul\":4358:4421   */\n      tag_136\n      jumpi\n        /* \"#utility.yul\":4417:4418   */\n      0x00\n        /* \"#utility.yul\":4414:4415   */\n      dup1\n        /* \"#utility.yul\":4407:4419   */\n      revert\n        /* \"#utility.yul\":4358:4421   */\n    tag_136:\n        /* \"#utility.yul\":4305:4427   */\n      pop\n      jump\t// out\n        /* \"#utility.yul\":4433:4572   */\n    tag_60:\n        /* \"#utility.yul\":4479:4484   */\n      0x00\n        /* \"#utility.yul\":4517:4523   */\n      dup2\n        /* \"#utility.yul\":4504:4524   */\n      calldataload\n        /* \"#utility.yul\":4495:4524   */\n      swap1\n      pop\n        /* \"#utility.yul\":4533:4566   */\n      tag_138\n        /* \"#utility.yul\":4560:4565   */\n      dup2\n        /* \"#utility.yul\":4533:4566   */\n      tag_59\n      jump\t// in\n    tag_138:\n        /* \"#utility.yul\":4433:4572   */\n      swap3\n      swap2\n      pop\n      pop\n      jump\t// out\n        /* \"#utility.yul\":4578:5557   */\n    tag_11:\n        /* \"#utility.yul\":4675:4681   */\n      0x00\n        /* \"#utility.yul\":4683:4689   */\n      dup1\n        /* \"#utility.yul\":4691:4697   */\n      0x00\n        /* \"#utility.yul\":4740:4742   */\n      0x60\n        /* \"#utility.yul\":4728:4737   */\n      dup5\n        /* \"#utility.yul\":4719:4726   */\n      dup7\n        /* \"#utility.yul\":4715:4738   */\n      sub\n        /* \"#utility.yul\":4711:4743   */\n      slt\n        /* \"#utility.yul\":4708:4827   */\n      iszero\n      tag_140\n      jumpi\n        /* \"#utility.yul\":4746:4825   */\n      tag_141\n      tag_48\n      jump\t// in\n    tag_141:\n        /* \"#utility.yul\":4708:4827   */\n    tag_140:\n        /* \"#utility.yul\":4894:4895   */\n      0x00\n        /* \"#utility.yul\":4883:4892   */\n      dup5\n        /* \"#utility.yul\":4879:4896   */\n      add\n        /* \"#utility.yul\":4866:4897   */\n      calldataload\n        /* \"#utility.yul\":4924:4942   */\n      0xffffffffffffffff\n        /* \"#utility.yul\":4916:4922   */\n      dup2\n        /* \"#utility.yul\":4913:4943   */\n      gt\n        /* \"#utility.yul\":4910:5027   */\n      iszero\n      tag_142\n      jumpi\n        /* \"#utility.yul\":4946:5025   */\n      tag_143\n      tag_49\n      jump\t// in\n    tag_143:\n        /* \"#utility.yul\":4910:5027   */\n    tag_142:\n        /* \"#utility.yul\":5051:5114   */\n      tag_144\n        /* \"#utility.yul\":5106:5113   */\n      dup7\n        /* \"#utility.yul\":5097:5103   */\n      dup3\n        /* \"#utility.yul\":5086:5095   */\n      dup8\n        /* \"#utility.yul\":5082:5104   */\n      add\n        /* \"#utility.yul\":5051:5114   */\n      tag_58\n      jump\t// in\n    tag_144:\n        /* \"#utility.yul\":5041:5114   */\n      swap4\n      pop\n        /* \"#utility.yul\":4837:5124   */\n      pop\n        /* \"#utility.yul\":5163:5165   */\n      0x20\n        /* \"#utility.yul\":5189:5242   */\n      tag_145\n        /* \"#utility.yul\":5234:5241   */\n      dup7\n        /* \"#utility.yul\":5225:5231   */\n      dup3\n        /* \"#utility.yul\":5214:5223   */\n      dup8\n        /* \"#utility.yul\":5210:5232   */\n      add\n        /* \"#utility.yul\":5189:5242   */\n      tag_60\n      jump\t// in\n    tag_145:\n        /* \"#utility.yul\":5179:5242   */\n      swap3\n      pop\n        /* \"#utility.yul\":5134:5252   */\n      pop\n        /* \"#utility.yul\":5319:5321   */\n      0x40\n        /* \"#utility.yul\":5308:5317   */\n      dup5\n        /* \"#utility.yul\":5304:5322   */\n      add\n        /* \"#utility.yul\":5291:5323   */\n      calldataload\n        /* \"#utility.yul\":5350:5368   */\n      0xffffffffffffffff\n        /* \"#utility.yul\":5342:5348   */\n      dup2\n        /* \"#utility.yul\":5339:5369   */\n      gt\n        /* \"#utility.yul\":5336:5453   */\n      iszero\n      tag_146\n      jumpi\n        /* \"#utility.yul\":5372:5451   */\n      tag_147\n      tag_49\n      jump\t// in\n    tag_147:\n        /* \"#utility.yul\":5336:5453   */\n    tag_146:\n        /* \"#utility.yul\":5477:5540   */\n      tag_148\n        /* \"#utility.yul\":5532:5539   */\n      dup7\n        /* \"#utility.yul\":5523:5529   */\n      dup3\n        /* \"#utility.yul\":5512:5521   */\n      dup8\n        /* \"#utility.yul\":5508:5530   */\n      add\n        /* \"#utility.yul\":5477:5540   */\n      tag_58\n      jump\t// in\n    tag_148:\n        /* \"#utility.yul\":5467:5540   */\n      swap2\n      pop\n        /* \"#utility.yul\":5262:5550   */\n      pop\n        /* \"#utility.yul\":4578:5557   */\n      swap3\n      pop\n      swap3\n      pop\n      swap3\n      jump\t// out\n        /* \"#utility.yul\":5563:5743   */\n    tag_61:\n        /* \"#utility.yul\":5611:5688   */\n      0x4e487b7100000000000000000000000000000000000000000000000000000000\n        /* \"#utility.yul\":5608:5609   */\n      0x00\n        /* \"#utility.yul\":5601:5689   */\n      mstore\n        /* \"#utility.yul\":5708:5712   */\n      0x22\n        /* \"#utility.yul\":5705:5706   */\n      0x04\n        /* \"#utility.yul\":5698:5713   */\n      mstore\n        /* \"#utility.yul\":5732:5736   */\n      0x24\n        /* \"#utility.yul\":5729:5730   */\n      0x00\n        /* \"#utility.yul\":5722:5737   */\n      revert\n        /* \"#utility.yul\":5749:6069   */\n    tag_14:\n        /* \"#utility.yul\":5793:5799   */\n      0x00\n        /* \"#utility.yul\":5830:5831   */\n      0x02\n        /* \"#utility.yul\":5824:5828   */\n      dup3\n        /* \"#utility.yul\":5820:5832   */\n      div\n        /* \"#utility.yul\":5810:5832   */\n      swap1\n      pop\n        /* \"#utility.yul\":5877:5878   */\n      0x01\n        /* \"#utility.yul\":5871:5875   */\n      dup3\n        /* \"#utility.yul\":5867:5879   */\n      and\n        /* \"#utility.yul\":5898:5916   */\n      dup1\n        /* \"#utility.yul\":5888:5969   */\n      tag_151\n      jumpi\n        /* \"#utility.yul\":5954:5958   */\n      0x7f\n        /* \"#utility.yul\":5946:5952   */\n      dup3\n        /* \"#utility.yul\":5942:5959   */\n      and\n        /* \"#utility.yul\":5932:5959   */\n      swap2\n      pop\n        /* \"#utility.yul\":5888:5969   */\n    tag_151:\n        /* \"#utility.yul\":6016:6018   */\n      0x20\n        /* \"#utility.yul\":6008:6014   */\n      dup3\n        /* \"#utility.yul\":6005:6019   */\n      lt\n        /* \"#utility.yul\":5985:6003   */\n      dup2\n        /* \"#utility.yul\":5982:6020   */\n      sub\n        /* \"#utility.yul\":5979:6063   */\n      tag_152\n      jumpi\n        /* \"#utility.yul\":6035:6053   */\n      tag_153\n      tag_61\n      jump\t// in\n    tag_153:\n        /* \"#utility.yul\":5979:6063   */\n    tag_152:\n        /* \"#utility.yul\":5800:6069   */\n      pop\n        /* \"#utility.yul\":5749:6069   */\n      swap2\n      swap1\n      pop\n      jump\t// out\n        /* \"#utility.yul\":6075:6216   */\n    tag_62:\n        /* \"#utility.yul\":6124:6128   */\n      0x00\n        /* \"#utility.yul\":6147:6150   */\n      dup2\n        /* \"#utility.yul\":6139:6150   */\n      swap1\n      pop\n        /* \"#utility.yul\":6170:6173   */\n      dup2\n        /* \"#utility.yul\":6167:6168   */\n      0x00\n        /* \"#utility.yul\":6160:6174   */\n      mstore\n        /* \"#utility.yul\":6204:6208   */\n      0x20\n        /* \"#utility.yul\":6201:6202   */\n      0x00\n        /* \"#utility.yul\":6191:6209   */\n      keccak256\n        /* \"#utility.yul\":6183:6209   */\n      swap1\n      pop\n        /* \"#utility.yul\":6075:6216   */\n      swap2\n      swap1\n      pop\n      jump\t// out\n        /* \"#utility.yul\":6222:6315   */\n    tag_63:\n        /* \"#utility.yul\":6259:6265   */\n      0x00\n        /* \"#utility.yul\":6306:6308   */\n      0x20\n        /* \"#utility.yul\":6301:6303   */\n      0x1f\n        /* \"#utility.yul\":6294:6299   */\n      dup4\n        /* \"#utility.yul\":6290:6304   */\n      add\n        /* \"#utility.yul\":6286:6309   */\n      div\n        /* \"#utility.yul\":6276:6309   */\n      swap1\n      pop\n        /* \"#utility.yul\":6222:6315   */\n      swap2\n      swap1\n      pop\n      jump\t// out\n        /* \"#utility.yul\":6321:6428   */\n    tag_64:\n        /* \"#utility.yul\":6365:6373   */\n      0x00\n        /* \"#utility.yul\":6415:6420   */\n      dup3\n        /* \"#utility.yul\":6409:6413   */\n      dup3\n        /* \"#utility.yul\":6405:6421   */\n      shl\n        /* \"#utility.yul\":6384:6421   */\n      swap1\n      pop\n        /* \"#utility.yul\":6321:6428   */\n      swap3\n      swap2\n      pop\n      pop\n      jump\t// out\n        /* \"#utility.yul\":6434:6827   */\n    tag_65:\n        /* \"#utility.yul\":6503:6509   */\n      0x00\n        /* \"#utility.yul\":6553:6554   */\n      0x08\n        /* \"#utility.yul\":6541:6551   */\n      dup4\n        /* \"#utility.yul\":6537:6555   */\n      mul\n        /* \"#utility.yul\":6576:6673   */\n      tag_158\n        /* \"#utility.yul\":6606:6672   */\n      0xffffffffffffffffffffffffffffffffffffffffffffffffffffffffffffffff\n        /* \"#utility.yul\":6595:6604   */\n      dup3\n        /* \"#utility.yul\":6576:6673   */\n      tag_64\n      jump\t// in\n    tag_158:\n        /* \"#utility.yul\":6694:6733   */\n      tag_159\n        /* \"#utility.yul\":6724:6732   */\n      dup7\n        /* \"#utility.yul\":6713:6722   */\n      dup4\n        /* \"#utility.yul\":6694:6733   */\n      tag_64\n      jump\t// in\n    tag_159:\n        /* \"#utility.yul\":6682:6733   */\n      swap6\n      pop\n        /* \"#utility.yul\":6766:6770   */\n      dup1\n        /* \"#utility.yul\":6762:6771   */\n      not\n        /* \"#utility.yul\":6755:6760   */\n      dup5\n        /* \"#utility.yul\":6751:6772   */\n      and\n        /* \"#utility.yul\":6742:6772   */\n      swap4\n      pop\n        /* \"#utility.yul\":6815:6819   */\n      dup1\n        /* \"#utility.yul\":6805:6813   */\n      dup7\n        /* \"#utility.yul\":6801:6820   */\n      and\n        /* \"#utility.yul\":6794:6799   */\n      dup5\n        /* \"#utility.yul\":6791:6821   */\n      or\n        /* \"#utility.yul\":6781:6821   */\n      swap3\n      pop\n        /* \"#utility.yul\":6510:6827   */\n      pop\n      pop\n        /* \"#utility.yul\":6434:6827   */\n      swap4\n      swap3\n      pop\n      pop\n      pop\n      jump\t// out\n        /* \"#utility.yul\":6833:6893   */\n    tag_66:\n        /* \"#utility.yul\":6861:6864   */\n      0x00\n        /* \"#utility.yul\":6882:6887   */\n      dup2\n        /* \"#utility.yul\":6875:6887   */\n      swap1\n      pop\n        /* \"#utility.yul\":6833:6893   */\n      swap2\n      swap1\n      pop\n      jump\t// out\n        /* \"#utility.yul\":6899:7041   */\n    tag_67:\n        /* \"#utility.yul\":6949:6958   */\n      0x00\n        /* \"#utility.yul\":6982:7035   */\n      tag_162\n        /* \"#utility.yul\":7000:7034   */\n      tag_163\n        /* \"#utility.yul\":7009:7033   */\n      tag_164\n        /* \"#utility.yul\":7027:7032   */\n      dup5\n        /* \"#utility.yul\":7009:7033   */\n      tag_45\n      jump\t// in\n    tag_164:\n        /* \"#utility.yul\":7000:7034   */\n      tag_66\n      jump\t// in\n    tag_163:\n        /* \"#utility.yul\":6982:7035   */\n      tag_45\n      jump\t// in\n    tag_162:\n        /* \"#utility.yul\":6969:7035   */\n      swap1\n      pop\n        /* \"#utility.yul\":6899:7041   */\n      swap2\n      swap1\n      pop\n      jump\t// out\n        /* \"#utility.yul\":7047:7122   */\n    tag_68:\n        /* \"#utility.yul\":7090:7093   */\n      0x00\n        /* \"#utility.yul\":7111:7116   */\n      dup2\n        /* \"#utility.yul\":7104:7116   */\n      swap1\n      pop\n        /* \"#utility.yul\":7047:7122   */\n      swap2\n      swap1\n      pop\n      jump\t// out\n        /* \"#utility.yul\":7128:7397   */\n    tag_69:\n        /* \"#utility.yul\":7238:7277   */\n      tag_167\n        /* \"#utility.yul\":7269:7276   */\n      dup4\n        /* \"#utility.yul\":7238:7277   */\n      tag_67\n      jump\t// in\n    tag_167:\n        /* \"#utility.yul\":7299:7390   */\n      tag_168\n        /* \"#utility.yul\":7348:7389   */\n      tag_169\n        /* \"#utility.yul\":7372:7388   */\n      dup3\n        /* \"#utility.yul\":7348:7389   */\n      tag_68\n      jump\t// in\n    tag_169:\n        /* \"#utility.yul\":7340:7346   */\n      dup5\n        /* \"#utility.yul\":7333:7337   */\n      dup5\n        /* \"#utility.yul\":7327:7338   */\n      sload\n        /* \"#utility.yul\":7299:7390   */\n      tag_65\n      jump\t// in\n    tag_168:\n        /* \"#utility.yul\":7293:7297   */\n      dup3\n        /* \"#utility.yul\":7286:7391   */\n      sstore\n        /* \"#utility.yul\":7204:7397   */\n      pop\n        /* \"#utility.yul\":7128:7397   */\n      pop\n      pop\n      pop\n      jump\t// out\n        /* \"#utility.yul\":7403:7476   */\n    tag_70:\n        /* \"#utility.yul\":7448:7451   */\n      0x00\n        /* \"#utility.yul\":7403:7476   */\n      swap1\n      jump\t// out\n        /* \"#utility.yul\":7482:7671   */\n    tag_71:\n        /* \"#utility.yul\":7559:7591   */\n      tag_172\n      tag_70\n      jump\t// in\n    tag_172:\n        /* \"#utility.yul\":7600:7665   */\n      tag_173\n        /* \"#utility.yul\":7658:7664   */\n      dup2\n        /* \"#utility.yul\":7650:7656   */\n      dup5\n        /* \"#utility.yul\":7644:7648   */\n      dup5\n        /* \"#utility.yul\":7600:7665   */\n      tag_69\n      jump\t// in\n    tag_173:\n        /* \"#utility.yul\":7535:7671   */\n      pop\n        /* \"#utility.yul\":7482:7671   */\n      pop\n      pop\n      jump\t// out\n        /* \"#utility.yul\":7677:7863   */\n    tag_72:\n        /* \"#utility.yul\":7737:7857   */\n    tag_175:\n        /* \"#utility.yul\":7754:7757   */\n      dup2\n        /* \"#utility.yul\":7747:7752   */\n      dup2\n        /* \"#utility.yul\":7744:7758   */\n      lt\n        /* \"#utility.yul\":7737:7857   */\n      iszero\n      tag_177\n      jumpi\n        /* \"#utility.yul\":7808:7847   */\n      tag_178\n        /* \"#utility.yul\":7845:7846   */\n      0x00\n        /* \"#utility.yul\":7838:7843   */\n      dup3\n        /* \"#utility.yul\":7808:7847   */\n      tag_71\n      jump\t// in\n    tag_178:\n        /* \"#utility.yul\":7781:7782   */\n      0x01\n        /* \"#utility.yul\":7774:7779   */\n      dup2\n        /* \"#utility.yul\":7770:7783   */\n      add\n        /* \"#utility.yul\":7761:7783   */\n      swap1\n      pop\n        /* \"#utility.yul\":7737:7857   */\n      jump(tag_175)\n    tag_177:\n        /* \"#utility.yul\":7677:7863   */\n      pop\n      pop\n      jump\t// out\n        /* \"#utility.yul\":7869:8412   */\n    tag_73:\n        /* \"#utility.yul\":7970:7972   */\n      0x1f\n        /* \"#utility.yul\":7965:7968   */\n      dup3\n        /* \"#utility.yul\":7962:7973   */\n      gt\n        /* \"#utility.yul\":7959:8405   */\n      iszero\n      tag_180\n      jumpi\n        /* \"#utility.yul\":8004:8042   */\n      tag_181\n        /* \"#utility.yul\":8036:8041   */\n      dup2\n        /* \"#utility.yul\":8004:8042   */\n      tag_62\n      jump\t// in\n    tag_181:\n        /* \"#utility.yul\":8088:8117   */\n      tag_182\n        /* \"#utility.yul\":8106:8116   */\n      dup5\n        /* \"#utility.yul\":8088:8117   */\n      tag_63\n      jump\t// in\n    tag_182:\n        /* \"#utility.yul\":8078:8086   */\n      dup2\n        /* \"#utility.yul\":8074:8118   */\n      add\n        /* \"#utility.yul\":8271:8273   */\n      0x20\n        /* \"#utility.yul\":8259:8269   */\n      dup6\n        /* \"#utility.yul\":8256:8274   */\n      lt\n        /* \"#utility.yul\":8253:8302   */\n      iszero\n      tag_183\n      jumpi\n        /* \"#utility.yul\":8292:8300   */\n      dup2\n        /* \"#utility.yul\":8277:8300   */\n      swap1\n      pop\n        /* \"#utility.yul\":8253:8302   */\n    tag_183:\n        /* \"#utility.yul\":8315:8395   */\n      tag_184\n        /* \"#utility.yul\":8371:8393   */\n      tag_185\n        /* \"#utility.yul\":8389:8392   */\n      dup6\n        /* \"#utility.yul\":8371:8393   */\n      tag_63\n      jump\t// in\n    tag_185:\n        /* \"#utility.yul\":8361:8369   */\n      dup4\n        /* \"#utility.yul\":8357:8394   */\n      add\n        /* \"#utility.yul\":8344:8355   */\n      dup3\n        /* \"#utility.yul\":8315:8395   */\n      tag_72\n      jump\t// in\n    tag_184:\n        /* \"#utility.yul\":7974:8405   */\n      pop\n      pop\n        /* \"#utility.yul\":7959:8405   */\n    tag_180:\n        /* \"#utility.yul\":7869:8412   */\n      pop\n      pop\n      pop\n      jump\t// out\n        /* \"#utility.yul\":8418:8535   */\n    tag_74:\n        /* \"#utility.yul\":8472:8480   */\n      0x00\n        /* \"#utility.yul\":8522:8527   */\n      dup3\n        /* \"#utility.yul\":8516:8520   */\n      dup3\n        /* \"#utility.yul\":8512:8528   */\n      shr\n        /* \"#utility.yul\":8491:8528   */\n      swap1\n      pop\n        /* \"#utility.yul\":8418:8535   */\n      swap3\n      swap2\n      pop\n      pop\n      jump\t// out\n        /* \"#utility.yul\":8541:8710   */\n    tag_75:\n        /* \"#utility.yul\":8585:8591   */\n      0x00\n        /* \"#utility.yul\":8618:8669   */\n      tag_188\n        /* \"#utility.yul\":8666:8667   */\n      0x00\n        /* \"#utility.yul\":8662:8668   */\n      not\n        /* \"#utility.yul\":8654:8659   */\n      dup5\n        /* \"#utility.yul\":8651:8652   */\n      0x08\n        /* \"#utility.yul\":8647:8660   */\n      mul\n        /* \"#utility.yul\":8618:8669   */\n      tag_74\n      jump\t// in\n    tag_188:\n        /* \"#utility.yul\":8614:8670   */\n      not\n        /* \"#utility.yul\":8699:8703   */\n      dup1\n        /* \"#utility.yul\":8693:8697   */\n      dup4\n        /* \"#utility.yul\":8689:8704   */\n      and\n        /* \"#utility.yul\":8679:8704   */\n      swap2\n      pop\n        /* \"#utility.yul\":8592:8710   */\n      pop\n        /* \"#utility.yul\":8541:8710   */\n      swap3\n      swap2\n      pop\n      pop\n      jump\t// out\n        /* \"#utility.yul\":8715:9010   */\n    tag_76:\n        /* \"#utility.yul\":8791:8795   */\n      0x00\n        /* \"#utility.yul\":8937:8966   */\n      tag_190\n        /* \"#utility.yul\":8962:8965   */\n      dup4\n        /* \"#utility.yul\":8956:8960   */\n      dup4\n        /* \"#utility.yul\":8937:8966   */\n      tag_75\n      jump\t// in\n    tag_190:\n        /* \"#utility.yul\":8929:8966   */\n      swap2\n      pop\n        /* \"#utility.yul\":8999:9002   */\n      dup3\n        /* \"#utility.yul\":8996:8997   */\n      0x02\n        /* \"#utility.yul\":8992:9003   */\n      mul\n        /* \"#utility.yul\":8986:8990   */\n      dup3\n        /* \"#utility.yul\":8983:9004   */\n      or\n        /* \"#utility.yul\":8975:9004   */\n      swap1\n      pop\n        /* \"#utility.yul\":8715:9010   */\n      swap3\n      swap2\n      pop\n      pop\n      jump\t// out\n        /* \"#utility.yul\":9015:10410   */\n    tag_36:\n        /* \"#utility.yul\":9132:9169   */\n      tag_192\n        /* \"#utility.yul\":9165:9168   */\n      dup3\n        /* \"#utility.yul\":9132:9169   */\n      tag_40\n      jump\t// in\n    tag_192:\n        /* \"#utility.yul\":9234:9252   */\n      0xffffffffffffffff\n        /* \"#utility.yul\":9226:9232   */\n      dup2\n        /* \"#utility.yul\":9223:9253   */\n      gt\n        /* \"#utility.yul\":9220:9276   */\n      iszero\n      tag_193\n      jumpi\n        /* \"#utility.yul\":9256:9274   */\n      tag_194\n      tag_52\n      jump\t// in\n    tag_194:\n        /* \"#utility.yul\":9220:9276   */\n    tag_193:\n        /* \"#utility.yul\":9300:9338   */\n      tag_195\n        /* \"#utility.yul\":9332:9336   */\n      dup3\n        /* \"#utility.yul\":9326:9337   */\n      sload\n        /* \"#utility.yul\":9300:9338   */\n      tag_14\n      jump\t// in\n    tag_195:\n        /* \"#utility.yul\":9385:9452   */\n      tag_196\n        /* \"#utility.yul\":9445:9451   */\n      dup3\n        /* \"#utility.yul\":9437:9443   */\n      dup3\n        /* \"#utility.yul\":9431:9435   */\n      dup6\n        /* \"#utility.yul\":9385:9452   */\n      tag_73\n      jump\t// in\n    tag_196:\n        /* \"#utility.yul\":9479:9480   */\n      0x00\n        /* \"#utility.yul\":9503:9507   */\n      0x20\n        /* \"#utility.yul\":9490:9507   */\n      swap1\n      pop\n        /* \"#utility.yul\":9535:9537   */\n      0x1f\n        /* \"#utility.yul\":9527:9533   */\n      dup4\n        /* \"#utility.yul\":9524:9538   */\n      gt\n        /* \"#utility.yul\":9552:9553   */\n      0x01\n        /* \"#utility.yul\":9547:10165   */\n      dup2\n      eq\n      tag_198\n      jumpi\n        /* \"#utility.yul\":10209:10210   */\n      0x00\n        /* \"#utility.yul\":10226:10232   */\n      dup5\n        /* \"#utility.yul\":10223:10300   */\n      iszero\n      tag_199\n      jumpi\n        /* \"#utility.yul\":10275:10284   */\n      dup3\n        /* \"#utility.yul\":10270:10273   */\n      dup8\n        /* \"#utility.yul\":10266:10285   */\n      add\n        /* \"#utility.yul\":10260:10286   */\n      mload\n        /* \"#utility.yul\":10251:10286   */\n      swap1\n      pop\n        /* \"#utility.yul\":10223:10300   */\n    tag_199:\n        /* \"#utility.yul\":10326:10393   */\n      tag_200\n        /* \"#utility.yul\":10386:10392   */\n      dup6\n        /* \"#utility.yul\":10379:10384   */\n      dup3\n        /* \"#utility.yul\":10326:10393   */\n      tag_76\n      jump\t// in\n    tag_200:\n        /* \"#utility.yul\":10320:10324   */\n      dup7\n        /* \"#utility.yul\":10313:10394   */\n      sstore\n        /* \"#utility.yul\":10182:10404   */\n      pop\n        /* \"#utility.yul\":9517:10404   */\n      jump(tag_197)\n        /* \"#utility.yul\":9547:10165   */\n    tag_198:\n        /* \"#utility.yul\":9599:9603   */\n      0x1f\n        /* \"#utility.yul\":9595:9604   */\n      not\n        /* \"#utility.yul\":9587:9593   */\n      dup5\n        /* \"#utility.yul\":9583:9605   */\n      and\n        /* \"#utility.yul\":9633:9670   */\n      tag_201\n        /* \"#utility.yul\":9665:9669   */\n      dup7\n        /* \"#utility.yul\":9633:9670   */\n      tag_62\n      jump\t// in\n    tag_201:\n        /* \"#utility.yul\":9692:9693   */\n      0x00\n        /* \"#utility.yul\":9706:9914   */\n    tag_202:\n        /* \"#utility.yul\":9720:9727   */\n      dup3\n        /* \"#utility.yul\":9717:9718   */\n      dup2\n        /* \"#utility.yul\":9714:9728   */\n      lt\n        /* \"#utility.yul\":9706:9914   */\n      iszero\n      tag_204\n      jumpi\n        /* \"#utility.yul\":9799:9808   */\n      dup5\n        /* \"#utility.yul\":9794:9797   */\n      dup10\n        /* \"#utility.yul\":9790:9809   */\n      add\n        /* \"#utility.yul\":9784:9810   */\n      mload\n        /* \"#utility.yul\":9776:9782   */\n      dup3\n        /* \"#utility.yul\":9769:9811   */\n      sstore\n        /* \"#utility.yul\":9850:9851   */\n      0x01\n        /* \"#utility.yul\":9842:9848   */\n      dup3\n        /* \"#utility.yul\":9838:9852   */\n      add\n        /* \"#utility.yul\":9828:9852   */\n      swap2\n      pop\n        /* \"#utility.yul\":9897:9899   */\n      0x20\n        /* \"#utility.yul\":9886:9895   */\n      dup6\n        /* \"#utility.yul\":9882:9900   */\n      add\n        /* \"#utility.yul\":9869:9900   */\n      swap5\n      pop\n        /* \"#utility.yul\":9743:9747   */\n      0x20\n        /* \"#utility.yul\":9740:9741   */\n      dup2\n        /* \"#utility.yul\":9736:9748   */\n      add\n        /* \"#utility.yul\":9731:9748   */\n      swap1\n      pop\n        /* \"#utility.yul\":9706:9914   */\n      jump(tag_202)\n    tag_204:\n        /* \"#utility.yul\":9942:9948   */\n      dup7\n        /* \"#utility.yul\":9933:9940   */\n      dup4\n        /* \"#utility.yul\":9930:9949   */\n      lt\n        /* \"#utility.yul\":9927:10106   */\n      iszero\n      tag_205\n      jumpi\n        /* \"#utility.yul\":10000:10009   */\n      dup5\n        /* \"#utility.yul\":9995:9998   */\n      dup10\n        /* \"#utility.yul\":9991:10010   */\n      add\n        /* \"#utility.yul\":9985:10011   */\n      mload\n        /* \"#utility.yul\":10043:10091   */\n      tag_206\n        /* \"#utility.yul\":10085:10089   */\n      0x1f\n        /* \"#utility.yul\":10077:10083   */\n      dup10\n        /* \"#utility.yul\":10073:10090   */\n      and\n        /* \"#utility.yul\":10062:10071   */\n      dup3\n        /* \"#utility.yul\":10043:10091   */\n      tag_75\n      jump\t// in\n    tag_206:\n        /* \"#utility.yul\":10035:10041   */\n      dup4\n        /* \"#utility.yul\":10028:10092   */\n      sstore\n        /* \"#utility.yul\":9950:10106   */\n      pop\n        /* \"#utility.yul\":9927:10106   */\n    tag_205:\n        /* \"#utility.yul\":10152:10153   */\n      0x01\n        /* \"#utility.yul\":10148:10149   */\n      0x02\n        /* \"#utility.yul\":10140:10146   */\n      dup9\n        /* \"#utility.yul\":10136:10150   */\n      mul\n        /* \"#utility.yul\":10132:10154   */\n      add\n        /* \"#utility.yul\":10126:10130   */\n      dup9\n        /* \"#utility.yul\":10119:10155   */\n      sstore\n        /* \"#utility.yul\":9554:10165   */\n      pop\n      pop\n      pop\n        /* \"#utility.yul\":9517:10404   */\n    tag_197:\n      pop\n        /* \"#utility.yul\":9107:10410   */\n      pop\n      pop\n      pop\n        /* \"#utility.yul\":9015:10410   */\n      pop\n      pop\n      jump\t// out\n        /* \"#utility.yul\":10416:10575   */\n    tag_77:\n        /* \"#utility.yul\":10490:10501   */\n      0x00\n        /* \"#utility.yul\":10524:10530   */\n      dup3\n        /* \"#utility.yul\":10519:10522   */\n      dup3\n        /* \"#utility.yul\":10512:10531   */\n      mstore\n        /* \"#utility.yul\":10564:10568   */\n      0x20\n        /* \"#utility.yul\":10559:10562   */\n      dup3\n        /* \"#utility.yul\":10555:10569   */\n      add\n        /* \"#utility.yul\":10540:10569   */\n      swap1\n      pop\n        /* \"#utility.yul\":10416:10575   */\n      swap3\n      swap2\n      pop\n      pop\n      jump\t// out\n        /* \"#utility.yul\":10581:10938   */\n    tag_78:\n        /* \"#utility.yul\":10659:10662   */\n      0x00\n        /* \"#utility.yul\":10687:10726   */\n      tag_209\n        /* \"#utility.yul\":10720:10725   */\n      dup3\n        /* \"#utility.yul\":10687:10726   */\n      tag_40\n      jump\t// in\n    tag_209:\n        /* \"#utility.yul\":10742:10803   */\n      tag_210\n        /* \"#utility.yul\":10796:10802   */\n      dup2\n        /* \"#utility.yul\":10791:10794   */\n      dup6\n        /* \"#utility.yul\":10742:10803   */\n      tag_77\n      jump\t// in\n    tag_210:\n        /* \"#utility.yul\":10735:10803   */\n      swap4\n      pop\n        /* \"#utility.yul\":10812:10877   */\n      tag_211\n        /* \"#utility.yul\":10870:10876   */\n      dup2\n        /* \"#utility.yul\":10865:10868   */\n      dup6\n        /* \"#utility.yul\":10858:10862   */\n      0x20\n        /* \"#utility.yul\":10851:10856   */\n      dup7\n        /* \"#utility.yul\":10847:10863   */\n      add\n        /* \"#utility.yul\":10812:10877   */\n      tag_42\n      jump\t// in\n    tag_211:\n        /* \"#utility.yul\":10902:10931   */\n      tag_212\n        /* \"#utility.yul\":10924:10930   */\n      dup2\n        /* \"#utility.yul\":10902:10931   */\n      tag_43\n      jump\t// in\n    tag_212:\n        /* \"#utility.yul\":10897:10900   */\n      dup5\n        /* \"#utility.yul\":10893:10932   */\n      add\n        /* \"#utility.yul\":10886:10932   */\n      swap2\n      pop\n        /* \"#utility.yul\":10663:10938   */\n      pop\n        /* \"#utility.yul\":10581:10938   */\n      swap3\n      swap2\n      pop\n      pop\n      jump\t// out\n        /* \"#utility.yul\":10944:11052   */\n    tag_79:\n        /* \"#utility.yul\":11021:11045   */\n      tag_214\n        /* \"#utility.yul\":11039:11044   */\n      dup2\n        /* \"#utility.yul\":11021:11045   */\n      tag_45\n      jump\t// in\n    tag_214:\n        /* \"#utility.yul\":11016:11019   */\n      dup3\n        /* \"#utility.yul\":11009:11046   */\n      mstore\n        /* \"#utility.yul\":10944:11052   */\n      pop\n      pop\n      jump\t// out\n        /* \"#utility.yul\":11120:11976   */\n    tag_80:\n        /* \"#utility.yul\":11239:11242   */\n      0x00\n        /* \"#utility.yul\":11275:11279   */\n      0x60\n        /* \"#utility.yul\":11270:11273   */\n      dup4\n        /* \"#utility.yul\":11266:11280   */\n      add\n        /* \"#utility.yul\":11362:11366   */\n      0x00\n        /* \"#utility.yul\":11355:11360   */\n      dup4\n        /* \"#utility.yul\":11351:11367   */\n      add\n        /* \"#utility.yul\":11345:11368   */\n      mload\n        /* \"#utility.yul\":11415:11418   */\n      dup5\n        /* \"#utility.yul\":11409:11413   */\n      dup3\n        /* \"#utility.yul\":11405:11419   */\n      sub\n        /* \"#utility.yul\":11398:11402   */\n      0x00\n        /* \"#utility.yul\":11393:11396   */\n      dup7\n        /* \"#utility.yul\":11389:11403   */\n      add\n        /* \"#utility.yul\":11382:11420   */\n      mstore\n        /* \"#utility.yul\":11441:11514   */\n      tag_216\n        /* \"#utility.yul\":11509:11513   */\n      dup3\n        /* \"#utility.yul\":11495:11507   */\n      dup3\n        /* \"#utility.yul\":11441:11514   */\n      tag_78\n      jump\t// in\n    tag_216:\n        /* \"#utility.yul\":11433:11514   */\n      swap2\n      pop\n        /* \"#utility.yul\":11290:11525   */\n      pop\n        /* \"#utility.yul\":11606:11610   */\n      0x20\n        /* \"#utility.yul\":11599:11604   */\n      dup4\n        /* \"#utility.yul\":11595:11611   */\n      add\n        /* \"#utility.yul\":11589:11612   */\n      mload\n        /* \"#utility.yul\":11625:11688   */\n      tag_217\n        /* \"#utility.yul\":11682:11686   */\n      0x20\n        /* \"#utility.yul\":11677:11680   */\n      dup7\n        /* \"#utility.yul\":11673:11687   */\n      add\n        /* \"#utility.yul\":11659:11671   */\n      dup3\n        /* \"#utility.yul\":11625:11688   */\n      tag_79\n      jump\t// in\n    tag_217:\n        /* \"#utility.yul\":11535:11698   */\n      pop\n        /* \"#utility.yul\":11786:11790   */\n      0x40\n        /* \"#utility.yul\":11779:11784   */\n      dup4\n        /* \"#utility.yul\":11775:11791   */\n      add\n        /* \"#utility.yul\":11769:11792   */\n      mload\n        /* \"#utility.yul\":11839:11842   */\n      dup5\n        /* \"#utility.yul\":11833:11837   */\n      dup3\n        /* \"#utility.yul\":11829:11843   */\n      sub\n        /* \"#utility.yul\":11822:11826   */\n      0x40\n        /* \"#utility.yul\":11817:11820   */\n      dup7\n        /* \"#utility.yul\":11813:11827   */\n      add\n        /* \"#utility.yul\":11806:11844   */\n      mstore\n        /* \"#utility.yul\":11865:11938   */\n      tag_218\n        /* \"#utility.yul\":11933:11937   */\n      dup3\n        /* \"#utility.yul\":11919:11931   */\n      dup3\n        /* \"#utility.yul\":11865:11938   */\n      tag_78\n      jump\t// in\n    tag_218:\n        /* \"#utility.yul\":11857:11938   */\n      swap2\n      pop\n        /* \"#utility.yul\":11708:11949   */\n      pop\n        /* \"#utility.yul\":11966:11970   */\n      dup1\n        /* \"#utility.yul\":11959:11970   */\n      swap2\n      pop\n        /* \"#utility.yul\":11244:11976   */\n      pop\n        /* \"#utility.yul\":11120:11976   */\n      swap3\n      swap2\n      pop\n      pop\n      jump\t// out\n        /* \"#utility.yul\":12006:12817   */\n    tag_81:\n        /* \"#utility.yul\":12081:12084   */\n      0x00\n        /* \"#utility.yul\":12118:12123   */\n      dup2\n        /* \"#utility.yul\":12112:12124   */\n      sload\n        /* \"#utility.yul\":12147:12183   */\n      tag_220\n        /* \"#utility.yul\":12173:12182   */\n      dup2\n        /* \"#utility.yul\":12147:12183   */\n      tag_14\n      jump\t// in\n    tag_220:\n        /* \"#utility.yul\":12199:12260   */\n      tag_221\n        /* \"#utility.yul\":12253:12259   */\n      dup2\n        /* \"#utility.yul\":12248:12251   */\n      dup7\n        /* \"#utility.yul\":12199:12260   */\n      tag_77\n      jump\t// in\n    tag_221:\n        /* \"#utility.yul\":12192:12260   */\n      swap5\n      pop\n        /* \"#utility.yul\":12291:12292   */\n      0x01\n        /* \"#utility.yul\":12280:12289   */\n      dup3\n        /* \"#utility.yul\":12276:12293   */\n      and\n        /* \"#utility.yul\":12307:12308   */\n      0x00\n        /* \"#utility.yul\":12302:12466   */\n      dup2\n      eq\n      tag_223\n      jumpi\n        /* \"#utility.yul\":12480:12481   */\n      0x01\n        /* \"#utility.yul\":12475:12811   */\n      dup2\n      eq\n      tag_224\n      jumpi\n        /* \"#utility.yul\":12269:12811   */\n      jump(tag_222)\n        /* \"#utility.yul\":12302:12466   */\n    tag_223:\n        /* \"#utility.yul\":12386:12390   */\n      0xff\n        /* \"#utility.yul\":12382:12391   */\n      not\n        /* \"#utility.yul\":12371:12380   */\n      dup4\n        /* \"#utility.yul\":12367:12392   */\n      and\n        /* \"#utility.yul\":12362:12365   */\n      dup7\n        /* \"#utility.yul\":12355:12393   */\n      mstore\n        /* \"#utility.yul\":12446:12452   */\n      dup2\n        /* \"#utility.yul\":12439:12453   */\n      iszero\n        /* \"#utility.yul\":12432:12454   */\n      iszero\n        /* \"#utility.yul\":12426:12430   */\n      0x20\n        /* \"#utility.yul\":12422:12455   */\n      mul\n        /* \"#utility.yul\":12417:12420   */\n      dup7\n        /* \"#utility.yul\":12413:12456   */\n      add\n        /* \"#utility.yul\":12406:12456   */\n      swap4\n      pop\n        /* \"#utility.yul\":12302:12466   */\n      jump(tag_222)\n        /* \"#utility.yul\":12475:12811   */\n    tag_224:\n        /* \"#utility.yul\":12542:12580   */\n      tag_225\n        /* \"#utility.yul\":12574:12579   */\n      dup6\n        /* \"#utility.yul\":12542:12580   */\n      tag_62\n      jump\t// in\n    tag_225:\n        /* \"#utility.yul\":12602:12603   */\n      0x00\n        /* \"#utility.yul\":12616:12770   */\n    tag_226:\n        /* \"#utility.yul\":12630:12636   */\n      dup4\n        /* \"#utility.yul\":12627:12628   */\n      dup2\n        /* \"#utility.yul\":12624:12637   */\n      lt\n        /* \"#utility.yul\":12616:12770   */\n      iszero\n      tag_228\n      jumpi\n        /* \"#utility.yul\":12704:12711   */\n      dup2\n        /* \"#utility.yul\":12698:12712   */\n      sload\n        /* \"#utility.yul\":12694:12695   */\n      dup2\n        /* \"#utility.yul\":12689:12692   */\n      dup10\n        /* \"#utility.yul\":12685:12696   */\n      add\n        /* \"#utility.yul\":12678:12713   */\n      mstore\n        /* \"#utility.yul\":12754:12755   */\n      0x01\n        /* \"#utility.yul\":12745:12752   */\n      dup3\n        /* \"#utility.yul\":12741:12756   */\n      add\n        /* \"#utility.yul\":12730:12756   */\n      swap2\n      pop\n        /* \"#utility.yul\":12652:12656   */\n      0x20\n        /* \"#utility.yul\":12649:12650   */\n      dup2\n        /* \"#utility.yul\":12645:12657   */\n      add\n        /* \"#utility.yul\":12640:12657   */\n      swap1\n      pop\n        /* \"#utility.yul\":12616:12770   */\n      jump(tag_226)\n    tag_228:\n        /* \"#utility.yul\":12799:12800   */\n      dup1\n        /* \"#utility.yul\":12794:12797   */\n      dup9\n        /* \"#utility.yul\":12790:12801   */\n      add\n        /* \"#utility.yul\":12783:12801   */\n      swap6\n      pop\n        /* \"#utility.yul\":12482:12811   */\n      pop\n      pop\n        /* \"#utility.yul\":12269:12811   */\n    tag_222:\n      pop\n        /* \"#utility.yul\":12085:12817   */\n      pop\n      pop\n        /* \"#utility.yul\":12006:12817   */\n      swap3\n      swap2\n      pop\n      pop\n      jump\t// out\n        /* \"#utility.yul\":12823:12925   */\n    tag_82:\n        /* \"#utility.yul\":12865:12873   */\n      0x00\n        /* \"#utility.yul\":12912:12917   */\n      dup2\n        /* \"#utility.yul\":12909:12910   */\n      0x00\n        /* \"#utility.yul\":12905:12918   */\n      shr\n        /* \"#utility.yul\":12884:12918   */\n      swap1\n      pop\n        /* \"#utility.yul\":12823:12925   */\n      swap2\n      swap1\n      pop\n      jump\t// out\n        /* \"#utility.yul\":12931:13021   */\n    tag_83:\n        /* \"#utility.yul\":12981:12988   */\n      0x00\n        /* \"#utility.yul\":13010:13015   */\n      dup2\n        /* \"#utility.yul\":12999:13015   */\n      swap1\n      pop\n        /* \"#utility.yul\":12931:13021   */\n      swap2\n      swap1\n      pop\n      jump\t// out\n        /* \"#utility.yul\":13027:13193   */\n    tag_84:\n        /* \"#utility.yul\":13096:13101   */\n      0x00\n        /* \"#utility.yul\":13121:13187   */\n      tag_232\n        /* \"#utility.yul\":13152:13186   */\n      tag_233\n        /* \"#utility.yul\":13175:13185   */\n      dup4\n        /* \"#utility.yul\":13152:13186   */\n      tag_82\n      jump\t// in\n    tag_233:\n        /* \"#utility.yul\":13121:13187   */\n      tag_83\n      jump\t// in\n    tag_232:\n        /* \"#utility.yul\":13112:13187   */\n      swap1\n      pop\n        /* \"#utility.yul\":13027:13193   */\n      swap2\n      swap1\n      pop\n      jump\t// out\n        /* \"#utility.yul\":13261:14201   */\n    tag_85:\n        /* \"#utility.yul\":13377:13380   */\n      0x00\n        /* \"#utility.yul\":13413:13417   */\n      0x60\n        /* \"#utility.yul\":13408:13411   */\n      dup4\n        /* \"#utility.yul\":13404:13418   */\n      add\n        /* \"#utility.yul\":13444:13445   */\n      0x00\n        /* \"#utility.yul\":13521:13525   */\n      dup1\n        /* \"#utility.yul\":13514:13519   */\n      dup5\n        /* \"#utility.yul\":13510:13526   */\n      add\n        /* \"#utility.yul\":13573:13576   */\n      dup6\n        /* \"#utility.yul\":13567:13571   */\n      dup4\n        /* \"#utility.yul\":13563:13577   */\n      sub\n        /* \"#utility.yul\":13556:13560   */\n      0x00\n        /* \"#utility.yul\":13551:13554   */\n      dup8\n        /* \"#utility.yul\":13547:13561   */\n      add\n        /* \"#utility.yul\":13540:13578   */\n      mstore\n        /* \"#utility.yul\":13599:13669   */\n      tag_235\n        /* \"#utility.yul\":13664:13668   */\n      dup4\n        /* \"#utility.yul\":13650:13662   */\n      dup3\n        /* \"#utility.yul\":13599:13669   */\n      tag_81\n      jump\t// in\n    tag_235:\n        /* \"#utility.yul\":13591:13669   */\n      swap3\n      pop\n        /* \"#utility.yul\":13455:13680   */\n      pop\n        /* \"#utility.yul\":13753:13757   */\n      0x01\n        /* \"#utility.yul\":13746:13751   */\n      dup5\n        /* \"#utility.yul\":13742:13758   */\n      add\n        /* \"#utility.yul\":13736:13759   */\n      sload\n        /* \"#utility.yul\":13723:13759   */\n      swap1\n      pop\n        /* \"#utility.yul\":13792:13847   */\n      tag_236\n        /* \"#utility.yul\":13837:13846   */\n      dup2\n        /* \"#utility.yul\":13792:13847   */\n      tag_84\n      jump\t// in\n    tag_236:\n        /* \"#utility.yul\":13860:13923   */\n      tag_237\n        /* \"#utility.yul\":13917:13921   */\n      0x20\n        /* \"#utility.yul\":13912:13915   */\n      dup8\n        /* \"#utility.yul\":13908:13922   */\n      add\n        /* \"#utility.yul\":13894:13906   */\n      dup3\n        /* \"#utility.yul\":13860:13923   */\n      tag_79\n      jump\t// in\n    tag_237:\n        /* \"#utility.yul\":13690:13933   */\n      pop\n        /* \"#utility.yul\":14015:14019   */\n      0x02\n        /* \"#utility.yul\":14008:14013   */\n      dup5\n        /* \"#utility.yul\":14004:14020   */\n      add\n        /* \"#utility.yul\":14067:14070   */\n      dup6\n        /* \"#utility.yul\":14061:14065   */\n      dup4\n        /* \"#utility.yul\":14057:14071   */\n      sub\n        /* \"#utility.yul\":14050:14054   */\n      0x40\n        /* \"#utility.yul\":14045:14048   */\n      dup8\n        /* \"#utility.yul\":14041:14055   */\n      add\n        /* \"#utility.yul\":14034:14072   */\n      mstore\n        /* \"#utility.yul\":14093:14163   */\n      tag_238\n        /* \"#utility.yul\":14158:14162   */\n      dup4\n        /* \"#utility.yul\":14144:14156   */\n      dup3\n        /* \"#utility.yul\":14093:14163   */\n      tag_81\n      jump\t// in\n    tag_238:\n        /* \"#utility.yul\":14085:14163   */\n      swap3\n      pop\n        /* \"#utility.yul\":13943:14174   */\n      pop\n        /* \"#utility.yul\":14191:14195   */\n      dup2\n        /* \"#utility.yul\":14184:14195   */\n      swap3\n      pop\n        /* \"#utility.yul\":13382:14201   */\n      pop\n      pop\n        /* \"#utility.yul\":13261:14201   */\n      swap3\n      swap2\n      pop\n      pop\n      jump\t// out\n        /* \"#utility.yul\":14207:15056   */\n    tag_39:\n        /* \"#utility.yul\":14481:14485   */\n      0x00\n        /* \"#utility.yul\":14519:14522   */\n      0x80\n        /* \"#utility.yul\":14508:14517   */\n      dup3\n        /* \"#utility.yul\":14504:14523   */\n      add\n        /* \"#utility.yul\":14496:14523   */\n      swap1\n      pop\n        /* \"#utility.yul\":14569:14578   */\n      dup2\n        /* \"#utility.yul\":14563:14567   */\n      dup2\n        /* \"#utility.yul\":14559:14579   */\n      sub\n        /* \"#utility.yul\":14555:14556   */\n      0x00\n        /* \"#utility.yul\":14544:14553   */\n      dup4\n        /* \"#utility.yul\":14540:14557   */\n      add\n        /* \"#utility.yul\":14533:14580   */\n      mstore\n        /* \"#utility.yul\":14597:14705   */\n      tag_240\n        /* \"#utility.yul\":14700:14704   */\n      dup2\n        /* \"#utility.yul\":14691:14697   */\n      dup8\n        /* \"#utility.yul\":14597:14705   */\n      tag_80\n      jump\t// in\n    tag_240:\n        /* \"#utility.yul\":14589:14705   */\n      swap1\n      pop\n        /* \"#utility.yul\":14752:14761   */\n      dup2\n        /* \"#utility.yul\":14746:14750   */\n      dup2\n        /* \"#utility.yul\":14742:14762   */\n      sub\n        /* \"#utility.yul\":14737:14739   */\n      0x20\n        /* \"#utility.yul\":14726:14735   */\n      dup4\n        /* \"#utility.yul\":14722:14740   */\n      add\n        /* \"#utility.yul\":14715:14763   */\n      mstore\n        /* \"#utility.yul\":14780:14885   */\n      tag_241\n        /* \"#utility.yul\":14880:14884   */\n      dup2\n        /* \"#utility.yul\":14871:14877   */\n      dup7\n        /* \"#utility.yul\":14780:14885   */\n      tag_85\n      jump\t// in\n    tag_241:\n        /* \"#utility.yul\":14772:14885   */\n      swap1\n      pop\n        /* \"#utility.yul\":14895:14967   */\n      tag_242\n        /* \"#utility.yul\":14963:14965   */\n      0x40\n        /* \"#utility.yul\":14952:14961   */\n      dup4\n        /* \"#utility.yul\":14948:14966   */\n      add\n        /* \"#utility.yul\":14939:14945   */\n      dup6\n        /* \"#utility.yul\":14895:14967   */\n      tag_46\n      jump\t// in\n    tag_242:\n        /* \"#utility.yul\":14977:15049   */\n      tag_243\n        /* \"#utility.yul\":15045:15047   */\n      0x60\n        /* \"#utility.yul\":15034:15043   */\n      dup4\n        /* \"#utility.yul\":15030:15048   */\n      add\n        /* \"#utility.yul\":15021:15027   */\n      dup5\n        /* \"#utility.yul\":14977:15049   */\n      tag_46\n      jump\t// in\n    tag_243:\n        /* \"#utility.yul\":14207:15056   */\n      swap6\n      swap5\n      pop\n      pop\n      pop\n      pop\n      pop\n      jump\t// out\n\n    auxdata: 0xa2646970667358221220f148ae1550f6fab0fa498b55479f749341fd9dac6b37586839f452392139500664736f6c63430008120033\n}\n",
				"bytecode": {
					"linkReferences": {},
					"object": "608060405234801561001057600080fd5b50610b6c806100206000396000f3fe608060405234801561001057600080fd5b50600436106100365760003560e01c8063c2a2747b1461003b578063dab8e1331461005b575b600080fd5b610043610077565b604051610052939291906103f9565b60405180910390f35b610075600480360381019061007091906105b3565b61019f565b005b60008060000180546100889061066d565b80601f01602080910402602001604051908101604052809291908181526020018280546100b49061066d565b80156101015780601f106100d657610100808354040283529160200191610101565b820191906000526020600020905b8154815290600101906020018083116100e457829003601f168201915b50505050509080600101549080600201805461011c9061066d565b80601f01602080910402602001604051908101604052809291908181526020018280546101489061066d565b80156101955780601f1061016a57610100808354040283529160200191610195565b820191906000526020600020905b81548152906001019060200180831161017857829003601f168201915b5050505050905083565b6000806040518060600160405290816000820180546101bd9061066d565b80601f01602080910402602001604051908101604052809291908181526020018280546101e99061066d565b80156102365780601f1061020b57610100808354040283529160200191610236565b820191906000526020600020905b81548152906001019060200180831161021957829003601f168201915b50505050508152602001600182015481526020016002820180546102599061066d565b80601f01602080910402602001604051908101604052809291908181526020018280546102859061066d565b80156102d25780601f106102a7576101008083540402835291602001916102d2565b820191906000526020600020905b8154815290600101906020018083116102b557829003601f168201915b5050505050815250509050836000800190816102ee919061084a565b5082600060010181905550816000600201908161030b919061084a565b507f42f2e4fbf18d4ed62a7c65a5cc9d424dc667a788be5da00dd74ee470c3efda2e81600042436040516103429493929190610ae3565b60405180910390a150505050565b600081519050919050565b600082825260208201905092915050565b60005b8381101561038a57808201518184015260208101905061036f565b60008484015250505050565b6000601f19601f8301169050919050565b60006103b282610350565b6103bc818561035b565b93506103cc81856020860161036c565b6103d581610396565b840191505092915050565b6000819050919050565b6103f3816103e0565b82525050565b6000606082019050818103600083015261041381866103a7565b905061042260208301856103ea565b818103604083015261043481846103a7565b9050949350505050565b6000604051905090565b600080fd5b600080fd5b600080fd5b600080fd5b7f4e487b7100000000000000000000000000000000000000000000000000000000600052604160045260246000fd5b61049482610396565b810181811067ffffffffffffffff821117156104b3576104b261045c565b5b80604052505050565b60006104c661043e565b90506104d2828261048b565b919050565b600067ffffffffffffffff8211156104f2576104f161045c565b5b6104fb82610396565b9050602081019050919050565b82818337600083830152505050565b600061052a610525846104d7565b6104bc565b90508281526020810184848401111561054657610545610457565b5b610551848285610508565b509392505050565b600082601f83011261056e5761056d610452565b5b813561057e848260208601610517565b91505092915050565b610590816103e0565b811461059b57600080fd5b50565b6000813590506105ad81610587565b92915050565b6000806000606084860312156105cc576105cb610448565b5b600084013567ffffffffffffffff8111156105ea576105e961044d565b5b6105f686828701610559565b93505060206106078682870161059e565b925050604084013567ffffffffffffffff8111156106285761062761044d565b5b61063486828701610559565b9150509250925092565b7f4e487b7100000000000000000000000000000000000000000000000000000000600052602260045260246000fd5b6000600282049050600182168061068557607f821691505b6020821081036106985761069761063e565b5b50919050565b60008190508160005260206000209050919050565b60006020601f8301049050919050565b600082821b905092915050565b6000600883026107007fffffffffffffffffffffffffffffffffffffffffffffffffffffffffffffffff826106c3565b61070a86836106c3565b95508019841693508086168417925050509392505050565b6000819050919050565b600061074761074261073d846103e0565b610722565b6103e0565b9050919050565b6000819050919050565b6107618361072c565b61077561076d8261074e565b8484546106d0565b825550505050565b600090565b61078a61077d565b610795818484610758565b505050565b5b818110156107b9576107ae600082610782565b60018101905061079b565b5050565b601f8211156107fe576107cf8161069e565b6107d8846106b3565b810160208510156107e7578190505b6107fb6107f3856106b3565b83018261079a565b50505b505050565b600082821c905092915050565b600061082160001984600802610803565b1980831691505092915050565b600061083a8383610810565b9150826002028217905092915050565b61085382610350565b67ffffffffffffffff81111561086c5761086b61045c565b5b610876825461066d565b6108818282856107bd565b600060209050601f8311600181146108b457600084156108a2578287015190505b6108ac858261082e565b865550610914565b601f1984166108c28661069e565b60005b828110156108ea578489015182556001820191506020850194506020810190506108c5565b868310156109075784890151610903601f891682610810565b8355505b6001600288020188555050505b505050505050565b600082825260208201905092915050565b600061093882610350565b610942818561091c565b935061095281856020860161036c565b61095b81610396565b840191505092915050565b61096f816103e0565b82525050565b60006060830160008301518482036000860152610992828261092d565b91505060208301516109a76020860182610966565b50604083015184820360408601526109bf828261092d565b9150508091505092915050565b600081546109d98161066d565b6109e3818661091c565b945060018216600081146109fe5760018114610a1457610a47565b60ff198316865281151560200286019350610a47565b610a1d8561069e565b60005b83811015610a3f57815481890152600182019150602081019050610a20565b808801955050505b50505092915050565b60008160001c9050919050565b6000819050919050565b6000610a7a610a7583610a50565b610a5d565b9050919050565b60006060830160008084018583036000870152610a9e83826109cc565b92505060018401549050610ab181610a67565b610abe6020870182610966565b50600284018583036040870152610ad583826109cc565b925050819250505092915050565b60006080820190508181036000830152610afd8187610975565b90508181036020830152610b118186610a81565b9050610b2060408301856103ea565b610b2d60608301846103ea565b9594505050505056fea2646970667358221220f148ae1550f6fab0fa498b55479f749341fd9dac6b37586839f452392139500664736f6c63430008120033",
					"opcodes": "PUSH1 0x80 PUSH1 0x40 MSTORE CALLVALUE DUP1 ISZERO PUSH2 0x10 JUMPI PUSH1 0x0 DUP1 REVERT JUMPDEST POP PUSH2 0xB6C DUP1 PUSH2 0x20 PUSH1 0x0 CODECOPY PUSH1 0x0 RETURN INVALID PUSH1 0x80 PUSH1 0x40 MSTORE CALLVALUE DUP1 ISZERO PUSH2 0x10 JUMPI PUSH1 0x0 DUP1 REVERT JUMPDEST POP PUSH1 0x4 CALLDATASIZE LT PUSH2 0x36 JUMPI PUSH1 0x0 CALLDATALOAD PUSH1 0xE0 SHR DUP1 PUSH4 0xC2A2747B EQ PUSH2 0x3B JUMPI DUP1 PUSH4 0xDAB8E133 EQ PUSH2 0x5B JUMPI JUMPDEST PUSH1 0x0 DUP1 REVERT JUMPDEST PUSH2 0x43 PUSH2 0x77 JUMP JUMPDEST PUSH1 0x40 MLOAD PUSH2 0x52 SWAP4 SWAP3 SWAP2 SWAP1 PUSH2 0x3F9 JUMP JUMPDEST PUSH1 0x40 MLOAD DUP1 SWAP2 SUB SWAP1 RETURN JUMPDEST PUSH2 0x75 PUSH1 0x4 DUP1 CALLDATASIZE SUB DUP2 ADD SWAP1 PUSH2 0x70 SWAP2 SWAP1 PUSH2 0x5B3 JUMP JUMPDEST PUSH2 0x19F JUMP JUMPDEST STOP JUMPDEST PUSH1 0x0 DUP1 PUSH1 0x0 ADD DUP1 SLOAD PUSH2 0x88 SWAP1 PUSH2 0x66D JUMP JUMPDEST DUP1 PUSH1 0x1F ADD PUSH1 0x20 DUP1 SWAP2 DIV MUL PUSH1 0x20 ADD PUSH1 0x40 MLOAD SWAP1 DUP2 ADD PUSH1 0x40 MSTORE DUP1 SWAP3 SWAP2 SWAP1 DUP2 DUP2 MSTORE PUSH1 0x20 ADD DUP3 DUP1 SLOAD PUSH2 0xB4 SWAP1 PUSH2 0x66D JUMP JUMPDEST DUP1 ISZERO PUSH2 0x101 JUMPI DUP1 PUSH1 0x1F LT PUSH2 0xD6 JUMPI PUSH2 0x100 DUP1 DUP4 SLOAD DIV MUL DUP4 MSTORE SWAP2 PUSH1 0x20 ADD SWAP2 PUSH2 0x101 JUMP JUMPDEST DUP3 ADD SWAP2 SWAP1 PUSH1 0x0 MSTORE PUSH1 0x20 PUSH1 0x0 KECCAK256 SWAP1 JUMPDEST DUP2 SLOAD DUP2 MSTORE SWAP1 PUSH1 0x1 ADD SWAP1 PUSH1 0x20 ADD DUP1 DUP4 GT PUSH2 0xE4 JUMPI DUP3 SWAP1 SUB PUSH1 0x1F AND DUP3 ADD SWAP2 JUMPDEST POP POP POP POP POP SWAP1 DUP1 PUSH1 0x1 ADD SLOAD SWAP1 DUP1 PUSH1 0x2 ADD DUP1 SLOAD PUSH2 0x11C SWAP1 PUSH2 0x66D JUMP JUMPDEST DUP1 PUSH1 0x1F ADD PUSH1 0x20 DUP1 SWAP2 DIV MUL PUSH1 0x20 ADD PUSH1 0x40 MLOAD SWAP1 DUP2 ADD PUSH1 0x40 MSTORE DUP1 SWAP3 SWAP2 SWAP1 DUP2 DUP2 MSTORE PUSH1 0x20 ADD DUP3 DUP1 SLOAD PUSH2 0x148 SWAP1 PUSH2 0x66D JUMP JUMPDEST DUP1 ISZERO PUSH2 0x195 JUMPI DUP1 PUSH1 0x1F LT PUSH2 0x16A JUMPI PUSH2 0x100 DUP1 DUP4 SLOAD DIV MUL DUP4 MSTORE SWAP2 PUSH1 0x20 ADD SWAP2 PUSH2 0x195 JUMP JUMPDEST DUP3 ADD SWAP2 SWAP1 PUSH1 0x0 MSTORE PUSH1 0x20 PUSH1 0x0 KECCAK256 SWAP1 JUMPDEST DUP2 SLOAD DUP2 MSTORE SWAP1 PUSH1 0x1 ADD SWAP1 PUSH1 0x20 ADD DUP1 DUP4 GT PUSH2 0x178 JUMPI DUP3 SWAP1 SUB PUSH1 0x1F AND DUP3 ADD SWAP2 JUMPDEST POP POP POP POP POP SWAP1 POP DUP4 JUMP JUMPDEST PUSH1 0x0 DUP1 PUSH1 0x40 MLOAD DUP1 PUSH1 0x60 ADD PUSH1 0x40 MSTORE SWAP1 DUP2 PUSH1 0x0 DUP3 ADD DUP1 SLOAD PUSH2 0x1BD SWAP1 PUSH2 0x66D JUMP JUMPDEST DUP1 PUSH1 0x1F ADD PUSH1 0x20 DUP1 SWAP2 DIV MUL PUSH1 0x20 ADD PUSH1 0x40 MLOAD SWAP1 DUP2 ADD PUSH1 0x40 MSTORE DUP1 SWAP3 SWAP2 SWAP1 DUP2 DUP2 MSTORE PUSH1 0x20 ADD DUP3 DUP1 SLOAD PUSH2 0x1E9 SWAP1 PUSH2 0x66D JUMP JUMPDEST DUP1 ISZERO PUSH2 0x236 JUMPI DUP1 PUSH1 0x1F LT PUSH2 0x20B JUMPI PUSH2 0x100 DUP1 DUP4 SLOAD DIV MUL DUP4 MSTORE SWAP2 PUSH1 0x20 ADD SWAP2 PUSH2 0x236 JUMP JUMPDEST DUP3 ADD SWAP2 SWAP1 PUSH1 0x0 MSTORE PUSH1 0x20 PUSH1 0x0 KECCAK256 SWAP1 JUMPDEST DUP2 SLOAD DUP2 MSTORE SWAP1 PUSH1 0x1 ADD SWAP1 PUSH1 0x20 ADD DUP1 DUP4 GT PUSH2 0x219 JUMPI DUP3 SWAP1 SUB PUSH1 0x1F AND DUP3 ADD SWAP2 JUMPDEST POP POP POP POP POP DUP2 MSTORE PUSH1 0x20 ADD PUSH1 0x1 DUP3 ADD SLOAD DUP2 MSTORE PUSH1 0x20 ADD PUSH1 0x2 DUP3 ADD DUP1 SLOAD PUSH2 0x259 SWAP1 PUSH2 0x66D JUMP JUMPDEST DUP1 PUSH1 0x1F ADD PUSH1 0x20 DUP1 SWAP2 DIV MUL PUSH1 0x20 ADD PUSH1 0x40 MLOAD SWAP1 DUP2 ADD PUSH1 0x40 MSTORE DUP1 SWAP3 SWAP2 SWAP1 DUP2 DUP2 MSTORE PUSH1 0x20 ADD DUP3 DUP1 SLOAD PUSH2 0x285 SWAP1 PUSH2 0x66D JUMP JUMPDEST DUP1 ISZERO PUSH2 0x2D2 JUMPI DUP1 PUSH1 0x1F LT PUSH2 0x2A7 JUMPI PUSH2 0x100 DUP1 DUP4 SLOAD DIV MUL DUP4 MSTORE SWAP2 PUSH1 0x20 ADD SWAP2 PUSH2 0x2D2 JUMP JUMPDEST DUP3 ADD SWAP2 SWAP1 PUSH1 0x0 MSTORE PUSH1 0x20 PUSH1 0x0 KECCAK256 SWAP1 JUMPDEST DUP2 SLOAD DUP2 MSTORE SWAP1 PUSH1 0x1 ADD SWAP1 PUSH1 0x20 ADD DUP1 DUP4 GT PUSH2 0x2B5 JUMPI DUP3 SWAP1 SUB PUSH1 0x1F AND DUP3 ADD SWAP2 JUMPDEST POP POP POP POP POP DUP2 MSTORE POP POP SWAP1 POP DUP4 PUSH1 0x0 DUP1 ADD SWAP1 DUP2 PUSH2 0x2EE SWAP2 SWAP1 PUSH2 0x84A JUMP JUMPDEST POP DUP3 PUSH1 0x0 PUSH1 0x1 ADD DUP2 SWAP1 SSTORE POP DUP2 PUSH1 0x0 PUSH1 0x2 ADD SWAP1 DUP2 PUSH2 0x30B SWAP2 SWAP1 PUSH2 0x84A JUMP JUMPDEST POP PUSH32 0x42F2E4FBF18D4ED62A7C65A5CC9D424DC667A788BE5DA00DD74EE470C3EFDA2E DUP2 PUSH1 0x0 TIMESTAMP NUMBER PUSH1 0x40 MLOAD PUSH2 0x342 SWAP5 SWAP4 SWAP3 SWAP2 SWAP1 PUSH2 0xAE3 JUMP JUMPDEST PUSH1 0x40 MLOAD DUP1 SWAP2 SUB SWAP1 LOG1 POP POP POP POP JUMP JUMPDEST PUSH1 0x0 DUP2 MLOAD SWAP1 POP SWAP2 SWAP1 POP JUMP JUMPDEST PUSH1 0x0 DUP3 DUP3 MSTORE PUSH1 0x20 DUP3 ADD SWAP1 POP SWAP3 SWAP2 POP POP JUMP JUMPDEST PUSH1 0x0 JUMPDEST DUP4 DUP2 LT ISZERO PUSH2 0x38A JUMPI DUP1 DUP3 ADD MLOAD DUP2 DUP5 ADD MSTORE PUSH1 0x20 DUP2 ADD SWAP1 POP PUSH2 0x36F JUMP JUMPDEST PUSH1 0x0 DUP5 DUP5 ADD MSTORE POP POP POP POP JUMP JUMPDEST PUSH1 0x0 PUSH1 0x1F NOT PUSH1 0x1F DUP4 ADD AND SWAP1 POP SWAP2 SWAP1 POP JUMP JUMPDEST PUSH1 0x0 PUSH2 0x3B2 DUP3 PUSH2 0x350 JUMP JUMPDEST PUSH2 0x3BC DUP2 DUP6 PUSH2 0x35B JUMP JUMPDEST SWAP4 POP PUSH2 0x3CC DUP2 DUP6 PUSH1 0x20 DUP7 ADD PUSH2 0x36C JUMP JUMPDEST PUSH2 0x3D5 DUP2 PUSH2 0x396 JUMP JUMPDEST DUP5 ADD SWAP2 POP POP SWAP3 SWAP2 POP POP JUMP JUMPDEST PUSH1 0x0 DUP2 SWAP1 POP SWAP2 SWAP1 POP JUMP JUMPDEST PUSH2 0x3F3 DUP2 PUSH2 0x3E0 JUMP JUMPDEST DUP3 MSTORE POP POP JUMP JUMPDEST PUSH1 0x0 PUSH1 0x60 DUP3 ADD SWAP1 POP DUP2 DUP2 SUB PUSH1 0x0 DUP4 ADD MSTORE PUSH2 0x413 DUP2 DUP7 PUSH2 0x3A7 JUMP JUMPDEST SWAP1 POP PUSH2 0x422 PUSH1 0x20 DUP4 ADD DUP6 PUSH2 0x3EA JUMP JUMPDEST DUP2 DUP2 SUB PUSH1 0x40 DUP4 ADD MSTORE PUSH2 0x434 DUP2 DUP5 PUSH2 0x3A7 JUMP JUMPDEST SWAP1 POP SWAP5 SWAP4 POP POP POP POP JUMP JUMPDEST PUSH1 0x0 PUSH1 0x40 MLOAD SWAP1 POP SWAP1 JUMP JUMPDEST PUSH1 0x0 DUP1 REVERT JUMPDEST PUSH1 0x0 DUP1 REVERT JUMPDEST PUSH1 0x0 DUP1 REVERT JUMPDEST PUSH1 0x0 DUP1 REVERT JUMPDEST PUSH32 0x4E487B7100000000000000000000000000000000000000000000000000000000 PUSH1 0x0 MSTORE PUSH1 0x41 PUSH1 0x4 MSTORE PUSH1 0x24 PUSH1 0x0 REVERT JUMPDEST PUSH2 0x494 DUP3 PUSH2 0x396 JUMP JUMPDEST DUP2 ADD DUP2 DUP2 LT PUSH8 0xFFFFFFFFFFFFFFFF DUP3 GT OR ISZERO PUSH2 0x4B3 JUMPI PUSH2 0x4B2 PUSH2 0x45C JUMP JUMPDEST JUMPDEST DUP1 PUSH1 0x40 MSTORE POP POP POP JUMP JUMPDEST PUSH1 0x0 PUSH2 0x4C6 PUSH2 0x43E JUMP JUMPDEST SWAP1 POP PUSH2 0x4D2 DUP3 DUP3 PUSH2 0x48B JUMP JUMPDEST SWAP2 SWAP1 POP JUMP JUMPDEST PUSH1 0x0 PUSH8 0xFFFFFFFFFFFFFFFF DUP3 GT ISZERO PUSH2 0x4F2 JUMPI PUSH2 0x4F1 PUSH2 0x45C JUMP JUMPDEST JUMPDEST PUSH2 0x4FB DUP3 PUSH2 0x396 JUMP JUMPDEST SWAP1 POP PUSH1 0x20 DUP2 ADD SWAP1 POP SWAP2 SWAP1 POP JUMP JUMPDEST DUP3 DUP2 DUP4 CALLDATACOPY PUSH1 0x0 DUP4 DUP4 ADD MSTORE POP POP POP JUMP JUMPDEST PUSH1 0x0 PUSH2 0x52A PUSH2 0x525 DUP5 PUSH2 0x4D7 JUMP JUMPDEST PUSH2 0x4BC JUMP JUMPDEST SWAP1 POP DUP3 DUP2 MSTORE PUSH1 0x20 DUP2 ADD DUP5 DUP5 DUP5 ADD GT ISZERO PUSH2 0x546 JUMPI PUSH2 0x545 PUSH2 0x457 JUMP JUMPDEST JUMPDEST PUSH2 0x551 DUP5 DUP3 DUP6 PUSH2 0x508 JUMP JUMPDEST POP SWAP4 SWAP3 POP POP POP JUMP JUMPDEST PUSH1 0x0 DUP3 PUSH1 0x1F DUP4 ADD SLT PUSH2 0x56E JUMPI PUSH2 0x56D PUSH2 0x452 JUMP JUMPDEST JUMPDEST DUP2 CALLDATALOAD PUSH2 0x57E DUP5 DUP3 PUSH1 0x20 DUP7 ADD PUSH2 0x517 JUMP JUMPDEST SWAP2 POP POP SWAP3 SWAP2 POP POP JUMP JUMPDEST PUSH2 0x590 DUP2 PUSH2 0x3E0 JUMP JUMPDEST DUP2 EQ PUSH2 0x59B JUMPI PUSH1 0x0 DUP1 REVERT JUMPDEST POP JUMP JUMPDEST PUSH1 0x0 DUP2 CALLDATALOAD SWAP1 POP PUSH2 0x5AD DUP2 PUSH2 0x587 JUMP JUMPDEST SWAP3 SWAP2 POP POP JUMP JUMPDEST PUSH1 0x0 DUP1 PUSH1 0x0 PUSH1 0x60 DUP5 DUP7 SUB SLT ISZERO PUSH2 0x5CC JUMPI PUSH2 0x5CB PUSH2 0x448 JUMP JUMPDEST JUMPDEST PUSH1 0x0 DUP5 ADD CALLDATALOAD PUSH8 0xFFFFFFFFFFFFFFFF DUP2 GT ISZERO PUSH2 0x5EA JUMPI PUSH2 0x5E9 PUSH2 0x44D JUMP JUMPDEST JUMPDEST PUSH2 0x5F6 DUP7 DUP3 DUP8 ADD PUSH2 0x559 JUMP JUMPDEST SWAP4 POP POP PUSH1 0x20 PUSH2 0x607 DUP7 DUP3 DUP8 ADD PUSH2 0x59E JUMP JUMPDEST SWAP3 POP POP PUSH1 0x40 DUP5 ADD CALLDATALOAD PUSH8 0xFFFFFFFFFFFFFFFF DUP2 GT ISZERO PUSH2 0x628 JUMPI PUSH2 0x627 PUSH2 0x44D JUMP JUMPDEST JUMPDEST PUSH2 0x634 DUP7 DUP3 DUP8 ADD PUSH2 0x559 JUMP JUMPDEST SWAP2 POP POP SWAP3 POP SWAP3 POP SWAP3 JUMP JUMPDEST PUSH32 0x4E487B7100000000000000000000000000000000000000000000000000000000 PUSH1 0x0 MSTORE PUSH1 0x22 PUSH1 0x4 MSTORE PUSH1 0x24 PUSH1 0x0 REVERT JUMPDEST PUSH1 0x0 PUSH1 0x2 DUP3 DIV SWAP1 POP PUSH1 0x1 DUP3 AND DUP1 PUSH2 0x685 JUMPI PUSH1 0x7F DUP3 AND SWAP2 POP JUMPDEST PUSH1 0x20 DUP3 LT DUP2 SUB PUSH2 0x698 JUMPI PUSH2 0x697 PUSH2 0x63E JUMP JUMPDEST JUMPDEST POP SWAP2 SWAP1 POP JUMP JUMPDEST PUSH1 0x0 DUP2 SWAP1 POP DUP2 PUSH1 0x0 MSTORE PUSH1 0x20 PUSH1 0x0 KECCAK256 SWAP1 POP SWAP2 SWAP1 POP JUMP JUMPDEST PUSH1 0x0 PUSH1 0x20 PUSH1 0x1F DUP4 ADD DIV SWAP1 POP SWAP2 SWAP1 POP JUMP JUMPDEST PUSH1 0x0 DUP3 DUP3 SHL SWAP1 POP SWAP3 SWAP2 POP POP JUMP JUMPDEST PUSH1 0x0 PUSH1 0x8 DUP4 MUL PUSH2 0x700 PUSH32 0xFFFFFFFFFFFFFFFFFFFFFFFFFFFFFFFFFFFFFFFFFFFFFFFFFFFFFFFFFFFFFFFF DUP3 PUSH2 0x6C3 JUMP JUMPDEST PUSH2 0x70A DUP7 DUP4 PUSH2 0x6C3 JUMP JUMPDEST SWAP6 POP DUP1 NOT DUP5 AND SWAP4 POP DUP1 DUP7 AND DUP5 OR SWAP3 POP POP POP SWAP4 SWAP3 POP POP POP JUMP JUMPDEST PUSH1 0x0 DUP2 SWAP1 POP SWAP2 SWAP1 POP JUMP JUMPDEST PUSH1 0x0 PUSH2 0x747 PUSH2 0x742 PUSH2 0x73D DUP5 PUSH2 0x3E0 JUMP JUMPDEST PUSH2 0x722 JUMP JUMPDEST PUSH2 0x3E0 JUMP JUMPDEST SWAP1 POP SWAP2 SWAP1 POP JUMP JUMPDEST PUSH1 0x0 DUP2 SWAP1 POP SWAP2 SWAP1 POP JUMP JUMPDEST PUSH2 0x761 DUP4 PUSH2 0x72C JUMP JUMPDEST PUSH2 0x775 PUSH2 0x76D DUP3 PUSH2 0x74E JUMP JUMPDEST DUP5 DUP5 SLOAD PUSH2 0x6D0 JUMP JUMPDEST DUP3 SSTORE POP POP POP POP JUMP JUMPDEST PUSH1 0x0 SWAP1 JUMP JUMPDEST PUSH2 0x78A PUSH2 0x77D JUMP JUMPDEST PUSH2 0x795 DUP2 DUP5 DUP5 PUSH2 0x758 JUMP JUMPDEST POP POP POP JUMP JUMPDEST JUMPDEST DUP2 DUP2 LT ISZERO PUSH2 0x7B9 JUMPI PUSH2 0x7AE PUSH1 0x0 DUP3 PUSH2 0x782 JUMP JUMPDEST PUSH1 0x1 DUP2 ADD SWAP1 POP PUSH2 0x79B JUMP JUMPDEST POP POP JUMP JUMPDEST PUSH1 0x1F DUP3 GT ISZERO PUSH2 0x7FE JUMPI PUSH2 0x7CF DUP2 PUSH2 0x69E JUMP JUMPDEST PUSH2 0x7D8 DUP5 PUSH2 0x6B3 JUMP JUMPDEST DUP2 ADD PUSH1 0x20 DUP6 LT ISZERO PUSH2 0x7E7 JUMPI DUP2 SWAP1 POP JUMPDEST PUSH2 0x7FB PUSH2 0x7F3 DUP6 PUSH2 0x6B3 JUMP JUMPDEST DUP4 ADD DUP3 PUSH2 0x79A JUMP JUMPDEST POP POP JUMPDEST POP POP POP JUMP JUMPDEST PUSH1 0x0 DUP3 DUP3 SHR SWAP1 POP SWAP3 SWAP2 POP POP JUMP JUMPDEST PUSH1 0x0 PUSH2 0x821 PUSH1 0x0 NOT DUP5 PUSH1 0x8 MUL PUSH2 0x803 JUMP JUMPDEST NOT DUP1 DUP4 AND SWAP2 POP POP SWAP3 SWAP2 POP POP JUMP JUMPDEST PUSH1 0x0 PUSH2 0x83A DUP4 DUP4 PUSH2 0x810 JUMP JUMPDEST SWAP2 POP DUP3 PUSH1 0x2 MUL DUP3 OR SWAP1 POP SWAP3 SWAP2 POP POP JUMP JUMPDEST PUSH2 0x853 DUP3 PUSH2 0x350 JUMP JUMPDEST PUSH8 0xFFFFFFFFFFFFFFFF DUP2 GT ISZERO PUSH2 0x86C JUMPI PUSH2 0x86B PUSH2 0x45C JUMP JUMPDEST JUMPDEST PUSH2 0x876 DUP3 SLOAD PUSH2 0x66D JUMP JUMPDEST PUSH2 0x881 DUP3 DUP3 DUP6 PUSH2 0x7BD JUMP JUMPDEST PUSH1 0x0 PUSH1 0x20 SWAP1 POP PUSH1 0x1F DUP4 GT PUSH1 0x1 DUP2 EQ PUSH2 0x8B4 JUMPI PUSH1 0x0 DUP5 ISZERO PUSH2 0x8A2 JUMPI DUP3 DUP8 ADD MLOAD SWAP1 POP JUMPDEST PUSH2 0x8AC DUP6 DUP3 PUSH2 0x82E JUMP JUMPDEST DUP7 SSTORE POP PUSH2 0x914 JUMP JUMPDEST PUSH1 0x1F NOT DUP5 AND PUSH2 0x8C2 DUP7 PUSH2 0x69E JUMP JUMPDEST PUSH1 0x0 JUMPDEST DUP3 DUP2 LT ISZERO PUSH2 0x8EA JUMPI DUP5 DUP10 ADD MLOAD DUP3 SSTORE PUSH1 0x1 DUP3 ADD SWAP2 POP PUSH1 0x20 DUP6 ADD SWAP5 POP PUSH1 0x20 DUP2 ADD SWAP1 POP PUSH2 0x8C5 JUMP JUMPDEST DUP7 DUP4 LT ISZERO PUSH2 0x907 JUMPI DUP5 DUP10 ADD MLOAD PUSH2 0x903 PUSH1 0x1F DUP10 AND DUP3 PUSH2 0x810 JUMP JUMPDEST DUP4 SSTORE POP JUMPDEST PUSH1 0x1 PUSH1 0x2 DUP9 MUL ADD DUP9 SSTORE POP POP POP JUMPDEST POP POP POP POP POP POP JUMP JUMPDEST PUSH1 0x0 DUP3 DUP3 MSTORE PUSH1 0x20 DUP3 ADD SWAP1 POP SWAP3 SWAP2 POP POP JUMP JUMPDEST PUSH1 0x0 PUSH2 0x938 DUP3 PUSH2 0x350 JUMP JUMPDEST PUSH2 0x942 DUP2 DUP6 PUSH2 0x91C JUMP JUMPDEST SWAP4 POP PUSH2 0x952 DUP2 DUP6 PUSH1 0x20 DUP7 ADD PUSH2 0x36C JUMP JUMPDEST PUSH2 0x95B DUP2 PUSH2 0x396 JUMP JUMPDEST DUP5 ADD SWAP2 POP POP SWAP3 SWAP2 POP POP JUMP JUMPDEST PUSH2 0x96F DUP2 PUSH2 0x3E0 JUMP JUMPDEST DUP3 MSTORE POP POP JUMP JUMPDEST PUSH1 0x0 PUSH1 0x60 DUP4 ADD PUSH1 0x0 DUP4 ADD MLOAD DUP5 DUP3 SUB PUSH1 0x0 DUP7 ADD MSTORE PUSH2 0x992 DUP3 DUP3 PUSH2 0x92D JUMP JUMPDEST SWAP2 POP POP PUSH1 0x20 DUP4 ADD MLOAD PUSH2 0x9A7 PUSH1 0x20 DUP7 ADD DUP3 PUSH2 0x966 JUMP JUMPDEST POP PUSH1 0x40 DUP4 ADD MLOAD DUP5 DUP3 SUB PUSH1 0x40 DUP7 ADD MSTORE PUSH2 0x9BF DUP3 DUP3 PUSH2 0x92D JUMP JUMPDEST SWAP2 POP POP DUP1 SWAP2 POP POP SWAP3 SWAP2 POP POP JUMP JUMPDEST PUSH1 0x0 DUP2 SLOAD PUSH2 0x9D9 DUP2 PUSH2 0x66D JUMP JUMPDEST PUSH2 0x9E3 DUP2 DUP7 PUSH2 0x91C JUMP JUMPDEST SWAP5 POP PUSH1 0x1 DUP3 AND PUSH1 0x0 DUP2 EQ PUSH2 0x9FE JUMPI PUSH1 0x1 DUP2 EQ PUSH2 0xA14 JUMPI PUSH2 0xA47 JUMP JUMPDEST PUSH1 0xFF NOT DUP4 AND DUP7 MSTORE DUP2 ISZERO ISZERO PUSH1 0x20 MUL DUP7 ADD SWAP4 POP PUSH2 0xA47 JUMP JUMPDEST PUSH2 0xA1D DUP6 PUSH2 0x69E JUMP JUMPDEST PUSH1 0x0 JUMPDEST DUP4 DUP2 LT ISZERO PUSH2 0xA3F JUMPI DUP2 SLOAD DUP2 DUP10 ADD MSTORE PUSH1 0x1 DUP3 ADD SWAP2 POP PUSH1 0x20 DUP2 ADD SWAP1 POP PUSH2 0xA20 JUMP JUMPDEST DUP1 DUP9 ADD SWAP6 POP POP POP JUMPDEST POP POP POP SWAP3 SWAP2 POP POP JUMP JUMPDEST PUSH1 0x0 DUP2 PUSH1 0x0 SHR SWAP1 POP SWAP2 SWAP1 POP JUMP JUMPDEST PUSH1 0x0 DUP2 SWAP1 POP SWAP2 SWAP1 POP JUMP JUMPDEST PUSH1 0x0 PUSH2 0xA7A PUSH2 0xA75 DUP4 PUSH2 0xA50 JUMP JUMPDEST PUSH2 0xA5D JUMP JUMPDEST SWAP1 POP SWAP2 SWAP1 POP JUMP JUMPDEST PUSH1 0x0 PUSH1 0x60 DUP4 ADD PUSH1 0x0 DUP1 DUP5 ADD DUP6 DUP4 SUB PUSH1 0x0 DUP8 ADD MSTORE PUSH2 0xA9E DUP4 DUP3 PUSH2 0x9CC JUMP JUMPDEST SWAP3 POP POP PUSH1 0x1 DUP5 ADD SLOAD SWAP1 POP PUSH2 0xAB1 DUP2 PUSH2 0xA67 JUMP JUMPDEST PUSH2 0xABE PUSH1 0x20 DUP8 ADD DUP3 PUSH2 0x966 JUMP JUMPDEST POP PUSH1 0x2 DUP5 ADD DUP6 DUP4 SUB PUSH1 0x40 DUP8 ADD MSTORE PUSH2 0xAD5 DUP4 DUP3 PUSH2 0x9CC JUMP JUMPDEST SWAP3 POP POP DUP2 SWAP3 POP POP POP SWAP3 SWAP2 POP POP JUMP JUMPDEST PUSH1 0x0 PUSH1 0x80 DUP3 ADD SWAP1 POP DUP2 DUP2 SUB PUSH1 0x0 DUP4 ADD MSTORE PUSH2 0xAFD DUP2 DUP8 PUSH2 0x975 JUMP JUMPDEST SWAP1 POP DUP2 DUP2 SUB PUSH1 0x20 DUP4 ADD MSTORE PUSH2 0xB11 DUP2 DUP7 PUSH2 0xA81 JUMP JUMPDEST SWAP1 POP PUSH2 0xB20 PUSH1 0x40 DUP4 ADD DUP6 PUSH2 0x3EA JUMP JUMPDEST PUSH2 0xB2D PUSH1 0x60 DUP4 ADD DUP5 PUSH2 0x3EA JUMP JUMPDEST SWAP6 SWAP5 POP POP POP POP POP JUMP INVALID LOG2 PUSH5 0x6970667358 0x22 SLT KECCAK256 CALL BASEFEE 0xAE ISZERO POP 0xF6 STATICCALL 0xB0 STATICCALL 0x49 DUP12 SSTORE SELFBALANCE SWAP16 PUSH21 0x9341FD9DAC6B37586839F452392139500664736F6C PUSH4 0x43000812 STOP CALLER "
				},
				"gasEstimates": {
					"creation": {
						"codeDepositCost": "584800",
						"executionCost": "619",
						"totalCost": "585419"
					},
					"external": {
						"p1()": "infinite",
						"set(string,uint256,string)": "infinite"
					}
				},
				"methodIdentifiers": {
					"p1()": "c2a2747b",
					"set(string,uint256,string)": "dab8e133"
				}
			},
			"storageLayout": {
				"storage": [
					{
						"astId": 11,
						"contract": "contracts/11thaug.sol:Events2",
						"label": "p1",
						"offset": 0,
						"slot": "0",
						"type": "t_struct(PersonInfo)8_storage"
					}
				],
				"types": {
					"t_string_storage": {
						"encoding": "bytes",
						"label": "string",
						"numberOfBytes": "32"
					},
					"t_struct(PersonInfo)8_storage": {
						"encoding": "inplace",
						"label": "struct Events2.PersonInfo",
						"members": [
							{
								"astId": 3,
								"contract": "contracts/11thaug.sol:Events2",
								"label": "name",
								"offset": 0,
								"slot": "0",
								"type": "t_string_storage"
							},
							{
								"astId": 5,
								"contract": "contracts/11thaug.sol:Events2",
								"label": "age",
								"offset": 0,
								"slot": "1",
								"type": "t_uint256"
							},
							{
								"astId": 7,
								"contract": "contracts/11thaug.sol:Events2",
								"label": "department",
								"offset": 0,
								"slot": "2",
								"type": "t_string_storage"
							}
						],
						"numberOfBytes": "96"
					},
					"t_uint256": {
						"encoding": "inplace",
						"label": "uint256",
						"numberOfBytes": "32"
					}
				}
			},
			"userdoc": {
				"kind": "user",
				"methods": {},
				"version": 1
			}
		}
	}
}