{
	"data": {
		"bytecode": {
			"linkReferences": {},
			"object": "608060405234801561001057600080fd5b50610329806100206000396000f3fe608060405234801561001057600080fd5b50600436106100415760003560e01c806308b929391461004657806376e5b58714610064578063a750e29314610080575b600080fd5b61004e61009c565b60405161005b9190610132565b60405180910390f35b61007e6004803603810190610079919061017e565b6100a2565b005b61009a6004803603810190610095919061017e565b610102565b005b60005481565b8060005410156100eb576000546040517fc61e92630000000000000000000000000000000000000000000000000000000081526004016100e2919061022e565b60405180910390fd5b806000546100f9919061028b565b60008190555050565b8060005461011091906102bf565b60008190555050565b6000819050919050565b61012c81610119565b82525050565b60006020820190506101476000830184610123565b92915050565b600080fd5b61015b81610119565b811461016657600080fd5b50565b60008135905061017881610152565b92915050565b6000602082840312156101945761019361014d565b5b60006101a284828501610169565b91505092915050565b600082825260208201905092915050565b7f4361736820417661696c61626c6520206973206c657373207468616e2043617360008201527f68205769746820647261772e0000000000000000000000000000000000000000602082015250565b6000610218602c836101ab565b9150610223826101bc565b604082019050919050565b600060408201905081810360008301526102478161020b565b90506102566020830184610123565b92915050565b7f4e487b7100000000000000000000000000000000000000000000000000000000600052601160045260246000fd5b600061029682610119565b91506102a183610119565b92508282039050818111156102b9576102b861025c565b5b92915050565b60006102ca82610119565b91506102d583610119565b92508282019050808211156102ed576102ec61025c565b5b9291505056fea2646970667358221220fae2cf4f853cc9b5d56cc278af144f56919663d8b06b13703df746dcda6f6c3064736f6c63430008120033",
			"opcodes": "PUSH1 0x80 PUSH1 0x40 MSTORE CALLVALUE DUP1 ISZERO PUSH2 0x10 JUMPI PUSH1 0x0 DUP1 REVERT JUMPDEST POP PUSH2 0x329 DUP1 PUSH2 0x20 PUSH1 0x0 CODECOPY PUSH1 0x0 RETURN INVALID PUSH1 0x80 PUSH1 0x40 MSTORE CALLVALUE DUP1 ISZERO PUSH2 0x10 JUMPI PUSH1 0x0 DUP1 REVERT JUMPDEST POP PUSH1 0x4 CALLDATASIZE LT PUSH2 0x41 JUMPI PUSH1 0x0 CALLDATALOAD PUSH1 0xE0 SHR DUP1 PUSH4 0x8B92939 EQ PUSH2 0x46 JUMPI DUP1 PUSH4 0x76E5B587 EQ PUSH2 0x64 JUMPI DUP1 PUSH4 0xA750E293 EQ PUSH2 0x80 JUMPI JUMPDEST PUSH1 0x0 DUP1 REVERT JUMPDEST PUSH2 0x4E PUSH2 0x9C JUMP JUMPDEST PUSH1 0x40 MLOAD PUSH2 0x5B SWAP2 SWAP1 PUSH2 0x132 JUMP JUMPDEST PUSH1 0x40 MLOAD DUP1 SWAP2 SUB SWAP1 RETURN JUMPDEST PUSH2 0x7E PUSH1 0x4 DUP1 CALLDATASIZE SUB DUP2 ADD SWAP1 PUSH2 0x79 SWAP2 SWAP1 PUSH2 0x17E JUMP JUMPDEST PUSH2 0xA2 JUMP JUMPDEST STOP JUMPDEST PUSH2 0x9A PUSH1 0x4 DUP1 CALLDATASIZE SUB DUP2 ADD SWAP1 PUSH2 0x95 SWAP2 SWAP1 PUSH2 0x17E JUMP JUMPDEST PUSH2 0x102 JUMP JUMPDEST STOP JUMPDEST PUSH1 0x0 SLOAD DUP2 JUMP JUMPDEST DUP1 PUSH1 0x0 SLOAD LT ISZERO PUSH2 0xEB JUMPI PUSH1 0x0 SLOAD PUSH1 0x40 MLOAD PUSH32 0xC61E926300000000000000000000000000000000000000000000000000000000 DUP2 MSTORE PUSH1 0x4 ADD PUSH2 0xE2 SWAP2 SWAP1 PUSH2 0x22E JUMP JUMPDEST PUSH1 0x40 MLOAD DUP1 SWAP2 SUB SWAP1 REVERT JUMPDEST DUP1 PUSH1 0x0 SLOAD PUSH2 0xF9 SWAP2 SWAP1 PUSH2 0x28B JUMP JUMPDEST PUSH1 0x0 DUP2 SWAP1 SSTORE POP POP JUMP JUMPDEST DUP1 PUSH1 0x0 SLOAD PUSH2 0x110 SWAP2 SWAP1 PUSH2 0x2BF JUMP JUMPDEST PUSH1 0x0 DUP2 SWAP1 SSTORE POP POP JUMP JUMPDEST PUSH1 0x0 DUP2 SWAP1 POP SWAP2 SWAP1 POP JUMP JUMPDEST PUSH2 0x12C DUP2 PUSH2 0x119 JUMP JUMPDEST DUP3 MSTORE POP POP JUMP JUMPDEST PUSH1 0x0 PUSH1 0x20 DUP3 ADD SWAP1 POP PUSH2 0x147 PUSH1 0x0 DUP4 ADD DUP5 PUSH2 0x123 JUMP JUMPDEST SWAP3 SWAP2 POP POP JUMP JUMPDEST PUSH1 0x0 DUP1 REVERT JUMPDEST PUSH2 0x15B DUP2 PUSH2 0x119 JUMP JUMPDEST DUP2 EQ PUSH2 0x166 JUMPI PUSH1 0x0 DUP1 REVERT JUMPDEST POP JUMP JUMPDEST PUSH1 0x0 DUP2 CALLDATALOAD SWAP1 POP PUSH2 0x178 DUP2 PUSH2 0x152 JUMP JUMPDEST SWAP3 SWAP2 POP POP JUMP JUMPDEST PUSH1 0x0 PUSH1 0x20 DUP3 DUP5 SUB SLT ISZERO PUSH2 0x194 JUMPI PUSH2 0x193 PUSH2 0x14D JUMP JUMPDEST JUMPDEST PUSH1 0x0 PUSH2 0x1A2 DUP5 DUP3 DUP6 ADD PUSH2 0x169 JUMP JUMPDEST SWAP2 POP POP SWAP3 SWAP2 POP POP JUMP JUMPDEST PUSH1 0x0 DUP3 DUP3 MSTORE PUSH1 0x20 DUP3 ADD SWAP1 POP SWAP3 SWAP2 POP POP JUMP JUMPDEST PUSH32 0x4361736820417661696C61626C6520206973206C657373207468616E20436173 PUSH1 0x0 DUP3 ADD MSTORE PUSH32 0x68205769746820647261772E0000000000000000000000000000000000000000 PUSH1 0x20 DUP3 ADD MSTORE POP JUMP JUMPDEST PUSH1 0x0 PUSH2 0x218 PUSH1 0x2C DUP4 PUSH2 0x1AB JUMP JUMPDEST SWAP2 POP PUSH2 0x223 DUP3 PUSH2 0x1BC JUMP JUMPDEST PUSH1 0x40 DUP3 ADD SWAP1 POP SWAP2 SWAP1 POP JUMP JUMPDEST PUSH1 0x0 PUSH1 0x40 DUP3 ADD SWAP1 POP DUP2 DUP2 SUB PUSH1 0x0 DUP4 ADD MSTORE PUSH2 0x247 DUP2 PUSH2 0x20B JUMP JUMPDEST SWAP1 POP PUSH2 0x256 PUSH1 0x20 DUP4 ADD DUP5 PUSH2 0x123 JUMP JUMPDEST SWAP3 SWAP2 POP POP JUMP JUMPDEST PUSH32 0x4E487B7100000000000000000000000000000000000000000000000000000000 PUSH1 0x0 MSTORE PUSH1 0x11 PUSH1 0x4 MSTORE PUSH1 0x24 PUSH1 0x0 REVERT JUMPDEST PUSH1 0x0 PUSH2 0x296 DUP3 PUSH2 0x119 JUMP JUMPDEST SWAP2 POP PUSH2 0x2A1 DUP4 PUSH2 0x119 JUMP JUMPDEST SWAP3 POP DUP3 DUP3 SUB SWAP1 POP DUP2 DUP2 GT ISZERO PUSH2 0x2B9 JUMPI PUSH2 0x2B8 PUSH2 0x25C JUMP JUMPDEST JUMPDEST SWAP3 SWAP2 POP POP JUMP JUMPDEST PUSH1 0x0 PUSH2 0x2CA DUP3 PUSH2 0x119 JUMP JUMPDEST SWAP2 POP PUSH2 0x2D5 DUP4 PUSH2 0x119 JUMP JUMPDEST SWAP3 POP DUP3 DUP3 ADD SWAP1 POP DUP1 DUP3 GT ISZERO PUSH2 0x2ED JUMPI PUSH2 0x2EC PUSH2 0x25C JUMP JUMPDEST JUMPDEST SWAP3 SWAP2 POP POP JUMP INVALID LOG2 PUSH5 0x6970667358 0x22 SLT KECCAK256 STATICCALL 0xE2 0xCF 0x4F DUP6 EXTCODECOPY 0xC9 0xB5 0xD5 PUSH13 0xC278AF144F56919663D8B06B13 PUSH17 0x3DF746DCDA6F6C3064736F6C6343000812 STOP CALLER "
		},
		"gasEstimates": {
			"creation": {
				"codeDepositCost": "161800",
				"executionCost": "208",
				"totalCost": "162008"
			},
			"external": {
				"ATMRefill(uint256)": "infinite",
				"CashAvailable()": "2407",
				"MoneyWithdraw(uint256)": "infinite"
			}
		},
		"methodIdentifiers": {
			"ATMRefill(uint256)": "a750e293",
			"CashAvailable()": "08b92939",
			"MoneyWithdraw(uint256)": "76e5b587"
		}
	},
	"abi": [
		{
			"inputs": [
				{
					"internalType": "string",
					"name": "message",
					"type": "string"
				},
				{
					"internalType": "uint256",
					"name": "currentCash",
					"type": "uint256"
				}
			],
			"name": "InsufficientFunds",
			"type": "error"
		},
		{
			"inputs": [
				{
					"internalType": "uint256",
					"name": "RefillAmount",
					"type": "uint256"
				}
			],
			"name": "ATMRefill",
			"outputs": [],
			"stateMutability": "nonpayable",
			"type": "function"
		},
		{
			"inputs": [],
			"name": "CashAvailable",
			"outputs": [
				{
					"internalType": "uint256",
					"name": "",
					"type": "uint256"
				}
			],
			"stateMutability": "view",
			"type": "function"
		},
		{
			"inputs": [
				{
					"internalType": "uint256",
					"name": "WithdrawAmount",
					"type": "uint256"
				}
			],
			"name": "MoneyWithdraw",
			"outputs": [],
			"stateMutability": "nonpayable",
			"type": "function"
		}
	]
}