{
	"data": {
		"bytecode": {
			"linkReferences": {},
			"object": "608060405234801561001057600080fd5b5061020d806100206000396000f3fe608060405234801561001057600080fd5b506004361061002b5760003560e01c80639769410514610030575b600080fd5b61004a600480360381019061004591906100f5565b610060565b6040516100579190610131565b60405180910390f35b600080600390506012831061007857809150506100b5565b826040517f6b60e2930000000000000000000000000000000000000000000000000000000081526004016100ac91906101a9565b60405180910390fd5b919050565b600080fd5b6000819050919050565b6100d2816100bf565b81146100dd57600080fd5b50565b6000813590506100ef816100c9565b92915050565b60006020828403121561010b5761010a6100ba565b5b6000610119848285016100e0565b91505092915050565b61012b816100bf565b82525050565b60006020820190506101466000830184610122565b92915050565b600082825260208201905092915050565b7f416765206973206c657373207468616e2031382e000000000000000000000000600082015250565b600061019360148361014c565b915061019e8261015d565b602082019050919050565b600060408201905081810360008301526101c281610186565b90506101d16020830184610122565b9291505056fea2646970667358221220f18d7d7e18c04b79626ea9c5810eb77affb3537217df0254c81b2c2baa803f4464736f6c63430008120033",
			"opcodes": "PUSH1 0x80 PUSH1 0x40 MSTORE CALLVALUE DUP1 ISZERO PUSH2 0x10 JUMPI PUSH1 0x0 DUP1 REVERT JUMPDEST POP PUSH2 0x20D DUP1 PUSH2 0x20 PUSH1 0x0 CODECOPY PUSH1 0x0 RETURN INVALID PUSH1 0x80 PUSH1 0x40 MSTORE CALLVALUE DUP1 ISZERO PUSH2 0x10 JUMPI PUSH1 0x0 DUP1 REVERT JUMPDEST POP PUSH1 0x4 CALLDATASIZE LT PUSH2 0x2B JUMPI PUSH1 0x0 CALLDATALOAD PUSH1 0xE0 SHR DUP1 PUSH4 0x97694105 EQ PUSH2 0x30 JUMPI JUMPDEST PUSH1 0x0 DUP1 REVERT JUMPDEST PUSH2 0x4A PUSH1 0x4 DUP1 CALLDATASIZE SUB DUP2 ADD SWAP1 PUSH2 0x45 SWAP2 SWAP1 PUSH2 0xF5 JUMP JUMPDEST PUSH2 0x60 JUMP JUMPDEST PUSH1 0x40 MLOAD PUSH2 0x57 SWAP2 SWAP1 PUSH2 0x131 JUMP JUMPDEST PUSH1 0x40 MLOAD DUP1 SWAP2 SUB SWAP1 RETURN JUMPDEST PUSH1 0x0 DUP1 PUSH1 0x3 SWAP1 POP PUSH1 0x12 DUP4 LT PUSH2 0x78 JUMPI DUP1 SWAP2 POP POP PUSH2 0xB5 JUMP JUMPDEST DUP3 PUSH1 0x40 MLOAD PUSH32 0x6B60E29300000000000000000000000000000000000000000000000000000000 DUP2 MSTORE PUSH1 0x4 ADD PUSH2 0xAC SWAP2 SWAP1 PUSH2 0x1A9 JUMP JUMPDEST PUSH1 0x40 MLOAD DUP1 SWAP2 SUB SWAP1 REVERT JUMPDEST SWAP2 SWAP1 POP JUMP JUMPDEST PUSH1 0x0 DUP1 REVERT JUMPDEST PUSH1 0x0 DUP2 SWAP1 POP SWAP2 SWAP1 POP JUMP JUMPDEST PUSH2 0xD2 DUP2 PUSH2 0xBF JUMP JUMPDEST DUP2 EQ PUSH2 0xDD JUMPI PUSH1 0x0 DUP1 REVERT JUMPDEST POP JUMP JUMPDEST PUSH1 0x0 DUP2 CALLDATALOAD SWAP1 POP PUSH2 0xEF DUP2 PUSH2 0xC9 JUMP JUMPDEST SWAP3 SWAP2 POP POP JUMP JUMPDEST PUSH1 0x0 PUSH1 0x20 DUP3 DUP5 SUB SLT ISZERO PUSH2 0x10B JUMPI PUSH2 0x10A PUSH2 0xBA JUMP JUMPDEST JUMPDEST PUSH1 0x0 PUSH2 0x119 DUP5 DUP3 DUP6 ADD PUSH2 0xE0 JUMP JUMPDEST SWAP2 POP POP SWAP3 SWAP2 POP POP JUMP JUMPDEST PUSH2 0x12B DUP2 PUSH2 0xBF JUMP JUMPDEST DUP3 MSTORE POP POP JUMP JUMPDEST PUSH1 0x0 PUSH1 0x20 DUP3 ADD SWAP1 POP PUSH2 0x146 PUSH1 0x0 DUP4 ADD DUP5 PUSH2 0x122 JUMP JUMPDEST SWAP3 SWAP2 POP POP JUMP JUMPDEST PUSH1 0x0 DUP3 DUP3 MSTORE PUSH1 0x20 DUP3 ADD SWAP1 POP SWAP3 SWAP2 POP POP JUMP JUMPDEST PUSH32 0x416765206973206C657373207468616E2031382E000000000000000000000000 PUSH1 0x0 DUP3 ADD MSTORE POP JUMP JUMPDEST PUSH1 0x0 PUSH2 0x193 PUSH1 0x14 DUP4 PUSH2 0x14C JUMP JUMPDEST SWAP2 POP PUSH2 0x19E DUP3 PUSH2 0x15D JUMP JUMPDEST PUSH1 0x20 DUP3 ADD SWAP1 POP SWAP2 SWAP1 POP JUMP JUMPDEST PUSH1 0x0 PUSH1 0x40 DUP3 ADD SWAP1 POP DUP2 DUP2 SUB PUSH1 0x0 DUP4 ADD MSTORE PUSH2 0x1C2 DUP2 PUSH2 0x186 JUMP JUMPDEST SWAP1 POP PUSH2 0x1D1 PUSH1 0x20 DUP4 ADD DUP5 PUSH2 0x122 JUMP JUMPDEST SWAP3 SWAP2 POP POP JUMP INVALID LOG2 PUSH5 0x6970667358 0x22 SLT KECCAK256 CALL DUP14 PUSH30 0x7E18C04B79626EA9C5810EB77AFFB3537217DF0254C81B2C2BAA803F4464 PUSH20 0x6F6C634300081200330000000000000000000000 "
		},
		"gasEstimates": {
			"creation": {
				"codeDepositCost": "105000",
				"executionCost": "153",
				"totalCost": "105153"
			},
			"external": {
				"Driver(uint256)": "infinite"
			}
		},
		"methodIdentifiers": {
			"Driver(uint256)": "97694105"
		}
	},
	"abi": [
		{
			"inputs": [
				{
					"internalType": "string",
					"name": "message",
					"type": "string"
				},
				{
					"internalType": "uint256",
					"name": "requiredAge",
					"type": "uint256"
				}
			],
			"name": "TooYoung",
			"type": "error"
		},
		{
			"inputs": [
				{
					"internalType": "uint256",
					"name": "age",
					"type": "uint256"
				}
			],
			"name": "Driver",
			"outputs": [
				{
					"internalType": "uint256",
					"name": "",
					"type": "uint256"
				}
			],
			"stateMutability": "pure",
			"type": "function"
		}
	]
}