{
	"data": {
		"bytecode": {
			"linkReferences": {},
			"object": "608060405260025f60016101000a81548160ff021916908360038111156100295761002861007b565b5b0217905550600160038111156100425761004161007b565b5b5f60026101000a81548160ff021916908360038111156100655761006461007b565b5b0217905550348015610075575f80fd5b506100a8565b7f4e487b71000000000000000000000000000000000000000000000000000000005f52602160045260245ffd5b6103d9806100b55f395ff3fe608060405234801561000f575f80fd5b506004361061009c575f3560e01c8063a2c2d66611610064578063a2c2d66614610120578063a75397751461013e578063abe6dd0c14610148578063b1b926dd14610166578063ea70a017146101705761009c565b806324b8ba5f146100a057806356800b52146100bc57806360595433146100da5780636d4ce63c146100e457806379e5f05414610102575b5f80fd5b6100ba60048036038101906100b591906102ec565b61017a565b005b6100c46101a6565b6040516100d1919061038a565b60405180910390f35b6100e26101b8565b005b6100ec61021b565b6040516100f9919061038a565b60405180910390f35b61010a610230565b604051610117919061038a565b60405180910390f35b610128610242565b604051610135919061038a565b60405180910390f35b610146610252565b005b61015061028e565b60405161015d919061038a565b60405180910390f35b61016e6102a0565b005b6101786102b3565b005b805f60036101000a81548160ff0219169083600381111561019e5761019d610317565b5b021790555050565b5f60029054906101000a900460ff1681565b5f60038111156101cb576101ca610317565b5b5f8054906101000a900460ff1660038111156101ea576101e9610317565b5b036102195760015f806101000a81548160ff0219169083600381111561021357610212610317565b5b02179055505b565b5f8060039054906101000a900460ff16905090565b5f60039054906101000a900460ff1681565b5f8054906101000a900460ff1681565b60038081111561026557610264610317565b5b5f806101000a81548160ff0219169083600381111561028757610286610317565b5b0217905550565b5f60049054906101000a900460ff1681565b5f60016101000a81549060ff0219169055565b5f806101000a81549060ff0219169055565b5f80fd5b600481106102d5575f80fd5b50565b5f813590506102e6816102c9565b92915050565b5f60208284031215610301576103006102c5565b5b5f61030e848285016102d8565b91505092915050565b7f4e487b71000000000000000000000000000000000000000000000000000000005f52602160045260245ffd5b6004811061035557610354610317565b5b50565b5f81905061036582610344565b919050565b5f61037482610358565b9050919050565b6103848161036a565b82525050565b5f60208201905061039d5f83018461037b565b9291505056fea2646970667358221220d4fe4b80b148d82ed0b114dfc26840593531a259856d4a7cee4232b0473dcffe64736f6c63430008150033",
			"opcodes": "PUSH1 0x80 PUSH1 0x40 MSTORE PUSH1 0x2 PUSH0 PUSH1 0x1 PUSH2 0x100 EXP DUP2 SLOAD DUP2 PUSH1 0xFF MUL NOT AND SWAP1 DUP4 PUSH1 0x3 DUP2 GT ISZERO PUSH2 0x29 JUMPI PUSH2 0x28 PUSH2 0x7B JUMP JUMPDEST JUMPDEST MUL OR SWAP1 SSTORE POP PUSH1 0x1 PUSH1 0x3 DUP2 GT ISZERO PUSH2 0x42 JUMPI PUSH2 0x41 PUSH2 0x7B JUMP JUMPDEST JUMPDEST PUSH0 PUSH1 0x2 PUSH2 0x100 EXP DUP2 SLOAD DUP2 PUSH1 0xFF MUL NOT AND SWAP1 DUP4 PUSH1 0x3 DUP2 GT ISZERO PUSH2 0x65 JUMPI PUSH2 0x64 PUSH2 0x7B JUMP JUMPDEST JUMPDEST MUL OR SWAP1 SSTORE POP CALLVALUE DUP1 ISZERO PUSH2 0x75 JUMPI PUSH0 DUP1 REVERT JUMPDEST POP PUSH2 0xA8 JUMP JUMPDEST PUSH32 0x4E487B7100000000000000000000000000000000000000000000000000000000 PUSH0 MSTORE PUSH1 0x21 PUSH1 0x4 MSTORE PUSH1 0x24 PUSH0 REVERT JUMPDEST PUSH2 0x3D9 DUP1 PUSH2 0xB5 PUSH0 CODECOPY PUSH0 RETURN INVALID PUSH1 0x80 PUSH1 0x40 MSTORE CALLVALUE DUP1 ISZERO PUSH2 0xF JUMPI PUSH0 DUP1 REVERT JUMPDEST POP PUSH1 0x4 CALLDATASIZE LT PUSH2 0x9C JUMPI PUSH0 CALLDATALOAD PUSH1 0xE0 SHR DUP1 PUSH4 0xA2C2D666 GT PUSH2 0x64 JUMPI DUP1 PUSH4 0xA2C2D666 EQ PUSH2 0x120 JUMPI DUP1 PUSH4 0xA7539775 EQ PUSH2 0x13E JUMPI DUP1 PUSH4 0xABE6DD0C EQ PUSH2 0x148 JUMPI DUP1 PUSH4 0xB1B926DD EQ PUSH2 0x166 JUMPI DUP1 PUSH4 0xEA70A017 EQ PUSH2 0x170 JUMPI PUSH2 0x9C JUMP JUMPDEST DUP1 PUSH4 0x24B8BA5F EQ PUSH2 0xA0 JUMPI DUP1 PUSH4 0x56800B52 EQ PUSH2 0xBC JUMPI DUP1 PUSH4 0x60595433 EQ PUSH2 0xDA JUMPI DUP1 PUSH4 0x6D4CE63C EQ PUSH2 0xE4 JUMPI DUP1 PUSH4 0x79E5F054 EQ PUSH2 0x102 JUMPI JUMPDEST PUSH0 DUP1 REVERT JUMPDEST PUSH2 0xBA PUSH1 0x4 DUP1 CALLDATASIZE SUB DUP2 ADD SWAP1 PUSH2 0xB5 SWAP2 SWAP1 PUSH2 0x2EC JUMP JUMPDEST PUSH2 0x17A JUMP JUMPDEST STOP JUMPDEST PUSH2 0xC4 PUSH2 0x1A6 JUMP JUMPDEST PUSH1 0x40 MLOAD PUSH2 0xD1 SWAP2 SWAP1 PUSH2 0x38A JUMP JUMPDEST PUSH1 0x40 MLOAD DUP1 SWAP2 SUB SWAP1 RETURN JUMPDEST PUSH2 0xE2 PUSH2 0x1B8 JUMP JUMPDEST STOP JUMPDEST PUSH2 0xEC PUSH2 0x21B JUMP JUMPDEST PUSH1 0x40 MLOAD PUSH2 0xF9 SWAP2 SWAP1 PUSH2 0x38A JUMP JUMPDEST PUSH1 0x40 MLOAD DUP1 SWAP2 SUB SWAP1 RETURN JUMPDEST PUSH2 0x10A PUSH2 0x230 JUMP JUMPDEST PUSH1 0x40 MLOAD PUSH2 0x117 SWAP2 SWAP1 PUSH2 0x38A JUMP JUMPDEST PUSH1 0x40 MLOAD DUP1 SWAP2 SUB SWAP1 RETURN JUMPDEST PUSH2 0x128 PUSH2 0x242 JUMP JUMPDEST PUSH1 0x40 MLOAD PUSH2 0x135 SWAP2 SWAP1 PUSH2 0x38A JUMP JUMPDEST PUSH1 0x40 MLOAD DUP1 SWAP2 SUB SWAP1 RETURN JUMPDEST PUSH2 0x146 PUSH2 0x252 JUMP JUMPDEST STOP JUMPDEST PUSH2 0x150 PUSH2 0x28E JUMP JUMPDEST PUSH1 0x40 MLOAD PUSH2 0x15D SWAP2 SWAP1 PUSH2 0x38A JUMP JUMPDEST PUSH1 0x40 MLOAD DUP1 SWAP2 SUB SWAP1 RETURN JUMPDEST PUSH2 0x16E PUSH2 0x2A0 JUMP JUMPDEST STOP JUMPDEST PUSH2 0x178 PUSH2 0x2B3 JUMP JUMPDEST STOP JUMPDEST DUP1 PUSH0 PUSH1 0x3 PUSH2 0x100 EXP DUP2 SLOAD DUP2 PUSH1 0xFF MUL NOT AND SWAP1 DUP4 PUSH1 0x3 DUP2 GT ISZERO PUSH2 0x19E JUMPI PUSH2 0x19D PUSH2 0x317 JUMP JUMPDEST JUMPDEST MUL OR SWAP1 SSTORE POP POP JUMP JUMPDEST PUSH0 PUSH1 0x2 SWAP1 SLOAD SWAP1 PUSH2 0x100 EXP SWAP1 DIV PUSH1 0xFF AND DUP2 JUMP JUMPDEST PUSH0 PUSH1 0x3 DUP2 GT ISZERO PUSH2 0x1CB JUMPI PUSH2 0x1CA PUSH2 0x317 JUMP JUMPDEST JUMPDEST PUSH0 DUP1 SLOAD SWAP1 PUSH2 0x100 EXP SWAP1 DIV PUSH1 0xFF AND PUSH1 0x3 DUP2 GT ISZERO PUSH2 0x1EA JUMPI PUSH2 0x1E9 PUSH2 0x317 JUMP JUMPDEST JUMPDEST SUB PUSH2 0x219 JUMPI PUSH1 0x1 PUSH0 DUP1 PUSH2 0x100 EXP DUP2 SLOAD DUP2 PUSH1 0xFF MUL NOT AND SWAP1 DUP4 PUSH1 0x3 DUP2 GT ISZERO PUSH2 0x213 JUMPI PUSH2 0x212 PUSH2 0x317 JUMP JUMPDEST JUMPDEST MUL OR SWAP1 SSTORE POP JUMPDEST JUMP JUMPDEST PUSH0 DUP1 PUSH1 0x3 SWAP1 SLOAD SWAP1 PUSH2 0x100 EXP SWAP1 DIV PUSH1 0xFF AND SWAP1 POP SWAP1 JUMP JUMPDEST PUSH0 PUSH1 0x3 SWAP1 SLOAD SWAP1 PUSH2 0x100 EXP SWAP1 DIV PUSH1 0xFF AND DUP2 JUMP JUMPDEST PUSH0 DUP1 SLOAD SWAP1 PUSH2 0x100 EXP SWAP1 DIV PUSH1 0xFF AND DUP2 JUMP JUMPDEST PUSH1 0x3 DUP1 DUP2 GT ISZERO PUSH2 0x265 JUMPI PUSH2 0x264 PUSH2 0x317 JUMP JUMPDEST JUMPDEST PUSH0 DUP1 PUSH2 0x100 EXP DUP2 SLOAD DUP2 PUSH1 0xFF MUL NOT AND SWAP1 DUP4 PUSH1 0x3 DUP2 GT ISZERO PUSH2 0x287 JUMPI PUSH2 0x286 PUSH2 0x317 JUMP JUMPDEST JUMPDEST MUL OR SWAP1 SSTORE POP JUMP JUMPDEST PUSH0 PUSH1 0x4 SWAP1 SLOAD SWAP1 PUSH2 0x100 EXP SWAP1 DIV PUSH1 0xFF AND DUP2 JUMP JUMPDEST PUSH0 PUSH1 0x1 PUSH2 0x100 EXP DUP2 SLOAD SWAP1 PUSH1 0xFF MUL NOT AND SWAP1 SSTORE JUMP JUMPDEST PUSH0 DUP1 PUSH2 0x100 EXP DUP2 SLOAD SWAP1 PUSH1 0xFF MUL NOT AND SWAP1 SSTORE JUMP JUMPDEST PUSH0 DUP1 REVERT JUMPDEST PUSH1 0x4 DUP2 LT PUSH2 0x2D5 JUMPI PUSH0 DUP1 REVERT JUMPDEST POP JUMP JUMPDEST PUSH0 DUP2 CALLDATALOAD SWAP1 POP PUSH2 0x2E6 DUP2 PUSH2 0x2C9 JUMP JUMPDEST SWAP3 SWAP2 POP POP JUMP JUMPDEST PUSH0 PUSH1 0x20 DUP3 DUP5 SUB SLT ISZERO PUSH2 0x301 JUMPI PUSH2 0x300 PUSH2 0x2C5 JUMP JUMPDEST JUMPDEST PUSH0 PUSH2 0x30E DUP5 DUP3 DUP6 ADD PUSH2 0x2D8 JUMP JUMPDEST SWAP2 POP POP SWAP3 SWAP2 POP POP JUMP JUMPDEST PUSH32 0x4E487B7100000000000000000000000000000000000000000000000000000000 PUSH0 MSTORE PUSH1 0x21 PUSH1 0x4 MSTORE PUSH1 0x24 PUSH0 REVERT JUMPDEST PUSH1 0x4 DUP2 LT PUSH2 0x355 JUMPI PUSH2 0x354 PUSH2 0x317 JUMP JUMPDEST JUMPDEST POP JUMP JUMPDEST PUSH0 DUP2 SWAP1 POP PUSH2 0x365 DUP3 PUSH2 0x344 JUMP JUMPDEST SWAP2 SWAP1 POP JUMP JUMPDEST PUSH0 PUSH2 0x374 DUP3 PUSH2 0x358 JUMP JUMPDEST SWAP1 POP SWAP2 SWAP1 POP JUMP JUMPDEST PUSH2 0x384 DUP2 PUSH2 0x36A JUMP JUMPDEST DUP3 MSTORE POP POP JUMP JUMPDEST PUSH0 PUSH1 0x20 DUP3 ADD SWAP1 POP PUSH2 0x39D PUSH0 DUP4 ADD DUP5 PUSH2 0x37B JUMP JUMPDEST SWAP3 SWAP2 POP POP JUMP INVALID LOG2 PUSH5 0x6970667358 0x22 SLT KECCAK256 0xD4 INVALID 0x4B DUP1 0xB1 BASEFEE 0xD8 0x2E 0xD0 0xB1 EQ 0xDF 0xC2 PUSH9 0x40593531A259856D4A PUSH29 0xEE4232B0473DCFFE64736F6C6343000815003300000000000000000000 "
		},
		"gasEstimates": {
			"creation": {
				"codeDepositCost": "197000",
				"executionCost": "48946",
				"totalCost": "245946"
			},
			"external": {
				"Pass()": "26680",
				"e1()": "2551",
				"e1function()": "2648",
				"e3()": "2627",
				"e4()": "2693",
				"get()": "2679",
				"idelete()": "24472",
				"scholarship()": "24477",
				"set(uint8)": "24696",
				"udelete()": "24500"
			}
		},
		"methodIdentifiers": {
			"Pass()": "60595433",
			"e1()": "a2c2d666",
			"e1function()": "abe6dd0c",
			"e3()": "56800b52",
			"e4()": "79e5f054",
			"get()": "6d4ce63c",
			"idelete()": "ea70a017",
			"scholarship()": "a7539775",
			"set(uint8)": "24b8ba5f",
			"udelete()": "b1b926dd"
		}
	},
	"abi": [
		{
			"inputs": [],
			"name": "Pass",
			"outputs": [],
			"stateMutability": "nonpayable",
			"type": "function"
		},
		{
			"inputs": [],
			"name": "e1",
			"outputs": [
				{
					"internalType": "enum Enum.Exam",
					"name": "",
					"type": "uint8"
				}
			],
			"stateMutability": "view",
			"type": "function"
		},
		{
			"inputs": [],
			"name": "e1function",
			"outputs": [
				{
					"internalType": "enum Enum.Exam",
					"name": "",
					"type": "uint8"
				}
			],
			"stateMutability": "view",
			"type": "function"
		},
		{
			"inputs": [],
			"name": "e3",
			"outputs": [
				{
					"internalType": "enum Enum.Exam",
					"name": "",
					"type": "uint8"
				}
			],
			"stateMutability": "view",
			"type": "function"
		},
		{
			"inputs": [],
			"name": "e4",
			"outputs": [
				{
					"internalType": "enum Enum.Exam",
					"name": "",
					"type": "uint8"
				}
			],
			"stateMutability": "view",
			"type": "function"
		},
		{
			"inputs": [],
			"name": "get",
			"outputs": [
				{
					"internalType": "enum Enum.Exam",
					"name": "",
					"type": "uint8"
				}
			],
			"stateMutability": "view",
			"type": "function"
		},
		{
			"inputs": [],
			"name": "idelete",
			"outputs": [],
			"stateMutability": "nonpayable",
			"type": "function"
		},
		{
			"inputs": [],
			"name": "scholarship",
			"outputs": [],
			"stateMutability": "nonpayable",
			"type": "function"
		},
		{
			"inputs": [
				{
					"internalType": "enum Enum.Exam",
					"name": "_e",
					"type": "uint8"
				}
			],
			"name": "set",
			"outputs": [],
			"stateMutability": "nonpayable",
			"type": "function"
		},
		{
			"inputs": [],
			"name": "udelete",
			"outputs": [],
			"stateMutability": "nonpayable",
			"type": "function"
		}
	]
}