{
	"data": {
		"bytecode": {
			"linkReferences": {},
			"object": "608060405234801561000f575f80fd5b506103db8061001d5f395ff3fe608060405234801561000f575f80fd5b5060043610610029575f3560e01c8063b59d79751461002d575b5f80fd5b61004760048036038101906100429190610183565b61005d565b60405161005491906101bd565b60405180910390f35b5f805f805f8512156100ae578294507f6785b9dafb4331e7eccad743189203c9809cb0ba756fd9f9fbc72839fb2219648560405161009b9190610230565b60405180910390a1849350505050610147565b5f6002866100bc9190610289565b03610106578194507f6785b9dafb4331e7eccad743189203c9809cb0ba756fd9f9fbc72839fb221964856040516100f39190610303565b60405180910390a1849350505050610147565b8094507f6785b9dafb4331e7eccad743189203c9809cb0ba756fd9f9fbc72839fb221964856040516101389190610379565b60405180910390a18493505050505b919050565b5f80fd5b5f819050919050565b61016281610150565b811461016c575f80fd5b50565b5f8135905061017d81610159565b92915050565b5f602082840312156101985761019761014c565b5b5f6101a58482850161016f565b91505092915050565b6101b781610150565b82525050565b5f6020820190506101d05f8301846101ae565b92915050565b5f82825260208201905092915050565b7f4e65676174697665206e756d62657200000000000000000000000000000000005f82015250565b5f61021a600f836101d6565b9150610225826101e6565b602082019050919050565b5f6040820190508181035f8301526102478161020e565b905061025660208301846101ae565b92915050565b7f4e487b71000000000000000000000000000000000000000000000000000000005f52601260045260245ffd5b5f61029382610150565b915061029e83610150565b9250826102ae576102ad61025c565b5b828207905092915050565b7f706f736974697665206576656e206e756d6265720000000000000000000000005f82015250565b5f6102ed6014836101d6565b91506102f8826102b9565b602082019050919050565b5f6040820190508181035f83015261031a816102e1565b905061032960208301846101ae565b92915050565b7f706f736974697665206f6464206e756d626572000000000000000000000000005f82015250565b5f6103636013836101d6565b915061036e8261032f565b602082019050919050565b5f6040820190508181035f83015261039081610357565b905061039f60208301846101ae565b9291505056fea2646970667358221220caedbbeed48582af0ae50df1b54d81fe8c14a2dec591fd9edc9bcd714716611d64736f6c63430008150033",
			"opcodes": "PUSH1 0x80 PUSH1 0x40 MSTORE CALLVALUE DUP1 ISZERO PUSH2 0xF JUMPI PUSH0 DUP1 REVERT JUMPDEST POP PUSH2 0x3DB DUP1 PUSH2 0x1D PUSH0 CODECOPY PUSH0 RETURN INVALID PUSH1 0x80 PUSH1 0x40 MSTORE CALLVALUE DUP1 ISZERO PUSH2 0xF JUMPI PUSH0 DUP1 REVERT JUMPDEST POP PUSH1 0x4 CALLDATASIZE LT PUSH2 0x29 JUMPI PUSH0 CALLDATALOAD PUSH1 0xE0 SHR DUP1 PUSH4 0xB59D7975 EQ PUSH2 0x2D JUMPI JUMPDEST PUSH0 DUP1 REVERT JUMPDEST PUSH2 0x47 PUSH1 0x4 DUP1 CALLDATASIZE SUB DUP2 ADD SWAP1 PUSH2 0x42 SWAP2 SWAP1 PUSH2 0x183 JUMP JUMPDEST PUSH2 0x5D JUMP JUMPDEST PUSH1 0x40 MLOAD PUSH2 0x54 SWAP2 SWAP1 PUSH2 0x1BD JUMP JUMPDEST PUSH1 0x40 MLOAD DUP1 SWAP2 SUB SWAP1 RETURN JUMPDEST PUSH0 DUP1 PUSH0 DUP1 PUSH0 DUP6 SLT ISZERO PUSH2 0xAE JUMPI DUP3 SWAP5 POP PUSH32 0x6785B9DAFB4331E7ECCAD743189203C9809CB0BA756FD9F9FBC72839FB221964 DUP6 PUSH1 0x40 MLOAD PUSH2 0x9B SWAP2 SWAP1 PUSH2 0x230 JUMP JUMPDEST PUSH1 0x40 MLOAD DUP1 SWAP2 SUB SWAP1 LOG1 DUP5 SWAP4 POP POP POP POP PUSH2 0x147 JUMP JUMPDEST PUSH0 PUSH1 0x2 DUP7 PUSH2 0xBC SWAP2 SWAP1 PUSH2 0x289 JUMP JUMPDEST SUB PUSH2 0x106 JUMPI DUP2 SWAP5 POP PUSH32 0x6785B9DAFB4331E7ECCAD743189203C9809CB0BA756FD9F9FBC72839FB221964 DUP6 PUSH1 0x40 MLOAD PUSH2 0xF3 SWAP2 SWAP1 PUSH2 0x303 JUMP JUMPDEST PUSH1 0x40 MLOAD DUP1 SWAP2 SUB SWAP1 LOG1 DUP5 SWAP4 POP POP POP POP PUSH2 0x147 JUMP JUMPDEST DUP1 SWAP5 POP PUSH32 0x6785B9DAFB4331E7ECCAD743189203C9809CB0BA756FD9F9FBC72839FB221964 DUP6 PUSH1 0x40 MLOAD PUSH2 0x138 SWAP2 SWAP1 PUSH2 0x379 JUMP JUMPDEST PUSH1 0x40 MLOAD DUP1 SWAP2 SUB SWAP1 LOG1 DUP5 SWAP4 POP POP POP POP JUMPDEST SWAP2 SWAP1 POP JUMP JUMPDEST PUSH0 DUP1 REVERT JUMPDEST PUSH0 DUP2 SWAP1 POP SWAP2 SWAP1 POP JUMP JUMPDEST PUSH2 0x162 DUP2 PUSH2 0x150 JUMP JUMPDEST DUP2 EQ PUSH2 0x16C JUMPI PUSH0 DUP1 REVERT JUMPDEST POP JUMP JUMPDEST PUSH0 DUP2 CALLDATALOAD SWAP1 POP PUSH2 0x17D DUP2 PUSH2 0x159 JUMP JUMPDEST SWAP3 SWAP2 POP POP JUMP JUMPDEST PUSH0 PUSH1 0x20 DUP3 DUP5 SUB SLT ISZERO PUSH2 0x198 JUMPI PUSH2 0x197 PUSH2 0x14C JUMP JUMPDEST JUMPDEST PUSH0 PUSH2 0x1A5 DUP5 DUP3 DUP6 ADD PUSH2 0x16F JUMP JUMPDEST SWAP2 POP POP SWAP3 SWAP2 POP POP JUMP JUMPDEST PUSH2 0x1B7 DUP2 PUSH2 0x150 JUMP JUMPDEST DUP3 MSTORE POP POP JUMP JUMPDEST PUSH0 PUSH1 0x20 DUP3 ADD SWAP1 POP PUSH2 0x1D0 PUSH0 DUP4 ADD DUP5 PUSH2 0x1AE JUMP JUMPDEST SWAP3 SWAP2 POP POP JUMP JUMPDEST PUSH0 DUP3 DUP3 MSTORE PUSH1 0x20 DUP3 ADD SWAP1 POP SWAP3 SWAP2 POP POP JUMP JUMPDEST PUSH32 0x4E65676174697665206E756D6265720000000000000000000000000000000000 PUSH0 DUP3 ADD MSTORE POP JUMP JUMPDEST PUSH0 PUSH2 0x21A PUSH1 0xF DUP4 PUSH2 0x1D6 JUMP JUMPDEST SWAP2 POP PUSH2 0x225 DUP3 PUSH2 0x1E6 JUMP JUMPDEST PUSH1 0x20 DUP3 ADD SWAP1 POP SWAP2 SWAP1 POP JUMP JUMPDEST PUSH0 PUSH1 0x40 DUP3 ADD SWAP1 POP DUP2 DUP2 SUB PUSH0 DUP4 ADD MSTORE PUSH2 0x247 DUP2 PUSH2 0x20E JUMP JUMPDEST SWAP1 POP PUSH2 0x256 PUSH1 0x20 DUP4 ADD DUP5 PUSH2 0x1AE JUMP JUMPDEST SWAP3 SWAP2 POP POP JUMP JUMPDEST PUSH32 0x4E487B7100000000000000000000000000000000000000000000000000000000 PUSH0 MSTORE PUSH1 0x12 PUSH1 0x4 MSTORE PUSH1 0x24 PUSH0 REVERT JUMPDEST PUSH0 PUSH2 0x293 DUP3 PUSH2 0x150 JUMP JUMPDEST SWAP2 POP PUSH2 0x29E DUP4 PUSH2 0x150 JUMP JUMPDEST SWAP3 POP DUP3 PUSH2 0x2AE JUMPI PUSH2 0x2AD PUSH2 0x25C JUMP JUMPDEST JUMPDEST DUP3 DUP3 SMOD SWAP1 POP SWAP3 SWAP2 POP POP JUMP JUMPDEST PUSH32 0x706F736974697665206576656E206E756D626572000000000000000000000000 PUSH0 DUP3 ADD MSTORE POP JUMP JUMPDEST PUSH0 PUSH2 0x2ED PUSH1 0x14 DUP4 PUSH2 0x1D6 JUMP JUMPDEST SWAP2 POP PUSH2 0x2F8 DUP3 PUSH2 0x2B9 JUMP JUMPDEST PUSH1 0x20 DUP3 ADD SWAP1 POP SWAP2 SWAP1 POP JUMP JUMPDEST PUSH0 PUSH1 0x40 DUP3 ADD SWAP1 POP DUP2 DUP2 SUB PUSH0 DUP4 ADD MSTORE PUSH2 0x31A DUP2 PUSH2 0x2E1 JUMP JUMPDEST SWAP1 POP PUSH2 0x329 PUSH1 0x20 DUP4 ADD DUP5 PUSH2 0x1AE JUMP JUMPDEST SWAP3 SWAP2 POP POP JUMP JUMPDEST PUSH32 0x706F736974697665206F6464206E756D62657200000000000000000000000000 PUSH0 DUP3 ADD MSTORE POP JUMP JUMPDEST PUSH0 PUSH2 0x363 PUSH1 0x13 DUP4 PUSH2 0x1D6 JUMP JUMPDEST SWAP2 POP PUSH2 0x36E DUP3 PUSH2 0x32F JUMP JUMPDEST PUSH1 0x20 DUP3 ADD SWAP1 POP SWAP2 SWAP1 POP JUMP JUMPDEST PUSH0 PUSH1 0x40 DUP3 ADD SWAP1 POP DUP2 DUP2 SUB PUSH0 DUP4 ADD MSTORE PUSH2 0x390 DUP2 PUSH2 0x357 JUMP JUMPDEST SWAP1 POP PUSH2 0x39F PUSH1 0x20 DUP4 ADD DUP5 PUSH2 0x1AE JUMP JUMPDEST SWAP3 SWAP2 POP POP JUMP INVALID LOG2 PUSH5 0x6970667358 0x22 SLT KECCAK256 0xCA 0xED 0xBB 0xEE 0xD4 DUP6 DUP3 0xAF EXP 0xE5 0xD CALL 0xB5 0x4D DUP2 INVALID DUP13 EQ LOG2 0xDE 0xC5 SWAP2 REVERT SWAP15 0xDC SWAP12 0xCD PUSH18 0x4716611D64736F6C63430008150033000000 "
		},
		"gasEstimates": {
			"creation": {
				"codeDepositCost": "197400",
				"executionCost": "236",
				"totalCost": "197636"
			},
			"external": {
				"numgive(int256)": "infinite"
			}
		},
		"methodIdentifiers": {
			"numgive(int256)": "b59d7975"
		}
	},
	"abi": [
		{
			"anonymous": false,
			"inputs": [
				{
					"indexed": false,
					"internalType": "string",
					"name": "message",
					"type": "string"
				},
				{
					"indexed": false,
					"internalType": "int256",
					"name": "number",
					"type": "int256"
				}
			],
			"name": "localvar",
			"type": "event"
		},
		{
			"inputs": [
				{
					"internalType": "int256",
					"name": "num",
					"type": "int256"
				}
			],
			"name": "numgive",
			"outputs": [
				{
					"internalType": "int256",
					"name": "",
					"type": "int256"
				}
			],
			"stateMutability": "nonpayable",
			"type": "function"
		}
	]
}