{
	"data": {
		"bytecode": {
			"linkReferences": {},
			"object": "608060405234801561001057600080fd5b506103fa806100206000396000f3fe608060405234801561001057600080fd5b506004361061002b5760003560e01c8063b59d797514610030575b600080fd5b61004a6004803603810190610045919061018e565b610060565b60405161005791906101ca565b60405180910390f35b60008060008060008512156100b4578294507f6785b9dafb4331e7eccad743189203c9809cb0ba756fd9f9fbc72839fb221964856040516100a19190610242565b60405180910390a184935050505061014e565b60006002866100c3919061029f565b0361010d578194507f6785b9dafb4331e7eccad743189203c9809cb0ba756fd9f9fbc72839fb221964856040516100fa919061031c565b60405180910390a184935050505061014e565b8094507f6785b9dafb4331e7eccad743189203c9809cb0ba756fd9f9fbc72839fb2219648560405161013f9190610396565b60405180910390a18493505050505b919050565b600080fd5b6000819050919050565b61016b81610158565b811461017657600080fd5b50565b60008135905061018881610162565b92915050565b6000602082840312156101a4576101a3610153565b5b60006101b284828501610179565b91505092915050565b6101c481610158565b82525050565b60006020820190506101df60008301846101bb565b92915050565b600082825260208201905092915050565b7f4e65676174697665206e756d6265720000000000000000000000000000000000600082015250565b600061022c600f836101e5565b9150610237826101f6565b602082019050919050565b6000604082019050818103600083015261025b8161021f565b905061026a60208301846101bb565b92915050565b7f4e487b7100000000000000000000000000000000000000000000000000000000600052601260045260246000fd5b60006102aa82610158565b91506102b583610158565b9250826102c5576102c4610270565b5b828207905092915050565b7f706f736974697665206576656e206e756d626572000000000000000000000000600082015250565b60006103066014836101e5565b9150610311826102d0565b602082019050919050565b60006040820190508181036000830152610335816102f9565b905061034460208301846101bb565b92915050565b7f706f736974697665206f6464206e756d62657200000000000000000000000000600082015250565b60006103806013836101e5565b915061038b8261034a565b602082019050919050565b600060408201905081810360008301526103af81610373565b90506103be60208301846101bb565b9291505056fea264697066735822122026b6fd3f9839555e447b43def9c00f634a1a38d9647ca1d36646aaccaa2bb8f664736f6c63430008120033",
			"opcodes": "PUSH1 0x80 PUSH1 0x40 MSTORE CALLVALUE DUP1 ISZERO PUSH2 0x10 JUMPI PUSH1 0x0 DUP1 REVERT JUMPDEST POP PUSH2 0x3FA DUP1 PUSH2 0x20 PUSH1 0x0 CODECOPY PUSH1 0x0 RETURN INVALID PUSH1 0x80 PUSH1 0x40 MSTORE CALLVALUE DUP1 ISZERO PUSH2 0x10 JUMPI PUSH1 0x0 DUP1 REVERT JUMPDEST POP PUSH1 0x4 CALLDATASIZE LT PUSH2 0x2B JUMPI PUSH1 0x0 CALLDATALOAD PUSH1 0xE0 SHR DUP1 PUSH4 0xB59D7975 EQ PUSH2 0x30 JUMPI JUMPDEST PUSH1 0x0 DUP1 REVERT JUMPDEST PUSH2 0x4A PUSH1 0x4 DUP1 CALLDATASIZE SUB DUP2 ADD SWAP1 PUSH2 0x45 SWAP2 SWAP1 PUSH2 0x18E JUMP JUMPDEST PUSH2 0x60 JUMP JUMPDEST PUSH1 0x40 MLOAD PUSH2 0x57 SWAP2 SWAP1 PUSH2 0x1CA JUMP JUMPDEST PUSH1 0x40 MLOAD DUP1 SWAP2 SUB SWAP1 RETURN JUMPDEST PUSH1 0x0 DUP1 PUSH1 0x0 DUP1 PUSH1 0x0 DUP6 SLT ISZERO PUSH2 0xB4 JUMPI DUP3 SWAP5 POP PUSH32 0x6785B9DAFB4331E7ECCAD743189203C9809CB0BA756FD9F9FBC72839FB221964 DUP6 PUSH1 0x40 MLOAD PUSH2 0xA1 SWAP2 SWAP1 PUSH2 0x242 JUMP JUMPDEST PUSH1 0x40 MLOAD DUP1 SWAP2 SUB SWAP1 LOG1 DUP5 SWAP4 POP POP POP POP PUSH2 0x14E JUMP JUMPDEST PUSH1 0x0 PUSH1 0x2 DUP7 PUSH2 0xC3 SWAP2 SWAP1 PUSH2 0x29F JUMP JUMPDEST SUB PUSH2 0x10D JUMPI DUP2 SWAP5 POP PUSH32 0x6785B9DAFB4331E7ECCAD743189203C9809CB0BA756FD9F9FBC72839FB221964 DUP6 PUSH1 0x40 MLOAD PUSH2 0xFA SWAP2 SWAP1 PUSH2 0x31C JUMP JUMPDEST PUSH1 0x40 MLOAD DUP1 SWAP2 SUB SWAP1 LOG1 DUP5 SWAP4 POP POP POP POP PUSH2 0x14E JUMP JUMPDEST DUP1 SWAP5 POP PUSH32 0x6785B9DAFB4331E7ECCAD743189203C9809CB0BA756FD9F9FBC72839FB221964 DUP6 PUSH1 0x40 MLOAD PUSH2 0x13F SWAP2 SWAP1 PUSH2 0x396 JUMP JUMPDEST PUSH1 0x40 MLOAD DUP1 SWAP2 SUB SWAP1 LOG1 DUP5 SWAP4 POP POP POP POP JUMPDEST SWAP2 SWAP1 POP JUMP JUMPDEST PUSH1 0x0 DUP1 REVERT JUMPDEST PUSH1 0x0 DUP2 SWAP1 POP SWAP2 SWAP1 POP JUMP JUMPDEST PUSH2 0x16B DUP2 PUSH2 0x158 JUMP JUMPDEST DUP2 EQ PUSH2 0x176 JUMPI PUSH1 0x0 DUP1 REVERT JUMPDEST POP JUMP JUMPDEST PUSH1 0x0 DUP2 CALLDATALOAD SWAP1 POP PUSH2 0x188 DUP2 PUSH2 0x162 JUMP JUMPDEST SWAP3 SWAP2 POP POP JUMP JUMPDEST PUSH1 0x0 PUSH1 0x20 DUP3 DUP5 SUB SLT ISZERO PUSH2 0x1A4 JUMPI PUSH2 0x1A3 PUSH2 0x153 JUMP JUMPDEST JUMPDEST PUSH1 0x0 PUSH2 0x1B2 DUP5 DUP3 DUP6 ADD PUSH2 0x179 JUMP JUMPDEST SWAP2 POP POP SWAP3 SWAP2 POP POP JUMP JUMPDEST PUSH2 0x1C4 DUP2 PUSH2 0x158 JUMP JUMPDEST DUP3 MSTORE POP POP JUMP JUMPDEST PUSH1 0x0 PUSH1 0x20 DUP3 ADD SWAP1 POP PUSH2 0x1DF PUSH1 0x0 DUP4 ADD DUP5 PUSH2 0x1BB JUMP JUMPDEST SWAP3 SWAP2 POP POP JUMP JUMPDEST PUSH1 0x0 DUP3 DUP3 MSTORE PUSH1 0x20 DUP3 ADD SWAP1 POP SWAP3 SWAP2 POP POP JUMP JUMPDEST PUSH32 0x4E65676174697665206E756D6265720000000000000000000000000000000000 PUSH1 0x0 DUP3 ADD MSTORE POP JUMP JUMPDEST PUSH1 0x0 PUSH2 0x22C PUSH1 0xF DUP4 PUSH2 0x1E5 JUMP JUMPDEST SWAP2 POP PUSH2 0x237 DUP3 PUSH2 0x1F6 JUMP JUMPDEST PUSH1 0x20 DUP3 ADD SWAP1 POP SWAP2 SWAP1 POP JUMP JUMPDEST PUSH1 0x0 PUSH1 0x40 DUP3 ADD SWAP1 POP DUP2 DUP2 SUB PUSH1 0x0 DUP4 ADD MSTORE PUSH2 0x25B DUP2 PUSH2 0x21F JUMP JUMPDEST SWAP1 POP PUSH2 0x26A PUSH1 0x20 DUP4 ADD DUP5 PUSH2 0x1BB JUMP JUMPDEST SWAP3 SWAP2 POP POP JUMP JUMPDEST PUSH32 0x4E487B7100000000000000000000000000000000000000000000000000000000 PUSH1 0x0 MSTORE PUSH1 0x12 PUSH1 0x4 MSTORE PUSH1 0x24 PUSH1 0x0 REVERT JUMPDEST PUSH1 0x0 PUSH2 0x2AA DUP3 PUSH2 0x158 JUMP JUMPDEST SWAP2 POP PUSH2 0x2B5 DUP4 PUSH2 0x158 JUMP JUMPDEST SWAP3 POP DUP3 PUSH2 0x2C5 JUMPI PUSH2 0x2C4 PUSH2 0x270 JUMP JUMPDEST JUMPDEST DUP3 DUP3 SMOD SWAP1 POP SWAP3 SWAP2 POP POP JUMP JUMPDEST PUSH32 0x706F736974697665206576656E206E756D626572000000000000000000000000 PUSH1 0x0 DUP3 ADD MSTORE POP JUMP JUMPDEST PUSH1 0x0 PUSH2 0x306 PUSH1 0x14 DUP4 PUSH2 0x1E5 JUMP JUMPDEST SWAP2 POP PUSH2 0x311 DUP3 PUSH2 0x2D0 JUMP JUMPDEST PUSH1 0x20 DUP3 ADD SWAP1 POP SWAP2 SWAP1 POP JUMP JUMPDEST PUSH1 0x0 PUSH1 0x40 DUP3 ADD SWAP1 POP DUP2 DUP2 SUB PUSH1 0x0 DUP4 ADD MSTORE PUSH2 0x335 DUP2 PUSH2 0x2F9 JUMP JUMPDEST SWAP1 POP PUSH2 0x344 PUSH1 0x20 DUP4 ADD DUP5 PUSH2 0x1BB JUMP JUMPDEST SWAP3 SWAP2 POP POP JUMP JUMPDEST PUSH32 0x706F736974697665206F6464206E756D62657200000000000000000000000000 PUSH1 0x0 DUP3 ADD MSTORE POP JUMP JUMPDEST PUSH1 0x0 PUSH2 0x380 PUSH1 0x13 DUP4 PUSH2 0x1E5 JUMP JUMPDEST SWAP2 POP PUSH2 0x38B DUP3 PUSH2 0x34A JUMP JUMPDEST PUSH1 0x20 DUP3 ADD SWAP1 POP SWAP2 SWAP1 POP JUMP JUMPDEST PUSH1 0x0 PUSH1 0x40 DUP3 ADD SWAP1 POP DUP2 DUP2 SUB PUSH1 0x0 DUP4 ADD MSTORE PUSH2 0x3AF DUP2 PUSH2 0x373 JUMP JUMPDEST SWAP1 POP PUSH2 0x3BE PUSH1 0x20 DUP4 ADD DUP5 PUSH2 0x1BB JUMP JUMPDEST SWAP3 SWAP2 POP POP JUMP INVALID LOG2 PUSH5 0x6970667358 0x22 SLT KECCAK256 0x26 0xB6 REVERT EXTCODEHASH SWAP9 CODECOPY SSTORE 0x5E PREVRANDAO PUSH28 0x43DEF9C00F634A1A38D9647CA1D36646AACCAA2BB8F664736F6C6343 STOP ADDMOD SLT STOP CALLER "
		},
		"gasEstimates": {
			"creation": {
				"codeDepositCost": "203600",
				"executionCost": "245",
				"totalCost": "203845"
			},
			"external": {
				"numgive(int256)": "infinite"
			}
		},
		"methodIdentifiers": {
			"numgive(int256)": "b59d7975"
		}
	},
	"abi": [
		{
			"anonymous": false,
			"inputs": [
				{
					"indexed": false,
					"internalType": "string",
					"name": "message",
					"type": "string"
				},
				{
					"indexed": false,
					"internalType": "int256",
					"name": "number",
					"type": "int256"
				}
			],
			"name": "localvar",
			"type": "event"
		},
		{
			"inputs": [
				{
					"internalType": "int256",
					"name": "num",
					"type": "int256"
				}
			],
			"name": "numgive",
			"outputs": [
				{
					"internalType": "int256",
					"name": "",
					"type": "int256"
				}
			],
			"stateMutability": "nonpayable",
			"type": "function"
		}
	]
}