{
	"data": {
		"bytecode": {
			"linkReferences": {},
			"object": "608060405234801561000f575f80fd5b506105838061001d5f395ff3fe608060405234801561000f575f80fd5b5060043610610029575f3560e01c8063f6fac9f51461002d575b5f80fd5b610035610037565b005b7ff8e97e29d5a97fd6b2a1830ed9e611a3a05f73df3fbfee4854a474dee460b5495f60405180604001604052806040518060400160405280600381526020017f6370750000000000000000000000000000000000000000000000000000000000815250815260200161022081525060216040516100b693929190610361565b60405180910390a160405180604001604052806040518060400160405280600581526020017f696e74656c000000000000000000000000000000000000000000000000000000815250815260200160808152506040516101169190610449565b60405180910390205f6002811115610131576101306101d0565b5b620186a07fb7cb3e49b4ec09a148706bede73dce11f05491dc27eed607696709426603d7ff604051610162906104b9565b60405180910390a47fdb5314170881fa5fdd3e9921dbc50bd6b3d983b71f6866474ed235614e4ada9e600160405161019a9190610521565b60405180910390a17ff2a75fe4d7cd25bbe769d566fbf5a20c67283479ab765ae5857c5ba963305b5560405160405180910390a1565b7f4e487b71000000000000000000000000000000000000000000000000000000005f52602160045260245ffd5b6003811061020e5761020d6101d0565b5b50565b5f81905061021e826101fd565b919050565b5f61022d82610211565b9050919050565b61023d81610223565b82525050565b5f81519050919050565b5f82825260208201905092915050565b5f5b8381101561027a57808201518184015260208101905061025f565b5f8484015250505050565b5f601f19601f8301169050919050565b5f61029f82610243565b6102a9818561024d565b93506102b981856020860161025d565b6102c281610285565b840191505092915050565b5f819050919050565b6102df816102cd565b82525050565b5f604083015f8301518482035f8601526102ff8282610295565b915050602083015161031460208601826102d6565b508091505092915050565b5f819050919050565b5f819050919050565b5f61034b6103466103418461031f565b610328565b6102cd565b9050919050565b61035b81610331565b82525050565b5f6060820190506103745f830186610234565b818103602083015261038681856102e5565b90506103956040830184610352565b949350505050565b5f81905092915050565b5f6103b182610243565b6103bb818561039d565b93506103cb81856020860161025d565b6103d481610285565b840191505092915050565b5f6103ea83836103a7565b905092915050565b6103fb816102cd565b82525050565b5f61040c83836103f2565b60208301905092915050565b5f8083015f83015161042a85826103df565b945050602083015161043c8582610401565b9450508391505092915050565b5f6104548284610418565b915081905092915050565b5f82825260208201905092915050565b7f64656c6c000000000000000000000000000000000000000000000000000000005f82015250565b5f6104a360048361045f565b91506104ae8261046f565b602082019050919050565b5f6020820190508181035f8301526104d081610497565b9050919050565b7f4c656e6f766f00000000000000000000000000000000000000000000000000005f82015250565b5f61050b60068361045f565b9150610516826104d7565b602082019050919050565b5f6040820190508181035f830152610538816104ff565b90506105476020830184610234565b9291505056fea264697066735822122021463267d86997862880c3bec3450cb91fad56edbafb977f0fbfdd1b491de2bc64736f6c63430008150033",
			"opcodes": "PUSH1 0x80 PUSH1 0x40 MSTORE CALLVALUE DUP1 ISZERO PUSH2 0xF JUMPI PUSH0 DUP1 REVERT JUMPDEST POP PUSH2 0x583 DUP1 PUSH2 0x1D PUSH0 CODECOPY PUSH0 RETURN INVALID PUSH1 0x80 PUSH1 0x40 MSTORE CALLVALUE DUP1 ISZERO PUSH2 0xF JUMPI PUSH0 DUP1 REVERT JUMPDEST POP PUSH1 0x4 CALLDATASIZE LT PUSH2 0x29 JUMPI PUSH0 CALLDATALOAD PUSH1 0xE0 SHR DUP1 PUSH4 0xF6FAC9F5 EQ PUSH2 0x2D JUMPI JUMPDEST PUSH0 DUP1 REVERT JUMPDEST PUSH2 0x35 PUSH2 0x37 JUMP JUMPDEST STOP JUMPDEST PUSH32 0xF8E97E29D5A97FD6B2A1830ED9E611A3A05F73DF3FBFEE4854A474DEE460B549 PUSH0 PUSH1 0x40 MLOAD DUP1 PUSH1 0x40 ADD PUSH1 0x40 MSTORE DUP1 PUSH1 0x40 MLOAD DUP1 PUSH1 0x40 ADD PUSH1 0x40 MSTORE DUP1 PUSH1 0x3 DUP2 MSTORE PUSH1 0x20 ADD PUSH32 0x6370750000000000000000000000000000000000000000000000000000000000 DUP2 MSTORE POP DUP2 MSTORE PUSH1 0x20 ADD PUSH2 0x220 DUP2 MSTORE POP PUSH1 0x21 PUSH1 0x40 MLOAD PUSH2 0xB6 SWAP4 SWAP3 SWAP2 SWAP1 PUSH2 0x361 JUMP JUMPDEST PUSH1 0x40 MLOAD DUP1 SWAP2 SUB SWAP1 LOG1 PUSH1 0x40 MLOAD DUP1 PUSH1 0x40 ADD PUSH1 0x40 MSTORE DUP1 PUSH1 0x40 MLOAD DUP1 PUSH1 0x40 ADD PUSH1 0x40 MSTORE DUP1 PUSH1 0x5 DUP2 MSTORE PUSH1 0x20 ADD PUSH32 0x696E74656C000000000000000000000000000000000000000000000000000000 DUP2 MSTORE POP DUP2 MSTORE PUSH1 0x20 ADD PUSH1 0x80 DUP2 MSTORE POP PUSH1 0x40 MLOAD PUSH2 0x116 SWAP2 SWAP1 PUSH2 0x449 JUMP JUMPDEST PUSH1 0x40 MLOAD DUP1 SWAP2 SUB SWAP1 KECCAK256 PUSH0 PUSH1 0x2 DUP2 GT ISZERO PUSH2 0x131 JUMPI PUSH2 0x130 PUSH2 0x1D0 JUMP JUMPDEST JUMPDEST PUSH3 0x186A0 PUSH32 0xB7CB3E49B4EC09A148706BEDE73DCE11F05491DC27EED607696709426603D7FF PUSH1 0x40 MLOAD PUSH2 0x162 SWAP1 PUSH2 0x4B9 JUMP JUMPDEST PUSH1 0x40 MLOAD DUP1 SWAP2 SUB SWAP1 LOG4 PUSH32 0xDB5314170881FA5FDD3E9921DBC50BD6B3D983B71F6866474ED235614E4ADA9E PUSH1 0x1 PUSH1 0x40 MLOAD PUSH2 0x19A SWAP2 SWAP1 PUSH2 0x521 JUMP JUMPDEST PUSH1 0x40 MLOAD DUP1 SWAP2 SUB SWAP1 LOG1 PUSH32 0xF2A75FE4D7CD25BBE769D566FBF5A20C67283479AB765AE5857C5BA963305B55 PUSH1 0x40 MLOAD PUSH1 0x40 MLOAD DUP1 SWAP2 SUB SWAP1 LOG1 JUMP JUMPDEST PUSH32 0x4E487B7100000000000000000000000000000000000000000000000000000000 PUSH0 MSTORE PUSH1 0x21 PUSH1 0x4 MSTORE PUSH1 0x24 PUSH0 REVERT JUMPDEST PUSH1 0x3 DUP2 LT PUSH2 0x20E JUMPI PUSH2 0x20D PUSH2 0x1D0 JUMP JUMPDEST JUMPDEST POP JUMP JUMPDEST PUSH0 DUP2 SWAP1 POP PUSH2 0x21E DUP3 PUSH2 0x1FD JUMP JUMPDEST SWAP2 SWAP1 POP JUMP JUMPDEST PUSH0 PUSH2 0x22D DUP3 PUSH2 0x211 JUMP JUMPDEST SWAP1 POP SWAP2 SWAP1 POP JUMP JUMPDEST PUSH2 0x23D DUP2 PUSH2 0x223 JUMP JUMPDEST DUP3 MSTORE POP POP JUMP JUMPDEST PUSH0 DUP2 MLOAD SWAP1 POP SWAP2 SWAP1 POP JUMP JUMPDEST PUSH0 DUP3 DUP3 MSTORE PUSH1 0x20 DUP3 ADD SWAP1 POP SWAP3 SWAP2 POP POP JUMP JUMPDEST PUSH0 JUMPDEST DUP4 DUP2 LT ISZERO PUSH2 0x27A JUMPI DUP1 DUP3 ADD MLOAD DUP2 DUP5 ADD MSTORE PUSH1 0x20 DUP2 ADD SWAP1 POP PUSH2 0x25F JUMP JUMPDEST PUSH0 DUP5 DUP5 ADD MSTORE POP POP POP POP JUMP JUMPDEST PUSH0 PUSH1 0x1F NOT PUSH1 0x1F DUP4 ADD AND SWAP1 POP SWAP2 SWAP1 POP JUMP JUMPDEST PUSH0 PUSH2 0x29F DUP3 PUSH2 0x243 JUMP JUMPDEST PUSH2 0x2A9 DUP2 DUP6 PUSH2 0x24D JUMP JUMPDEST SWAP4 POP PUSH2 0x2B9 DUP2 DUP6 PUSH1 0x20 DUP7 ADD PUSH2 0x25D JUMP JUMPDEST PUSH2 0x2C2 DUP2 PUSH2 0x285 JUMP JUMPDEST DUP5 ADD SWAP2 POP POP SWAP3 SWAP2 POP POP JUMP JUMPDEST PUSH0 DUP2 SWAP1 POP SWAP2 SWAP1 POP JUMP JUMPDEST PUSH2 0x2DF DUP2 PUSH2 0x2CD JUMP JUMPDEST DUP3 MSTORE POP POP JUMP JUMPDEST PUSH0 PUSH1 0x40 DUP4 ADD PUSH0 DUP4 ADD MLOAD DUP5 DUP3 SUB PUSH0 DUP7 ADD MSTORE PUSH2 0x2FF DUP3 DUP3 PUSH2 0x295 JUMP JUMPDEST SWAP2 POP POP PUSH1 0x20 DUP4 ADD MLOAD PUSH2 0x314 PUSH1 0x20 DUP7 ADD DUP3 PUSH2 0x2D6 JUMP JUMPDEST POP DUP1 SWAP2 POP POP SWAP3 SWAP2 POP POP JUMP JUMPDEST PUSH0 DUP2 SWAP1 POP SWAP2 SWAP1 POP JUMP JUMPDEST PUSH0 DUP2 SWAP1 POP SWAP2 SWAP1 POP JUMP JUMPDEST PUSH0 PUSH2 0x34B PUSH2 0x346 PUSH2 0x341 DUP5 PUSH2 0x31F JUMP JUMPDEST PUSH2 0x328 JUMP JUMPDEST PUSH2 0x2CD JUMP JUMPDEST SWAP1 POP SWAP2 SWAP1 POP JUMP JUMPDEST PUSH2 0x35B DUP2 PUSH2 0x331 JUMP JUMPDEST DUP3 MSTORE POP POP JUMP JUMPDEST PUSH0 PUSH1 0x60 DUP3 ADD SWAP1 POP PUSH2 0x374 PUSH0 DUP4 ADD DUP7 PUSH2 0x234 JUMP JUMPDEST DUP2 DUP2 SUB PUSH1 0x20 DUP4 ADD MSTORE PUSH2 0x386 DUP2 DUP6 PUSH2 0x2E5 JUMP JUMPDEST SWAP1 POP PUSH2 0x395 PUSH1 0x40 DUP4 ADD DUP5 PUSH2 0x352 JUMP JUMPDEST SWAP5 SWAP4 POP POP POP POP JUMP JUMPDEST PUSH0 DUP2 SWAP1 POP SWAP3 SWAP2 POP POP JUMP JUMPDEST PUSH0 PUSH2 0x3B1 DUP3 PUSH2 0x243 JUMP JUMPDEST PUSH2 0x3BB DUP2 DUP6 PUSH2 0x39D JUMP JUMPDEST SWAP4 POP PUSH2 0x3CB DUP2 DUP6 PUSH1 0x20 DUP7 ADD PUSH2 0x25D JUMP JUMPDEST PUSH2 0x3D4 DUP2 PUSH2 0x285 JUMP JUMPDEST DUP5 ADD SWAP2 POP POP SWAP3 SWAP2 POP POP JUMP JUMPDEST PUSH0 PUSH2 0x3EA DUP4 DUP4 PUSH2 0x3A7 JUMP JUMPDEST SWAP1 POP SWAP3 SWAP2 POP POP JUMP JUMPDEST PUSH2 0x3FB DUP2 PUSH2 0x2CD JUMP JUMPDEST DUP3 MSTORE POP POP JUMP JUMPDEST PUSH0 PUSH2 0x40C DUP4 DUP4 PUSH2 0x3F2 JUMP JUMPDEST PUSH1 0x20 DUP4 ADD SWAP1 POP SWAP3 SWAP2 POP POP JUMP JUMPDEST PUSH0 DUP1 DUP4 ADD PUSH0 DUP4 ADD MLOAD PUSH2 0x42A DUP6 DUP3 PUSH2 0x3DF JUMP JUMPDEST SWAP5 POP POP PUSH1 0x20 DUP4 ADD MLOAD PUSH2 0x43C DUP6 DUP3 PUSH2 0x401 JUMP JUMPDEST SWAP5 POP POP DUP4 SWAP2 POP POP SWAP3 SWAP2 POP POP JUMP JUMPDEST PUSH0 PUSH2 0x454 DUP3 DUP5 PUSH2 0x418 JUMP JUMPDEST SWAP2 POP DUP2 SWAP1 POP SWAP3 SWAP2 POP POP JUMP JUMPDEST PUSH0 DUP3 DUP3 MSTORE PUSH1 0x20 DUP3 ADD SWAP1 POP SWAP3 SWAP2 POP POP JUMP JUMPDEST PUSH32 0x64656C6C00000000000000000000000000000000000000000000000000000000 PUSH0 DUP3 ADD MSTORE POP JUMP JUMPDEST PUSH0 PUSH2 0x4A3 PUSH1 0x4 DUP4 PUSH2 0x45F JUMP JUMPDEST SWAP2 POP PUSH2 0x4AE DUP3 PUSH2 0x46F JUMP JUMPDEST PUSH1 0x20 DUP3 ADD SWAP1 POP SWAP2 SWAP1 POP JUMP JUMPDEST PUSH0 PUSH1 0x20 DUP3 ADD SWAP1 POP DUP2 DUP2 SUB PUSH0 DUP4 ADD MSTORE PUSH2 0x4D0 DUP2 PUSH2 0x497 JUMP JUMPDEST SWAP1 POP SWAP2 SWAP1 POP JUMP JUMPDEST PUSH32 0x4C656E6F766F0000000000000000000000000000000000000000000000000000 PUSH0 DUP3 ADD MSTORE POP JUMP JUMPDEST PUSH0 PUSH2 0x50B PUSH1 0x6 DUP4 PUSH2 0x45F JUMP JUMPDEST SWAP2 POP PUSH2 0x516 DUP3 PUSH2 0x4D7 JUMP JUMPDEST PUSH1 0x20 DUP3 ADD SWAP1 POP SWAP2 SWAP1 POP JUMP JUMPDEST PUSH0 PUSH1 0x40 DUP3 ADD SWAP1 POP DUP2 DUP2 SUB PUSH0 DUP4 ADD MSTORE PUSH2 0x538 DUP2 PUSH2 0x4FF JUMP JUMPDEST SWAP1 POP PUSH2 0x547 PUSH1 0x20 DUP4 ADD DUP5 PUSH2 0x234 JUMP JUMPDEST SWAP3 SWAP2 POP POP JUMP INVALID LOG2 PUSH5 0x6970667358 0x22 SLT KECCAK256 0x21 CHAINID ORIGIN PUSH8 0xD86997862880C3BE 0xC3 GASLIMIT 0xC 0xB9 0x1F 0xAD JUMP 0xED 0xBA 0xFB SWAP8 PUSH32 0xFBFDD1B491DE2BC64736F6C6343000815003300000000000000000000000000 "
		},
		"gasEstimates": {
			"creation": {
				"codeDepositCost": "282200",
				"executionCost": "322",
				"totalCost": "282522"
			},
			"external": {
				"emits()": "infinite"
			}
		},
		"methodIdentifiers": {
			"emits()": "f6fac9f5"
		}
	},
	"abi": [
		{
			"anonymous": false,
			"inputs": [],
			"name": "empty",
			"type": "event"
		},
		{
			"anonymous": false,
			"inputs": [
				{
					"indexed": false,
					"internalType": "string",
					"name": "",
					"type": "string"
				},
				{
					"indexed": false,
					"internalType": "enum Events.Quality",
					"name": "",
					"type": "uint8"
				}
			],
			"name": "mu",
			"type": "event"
		},
		{
			"anonymous": false,
			"inputs": [
				{
					"indexed": false,
					"internalType": "string",
					"name": "laptop",
					"type": "string"
				},
				{
					"indexed": true,
					"internalType": "uint256",
					"name": "price",
					"type": "uint256"
				},
				{
					"indexed": true,
					"internalType": "enum Events.Quality",
					"name": "q",
					"type": "uint8"
				},
				{
					"components": [
						{
							"internalType": "string",
							"name": "microprocessor",
							"type": "string"
						},
						{
							"internalType": "uint256",
							"name": "RAM",
							"type": "uint256"
						}
					],
					"indexed": true,
					"internalType": "struct Events.specs",
					"name": "s",
					"type": "tuple"
				}
			],
			"name": "multiple",
			"type": "event"
		},
		{
			"anonymous": false,
			"inputs": [
				{
					"indexed": false,
					"internalType": "enum Events.Quality",
					"name": "quality",
					"type": "uint8"
				},
				{
					"components": [
						{
							"internalType": "string",
							"name": "microprocessor",
							"type": "string"
						},
						{
							"internalType": "uint256",
							"name": "RAM",
							"type": "uint256"
						}
					],
					"indexed": false,
					"internalType": "struct Events.specs",
					"name": "spec",
					"type": "tuple"
				},
				{
					"indexed": false,
					"internalType": "uint256",
					"name": "ROM",
					"type": "uint256"
				}
			],
			"name": "newevent",
			"type": "event"
		},
		{
			"inputs": [],
			"name": "emits",
			"outputs": [],
			"stateMutability": "nonpayable",
			"type": "function"
		}
	]
}