{
	"data": {
		"bytecode": {
			"linkReferences": {},
			"object": "608060405234801561000f575f80fd5b5061065c8061001d5f395ff3fe608060405234801561000f575f80fd5b506004361061003f575f3560e01c80634522788814610043578063667d3168146100735780639a6577891461007d575b5f80fd5b61005d6004803603810190610058919061037a565b6100ae565b60405161006a9190610497565b60405180910390f35b61007b6100c9565b005b61009760048036038101906100929190610514565b610161565b6040516100a59291906105d7565b60405180910390f35b6100b6610170565b8183602001818152505082905092915050565b60405180604001604052805f60028111156100e7576100e66105f9565b5b8152602001600a8152505f80806002811115610106576101056105f9565b5b6002811115610118576101176105f9565b5b81526020019081526020015f205f820151815f015f6101000a81548160ff0219169083600281111561014d5761014c6105f9565b5b021790555060208201518160010155905050565b365f8383915091509250929050565b6040518060400160405280606081526020015f81525090565b5f604051905090565b5f80fd5b5f80fd5b5f80fd5b5f601f19601f8301169050919050565b7f4e487b71000000000000000000000000000000000000000000000000000000005f52604160045260245ffd5b6101e48261019e565b810181811067ffffffffffffffff82111715610203576102026101ae565b5b80604052505050565b5f610215610189565b905061022182826101db565b919050565b5f80fd5b5f80fd5b5f80fd5b5f67ffffffffffffffff82111561024c5761024b6101ae565b5b6102558261019e565b9050602081019050919050565b828183375f83830152505050565b5f61028261027d84610232565b61020c565b90508281526020810184848401111561029e5761029d61022e565b5b6102a9848285610262565b509392505050565b5f82601f8301126102c5576102c461022a565b5b81356102d5848260208601610270565b91505092915050565b5f819050919050565b6102f0816102de565b81146102fa575f80fd5b50565b5f8135905061030b816102e7565b92915050565b5f604082840312156103265761032561019a565b5b610330604061020c565b90505f82013567ffffffffffffffff81111561034f5761034e610226565b5b61035b848285016102b1565b5f83015250602061036e848285016102fd565b60208301525092915050565b5f80604083850312156103905761038f610192565b5b5f83013567ffffffffffffffff8111156103ad576103ac610196565b5b6103b985828601610311565b92505060206103ca858286016102fd565b9150509250929050565b5f81519050919050565b5f82825260208201905092915050565b5f5b8381101561040b5780820151818401526020810190506103f0565b5f8484015250505050565b5f610420826103d4565b61042a81856103de565b935061043a8185602086016103ee565b6104438161019e565b840191505092915050565b610457816102de565b82525050565b5f604083015f8301518482035f8601526104778282610416565b915050602083015161048c602086018261044e565b508091505092915050565b5f6020820190508181035f8301526104af818461045d565b905092915050565b5f80fd5b5f80fd5b5f8083601f8401126104d4576104d361022a565b5b8235905067ffffffffffffffff8111156104f1576104f06104b7565b5b60208301915083602082028301111561050d5761050c6104bb565b5b9250929050565b5f806020838503121561052a57610529610192565b5b5f83013567ffffffffffffffff81111561054757610546610196565b5b610553858286016104bf565b92509250509250929050565b5f82825260208201905092915050565b5f80fd5b82818337505050565b5f610587838561055f565b93507f07ffffffffffffffffffffffffffffffffffffffffffffffffffffffffffffff8311156105ba576105b961056f565b5b6020830292506105cb838584610573565b82840190509392505050565b5f6020820190508181035f8301526105f081848661057c565b90509392505050565b7f4e487b71000000000000000000000000000000000000000000000000000000005f52602160045260245ffdfea2646970667358221220b8d41be35bcbc02f0be3526787fcfdf34e5dff819e816995426823396f9d00f764736f6c63430008150033",
			"opcodes": "PUSH1 0x80 PUSH1 0x40 MSTORE CALLVALUE DUP1 ISZERO PUSH2 0xF JUMPI PUSH0 DUP1 REVERT JUMPDEST POP PUSH2 0x65C DUP1 PUSH2 0x1D PUSH0 CODECOPY PUSH0 RETURN INVALID PUSH1 0x80 PUSH1 0x40 MSTORE CALLVALUE DUP1 ISZERO PUSH2 0xF JUMPI PUSH0 DUP1 REVERT JUMPDEST POP PUSH1 0x4 CALLDATASIZE LT PUSH2 0x3F JUMPI PUSH0 CALLDATALOAD PUSH1 0xE0 SHR DUP1 PUSH4 0x45227888 EQ PUSH2 0x43 JUMPI DUP1 PUSH4 0x667D3168 EQ PUSH2 0x73 JUMPI DUP1 PUSH4 0x9A657789 EQ PUSH2 0x7D JUMPI JUMPDEST PUSH0 DUP1 REVERT JUMPDEST PUSH2 0x5D PUSH1 0x4 DUP1 CALLDATASIZE SUB DUP2 ADD SWAP1 PUSH2 0x58 SWAP2 SWAP1 PUSH2 0x37A JUMP JUMPDEST PUSH2 0xAE JUMP JUMPDEST PUSH1 0x40 MLOAD PUSH2 0x6A SWAP2 SWAP1 PUSH2 0x497 JUMP JUMPDEST PUSH1 0x40 MLOAD DUP1 SWAP2 SUB SWAP1 RETURN JUMPDEST PUSH2 0x7B PUSH2 0xC9 JUMP JUMPDEST STOP JUMPDEST PUSH2 0x97 PUSH1 0x4 DUP1 CALLDATASIZE SUB DUP2 ADD SWAP1 PUSH2 0x92 SWAP2 SWAP1 PUSH2 0x514 JUMP JUMPDEST PUSH2 0x161 JUMP JUMPDEST PUSH1 0x40 MLOAD PUSH2 0xA5 SWAP3 SWAP2 SWAP1 PUSH2 0x5D7 JUMP JUMPDEST PUSH1 0x40 MLOAD DUP1 SWAP2 SUB SWAP1 RETURN JUMPDEST PUSH2 0xB6 PUSH2 0x170 JUMP JUMPDEST DUP2 DUP4 PUSH1 0x20 ADD DUP2 DUP2 MSTORE POP POP DUP3 SWAP1 POP SWAP3 SWAP2 POP POP JUMP JUMPDEST PUSH1 0x40 MLOAD DUP1 PUSH1 0x40 ADD PUSH1 0x40 MSTORE DUP1 PUSH0 PUSH1 0x2 DUP2 GT ISZERO PUSH2 0xE7 JUMPI PUSH2 0xE6 PUSH2 0x5F9 JUMP JUMPDEST JUMPDEST DUP2 MSTORE PUSH1 0x20 ADD PUSH1 0xA DUP2 MSTORE POP PUSH0 DUP1 DUP1 PUSH1 0x2 DUP2 GT ISZERO PUSH2 0x106 JUMPI PUSH2 0x105 PUSH2 0x5F9 JUMP JUMPDEST JUMPDEST PUSH1 0x2 DUP2 GT ISZERO PUSH2 0x118 JUMPI PUSH2 0x117 PUSH2 0x5F9 JUMP JUMPDEST JUMPDEST DUP2 MSTORE PUSH1 0x20 ADD SWAP1 DUP2 MSTORE PUSH1 0x20 ADD PUSH0 KECCAK256 PUSH0 DUP3 ADD MLOAD DUP2 PUSH0 ADD PUSH0 PUSH2 0x100 EXP DUP2 SLOAD DUP2 PUSH1 0xFF MUL NOT AND SWAP1 DUP4 PUSH1 0x2 DUP2 GT ISZERO PUSH2 0x14D JUMPI PUSH2 0x14C PUSH2 0x5F9 JUMP JUMPDEST JUMPDEST MUL OR SWAP1 SSTORE POP PUSH1 0x20 DUP3 ADD MLOAD DUP2 PUSH1 0x1 ADD SSTORE SWAP1 POP POP JUMP JUMPDEST CALLDATASIZE PUSH0 DUP4 DUP4 SWAP2 POP SWAP2 POP SWAP3 POP SWAP3 SWAP1 POP JUMP JUMPDEST PUSH1 0x40 MLOAD DUP1 PUSH1 0x40 ADD PUSH1 0x40 MSTORE DUP1 PUSH1 0x60 DUP2 MSTORE PUSH1 0x20 ADD PUSH0 DUP2 MSTORE POP SWAP1 JUMP JUMPDEST PUSH0 PUSH1 0x40 MLOAD SWAP1 POP SWAP1 JUMP JUMPDEST PUSH0 DUP1 REVERT JUMPDEST PUSH0 DUP1 REVERT JUMPDEST PUSH0 DUP1 REVERT JUMPDEST PUSH0 PUSH1 0x1F NOT PUSH1 0x1F DUP4 ADD AND SWAP1 POP SWAP2 SWAP1 POP JUMP JUMPDEST PUSH32 0x4E487B7100000000000000000000000000000000000000000000000000000000 PUSH0 MSTORE PUSH1 0x41 PUSH1 0x4 MSTORE PUSH1 0x24 PUSH0 REVERT JUMPDEST PUSH2 0x1E4 DUP3 PUSH2 0x19E JUMP JUMPDEST DUP2 ADD DUP2 DUP2 LT PUSH8 0xFFFFFFFFFFFFFFFF DUP3 GT OR ISZERO PUSH2 0x203 JUMPI PUSH2 0x202 PUSH2 0x1AE JUMP JUMPDEST JUMPDEST DUP1 PUSH1 0x40 MSTORE POP POP POP JUMP JUMPDEST PUSH0 PUSH2 0x215 PUSH2 0x189 JUMP JUMPDEST SWAP1 POP PUSH2 0x221 DUP3 DUP3 PUSH2 0x1DB JUMP JUMPDEST SWAP2 SWAP1 POP JUMP JUMPDEST PUSH0 DUP1 REVERT JUMPDEST PUSH0 DUP1 REVERT JUMPDEST PUSH0 DUP1 REVERT JUMPDEST PUSH0 PUSH8 0xFFFFFFFFFFFFFFFF DUP3 GT ISZERO PUSH2 0x24C JUMPI PUSH2 0x24B PUSH2 0x1AE JUMP JUMPDEST JUMPDEST PUSH2 0x255 DUP3 PUSH2 0x19E JUMP JUMPDEST SWAP1 POP PUSH1 0x20 DUP2 ADD SWAP1 POP SWAP2 SWAP1 POP JUMP JUMPDEST DUP3 DUP2 DUP4 CALLDATACOPY PUSH0 DUP4 DUP4 ADD MSTORE POP POP POP JUMP JUMPDEST PUSH0 PUSH2 0x282 PUSH2 0x27D DUP5 PUSH2 0x232 JUMP JUMPDEST PUSH2 0x20C JUMP JUMPDEST SWAP1 POP DUP3 DUP2 MSTORE PUSH1 0x20 DUP2 ADD DUP5 DUP5 DUP5 ADD GT ISZERO PUSH2 0x29E JUMPI PUSH2 0x29D PUSH2 0x22E JUMP JUMPDEST JUMPDEST PUSH2 0x2A9 DUP5 DUP3 DUP6 PUSH2 0x262 JUMP JUMPDEST POP SWAP4 SWAP3 POP POP POP JUMP JUMPDEST PUSH0 DUP3 PUSH1 0x1F DUP4 ADD SLT PUSH2 0x2C5 JUMPI PUSH2 0x2C4 PUSH2 0x22A JUMP JUMPDEST JUMPDEST DUP2 CALLDATALOAD PUSH2 0x2D5 DUP5 DUP3 PUSH1 0x20 DUP7 ADD PUSH2 0x270 JUMP JUMPDEST SWAP2 POP POP SWAP3 SWAP2 POP POP JUMP JUMPDEST PUSH0 DUP2 SWAP1 POP SWAP2 SWAP1 POP JUMP JUMPDEST PUSH2 0x2F0 DUP2 PUSH2 0x2DE JUMP JUMPDEST DUP2 EQ PUSH2 0x2FA JUMPI PUSH0 DUP1 REVERT JUMPDEST POP JUMP JUMPDEST PUSH0 DUP2 CALLDATALOAD SWAP1 POP PUSH2 0x30B DUP2 PUSH2 0x2E7 JUMP JUMPDEST SWAP3 SWAP2 POP POP JUMP JUMPDEST PUSH0 PUSH1 0x40 DUP3 DUP5 SUB SLT ISZERO PUSH2 0x326 JUMPI PUSH2 0x325 PUSH2 0x19A JUMP JUMPDEST JUMPDEST PUSH2 0x330 PUSH1 0x40 PUSH2 0x20C JUMP JUMPDEST SWAP1 POP PUSH0 DUP3 ADD CALLDATALOAD PUSH8 0xFFFFFFFFFFFFFFFF DUP2 GT ISZERO PUSH2 0x34F JUMPI PUSH2 0x34E PUSH2 0x226 JUMP JUMPDEST JUMPDEST PUSH2 0x35B DUP5 DUP3 DUP6 ADD PUSH2 0x2B1 JUMP JUMPDEST PUSH0 DUP4 ADD MSTORE POP PUSH1 0x20 PUSH2 0x36E DUP5 DUP3 DUP6 ADD PUSH2 0x2FD JUMP JUMPDEST PUSH1 0x20 DUP4 ADD MSTORE POP SWAP3 SWAP2 POP POP JUMP JUMPDEST PUSH0 DUP1 PUSH1 0x40 DUP4 DUP6 SUB SLT ISZERO PUSH2 0x390 JUMPI PUSH2 0x38F PUSH2 0x192 JUMP JUMPDEST JUMPDEST PUSH0 DUP4 ADD CALLDATALOAD PUSH8 0xFFFFFFFFFFFFFFFF DUP2 GT ISZERO PUSH2 0x3AD JUMPI PUSH2 0x3AC PUSH2 0x196 JUMP JUMPDEST JUMPDEST PUSH2 0x3B9 DUP6 DUP3 DUP7 ADD PUSH2 0x311 JUMP JUMPDEST SWAP3 POP POP PUSH1 0x20 PUSH2 0x3CA DUP6 DUP3 DUP7 ADD PUSH2 0x2FD JUMP JUMPDEST SWAP2 POP POP SWAP3 POP SWAP3 SWAP1 POP JUMP JUMPDEST PUSH0 DUP2 MLOAD SWAP1 POP SWAP2 SWAP1 POP JUMP JUMPDEST PUSH0 DUP3 DUP3 MSTORE PUSH1 0x20 DUP3 ADD SWAP1 POP SWAP3 SWAP2 POP POP JUMP JUMPDEST PUSH0 JUMPDEST DUP4 DUP2 LT ISZERO PUSH2 0x40B JUMPI DUP1 DUP3 ADD MLOAD DUP2 DUP5 ADD MSTORE PUSH1 0x20 DUP2 ADD SWAP1 POP PUSH2 0x3F0 JUMP JUMPDEST PUSH0 DUP5 DUP5 ADD MSTORE POP POP POP POP JUMP JUMPDEST PUSH0 PUSH2 0x420 DUP3 PUSH2 0x3D4 JUMP JUMPDEST PUSH2 0x42A DUP2 DUP6 PUSH2 0x3DE JUMP JUMPDEST SWAP4 POP PUSH2 0x43A DUP2 DUP6 PUSH1 0x20 DUP7 ADD PUSH2 0x3EE JUMP JUMPDEST PUSH2 0x443 DUP2 PUSH2 0x19E JUMP JUMPDEST DUP5 ADD SWAP2 POP POP SWAP3 SWAP2 POP POP JUMP JUMPDEST PUSH2 0x457 DUP2 PUSH2 0x2DE JUMP JUMPDEST DUP3 MSTORE POP POP JUMP JUMPDEST PUSH0 PUSH1 0x40 DUP4 ADD PUSH0 DUP4 ADD MLOAD DUP5 DUP3 SUB PUSH0 DUP7 ADD MSTORE PUSH2 0x477 DUP3 DUP3 PUSH2 0x416 JUMP JUMPDEST SWAP2 POP POP PUSH1 0x20 DUP4 ADD MLOAD PUSH2 0x48C PUSH1 0x20 DUP7 ADD DUP3 PUSH2 0x44E JUMP JUMPDEST POP DUP1 SWAP2 POP POP SWAP3 SWAP2 POP POP JUMP JUMPDEST PUSH0 PUSH1 0x20 DUP3 ADD SWAP1 POP DUP2 DUP2 SUB PUSH0 DUP4 ADD MSTORE PUSH2 0x4AF DUP2 DUP5 PUSH2 0x45D JUMP JUMPDEST SWAP1 POP SWAP3 SWAP2 POP POP JUMP JUMPDEST PUSH0 DUP1 REVERT JUMPDEST PUSH0 DUP1 REVERT JUMPDEST PUSH0 DUP1 DUP4 PUSH1 0x1F DUP5 ADD SLT PUSH2 0x4D4 JUMPI PUSH2 0x4D3 PUSH2 0x22A JUMP JUMPDEST JUMPDEST DUP3 CALLDATALOAD SWAP1 POP PUSH8 0xFFFFFFFFFFFFFFFF DUP2 GT ISZERO PUSH2 0x4F1 JUMPI PUSH2 0x4F0 PUSH2 0x4B7 JUMP JUMPDEST JUMPDEST PUSH1 0x20 DUP4 ADD SWAP2 POP DUP4 PUSH1 0x20 DUP3 MUL DUP4 ADD GT ISZERO PUSH2 0x50D JUMPI PUSH2 0x50C PUSH2 0x4BB JUMP JUMPDEST JUMPDEST SWAP3 POP SWAP3 SWAP1 POP JUMP JUMPDEST PUSH0 DUP1 PUSH1 0x20 DUP4 DUP6 SUB SLT ISZERO PUSH2 0x52A JUMPI PUSH2 0x529 PUSH2 0x192 JUMP JUMPDEST JUMPDEST PUSH0 DUP4 ADD CALLDATALOAD PUSH8 0xFFFFFFFFFFFFFFFF DUP2 GT ISZERO PUSH2 0x547 JUMPI PUSH2 0x546 PUSH2 0x196 JUMP JUMPDEST JUMPDEST PUSH2 0x553 DUP6 DUP3 DUP7 ADD PUSH2 0x4BF JUMP JUMPDEST SWAP3 POP SWAP3 POP POP SWAP3 POP SWAP3 SWAP1 POP JUMP JUMPDEST PUSH0 DUP3 DUP3 MSTORE PUSH1 0x20 DUP3 ADD SWAP1 POP SWAP3 SWAP2 POP POP JUMP JUMPDEST PUSH0 DUP1 REVERT JUMPDEST DUP3 DUP2 DUP4 CALLDATACOPY POP POP POP JUMP JUMPDEST PUSH0 PUSH2 0x587 DUP4 DUP6 PUSH2 0x55F JUMP JUMPDEST SWAP4 POP PUSH32 0x7FFFFFFFFFFFFFFFFFFFFFFFFFFFFFFFFFFFFFFFFFFFFFFFFFFFFFFFFFFFFFF DUP4 GT ISZERO PUSH2 0x5BA JUMPI PUSH2 0x5B9 PUSH2 0x56F JUMP JUMPDEST JUMPDEST PUSH1 0x20 DUP4 MUL SWAP3 POP PUSH2 0x5CB DUP4 DUP6 DUP5 PUSH2 0x573 JUMP JUMPDEST DUP3 DUP5 ADD SWAP1 POP SWAP4 SWAP3 POP POP POP JUMP JUMPDEST PUSH0 PUSH1 0x20 DUP3 ADD SWAP1 POP DUP2 DUP2 SUB PUSH0 DUP4 ADD MSTORE PUSH2 0x5F0 DUP2 DUP5 DUP7 PUSH2 0x57C JUMP JUMPDEST SWAP1 POP SWAP4 SWAP3 POP POP POP JUMP JUMPDEST PUSH32 0x4E487B7100000000000000000000000000000000000000000000000000000000 PUSH0 MSTORE PUSH1 0x21 PUSH1 0x4 MSTORE PUSH1 0x24 PUSH0 REVERT INVALID LOG2 PUSH5 0x6970667358 0x22 SLT KECCAK256 0xB8 0xD4 SHL 0xE3 JUMPDEST 0xCB 0xC0 0x2F SIGNEXTEND 0xE3 MSTORE PUSH8 0x87FCFDF34E5DFF81 SWAP15 DUP2 PUSH10 0x95426823396F9D00F764 PUSH20 0x6F6C634300081500330000000000000000000000 "
		},
		"gasEstimates": {
			"creation": {
				"codeDepositCost": "325600",
				"executionCost": "360",
				"totalCost": "325960"
			},
			"external": {
				"fcalldata(uint256[])": "infinite",
				"ff()": "46785",
				"updatePersonAge((string,uint256),uint256)": "infinite"
			}
		},
		"methodIdentifiers": {
			"fcalldata(uint256[])": "9a657789",
			"ff()": "667d3168",
			"updatePersonAge((string,uint256),uint256)": "45227888"
		}
	},
	"abi": [
		{
			"inputs": [
				{
					"internalType": "uint256[]",
					"name": "_x",
					"type": "uint256[]"
				}
			],
			"name": "fcalldata",
			"outputs": [
				{
					"internalType": "uint256[]",
					"name": "",
					"type": "uint256[]"
				}
			],
			"stateMutability": "pure",
			"type": "function"
		},
		{
			"inputs": [],
			"name": "ff",
			"outputs": [],
			"stateMutability": "nonpayable",
			"type": "function"
		},
		{
			"inputs": [
				{
					"components": [
						{
							"internalType": "string",
							"name": "name",
							"type": "string"
						},
						{
							"internalType": "uint256",
							"name": "age",
							"type": "uint256"
						}
					],
					"internalType": "struct hhh.person",
					"name": "_person",
					"type": "tuple"
				},
				{
					"internalType": "uint256",
					"name": "_age",
					"type": "uint256"
				}
			],
			"name": "updatePersonAge",
			"outputs": [
				{
					"components": [
						{
							"internalType": "string",
							"name": "name",
							"type": "string"
						},
						{
							"internalType": "uint256",
							"name": "age",
							"type": "uint256"
						}
					],
					"internalType": "struct hhh.person",
					"name": "",
					"type": "tuple"
				}
			],
			"stateMutability": "pure",
			"type": "function"
		}
	]
}