{
	"data": {
		"bytecode": {
			"linkReferences": {},
			"object": "608060405234801561000f575f80fd5b50610b198061001d5f395ff3fe608060405234801561000f575f80fd5b5060043610610034575f3560e01c8063c2a2747b14610038578063dab8e13314610058575b5f80fd5b610040610074565b60405161004f939291906103df565b60405180910390f35b610072600480360381019061006d9190610589565b610196565b005b5f805f0180546100839061063e565b80601f01602080910402602001604051908101604052809291908181526020018280546100af9061063e565b80156100fa5780601f106100d1576101008083540402835291602001916100fa565b820191905f5260205f20905b8154815290600101906020018083116100dd57829003601f168201915b5050505050908060010154908060020180546101159061063e565b80601f01602080910402602001604051908101604052809291908181526020018280546101419061063e565b801561018c5780601f106101635761010080835404028352916020019161018c565b820191905f5260205f20905b81548152906001019060200180831161016f57829003601f168201915b5050505050905083565b5f806040518060600160405290815f820180546101b29061063e565b80601f01602080910402602001604051908101604052809291908181526020018280546101de9061063e565b80156102295780601f1061020057610100808354040283529160200191610229565b820191905f5260205f20905b81548152906001019060200180831161020c57829003601f168201915b505050505081526020016001820154815260200160028201805461024c9061063e565b80601f01602080910402602001604051908101604052809291908181526020018280546102789061063e565b80156102c35780601f1061029a576101008083540402835291602001916102c3565b820191905f5260205f20905b8154815290600101906020018083116102a657829003601f168201915b5050505050815250509050835f800190816102de919061080b565b50825f60010181905550815f60020190816102f9919061080b565b507f742fbec6c52ce6c2c9087284bf78d22381341f09b818a3dddf916ed2982e5104815f424360405161032f9493929190610a92565b60405180910390a150505050565b5f81519050919050565b5f82825260208201905092915050565b5f5b83811015610374578082015181840152602081019050610359565b5f8484015250505050565b5f601f19601f8301169050919050565b5f6103998261033d565b6103a38185610347565b93506103b3818560208601610357565b6103bc8161037f565b840191505092915050565b5f819050919050565b6103d9816103c7565b82525050565b5f6060820190508181035f8301526103f7818661038f565b905061040660208301856103d0565b8181036040830152610418818461038f565b9050949350505050565b5f604051905090565b5f80fd5b5f80fd5b5f80fd5b5f80fd5b7f4e487b71000000000000000000000000000000000000000000000000000000005f52604160045260245ffd5b6104718261037f565b810181811067ffffffffffffffff821117156104905761048f61043b565b5b80604052505050565b5f6104a2610422565b90506104ae8282610468565b919050565b5f67ffffffffffffffff8211156104cd576104cc61043b565b5b6104d68261037f565b9050602081019050919050565b828183375f83830152505050565b5f6105036104fe846104b3565b610499565b90508281526020810184848401111561051f5761051e610437565b5b61052a8482856104e3565b509392505050565b5f82601f83011261054657610545610433565b5b81356105568482602086016104f1565b91505092915050565b610568816103c7565b8114610572575f80fd5b50565b5f813590506105838161055f565b92915050565b5f805f606084860312156105a05761059f61042b565b5b5f84013567ffffffffffffffff8111156105bd576105bc61042f565b5b6105c986828701610532565b93505060206105da86828701610575565b925050604084013567ffffffffffffffff8111156105fb576105fa61042f565b5b61060786828701610532565b9150509250925092565b7f4e487b71000000000000000000000000000000000000000000000000000000005f52602260045260245ffd5b5f600282049050600182168061065557607f821691505b60208210810361066857610667610611565b5b50919050565b5f819050815f5260205f209050919050565b5f6020601f8301049050919050565b5f82821b905092915050565b5f600883026106ca7fffffffffffffffffffffffffffffffffffffffffffffffffffffffffffffffff8261068f565b6106d4868361068f565b95508019841693508086168417925050509392505050565b5f819050919050565b5f61070f61070a610705846103c7565b6106ec565b6103c7565b9050919050565b5f819050919050565b610728836106f5565b61073c61073482610716565b84845461069b565b825550505050565b5f90565b610750610744565b61075b81848461071f565b505050565b5b8181101561077e576107735f82610748565b600181019050610761565b5050565b601f8211156107c3576107948161066e565b61079d84610680565b810160208510156107ac578190505b6107c06107b885610680565b830182610760565b50505b505050565b5f82821c905092915050565b5f6107e35f19846008026107c8565b1980831691505092915050565b5f6107fb83836107d4565b9150826002028217905092915050565b6108148261033d565b67ffffffffffffffff81111561082d5761082c61043b565b5b610837825461063e565b610842828285610782565b5f60209050601f831160018114610873575f8415610861578287015190505b61086b85826107f0565b8655506108d2565b601f1984166108818661066e565b5f5b828110156108a857848901518255600182019150602085019450602081019050610883565b868310156108c557848901516108c1601f8916826107d4565b8355505b6001600288020188555050505b505050505050565b5f82825260208201905092915050565b5f6108f48261033d565b6108fe81856108da565b935061090e818560208601610357565b6109178161037f565b840191505092915050565b61092b816103c7565b82525050565b5f606083015f8301518482035f86015261094b82826108ea565b91505060208301516109606020860182610922565b506040830151848203604086015261097882826108ea565b9150508091505092915050565b5f81546109918161063e565b61099b81866108da565b9450600182165f81146109b557600181146109cb576109fd565b60ff1983168652811515602002860193506109fd565b6109d48561066e565b5f5b838110156109f5578154818901526001820191506020810190506109d6565b808801955050505b50505092915050565b5f815f1c9050919050565b5f819050919050565b5f610a2c610a2783610a06565b610a11565b9050919050565b5f606083015f8084018583035f870152610a4d8382610985565b92505060018401549050610a6081610a1a565b610a6d6020870182610922565b50600284018583036040870152610a848382610985565b925050819250505092915050565b5f6080820190508181035f830152610aaa8187610931565b90508181036020830152610abe8186610a33565b9050610acd60408301856103d0565b610ada60608301846103d0565b9594505050505056fea264697066735822122095b85ad317af49fb3ec64ae3773dad446af60f729a2edf6bb0bbe0518fac3a4564736f6c63430008150033",
			"opcodes": "PUSH1 0x80 PUSH1 0x40 MSTORE CALLVALUE DUP1 ISZERO PUSH2 0xF JUMPI PUSH0 DUP1 REVERT JUMPDEST POP PUSH2 0xB19 DUP1 PUSH2 0x1D PUSH0 CODECOPY PUSH0 RETURN INVALID PUSH1 0x80 PUSH1 0x40 MSTORE CALLVALUE DUP1 ISZERO PUSH2 0xF JUMPI PUSH0 DUP1 REVERT JUMPDEST POP PUSH1 0x4 CALLDATASIZE LT PUSH2 0x34 JUMPI PUSH0 CALLDATALOAD PUSH1 0xE0 SHR DUP1 PUSH4 0xC2A2747B EQ PUSH2 0x38 JUMPI DUP1 PUSH4 0xDAB8E133 EQ PUSH2 0x58 JUMPI JUMPDEST PUSH0 DUP1 REVERT JUMPDEST PUSH2 0x40 PUSH2 0x74 JUMP JUMPDEST PUSH1 0x40 MLOAD PUSH2 0x4F SWAP4 SWAP3 SWAP2 SWAP1 PUSH2 0x3DF JUMP JUMPDEST PUSH1 0x40 MLOAD DUP1 SWAP2 SUB SWAP1 RETURN JUMPDEST PUSH2 0x72 PUSH1 0x4 DUP1 CALLDATASIZE SUB DUP2 ADD SWAP1 PUSH2 0x6D SWAP2 SWAP1 PUSH2 0x589 JUMP JUMPDEST PUSH2 0x196 JUMP JUMPDEST STOP JUMPDEST PUSH0 DUP1 PUSH0 ADD DUP1 SLOAD PUSH2 0x83 SWAP1 PUSH2 0x63E JUMP JUMPDEST DUP1 PUSH1 0x1F ADD PUSH1 0x20 DUP1 SWAP2 DIV MUL PUSH1 0x20 ADD PUSH1 0x40 MLOAD SWAP1 DUP2 ADD PUSH1 0x40 MSTORE DUP1 SWAP3 SWAP2 SWAP1 DUP2 DUP2 MSTORE PUSH1 0x20 ADD DUP3 DUP1 SLOAD PUSH2 0xAF SWAP1 PUSH2 0x63E JUMP JUMPDEST DUP1 ISZERO PUSH2 0xFA JUMPI DUP1 PUSH1 0x1F LT PUSH2 0xD1 JUMPI PUSH2 0x100 DUP1 DUP4 SLOAD DIV MUL DUP4 MSTORE SWAP2 PUSH1 0x20 ADD SWAP2 PUSH2 0xFA JUMP JUMPDEST DUP3 ADD SWAP2 SWAP1 PUSH0 MSTORE PUSH1 0x20 PUSH0 KECCAK256 SWAP1 JUMPDEST DUP2 SLOAD DUP2 MSTORE SWAP1 PUSH1 0x1 ADD SWAP1 PUSH1 0x20 ADD DUP1 DUP4 GT PUSH2 0xDD JUMPI DUP3 SWAP1 SUB PUSH1 0x1F AND DUP3 ADD SWAP2 JUMPDEST POP POP POP POP POP SWAP1 DUP1 PUSH1 0x1 ADD SLOAD SWAP1 DUP1 PUSH1 0x2 ADD DUP1 SLOAD PUSH2 0x115 SWAP1 PUSH2 0x63E JUMP JUMPDEST DUP1 PUSH1 0x1F ADD PUSH1 0x20 DUP1 SWAP2 DIV MUL PUSH1 0x20 ADD PUSH1 0x40 MLOAD SWAP1 DUP2 ADD PUSH1 0x40 MSTORE DUP1 SWAP3 SWAP2 SWAP1 DUP2 DUP2 MSTORE PUSH1 0x20 ADD DUP3 DUP1 SLOAD PUSH2 0x141 SWAP1 PUSH2 0x63E JUMP JUMPDEST DUP1 ISZERO PUSH2 0x18C JUMPI DUP1 PUSH1 0x1F LT PUSH2 0x163 JUMPI PUSH2 0x100 DUP1 DUP4 SLOAD DIV MUL DUP4 MSTORE SWAP2 PUSH1 0x20 ADD SWAP2 PUSH2 0x18C JUMP JUMPDEST DUP3 ADD SWAP2 SWAP1 PUSH0 MSTORE PUSH1 0x20 PUSH0 KECCAK256 SWAP1 JUMPDEST DUP2 SLOAD DUP2 MSTORE SWAP1 PUSH1 0x1 ADD SWAP1 PUSH1 0x20 ADD DUP1 DUP4 GT PUSH2 0x16F JUMPI DUP3 SWAP1 SUB PUSH1 0x1F AND DUP3 ADD SWAP2 JUMPDEST POP POP POP POP POP SWAP1 POP DUP4 JUMP JUMPDEST PUSH0 DUP1 PUSH1 0x40 MLOAD DUP1 PUSH1 0x60 ADD PUSH1 0x40 MSTORE SWAP1 DUP2 PUSH0 DUP3 ADD DUP1 SLOAD PUSH2 0x1B2 SWAP1 PUSH2 0x63E JUMP JUMPDEST DUP1 PUSH1 0x1F ADD PUSH1 0x20 DUP1 SWAP2 DIV MUL PUSH1 0x20 ADD PUSH1 0x40 MLOAD SWAP1 DUP2 ADD PUSH1 0x40 MSTORE DUP1 SWAP3 SWAP2 SWAP1 DUP2 DUP2 MSTORE PUSH1 0x20 ADD DUP3 DUP1 SLOAD PUSH2 0x1DE SWAP1 PUSH2 0x63E JUMP JUMPDEST DUP1 ISZERO PUSH2 0x229 JUMPI DUP1 PUSH1 0x1F LT PUSH2 0x200 JUMPI PUSH2 0x100 DUP1 DUP4 SLOAD DIV MUL DUP4 MSTORE SWAP2 PUSH1 0x20 ADD SWAP2 PUSH2 0x229 JUMP JUMPDEST DUP3 ADD SWAP2 SWAP1 PUSH0 MSTORE PUSH1 0x20 PUSH0 KECCAK256 SWAP1 JUMPDEST DUP2 SLOAD DUP2 MSTORE SWAP1 PUSH1 0x1 ADD SWAP1 PUSH1 0x20 ADD DUP1 DUP4 GT PUSH2 0x20C JUMPI DUP3 SWAP1 SUB PUSH1 0x1F AND DUP3 ADD SWAP2 JUMPDEST POP POP POP POP POP DUP2 MSTORE PUSH1 0x20 ADD PUSH1 0x1 DUP3 ADD SLOAD DUP2 MSTORE PUSH1 0x20 ADD PUSH1 0x2 DUP3 ADD DUP1 SLOAD PUSH2 0x24C SWAP1 PUSH2 0x63E JUMP JUMPDEST DUP1 PUSH1 0x1F ADD PUSH1 0x20 DUP1 SWAP2 DIV MUL PUSH1 0x20 ADD PUSH1 0x40 MLOAD SWAP1 DUP2 ADD PUSH1 0x40 MSTORE DUP1 SWAP3 SWAP2 SWAP1 DUP2 DUP2 MSTORE PUSH1 0x20 ADD DUP3 DUP1 SLOAD PUSH2 0x278 SWAP1 PUSH2 0x63E JUMP JUMPDEST DUP1 ISZERO PUSH2 0x2C3 JUMPI DUP1 PUSH1 0x1F LT PUSH2 0x29A JUMPI PUSH2 0x100 DUP1 DUP4 SLOAD DIV MUL DUP4 MSTORE SWAP2 PUSH1 0x20 ADD SWAP2 PUSH2 0x2C3 JUMP JUMPDEST DUP3 ADD SWAP2 SWAP1 PUSH0 MSTORE PUSH1 0x20 PUSH0 KECCAK256 SWAP1 JUMPDEST DUP2 SLOAD DUP2 MSTORE SWAP1 PUSH1 0x1 ADD SWAP1 PUSH1 0x20 ADD DUP1 DUP4 GT PUSH2 0x2A6 JUMPI DUP3 SWAP1 SUB PUSH1 0x1F AND DUP3 ADD SWAP2 JUMPDEST POP POP POP POP POP DUP2 MSTORE POP POP SWAP1 POP DUP4 PUSH0 DUP1 ADD SWAP1 DUP2 PUSH2 0x2DE SWAP2 SWAP1 PUSH2 0x80B JUMP JUMPDEST POP DUP3 PUSH0 PUSH1 0x1 ADD DUP2 SWAP1 SSTORE POP DUP2 PUSH0 PUSH1 0x2 ADD SWAP1 DUP2 PUSH2 0x2F9 SWAP2 SWAP1 PUSH2 0x80B JUMP JUMPDEST POP PUSH32 0x742FBEC6C52CE6C2C9087284BF78D22381341F09B818A3DDDF916ED2982E5104 DUP2 PUSH0 TIMESTAMP NUMBER PUSH1 0x40 MLOAD PUSH2 0x32F SWAP5 SWAP4 SWAP3 SWAP2 SWAP1 PUSH2 0xA92 JUMP JUMPDEST PUSH1 0x40 MLOAD DUP1 SWAP2 SUB SWAP1 LOG1 POP POP POP POP JUMP JUMPDEST PUSH0 DUP2 MLOAD SWAP1 POP SWAP2 SWAP1 POP JUMP JUMPDEST PUSH0 DUP3 DUP3 MSTORE PUSH1 0x20 DUP3 ADD SWAP1 POP SWAP3 SWAP2 POP POP JUMP JUMPDEST PUSH0 JUMPDEST DUP4 DUP2 LT ISZERO PUSH2 0x374 JUMPI DUP1 DUP3 ADD MLOAD DUP2 DUP5 ADD MSTORE PUSH1 0x20 DUP2 ADD SWAP1 POP PUSH2 0x359 JUMP JUMPDEST PUSH0 DUP5 DUP5 ADD MSTORE POP POP POP POP JUMP JUMPDEST PUSH0 PUSH1 0x1F NOT PUSH1 0x1F DUP4 ADD AND SWAP1 POP SWAP2 SWAP1 POP JUMP JUMPDEST PUSH0 PUSH2 0x399 DUP3 PUSH2 0x33D JUMP JUMPDEST PUSH2 0x3A3 DUP2 DUP6 PUSH2 0x347 JUMP JUMPDEST SWAP4 POP PUSH2 0x3B3 DUP2 DUP6 PUSH1 0x20 DUP7 ADD PUSH2 0x357 JUMP JUMPDEST PUSH2 0x3BC DUP2 PUSH2 0x37F JUMP JUMPDEST DUP5 ADD SWAP2 POP POP SWAP3 SWAP2 POP POP JUMP JUMPDEST PUSH0 DUP2 SWAP1 POP SWAP2 SWAP1 POP JUMP JUMPDEST PUSH2 0x3D9 DUP2 PUSH2 0x3C7 JUMP JUMPDEST DUP3 MSTORE POP POP JUMP JUMPDEST PUSH0 PUSH1 0x60 DUP3 ADD SWAP1 POP DUP2 DUP2 SUB PUSH0 DUP4 ADD MSTORE PUSH2 0x3F7 DUP2 DUP7 PUSH2 0x38F JUMP JUMPDEST SWAP1 POP PUSH2 0x406 PUSH1 0x20 DUP4 ADD DUP6 PUSH2 0x3D0 JUMP JUMPDEST DUP2 DUP2 SUB PUSH1 0x40 DUP4 ADD MSTORE PUSH2 0x418 DUP2 DUP5 PUSH2 0x38F JUMP JUMPDEST SWAP1 POP SWAP5 SWAP4 POP POP POP POP JUMP JUMPDEST PUSH0 PUSH1 0x40 MLOAD SWAP1 POP SWAP1 JUMP JUMPDEST PUSH0 DUP1 REVERT JUMPDEST PUSH0 DUP1 REVERT JUMPDEST PUSH0 DUP1 REVERT JUMPDEST PUSH0 DUP1 REVERT JUMPDEST PUSH32 0x4E487B7100000000000000000000000000000000000000000000000000000000 PUSH0 MSTORE PUSH1 0x41 PUSH1 0x4 MSTORE PUSH1 0x24 PUSH0 REVERT JUMPDEST PUSH2 0x471 DUP3 PUSH2 0x37F JUMP JUMPDEST DUP2 ADD DUP2 DUP2 LT PUSH8 0xFFFFFFFFFFFFFFFF DUP3 GT OR ISZERO PUSH2 0x490 JUMPI PUSH2 0x48F PUSH2 0x43B JUMP JUMPDEST JUMPDEST DUP1 PUSH1 0x40 MSTORE POP POP POP JUMP JUMPDEST PUSH0 PUSH2 0x4A2 PUSH2 0x422 JUMP JUMPDEST SWAP1 POP PUSH2 0x4AE DUP3 DUP3 PUSH2 0x468 JUMP JUMPDEST SWAP2 SWAP1 POP JUMP JUMPDEST PUSH0 PUSH8 0xFFFFFFFFFFFFFFFF DUP3 GT ISZERO PUSH2 0x4CD JUMPI PUSH2 0x4CC PUSH2 0x43B JUMP JUMPDEST JUMPDEST PUSH2 0x4D6 DUP3 PUSH2 0x37F JUMP JUMPDEST SWAP1 POP PUSH1 0x20 DUP2 ADD SWAP1 POP SWAP2 SWAP1 POP JUMP JUMPDEST DUP3 DUP2 DUP4 CALLDATACOPY PUSH0 DUP4 DUP4 ADD MSTORE POP POP POP JUMP JUMPDEST PUSH0 PUSH2 0x503 PUSH2 0x4FE DUP5 PUSH2 0x4B3 JUMP JUMPDEST PUSH2 0x499 JUMP JUMPDEST SWAP1 POP DUP3 DUP2 MSTORE PUSH1 0x20 DUP2 ADD DUP5 DUP5 DUP5 ADD GT ISZERO PUSH2 0x51F JUMPI PUSH2 0x51E PUSH2 0x437 JUMP JUMPDEST JUMPDEST PUSH2 0x52A DUP5 DUP3 DUP6 PUSH2 0x4E3 JUMP JUMPDEST POP SWAP4 SWAP3 POP POP POP JUMP JUMPDEST PUSH0 DUP3 PUSH1 0x1F DUP4 ADD SLT PUSH2 0x546 JUMPI PUSH2 0x545 PUSH2 0x433 JUMP JUMPDEST JUMPDEST DUP2 CALLDATALOAD PUSH2 0x556 DUP5 DUP3 PUSH1 0x20 DUP7 ADD PUSH2 0x4F1 JUMP JUMPDEST SWAP2 POP POP SWAP3 SWAP2 POP POP JUMP JUMPDEST PUSH2 0x568 DUP2 PUSH2 0x3C7 JUMP JUMPDEST DUP2 EQ PUSH2 0x572 JUMPI PUSH0 DUP1 REVERT JUMPDEST POP JUMP JUMPDEST PUSH0 DUP2 CALLDATALOAD SWAP1 POP PUSH2 0x583 DUP2 PUSH2 0x55F JUMP JUMPDEST SWAP3 SWAP2 POP POP JUMP JUMPDEST PUSH0 DUP1 PUSH0 PUSH1 0x60 DUP5 DUP7 SUB SLT ISZERO PUSH2 0x5A0 JUMPI PUSH2 0x59F PUSH2 0x42B JUMP JUMPDEST JUMPDEST PUSH0 DUP5 ADD CALLDATALOAD PUSH8 0xFFFFFFFFFFFFFFFF DUP2 GT ISZERO PUSH2 0x5BD JUMPI PUSH2 0x5BC PUSH2 0x42F JUMP JUMPDEST JUMPDEST PUSH2 0x5C9 DUP7 DUP3 DUP8 ADD PUSH2 0x532 JUMP JUMPDEST SWAP4 POP POP PUSH1 0x20 PUSH2 0x5DA DUP7 DUP3 DUP8 ADD PUSH2 0x575 JUMP JUMPDEST SWAP3 POP POP PUSH1 0x40 DUP5 ADD CALLDATALOAD PUSH8 0xFFFFFFFFFFFFFFFF DUP2 GT ISZERO PUSH2 0x5FB JUMPI PUSH2 0x5FA PUSH2 0x42F JUMP JUMPDEST JUMPDEST PUSH2 0x607 DUP7 DUP3 DUP8 ADD PUSH2 0x532 JUMP JUMPDEST SWAP2 POP POP SWAP3 POP SWAP3 POP SWAP3 JUMP JUMPDEST PUSH32 0x4E487B7100000000000000000000000000000000000000000000000000000000 PUSH0 MSTORE PUSH1 0x22 PUSH1 0x4 MSTORE PUSH1 0x24 PUSH0 REVERT JUMPDEST PUSH0 PUSH1 0x2 DUP3 DIV SWAP1 POP PUSH1 0x1 DUP3 AND DUP1 PUSH2 0x655 JUMPI PUSH1 0x7F DUP3 AND SWAP2 POP JUMPDEST PUSH1 0x20 DUP3 LT DUP2 SUB PUSH2 0x668 JUMPI PUSH2 0x667 PUSH2 0x611 JUMP JUMPDEST JUMPDEST POP SWAP2 SWAP1 POP JUMP JUMPDEST PUSH0 DUP2 SWAP1 POP DUP2 PUSH0 MSTORE PUSH1 0x20 PUSH0 KECCAK256 SWAP1 POP SWAP2 SWAP1 POP JUMP JUMPDEST PUSH0 PUSH1 0x20 PUSH1 0x1F DUP4 ADD DIV SWAP1 POP SWAP2 SWAP1 POP JUMP JUMPDEST PUSH0 DUP3 DUP3 SHL SWAP1 POP SWAP3 SWAP2 POP POP JUMP JUMPDEST PUSH0 PUSH1 0x8 DUP4 MUL PUSH2 0x6CA PUSH32 0xFFFFFFFFFFFFFFFFFFFFFFFFFFFFFFFFFFFFFFFFFFFFFFFFFFFFFFFFFFFFFFFF DUP3 PUSH2 0x68F JUMP JUMPDEST PUSH2 0x6D4 DUP7 DUP4 PUSH2 0x68F JUMP JUMPDEST SWAP6 POP DUP1 NOT DUP5 AND SWAP4 POP DUP1 DUP7 AND DUP5 OR SWAP3 POP POP POP SWAP4 SWAP3 POP POP POP JUMP JUMPDEST PUSH0 DUP2 SWAP1 POP SWAP2 SWAP1 POP JUMP JUMPDEST PUSH0 PUSH2 0x70F PUSH2 0x70A PUSH2 0x705 DUP5 PUSH2 0x3C7 JUMP JUMPDEST PUSH2 0x6EC JUMP JUMPDEST PUSH2 0x3C7 JUMP JUMPDEST SWAP1 POP SWAP2 SWAP1 POP JUMP JUMPDEST PUSH0 DUP2 SWAP1 POP SWAP2 SWAP1 POP JUMP JUMPDEST PUSH2 0x728 DUP4 PUSH2 0x6F5 JUMP JUMPDEST PUSH2 0x73C PUSH2 0x734 DUP3 PUSH2 0x716 JUMP JUMPDEST DUP5 DUP5 SLOAD PUSH2 0x69B JUMP JUMPDEST DUP3 SSTORE POP POP POP POP JUMP JUMPDEST PUSH0 SWAP1 JUMP JUMPDEST PUSH2 0x750 PUSH2 0x744 JUMP JUMPDEST PUSH2 0x75B DUP2 DUP5 DUP5 PUSH2 0x71F JUMP JUMPDEST POP POP POP JUMP JUMPDEST JUMPDEST DUP2 DUP2 LT ISZERO PUSH2 0x77E JUMPI PUSH2 0x773 PUSH0 DUP3 PUSH2 0x748 JUMP JUMPDEST PUSH1 0x1 DUP2 ADD SWAP1 POP PUSH2 0x761 JUMP JUMPDEST POP POP JUMP JUMPDEST PUSH1 0x1F DUP3 GT ISZERO PUSH2 0x7C3 JUMPI PUSH2 0x794 DUP2 PUSH2 0x66E JUMP JUMPDEST PUSH2 0x79D DUP5 PUSH2 0x680 JUMP JUMPDEST DUP2 ADD PUSH1 0x20 DUP6 LT ISZERO PUSH2 0x7AC JUMPI DUP2 SWAP1 POP JUMPDEST PUSH2 0x7C0 PUSH2 0x7B8 DUP6 PUSH2 0x680 JUMP JUMPDEST DUP4 ADD DUP3 PUSH2 0x760 JUMP JUMPDEST POP POP JUMPDEST POP POP POP JUMP JUMPDEST PUSH0 DUP3 DUP3 SHR SWAP1 POP SWAP3 SWAP2 POP POP JUMP JUMPDEST PUSH0 PUSH2 0x7E3 PUSH0 NOT DUP5 PUSH1 0x8 MUL PUSH2 0x7C8 JUMP JUMPDEST NOT DUP1 DUP4 AND SWAP2 POP POP SWAP3 SWAP2 POP POP JUMP JUMPDEST PUSH0 PUSH2 0x7FB DUP4 DUP4 PUSH2 0x7D4 JUMP JUMPDEST SWAP2 POP DUP3 PUSH1 0x2 MUL DUP3 OR SWAP1 POP SWAP3 SWAP2 POP POP JUMP JUMPDEST PUSH2 0x814 DUP3 PUSH2 0x33D JUMP JUMPDEST PUSH8 0xFFFFFFFFFFFFFFFF DUP2 GT ISZERO PUSH2 0x82D JUMPI PUSH2 0x82C PUSH2 0x43B JUMP JUMPDEST JUMPDEST PUSH2 0x837 DUP3 SLOAD PUSH2 0x63E JUMP JUMPDEST PUSH2 0x842 DUP3 DUP3 DUP6 PUSH2 0x782 JUMP JUMPDEST PUSH0 PUSH1 0x20 SWAP1 POP PUSH1 0x1F DUP4 GT PUSH1 0x1 DUP2 EQ PUSH2 0x873 JUMPI PUSH0 DUP5 ISZERO PUSH2 0x861 JUMPI DUP3 DUP8 ADD MLOAD SWAP1 POP JUMPDEST PUSH2 0x86B DUP6 DUP3 PUSH2 0x7F0 JUMP JUMPDEST DUP7 SSTORE POP PUSH2 0x8D2 JUMP JUMPDEST PUSH1 0x1F NOT DUP5 AND PUSH2 0x881 DUP7 PUSH2 0x66E JUMP JUMPDEST PUSH0 JUMPDEST DUP3 DUP2 LT ISZERO PUSH2 0x8A8 JUMPI DUP5 DUP10 ADD MLOAD DUP3 SSTORE PUSH1 0x1 DUP3 ADD SWAP2 POP PUSH1 0x20 DUP6 ADD SWAP5 POP PUSH1 0x20 DUP2 ADD SWAP1 POP PUSH2 0x883 JUMP JUMPDEST DUP7 DUP4 LT ISZERO PUSH2 0x8C5 JUMPI DUP5 DUP10 ADD MLOAD PUSH2 0x8C1 PUSH1 0x1F DUP10 AND DUP3 PUSH2 0x7D4 JUMP JUMPDEST DUP4 SSTORE POP JUMPDEST PUSH1 0x1 PUSH1 0x2 DUP9 MUL ADD DUP9 SSTORE POP POP POP JUMPDEST POP POP POP POP POP POP JUMP JUMPDEST PUSH0 DUP3 DUP3 MSTORE PUSH1 0x20 DUP3 ADD SWAP1 POP SWAP3 SWAP2 POP POP JUMP JUMPDEST PUSH0 PUSH2 0x8F4 DUP3 PUSH2 0x33D JUMP JUMPDEST PUSH2 0x8FE DUP2 DUP6 PUSH2 0x8DA JUMP JUMPDEST SWAP4 POP PUSH2 0x90E DUP2 DUP6 PUSH1 0x20 DUP7 ADD PUSH2 0x357 JUMP JUMPDEST PUSH2 0x917 DUP2 PUSH2 0x37F JUMP JUMPDEST DUP5 ADD SWAP2 POP POP SWAP3 SWAP2 POP POP JUMP JUMPDEST PUSH2 0x92B DUP2 PUSH2 0x3C7 JUMP JUMPDEST DUP3 MSTORE POP POP JUMP JUMPDEST PUSH0 PUSH1 0x60 DUP4 ADD PUSH0 DUP4 ADD MLOAD DUP5 DUP3 SUB PUSH0 DUP7 ADD MSTORE PUSH2 0x94B DUP3 DUP3 PUSH2 0x8EA JUMP JUMPDEST SWAP2 POP POP PUSH1 0x20 DUP4 ADD MLOAD PUSH2 0x960 PUSH1 0x20 DUP7 ADD DUP3 PUSH2 0x922 JUMP JUMPDEST POP PUSH1 0x40 DUP4 ADD MLOAD DUP5 DUP3 SUB PUSH1 0x40 DUP7 ADD MSTORE PUSH2 0x978 DUP3 DUP3 PUSH2 0x8EA JUMP JUMPDEST SWAP2 POP POP DUP1 SWAP2 POP POP SWAP3 SWAP2 POP POP JUMP JUMPDEST PUSH0 DUP2 SLOAD PUSH2 0x991 DUP2 PUSH2 0x63E JUMP JUMPDEST PUSH2 0x99B DUP2 DUP7 PUSH2 0x8DA JUMP JUMPDEST SWAP5 POP PUSH1 0x1 DUP3 AND PUSH0 DUP2 EQ PUSH2 0x9B5 JUMPI PUSH1 0x1 DUP2 EQ PUSH2 0x9CB JUMPI PUSH2 0x9FD JUMP JUMPDEST PUSH1 0xFF NOT DUP4 AND DUP7 MSTORE DUP2 ISZERO ISZERO PUSH1 0x20 MUL DUP7 ADD SWAP4 POP PUSH2 0x9FD JUMP JUMPDEST PUSH2 0x9D4 DUP6 PUSH2 0x66E JUMP JUMPDEST PUSH0 JUMPDEST DUP4 DUP2 LT ISZERO PUSH2 0x9F5 JUMPI DUP2 SLOAD DUP2 DUP10 ADD MSTORE PUSH1 0x1 DUP3 ADD SWAP2 POP PUSH1 0x20 DUP2 ADD SWAP1 POP PUSH2 0x9D6 JUMP JUMPDEST DUP1 DUP9 ADD SWAP6 POP POP POP JUMPDEST POP POP POP SWAP3 SWAP2 POP POP JUMP JUMPDEST PUSH0 DUP2 PUSH0 SHR SWAP1 POP SWAP2 SWAP1 POP JUMP JUMPDEST PUSH0 DUP2 SWAP1 POP SWAP2 SWAP1 POP JUMP JUMPDEST PUSH0 PUSH2 0xA2C PUSH2 0xA27 DUP4 PUSH2 0xA06 JUMP JUMPDEST PUSH2 0xA11 JUMP JUMPDEST SWAP1 POP SWAP2 SWAP1 POP JUMP JUMPDEST PUSH0 PUSH1 0x60 DUP4 ADD PUSH0 DUP1 DUP5 ADD DUP6 DUP4 SUB PUSH0 DUP8 ADD MSTORE PUSH2 0xA4D DUP4 DUP3 PUSH2 0x985 JUMP JUMPDEST SWAP3 POP POP PUSH1 0x1 DUP5 ADD SLOAD SWAP1 POP PUSH2 0xA60 DUP2 PUSH2 0xA1A JUMP JUMPDEST PUSH2 0xA6D PUSH1 0x20 DUP8 ADD DUP3 PUSH2 0x922 JUMP JUMPDEST POP PUSH1 0x2 DUP5 ADD DUP6 DUP4 SUB PUSH1 0x40 DUP8 ADD MSTORE PUSH2 0xA84 DUP4 DUP3 PUSH2 0x985 JUMP JUMPDEST SWAP3 POP POP DUP2 SWAP3 POP POP POP SWAP3 SWAP2 POP POP JUMP JUMPDEST PUSH0 PUSH1 0x80 DUP3 ADD SWAP1 POP DUP2 DUP2 SUB PUSH0 DUP4 ADD MSTORE PUSH2 0xAAA DUP2 DUP8 PUSH2 0x931 JUMP JUMPDEST SWAP1 POP DUP2 DUP2 SUB PUSH1 0x20 DUP4 ADD MSTORE PUSH2 0xABE DUP2 DUP7 PUSH2 0xA33 JUMP JUMPDEST SWAP1 POP PUSH2 0xACD PUSH1 0x40 DUP4 ADD DUP6 PUSH2 0x3D0 JUMP JUMPDEST PUSH2 0xADA PUSH1 0x60 DUP4 ADD DUP5 PUSH2 0x3D0 JUMP JUMPDEST SWAP6 SWAP5 POP POP POP POP POP JUMP INVALID LOG2 PUSH5 0x6970667358 0x22 SLT KECCAK256 SWAP6 0xB8 GAS 0xD3 OR 0xAF 0x49 0xFB RETURNDATACOPY 0xC6 0x4A 0xE3 PUSH24 0x3DAD446AF60F729A2EDF6BB0BBE0518FAC3A4564736F6C63 NUMBER STOP ADDMOD ISZERO STOP CALLER "
		},
		"gasEstimates": {
			"creation": {
				"codeDepositCost": "568200",
				"executionCost": "598",
				"totalCost": "568798"
			},
			"external": {
				"p1()": "infinite",
				"set(string,uint256,string)": "infinite"
			}
		},
		"methodIdentifiers": {
			"p1()": "c2a2747b",
			"set(string,uint256,string)": "dab8e133"
		}
	},
	"abi": [
		{
			"anonymous": false,
			"inputs": [
				{
					"components": [
						{
							"internalType": "string",
							"name": "name",
							"type": "string"
						},
						{
							"internalType": "uint256",
							"name": "age",
							"type": "uint256"
						},
						{
							"internalType": "string",
							"name": "department",
							"type": "string"
						}
					],
					"indexed": false,
					"internalType": "struct person.personalInfo",
					"name": "oldValue",
					"type": "tuple"
				},
				{
					"components": [
						{
							"internalType": "string",
							"name": "name",
							"type": "string"
						},
						{
							"internalType": "uint256",
							"name": "age",
							"type": "uint256"
						},
						{
							"internalType": "string",
							"name": "department",
							"type": "string"
						}
					],
					"indexed": false,
					"internalType": "struct person.personalInfo",
					"name": "newValue",
					"type": "tuple"
				},
				{
					"indexed": false,
					"internalType": "uint256",
					"name": "timestamp",
					"type": "uint256"
				},
				{
					"indexed": false,
					"internalType": "uint256",
					"name": "blockNumber",
					"type": "uint256"
				}
			],
			"name": "update",
			"type": "event"
		},
		{
			"inputs": [],
			"name": "p1",
			"outputs": [
				{
					"internalType": "string",
					"name": "name",
					"type": "string"
				},
				{
					"internalType": "uint256",
					"name": "age",
					"type": "uint256"
				},
				{
					"internalType": "string",
					"name": "department",
					"type": "string"
				}
			],
			"stateMutability": "view",
			"type": "function"
		},
		{
			"inputs": [
				{
					"internalType": "string",
					"name": "_name",
					"type": "string"
				},
				{
					"internalType": "uint256",
					"name": "_age",
					"type": "uint256"
				},
				{
					"internalType": "string",
					"name": "_dept",
					"type": "string"
				}
			],
			"name": "set",
			"outputs": [],
			"stateMutability": "nonpayable",
			"type": "function"
		}
	]
}