{
	"data": {
		"bytecode": {
			"linkReferences": {},
			"object": "608060405260015f60016101000a81548160ff021916908360038111156100295761002861007a565b5b02179055506003808111156100415761004061007a565b5b5f60026101000a81548160ff021916908360038111156100645761006361007a565b5b0217905550348015610074575f80fd5b506100a7565b7f4e487b71000000000000000000000000000000000000000000000000000000005f52602160045260245ffd5b61030e806100b45f395ff3fe608060405234801561000f575f80fd5b5060043610610060575f3560e01c8063668d0aad146100645780636e2196671461008057806381d01ed31461009e578063993a04b7146100bc578063c2a2747b146100dc578063cf5ab3fb146100fa575b5f80fd5b61007e600480360381019061007991906101ec565b610118565b005b610088610143565b604051610095919061028a565b60405180910390f35b6100a6610155565b6040516100b3919061028a565b60405180910390f35b6100c4610167565b6040516100d3939291906102a3565b60405180910390f35b6100e46101a1565b6040516100f1919061028a565b60405180910390f35b6101026101b1565b60405161010f919061028a565b60405180910390f35b805f806101000a81548160ff0219169083600381111561013b5761013a610217565b5b021790555050565b5f60029054906101000a900460ff1681565b5f60019054906101000a900460ff1681565b5f805f805f9054906101000a900460ff165f60019054906101000a900460ff165f60029054906101000a900460ff16925092509250909192565b5f8054906101000a900460ff1681565b5f805f9054906101000a900460ff16905090565b5f80fd5b600481106101d5575f80fd5b50565b5f813590506101e6816101c9565b92915050565b5f60208284031215610201576102006101c5565b5b5f61020e848285016101d8565b91505092915050565b7f4e487b71000000000000000000000000000000000000000000000000000000005f52602160045260245ffd5b6004811061025557610254610217565b5b50565b5f81905061026582610244565b919050565b5f61027482610258565b9050919050565b6102848161026a565b82525050565b5f60208201905061029d5f83018461027b565b92915050565b5f6060820190506102b65f83018661027b565b6102c3602083018561027b565b6102d0604083018461027b565b94935050505056fea2646970667358221220234692d4424bc63dbcfb87fdfca5a849fde96145bb17b2b6b219f6ce394a00b364736f6c63430008150033",
			"opcodes": "PUSH1 0x80 PUSH1 0x40 MSTORE PUSH1 0x1 PUSH0 PUSH1 0x1 PUSH2 0x100 EXP DUP2 SLOAD DUP2 PUSH1 0xFF MUL NOT AND SWAP1 DUP4 PUSH1 0x3 DUP2 GT ISZERO PUSH2 0x29 JUMPI PUSH2 0x28 PUSH2 0x7A JUMP JUMPDEST JUMPDEST MUL OR SWAP1 SSTORE POP PUSH1 0x3 DUP1 DUP2 GT ISZERO PUSH2 0x41 JUMPI PUSH2 0x40 PUSH2 0x7A JUMP JUMPDEST JUMPDEST PUSH0 PUSH1 0x2 PUSH2 0x100 EXP DUP2 SLOAD DUP2 PUSH1 0xFF MUL NOT AND SWAP1 DUP4 PUSH1 0x3 DUP2 GT ISZERO PUSH2 0x64 JUMPI PUSH2 0x63 PUSH2 0x7A JUMP JUMPDEST JUMPDEST MUL OR SWAP1 SSTORE POP CALLVALUE DUP1 ISZERO PUSH2 0x74 JUMPI PUSH0 DUP1 REVERT JUMPDEST POP PUSH2 0xA7 JUMP JUMPDEST PUSH32 0x4E487B7100000000000000000000000000000000000000000000000000000000 PUSH0 MSTORE PUSH1 0x21 PUSH1 0x4 MSTORE PUSH1 0x24 PUSH0 REVERT JUMPDEST PUSH2 0x30E DUP1 PUSH2 0xB4 PUSH0 CODECOPY PUSH0 RETURN INVALID PUSH1 0x80 PUSH1 0x40 MSTORE CALLVALUE DUP1 ISZERO PUSH2 0xF JUMPI PUSH0 DUP1 REVERT JUMPDEST POP PUSH1 0x4 CALLDATASIZE LT PUSH2 0x60 JUMPI PUSH0 CALLDATALOAD PUSH1 0xE0 SHR DUP1 PUSH4 0x668D0AAD EQ PUSH2 0x64 JUMPI DUP1 PUSH4 0x6E219667 EQ PUSH2 0x80 JUMPI DUP1 PUSH4 0x81D01ED3 EQ PUSH2 0x9E JUMPI DUP1 PUSH4 0x993A04B7 EQ PUSH2 0xBC JUMPI DUP1 PUSH4 0xC2A2747B EQ PUSH2 0xDC JUMPI DUP1 PUSH4 0xCF5AB3FB EQ PUSH2 0xFA JUMPI JUMPDEST PUSH0 DUP1 REVERT JUMPDEST PUSH2 0x7E PUSH1 0x4 DUP1 CALLDATASIZE SUB DUP2 ADD SWAP1 PUSH2 0x79 SWAP2 SWAP1 PUSH2 0x1EC JUMP JUMPDEST PUSH2 0x118 JUMP JUMPDEST STOP JUMPDEST PUSH2 0x88 PUSH2 0x143 JUMP JUMPDEST PUSH1 0x40 MLOAD PUSH2 0x95 SWAP2 SWAP1 PUSH2 0x28A JUMP JUMPDEST PUSH1 0x40 MLOAD DUP1 SWAP2 SUB SWAP1 RETURN JUMPDEST PUSH2 0xA6 PUSH2 0x155 JUMP JUMPDEST PUSH1 0x40 MLOAD PUSH2 0xB3 SWAP2 SWAP1 PUSH2 0x28A JUMP JUMPDEST PUSH1 0x40 MLOAD DUP1 SWAP2 SUB SWAP1 RETURN JUMPDEST PUSH2 0xC4 PUSH2 0x167 JUMP JUMPDEST PUSH1 0x40 MLOAD PUSH2 0xD3 SWAP4 SWAP3 SWAP2 SWAP1 PUSH2 0x2A3 JUMP JUMPDEST PUSH1 0x40 MLOAD DUP1 SWAP2 SUB SWAP1 RETURN JUMPDEST PUSH2 0xE4 PUSH2 0x1A1 JUMP JUMPDEST PUSH1 0x40 MLOAD PUSH2 0xF1 SWAP2 SWAP1 PUSH2 0x28A JUMP JUMPDEST PUSH1 0x40 MLOAD DUP1 SWAP2 SUB SWAP1 RETURN JUMPDEST PUSH2 0x102 PUSH2 0x1B1 JUMP JUMPDEST PUSH1 0x40 MLOAD PUSH2 0x10F SWAP2 SWAP1 PUSH2 0x28A JUMP JUMPDEST PUSH1 0x40 MLOAD DUP1 SWAP2 SUB SWAP1 RETURN JUMPDEST DUP1 PUSH0 DUP1 PUSH2 0x100 EXP DUP2 SLOAD DUP2 PUSH1 0xFF MUL NOT AND SWAP1 DUP4 PUSH1 0x3 DUP2 GT ISZERO PUSH2 0x13B JUMPI PUSH2 0x13A PUSH2 0x217 JUMP JUMPDEST JUMPDEST MUL OR SWAP1 SSTORE POP POP JUMP JUMPDEST PUSH0 PUSH1 0x2 SWAP1 SLOAD SWAP1 PUSH2 0x100 EXP SWAP1 DIV PUSH1 0xFF AND DUP2 JUMP JUMPDEST PUSH0 PUSH1 0x1 SWAP1 SLOAD SWAP1 PUSH2 0x100 EXP SWAP1 DIV PUSH1 0xFF AND DUP2 JUMP JUMPDEST PUSH0 DUP1 PUSH0 DUP1 PUSH0 SWAP1 SLOAD SWAP1 PUSH2 0x100 EXP SWAP1 DIV PUSH1 0xFF AND PUSH0 PUSH1 0x1 SWAP1 SLOAD SWAP1 PUSH2 0x100 EXP SWAP1 DIV PUSH1 0xFF AND PUSH0 PUSH1 0x2 SWAP1 SLOAD SWAP1 PUSH2 0x100 EXP SWAP1 DIV PUSH1 0xFF AND SWAP3 POP SWAP3 POP SWAP3 POP SWAP1 SWAP2 SWAP3 JUMP JUMPDEST PUSH0 DUP1 SLOAD SWAP1 PUSH2 0x100 EXP SWAP1 DIV PUSH1 0xFF AND DUP2 JUMP JUMPDEST PUSH0 DUP1 PUSH0 SWAP1 SLOAD SWAP1 PUSH2 0x100 EXP SWAP1 DIV PUSH1 0xFF AND SWAP1 POP SWAP1 JUMP JUMPDEST PUSH0 DUP1 REVERT JUMPDEST PUSH1 0x4 DUP2 LT PUSH2 0x1D5 JUMPI PUSH0 DUP1 REVERT JUMPDEST POP JUMP JUMPDEST PUSH0 DUP2 CALLDATALOAD SWAP1 POP PUSH2 0x1E6 DUP2 PUSH2 0x1C9 JUMP JUMPDEST SWAP3 SWAP2 POP POP JUMP JUMPDEST PUSH0 PUSH1 0x20 DUP3 DUP5 SUB SLT ISZERO PUSH2 0x201 JUMPI PUSH2 0x200 PUSH2 0x1C5 JUMP JUMPDEST JUMPDEST PUSH0 PUSH2 0x20E DUP5 DUP3 DUP6 ADD PUSH2 0x1D8 JUMP JUMPDEST SWAP2 POP POP SWAP3 SWAP2 POP POP JUMP JUMPDEST PUSH32 0x4E487B7100000000000000000000000000000000000000000000000000000000 PUSH0 MSTORE PUSH1 0x21 PUSH1 0x4 MSTORE PUSH1 0x24 PUSH0 REVERT JUMPDEST PUSH1 0x4 DUP2 LT PUSH2 0x255 JUMPI PUSH2 0x254 PUSH2 0x217 JUMP JUMPDEST JUMPDEST POP JUMP JUMPDEST PUSH0 DUP2 SWAP1 POP PUSH2 0x265 DUP3 PUSH2 0x244 JUMP JUMPDEST SWAP2 SWAP1 POP JUMP JUMPDEST PUSH0 PUSH2 0x274 DUP3 PUSH2 0x258 JUMP JUMPDEST SWAP1 POP SWAP2 SWAP1 POP JUMP JUMPDEST PUSH2 0x284 DUP2 PUSH2 0x26A JUMP JUMPDEST DUP3 MSTORE POP POP JUMP JUMPDEST PUSH0 PUSH1 0x20 DUP3 ADD SWAP1 POP PUSH2 0x29D PUSH0 DUP4 ADD DUP5 PUSH2 0x27B JUMP JUMPDEST SWAP3 SWAP2 POP POP JUMP JUMPDEST PUSH0 PUSH1 0x60 DUP3 ADD SWAP1 POP PUSH2 0x2B6 PUSH0 DUP4 ADD DUP7 PUSH2 0x27B JUMP JUMPDEST PUSH2 0x2C3 PUSH1 0x20 DUP4 ADD DUP6 PUSH2 0x27B JUMP JUMPDEST PUSH2 0x2D0 PUSH1 0x40 DUP4 ADD DUP5 PUSH2 0x27B JUMP JUMPDEST SWAP5 SWAP4 POP POP POP POP JUMP INVALID LOG2 PUSH5 0x6970667358 0x22 SLT KECCAK256 0x23 CHAINID SWAP3 0xD4 TIMESTAMP 0x4B 0xC6 RETURNDATASIZE 0xBC 0xFB DUP8 REVERT 0xFC 0xA5 0xA8 0x49 REVERT 0xE9 PUSH2 0x45BB OR 0xB2 0xB6 0xB2 NOT 0xF6 0xCE CODECOPY 0x4A STOP 0xB3 PUSH5 0x736F6C6343 STOP ADDMOD ISZERO STOP CALLER "
		},
		"gasEstimates": {
			"creation": {
				"codeDepositCost": "156400",
				"executionCost": "48910",
				"totalCost": "205310"
			},
			"external": {
				"getp1()": "2649",
				"getter()": "infinite",
				"p1()": "2617",
				"p2()": "2626",
				"p3()": "2604",
				"setp1(uint8)": "24623"
			}
		},
		"methodIdentifiers": {
			"getp1()": "cf5ab3fb",
			"getter()": "993a04b7",
			"p1()": "c2a2747b",
			"p2()": "81d01ed3",
			"p3()": "6e219667",
			"setp1(uint8)": "668d0aad"
		}
	},
	"abi": [
		{
			"inputs": [],
			"name": "getp1",
			"outputs": [
				{
					"internalType": "enum PizzaDeli.PizzaOrder",
					"name": "",
					"type": "uint8"
				}
			],
			"stateMutability": "view",
			"type": "function"
		},
		{
			"inputs": [],
			"name": "getter",
			"outputs": [
				{
					"internalType": "enum PizzaDeli.PizzaOrder",
					"name": "",
					"type": "uint8"
				},
				{
					"internalType": "enum PizzaDeli.PizzaOrder",
					"name": "",
					"type": "uint8"
				},
				{
					"internalType": "enum PizzaDeli.PizzaOrder",
					"name": "",
					"type": "uint8"
				}
			],
			"stateMutability": "view",
			"type": "function"
		},
		{
			"inputs": [],
			"name": "p1",
			"outputs": [
				{
					"internalType": "enum PizzaDeli.PizzaOrder",
					"name": "",
					"type": "uint8"
				}
			],
			"stateMutability": "view",
			"type": "function"
		},
		{
			"inputs": [],
			"name": "p2",
			"outputs": [
				{
					"internalType": "enum PizzaDeli.PizzaOrder",
					"name": "",
					"type": "uint8"
				}
			],
			"stateMutability": "view",
			"type": "function"
		},
		{
			"inputs": [],
			"name": "p3",
			"outputs": [
				{
					"internalType": "enum PizzaDeli.PizzaOrder",
					"name": "",
					"type": "uint8"
				}
			],
			"stateMutability": "view",
			"type": "function"
		},
		{
			"inputs": [
				{
					"internalType": "enum PizzaDeli.PizzaOrder",
					"name": "_val",
					"type": "uint8"
				}
			],
			"name": "setp1",
			"outputs": [],
			"stateMutability": "nonpayable",
			"type": "function"
		}
	]
}