{
	"data": {
		"bytecode": {
			"linkReferences": {},
			"object": "608060405234801561001057600080fd5b50610b52806100206000396000f3fe608060405234801561001057600080fd5b50600436106100415760003560e01c806377980b6f14610046578063b721ef6e14610062578063c2bc2efc14610094575b600080fd5b610060600480360381019061005b919061060d565b6100c6565b005b61007c60048036038101906100779190610690565b6101ca565b60405161008b939291906107c2565b60405180910390f35b6100ae60048036038101906100a99190610690565b610289565b6040516100bd93929190610800565b60405180910390f35b836000808573ffffffffffffffffffffffffffffffffffffffff1673ffffffffffffffffffffffffffffffffffffffff168152602001908152602001600020600c0160006101000a81548160ff0219169083600681111561012a5761012961074b565b5b0217905550816000808573ffffffffffffffffffffffffffffffffffffffff1673ffffffffffffffffffffffffffffffffffffffff168152602001908152602001600020600001908161017d9190610a4a565b50806000808573ffffffffffffffffffffffffffffffffffffffff1673ffffffffffffffffffffffffffffffffffffffff1681526020019081526020016000206001018190555050505050565b60006020528060005260406000206000915090508060000180546101ed9061086d565b80601f01602080910402602001604051908101604052809291908181526020018280546102199061086d565b80156102665780601f1061023b57610100808354040283529160200191610266565b820191906000526020600020905b81548152906001019060200180831161024957829003601f168201915b50505050509080600101549080600c0160009054906101000a900460ff16905083565b6000606060008060008573ffffffffffffffffffffffffffffffffffffffff1673ffffffffffffffffffffffffffffffffffffffff168152602001908152602001600020600c0160009054906101000a900460ff166000808673ffffffffffffffffffffffffffffffffffffffff1673ffffffffffffffffffffffffffffffffffffffff1681526020019081526020016000206000016000808773ffffffffffffffffffffffffffffffffffffffff1673ffffffffffffffffffffffffffffffffffffffff1681526020019081526020016000206001015481805461036d9061086d565b80601f01602080910402602001604051908101604052809291908181526020018280546103999061086d565b80156103e65780601f106103bb576101008083540402835291602001916103e6565b820191906000526020600020905b8154815290600101906020018083116103c957829003601f168201915b505050505091509250925092509193909250565b6000604051905090565b600080fd5b600080fd5b6007811061041b57600080fd5b50565b60008135905061042d8161040e565b92915050565b600073ffffffffffffffffffffffffffffffffffffffff82169050919050565b600061045e82610433565b9050919050565b61046e81610453565b811461047957600080fd5b50565b60008135905061048b81610465565b92915050565b600080fd5b600080fd5b6000601f19601f8301169050919050565b7f4e487b7100000000000000000000000000000000000000000000000000000000600052604160045260246000fd5b6104e48261049b565b810181811067ffffffffffffffff82111715610503576105026104ac565b5b80604052505050565b60006105166103fa565b905061052282826104db565b919050565b600067ffffffffffffffff821115610542576105416104ac565b5b61054b8261049b565b9050602081019050919050565b82818337600083830152505050565b600061057a61057584610527565b61050c565b90508281526020810184848401111561059657610595610496565b5b6105a1848285610558565b509392505050565b600082601f8301126105be576105bd610491565b5b81356105ce848260208601610567565b91505092915050565b6000819050919050565b6105ea816105d7565b81146105f557600080fd5b50565b600081359050610607816105e1565b92915050565b6000806000806080858703121561062757610626610404565b5b60006106358782880161041e565b94505060206106468782880161047c565b935050604085013567ffffffffffffffff81111561066757610666610409565b5b610673878288016105a9565b9250506060610684878288016105f8565b91505092959194509250565b6000602082840312156106a6576106a5610404565b5b60006106b48482850161047c565b91505092915050565b600081519050919050565b600082825260208201905092915050565b60005b838110156106f75780820151818401526020810190506106dc565b60008484015250505050565b600061070e826106bd565b61071881856106c8565b93506107288185602086016106d9565b6107318161049b565b840191505092915050565b610745816105d7565b82525050565b7f4e487b7100000000000000000000000000000000000000000000000000000000600052602160045260246000fd5b6007811061078b5761078a61074b565b5b50565b600081905061079c8261077a565b919050565b60006107ac8261078e565b9050919050565b6107bc816107a1565b82525050565b600060608201905081810360008301526107dc8186610703565b90506107eb602083018561073c565b6107f860408301846107b3565b949350505050565b600060608201905061081560008301866107b3565b81810360208301526108278185610703565b9050610836604083018461073c565b949350505050565b7f4e487b7100000000000000000000000000000000000000000000000000000000600052602260045260246000fd5b6000600282049050600182168061088557607f821691505b6020821081036108985761089761083e565b5b50919050565b60008190508160005260206000209050919050565b60006020601f8301049050919050565b600082821b905092915050565b6000600883026109007fffffffffffffffffffffffffffffffffffffffffffffffffffffffffffffffff826108c3565b61090a86836108c3565b95508019841693508086168417925050509392505050565b6000819050919050565b600061094761094261093d846105d7565b610922565b6105d7565b9050919050565b6000819050919050565b6109618361092c565b61097561096d8261094e565b8484546108d0565b825550505050565b600090565b61098a61097d565b610995818484610958565b505050565b5b818110156109b9576109ae600082610982565b60018101905061099b565b5050565b601f8211156109fe576109cf8161089e565b6109d8846108b3565b810160208510156109e7578190505b6109fb6109f3856108b3565b83018261099a565b50505b505050565b600082821c905092915050565b6000610a2160001984600802610a03565b1980831691505092915050565b6000610a3a8383610a10565b9150826002028217905092915050565b610a53826106bd565b67ffffffffffffffff811115610a6c57610a6b6104ac565b5b610a76825461086d565b610a818282856109bd565b600060209050601f831160018114610ab45760008415610aa2578287015190505b610aac8582610a2e565b865550610b14565b601f198416610ac28661089e565b60005b82811015610aea57848901518255600182019150602085019450602081019050610ac5565b86831015610b075784890151610b03601f891682610a10565b8355505b6001600288020188555050505b50505050505056fea264697066735822122050284678b7975376cb9fbc154bfad2edd79575e8a02932e269654696d80fd37d64736f6c63430008120033",
			"opcodes": "PUSH1 0x80 PUSH1 0x40 MSTORE CALLVALUE DUP1 ISZERO PUSH2 0x10 JUMPI PUSH1 0x0 DUP1 REVERT JUMPDEST POP PUSH2 0xB52 DUP1 PUSH2 0x20 PUSH1 0x0 CODECOPY PUSH1 0x0 RETURN INVALID PUSH1 0x80 PUSH1 0x40 MSTORE CALLVALUE DUP1 ISZERO PUSH2 0x10 JUMPI PUSH1 0x0 DUP1 REVERT JUMPDEST POP PUSH1 0x4 CALLDATASIZE LT PUSH2 0x41 JUMPI PUSH1 0x0 CALLDATALOAD PUSH1 0xE0 SHR DUP1 PUSH4 0x77980B6F EQ PUSH2 0x46 JUMPI DUP1 PUSH4 0xB721EF6E EQ PUSH2 0x62 JUMPI DUP1 PUSH4 0xC2BC2EFC EQ PUSH2 0x94 JUMPI JUMPDEST PUSH1 0x0 DUP1 REVERT JUMPDEST PUSH2 0x60 PUSH1 0x4 DUP1 CALLDATASIZE SUB DUP2 ADD SWAP1 PUSH2 0x5B SWAP2 SWAP1 PUSH2 0x60D JUMP JUMPDEST PUSH2 0xC6 JUMP JUMPDEST STOP JUMPDEST PUSH2 0x7C PUSH1 0x4 DUP1 CALLDATASIZE SUB DUP2 ADD SWAP1 PUSH2 0x77 SWAP2 SWAP1 PUSH2 0x690 JUMP JUMPDEST PUSH2 0x1CA JUMP JUMPDEST PUSH1 0x40 MLOAD PUSH2 0x8B SWAP4 SWAP3 SWAP2 SWAP1 PUSH2 0x7C2 JUMP JUMPDEST PUSH1 0x40 MLOAD DUP1 SWAP2 SUB SWAP1 RETURN JUMPDEST PUSH2 0xAE PUSH1 0x4 DUP1 CALLDATASIZE SUB DUP2 ADD SWAP1 PUSH2 0xA9 SWAP2 SWAP1 PUSH2 0x690 JUMP JUMPDEST PUSH2 0x289 JUMP JUMPDEST PUSH1 0x40 MLOAD PUSH2 0xBD SWAP4 SWAP3 SWAP2 SWAP1 PUSH2 0x800 JUMP JUMPDEST PUSH1 0x40 MLOAD DUP1 SWAP2 SUB SWAP1 RETURN JUMPDEST DUP4 PUSH1 0x0 DUP1 DUP6 PUSH20 0xFFFFFFFFFFFFFFFFFFFFFFFFFFFFFFFFFFFFFFFF AND PUSH20 0xFFFFFFFFFFFFFFFFFFFFFFFFFFFFFFFFFFFFFFFF AND DUP2 MSTORE PUSH1 0x20 ADD SWAP1 DUP2 MSTORE PUSH1 0x20 ADD PUSH1 0x0 KECCAK256 PUSH1 0xC ADD PUSH1 0x0 PUSH2 0x100 EXP DUP2 SLOAD DUP2 PUSH1 0xFF MUL NOT AND SWAP1 DUP4 PUSH1 0x6 DUP2 GT ISZERO PUSH2 0x12A JUMPI PUSH2 0x129 PUSH2 0x74B JUMP JUMPDEST JUMPDEST MUL OR SWAP1 SSTORE POP DUP2 PUSH1 0x0 DUP1 DUP6 PUSH20 0xFFFFFFFFFFFFFFFFFFFFFFFFFFFFFFFFFFFFFFFF AND PUSH20 0xFFFFFFFFFFFFFFFFFFFFFFFFFFFFFFFFFFFFFFFF AND DUP2 MSTORE PUSH1 0x20 ADD SWAP1 DUP2 MSTORE PUSH1 0x20 ADD PUSH1 0x0 KECCAK256 PUSH1 0x0 ADD SWAP1 DUP2 PUSH2 0x17D SWAP2 SWAP1 PUSH2 0xA4A JUMP JUMPDEST POP DUP1 PUSH1 0x0 DUP1 DUP6 PUSH20 0xFFFFFFFFFFFFFFFFFFFFFFFFFFFFFFFFFFFFFFFF AND PUSH20 0xFFFFFFFFFFFFFFFFFFFFFFFFFFFFFFFFFFFFFFFF AND DUP2 MSTORE PUSH1 0x20 ADD SWAP1 DUP2 MSTORE PUSH1 0x20 ADD PUSH1 0x0 KECCAK256 PUSH1 0x1 ADD DUP2 SWAP1 SSTORE POP POP POP POP POP JUMP JUMPDEST PUSH1 0x0 PUSH1 0x20 MSTORE DUP1 PUSH1 0x0 MSTORE PUSH1 0x40 PUSH1 0x0 KECCAK256 PUSH1 0x0 SWAP2 POP SWAP1 POP DUP1 PUSH1 0x0 ADD DUP1 SLOAD PUSH2 0x1ED SWAP1 PUSH2 0x86D JUMP JUMPDEST DUP1 PUSH1 0x1F ADD PUSH1 0x20 DUP1 SWAP2 DIV MUL PUSH1 0x20 ADD PUSH1 0x40 MLOAD SWAP1 DUP2 ADD PUSH1 0x40 MSTORE DUP1 SWAP3 SWAP2 SWAP1 DUP2 DUP2 MSTORE PUSH1 0x20 ADD DUP3 DUP1 SLOAD PUSH2 0x219 SWAP1 PUSH2 0x86D JUMP JUMPDEST DUP1 ISZERO PUSH2 0x266 JUMPI DUP1 PUSH1 0x1F LT PUSH2 0x23B JUMPI PUSH2 0x100 DUP1 DUP4 SLOAD DIV MUL DUP4 MSTORE SWAP2 PUSH1 0x20 ADD SWAP2 PUSH2 0x266 JUMP JUMPDEST DUP3 ADD SWAP2 SWAP1 PUSH1 0x0 MSTORE PUSH1 0x20 PUSH1 0x0 KECCAK256 SWAP1 JUMPDEST DUP2 SLOAD DUP2 MSTORE SWAP1 PUSH1 0x1 ADD SWAP1 PUSH1 0x20 ADD DUP1 DUP4 GT PUSH2 0x249 JUMPI DUP3 SWAP1 SUB PUSH1 0x1F AND DUP3 ADD SWAP2 JUMPDEST POP POP POP POP POP SWAP1 DUP1 PUSH1 0x1 ADD SLOAD SWAP1 DUP1 PUSH1 0xC ADD PUSH1 0x0 SWAP1 SLOAD SWAP1 PUSH2 0x100 EXP SWAP1 DIV PUSH1 0xFF AND SWAP1 POP DUP4 JUMP JUMPDEST PUSH1 0x0 PUSH1 0x60 PUSH1 0x0 DUP1 PUSH1 0x0 DUP6 PUSH20 0xFFFFFFFFFFFFFFFFFFFFFFFFFFFFFFFFFFFFFFFF AND PUSH20 0xFFFFFFFFFFFFFFFFFFFFFFFFFFFFFFFFFFFFFFFF AND DUP2 MSTORE PUSH1 0x20 ADD SWAP1 DUP2 MSTORE PUSH1 0x20 ADD PUSH1 0x0 KECCAK256 PUSH1 0xC ADD PUSH1 0x0 SWAP1 SLOAD SWAP1 PUSH2 0x100 EXP SWAP1 DIV PUSH1 0xFF AND PUSH1 0x0 DUP1 DUP7 PUSH20 0xFFFFFFFFFFFFFFFFFFFFFFFFFFFFFFFFFFFFFFFF AND PUSH20 0xFFFFFFFFFFFFFFFFFFFFFFFFFFFFFFFFFFFFFFFF AND DUP2 MSTORE PUSH1 0x20 ADD SWAP1 DUP2 MSTORE PUSH1 0x20 ADD PUSH1 0x0 KECCAK256 PUSH1 0x0 ADD PUSH1 0x0 DUP1 DUP8 PUSH20 0xFFFFFFFFFFFFFFFFFFFFFFFFFFFFFFFFFFFFFFFF AND PUSH20 0xFFFFFFFFFFFFFFFFFFFFFFFFFFFFFFFFFFFFFFFF AND DUP2 MSTORE PUSH1 0x20 ADD SWAP1 DUP2 MSTORE PUSH1 0x20 ADD PUSH1 0x0 KECCAK256 PUSH1 0x1 ADD SLOAD DUP2 DUP1 SLOAD PUSH2 0x36D SWAP1 PUSH2 0x86D JUMP JUMPDEST DUP1 PUSH1 0x1F ADD PUSH1 0x20 DUP1 SWAP2 DIV MUL PUSH1 0x20 ADD PUSH1 0x40 MLOAD SWAP1 DUP2 ADD PUSH1 0x40 MSTORE DUP1 SWAP3 SWAP2 SWAP1 DUP2 DUP2 MSTORE PUSH1 0x20 ADD DUP3 DUP1 SLOAD PUSH2 0x399 SWAP1 PUSH2 0x86D JUMP JUMPDEST DUP1 ISZERO PUSH2 0x3E6 JUMPI DUP1 PUSH1 0x1F LT PUSH2 0x3BB JUMPI PUSH2 0x100 DUP1 DUP4 SLOAD DIV MUL DUP4 MSTORE SWAP2 PUSH1 0x20 ADD SWAP2 PUSH2 0x3E6 JUMP JUMPDEST DUP3 ADD SWAP2 SWAP1 PUSH1 0x0 MSTORE PUSH1 0x20 PUSH1 0x0 KECCAK256 SWAP1 JUMPDEST DUP2 SLOAD DUP2 MSTORE SWAP1 PUSH1 0x1 ADD SWAP1 PUSH1 0x20 ADD DUP1 DUP4 GT PUSH2 0x3C9 JUMPI DUP3 SWAP1 SUB PUSH1 0x1F AND DUP3 ADD SWAP2 JUMPDEST POP POP POP POP POP SWAP2 POP SWAP3 POP SWAP3 POP SWAP3 POP SWAP2 SWAP4 SWAP1 SWAP3 POP JUMP JUMPDEST PUSH1 0x0 PUSH1 0x40 MLOAD SWAP1 POP SWAP1 JUMP JUMPDEST PUSH1 0x0 DUP1 REVERT JUMPDEST PUSH1 0x0 DUP1 REVERT JUMPDEST PUSH1 0x7 DUP2 LT PUSH2 0x41B JUMPI PUSH1 0x0 DUP1 REVERT JUMPDEST POP JUMP JUMPDEST PUSH1 0x0 DUP2 CALLDATALOAD SWAP1 POP PUSH2 0x42D DUP2 PUSH2 0x40E JUMP JUMPDEST SWAP3 SWAP2 POP POP JUMP JUMPDEST PUSH1 0x0 PUSH20 0xFFFFFFFFFFFFFFFFFFFFFFFFFFFFFFFFFFFFFFFF DUP3 AND SWAP1 POP SWAP2 SWAP1 POP JUMP JUMPDEST PUSH1 0x0 PUSH2 0x45E DUP3 PUSH2 0x433 JUMP JUMPDEST SWAP1 POP SWAP2 SWAP1 POP JUMP JUMPDEST PUSH2 0x46E DUP2 PUSH2 0x453 JUMP JUMPDEST DUP2 EQ PUSH2 0x479 JUMPI PUSH1 0x0 DUP1 REVERT JUMPDEST POP JUMP JUMPDEST PUSH1 0x0 DUP2 CALLDATALOAD SWAP1 POP PUSH2 0x48B DUP2 PUSH2 0x465 JUMP JUMPDEST SWAP3 SWAP2 POP POP JUMP JUMPDEST PUSH1 0x0 DUP1 REVERT JUMPDEST PUSH1 0x0 DUP1 REVERT JUMPDEST PUSH1 0x0 PUSH1 0x1F NOT PUSH1 0x1F DUP4 ADD AND SWAP1 POP SWAP2 SWAP1 POP JUMP JUMPDEST PUSH32 0x4E487B7100000000000000000000000000000000000000000000000000000000 PUSH1 0x0 MSTORE PUSH1 0x41 PUSH1 0x4 MSTORE PUSH1 0x24 PUSH1 0x0 REVERT JUMPDEST PUSH2 0x4E4 DUP3 PUSH2 0x49B JUMP JUMPDEST DUP2 ADD DUP2 DUP2 LT PUSH8 0xFFFFFFFFFFFFFFFF DUP3 GT OR ISZERO PUSH2 0x503 JUMPI PUSH2 0x502 PUSH2 0x4AC JUMP JUMPDEST JUMPDEST DUP1 PUSH1 0x40 MSTORE POP POP POP JUMP JUMPDEST PUSH1 0x0 PUSH2 0x516 PUSH2 0x3FA JUMP JUMPDEST SWAP1 POP PUSH2 0x522 DUP3 DUP3 PUSH2 0x4DB JUMP JUMPDEST SWAP2 SWAP1 POP JUMP JUMPDEST PUSH1 0x0 PUSH8 0xFFFFFFFFFFFFFFFF DUP3 GT ISZERO PUSH2 0x542 JUMPI PUSH2 0x541 PUSH2 0x4AC JUMP JUMPDEST JUMPDEST PUSH2 0x54B DUP3 PUSH2 0x49B JUMP JUMPDEST SWAP1 POP PUSH1 0x20 DUP2 ADD SWAP1 POP SWAP2 SWAP1 POP JUMP JUMPDEST DUP3 DUP2 DUP4 CALLDATACOPY PUSH1 0x0 DUP4 DUP4 ADD MSTORE POP POP POP JUMP JUMPDEST PUSH1 0x0 PUSH2 0x57A PUSH2 0x575 DUP5 PUSH2 0x527 JUMP JUMPDEST PUSH2 0x50C JUMP JUMPDEST SWAP1 POP DUP3 DUP2 MSTORE PUSH1 0x20 DUP2 ADD DUP5 DUP5 DUP5 ADD GT ISZERO PUSH2 0x596 JUMPI PUSH2 0x595 PUSH2 0x496 JUMP JUMPDEST JUMPDEST PUSH2 0x5A1 DUP5 DUP3 DUP6 PUSH2 0x558 JUMP JUMPDEST POP SWAP4 SWAP3 POP POP POP JUMP JUMPDEST PUSH1 0x0 DUP3 PUSH1 0x1F DUP4 ADD SLT PUSH2 0x5BE JUMPI PUSH2 0x5BD PUSH2 0x491 JUMP JUMPDEST JUMPDEST DUP2 CALLDATALOAD PUSH2 0x5CE DUP5 DUP3 PUSH1 0x20 DUP7 ADD PUSH2 0x567 JUMP JUMPDEST SWAP2 POP POP SWAP3 SWAP2 POP POP JUMP JUMPDEST PUSH1 0x0 DUP2 SWAP1 POP SWAP2 SWAP1 POP JUMP JUMPDEST PUSH2 0x5EA DUP2 PUSH2 0x5D7 JUMP JUMPDEST DUP2 EQ PUSH2 0x5F5 JUMPI PUSH1 0x0 DUP1 REVERT JUMPDEST POP JUMP JUMPDEST PUSH1 0x0 DUP2 CALLDATALOAD SWAP1 POP PUSH2 0x607 DUP2 PUSH2 0x5E1 JUMP JUMPDEST SWAP3 SWAP2 POP POP JUMP JUMPDEST PUSH1 0x0 DUP1 PUSH1 0x0 DUP1 PUSH1 0x80 DUP6 DUP8 SUB SLT ISZERO PUSH2 0x627 JUMPI PUSH2 0x626 PUSH2 0x404 JUMP JUMPDEST JUMPDEST PUSH1 0x0 PUSH2 0x635 DUP8 DUP3 DUP9 ADD PUSH2 0x41E JUMP JUMPDEST SWAP5 POP POP PUSH1 0x20 PUSH2 0x646 DUP8 DUP3 DUP9 ADD PUSH2 0x47C JUMP JUMPDEST SWAP4 POP POP PUSH1 0x40 DUP6 ADD CALLDATALOAD PUSH8 0xFFFFFFFFFFFFFFFF DUP2 GT ISZERO PUSH2 0x667 JUMPI PUSH2 0x666 PUSH2 0x409 JUMP JUMPDEST JUMPDEST PUSH2 0x673 DUP8 DUP3 DUP9 ADD PUSH2 0x5A9 JUMP JUMPDEST SWAP3 POP POP PUSH1 0x60 PUSH2 0x684 DUP8 DUP3 DUP9 ADD PUSH2 0x5F8 JUMP JUMPDEST SWAP2 POP POP SWAP3 SWAP6 SWAP2 SWAP5 POP SWAP3 POP JUMP JUMPDEST PUSH1 0x0 PUSH1 0x20 DUP3 DUP5 SUB SLT ISZERO PUSH2 0x6A6 JUMPI PUSH2 0x6A5 PUSH2 0x404 JUMP JUMPDEST JUMPDEST PUSH1 0x0 PUSH2 0x6B4 DUP5 DUP3 DUP6 ADD PUSH2 0x47C JUMP JUMPDEST SWAP2 POP POP SWAP3 SWAP2 POP POP JUMP JUMPDEST PUSH1 0x0 DUP2 MLOAD SWAP1 POP SWAP2 SWAP1 POP JUMP JUMPDEST PUSH1 0x0 DUP3 DUP3 MSTORE PUSH1 0x20 DUP3 ADD SWAP1 POP SWAP3 SWAP2 POP POP JUMP JUMPDEST PUSH1 0x0 JUMPDEST DUP4 DUP2 LT ISZERO PUSH2 0x6F7 JUMPI DUP1 DUP3 ADD MLOAD DUP2 DUP5 ADD MSTORE PUSH1 0x20 DUP2 ADD SWAP1 POP PUSH2 0x6DC JUMP JUMPDEST PUSH1 0x0 DUP5 DUP5 ADD MSTORE POP POP POP POP JUMP JUMPDEST PUSH1 0x0 PUSH2 0x70E DUP3 PUSH2 0x6BD JUMP JUMPDEST PUSH2 0x718 DUP2 DUP6 PUSH2 0x6C8 JUMP JUMPDEST SWAP4 POP PUSH2 0x728 DUP2 DUP6 PUSH1 0x20 DUP7 ADD PUSH2 0x6D9 JUMP JUMPDEST PUSH2 0x731 DUP2 PUSH2 0x49B JUMP JUMPDEST DUP5 ADD SWAP2 POP POP SWAP3 SWAP2 POP POP JUMP JUMPDEST PUSH2 0x745 DUP2 PUSH2 0x5D7 JUMP JUMPDEST DUP3 MSTORE POP POP JUMP JUMPDEST PUSH32 0x4E487B7100000000000000000000000000000000000000000000000000000000 PUSH1 0x0 MSTORE PUSH1 0x21 PUSH1 0x4 MSTORE PUSH1 0x24 PUSH1 0x0 REVERT JUMPDEST PUSH1 0x7 DUP2 LT PUSH2 0x78B JUMPI PUSH2 0x78A PUSH2 0x74B JUMP JUMPDEST JUMPDEST POP JUMP JUMPDEST PUSH1 0x0 DUP2 SWAP1 POP PUSH2 0x79C DUP3 PUSH2 0x77A JUMP JUMPDEST SWAP2 SWAP1 POP JUMP JUMPDEST PUSH1 0x0 PUSH2 0x7AC DUP3 PUSH2 0x78E JUMP JUMPDEST SWAP1 POP SWAP2 SWAP1 POP JUMP JUMPDEST PUSH2 0x7BC DUP2 PUSH2 0x7A1 JUMP JUMPDEST DUP3 MSTORE POP POP JUMP JUMPDEST PUSH1 0x0 PUSH1 0x60 DUP3 ADD SWAP1 POP DUP2 DUP2 SUB PUSH1 0x0 DUP4 ADD MSTORE PUSH2 0x7DC DUP2 DUP7 PUSH2 0x703 JUMP JUMPDEST SWAP1 POP PUSH2 0x7EB PUSH1 0x20 DUP4 ADD DUP6 PUSH2 0x73C JUMP JUMPDEST PUSH2 0x7F8 PUSH1 0x40 DUP4 ADD DUP5 PUSH2 0x7B3 JUMP JUMPDEST SWAP5 SWAP4 POP POP POP POP JUMP JUMPDEST PUSH1 0x0 PUSH1 0x60 DUP3 ADD SWAP1 POP PUSH2 0x815 PUSH1 0x0 DUP4 ADD DUP7 PUSH2 0x7B3 JUMP JUMPDEST DUP2 DUP2 SUB PUSH1 0x20 DUP4 ADD MSTORE PUSH2 0x827 DUP2 DUP6 PUSH2 0x703 JUMP JUMPDEST SWAP1 POP PUSH2 0x836 PUSH1 0x40 DUP4 ADD DUP5 PUSH2 0x73C JUMP JUMPDEST SWAP5 SWAP4 POP POP POP POP JUMP JUMPDEST PUSH32 0x4E487B7100000000000000000000000000000000000000000000000000000000 PUSH1 0x0 MSTORE PUSH1 0x22 PUSH1 0x4 MSTORE PUSH1 0x24 PUSH1 0x0 REVERT JUMPDEST PUSH1 0x0 PUSH1 0x2 DUP3 DIV SWAP1 POP PUSH1 0x1 DUP3 AND DUP1 PUSH2 0x885 JUMPI PUSH1 0x7F DUP3 AND SWAP2 POP JUMPDEST PUSH1 0x20 DUP3 LT DUP2 SUB PUSH2 0x898 JUMPI PUSH2 0x897 PUSH2 0x83E JUMP JUMPDEST JUMPDEST POP SWAP2 SWAP1 POP JUMP JUMPDEST PUSH1 0x0 DUP2 SWAP1 POP DUP2 PUSH1 0x0 MSTORE PUSH1 0x20 PUSH1 0x0 KECCAK256 SWAP1 POP SWAP2 SWAP1 POP JUMP JUMPDEST PUSH1 0x0 PUSH1 0x20 PUSH1 0x1F DUP4 ADD DIV SWAP1 POP SWAP2 SWAP1 POP JUMP JUMPDEST PUSH1 0x0 DUP3 DUP3 SHL SWAP1 POP SWAP3 SWAP2 POP POP JUMP JUMPDEST PUSH1 0x0 PUSH1 0x8 DUP4 MUL PUSH2 0x900 PUSH32 0xFFFFFFFFFFFFFFFFFFFFFFFFFFFFFFFFFFFFFFFFFFFFFFFFFFFFFFFFFFFFFFFF DUP3 PUSH2 0x8C3 JUMP JUMPDEST PUSH2 0x90A DUP7 DUP4 PUSH2 0x8C3 JUMP JUMPDEST SWAP6 POP DUP1 NOT DUP5 AND SWAP4 POP DUP1 DUP7 AND DUP5 OR SWAP3 POP POP POP SWAP4 SWAP3 POP POP POP JUMP JUMPDEST PUSH1 0x0 DUP2 SWAP1 POP SWAP2 SWAP1 POP JUMP JUMPDEST PUSH1 0x0 PUSH2 0x947 PUSH2 0x942 PUSH2 0x93D DUP5 PUSH2 0x5D7 JUMP JUMPDEST PUSH2 0x922 JUMP JUMPDEST PUSH2 0x5D7 JUMP JUMPDEST SWAP1 POP SWAP2 SWAP1 POP JUMP JUMPDEST PUSH1 0x0 DUP2 SWAP1 POP SWAP2 SWAP1 POP JUMP JUMPDEST PUSH2 0x961 DUP4 PUSH2 0x92C JUMP JUMPDEST PUSH2 0x975 PUSH2 0x96D DUP3 PUSH2 0x94E JUMP JUMPDEST DUP5 DUP5 SLOAD PUSH2 0x8D0 JUMP JUMPDEST DUP3 SSTORE POP POP POP POP JUMP JUMPDEST PUSH1 0x0 SWAP1 JUMP JUMPDEST PUSH2 0x98A PUSH2 0x97D JUMP JUMPDEST PUSH2 0x995 DUP2 DUP5 DUP5 PUSH2 0x958 JUMP JUMPDEST POP POP POP JUMP JUMPDEST JUMPDEST DUP2 DUP2 LT ISZERO PUSH2 0x9B9 JUMPI PUSH2 0x9AE PUSH1 0x0 DUP3 PUSH2 0x982 JUMP JUMPDEST PUSH1 0x1 DUP2 ADD SWAP1 POP PUSH2 0x99B JUMP JUMPDEST POP POP JUMP JUMPDEST PUSH1 0x1F DUP3 GT ISZERO PUSH2 0x9FE JUMPI PUSH2 0x9CF DUP2 PUSH2 0x89E JUMP JUMPDEST PUSH2 0x9D8 DUP5 PUSH2 0x8B3 JUMP JUMPDEST DUP2 ADD PUSH1 0x20 DUP6 LT ISZERO PUSH2 0x9E7 JUMPI DUP2 SWAP1 POP JUMPDEST PUSH2 0x9FB PUSH2 0x9F3 DUP6 PUSH2 0x8B3 JUMP JUMPDEST DUP4 ADD DUP3 PUSH2 0x99A JUMP JUMPDEST POP POP JUMPDEST POP POP POP JUMP JUMPDEST PUSH1 0x0 DUP3 DUP3 SHR SWAP1 POP SWAP3 SWAP2 POP POP JUMP JUMPDEST PUSH1 0x0 PUSH2 0xA21 PUSH1 0x0 NOT DUP5 PUSH1 0x8 MUL PUSH2 0xA03 JUMP JUMPDEST NOT DUP1 DUP4 AND SWAP2 POP POP SWAP3 SWAP2 POP POP JUMP JUMPDEST PUSH1 0x0 PUSH2 0xA3A DUP4 DUP4 PUSH2 0xA10 JUMP JUMPDEST SWAP2 POP DUP3 PUSH1 0x2 MUL DUP3 OR SWAP1 POP SWAP3 SWAP2 POP POP JUMP JUMPDEST PUSH2 0xA53 DUP3 PUSH2 0x6BD JUMP JUMPDEST PUSH8 0xFFFFFFFFFFFFFFFF DUP2 GT ISZERO PUSH2 0xA6C JUMPI PUSH2 0xA6B PUSH2 0x4AC JUMP JUMPDEST JUMPDEST PUSH2 0xA76 DUP3 SLOAD PUSH2 0x86D JUMP JUMPDEST PUSH2 0xA81 DUP3 DUP3 DUP6 PUSH2 0x9BD JUMP JUMPDEST PUSH1 0x0 PUSH1 0x20 SWAP1 POP PUSH1 0x1F DUP4 GT PUSH1 0x1 DUP2 EQ PUSH2 0xAB4 JUMPI PUSH1 0x0 DUP5 ISZERO PUSH2 0xAA2 JUMPI DUP3 DUP8 ADD MLOAD SWAP1 POP JUMPDEST PUSH2 0xAAC DUP6 DUP3 PUSH2 0xA2E JUMP JUMPDEST DUP7 SSTORE POP PUSH2 0xB14 JUMP JUMPDEST PUSH1 0x1F NOT DUP5 AND PUSH2 0xAC2 DUP7 PUSH2 0x89E JUMP JUMPDEST PUSH1 0x0 JUMPDEST DUP3 DUP2 LT ISZERO PUSH2 0xAEA JUMPI DUP5 DUP10 ADD MLOAD DUP3 SSTORE PUSH1 0x1 DUP3 ADD SWAP2 POP PUSH1 0x20 DUP6 ADD SWAP5 POP PUSH1 0x20 DUP2 ADD SWAP1 POP PUSH2 0xAC5 JUMP JUMPDEST DUP7 DUP4 LT ISZERO PUSH2 0xB07 JUMPI DUP5 DUP10 ADD MLOAD PUSH2 0xB03 PUSH1 0x1F DUP10 AND DUP3 PUSH2 0xA10 JUMP JUMPDEST DUP4 SSTORE POP JUMPDEST PUSH1 0x1 PUSH1 0x2 DUP9 MUL ADD DUP9 SSTORE POP POP POP JUMPDEST POP POP POP POP POP POP JUMP INVALID LOG2 PUSH5 0x6970667358 0x22 SLT KECCAK256 POP 0x28 CHAINID PUSH25 0xB7975376CB9FBC154BFAD2EDD79575E8A02932E269654696D8 0xF 0xD3 PUSH30 0x64736F6C6343000812003300000000000000000000000000000000000000 "
		},
		"gasEstimates": {
			"creation": {
				"codeDepositCost": "579600",
				"executionCost": "613",
				"totalCost": "580213"
			},
			"external": {
				"get(address)": "infinite",
				"map(address)": "infinite",
				"set(uint8,address,string,uint256)": "infinite"
			}
		},
		"methodIdentifiers": {
			"get(address)": "c2bc2efc",
			"map(address)": "b721ef6e",
			"set(uint8,address,string,uint256)": "77980b6f"
		}
	},
	"abi": [
		{
			"inputs": [
				{
					"internalType": "address",
					"name": "adr",
					"type": "address"
				}
			],
			"name": "get",
			"outputs": [
				{
					"internalType": "enum Struct.weekDay",
					"name": "",
					"type": "uint8"
				},
				{
					"internalType": "string",
					"name": "",
					"type": "string"
				},
				{
					"internalType": "uint256",
					"name": "",
					"type": "uint256"
				}
			],
			"stateMutability": "view",
			"type": "function"
		},
		{
			"inputs": [
				{
					"internalType": "address",
					"name": "",
					"type": "address"
				}
			],
			"name": "map",
			"outputs": [
				{
					"internalType": "string",
					"name": "Name",
					"type": "string"
				},
				{
					"internalType": "uint256",
					"name": "age",
					"type": "uint256"
				},
				{
					"internalType": "enum Struct.weekDay",
					"name": "dutyday",
					"type": "uint8"
				}
			],
			"stateMutability": "view",
			"type": "function"
		},
		{
			"inputs": [
				{
					"internalType": "enum Struct.weekDay",
					"name": "_duty",
					"type": "uint8"
				},
				{
					"internalType": "address",
					"name": "adr",
					"type": "address"
				},
				{
					"internalType": "string",
					"name": "name",
					"type": "string"
				},
				{
					"internalType": "uint256",
					"name": "age",
					"type": "uint256"
				}
			],
			"name": "set",
			"outputs": [],
			"stateMutability": "nonpayable",
			"type": "function"
		}
	]
}